{
  "abi": [
    {
      "inputs": [],
      "stateMutability": "nonpayable",
      "type": "constructor"
    },
    {
      "anonymous": false,
      "inputs": [
        {
          "indexed": false,
          "internalType": "address",
          "name": "previousAdmin",
          "type": "address"
        },
        {
          "indexed": false,
          "internalType": "address",
          "name": "newAdmin",
          "type": "address"
        }
      ],
      "name": "AdminChanged",
      "type": "event"
    },
    {
      "anonymous": false,
      "inputs": [
        {
          "indexed": true,
          "internalType": "address",
          "name": "account",
          "type": "address"
        },
        {
          "indexed": true,
          "internalType": "address",
          "name": "operator",
          "type": "address"
        },
        {
          "indexed": false,
          "internalType": "bool",
          "name": "approved",
          "type": "bool"
        }
      ],
      "name": "ApprovalForAll",
      "type": "event"
    },
    {
      "anonymous": false,
      "inputs": [
        {
          "indexed": true,
          "internalType": "address",
          "name": "beacon",
          "type": "address"
        }
      ],
      "name": "BeaconUpgraded",
      "type": "event"
    },
    {
      "anonymous": false,
      "inputs": [
        {
          "indexed": false,
          "internalType": "uint8",
          "name": "version",
          "type": "uint8"
        }
      ],
      "name": "Initialized",
      "type": "event"
    },
    {
      "anonymous": false,
      "inputs": [
        {
          "indexed": true,
          "internalType": "address",
          "name": "previousOwner",
          "type": "address"
        },
        {
          "indexed": true,
          "internalType": "address",
          "name": "newOwner",
          "type": "address"
        }
      ],
      "name": "OwnershipTransferred",
      "type": "event"
    },
    {
      "anonymous": false,
      "inputs": [
        {
          "indexed": true,
          "internalType": "address",
          "name": "operator",
          "type": "address"
        },
        {
          "indexed": true,
          "internalType": "address",
          "name": "from",
          "type": "address"
        },
        {
          "indexed": true,
          "internalType": "address",
          "name": "to",
          "type": "address"
        },
        {
          "indexed": false,
          "internalType": "uint256[]",
          "name": "ids",
          "type": "uint256[]"
        },
        {
          "indexed": false,
          "internalType": "uint256[]",
          "name": "values",
          "type": "uint256[]"
        }
      ],
      "name": "TransferBatch",
      "type": "event"
    },
    {
      "anonymous": false,
      "inputs": [
        {
          "indexed": true,
          "internalType": "address",
          "name": "operator",
          "type": "address"
        },
        {
          "indexed": true,
          "internalType": "address",
          "name": "from",
          "type": "address"
        },
        {
          "indexed": true,
          "internalType": "address",
          "name": "to",
          "type": "address"
        },
        {
          "indexed": false,
          "internalType": "uint256",
          "name": "id",
          "type": "uint256"
        },
        {
          "indexed": false,
          "internalType": "uint256",
          "name": "value",
          "type": "uint256"
        }
      ],
      "name": "TransferSingle",
      "type": "event"
    },
    {
      "anonymous": false,
      "inputs": [
        {
          "indexed": false,
          "internalType": "string",
          "name": "value",
          "type": "string"
        },
        {
          "indexed": true,
          "internalType": "uint256",
          "name": "id",
          "type": "uint256"
        }
      ],
      "name": "URI",
      "type": "event"
    },
    {
      "anonymous": false,
      "inputs": [
        {
          "indexed": true,
          "internalType": "address",
          "name": "implementation",
          "type": "address"
        }
      ],
      "name": "Upgraded",
      "type": "event"
    },
    {
      "inputs": [],
      "name": "__Upgradeable1155_init",
      "outputs": [],
      "stateMutability": "nonpayable",
      "type": "function"
    },
    {
      "inputs": [
        {
          "internalType": "address",
          "name": "account",
          "type": "address"
        },
        {
          "internalType": "uint256",
          "name": "id",
          "type": "uint256"
        }
      ],
      "name": "balanceOf",
      "outputs": [
        {
          "internalType": "uint256",
          "name": "",
          "type": "uint256"
        }
      ],
      "stateMutability": "view",
      "type": "function"
    },
    {
      "inputs": [
        {
          "internalType": "address[]",
          "name": "accounts",
          "type": "address[]"
        },
        {
          "internalType": "uint256[]",
          "name": "ids",
          "type": "uint256[]"
        }
      ],
      "name": "balanceOfBatch",
      "outputs": [
        {
          "internalType": "uint256[]",
          "name": "",
          "type": "uint256[]"
        }
      ],
      "stateMutability": "view",
      "type": "function"
    },
    {
      "inputs": [
        {
          "internalType": "address",
          "name": "account",
          "type": "address"
        },
        {
          "internalType": "uint256",
          "name": "id",
          "type": "uint256"
        },
        {
          "internalType": "uint256",
          "name": "value",
          "type": "uint256"
        }
      ],
      "name": "burn",
      "outputs": [],
      "stateMutability": "nonpayable",
      "type": "function"
    },
    {
      "inputs": [
        {
          "internalType": "address",
          "name": "account",
          "type": "address"
        },
        {
          "internalType": "uint256[]",
          "name": "ids",
          "type": "uint256[]"
        },
        {
          "internalType": "uint256[]",
          "name": "values",
          "type": "uint256[]"
        }
      ],
      "name": "burnBatch",
      "outputs": [],
      "stateMutability": "nonpayable",
      "type": "function"
    },
    {
      "inputs": [
        {
          "internalType": "address",
          "name": "account",
          "type": "address"
        },
        {
          "internalType": "address",
          "name": "operator",
          "type": "address"
        }
      ],
      "name": "isApprovedForAll",
      "outputs": [
        {
          "internalType": "bool",
          "name": "",
          "type": "bool"
        }
      ],
      "stateMutability": "view",
      "type": "function"
    },
    {
      "inputs": [],
      "name": "owner",
      "outputs": [
        {
          "internalType": "address",
          "name": "",
          "type": "address"
        }
      ],
      "stateMutability": "view",
      "type": "function"
    },
    {
      "inputs": [],
      "name": "proxiableUUID",
      "outputs": [
        {
          "internalType": "bytes32",
          "name": "",
          "type": "bytes32"
        }
      ],
      "stateMutability": "view",
      "type": "function"
    },
    {
      "inputs": [],
      "name": "renounceOwnership",
      "outputs": [],
      "stateMutability": "nonpayable",
      "type": "function"
    },
    {
      "inputs": [
        {
          "internalType": "address",
          "name": "from",
          "type": "address"
        },
        {
          "internalType": "address",
          "name": "to",
          "type": "address"
        },
        {
          "internalType": "uint256[]",
          "name": "ids",
          "type": "uint256[]"
        },
        {
          "internalType": "uint256[]",
          "name": "amounts",
          "type": "uint256[]"
        },
        {
          "internalType": "bytes",
          "name": "data",
          "type": "bytes"
        }
      ],
      "name": "safeBatchTransferFrom",
      "outputs": [],
      "stateMutability": "nonpayable",
      "type": "function"
    },
    {
      "inputs": [
        {
          "internalType": "address",
          "name": "from",
          "type": "address"
        },
        {
          "internalType": "address",
          "name": "to",
          "type": "address"
        },
        {
          "internalType": "uint256",
          "name": "id",
          "type": "uint256"
        },
        {
          "internalType": "uint256",
          "name": "amount",
          "type": "uint256"
        },
        {
          "internalType": "bytes",
          "name": "data",
          "type": "bytes"
        }
      ],
      "name": "safeTransferFrom",
      "outputs": [],
      "stateMutability": "nonpayable",
      "type": "function"
    },
    {
      "inputs": [
        {
          "internalType": "address",
          "name": "operator",
          "type": "address"
        },
        {
          "internalType": "bool",
          "name": "approved",
          "type": "bool"
        }
      ],
      "name": "setApprovalForAll",
      "outputs": [],
      "stateMutability": "nonpayable",
      "type": "function"
    },
    {
      "inputs": [
        {
          "internalType": "bytes4",
          "name": "interfaceId",
          "type": "bytes4"
        }
      ],
      "name": "supportsInterface",
      "outputs": [
        {
          "internalType": "bool",
          "name": "",
          "type": "bool"
        }
      ],
      "stateMutability": "view",
      "type": "function"
    },
    {
      "inputs": [
        {
          "internalType": "address",
          "name": "newOwner",
          "type": "address"
        }
      ],
      "name": "transferOwnership",
      "outputs": [],
      "stateMutability": "nonpayable",
      "type": "function"
    },
    {
      "inputs": [
        {
          "internalType": "address",
          "name": "newImplementation",
          "type": "address"
        }
      ],
      "name": "upgradeTo",
      "outputs": [],
      "stateMutability": "nonpayable",
      "type": "function"
    },
    {
      "inputs": [
        {
          "internalType": "address",
          "name": "newImplementation",
          "type": "address"
        },
        {
          "internalType": "bytes",
          "name": "data",
          "type": "bytes"
        }
      ],
      "name": "upgradeToAndCall",
      "outputs": [],
      "stateMutability": "payable",
      "type": "function"
    },
    {
      "inputs": [
        {
          "internalType": "uint256",
          "name": "tokenID",
          "type": "uint256"
        }
      ],
      "name": "uri",
      "outputs": [
        {
          "internalType": "string",
          "name": "uri",
          "type": "string"
        }
      ],
      "stateMutability": "view",
      "type": "function"
    }
  ],
  "bytecode": {
    "object": "0x60a0604052306080523480156200001557600080fd5b506200002062000026565b620000e7565b600054610100900460ff1615620000935760405162461bcd60e51b815260206004820152602760248201527f496e697469616c697a61626c653a20636f6e747261637420697320696e697469604482015266616c697a696e6760c81b606482015260840160405180910390fd5b60005460ff90811614620000e5576000805460ff191660ff9081179091556040519081527f7f26b83ff96e1f2b6a682f133852f6798a09c465da95921460cefb38474024989060200160405180910390a15b565b6080516131d56200011f600039600081816105bc01528181610652015281816108970152818161092d0152610a2801526131d56000f3fe60806040526004361061010d5760003560e01c80636b20c454116100a5578063be106a4611610074578063f242432a11610059578063f242432a14610314578063f2fde38b14610334578063f5298aca1461035457600080fd5b8063be106a46146102b6578063e985e9c5146102cb57600080fd5b80636b20c45414610239578063715018a6146102595780638da5cb5b1461026e578063a22cb4651461029657600080fd5b80633659cfe6116100e15780633659cfe6146101c45780634e1273f4146101e45780634f1ef2861461021157806352d1902d1461022457600080fd5b8062fdd58e1461011257806301ffc9a7146101455780630e89341c146101755780632eb2c2d6146101a2575b600080fd5b34801561011e57600080fd5b5061013261012d3660046126f0565b610374565b6040519081526020015b60405180910390f35b34801561015157600080fd5b50610165610160366004612748565b610422565b604051901515815260200161013c565b34801561018157600080fd5b50610195610190366004612765565b610505565b60405161013c91906127ce565b3480156101ae57600080fd5b506101c26101bd366004612946565b610510565b005b3480156101d057600080fd5b506101c26101df3660046129f0565b6105b2565b3480156101f057600080fd5b506102046101ff366004612a0b565b61074f565b60405161013c9190612b11565b6101c261021f366004612b24565b61088d565b34801561023057600080fd5b50610132610a1b565b34801561024557600080fd5b506101c2610254366004612b68565b610ae1565b34801561026557600080fd5b506101c2610b7f565b34801561027a57600080fd5b5060fb546040516001600160a01b03909116815260200161013c565b3480156102a257600080fd5b506101c26102b1366004612bdc565b610b93565b3480156102c257600080fd5b506101c2610b9e565b3480156102d757600080fd5b506101656102e6366004612c18565b6001600160a01b03918216600090815260666020908152604080832093909416825291909152205460ff1690565b34801561032057600080fd5b506101c261032f366004612c4b565b610d45565b34801561034057600080fd5b506101c261034f3660046129f0565b610de0565b34801561036057600080fd5b506101c261036f366004612cb0565b610e6d565b60006001600160a01b0383166103f75760405162461bcd60e51b815260206004820152602a60248201527f455243313135353a2061646472657373207a65726f206973206e6f742061207660448201527f616c6964206f776e65720000000000000000000000000000000000000000000060648201526084015b60405180910390fd5b5060008181526065602090815260408083206001600160a01b03861684529091529020545b92915050565b60007fffffffff0000000000000000000000000000000000000000000000000000000082167fd9b67a260000000000000000000000000000000000000000000000000000000014806104b557507fffffffff0000000000000000000000000000000000000000000000000000000082167f0e89341c00000000000000000000000000000000000000000000000000000000145b8061041c57507f01ffc9a7000000000000000000000000000000000000000000000000000000007fffffffff0000000000000000000000000000000000000000000000000000000083161461041c565b606061041c82610f06565b6001600160a01b03851633148061052c575061052c85336102e6565b61059e5760405162461bcd60e51b815260206004820152602e60248201527f455243313135353a2063616c6c6572206973206e6f7420746f6b656e206f776e60448201527f6572206f7220617070726f76656400000000000000000000000000000000000060648201526084016103ee565b6105ab8585858585610fe6565b5050505050565b6001600160a01b037f00000000000000000000000000000000000000000000000000000000000000001630036106505760405162461bcd60e51b815260206004820152602c60248201527f46756e6374696f6e206d7573742062652063616c6c6564207468726f7567682060448201527f64656c656761746563616c6c000000000000000000000000000000000000000060648201526084016103ee565b7f00000000000000000000000000000000000000000000000000000000000000006001600160a01b03166106ab7f360894a13ba1a3210667c828492db98dca3e2076cc3735a920a3ca505d382bbc546001600160a01b031690565b6001600160a01b0316146107275760405162461bcd60e51b815260206004820152602c60248201527f46756e6374696f6e206d7573742062652063616c6c6564207468726f7567682060448201527f6163746976652070726f7879000000000000000000000000000000000000000060648201526084016103ee565b61073081611295565b6040805160008082526020820190925261074c9183919061129d565b50565b606081518351146107c85760405162461bcd60e51b815260206004820152602960248201527f455243313135353a206163636f756e747320616e6420696473206c656e67746860448201527f206d69736d61746368000000000000000000000000000000000000000000000060648201526084016103ee565b6000835167ffffffffffffffff8111156107e4576107e46127e1565b60405190808252806020026020018201604052801561080d578160200160208202803683370190505b50905060005b84518110156108855761085885828151811061083157610831612ce3565b602002602001015185838151811061084b5761084b612ce3565b6020026020010151610374565b82828151811061086a5761086a612ce3565b602090810291909101015261087e81612d41565b9050610813565b509392505050565b6001600160a01b037f000000000000000000000000000000000000000000000000000000000000000016300361092b5760405162461bcd60e51b815260206004820152602c60248201527f46756e6374696f6e206d7573742062652063616c6c6564207468726f7567682060448201527f64656c656761746563616c6c000000000000000000000000000000000000000060648201526084016103ee565b7f00000000000000000000000000000000000000000000000000000000000000006001600160a01b03166109867f360894a13ba1a3210667c828492db98dca3e2076cc3735a920a3ca505d382bbc546001600160a01b031690565b6001600160a01b031614610a025760405162461bcd60e51b815260206004820152602c60248201527f46756e6374696f6e206d7573742062652063616c6c6564207468726f7567682060448201527f6163746976652070726f7879000000000000000000000000000000000000000060648201526084016103ee565b610a0b82611295565b610a178282600161129d565b5050565b6000306001600160a01b037f00000000000000000000000000000000000000000000000000000000000000001614610abb5760405162461bcd60e51b815260206004820152603860248201527f555550535570677261646561626c653a206d757374206e6f742062652063616c60448201527f6c6564207468726f7567682064656c656761746563616c6c000000000000000060648201526084016103ee565b507f360894a13ba1a3210667c828492db98dca3e2076cc3735a920a3ca505d382bbc5b90565b6001600160a01b038316331480610afd5750610afd83336102e6565b610b6f5760405162461bcd60e51b815260206004820152602e60248201527f455243313135353a2063616c6c6572206973206e6f7420746f6b656e206f776e60448201527f6572206f7220617070726f76656400000000000000000000000000000000000060648201526084016103ee565b610b7a83838361143d565b505050565b610b876116df565b610b916000611739565b565b610a173383836117a3565b600054610100900460ff1615808015610bbe5750600054600160ff909116105b80610bd85750303b158015610bd8575060005460ff166001145b610c4a5760405162461bcd60e51b815260206004820152602e60248201527f496e697469616c697a61626c653a20636f6e747261637420697320616c72656160448201527f647920696e697469616c697a656400000000000000000000000000000000000060648201526084016103ee565b600080547fffffffffffffffffffffffffffffffffffffffffffffffffffffffffffffff001660011790558015610ca857600080547fffffffffffffffffffffffffffffffffffffffffffffffffffffffffffff00ff166101001790555b610cc0604051806020016040528060008152506118b5565b610cc861193b565b610cd06119b8565b610cd8611a3d565b610ce061193b565b801561074c57600080547fffffffffffffffffffffffffffffffffffffffffffffffffffffffffffff00ff169055604051600181527f7f26b83ff96e1f2b6a682f133852f6798a09c465da95921460cefb38474024989060200160405180910390a150565b6001600160a01b038516331480610d615750610d6185336102e6565b610dd35760405162461bcd60e51b815260206004820152602e60248201527f455243313135353a2063616c6c6572206973206e6f7420746f6b656e206f776e60448201527f6572206f7220617070726f76656400000000000000000000000000000000000060648201526084016103ee565b6105ab8585858585611ac2565b610de86116df565b6001600160a01b038116610e645760405162461bcd60e51b815260206004820152602660248201527f4f776e61626c653a206e6577206f776e657220697320746865207a65726f206160448201527f646472657373000000000000000000000000000000000000000000000000000060648201526084016103ee565b61074c81611739565b6001600160a01b038316331480610e895750610e8983336102e6565b610efb5760405162461bcd60e51b815260206004820152602e60248201527f455243313135353a2063616c6c6572206973206e6f7420746f6b656e206f776e60448201527f6572206f7220617070726f76656400000000000000000000000000000000000060648201526084016103ee565b610b7a838383611caa565b600081815260ca6020526040812080546060929190610f2490612d79565b80601f0160208091040260200160405190810160405280929190818152602001828054610f5090612d79565b8015610f9d5780601f10610f7257610100808354040283529160200191610f9d565b820191906000526020600020905b815481529060010190602001808311610f8057829003601f168201915b505050505090506000815111610fbb57610fb683611e76565b610fdf565b60c981604051602001610fcf929190612dcc565b6040516020818303038152906040525b9392505050565b815183511461105d5760405162461bcd60e51b815260206004820152602860248201527f455243313135353a2069647320616e6420616d6f756e7473206c656e6774682060448201527f6d69736d6174636800000000000000000000000000000000000000000000000060648201526084016103ee565b6001600160a01b0384166110d95760405162461bcd60e51b815260206004820152602560248201527f455243313135353a207472616e7366657220746f20746865207a65726f20616460448201527f647265737300000000000000000000000000000000000000000000000000000060648201526084016103ee565b336110e8818787878787611f0a565b60005b845181101561122757600085828151811061110857611108612ce3565b60200260200101519050600085838151811061112657611126612ce3565b60209081029190910181015160008481526065835260408082206001600160a01b038e1683529093529190912054909150818110156111cd5760405162461bcd60e51b815260206004820152602a60248201527f455243313135353a20696e73756666696369656e742062616c616e636520666f60448201527f72207472616e736665720000000000000000000000000000000000000000000060648201526084016103ee565b60008381526065602090815260408083206001600160a01b038e8116855292528083208585039055908b1682528120805484929061120c908490612e71565b925050819055505050508061122090612d41565b90506110eb565b50846001600160a01b0316866001600160a01b0316826001600160a01b03167f4a39dc06d4c0dbc64b70af90fd698a233a518aa5d07e595d983b8c0526c8f7fb8787604051611277929190612e84565b60405180910390a461128d818787878787611f0f565b505050505050565b61074c6116df565b7f4910fdfa16fed3260ed0e7147f7cc6da11a60208b5b9406d12a635614ffd91435460ff16156112d057610b7a83612113565b826001600160a01b03166352d1902d6040518163ffffffff1660e01b8152600401602060405180830381865afa92505050801561132a575060408051601f3d908101601f1916820190925261132791810190612ea9565b60015b61139c5760405162461bcd60e51b815260206004820152602e60248201527f45524331393637557067726164653a206e657720696d706c656d656e7461746960448201527f6f6e206973206e6f74205555505300000000000000000000000000000000000060648201526084016103ee565b7f360894a13ba1a3210667c828492db98dca3e2076cc3735a920a3ca505d382bbc81146114315760405162461bcd60e51b815260206004820152602960248201527f45524331393637557067726164653a20756e737570706f727465642070726f7860448201527f6961626c6555554944000000000000000000000000000000000000000000000060648201526084016103ee565b50610b7a8383836121e9565b6001600160a01b0383166114b95760405162461bcd60e51b815260206004820152602360248201527f455243313135353a206275726e2066726f6d20746865207a65726f206164647260448201527f657373000000000000000000000000000000000000000000000000000000000060648201526084016103ee565b80518251146115305760405162461bcd60e51b815260206004820152602860248201527f455243313135353a2069647320616e6420616d6f756e7473206c656e6774682060448201527f6d69736d6174636800000000000000000000000000000000000000000000000060648201526084016103ee565b600033905061155381856000868660405180602001604052806000815250611f0a565b60005b835181101561167057600084828151811061157357611573612ce3565b60200260200101519050600084838151811061159157611591612ce3565b60209081029190910181015160008481526065835260408082206001600160a01b038c1683529093529190912054909150818110156116375760405162461bcd60e51b8152602060048201526024808201527f455243313135353a206275726e20616d6f756e7420657863656564732062616c60448201527f616e63650000000000000000000000000000000000000000000000000000000060648201526084016103ee565b60009283526065602090815260408085206001600160a01b038b168652909152909220910390558061166881612d41565b915050611556565b5060006001600160a01b0316846001600160a01b0316826001600160a01b03167f4a39dc06d4c0dbc64b70af90fd698a233a518aa5d07e595d983b8c0526c8f7fb86866040516116c1929190612e84565b60405180910390a46040805160208101909152600090525b50505050565b60fb546001600160a01b03163314610b915760405162461bcd60e51b815260206004820181905260248201527f4f776e61626c653a2063616c6c6572206973206e6f7420746865206f776e657260448201526064016103ee565b60fb80546001600160a01b038381167fffffffffffffffffffffffff0000000000000000000000000000000000000000831681179093556040519116919082907f8be0079c531659141344cd1fd0a4f28419497f9722a3daafe3b4186f6b6457e090600090a35050565b816001600160a01b0316836001600160a01b03160361182a5760405162461bcd60e51b815260206004820152602960248201527f455243313135353a2073657474696e6720617070726f76616c2073746174757360448201527f20666f722073656c66000000000000000000000000000000000000000000000060648201526084016103ee565b6001600160a01b0383811660008181526066602090815260408083209487168084529482529182902080547fffffffffffffffffffffffffffffffffffffffffffffffffffffffffffffff001686151590811790915591519182527f17307eab39ab6107e8899845ad3d59bd9653f200f220920489ca2b5937696c31910160405180910390a3505050565b600054610100900460ff166119325760405162461bcd60e51b815260206004820152602b60248201527f496e697469616c697a61626c653a20636f6e7472616374206973206e6f74206960448201527f6e697469616c697a696e6700000000000000000000000000000000000000000060648201526084016103ee565b61074c8161220e565b600054610100900460ff16610b915760405162461bcd60e51b815260206004820152602b60248201527f496e697469616c697a61626c653a20636f6e7472616374206973206e6f74206960448201527f6e697469616c697a696e6700000000000000000000000000000000000000000060648201526084016103ee565b600054610100900460ff16611a355760405162461bcd60e51b815260206004820152602b60248201527f496e697469616c697a61626c653a20636f6e7472616374206973206e6f74206960448201527f6e697469616c697a696e6700000000000000000000000000000000000000000060648201526084016103ee565b610b91612294565b600054610100900460ff16611aba5760405162461bcd60e51b815260206004820152602b60248201527f496e697469616c697a61626c653a20636f6e7472616374206973206e6f74206960448201527f6e697469616c697a696e6700000000000000000000000000000000000000000060648201526084016103ee565b610b9161232d565b6001600160a01b038416611b3e5760405162461bcd60e51b815260206004820152602560248201527f455243313135353a207472616e7366657220746f20746865207a65726f20616460448201527f647265737300000000000000000000000000000000000000000000000000000060648201526084016103ee565b336000611b4a856123b3565b90506000611b57856123b3565b9050611b67838989858589611f0a565b60008681526065602090815260408083206001600160a01b038c16845290915290205485811015611c005760405162461bcd60e51b815260206004820152602a60248201527f455243313135353a20696e73756666696369656e742062616c616e636520666f60448201527f72207472616e736665720000000000000000000000000000000000000000000060648201526084016103ee565b60008781526065602090815260408083206001600160a01b038d8116855292528083208985039055908a16825281208054889290611c3f908490612e71565b909155505060408051888152602081018890526001600160a01b03808b16928c821692918816917fc3d58168c5ae7397731d063d5bbf3d657854427343f4c083240f7aacaa2d0f62910160405180910390a4611c9f848a8a8a8a8a6123fe565b505050505050505050565b6001600160a01b038316611d265760405162461bcd60e51b815260206004820152602360248201527f455243313135353a206275726e2066726f6d20746865207a65726f206164647260448201527f657373000000000000000000000000000000000000000000000000000000000060648201526084016103ee565b336000611d32846123b3565b90506000611d3f846123b3565b9050611d5f83876000858560405180602001604052806000815250611f0a565b60008581526065602090815260408083206001600160a01b038a16845290915290205484811015611df75760405162461bcd60e51b8152602060048201526024808201527f455243313135353a206275726e20616d6f756e7420657863656564732062616c60448201527f616e63650000000000000000000000000000000000000000000000000000000060648201526084016103ee565b60008681526065602090815260408083206001600160a01b038b81168086529184528285208a8703905582518b81529384018a90529092908816917fc3d58168c5ae7397731d063d5bbf3d657854427343f4c083240f7aacaa2d0f62910160405180910390a46040805160208101909152600090525b50505050505050565b606060678054611e8590612d79565b80601f0160208091040260200160405190810160405280929190818152602001828054611eb190612d79565b8015611efe5780601f10611ed357610100808354040283529160200191611efe565b820191906000526020600020905b815481529060010190602001808311611ee157829003601f168201915b50505050509050919050565b61128d565b6001600160a01b0384163b1561128d576040517fbc197c810000000000000000000000000000000000000000000000000000000081526001600160a01b0385169063bc197c8190611f6c9089908990889088908890600401612ec2565b6020604051808303816000875af1925050508015611fa7575060408051601f3d908101601f19168201909252611fa491810190612f20565b60015b61205c57611fb3612f3d565b806308c379a003611fec5750611fc7612f58565b80611fd25750611fee565b8060405162461bcd60e51b81526004016103ee91906127ce565b505b60405162461bcd60e51b815260206004820152603460248201527f455243313135353a207472616e7366657220746f206e6f6e2d4552433131353560448201527f526563656976657220696d706c656d656e74657200000000000000000000000060648201526084016103ee565b7fffffffff0000000000000000000000000000000000000000000000000000000081167fbc197c810000000000000000000000000000000000000000000000000000000014611e6d5760405162461bcd60e51b815260206004820152602860248201527f455243313135353a204552433131353552656365697665722072656a6563746560448201527f6420746f6b656e7300000000000000000000000000000000000000000000000060648201526084016103ee565b6001600160a01b0381163b6121905760405162461bcd60e51b815260206004820152602d60248201527f455243313936373a206e657720696d706c656d656e746174696f6e206973206e60448201527f6f74206120636f6e74726163740000000000000000000000000000000000000060648201526084016103ee565b7f360894a13ba1a3210667c828492db98dca3e2076cc3735a920a3ca505d382bbc80547fffffffffffffffffffffffff0000000000000000000000000000000000000000166001600160a01b0392909216919091179055565b6121f283612559565b6000825111806121ff5750805b15610b7a576116d98383612599565b600054610100900460ff1661228b5760405162461bcd60e51b815260206004820152602b60248201527f496e697469616c697a61626c653a20636f6e7472616374206973206e6f74206960448201527f6e697469616c697a696e6700000000000000000000000000000000000000000060648201526084016103ee565b61074c816126a4565b600054610100900460ff166123115760405162461bcd60e51b815260206004820152602b60248201527f496e697469616c697a61626c653a20636f6e7472616374206973206e6f74206960448201527f6e697469616c697a696e6700000000000000000000000000000000000000000060648201526084016103ee565b60408051602081019091526000815260c99061074c9082613046565b600054610100900460ff166123aa5760405162461bcd60e51b815260206004820152602b60248201527f496e697469616c697a61626c653a20636f6e7472616374206973206e6f74206960448201527f6e697469616c697a696e6700000000000000000000000000000000000000000060648201526084016103ee565b610b9133611739565b604080516001808252818301909252606091600091906020808301908036833701905050905082816000815181106123ed576123ed612ce3565b602090810291909101015292915050565b6001600160a01b0384163b1561128d576040517ff23a6e610000000000000000000000000000000000000000000000000000000081526001600160a01b0385169063f23a6e619061245b9089908990889088908890600401613142565b6020604051808303816000875af1925050508015612496575060408051601f3d908101601f1916820190925261249391810190612f20565b60015b6124a257611fb3612f3d565b7fffffffff0000000000000000000000000000000000000000000000000000000081167ff23a6e610000000000000000000000000000000000000000000000000000000014611e6d5760405162461bcd60e51b815260206004820152602860248201527f455243313135353a204552433131353552656365697665722072656a6563746560448201527f6420746f6b656e7300000000000000000000000000000000000000000000000060648201526084016103ee565b61256281612113565b6040516001600160a01b038216907fbc7cd75a20ee27fd9adebab32041f755214dbc6bffa90cc0225b39da2e5c2d3b90600090a250565b60606001600160a01b0383163b6126185760405162461bcd60e51b815260206004820152602660248201527f416464726573733a2064656c65676174652063616c6c20746f206e6f6e2d636f60448201527f6e7472616374000000000000000000000000000000000000000000000000000060648201526084016103ee565b600080846001600160a01b0316846040516126339190613185565b600060405180830381855af49150503d806000811461266e576040519150601f19603f3d011682016040523d82523d6000602084013e612673565b606091505b509150915061269b82826040518060600160405280602781526020016131a2602791396126b0565b95945050505050565b6067610a178282613046565b606083156126bf575081610fdf565b610fdf8383815115611fd25781518083602001fd5b80356001600160a01b03811681146126eb57600080fd5b919050565b6000806040838503121561270357600080fd5b61270c836126d4565b946020939093013593505050565b7fffffffff000000000000000000000000000000000000000000000000000000008116811461074c57600080fd5b60006020828403121561275a57600080fd5b8135610fdf8161271a565b60006020828403121561277757600080fd5b5035919050565b60005b83811015612799578181015183820152602001612781565b50506000910152565b600081518084526127ba81602086016020860161277e565b601f01601f19169290920160200192915050565b602081526000610fdf60208301846127a2565b7f4e487b7100000000000000000000000000000000000000000000000000000000600052604160045260246000fd5b601f19601f830116810181811067ffffffffffffffff82111715612836576128366127e1565b6040525050565b600067ffffffffffffffff821115612857576128576127e1565b5060051b60200190565b600082601f83011261287257600080fd5b8135602061287f8261283d565b60405161288c8282612810565b83815260059390931b85018201928281019150868411156128ac57600080fd5b8286015b848110156128c757803583529183019183016128b0565b509695505050505050565b600082601f8301126128e357600080fd5b813567ffffffffffffffff8111156128fd576128fd6127e1565b6040516129146020601f19601f8501160182612810565b81815284602083860101111561292957600080fd5b816020850160208301376000918101602001919091529392505050565b600080600080600060a0868803121561295e57600080fd5b612967866126d4565b9450612975602087016126d4565b9350604086013567ffffffffffffffff8082111561299257600080fd5b61299e89838a01612861565b945060608801359150808211156129b457600080fd5b6129c089838a01612861565b935060808801359150808211156129d657600080fd5b506129e3888289016128d2565b9150509295509295909350565b600060208284031215612a0257600080fd5b610fdf826126d4565b60008060408385031215612a1e57600080fd5b823567ffffffffffffffff80821115612a3657600080fd5b818501915085601f830112612a4a57600080fd5b81356020612a578261283d565b604051612a648282612810565b83815260059390931b8501820192828101915089841115612a8457600080fd5b948201945b83861015612aa957612a9a866126d4565b82529482019490820190612a89565b96505086013592505080821115612abf57600080fd5b50612acc85828601612861565b9150509250929050565b600081518084526020808501945080840160005b83811015612b0657815187529582019590820190600101612aea565b509495945050505050565b602081526000610fdf6020830184612ad6565b60008060408385031215612b3757600080fd5b612b40836126d4565b9150602083013567ffffffffffffffff811115612b5c57600080fd5b612acc858286016128d2565b600080600060608486031215612b7d57600080fd5b612b86846126d4565b9250602084013567ffffffffffffffff80821115612ba357600080fd5b612baf87838801612861565b93506040860135915080821115612bc557600080fd5b50612bd286828701612861565b9150509250925092565b60008060408385031215612bef57600080fd5b612bf8836126d4565b915060208301358015158114612c0d57600080fd5b809150509250929050565b60008060408385031215612c2b57600080fd5b612c34836126d4565b9150612c42602084016126d4565b90509250929050565b600080600080600060a08688031215612c6357600080fd5b612c6c866126d4565b9450612c7a602087016126d4565b93506040860135925060608601359150608086013567ffffffffffffffff811115612ca457600080fd5b6129e3888289016128d2565b600080600060608486031215612cc557600080fd5b612cce846126d4565b95602085013595506040909401359392505050565b7f4e487b7100000000000000000000000000000000000000000000000000000000600052603260045260246000fd5b7f4e487b7100000000000000000000000000000000000000000000000000000000600052601160045260246000fd5b60007fffffffffffffffffffffffffffffffffffffffffffffffffffffffffffffffff8203612d7257612d72612d12565b5060010190565b600181811c90821680612d8d57607f821691505b602082108103612dc6577f4e487b7100000000000000000000000000000000000000000000000000000000600052602260045260246000fd5b50919050565b6000808454612dda81612d79565b60018281168015612df25760018114612e2557612e54565b7fffffffffffffffffffffffffffffffffffffffffffffffffffffffffffffff0084168752821515830287019450612e54565b8860005260208060002060005b85811015612e4b5781548a820152908401908201612e32565b50505082870194505b505050508351612e6881836020880161277e565b01949350505050565b8082018082111561041c5761041c612d12565b604081526000612e976040830185612ad6565b828103602084015261269b8185612ad6565b600060208284031215612ebb57600080fd5b5051919050565b60006001600160a01b03808816835280871660208401525060a06040830152612eee60a0830186612ad6565b8281036060840152612f008186612ad6565b90508281036080840152612f1481856127a2565b98975050505050505050565b600060208284031215612f3257600080fd5b8151610fdf8161271a565b600060033d1115610ade5760046000803e5060005160e01c90565b600060443d1015612f665790565b6040517ffffffffffffffffffffffffffffffffffffffffffffffffffffffffffffffffc803d016004833e81513d67ffffffffffffffff8160248401118184111715612fb457505050505090565b8285019150815181811115612fcc5750505050505090565b843d8701016020828501011115612fe65750505050505090565b612ff560208286010187612810565b509095945050505050565b601f821115610b7a57600081815260208120601f850160051c810160208610156130275750805b601f850160051c820191505b8181101561128d57828155600101613033565b815167ffffffffffffffff811115613060576130606127e1565b6130748161306e8454612d79565b84613000565b602080601f8311600181146130c757600084156130915750858301515b7fffffffffffffffffffffffffffffffffffffffffffffffffffffffffffffffff600386901b1c1916600185901b17855561128d565b600085815260208120601f198616915b828110156130f6578886015182559484019460019091019084016130d7565b508582101561313257878501517fffffffffffffffffffffffffffffffffffffffffffffffffffffffffffffffff600388901b60f8161c191681555b5050505050600190811b01905550565b60006001600160a01b03808816835280871660208401525084604083015283606083015260a0608083015261317a60a08301846127a2565b979650505050505050565b6000825161319781846020870161277e565b919091019291505056fe416464726573733a206c6f772d6c6576656c2064656c65676174652063616c6c206661696c6564a164736f6c6343000811000a",
    "linkReferences": {}
  },
  "methodIdentifiers": {
    "__Upgradeable1155_init()": "be106a46",
    "balanceOf(address,uint256)": "00fdd58e",
    "balanceOfBatch(address[],uint256[])": "4e1273f4",
    "burn(address,uint256,uint256)": "f5298aca",
    "burnBatch(address,uint256[],uint256[])": "6b20c454",
    "isApprovedForAll(address,address)": "e985e9c5",
    "owner()": "8da5cb5b",
    "proxiableUUID()": "52d1902d",
    "renounceOwnership()": "715018a6",
    "safeBatchTransferFrom(address,address,uint256[],uint256[],bytes)": "2eb2c2d6",
    "safeTransferFrom(address,address,uint256,uint256,bytes)": "f242432a",
    "setApprovalForAll(address,bool)": "a22cb465",
    "supportsInterface(bytes4)": "01ffc9a7",
    "transferOwnership(address)": "f2fde38b",
    "upgradeTo(address)": "3659cfe6",
    "upgradeToAndCall(address,bytes)": "4f1ef286",
    "uri(uint256)": "0e89341c"
  },
  "id": 33
}