{
  "abi": [
    {
      "inputs": [],
      "stateMutability": "nonpayable",
      "type": "constructor"
    },
    {
      "inputs": [],
      "name": "ArraySize",
      "type": "error"
    },
    {
      "inputs": [],
      "name": "FractionalBurn",
      "type": "error"
    },
    {
      "inputs": [],
      "name": "NotAllowed",
      "type": "error"
    },
    {
      "inputs": [],
      "name": "NotApprovedOrOwner",
      "type": "error"
    },
    {
      "inputs": [],
      "name": "ToZeroAddress",
      "type": "error"
    },
    {
      "inputs": [],
      "name": "TypeMismatch",
      "type": "error"
    },
    {
      "anonymous": false,
      "inputs": [
        {
          "indexed": false,
          "internalType": "address",
          "name": "previousAdmin",
          "type": "address"
        },
        {
          "indexed": false,
          "internalType": "address",
          "name": "newAdmin",
          "type": "address"
        }
      ],
      "name": "AdminChanged",
      "type": "event"
    },
    {
      "anonymous": false,
      "inputs": [
        {
          "indexed": true,
          "internalType": "address",
          "name": "account",
          "type": "address"
        },
        {
          "indexed": true,
          "internalType": "address",
          "name": "operator",
          "type": "address"
        },
        {
          "indexed": false,
          "internalType": "bool",
          "name": "approved",
          "type": "bool"
        }
      ],
      "name": "ApprovalForAll",
      "type": "event"
    },
    {
      "anonymous": false,
      "inputs": [
        {
          "indexed": true,
          "internalType": "address",
          "name": "beacon",
          "type": "address"
        }
      ],
      "name": "BeaconUpgraded",
      "type": "event"
    },
    {
      "anonymous": false,
      "inputs": [
        {
          "indexed": false,
          "internalType": "uint8",
          "name": "version",
          "type": "uint8"
        }
      ],
      "name": "Initialized",
      "type": "event"
    },
    {
      "anonymous": false,
      "inputs": [
        {
          "indexed": true,
          "internalType": "address",
          "name": "previousOwner",
          "type": "address"
        },
        {
          "indexed": true,
          "internalType": "address",
          "name": "newOwner",
          "type": "address"
        }
      ],
      "name": "OwnershipTransferred",
      "type": "event"
    },
    {
      "anonymous": false,
      "inputs": [
        {
          "indexed": true,
          "internalType": "address",
          "name": "operator",
          "type": "address"
        },
        {
          "indexed": true,
          "internalType": "address",
          "name": "from",
          "type": "address"
        },
        {
          "indexed": true,
          "internalType": "address",
          "name": "to",
          "type": "address"
        },
        {
          "indexed": false,
          "internalType": "uint256[]",
          "name": "ids",
          "type": "uint256[]"
        },
        {
          "indexed": false,
          "internalType": "uint256[]",
          "name": "values",
          "type": "uint256[]"
        }
      ],
      "name": "TransferBatch",
      "type": "event"
    },
    {
      "anonymous": false,
      "inputs": [
        {
          "indexed": true,
          "internalType": "address",
          "name": "operator",
          "type": "address"
        },
        {
          "indexed": true,
          "internalType": "address",
          "name": "from",
          "type": "address"
        },
        {
          "indexed": true,
          "internalType": "address",
          "name": "to",
          "type": "address"
        },
        {
          "indexed": false,
          "internalType": "uint256",
          "name": "id",
          "type": "uint256"
        },
        {
          "indexed": false,
          "internalType": "uint256",
          "name": "value",
          "type": "uint256"
        }
      ],
      "name": "TransferSingle",
      "type": "event"
    },
    {
      "anonymous": false,
      "inputs": [
        {
          "indexed": false,
          "internalType": "string",
          "name": "value",
          "type": "string"
        },
        {
          "indexed": true,
          "internalType": "uint256",
          "name": "id",
          "type": "uint256"
        }
      ],
      "name": "URI",
      "type": "event"
    },
    {
      "anonymous": false,
      "inputs": [
        {
          "indexed": true,
          "internalType": "address",
          "name": "implementation",
          "type": "address"
        }
      ],
      "name": "Upgraded",
      "type": "event"
    },
    {
      "inputs": [],
      "name": "NF_INDEX_MASK",
      "outputs": [
        {
          "internalType": "uint256",
          "name": "",
          "type": "uint256"
        }
      ],
      "stateMutability": "view",
      "type": "function"
    },
    {
      "inputs": [],
      "name": "TYPE_MASK",
      "outputs": [
        {
          "internalType": "uint256",
          "name": "",
          "type": "uint256"
        }
      ],
      "stateMutability": "view",
      "type": "function"
    },
    {
      "inputs": [],
      "name": "TYPE_NF_BIT",
      "outputs": [
        {
          "internalType": "uint256",
          "name": "",
          "type": "uint256"
        }
      ],
      "stateMutability": "view",
      "type": "function"
    },
    {
      "inputs": [],
      "name": "__SemiFungible1155_init",
      "outputs": [],
      "stateMutability": "nonpayable",
      "type": "function"
    },
    {
      "inputs": [],
      "name": "__Upgradeable1155_init",
      "outputs": [],
      "stateMutability": "nonpayable",
      "type": "function"
    },
    {
      "inputs": [
        {
          "internalType": "address",
          "name": "_owner",
          "type": "address"
        },
        {
          "internalType": "uint256",
          "name": "_tokenID",
          "type": "uint256"
        }
      ],
      "name": "balanceOf",
      "outputs": [
        {
          "internalType": "uint256",
          "name": "tokenUserBalance",
          "type": "uint256"
        }
      ],
      "stateMutability": "view",
      "type": "function"
    },
    {
      "inputs": [
        {
          "internalType": "uint256",
          "name": "_tokenID",
          "type": "uint256"
        }
      ],
      "name": "balanceOf",
      "outputs": [
        {
          "internalType": "uint256",
          "name": "tokenValue",
          "type": "uint256"
        }
      ],
      "stateMutability": "view",
      "type": "function"
    },
    {
      "inputs": [
        {
          "internalType": "address[]",
          "name": "accounts",
          "type": "address[]"
        },
        {
          "internalType": "uint256[]",
          "name": "ids",
          "type": "uint256[]"
        }
      ],
      "name": "balanceOfBatch",
      "outputs": [
        {
          "internalType": "uint256[]",
          "name": "",
          "type": "uint256[]"
        }
      ],
      "stateMutability": "view",
      "type": "function"
    },
    {
      "inputs": [
        {
          "internalType": "address",
          "name": "account",
          "type": "address"
        },
        {
          "internalType": "uint256",
          "name": "id",
          "type": "uint256"
        },
        {
          "internalType": "uint256",
          "name": "value",
          "type": "uint256"
        }
      ],
      "name": "burn",
      "outputs": [],
      "stateMutability": "nonpayable",
      "type": "function"
    },
    {
      "inputs": [
        {
          "internalType": "address",
          "name": "account",
          "type": "address"
        },
        {
          "internalType": "uint256[]",
          "name": "ids",
          "type": "uint256[]"
        },
        {
          "internalType": "uint256[]",
          "name": "values",
          "type": "uint256[]"
        }
      ],
      "name": "burnBatch",
      "outputs": [],
      "stateMutability": "nonpayable",
      "type": "function"
    },
    {
      "inputs": [
        {
          "internalType": "address",
          "name": "_account",
          "type": "address"
        },
        {
          "internalType": "uint256",
          "name": "_tokenID",
          "type": "uint256"
        }
      ],
      "name": "burnValue",
      "outputs": [],
      "stateMutability": "nonpayable",
      "type": "function"
    },
    {
      "inputs": [
        {
          "internalType": "uint256",
          "name": "",
          "type": "uint256"
        }
      ],
      "name": "creators",
      "outputs": [
        {
          "internalType": "address",
          "name": "",
          "type": "address"
        }
      ],
      "stateMutability": "view",
      "type": "function"
    },
    {
      "inputs": [
        {
          "internalType": "address",
          "name": "account",
          "type": "address"
        },
        {
          "internalType": "address",
          "name": "operator",
          "type": "address"
        }
      ],
      "name": "isApprovedForAll",
      "outputs": [
        {
          "internalType": "bool",
          "name": "",
          "type": "bool"
        }
      ],
      "stateMutability": "view",
      "type": "function"
    },
    {
      "inputs": [
        {
          "internalType": "uint256[]",
          "name": "_fractionIDs",
          "type": "uint256[]"
        }
      ],
      "name": "mergeValue",
      "outputs": [],
      "stateMutability": "nonpayable",
      "type": "function"
    },
    {
      "inputs": [],
      "name": "owner",
      "outputs": [
        {
          "internalType": "address",
          "name": "",
          "type": "address"
        }
      ],
      "stateMutability": "view",
      "type": "function"
    },
    {
      "inputs": [
        {
          "internalType": "uint256",
          "name": "",
          "type": "uint256"
        }
      ],
      "name": "owners",
      "outputs": [
        {
          "internalType": "address",
          "name": "",
          "type": "address"
        }
      ],
      "stateMutability": "view",
      "type": "function"
    },
    {
      "inputs": [],
      "name": "proxiableUUID",
      "outputs": [
        {
          "internalType": "bytes32",
          "name": "",
          "type": "bytes32"
        }
      ],
      "stateMutability": "view",
      "type": "function"
    },
    {
      "inputs": [],
      "name": "renounceOwnership",
      "outputs": [],
      "stateMutability": "nonpayable",
      "type": "function"
    },
    {
      "inputs": [
        {
          "internalType": "address",
          "name": "from",
          "type": "address"
        },
        {
          "internalType": "address",
          "name": "to",
          "type": "address"
        },
        {
          "internalType": "uint256[]",
          "name": "ids",
          "type": "uint256[]"
        },
        {
          "internalType": "uint256[]",
          "name": "amounts",
          "type": "uint256[]"
        },
        {
          "internalType": "bytes",
          "name": "data",
          "type": "bytes"
        }
      ],
      "name": "safeBatchTransferFrom",
      "outputs": [],
      "stateMutability": "nonpayable",
      "type": "function"
    },
    {
      "inputs": [
        {
          "internalType": "address",
          "name": "_from",
          "type": "address"
        },
        {
          "internalType": "address",
          "name": "_to",
          "type": "address"
        },
        {
          "internalType": "uint256",
          "name": "_id",
          "type": "uint256"
        },
        {
          "internalType": "uint256",
          "name": "_value",
          "type": "uint256"
        },
        {
          "internalType": "bytes",
          "name": "_data",
          "type": "bytes"
        }
      ],
      "name": "safeTransferFrom",
      "outputs": [],
      "stateMutability": "nonpayable",
      "type": "function"
    },
    {
      "inputs": [
        {
          "internalType": "address",
          "name": "operator",
          "type": "address"
        },
        {
          "internalType": "bool",
          "name": "approved",
          "type": "bool"
        }
      ],
      "name": "setApprovalForAll",
      "outputs": [],
      "stateMutability": "nonpayable",
      "type": "function"
    },
    {
      "inputs": [
        {
          "internalType": "address",
          "name": "_account",
          "type": "address"
        },
        {
          "internalType": "uint256",
          "name": "_tokenID",
          "type": "uint256"
        },
        {
          "internalType": "uint256[]",
          "name": "_values",
          "type": "uint256[]"
        }
      ],
      "name": "splitValue",
      "outputs": [],
      "stateMutability": "nonpayable",
      "type": "function"
    },
    {
      "inputs": [
        {
          "internalType": "bytes4",
          "name": "interfaceId",
          "type": "bytes4"
        }
      ],
      "name": "supportsInterface",
      "outputs": [
        {
          "internalType": "bool",
          "name": "",
          "type": "bool"
        }
      ],
      "stateMutability": "view",
      "type": "function"
    },
    {
      "inputs": [
        {
          "internalType": "uint256",
          "name": "",
          "type": "uint256"
        },
        {
          "internalType": "address",
          "name": "",
          "type": "address"
        }
      ],
      "name": "tokenUserBalances",
      "outputs": [
        {
          "internalType": "uint256",
          "name": "",
          "type": "uint256"
        }
      ],
      "stateMutability": "view",
      "type": "function"
    },
    {
      "inputs": [
        {
          "internalType": "uint256",
          "name": "",
          "type": "uint256"
        }
      ],
      "name": "tokenValues",
      "outputs": [
        {
          "internalType": "uint256",
          "name": "",
          "type": "uint256"
        }
      ],
      "stateMutability": "view",
      "type": "function"
    },
    {
      "inputs": [
        {
          "internalType": "uint256",
          "name": "_typeID",
          "type": "uint256"
        }
      ],
      "name": "totalSupply",
      "outputs": [
        {
          "internalType": "uint256",
          "name": "total",
          "type": "uint256"
        }
      ],
      "stateMutability": "view",
      "type": "function"
    },
    {
      "inputs": [
        {
          "internalType": "address",
          "name": "newOwner",
          "type": "address"
        }
      ],
      "name": "transferOwnership",
      "outputs": [],
      "stateMutability": "nonpayable",
      "type": "function"
    },
    {
      "inputs": [],
      "name": "typeCounter",
      "outputs": [
        {
          "internalType": "uint256",
          "name": "",
          "type": "uint256"
        }
      ],
      "stateMutability": "view",
      "type": "function"
    },
    {
      "inputs": [
        {
          "internalType": "address",
          "name": "newImplementation",
          "type": "address"
        }
      ],
      "name": "upgradeTo",
      "outputs": [],
      "stateMutability": "nonpayable",
      "type": "function"
    },
    {
      "inputs": [
        {
          "internalType": "address",
          "name": "newImplementation",
          "type": "address"
        },
        {
          "internalType": "bytes",
          "name": "data",
          "type": "bytes"
        }
      ],
      "name": "upgradeToAndCall",
      "outputs": [],
      "stateMutability": "payable",
      "type": "function"
    },
    {
      "inputs": [
        {
          "internalType": "uint256",
          "name": "tokenID",
          "type": "uint256"
        }
      ],
      "name": "uri",
      "outputs": [
        {
          "internalType": "string",
          "name": "uri",
          "type": "string"
        }
      ],
      "stateMutability": "view",
      "type": "function"
    }
  ],
  "bytecode": {
    "object": "0x60a0604052306080523480156200001557600080fd5b506200002062000030565b6200002a62000030565b620000f1565b600054610100900460ff16156200009d5760405162461bcd60e51b815260206004820152602760248201527f496e697469616c697a61626c653a20636f6e747261637420697320696e697469604482015266616c697a696e6760c81b606482015260840160405180910390fd5b60005460ff90811614620000ef576000805460ff191660ff9081179091556040519081527f7f26b83ff96e1f2b6a682f133852f6798a09c465da95921460cefb38474024989060200160405180910390a15b565b608051613cfa620001296000396000818161082a015281816108c001528181610cb501528181610d4b0152610e460152613cfa6000f3fe6080604052600436106101d75760003560e01c8063715018a611610102578063be106a4611610095578063e985e9c511610064578063e985e9c5146105e0578063f242432a14610629578063f2fde38b14610649578063f5298aca1461066957600080fd5b8063be106a4614610527578063c732c9631461053c578063cd53d08e14610575578063d905af55146105ac57600080fd5b8063992e820e116100d1578063992e820e146104b95780639cc7f708146104d9578063a22cb46514610507578063bd85b039146104d957600080fd5b8063715018a6146104515780638c057ec8146104665780638da5cb5b146104865780638fc202dd146104a457600080fd5b806344d7c2b11161017a57806352fb73991161014957806352fb7399146103c857806361318e59146103ec5780636b20c454146104035780636b225fe41461042357600080fd5b806344d7c2b1146103535780634e1273f4146103735780634f1ef286146103a057806352d1902d146103b357600080fd5b80630e89341c116101b65780630e89341c146102b05780630f94cc50146102dd5780632eb2c2d6146103115780633659cfe61461033357600080fd5b8062fdd58e146101dc57806301ffc9a714610231578063025e7c2714610261575b600080fd5b3480156101e857600080fd5b5061021e6101f7366004613155565b6000908152610196602090815260408083206001600160a01b039094168352929052205490565b6040519081526020015b60405180910390f35b34801561023d57600080fd5b5061025161024c3660046131ad565b610689565b6040519015158152602001610228565b34801561026d57600080fd5b5061029861027c3660046131ca565b610192602052600090815260409020546001600160a01b031681565b6040516001600160a01b039091168152602001610228565b3480156102bc57600080fd5b506102d06102cb3660046131ca565b61076e565b6040516102289190613233565b3480156102e957600080fd5b5061021e7fffffffffffffffffffffffffffffffff0000000000000000000000000000000081565b34801561031d57600080fd5b5061033161032c3660046133ab565b610779565b005b34801561033f57600080fd5b5061033161034e366004613455565b610820565b34801561035f57600080fd5b5061033161036e366004613470565b6109bd565b34801561037f57600080fd5b5061039361038e3660046134ad565b610b4b565b60405161022891906135b3565b6103316103ae3660046135c6565b610cab565b3480156103bf57600080fd5b5061021e610e39565b3480156103d457600080fd5b5061021e6fffffffffffffffffffffffffffffffff81565b3480156103f857600080fd5b5061021e6101915481565b34801561040f57600080fd5b5061033161041e36600461360a565b610eff565b34801561042f57600080fd5b5061021e61043e3660046131ca565b6101946020526000908152604090205481565b34801561045d57600080fd5b50610331610f9d565b34801561047257600080fd5b5061033161048136600461367e565b610fb1565b34801561049257600080fd5b5060fb546001600160a01b0316610298565b3480156104b057600080fd5b506103316111cc565b3480156104c557600080fd5b506103316104d4366004613155565b611343565b3480156104e557600080fd5b5061021e6104f43660046131ca565b6000908152610194602052604090205490565b34801561051357600080fd5b506103316105223660046136cb565b611456565b34801561053357600080fd5b50610331611461565b34801561054857600080fd5b5061021e610557366004613707565b61019660209081526000928352604080842090915290825290205481565b34801561058157600080fd5b506102986105903660046131ca565b610193602052600090815260409020546001600160a01b031681565b3480156105b857600080fd5b5061021e7f800000000000000000000000000000000000000000000000000000000000000081565b3480156105ec57600080fd5b506102516105fb366004613733565b6001600160a01b03918216600090815260666020908152604080832093909416825291909152205460ff1690565b34801561063557600080fd5b5061033161064436600461375d565b6115a3565b34801561065557600080fd5b50610331610664366004613455565b61186d565b34801561067557600080fd5b506103316106843660046137c2565b6118fa565b60007fffffffff0000000000000000000000000000000000000000000000000000000082167fd9b67a2600000000000000000000000000000000000000000000000000000000148061071c57507fffffffff0000000000000000000000000000000000000000000000000000000082167f0e89341c00000000000000000000000000000000000000000000000000000000145b8061076857507f01ffc9a7000000000000000000000000000000000000000000000000000000007fffffffff000000000000000000000000000000000000000000000000000000008316145b92915050565b606061076882611993565b6001600160a01b038516331480610795575061079585336105fb565b61080c5760405162461bcd60e51b815260206004820152602e60248201527f455243313135353a2063616c6c6572206973206e6f7420746f6b656e206f776e60448201527f6572206f7220617070726f76656400000000000000000000000000000000000060648201526084015b60405180910390fd5b6108198585858585611a73565b5050505050565b6001600160a01b037f00000000000000000000000000000000000000000000000000000000000000001630036108be5760405162461bcd60e51b815260206004820152602c60248201527f46756e6374696f6e206d7573742062652063616c6c6564207468726f7567682060448201527f64656c656761746563616c6c00000000000000000000000000000000000000006064820152608401610803565b7f00000000000000000000000000000000000000000000000000000000000000006001600160a01b03166109197f360894a13ba1a3210667c828492db98dca3e2076cc3735a920a3ca505d382bbc546001600160a01b031690565b6001600160a01b0316146109955760405162461bcd60e51b815260206004820152602c60248201527f46756e6374696f6e206d7573742062652063616c6c6564207468726f7567682060448201527f6163746976652070726f787900000000000000000000000000000000000000006064820152608401610803565b61099e81611d28565b604080516000808252602082019092526109ba91839190611d30565b50565b60fd815111156109f9576040517f3ada02e500000000000000000000000000000000000000000000000000000000815260040160405180910390fd5b8051600082610a09600184613824565b81518110610a1957610a19613837565b602002602001015190506000610a4e827fffffffffffffffffffffffffffffffff000000000000000000000000000000001690565b905060005b838110156108195781610a9e868381518110610a7157610a71613837565b60200260200101517fffffffffffffffffffffffffffffffff000000000000000000000000000000001690565b14610ad5576040517fb4902a1300000000000000000000000000000000000000000000000000000000815260040160405180910390fd5b6000858281518110610ae957610ae9613837565b60200260200101519050838114610b38576000818152610194602052604080822054868352908220805491929091610b22908490613866565b9091555050600081815261019460205260408120555b5080610b4381613879565b915050610a53565b60608151835114610bc45760405162461bcd60e51b815260206004820152602960248201527f455243313135353a206163636f756e747320616e6420696473206c656e67746860448201527f206d69736d6174636800000000000000000000000000000000000000000000006064820152608401610803565b6000835167ffffffffffffffff811115610be057610be0613246565b604051908082528060200260200182016040528015610c09578160200160208202803683370190505b50905060005b8451811015610ca357610c76858281518110610c2d57610c2d613837565b6020026020010151858381518110610c4757610c47613837565b60200260200101516000908152610196602090815260408083206001600160a01b039094168352929052205490565b828281518110610c8857610c88613837565b6020908102919091010152610c9c81613879565b9050610c0f565b509392505050565b6001600160a01b037f0000000000000000000000000000000000000000000000000000000000000000163003610d495760405162461bcd60e51b815260206004820152602c60248201527f46756e6374696f6e206d7573742062652063616c6c6564207468726f7567682060448201527f64656c656761746563616c6c00000000000000000000000000000000000000006064820152608401610803565b7f00000000000000000000000000000000000000000000000000000000000000006001600160a01b0316610da47f360894a13ba1a3210667c828492db98dca3e2076cc3735a920a3ca505d382bbc546001600160a01b031690565b6001600160a01b031614610e205760405162461bcd60e51b815260206004820152602c60248201527f46756e6374696f6e206d7573742062652063616c6c6564207468726f7567682060448201527f6163746976652070726f787900000000000000000000000000000000000000006064820152608401610803565b610e2982611d28565b610e3582826001611d30565b5050565b6000306001600160a01b037f00000000000000000000000000000000000000000000000000000000000000001614610ed95760405162461bcd60e51b815260206004820152603860248201527f555550535570677261646561626c653a206d757374206e6f742062652063616c60448201527f6c6564207468726f7567682064656c656761746563616c6c00000000000000006064820152608401610803565b507f360894a13ba1a3210667c828492db98dca3e2076cc3735a920a3ca505d382bbc5b90565b6001600160a01b038316331480610f1b5750610f1b83336105fb565b610f8d5760405162461bcd60e51b815260206004820152602e60248201527f455243313135353a2063616c6c6572206973206e6f7420746f6b656e206f776e60448201527f6572206f7220617070726f7665640000000000000000000000000000000000006064820152608401610803565b610f98838383611ed0565b505050565b610fa5612180565b610faf60006121da565b565b60fd81511115610fed576040517f3ada02e500000000000000000000000000000000000000000000000000000000815260040160405180910390fd5b6fffffffffffffffffffffffffffffffff8216600003611039576040517f3d693ada00000000000000000000000000000000000000000000000000000000815260040160405180910390fd5b7fffffffffffffffffffffffffffffffff000000000000000000000000000000008216600081815261019560205260408120546110769083613866565b8351600086815261019460205260409020549192509060015b828110156111715760006110a38286613866565b90506110c18982600160405180602001604052806000815250612244565b8682815181106110d3576110d3613837565b602002602001015161019460008381526020019081526020016000208190555086828151811061110557611105613837565b6020908102919091018101516000838152610196835260408082206001600160a01b038e1683529093529190912055865187908390811061114857611148613837565b60200260200101518361115b9190613824565b925050808061116990613879565b91505061108f565b5060008681526101946020908152604080832084905561019682528083206001600160a01b038b1684528252808320849055868352610195909152812080548492906111be908490613866565b909155505050505050505050565b600054610100900460ff16158080156111ec5750600054600160ff909116105b806112065750303b158015611206575060005460ff166001145b6112785760405162461bcd60e51b815260206004820152602e60248201527f496e697469616c697a61626c653a20636f6e747261637420697320616c72656160448201527f647920696e697469616c697a65640000000000000000000000000000000000006064820152608401610803565b600080547fffffffffffffffffffffffffffffffffffffffffffffffffffffffffffffff0016600117905580156112d657600080547fffffffffffffffffffffffffffffffffffffffffffffffffffffffffffff00ff166101001790555b6112de611461565b80156109ba57600080547fffffffffffffffffffffffffffffffffffffffffffffffffffffffffffff00ff169055604051600181527f7f26b83ff96e1f2b6a682f133852f6798a09c465da95921460cefb38474024989060200160405180910390a150565b7fffffffffffffffffffffffffffffffff0000000000000000000000000000000081166fffffffffffffffffffffffffffffffff82166000036113b2576040517f3d693ada00000000000000000000000000000000000000000000000000000000815260040160405180910390fd5b600081815261019460205260408082205484835291205414611400576040517fd7fd210200000000000000000000000000000000000000000000000000000000815260040160405180910390fd5b6000818152610194602090815260408083208390558483528083208390559282526101968082528383206001600160a01b0390961680845295825283832083905593825292835281812093815292909152812055565b610e35338383612394565b600054610100900460ff16158080156114815750600054600160ff909116105b8061149b5750303b15801561149b575060005460ff166001145b61150d5760405162461bcd60e51b815260206004820152602e60248201527f496e697469616c697a61626c653a20636f6e747261637420697320616c72656160448201527f647920696e697469616c697a65640000000000000000000000000000000000006064820152608401610803565b600080547fffffffffffffffffffffffffffffffffffffffffffffffffffffffffffffff00166001179055801561156b57600080547fffffffffffffffffffffffffffffffffffffffffffffffffffffffffffff00ff166101001790555b611583604051806020016040528060008152506124a6565b61158b61252c565b6115936125a9565b61159b61262e565b6112de61252c565b6001600160a01b0384166115e3576040517f18c7c3da00000000000000000000000000000000000000000000000000000000815260040160405180910390fd5b6001600160a01b0385163314611625576040517fe433766c00000000000000000000000000000000000000000000000000000000815260040160405180910390fd5b600083815261019460205260409020547f8000000000000000000000000000000000000000000000000000000000000000808516036116f757600084815261019260205260409020546001600160a01b038781169116146116b2576040517fe433766c00000000000000000000000000000000000000000000000000000000815260040160405180910390fd5b60008481526101926020526040902080547fffffffffffffffffffffffff0000000000000000000000000000000000000000166001600160a01b0387161790556117fc565b7fffffffffffffffffffffffffffffffff0000000000000000000000000000000084166000818152610196602090815260408083206001600160a01b038b1684529091528120805484929061174d908490613824565b90915550506000818152610196602090815260408083206001600160a01b038a16845290915281208054849290611785908490613866565b90915550506000858152610196602090815260408083206001600160a01b038b168452909152812080548492906117bd908490613824565b90915550506000858152610196602090815260408083206001600160a01b038a168452909152812080548492906117f5908490613866565b9091555050505b60408051858152602081018590526001600160a01b03808816929089169133917fc3d58168c5ae7397731d063d5bbf3d657854427343f4c083240f7aacaa2d0f62910160405180910390a46001600160a01b0385163b15611865576118653387878787876126b3565b505050505050565b611875612180565b6001600160a01b0381166118f15760405162461bcd60e51b815260206004820152602660248201527f4f776e61626c653a206e6577206f776e657220697320746865207a65726f206160448201527f64647265737300000000000000000000000000000000000000000000000000006064820152608401610803565b6109ba816121da565b6001600160a01b038316331480611916575061191683336105fb565b6119885760405162461bcd60e51b815260206004820152602e60248201527f455243313135353a2063616c6c6572206973206e6f7420746f6b656e206f776e60448201527f6572206f7220617070726f7665640000000000000000000000000000000000006064820152608401610803565b610f988383836128a7565b600081815260ca60205260408120805460609291906119b1906138b1565b80601f01602080910402602001604051908101604052809291908181526020018280546119dd906138b1565b8015611a2a5780601f106119ff57610100808354040283529160200191611a2a565b820191906000526020600020905b815481529060010190602001808311611a0d57829003601f168201915b505050505090506000815111611a4857611a4383612a78565b611a6c565b60c981604051602001611a5c929190613904565b6040516020818303038152906040525b9392505050565b8151835114611aea5760405162461bcd60e51b815260206004820152602860248201527f455243313135353a2069647320616e6420616d6f756e7473206c656e6774682060448201527f6d69736d617463680000000000000000000000000000000000000000000000006064820152608401610803565b6001600160a01b038416611b665760405162461bcd60e51b815260206004820152602560248201527f455243313135353a207472616e7366657220746f20746865207a65726f20616460448201527f64726573730000000000000000000000000000000000000000000000000000006064820152608401610803565b33611b75818787878787612b0c565b60005b8451811015611cb4576000858281518110611b9557611b95613837565b602002602001015190506000858381518110611bb357611bb3613837565b60209081029190910181015160008481526065835260408082206001600160a01b038e168352909352919091205490915081811015611c5a5760405162461bcd60e51b815260206004820152602a60248201527f455243313135353a20696e73756666696369656e742062616c616e636520666f60448201527f72207472616e73666572000000000000000000000000000000000000000000006064820152608401610803565b60008381526065602090815260408083206001600160a01b038e8116855292528083208585039055908b16825281208054849290611c99908490613866565b9250508190555050505080611cad90613879565b9050611b78565b50846001600160a01b0316866001600160a01b0316826001600160a01b03167f4a39dc06d4c0dbc64b70af90fd698a233a518aa5d07e595d983b8c0526c8f7fb8787604051611d049291906139a9565b60405180910390a4611d1a818787878787612b16565b611865818787878787612b1b565b6109ba612180565b7f4910fdfa16fed3260ed0e7147f7cc6da11a60208b5b9406d12a635614ffd91435460ff1615611d6357610f9883612c76565b826001600160a01b03166352d1902d6040518163ffffffff1660e01b8152600401602060405180830381865afa925050508015611dbd575060408051601f3d908101601f19168201909252611dba918101906139ce565b60015b611e2f5760405162461bcd60e51b815260206004820152602e60248201527f45524331393637557067726164653a206e657720696d706c656d656e7461746960448201527f6f6e206973206e6f7420555550530000000000000000000000000000000000006064820152608401610803565b7f360894a13ba1a3210667c828492db98dca3e2076cc3735a920a3ca505d382bbc8114611ec45760405162461bcd60e51b815260206004820152602960248201527f45524331393637557067726164653a20756e737570706f727465642070726f7860448201527f6961626c655555494400000000000000000000000000000000000000000000006064820152608401610803565b50610f98838383612d4c565b6001600160a01b038316611f4c5760405162461bcd60e51b815260206004820152602360248201527f455243313135353a206275726e2066726f6d20746865207a65726f206164647260448201527f65737300000000000000000000000000000000000000000000000000000000006064820152608401610803565b8051825114611fc35760405162461bcd60e51b815260206004820152602860248201527f455243313135353a2069647320616e6420616d6f756e7473206c656e6774682060448201527f6d69736d617463680000000000000000000000000000000000000000000000006064820152608401610803565b6000339050611fe681856000868660405180602001604052806000815250612b0c565b60005b835181101561210357600084828151811061200657612006613837565b60200260200101519050600084838151811061202457612024613837565b60209081029190910181015160008481526065835260408082206001600160a01b038c1683529093529190912054909150818110156120ca5760405162461bcd60e51b8152602060048201526024808201527f455243313135353a206275726e20616d6f756e7420657863656564732062616c60448201527f616e6365000000000000000000000000000000000000000000000000000000006064820152608401610803565b60009283526065602090815260408085206001600160a01b038b16865290915290922091039055806120fb81613879565b915050611fe9565b5060006001600160a01b0316846001600160a01b0316826001600160a01b03167f4a39dc06d4c0dbc64b70af90fd698a233a518aa5d07e595d983b8c0526c8f7fb86866040516121549291906139a9565b60405180910390a461217a81856000868660405180602001604052806000815250612b16565b50505050565b60fb546001600160a01b03163314610faf5760405162461bcd60e51b815260206004820181905260248201527f4f776e61626c653a2063616c6c6572206973206e6f7420746865206f776e65726044820152606401610803565b60fb80546001600160a01b038381167fffffffffffffffffffffffff0000000000000000000000000000000000000000831681179093556040519116919082907f8be0079c531659141344cd1fd0a4f28419497f9722a3daafe3b4186f6b6457e090600090a35050565b6001600160a01b0384166122c05760405162461bcd60e51b815260206004820152602160248201527f455243313135353a206d696e7420746f20746865207a65726f2061646472657360448201527f73000000000000000000000000000000000000000000000000000000000000006064820152608401610803565b3360006122cc85612d71565b905060006122d985612d71565b90506122ea83600089858589612b0c565b60008681526065602090815260408083206001600160a01b038b1684529091528120805487929061231c908490613866565b909155505060408051878152602081018790526001600160a01b03808a1692600092918716917fc3d58168c5ae7397731d063d5bbf3d657854427343f4c083240f7aacaa2d0f62910160405180910390a461237c83600089858589612b16565b61238b83600089898989612dbc565b50505050505050565b816001600160a01b0316836001600160a01b03160361241b5760405162461bcd60e51b815260206004820152602960248201527f455243313135353a2073657474696e6720617070726f76616c2073746174757360448201527f20666f722073656c6600000000000000000000000000000000000000000000006064820152608401610803565b6001600160a01b0383811660008181526066602090815260408083209487168084529482529182902080547fffffffffffffffffffffffffffffffffffffffffffffffffffffffffffffff001686151590811790915591519182527f17307eab39ab6107e8899845ad3d59bd9653f200f220920489ca2b5937696c31910160405180910390a3505050565b600054610100900460ff166125235760405162461bcd60e51b815260206004820152602b60248201527f496e697469616c697a61626c653a20636f6e7472616374206973206e6f74206960448201527f6e697469616c697a696e670000000000000000000000000000000000000000006064820152608401610803565b6109ba81612e19565b600054610100900460ff16610faf5760405162461bcd60e51b815260206004820152602b60248201527f496e697469616c697a61626c653a20636f6e7472616374206973206e6f74206960448201527f6e697469616c697a696e670000000000000000000000000000000000000000006064820152608401610803565b600054610100900460ff166126265760405162461bcd60e51b815260206004820152602b60248201527f496e697469616c697a61626c653a20636f6e7472616374206973206e6f74206960448201527f6e697469616c697a696e670000000000000000000000000000000000000000006064820152608401610803565b610faf612e9f565b600054610100900460ff166126ab5760405162461bcd60e51b815260206004820152602b60248201527f496e697469616c697a61626c653a20636f6e7472616374206973206e6f74206960448201527f6e697469616c697a696e670000000000000000000000000000000000000000006064820152608401610803565b610faf612f38565b6040517ff23a6e610000000000000000000000000000000000000000000000000000000081526001600160a01b0385169063f23a6e619061270090899089908890889088906004016139e7565b6020604051808303816000875af192505050801561273b575060408051601f3d908101601f1916820190925261273891810190613a2a565b60015b6127f057612747613a47565b806308c379a003612780575061275b613a62565b806127665750612782565b8060405162461bcd60e51b81526004016108039190613233565b505b60405162461bcd60e51b815260206004820152603460248201527f455243313135353a207472616e7366657220746f206e6f6e2d4552433131353560448201527f526563656976657220696d706c656d656e7465720000000000000000000000006064820152608401610803565b7fffffffff0000000000000000000000000000000000000000000000000000000081167ff23a6e61000000000000000000000000000000000000000000000000000000001461238b5760405162461bcd60e51b815260206004820152602860248201527f455243313135353a204552433131353552656365697665722072656a6563746560448201527f6420746f6b656e730000000000000000000000000000000000000000000000006064820152608401610803565b6001600160a01b0383166129235760405162461bcd60e51b815260206004820152602360248201527f455243313135353a206275726e2066726f6d20746865207a65726f206164647260448201527f65737300000000000000000000000000000000000000000000000000000000006064820152608401610803565b33600061292f84612d71565b9050600061293c84612d71565b905061295c83876000858560405180602001604052806000815250612b0c565b60008581526065602090815260408083206001600160a01b038a168452909152902054848110156129f45760405162461bcd60e51b8152602060048201526024808201527f455243313135353a206275726e20616d6f756e7420657863656564732062616c60448201527f616e6365000000000000000000000000000000000000000000000000000000006064820152608401610803565b60008681526065602090815260408083206001600160a01b038b81168086529184528285208a8703905582518b81529384018a90529092908816917fc3d58168c5ae7397731d063d5bbf3d657854427343f4c083240f7aacaa2d0f62910160405180910390a461238b84886000868660405180602001604052806000815250612b16565b606060678054612a87906138b1565b80601f0160208091040260200160405190810160405280929190818152602001828054612ab3906138b1565b8015612b005780601f10612ad557610100808354040283529160200191612b00565b820191906000526020600020905b815481529060010190602001808311612ae357829003601f168201915b50505050509050919050565b6118658686868686865b611865565b6001600160a01b0384163b15611865576040517fbc197c810000000000000000000000000000000000000000000000000000000081526001600160a01b0385169063bc197c8190612b789089908990889088908890600401613b0a565b6020604051808303816000875af1925050508015612bb3575060408051601f3d908101601f19168201909252612bb091810190613a2a565b60015b612bbf57612747613a47565b7fffffffff0000000000000000000000000000000000000000000000000000000081167fbc197c81000000000000000000000000000000000000000000000000000000001461238b5760405162461bcd60e51b815260206004820152602860248201527f455243313135353a204552433131353552656365697665722072656a6563746560448201527f6420746f6b656e730000000000000000000000000000000000000000000000006064820152608401610803565b6001600160a01b0381163b612cf35760405162461bcd60e51b815260206004820152602d60248201527f455243313936373a206e657720696d706c656d656e746174696f6e206973206e60448201527f6f74206120636f6e7472616374000000000000000000000000000000000000006064820152608401610803565b7f360894a13ba1a3210667c828492db98dca3e2076cc3735a920a3ca505d382bbc80547fffffffffffffffffffffffff0000000000000000000000000000000000000000166001600160a01b0392909216919091179055565b612d5583612fbe565b600082511180612d625750805b15610f985761217a8383612ffe565b60408051600180825281830190925260609160009190602080830190803683370190505090508281600081518110612dab57612dab613837565b602090810291909101015292915050565b6001600160a01b0384163b15611865576040517ff23a6e610000000000000000000000000000000000000000000000000000000081526001600160a01b0385169063f23a6e619061270090899089908890889088906004016139e7565b600054610100900460ff16612e965760405162461bcd60e51b815260206004820152602b60248201527f496e697469616c697a61626c653a20636f6e7472616374206973206e6f74206960448201527f6e697469616c697a696e670000000000000000000000000000000000000000006064820152608401610803565b6109ba81613109565b600054610100900460ff16612f1c5760405162461bcd60e51b815260206004820152602b60248201527f496e697469616c697a61626c653a20636f6e7472616374206973206e6f74206960448201527f6e697469616c697a696e670000000000000000000000000000000000000000006064820152608401610803565b60408051602081019091526000815260c9906109ba9082613bae565b600054610100900460ff16612fb55760405162461bcd60e51b815260206004820152602b60248201527f496e697469616c697a61626c653a20636f6e7472616374206973206e6f74206960448201527f6e697469616c697a696e670000000000000000000000000000000000000000006064820152608401610803565b610faf336121da565b612fc781612c76565b6040516001600160a01b038216907fbc7cd75a20ee27fd9adebab32041f755214dbc6bffa90cc0225b39da2e5c2d3b90600090a250565b60606001600160a01b0383163b61307d5760405162461bcd60e51b815260206004820152602660248201527f416464726573733a2064656c65676174652063616c6c20746f206e6f6e2d636f60448201527f6e747261637400000000000000000000000000000000000000000000000000006064820152608401610803565b600080846001600160a01b0316846040516130989190613caa565b600060405180830381855af49150503d80600081146130d3576040519150601f19603f3d011682016040523d82523d6000602084013e6130d8565b606091505b50915091506131008282604051806060016040528060278152602001613cc760279139613115565b95945050505050565b6067610e358282613bae565b60608315613124575081611a6c565b611a6c83838151156127665781518083602001fd5b80356001600160a01b038116811461315057600080fd5b919050565b6000806040838503121561316857600080fd5b61317183613139565b946020939093013593505050565b7fffffffff00000000000000000000000000000000000000000000000000000000811681146109ba57600080fd5b6000602082840312156131bf57600080fd5b8135611a6c8161317f565b6000602082840312156131dc57600080fd5b5035919050565b60005b838110156131fe5781810151838201526020016131e6565b50506000910152565b6000815180845261321f8160208601602086016131e3565b601f01601f19169290920160200192915050565b602081526000611a6c6020830184613207565b7f4e487b7100000000000000000000000000000000000000000000000000000000600052604160045260246000fd5b601f19601f830116810181811067ffffffffffffffff8211171561329b5761329b613246565b6040525050565b600067ffffffffffffffff8211156132bc576132bc613246565b5060051b60200190565b600082601f8301126132d757600080fd5b813560206132e4826132a2565b6040516132f18282613275565b83815260059390931b850182019282810191508684111561331157600080fd5b8286015b8481101561332c5780358352918301918301613315565b509695505050505050565b600082601f83011261334857600080fd5b813567ffffffffffffffff81111561336257613362613246565b6040516133796020601f19601f8501160182613275565b81815284602083860101111561338e57600080fd5b816020850160208301376000918101602001919091529392505050565b600080600080600060a086880312156133c357600080fd5b6133cc86613139565b94506133da60208701613139565b9350604086013567ffffffffffffffff808211156133f757600080fd5b61340389838a016132c6565b9450606088013591508082111561341957600080fd5b61342589838a016132c6565b9350608088013591508082111561343b57600080fd5b5061344888828901613337565b9150509295509295909350565b60006020828403121561346757600080fd5b611a6c82613139565b60006020828403121561348257600080fd5b813567ffffffffffffffff81111561349957600080fd5b6134a5848285016132c6565b949350505050565b600080604083850312156134c057600080fd5b823567ffffffffffffffff808211156134d857600080fd5b818501915085601f8301126134ec57600080fd5b813560206134f9826132a2565b6040516135068282613275565b83815260059390931b850182019282810191508984111561352657600080fd5b948201945b8386101561354b5761353c86613139565b8252948201949082019061352b565b9650508601359250508082111561356157600080fd5b5061356e858286016132c6565b9150509250929050565b600081518084526020808501945080840160005b838110156135a85781518752958201959082019060010161358c565b509495945050505050565b602081526000611a6c6020830184613578565b600080604083850312156135d957600080fd5b6135e283613139565b9150602083013567ffffffffffffffff8111156135fe57600080fd5b61356e85828601613337565b60008060006060848603121561361f57600080fd5b61362884613139565b9250602084013567ffffffffffffffff8082111561364557600080fd5b613651878388016132c6565b9350604086013591508082111561366757600080fd5b50613674868287016132c6565b9150509250925092565b60008060006060848603121561369357600080fd5b61369c84613139565b925060208401359150604084013567ffffffffffffffff8111156136bf57600080fd5b613674868287016132c6565b600080604083850312156136de57600080fd5b6136e783613139565b9150602083013580151581146136fc57600080fd5b809150509250929050565b6000806040838503121561371a57600080fd5b8235915061372a60208401613139565b90509250929050565b6000806040838503121561374657600080fd5b61374f83613139565b915061372a60208401613139565b600080600080600060a0868803121561377557600080fd5b61377e86613139565b945061378c60208701613139565b93506040860135925060608601359150608086013567ffffffffffffffff8111156137b657600080fd5b61344888828901613337565b6000806000606084860312156137d757600080fd5b6137e084613139565b95602085013595506040909401359392505050565b7f4e487b7100000000000000000000000000000000000000000000000000000000600052601160045260246000fd5b81810381811115610768576107686137f5565b7f4e487b7100000000000000000000000000000000000000000000000000000000600052603260045260246000fd5b80820180821115610768576107686137f5565b60007fffffffffffffffffffffffffffffffffffffffffffffffffffffffffffffffff82036138aa576138aa6137f5565b5060010190565b600181811c908216806138c557607f821691505b6020821081036138fe577f4e487b7100000000000000000000000000000000000000000000000000000000600052602260045260246000fd5b50919050565b6000808454613912816138b1565b6001828116801561392a576001811461395d5761398c565b7fffffffffffffffffffffffffffffffffffffffffffffffffffffffffffffff008416875282151583028701945061398c565b8860005260208060002060005b858110156139835781548a82015290840190820161396a565b50505082870194505b5050505083516139a08183602088016131e3565b01949350505050565b6040815260006139bc6040830185613578565b82810360208401526131008185613578565b6000602082840312156139e057600080fd5b5051919050565b60006001600160a01b03808816835280871660208401525084604083015283606083015260a06080830152613a1f60a0830184613207565b979650505050505050565b600060208284031215613a3c57600080fd5b8151611a6c8161317f565b600060033d1115610efc5760046000803e5060005160e01c90565b600060443d1015613a705790565b6040517ffffffffffffffffffffffffffffffffffffffffffffffffffffffffffffffffc803d016004833e81513d67ffffffffffffffff8160248401118184111715613abe57505050505090565b8285019150815181811115613ad65750505050505090565b843d8701016020828501011115613af05750505050505090565b613aff60208286010187613275565b509095945050505050565b60006001600160a01b03808816835280871660208401525060a06040830152613b3660a0830186613578565b8281036060840152613b488186613578565b90508281036080840152613b5c8185613207565b98975050505050505050565b601f821115610f9857600081815260208120601f850160051c81016020861015613b8f5750805b601f850160051c820191505b8181101561186557828155600101613b9b565b815167ffffffffffffffff811115613bc857613bc8613246565b613bdc81613bd684546138b1565b84613b68565b602080601f831160018114613c2f5760008415613bf95750858301515b7fffffffffffffffffffffffffffffffffffffffffffffffffffffffffffffffff600386901b1c1916600185901b178555611865565b600085815260208120601f198616915b82811015613c5e57888601518255948401946001909101908401613c3f565b5085821015613c9a57878501517fffffffffffffffffffffffffffffffffffffffffffffffffffffffffffffffff600388901b60f8161c191681555b5050505050600190811b01905550565b60008251613cbc8184602087016131e3565b919091019291505056fe416464726573733a206c6f772d6c6576656c2064656c65676174652063616c6c206661696c6564a164736f6c6343000811000a",
    "linkReferences": {}
  },
  "methodIdentifiers": {
    "NF_INDEX_MASK()": "52fb7399",
    "TYPE_MASK()": "0f94cc50",
    "TYPE_NF_BIT()": "d905af55",
    "__SemiFungible1155_init()": "8fc202dd",
    "__Upgradeable1155_init()": "be106a46",
    "balanceOf(address,uint256)": "00fdd58e",
    "balanceOf(uint256)": "9cc7f708",
    "balanceOfBatch(address[],uint256[])": "4e1273f4",
    "burn(address,uint256,uint256)": "f5298aca",
    "burnBatch(address,uint256[],uint256[])": "6b20c454",
    "burnValue(address,uint256)": "992e820e",
    "creators(uint256)": "cd53d08e",
    "isApprovedForAll(address,address)": "e985e9c5",
    "mergeValue(uint256[])": "44d7c2b1",
    "owner()": "8da5cb5b",
    "owners(uint256)": "025e7c27",
    "proxiableUUID()": "52d1902d",
    "renounceOwnership()": "715018a6",
    "safeBatchTransferFrom(address,address,uint256[],uint256[],bytes)": "2eb2c2d6",
    "safeTransferFrom(address,address,uint256,uint256,bytes)": "f242432a",
    "setApprovalForAll(address,bool)": "a22cb465",
    "splitValue(address,uint256,uint256[])": "8c057ec8",
    "supportsInterface(bytes4)": "01ffc9a7",
    "tokenUserBalances(uint256,address)": "c732c963",
    "tokenValues(uint256)": "6b225fe4",
    "totalSupply(uint256)": "bd85b039",
    "transferOwnership(address)": "f2fde38b",
    "typeCounter()": "61318e59",
    "upgradeTo(address)": "3659cfe6",
    "upgradeToAndCall(address,bytes)": "4f1ef286",
    "uri(uint256)": "0e89341c"
  },
  "id": 32
}