{
  "abi": [
    {
      "inputs": [],
      "name": "DoesNotExist",
      "type": "error"
    },
    {
      "anonymous": false,
      "inputs": [
        {
          "indexed": false,
          "internalType": "uint256",
          "name": "claimID",
          "type": "uint256"
        },
        {
          "indexed": false,
          "internalType": "bytes32",
          "name": "root",
          "type": "bytes32"
        }
      ],
      "name": "AllowlistCreated",
      "type": "event"
    },
    {
      "anonymous": false,
      "inputs": [
        {
          "indexed": false,
          "internalType": "uint256",
          "name": "claimID",
          "type": "uint256"
        },
        {
          "indexed": false,
          "internalType": "bytes32",
          "name": "leaf",
          "type": "bytes32"
        }
      ],
      "name": "LeafClaimed",
      "type": "event"
    },
    {
      "inputs": [
        {
          "internalType": "uint256",
          "name": "",
          "type": "uint256"
        },
        {
          "internalType": "bytes32",
          "name": "",
          "type": "bytes32"
        }
      ],
      "name": "hasBeenClaimed",
      "outputs": [
        {
          "internalType": "bool",
          "name": "",
          "type": "bool"
        }
      ],
      "stateMutability": "view",
      "type": "function"
    },
    {
      "inputs": [
        {
          "internalType": "bytes32[]",
          "name": "proof",
          "type": "bytes32[]"
        },
        {
          "internalType": "uint256",
          "name": "claimID",
          "type": "uint256"
        },
        {
          "internalType": "bytes32",
          "name": "leaf",
          "type": "bytes32"
        }
      ],
      "name": "isAllowedToClaim",
      "outputs": [
        {
          "internalType": "bool",
          "name": "isAllowed",
          "type": "bool"
        }
      ],
      "stateMutability": "view",
      "type": "function"
    }
  ],
  "bytecode": {
    "object": "0x608060405234801561001057600080fd5b5061028b806100206000396000f3fe608060405234801561001057600080fd5b50600436106100365760003560e01c80633e11eefe1461003b578063a21ed98014610062575b600080fd5b61004e61004936600461014c565b610090565b604051901515815260200160405180910390f35b61004e6100703660046101ce565b600160209081526000928352604080842090915290825290205460ff1681565b6000828152602081905260408120546100ad9086908690856100b6565b95945050505050565b6000826100c48686856100ce565b1495945050505050565b600081815b84811015610111576100fd828787848181106100f1576100f16101f0565b9050602002013561011a565b9150806101098161021f565b9150506100d3565b50949350505050565b6000818310610136576000828152602084905260409020610145565b60008381526020839052604090205b9392505050565b6000806000806060858703121561016257600080fd5b843567ffffffffffffffff8082111561017a57600080fd5b818701915087601f83011261018e57600080fd5b81358181111561019d57600080fd5b8860208260051b85010111156101b257600080fd5b6020928301999098509187013596604001359550909350505050565b600080604083850312156101e157600080fd5b50508035926020909101359150565b7f4e487b7100000000000000000000000000000000000000000000000000000000600052603260045260246000fd5b60007fffffffffffffffffffffffffffffffffffffffffffffffffffffffffffffffff8203610277577f4e487b7100000000000000000000000000000000000000000000000000000000600052601160045260246000fd5b506001019056fea164736f6c6343000811000a",
    "linkReferences": {}
  },
  "methodIdentifiers": {
    "hasBeenClaimed(uint256,bytes32)": "a21ed980",
    "isAllowedToClaim(bytes32[],uint256,bytes32)": "3e11eefe"
  },
  "id": 30
}