{
  "abi": [
    {
      "inputs": [],
      "stateMutability": "nonpayable",
      "type": "constructor"
    },
    {
      "inputs": [],
      "name": "ArraySize",
      "type": "error"
    },
    {
      "inputs": [],
      "name": "DoesNotExist",
      "type": "error"
    },
    {
      "inputs": [],
      "name": "DuplicateEntry",
      "type": "error"
    },
    {
      "inputs": [],
      "name": "FractionalBurn",
      "type": "error"
    },
    {
      "inputs": [],
      "name": "NotAllowed",
      "type": "error"
    },
    {
      "inputs": [],
      "name": "NotAllowed",
      "type": "error"
    },
    {
      "inputs": [],
      "name": "NotApprovedOrOwner",
      "type": "error"
    },
    {
      "inputs": [],
      "name": "ToZeroAddress",
      "type": "error"
    },
    {
      "inputs": [],
      "name": "TypeMismatch",
      "type": "error"
    },
    {
      "anonymous": false,
      "inputs": [
        {
          "indexed": false,
          "internalType": "address",
          "name": "previousAdmin",
          "type": "address"
        },
        {
          "indexed": false,
          "internalType": "address",
          "name": "newAdmin",
          "type": "address"
        }
      ],
      "name": "AdminChanged",
      "type": "event"
    },
    {
      "anonymous": false,
      "inputs": [
        {
          "indexed": false,
          "internalType": "uint256",
          "name": "claimID",
          "type": "uint256"
        },
        {
          "indexed": false,
          "internalType": "bytes32",
          "name": "root",
          "type": "bytes32"
        }
      ],
      "name": "AllowlistCreated",
      "type": "event"
    },
    {
      "anonymous": false,
      "inputs": [
        {
          "indexed": true,
          "internalType": "address",
          "name": "account",
          "type": "address"
        },
        {
          "indexed": true,
          "internalType": "address",
          "name": "operator",
          "type": "address"
        },
        {
          "indexed": false,
          "internalType": "bool",
          "name": "approved",
          "type": "bool"
        }
      ],
      "name": "ApprovalForAll",
      "type": "event"
    },
    {
      "anonymous": false,
      "inputs": [
        {
          "indexed": true,
          "internalType": "address",
          "name": "beacon",
          "type": "address"
        }
      ],
      "name": "BeaconUpgraded",
      "type": "event"
    },
    {
      "anonymous": false,
      "inputs": [
        {
          "indexed": false,
          "internalType": "uint8",
          "name": "version",
          "type": "uint8"
        }
      ],
      "name": "Initialized",
      "type": "event"
    },
    {
      "anonymous": false,
      "inputs": [
        {
          "indexed": false,
          "internalType": "uint256",
          "name": "claimID",
          "type": "uint256"
        },
        {
          "indexed": false,
          "internalType": "bytes32",
          "name": "leaf",
          "type": "bytes32"
        }
      ],
      "name": "LeafClaimed",
      "type": "event"
    },
    {
      "anonymous": false,
      "inputs": [
        {
          "indexed": true,
          "internalType": "address",
          "name": "previousOwner",
          "type": "address"
        },
        {
          "indexed": true,
          "internalType": "address",
          "name": "newOwner",
          "type": "address"
        }
      ],
      "name": "OwnershipTransferred",
      "type": "event"
    },
    {
      "anonymous": false,
      "inputs": [
        {
          "indexed": true,
          "internalType": "address",
          "name": "operator",
          "type": "address"
        },
        {
          "indexed": true,
          "internalType": "address",
          "name": "from",
          "type": "address"
        },
        {
          "indexed": true,
          "internalType": "address",
          "name": "to",
          "type": "address"
        },
        {
          "indexed": false,
          "internalType": "uint256[]",
          "name": "ids",
          "type": "uint256[]"
        },
        {
          "indexed": false,
          "internalType": "uint256[]",
          "name": "values",
          "type": "uint256[]"
        }
      ],
      "name": "TransferBatch",
      "type": "event"
    },
    {
      "anonymous": false,
      "inputs": [
        {
          "indexed": true,
          "internalType": "address",
          "name": "operator",
          "type": "address"
        },
        {
          "indexed": true,
          "internalType": "address",
          "name": "from",
          "type": "address"
        },
        {
          "indexed": true,
          "internalType": "address",
          "name": "to",
          "type": "address"
        },
        {
          "indexed": false,
          "internalType": "uint256",
          "name": "id",
          "type": "uint256"
        },
        {
          "indexed": false,
          "internalType": "uint256",
          "name": "value",
          "type": "uint256"
        }
      ],
      "name": "TransferSingle",
      "type": "event"
    },
    {
      "anonymous": false,
      "inputs": [
        {
          "indexed": false,
          "internalType": "string",
          "name": "value",
          "type": "string"
        },
        {
          "indexed": true,
          "internalType": "uint256",
          "name": "id",
          "type": "uint256"
        }
      ],
      "name": "URI",
      "type": "event"
    },
    {
      "anonymous": false,
      "inputs": [
        {
          "indexed": true,
          "internalType": "address",
          "name": "implementation",
          "type": "address"
        }
      ],
      "name": "Upgraded",
      "type": "event"
    },
    {
      "inputs": [],
      "name": "NF_INDEX_MASK",
      "outputs": [
        {
          "internalType": "uint256",
          "name": "",
          "type": "uint256"
        }
      ],
      "stateMutability": "view",
      "type": "function"
    },
    {
      "inputs": [],
      "name": "TYPE_MASK",
      "outputs": [
        {
          "internalType": "uint256",
          "name": "",
          "type": "uint256"
        }
      ],
      "stateMutability": "view",
      "type": "function"
    },
    {
      "inputs": [],
      "name": "TYPE_NF_BIT",
      "outputs": [
        {
          "internalType": "uint256",
          "name": "",
          "type": "uint256"
        }
      ],
      "stateMutability": "view",
      "type": "function"
    },
    {
      "inputs": [],
      "name": "__SemiFungible1155_init",
      "outputs": [],
      "stateMutability": "nonpayable",
      "type": "function"
    },
    {
      "inputs": [],
      "name": "__Upgradeable1155_init",
      "outputs": [],
      "stateMutability": "nonpayable",
      "type": "function"
    },
    {
      "inputs": [
        {
          "internalType": "address",
          "name": "_owner",
          "type": "address"
        },
        {
          "internalType": "uint256",
          "name": "_tokenID",
          "type": "uint256"
        }
      ],
      "name": "balanceOf",
      "outputs": [
        {
          "internalType": "uint256",
          "name": "tokenUserBalance",
          "type": "uint256"
        }
      ],
      "stateMutability": "view",
      "type": "function"
    },
    {
      "inputs": [
        {
          "internalType": "uint256",
          "name": "_tokenID",
          "type": "uint256"
        }
      ],
      "name": "balanceOf",
      "outputs": [
        {
          "internalType": "uint256",
          "name": "tokenValue",
          "type": "uint256"
        }
      ],
      "stateMutability": "view",
      "type": "function"
    },
    {
      "inputs": [
        {
          "internalType": "address[]",
          "name": "accounts",
          "type": "address[]"
        },
        {
          "internalType": "uint256[]",
          "name": "ids",
          "type": "uint256[]"
        }
      ],
      "name": "balanceOfBatch",
      "outputs": [
        {
          "internalType": "uint256[]",
          "name": "",
          "type": "uint256[]"
        }
      ],
      "stateMutability": "view",
      "type": "function"
    },
    {
      "inputs": [
        {
          "internalType": "address",
          "name": "account",
          "type": "address"
        },
        {
          "internalType": "uint256",
          "name": "id",
          "type": "uint256"
        },
        {
          "internalType": "uint256",
          "name": "value",
          "type": "uint256"
        }
      ],
      "name": "burn",
      "outputs": [],
      "stateMutability": "nonpayable",
      "type": "function"
    },
    {
      "inputs": [
        {
          "internalType": "address",
          "name": "account",
          "type": "address"
        },
        {
          "internalType": "uint256[]",
          "name": "ids",
          "type": "uint256[]"
        },
        {
          "internalType": "uint256[]",
          "name": "values",
          "type": "uint256[]"
        }
      ],
      "name": "burnBatch",
      "outputs": [],
      "stateMutability": "nonpayable",
      "type": "function"
    },
    {
      "inputs": [
        {
          "internalType": "address",
          "name": "_account",
          "type": "address"
        },
        {
          "internalType": "uint256",
          "name": "_tokenID",
          "type": "uint256"
        }
      ],
      "name": "burnValue",
      "outputs": [],
      "stateMutability": "nonpayable",
      "type": "function"
    },
    {
      "inputs": [
        {
          "internalType": "uint256",
          "name": "",
          "type": "uint256"
        }
      ],
      "name": "claimToToken",
      "outputs": [
        {
          "internalType": "uint256",
          "name": "",
          "type": "uint256"
        }
      ],
      "stateMutability": "view",
      "type": "function"
    },
    {
      "inputs": [
        {
          "internalType": "uint256",
          "name": "units",
          "type": "uint256"
        },
        {
          "internalType": "bytes32",
          "name": "merkleRoot",
          "type": "bytes32"
        },
        {
          "internalType": "string",
          "name": "uri",
          "type": "string"
        }
      ],
      "name": "createAllowlist",
      "outputs": [],
      "stateMutability": "nonpayable",
      "type": "function"
    },
    {
      "inputs": [
        {
          "internalType": "uint256",
          "name": "",
          "type": "uint256"
        }
      ],
      "name": "creators",
      "outputs": [
        {
          "internalType": "address",
          "name": "",
          "type": "address"
        }
      ],
      "stateMutability": "view",
      "type": "function"
    },
    {
      "inputs": [
        {
          "internalType": "uint256",
          "name": "",
          "type": "uint256"
        },
        {
          "internalType": "bytes32",
          "name": "",
          "type": "bytes32"
        }
      ],
      "name": "hasBeenClaimed",
      "outputs": [
        {
          "internalType": "bool",
          "name": "",
          "type": "bool"
        }
      ],
      "stateMutability": "view",
      "type": "function"
    },
    {
      "inputs": [],
      "name": "initialize",
      "outputs": [],
      "stateMutability": "nonpayable",
      "type": "function"
    },
    {
      "inputs": [
        {
          "internalType": "bytes32[]",
          "name": "proof",
          "type": "bytes32[]"
        },
        {
          "internalType": "uint256",
          "name": "claimID",
          "type": "uint256"
        },
        {
          "internalType": "bytes32",
          "name": "leaf",
          "type": "bytes32"
        }
      ],
      "name": "isAllowedToClaim",
      "outputs": [
        {
          "internalType": "bool",
          "name": "isAllowed",
          "type": "bool"
        }
      ],
      "stateMutability": "view",
      "type": "function"
    },
    {
      "inputs": [
        {
          "internalType": "address",
          "name": "account",
          "type": "address"
        },
        {
          "internalType": "address",
          "name": "operator",
          "type": "address"
        }
      ],
      "name": "isApprovedForAll",
      "outputs": [
        {
          "internalType": "bool",
          "name": "",
          "type": "bool"
        }
      ],
      "stateMutability": "view",
      "type": "function"
    },
    {
      "inputs": [
        {
          "internalType": "uint256[]",
          "name": "_fractionIDs",
          "type": "uint256[]"
        }
      ],
      "name": "mergeValue",
      "outputs": [],
      "stateMutability": "nonpayable",
      "type": "function"
    },
    {
      "inputs": [
        {
          "internalType": "uint256",
          "name": "units",
          "type": "uint256"
        },
        {
          "internalType": "string",
          "name": "uri",
          "type": "string"
        }
      ],
      "name": "mintClaim",
      "outputs": [],
      "stateMutability": "nonpayable",
      "type": "function"
    },
    {
      "inputs": [
        {
          "internalType": "bytes32[]",
          "name": "proof",
          "type": "bytes32[]"
        },
        {
          "internalType": "uint256",
          "name": "claimID",
          "type": "uint256"
        },
        {
          "internalType": "uint256",
          "name": "amount",
          "type": "uint256"
        }
      ],
      "name": "mintClaimFromAllowlist",
      "outputs": [],
      "stateMutability": "nonpayable",
      "type": "function"
    },
    {
      "inputs": [
        {
          "internalType": "uint256[]",
          "name": "fractions",
          "type": "uint256[]"
        },
        {
          "internalType": "string",
          "name": "uri",
          "type": "string"
        }
      ],
      "name": "mintClaimWithFractions",
      "outputs": [],
      "stateMutability": "nonpayable",
      "type": "function"
    },
    {
      "inputs": [],
      "name": "name",
      "outputs": [
        {
          "internalType": "string",
          "name": "",
          "type": "string"
        }
      ],
      "stateMutability": "view",
      "type": "function"
    },
    {
      "inputs": [],
      "name": "owner",
      "outputs": [
        {
          "internalType": "address",
          "name": "",
          "type": "address"
        }
      ],
      "stateMutability": "view",
      "type": "function"
    },
    {
      "inputs": [
        {
          "internalType": "uint256",
          "name": "",
          "type": "uint256"
        }
      ],
      "name": "owners",
      "outputs": [
        {
          "internalType": "address",
          "name": "",
          "type": "address"
        }
      ],
      "stateMutability": "view",
      "type": "function"
    },
    {
      "inputs": [],
      "name": "proxiableUUID",
      "outputs": [
        {
          "internalType": "bytes32",
          "name": "",
          "type": "bytes32"
        }
      ],
      "stateMutability": "view",
      "type": "function"
    },
    {
      "inputs": [],
      "name": "renounceOwnership",
      "outputs": [],
      "stateMutability": "nonpayable",
      "type": "function"
    },
    {
      "inputs": [
        {
          "internalType": "address",
          "name": "from",
          "type": "address"
        },
        {
          "internalType": "address",
          "name": "to",
          "type": "address"
        },
        {
          "internalType": "uint256[]",
          "name": "ids",
          "type": "uint256[]"
        },
        {
          "internalType": "uint256[]",
          "name": "amounts",
          "type": "uint256[]"
        },
        {
          "internalType": "bytes",
          "name": "data",
          "type": "bytes"
        }
      ],
      "name": "safeBatchTransferFrom",
      "outputs": [],
      "stateMutability": "nonpayable",
      "type": "function"
    },
    {
      "inputs": [
        {
          "internalType": "address",
          "name": "_from",
          "type": "address"
        },
        {
          "internalType": "address",
          "name": "_to",
          "type": "address"
        },
        {
          "internalType": "uint256",
          "name": "_id",
          "type": "uint256"
        },
        {
          "internalType": "uint256",
          "name": "_value",
          "type": "uint256"
        },
        {
          "internalType": "bytes",
          "name": "_data",
          "type": "bytes"
        }
      ],
      "name": "safeTransferFrom",
      "outputs": [],
      "stateMutability": "nonpayable",
      "type": "function"
    },
    {
      "inputs": [
        {
          "internalType": "address",
          "name": "operator",
          "type": "address"
        },
        {
          "internalType": "bool",
          "name": "approved",
          "type": "bool"
        }
      ],
      "name": "setApprovalForAll",
      "outputs": [],
      "stateMutability": "nonpayable",
      "type": "function"
    },
    {
      "inputs": [
        {
          "internalType": "address",
          "name": "_account",
          "type": "address"
        },
        {
          "internalType": "uint256",
          "name": "_tokenID",
          "type": "uint256"
        },
        {
          "internalType": "uint256[]",
          "name": "_values",
          "type": "uint256[]"
        }
      ],
      "name": "splitValue",
      "outputs": [],
      "stateMutability": "nonpayable",
      "type": "function"
    },
    {
      "inputs": [
        {
          "internalType": "bytes4",
          "name": "interfaceId",
          "type": "bytes4"
        }
      ],
      "name": "supportsInterface",
      "outputs": [
        {
          "internalType": "bool",
          "name": "",
          "type": "bool"
        }
      ],
      "stateMutability": "view",
      "type": "function"
    },
    {
      "inputs": [
        {
          "internalType": "uint256",
          "name": "",
          "type": "uint256"
        },
        {
          "internalType": "address",
          "name": "",
          "type": "address"
        }
      ],
      "name": "tokenUserBalances",
      "outputs": [
        {
          "internalType": "uint256",
          "name": "",
          "type": "uint256"
        }
      ],
      "stateMutability": "view",
      "type": "function"
    },
    {
      "inputs": [
        {
          "internalType": "uint256",
          "name": "",
          "type": "uint256"
        }
      ],
      "name": "tokenValues",
      "outputs": [
        {
          "internalType": "uint256",
          "name": "",
          "type": "uint256"
        }
      ],
      "stateMutability": "view",
      "type": "function"
    },
    {
      "inputs": [
        {
          "internalType": "uint256",
          "name": "_typeID",
          "type": "uint256"
        }
      ],
      "name": "totalSupply",
      "outputs": [
        {
          "internalType": "uint256",
          "name": "total",
          "type": "uint256"
        }
      ],
      "stateMutability": "view",
      "type": "function"
    },
    {
      "inputs": [
        {
          "internalType": "address",
          "name": "newOwner",
          "type": "address"
        }
      ],
      "name": "transferOwnership",
      "outputs": [],
      "stateMutability": "nonpayable",
      "type": "function"
    },
    {
      "inputs": [],
      "name": "typeCounter",
      "outputs": [
        {
          "internalType": "uint256",
          "name": "",
          "type": "uint256"
        }
      ],
      "stateMutability": "view",
      "type": "function"
    },
    {
      "inputs": [
        {
          "internalType": "address",
          "name": "newImplementation",
          "type": "address"
        }
      ],
      "name": "upgradeTo",
      "outputs": [],
      "stateMutability": "nonpayable",
      "type": "function"
    },
    {
      "inputs": [
        {
          "internalType": "address",
          "name": "newImplementation",
          "type": "address"
        },
        {
          "internalType": "bytes",
          "name": "data",
          "type": "bytes"
        }
      ],
      "name": "upgradeToAndCall",
      "outputs": [],
      "stateMutability": "payable",
      "type": "function"
    },
    {
      "inputs": [
        {
          "internalType": "uint256",
          "name": "tokenID",
          "type": "uint256"
        }
      ],
      "name": "uri",
      "outputs": [
        {
          "internalType": "string",
          "name": "uri",
          "type": "string"
        }
      ],
      "stateMutability": "view",
      "type": "function"
    }
  ],
  "bytecode": {
    "object": "0x60a0604052306080523480156200001557600080fd5b50620000206200003a565b6200002a6200003a565b620000346200003a565b620000fb565b600054610100900460ff1615620000a75760405162461bcd60e51b815260206004820152602760248201527f496e697469616c697a61626c653a20636f6e747261637420697320696e697469604482015266616c697a696e6760c81b606482015260840160405180910390fd5b60005460ff90811614620000f9576000805460ff191660ff9081179091556040519081527f7f26b83ff96e1f2b6a682f133852f6798a09c465da95921460cefb38474024989060200160405180910390a15b565b6080516148466200013360003960008181610a7501528181610b0b01528181610f4501528181610fdb01526110d601526148466000f3fe6080604052600436106102ba5760003560e01c80638129fc1c1161016e578063be106a46116100cb578063e53e79f21161007f578063f242432a11610064578063f242432a14610874578063f2fde38b14610894578063f5298aca146108b457600080fd5b8063e53e79f21461080b578063e985e9c51461082b57600080fd5b8063cd53d08e116100b0578063cd53d08e14610780578063d905af55146107b7578063d9c57a2d146107eb57600080fd5b8063be106a4614610732578063c732c9631461074757600080fd5b80639cc7f70811610122578063a22cb46511610107578063a22cb465146106e4578063b11f477814610704578063bd85b0391461067a57600080fd5b80639cc7f7081461067a578063a21ed980146106a857600080fd5b80638da5cb5b116101535780638da5cb5b146106275780638fc202dd14610645578063992e820e1461065a57600080fd5b80638129fc1c146105f25780638c057ec81461060757600080fd5b806344d7c2b11161021c57806361318e59116101d05780636b225fe4116101b55780636b225fe41461058f578063715018a6146105bd578063800a6fcb146105d257600080fd5b806361318e59146105585780636b20c4541461056f57600080fd5b80634f1ef286116102015780634f1ef2861461050c57806352d1902d1461051f57806352fb73991461053457600080fd5b806344d7c2b1146104bf5780634e1273f4146104df57600080fd5b80630f94cc50116102735780633659cfe6116102585780633659cfe61461045f5780633e11eefe1461047f578063412deeac1461049f57600080fd5b80630f94cc50146104095780632eb2c2d61461043d57600080fd5b8063025e7c27116102a4578063025e7c271461034457806306fdde03146103935780630e89341c146103e957600080fd5b8062fdd58e146102bf57806301ffc9a714610314575b600080fd5b3480156102cb57600080fd5b506103016102da366004613b35565b6000908152610196602090815260408083206001600160a01b039094168352929052205490565b6040519081526020015b60405180910390f35b34801561032057600080fd5b5061033461032f366004613b8d565b6108d4565b604051901515815260200161030b565b34801561035057600080fd5b5061037b61035f366004613baa565b610192602052600090815260409020546001600160a01b031681565b6040516001600160a01b03909116815260200161030b565b34801561039f57600080fd5b506103dc6040518060400160405280600f81526020017f4879706572636572744d696e746572000000000000000000000000000000000081525081565b60405161030b9190613c13565b3480156103f557600080fd5b506103dc610404366004613baa565b6109b9565b34801561041557600080fd5b506103017fffffffffffffffffffffffffffffffff0000000000000000000000000000000081565b34801561044957600080fd5b5061045d610458366004613d8b565b6109c4565b005b34801561046b57600080fd5b5061045d61047a366004613e35565b610a6b565b34801561048b57600080fd5b5061033461049a366004613e9c565b610c08565b3480156104ab57600080fd5b5061045d6104ba366004613eed565b610c2f565b3480156104cb57600080fd5b5061045d6104da366004613f3d565b610c4d565b3480156104eb57600080fd5b506104ff6104fa366004613f7a565b610ddb565b60405161030b9190614080565b61045d61051a366004614093565b610f3b565b34801561052b57600080fd5b506103016110c9565b34801561054057600080fd5b506103016fffffffffffffffffffffffffffffffff81565b34801561056457600080fd5b506103016101915481565b34801561057b57600080fd5b5061045d61058a3660046140d7565b61118f565b34801561059b57600080fd5b506103016105aa366004613baa565b6101946020526000908152604090205481565b3480156105c957600080fd5b5061045d61122d565b3480156105de57600080fd5b5061045d6105ed366004614141565b611241565b3480156105fe57600080fd5b5061045d61124c565b34801561061357600080fd5b5061045d610622366004614172565b6113a5565b34801561063357600080fd5b5060fb546001600160a01b031661037b565b34801561065157600080fd5b5061045d6115c0565b34801561066657600080fd5b5061045d610675366004613b35565b6116b4565b34801561068657600080fd5b50610301610695366004613baa565b6000908152610194602052604090205490565b3480156106b457600080fd5b506103346106c33660046141bf565b61019860209081526000928352604080842090915290825290205460ff1681565b3480156106f057600080fd5b5061045d6106ff3660046141e1565b6117c7565b34801561071057600080fd5b5061030161071f366004613baa565b6101996020526000908152604090205481565b34801561073e57600080fd5b5061045d6117d2565b34801561075357600080fd5b5061030161076236600461421d565b61019660209081526000928352604080842090915290825290205481565b34801561078c57600080fd5b5061037b61079b366004613baa565b610193602052600090815260409020546001600160a01b031681565b3480156107c357600080fd5b506103017f800000000000000000000000000000000000000000000000000000000000000081565b3480156107f757600080fd5b5061045d610806366004613e9c565b6118f6565b34801561081757600080fd5b5061045d610826366004614249565b61190c565b34801561083757600080fd5b506103346108463660046142a3565b6001600160a01b03918216600090815260666020908152604080832093909416825291909152205460ff1690565b34801561088057600080fd5b5061045d61088f3660046142cd565b611917565b3480156108a057600080fd5b5061045d6108af366004613e35565b611be1565b3480156108c057600080fd5b5061045d6108cf366004614332565b611c6e565b60007fffffffff0000000000000000000000000000000000000000000000000000000082167fd9b67a2600000000000000000000000000000000000000000000000000000000148061096757507fffffffff0000000000000000000000000000000000000000000000000000000082167f0e89341c00000000000000000000000000000000000000000000000000000000145b806109b357507f01ffc9a7000000000000000000000000000000000000000000000000000000007fffffffff000000000000000000000000000000000000000000000000000000008316145b92915050565b60606109b382611d07565b6001600160a01b0385163314806109e057506109e08533610846565b610a575760405162461bcd60e51b815260206004820152602e60248201527f455243313135353a2063616c6c6572206973206e6f7420746f6b656e206f776e60448201527f6572206f7220617070726f76656400000000000000000000000000000000000060648201526084015b60405180910390fd5b610a648585858585611de7565b5050505050565b6001600160a01b037f0000000000000000000000000000000000000000000000000000000000000000163003610b095760405162461bcd60e51b815260206004820152602c60248201527f46756e6374696f6e206d7573742062652063616c6c6564207468726f7567682060448201527f64656c656761746563616c6c00000000000000000000000000000000000000006064820152608401610a4e565b7f00000000000000000000000000000000000000000000000000000000000000006001600160a01b0316610b647f360894a13ba1a3210667c828492db98dca3e2076cc3735a920a3ca505d382bbc546001600160a01b031690565b6001600160a01b031614610be05760405162461bcd60e51b815260206004820152602c60248201527f46756e6374696f6e206d7573742062652063616c6c6564207468726f7567682060448201527f6163746976652070726f787900000000000000000000000000000000000000006064820152608401610a4e565b610be98161209c565b60408051600080825260208201909252610c05918391906120a4565b50565b60008281526101976020526040812054610c26908690869085612244565b95945050505050565b6000610c3b848361225c565b9050610c4781846122cd565b50505050565b60fd81511115610c89576040517f3ada02e500000000000000000000000000000000000000000000000000000000815260040160405180910390fd5b8051600082610c99600184614394565b81518110610ca957610ca96143a7565b602002602001015190506000610cde827fffffffffffffffffffffffffffffffff000000000000000000000000000000001690565b905060005b83811015610a645781610d2e868381518110610d0157610d016143a7565b60200260200101517fffffffffffffffffffffffffffffffff000000000000000000000000000000001690565b14610d65576040517fb4902a1300000000000000000000000000000000000000000000000000000000815260040160405180910390fd5b6000858281518110610d7957610d796143a7565b60200260200101519050838114610dc8576000818152610194602052604080822054868352908220805491929091610db29084906143d6565b9091555050600081815261019460205260408120555b5080610dd3816143e9565b915050610ce3565b60608151835114610e545760405162461bcd60e51b815260206004820152602960248201527f455243313135353a206163636f756e747320616e6420696473206c656e67746860448201527f206d69736d6174636800000000000000000000000000000000000000000000006064820152608401610a4e565b6000835167ffffffffffffffff811115610e7057610e70613c26565b604051908082528060200260200182016040528015610e99578160200160208202803683370190505b50905060005b8451811015610f3357610f06858281518110610ebd57610ebd6143a7565b6020026020010151858381518110610ed757610ed76143a7565b60200260200101516000908152610196602090815260408083206001600160a01b039094168352929052205490565b828281518110610f1857610f186143a7565b6020908102919091010152610f2c816143e9565b9050610e9f565b509392505050565b6001600160a01b037f0000000000000000000000000000000000000000000000000000000000000000163003610fd95760405162461bcd60e51b815260206004820152602c60248201527f46756e6374696f6e206d7573742062652063616c6c6564207468726f7567682060448201527f64656c656761746563616c6c00000000000000000000000000000000000000006064820152608401610a4e565b7f00000000000000000000000000000000000000000000000000000000000000006001600160a01b03166110347f360894a13ba1a3210667c828492db98dca3e2076cc3735a920a3ca505d382bbc546001600160a01b031690565b6001600160a01b0316146110b05760405162461bcd60e51b815260206004820152602c60248201527f46756e6374696f6e206d7573742062652063616c6c6564207468726f7567682060448201527f6163746976652070726f787900000000000000000000000000000000000000006064820152608401610a4e565b6110b98261209c565b6110c5828260016120a4565b5050565b6000306001600160a01b037f000000000000000000000000000000000000000000000000000000000000000016146111695760405162461bcd60e51b815260206004820152603860248201527f555550535570677261646561626c653a206d757374206e6f742062652063616c60448201527f6c6564207468726f7567682064656c656761746563616c6c00000000000000006064820152608401610a4e565b507f360894a13ba1a3210667c828492db98dca3e2076cc3735a920a3ca505d382bbc5b90565b6001600160a01b0383163314806111ab57506111ab8333610846565b61121d5760405162461bcd60e51b815260206004820152602e60248201527f455243313135353a2063616c6c6572206973206e6f7420746f6b656e206f776e60448201527f6572206f7220617070726f7665640000000000000000000000000000000000006064820152608401610a4e565b611228838383612364565b505050565b61123561260e565b61123f6000612668565b565b6112283383836126d2565b600054610100900460ff161580801561126c5750600054600160ff909116105b806112865750303b158015611286575060005460ff166001145b6112f85760405162461bcd60e51b815260206004820152602e60248201527f496e697469616c697a61626c653a20636f6e747261637420697320616c72656160448201527f647920696e697469616c697a65640000000000000000000000000000000000006064820152608401610a4e565b6000805460ff19166001179055801561133857600080547fffffffffffffffffffffffffffffffffffffffffffffffffffffffffffff00ff166101001790555b6113406115c0565b8015610c0557600080547fffffffffffffffffffffffffffffffffffffffffffffffffffffffffffff00ff169055604051600181527f7f26b83ff96e1f2b6a682f133852f6798a09c465da95921460cefb38474024989060200160405180910390a150565b60fd815111156113e1576040517f3ada02e500000000000000000000000000000000000000000000000000000000815260040160405180910390fd5b6fffffffffffffffffffffffffffffffff821660000361142d576040517f3d693ada00000000000000000000000000000000000000000000000000000000815260040160405180910390fd5b7fffffffffffffffffffffffffffffffff0000000000000000000000000000000082166000818152610195602052604081205461146a90836143d6565b8351600086815261019460205260409020549192509060015b8281101561156557600061149782866143d6565b90506114b589826001604051806020016040528060008152506127da565b8682815181106114c7576114c76143a7565b60200260200101516101946000838152602001908152602001600020819055508682815181106114f9576114f96143a7565b6020908102919091018101516000838152610196835260408082206001600160a01b038e1683529093529190912055865187908390811061153c5761153c6143a7565b60200260200101518361154f9190614394565b925050808061155d906143e9565b915050611483565b5060008681526101946020908152604080832084905561019682528083206001600160a01b038b1684528252808320849055868352610195909152812080548492906115b29084906143d6565b909155505050505050505050565b600054610100900460ff16158080156115e05750600054600160ff909116105b806115fa5750303b1580156115fa575060005460ff166001145b61166c5760405162461bcd60e51b815260206004820152602e60248201527f496e697469616c697a61626c653a20636f6e747261637420697320616c72656160448201527f647920696e697469616c697a65640000000000000000000000000000000000006064820152608401610a4e565b6000805460ff1916600117905580156116ac57600080547fffffffffffffffffffffffffffffffffffffffffffffffffffffffffffff00ff166101001790555b6113406117d2565b7fffffffffffffffffffffffffffffffff0000000000000000000000000000000081166fffffffffffffffffffffffffffffffff8216600003611723576040517f3d693ada00000000000000000000000000000000000000000000000000000000815260040160405180910390fd5b600081815261019460205260408082205484835291205414611771576040517fd7fd210200000000000000000000000000000000000000000000000000000000815260040160405180910390fd5b6000818152610194602090815260408083208390558483528083208390559282526101968082528383206001600160a01b0390961680845295825283832083905593825292835281812093815292909152812055565b6110c533838361292a565b600054610100900460ff16158080156117f25750600054600160ff909116105b8061180c5750303b15801561180c575060005460ff166001145b61187e5760405162461bcd60e51b815260206004820152602e60248201527f496e697469616c697a61626c653a20636f6e747261637420697320616c72656160448201527f647920696e697469616c697a65640000000000000000000000000000000000006064820152608401610a4e565b6000805460ff1916600117905580156118be57600080547fffffffffffffffffffffffffffffffffffffffffffffffffffffffffffff00ff166101001790555b6118d660405180602001604052806000815250612a1e565b6118de612aa4565b6118e6612b21565b6118ee612ba6565b611340612aa4565b61190284848484612c2b565b610a648282612d8b565b611228338383612e89565b6001600160a01b038416611957576040517f18c7c3da00000000000000000000000000000000000000000000000000000000815260040160405180910390fd5b6001600160a01b0385163314611999576040517fe433766c00000000000000000000000000000000000000000000000000000000815260040160405180910390fd5b600083815261019460205260409020547f800000000000000000000000000000000000000000000000000000000000000080851603611a6b57600084815261019260205260409020546001600160a01b03878116911614611a26576040517fe433766c00000000000000000000000000000000000000000000000000000000815260040160405180910390fd5b60008481526101926020526040902080547fffffffffffffffffffffffff0000000000000000000000000000000000000000166001600160a01b038716179055611b70565b7fffffffffffffffffffffffffffffffff0000000000000000000000000000000084166000818152610196602090815260408083206001600160a01b038b16845290915281208054849290611ac1908490614394565b90915550506000818152610196602090815260408083206001600160a01b038a16845290915281208054849290611af99084906143d6565b90915550506000858152610196602090815260408083206001600160a01b038b16845290915281208054849290611b31908490614394565b90915550506000858152610196602090815260408083206001600160a01b038a16845290915281208054849290611b699084906143d6565b9091555050505b60408051858152602081018590526001600160a01b03808816929089169133917fc3d58168c5ae7397731d063d5bbf3d657854427343f4c083240f7aacaa2d0f62910160405180910390a46001600160a01b0385163b15611bd957611bd9338787878787612f10565b505050505050565b611be961260e565b6001600160a01b038116611c655760405162461bcd60e51b815260206004820152602660248201527f4f776e61626c653a206e6577206f776e657220697320746865207a65726f206160448201527f64647265737300000000000000000000000000000000000000000000000000006064820152608401610a4e565b610c0581612668565b6001600160a01b038316331480611c8a5750611c8a8333610846565b611cfc5760405162461bcd60e51b815260206004820152602e60248201527f455243313135353a2063616c6c6572206973206e6f7420746f6b656e206f776e60448201527f6572206f7220617070726f7665640000000000000000000000000000000000006064820152608401610a4e565b611228838383613104565b600081815260ca6020526040812080546060929190611d2590614421565b80601f0160208091040260200160405190810160405280929190818152602001828054611d5190614421565b8015611d9e5780601f10611d7357610100808354040283529160200191611d9e565b820191906000526020600020905b815481529060010190602001808311611d8157829003601f168201915b505050505090506000815111611dbc57611db7836132d5565b611de0565b60c981604051602001611dd092919061446e565b6040516020818303038152906040525b9392505050565b8151835114611e5e5760405162461bcd60e51b815260206004820152602860248201527f455243313135353a2069647320616e6420616d6f756e7473206c656e6774682060448201527f6d69736d617463680000000000000000000000000000000000000000000000006064820152608401610a4e565b6001600160a01b038416611eda5760405162461bcd60e51b815260206004820152602560248201527f455243313135353a207472616e7366657220746f20746865207a65726f20616460448201527f64726573730000000000000000000000000000000000000000000000000000006064820152608401610a4e565b33611ee9818787878787613369565b60005b8451811015612028576000858281518110611f0957611f096143a7565b602002602001015190506000858381518110611f2757611f276143a7565b60209081029190910181015160008481526065835260408082206001600160a01b038e168352909352919091205490915081811015611fce5760405162461bcd60e51b815260206004820152602a60248201527f455243313135353a20696e73756666696369656e742062616c616e636520666f60448201527f72207472616e73666572000000000000000000000000000000000000000000006064820152608401610a4e565b60008381526065602090815260408083206001600160a01b038e8116855292528083208585039055908b1682528120805484929061200d9084906143d6565b9250508190555050505080612021906143e9565b9050611eec565b50846001600160a01b0316866001600160a01b0316826001600160a01b03167f4a39dc06d4c0dbc64b70af90fd698a233a518aa5d07e595d983b8c0526c8f7fb87876040516120789291906144f5565b60405180910390a461208e818787878787613373565b611bd9818787878787613378565b610c0561260e565b7f4910fdfa16fed3260ed0e7147f7cc6da11a60208b5b9406d12a635614ffd91435460ff16156120d757611228836134d3565b826001600160a01b03166352d1902d6040518163ffffffff1660e01b8152600401602060405180830381865afa925050508015612131575060408051601f3d908101601f1916820190925261212e9181019061451a565b60015b6121a35760405162461bcd60e51b815260206004820152602e60248201527f45524331393637557067726164653a206e657720696d706c656d656e7461746960448201527f6f6e206973206e6f7420555550530000000000000000000000000000000000006064820152608401610a4e565b7f360894a13ba1a3210667c828492db98dca3e2076cc3735a920a3ca505d382bbc81146122385760405162461bcd60e51b815260206004820152602960248201527f45524331393637557067726164653a20756e737570706f727465642070726f7860448201527f6961626c655555494400000000000000000000000000000000000000000000006064820152608401610a4e565b506112288383836135a9565b6000826122528686856135ce565b1495945050505050565b6000608061019160008154612270906143e9565b9182905550901b9050612283818361361a565b60008181526101936020908152604080832080547fffffffffffffffffffffffff000000000000000000000000000000000000000016331790556101949091529020929092555090565b6000828152610197602052604090205415612314576040517f357d0cc400000000000000000000000000000000000000000000000000000000815260040160405180910390fd5b6000828152610197602090815260409182902083905581518481529081018390527f233c854c30aaaad173f2dd900c76d53c64e556d1d009d71466ec1afcb7b5844d910160405180910390a15050565b6001600160a01b0383166123e05760405162461bcd60e51b815260206004820152602360248201527f455243313135353a206275726e2066726f6d20746865207a65726f206164647260448201527f65737300000000000000000000000000000000000000000000000000000000006064820152608401610a4e565b80518251146124575760405162461bcd60e51b815260206004820152602860248201527f455243313135353a2069647320616e6420616d6f756e7473206c656e6774682060448201527f6d69736d617463680000000000000000000000000000000000000000000000006064820152608401610a4e565b600033905061247a81856000868660405180602001604052806000815250613369565b60005b835181101561259757600084828151811061249a5761249a6143a7565b6020026020010151905060008483815181106124b8576124b86143a7565b60209081029190910181015160008481526065835260408082206001600160a01b038c16835290935291909120549091508181101561255e5760405162461bcd60e51b8152602060048201526024808201527f455243313135353a206275726e20616d6f756e7420657863656564732062616c60448201527f616e6365000000000000000000000000000000000000000000000000000000006064820152608401610a4e565b60009283526065602090815260408085206001600160a01b038b168652909152909220910390558061258f816143e9565b91505061247d565b5060006001600160a01b0316846001600160a01b0316826001600160a01b03167f4a39dc06d4c0dbc64b70af90fd698a233a518aa5d07e595d983b8c0526c8f7fb86866040516125e89291906144f5565b60405180910390a4610c4781856000868660405180602001604052806000815250613373565b60fb546001600160a01b0316331461123f5760405162461bcd60e51b815260206004820181905260248201527f4f776e61626c653a2063616c6c6572206973206e6f7420746865206f776e65726044820152606401610a4e565b60fb80546001600160a01b038381167fffffffffffffffffffffffff0000000000000000000000000000000000000000831681179093556040519116919082907f8be0079c531659141344cd1fd0a4f28419497f9722a3daafe3b4186f6b6457e090600090a35050565b60006126dc613677565b905060016101956000838152602001908152602001600020600082825461270391906143d6565b90915550506000818152610195602052604081205461272290836143d6565b905061274085826001604051806020016040528060008152506127da565b61274a818461361a565b60008181526101926020908152604080832080546001600160a01b039099167fffffffffffffffffffffffff0000000000000000000000000000000000000000909916891790558483526101948252808320879055838352808320879055848352610196808352818420898552835281842088905593835292815282822096825295909552909320919091555090565b6001600160a01b0384166128565760405162461bcd60e51b815260206004820152602160248201527f455243313135353a206d696e7420746f20746865207a65726f2061646472657360448201527f73000000000000000000000000000000000000000000000000000000000000006064820152608401610a4e565b336000612862856136ce565b9050600061286f856136ce565b905061288083600089858589613369565b60008681526065602090815260408083206001600160a01b038b168452909152812080548792906128b29084906143d6565b909155505060408051878152602081018790526001600160a01b03808a1692600092918716917fc3d58168c5ae7397731d063d5bbf3d657854427343f4c083240f7aacaa2d0f62910160405180910390a461291283600089858589613373565b61292183600089898989613719565b50505050505050565b816001600160a01b0316836001600160a01b0316036129b15760405162461bcd60e51b815260206004820152602960248201527f455243313135353a2073657474696e6720617070726f76616c2073746174757360448201527f20666f722073656c6600000000000000000000000000000000000000000000006064820152608401610a4e565b6001600160a01b03838116600081815260666020908152604080832094871680845294825291829020805460ff191686151590811790915591519182527f17307eab39ab6107e8899845ad3d59bd9653f200f220920489ca2b5937696c31910160405180910390a3505050565b600054610100900460ff16612a9b5760405162461bcd60e51b815260206004820152602b60248201527f496e697469616c697a61626c653a20636f6e7472616374206973206e6f74206960448201527f6e697469616c697a696e670000000000000000000000000000000000000000006064820152608401610a4e565b610c0581613776565b600054610100900460ff1661123f5760405162461bcd60e51b815260206004820152602b60248201527f496e697469616c697a61626c653a20636f6e7472616374206973206e6f74206960448201527f6e697469616c697a696e670000000000000000000000000000000000000000006064820152608401610a4e565b600054610100900460ff16612b9e5760405162461bcd60e51b815260206004820152602b60248201527f496e697469616c697a61626c653a20636f6e7472616374206973206e6f74206960448201527f6e697469616c697a696e670000000000000000000000000000000000000000006064820152608401610a4e565b61123f6137fc565b600054610100900460ff16612c235760405162461bcd60e51b815260206004820152602b60248201527f496e697469616c697a61626c653a20636f6e7472616374206973206e6f74206960448201527f6e697469616c697a696e670000000000000000000000000000000000000000006064820152608401610a4e565b61123f613895565b60008281526101976020908152604080513360601b7fffffffffffffffffffffffffffffffffffffffff00000000000000000000000016818401526034808201869052825180830390910181526054909101825280519083012085845261019883528184208185529092529091205460ff1615612cd4576040517f357d0cc400000000000000000000000000000000000000000000000000000000815260040160405180910390fd5b60008381526101976020526040902054612cf2908690869084612244565b612d28576040517f3d693ada00000000000000000000000000000000000000000000000000000000815260040160405180910390fd5b600083815261019860209081526040808320848452825291829020805460ff1916600117905581518581529081018390527f51483c8cc684284e9ba3215822230838b766f1698bcc7e922a31e02c3c203bd7910160405180910390a15050505050565b6000828152610195602052604081208054600191908390612dad9084906143d6565b909155505060008381526101956020526040902054612dcc90846143d6565b90506000339050612def81836001604051806020016040528060008152506127da565b60008281526101926020908152604080832080547fffffffffffffffffffffffff0000000000000000000000000000000000000000166001600160a01b038616908117909155878452610196835281842090845290915281208054859290612e589084906143d6565b90915550506000828152610196602090815260408083206001600160a01b0390941683529290522091909155919050565b600060fd83511115612ec7576040517f3ada02e500000000000000000000000000000000000000000000000000000000815260040160405180910390fd5b6000612ed28461391b565b9050612edf8582856126d2565b506101915460801b60008181526101956020526040902054909250610f33908690612f0a90856143d6565b866113a5565b6040517ff23a6e610000000000000000000000000000000000000000000000000000000081526001600160a01b0385169063f23a6e6190612f5d9089908990889088908890600401614533565b6020604051808303816000875af1925050508015612f98575060408051601f3d908101601f19168201909252612f9591810190614576565b60015b61304d57612fa4614593565b806308c379a003612fdd5750612fb86145ae565b80612fc35750612fdf565b8060405162461bcd60e51b8152600401610a4e9190613c13565b505b60405162461bcd60e51b815260206004820152603460248201527f455243313135353a207472616e7366657220746f206e6f6e2d4552433131353560448201527f526563656976657220696d706c656d656e7465720000000000000000000000006064820152608401610a4e565b7fffffffff0000000000000000000000000000000000000000000000000000000081167ff23a6e6100000000000000000000000000000000000000000000000000000000146129215760405162461bcd60e51b815260206004820152602860248201527f455243313135353a204552433131353552656365697665722072656a6563746560448201527f6420746f6b656e730000000000000000000000000000000000000000000000006064820152608401610a4e565b6001600160a01b0383166131805760405162461bcd60e51b815260206004820152602360248201527f455243313135353a206275726e2066726f6d20746865207a65726f206164647260448201527f65737300000000000000000000000000000000000000000000000000000000006064820152608401610a4e565b33600061318c846136ce565b90506000613199846136ce565b90506131b983876000858560405180602001604052806000815250613369565b60008581526065602090815260408083206001600160a01b038a168452909152902054848110156132515760405162461bcd60e51b8152602060048201526024808201527f455243313135353a206275726e20616d6f756e7420657863656564732062616c60448201527f616e6365000000000000000000000000000000000000000000000000000000006064820152608401610a4e565b60008681526065602090815260408083206001600160a01b038b81168086529184528285208a8703905582518b81529384018a90529092908816917fc3d58168c5ae7397731d063d5bbf3d657854427343f4c083240f7aacaa2d0f62910160405180910390a461292184886000868660405180602001604052806000815250613373565b6060606780546132e490614421565b80601f016020809104026020016040519081016040528092919081815260200182805461331090614421565b801561335d5780601f106133325761010080835404028352916020019161335d565b820191906000526020600020905b81548152906001019060200180831161334057829003601f168201915b50505050509050919050565b611bd98686868686865b611bd9565b6001600160a01b0384163b15611bd9576040517fbc197c810000000000000000000000000000000000000000000000000000000081526001600160a01b0385169063bc197c81906133d59089908990889088908890600401614656565b6020604051808303816000875af1925050508015613410575060408051601f3d908101601f1916820190925261340d91810190614576565b60015b61341c57612fa4614593565b7fffffffff0000000000000000000000000000000000000000000000000000000081167fbc197c8100000000000000000000000000000000000000000000000000000000146129215760405162461bcd60e51b815260206004820152602860248201527f455243313135353a204552433131353552656365697665722072656a6563746560448201527f6420746f6b656e730000000000000000000000000000000000000000000000006064820152608401610a4e565b6001600160a01b0381163b6135505760405162461bcd60e51b815260206004820152602d60248201527f455243313936373a206e657720696d706c656d656e746174696f6e206973206e60448201527f6f74206120636f6e7472616374000000000000000000000000000000000000006064820152608401610a4e565b7f360894a13ba1a3210667c828492db98dca3e2076cc3735a920a3ca505d382bbc80547fffffffffffffffffffffffff0000000000000000000000000000000000000000166001600160a01b0392909216919091179055565b6135b28361397b565b6000825111806135bf5750805b1561122857610c4783836139bb565b600081815b84811015613611576135fd828787848181106135f1576135f16143a7565b90506020020135613abd565b915080613609816143e9565b9150506135d3565b50949350505050565b600082815260ca6020526040902061363282826146fa565b50817f6bb7ff708619ba0610cba295a58592e0451dee2622938c8755667688daf3529b61365e846109b9565b60405161366b9190613c13565b60405180910390a25050565b600060806101916000815461368b906143e9565b9182905550901b60008181526101936020526040902080547fffffffffffffffffffffffff00000000000000000000000000000000000000001633179055919050565b60408051600180825281830190925260609160009190602080830190803683370190505090508281600081518110613708576137086143a7565b602090810291909101015292915050565b6001600160a01b0384163b15611bd9576040517ff23a6e610000000000000000000000000000000000000000000000000000000081526001600160a01b0385169063f23a6e6190612f5d9089908990889088908890600401614533565b600054610100900460ff166137f35760405162461bcd60e51b815260206004820152602b60248201527f496e697469616c697a61626c653a20636f6e7472616374206973206e6f74206960448201527f6e697469616c697a696e670000000000000000000000000000000000000000006064820152608401610a4e565b610c0581613ae9565b600054610100900460ff166138795760405162461bcd60e51b815260206004820152602b60248201527f496e697469616c697a61626c653a20636f6e7472616374206973206e6f74206960448201527f6e697469616c697a696e670000000000000000000000000000000000000000006064820152608401610a4e565b60408051602081019091526000815260c990610c0590826146fa565b600054610100900460ff166139125760405162461bcd60e51b815260206004820152602b60248201527f496e697469616c697a61626c653a20636f6e7472616374206973206e6f74206960448201527f6e697469616c697a696e670000000000000000000000000000000000000000006064820152608401610a4e565b61123f33612668565b6000815160000361392e57506000919050565b506000805b82518110156139755782818151811061394e5761394e6143a7565b60200260200101518261396191906143d6565b91508061396d816143e9565b915050613933565b50919050565b613984816134d3565b6040516001600160a01b038216907fbc7cd75a20ee27fd9adebab32041f755214dbc6bffa90cc0225b39da2e5c2d3b90600090a250565b60606001600160a01b0383163b613a3a5760405162461bcd60e51b815260206004820152602660248201527f416464726573733a2064656c65676174652063616c6c20746f206e6f6e2d636f60448201527f6e747261637400000000000000000000000000000000000000000000000000006064820152608401610a4e565b600080846001600160a01b031684604051613a5591906147f6565b600060405180830381855af49150503d8060008114613a90576040519150601f19603f3d011682016040523d82523d6000602084013e613a95565b606091505b5091509150610c26828260405180606001604052806027815260200161481360279139613af5565b6000818310613ad9576000828152602084905260409020611de0565b5060009182526020526040902090565b60676110c582826146fa565b60608315613b04575081611de0565b611de08383815115612fc35781518083602001fd5b80356001600160a01b0381168114613b3057600080fd5b919050565b60008060408385031215613b4857600080fd5b613b5183613b19565b946020939093013593505050565b7fffffffff0000000000000000000000000000000000000000000000000000000081168114610c0557600080fd5b600060208284031215613b9f57600080fd5b8135611de081613b5f565b600060208284031215613bbc57600080fd5b5035919050565b60005b83811015613bde578181015183820152602001613bc6565b50506000910152565b60008151808452613bff816020860160208601613bc3565b601f01601f19169290920160200192915050565b602081526000611de06020830184613be7565b7f4e487b7100000000000000000000000000000000000000000000000000000000600052604160045260246000fd5b601f19601f830116810181811067ffffffffffffffff82111715613c7b57613c7b613c26565b6040525050565b600067ffffffffffffffff821115613c9c57613c9c613c26565b5060051b60200190565b600082601f830112613cb757600080fd5b81356020613cc482613c82565b604051613cd18282613c55565b83815260059390931b8501820192828101915086841115613cf157600080fd5b8286015b84811015613d0c5780358352918301918301613cf5565b509695505050505050565b600082601f830112613d2857600080fd5b813567ffffffffffffffff811115613d4257613d42613c26565b604051613d596020601f19601f8501160182613c55565b818152846020838601011115613d6e57600080fd5b816020850160208301376000918101602001919091529392505050565b600080600080600060a08688031215613da357600080fd5b613dac86613b19565b9450613dba60208701613b19565b9350604086013567ffffffffffffffff80821115613dd757600080fd5b613de389838a01613ca6565b94506060880135915080821115613df957600080fd5b613e0589838a01613ca6565b93506080880135915080821115613e1b57600080fd5b50613e2888828901613d17565b9150509295509295909350565b600060208284031215613e4757600080fd5b611de082613b19565b60008083601f840112613e6257600080fd5b50813567ffffffffffffffff811115613e7a57600080fd5b6020830191508360208260051b8501011115613e9557600080fd5b9250929050565b60008060008060608587031215613eb257600080fd5b843567ffffffffffffffff811115613ec957600080fd5b613ed587828801613e50565b90989097506020870135966040013595509350505050565b600080600060608486031215613f0257600080fd5b8335925060208401359150604084013567ffffffffffffffff811115613f2757600080fd5b613f3386828701613d17565b9150509250925092565b600060208284031215613f4f57600080fd5b813567ffffffffffffffff811115613f6657600080fd5b613f7284828501613ca6565b949350505050565b60008060408385031215613f8d57600080fd5b823567ffffffffffffffff80821115613fa557600080fd5b818501915085601f830112613fb957600080fd5b81356020613fc682613c82565b604051613fd38282613c55565b83815260059390931b8501820192828101915089841115613ff357600080fd5b948201945b838610156140185761400986613b19565b82529482019490820190613ff8565b9650508601359250508082111561402e57600080fd5b5061403b85828601613ca6565b9150509250929050565b600081518084526020808501945080840160005b8381101561407557815187529582019590820190600101614059565b509495945050505050565b602081526000611de06020830184614045565b600080604083850312156140a657600080fd5b6140af83613b19565b9150602083013567ffffffffffffffff8111156140cb57600080fd5b61403b85828601613d17565b6000806000606084860312156140ec57600080fd5b6140f584613b19565b9250602084013567ffffffffffffffff8082111561411257600080fd5b61411e87838801613ca6565b9350604086013591508082111561413457600080fd5b50613f3386828701613ca6565b6000806040838503121561415457600080fd5b82359150602083013567ffffffffffffffff8111156140cb57600080fd5b60008060006060848603121561418757600080fd5b61419084613b19565b925060208401359150604084013567ffffffffffffffff8111156141b357600080fd5b613f3386828701613ca6565b600080604083850312156141d257600080fd5b50508035926020909101359150565b600080604083850312156141f457600080fd5b6141fd83613b19565b91506020830135801515811461421257600080fd5b809150509250929050565b6000806040838503121561423057600080fd5b8235915061424060208401613b19565b90509250929050565b6000806040838503121561425c57600080fd5b823567ffffffffffffffff8082111561427457600080fd5b61428086838701613ca6565b9350602085013591508082111561429657600080fd5b5061403b85828601613d17565b600080604083850312156142b657600080fd5b6142bf83613b19565b915061424060208401613b19565b600080600080600060a086880312156142e557600080fd5b6142ee86613b19565b94506142fc60208701613b19565b93506040860135925060608601359150608086013567ffffffffffffffff81111561432657600080fd5b613e2888828901613d17565b60008060006060848603121561434757600080fd5b61435084613b19565b95602085013595506040909401359392505050565b7f4e487b7100000000000000000000000000000000000000000000000000000000600052601160045260246000fd5b818103818111156109b3576109b3614365565b7f4e487b7100000000000000000000000000000000000000000000000000000000600052603260045260246000fd5b808201808211156109b3576109b3614365565b60007fffffffffffffffffffffffffffffffffffffffffffffffffffffffffffffffff820361441a5761441a614365565b5060010190565b600181811c9082168061443557607f821691505b602082108103613975577f4e487b7100000000000000000000000000000000000000000000000000000000600052602260045260246000fd5b600080845461447c81614421565b6001828116801561449457600181146144a9576144d8565b60ff19841687528215158302870194506144d8565b8860005260208060002060005b858110156144cf5781548a8201529084019082016144b6565b50505082870194505b5050505083516144ec818360208801613bc3565b01949350505050565b6040815260006145086040830185614045565b8281036020840152610c268185614045565b60006020828403121561452c57600080fd5b5051919050565b60006001600160a01b03808816835280871660208401525084604083015283606083015260a0608083015261456b60a0830184613be7565b979650505050505050565b60006020828403121561458857600080fd5b8151611de081613b5f565b600060033d111561118c5760046000803e5060005160e01c90565b600060443d10156145bc5790565b6040517ffffffffffffffffffffffffffffffffffffffffffffffffffffffffffffffffc803d016004833e81513d67ffffffffffffffff816024840111818411171561460a57505050505090565b82850191508151818111156146225750505050505090565b843d870101602082850101111561463c5750505050505090565b61464b60208286010187613c55565b509095945050505050565b60006001600160a01b03808816835280871660208401525060a0604083015261468260a0830186614045565b82810360608401526146948186614045565b905082810360808401526146a88185613be7565b98975050505050505050565b601f82111561122857600081815260208120601f850160051c810160208610156146db5750805b601f850160051c820191505b81811015611bd9578281556001016146e7565b815167ffffffffffffffff81111561471457614714613c26565b614728816147228454614421565b846146b4565b602080601f83116001811461477b57600084156147455750858301515b7fffffffffffffffffffffffffffffffffffffffffffffffffffffffffffffffff600386901b1c1916600185901b178555611bd9565b600085815260208120601f198616915b828110156147aa5788860151825594840194600190910190840161478b565b50858210156147e657878501517fffffffffffffffffffffffffffffffffffffffffffffffffffffffffffffffff600388901b60f8161c191681555b5050505050600190811b01905550565b60008251614808818460208701613bc3565b919091019291505056fe416464726573733a206c6f772d6c6576656c2064656c65676174652063616c6c206661696c6564a164736f6c6343000811000a",
    "linkReferences": {}
  },
  "methodIdentifiers": {
    "NF_INDEX_MASK()": "52fb7399",
    "TYPE_MASK()": "0f94cc50",
    "TYPE_NF_BIT()": "d905af55",
    "__SemiFungible1155_init()": "8fc202dd",
    "__Upgradeable1155_init()": "be106a46",
    "balanceOf(address,uint256)": "00fdd58e",
    "balanceOf(uint256)": "9cc7f708",
    "balanceOfBatch(address[],uint256[])": "4e1273f4",
    "burn(address,uint256,uint256)": "f5298aca",
    "burnBatch(address,uint256[],uint256[])": "6b20c454",
    "burnValue(address,uint256)": "992e820e",
    "claimToToken(uint256)": "b11f4778",
    "createAllowlist(uint256,bytes32,string)": "412deeac",
    "creators(uint256)": "cd53d08e",
    "hasBeenClaimed(uint256,bytes32)": "a21ed980",
    "initialize()": "8129fc1c",
    "isAllowedToClaim(bytes32[],uint256,bytes32)": "3e11eefe",
    "isApprovedForAll(address,address)": "e985e9c5",
    "mergeValue(uint256[])": "44d7c2b1",
    "mintClaim(uint256,string)": "800a6fcb",
    "mintClaimFromAllowlist(bytes32[],uint256,uint256)": "d9c57a2d",
    "mintClaimWithFractions(uint256[],string)": "e53e79f2",
    "name()": "06fdde03",
    "owner()": "8da5cb5b",
    "owners(uint256)": "025e7c27",
    "proxiableUUID()": "52d1902d",
    "renounceOwnership()": "715018a6",
    "safeBatchTransferFrom(address,address,uint256[],uint256[],bytes)": "2eb2c2d6",
    "safeTransferFrom(address,address,uint256,uint256,bytes)": "f242432a",
    "setApprovalForAll(address,bool)": "a22cb465",
    "splitValue(address,uint256,uint256[])": "8c057ec8",
    "supportsInterface(bytes4)": "01ffc9a7",
    "tokenUserBalances(uint256,address)": "c732c963",
    "tokenValues(uint256)": "6b225fe4",
    "totalSupply(uint256)": "bd85b039",
    "transferOwnership(address)": "f2fde38b",
    "typeCounter()": "61318e59",
    "upgradeTo(address)": "3659cfe6",
    "upgradeToAndCall(address,bytes)": "4f1ef286",
    "uri(uint256)": "0e89341c"
  },
  "id": 31
}