{
  "address": "0x42e4AeF93780d14E0F3f556713da766BCEd8ac85",
  "abi": [
    {
      "inputs": [],
      "stateMutability": "nonpayable",
      "type": "constructor"
    },
    {
      "anonymous": false,
      "inputs": [
        {
          "indexed": false,
          "internalType": "address",
          "name": "previousAdmin",
          "type": "address"
        },
        {
          "indexed": false,
          "internalType": "address",
          "name": "newAdmin",
          "type": "address"
        }
      ],
      "name": "AdminChanged",
      "type": "event"
    },
    {
      "anonymous": false,
      "inputs": [
        {
          "indexed": true,
          "internalType": "address",
          "name": "beacon",
          "type": "address"
        }
      ],
      "name": "BeaconUpgraded",
      "type": "event"
    },
    {
      "anonymous": false,
      "inputs": [
        {
          "indexed": false,
          "internalType": "uint8",
          "name": "version",
          "type": "uint8"
        }
      ],
      "name": "Initialized",
      "type": "event"
    },
    {
      "anonymous": false,
      "inputs": [
        {
          "indexed": true,
          "internalType": "bytes32",
          "name": "role",
          "type": "bytes32"
        },
        {
          "indexed": true,
          "internalType": "bytes32",
          "name": "previousAdminRole",
          "type": "bytes32"
        },
        {
          "indexed": true,
          "internalType": "bytes32",
          "name": "newAdminRole",
          "type": "bytes32"
        }
      ],
      "name": "RoleAdminChanged",
      "type": "event"
    },
    {
      "anonymous": false,
      "inputs": [
        {
          "indexed": true,
          "internalType": "bytes32",
          "name": "role",
          "type": "bytes32"
        },
        {
          "indexed": true,
          "internalType": "address",
          "name": "account",
          "type": "address"
        },
        {
          "indexed": true,
          "internalType": "address",
          "name": "sender",
          "type": "address"
        }
      ],
      "name": "RoleGranted",
      "type": "event"
    },
    {
      "anonymous": false,
      "inputs": [
        {
          "indexed": true,
          "internalType": "bytes32",
          "name": "role",
          "type": "bytes32"
        },
        {
          "indexed": true,
          "internalType": "address",
          "name": "account",
          "type": "address"
        },
        {
          "indexed": true,
          "internalType": "address",
          "name": "sender",
          "type": "address"
        }
      ],
      "name": "RoleRevoked",
      "type": "event"
    },
    {
      "anonymous": false,
      "inputs": [
        {
          "indexed": true,
          "internalType": "address",
          "name": "implementation",
          "type": "address"
        }
      ],
      "name": "Upgraded",
      "type": "event"
    },
    {
      "inputs": [],
      "name": "DEFAULT_ADMIN_ROLE",
      "outputs": [
        {
          "internalType": "bytes32",
          "name": "",
          "type": "bytes32"
        }
      ],
      "stateMutability": "view",
      "type": "function"
    },
    {
      "inputs": [],
      "name": "UPGRADER_ROLE",
      "outputs": [
        {
          "internalType": "bytes32",
          "name": "",
          "type": "bytes32"
        }
      ],
      "stateMutability": "view",
      "type": "function"
    },
    {
      "inputs": [],
      "name": "generateContractURI",
      "outputs": [
        {
          "internalType": "string",
          "name": "",
          "type": "string"
        }
      ],
      "stateMutability": "view",
      "type": "function"
    },
    {
      "inputs": [
        {
          "internalType": "uint256",
          "name": "slotId",
          "type": "uint256"
        }
      ],
      "name": "generateSlotURI",
      "outputs": [
        {
          "internalType": "string",
          "name": "",
          "type": "string"
        }
      ],
      "stateMutability": "view",
      "type": "function"
    },
    {
      "inputs": [
        {
          "internalType": "uint256",
          "name": "slotId",
          "type": "uint256"
        },
        {
          "internalType": "uint256",
          "name": "tokenId",
          "type": "uint256"
        }
      ],
      "name": "generateTokenURI",
      "outputs": [
        {
          "internalType": "string",
          "name": "",
          "type": "string"
        }
      ],
      "stateMutability": "view",
      "type": "function"
    },
    {
      "inputs": [
        {
          "internalType": "bytes32",
          "name": "role",
          "type": "bytes32"
        }
      ],
      "name": "getRoleAdmin",
      "outputs": [
        {
          "internalType": "bytes32",
          "name": "",
          "type": "bytes32"
        }
      ],
      "stateMutability": "view",
      "type": "function"
    },
    {
      "inputs": [
        {
          "internalType": "bytes32",
          "name": "role",
          "type": "bytes32"
        },
        {
          "internalType": "address",
          "name": "account",
          "type": "address"
        }
      ],
      "name": "grantRole",
      "outputs": [],
      "stateMutability": "nonpayable",
      "type": "function"
    },
    {
      "inputs": [
        {
          "internalType": "bytes32",
          "name": "role",
          "type": "bytes32"
        },
        {
          "internalType": "address",
          "name": "account",
          "type": "address"
        }
      ],
      "name": "hasRole",
      "outputs": [
        {
          "internalType": "bool",
          "name": "",
          "type": "bool"
        }
      ],
      "stateMutability": "view",
      "type": "function"
    },
    {
      "inputs": [
        {
          "internalType": "address",
          "name": "svgGenerationAddress",
          "type": "address"
        }
      ],
      "name": "initialize",
      "outputs": [],
      "stateMutability": "nonpayable",
      "type": "function"
    },
    {
      "inputs": [],
      "name": "proxiableUUID",
      "outputs": [
        {
          "internalType": "bytes32",
          "name": "",
          "type": "bytes32"
        }
      ],
      "stateMutability": "view",
      "type": "function"
    },
    {
      "inputs": [
        {
          "internalType": "bytes32",
          "name": "role",
          "type": "bytes32"
        },
        {
          "internalType": "address",
          "name": "account",
          "type": "address"
        }
      ],
      "name": "renounceRole",
      "outputs": [],
      "stateMutability": "nonpayable",
      "type": "function"
    },
    {
      "inputs": [
        {
          "internalType": "bytes32",
          "name": "role",
          "type": "bytes32"
        },
        {
          "internalType": "address",
          "name": "account",
          "type": "address"
        }
      ],
      "name": "revokeRole",
      "outputs": [],
      "stateMutability": "nonpayable",
      "type": "function"
    },
    {
      "inputs": [
        {
          "internalType": "bytes4",
          "name": "interfaceId",
          "type": "bytes4"
        }
      ],
      "name": "supportsInterface",
      "outputs": [
        {
          "internalType": "bool",
          "name": "",
          "type": "bool"
        }
      ],
      "stateMutability": "view",
      "type": "function"
    },
    {
      "inputs": [],
      "name": "updateVersion",
      "outputs": [],
      "stateMutability": "nonpayable",
      "type": "function"
    },
    {
      "inputs": [
        {
          "internalType": "address",
          "name": "newImplementation",
          "type": "address"
        }
      ],
      "name": "upgradeTo",
      "outputs": [],
      "stateMutability": "nonpayable",
      "type": "function"
    },
    {
      "inputs": [
        {
          "internalType": "address",
          "name": "newImplementation",
          "type": "address"
        },
        {
          "internalType": "bytes",
          "name": "data",
          "type": "bytes"
        }
      ],
      "name": "upgradeToAndCall",
      "outputs": [],
      "stateMutability": "payable",
      "type": "function"
    },
    {
      "inputs": [],
      "name": "version",
      "outputs": [
        {
          "internalType": "uint256",
          "name": "",
          "type": "uint256"
        }
      ],
      "stateMutability": "view",
      "type": "function"
    }
  ],
  "numDeployments": 8,
  "solcInputHash": "f38a7af1e7b1550cb2084257ef9cbced",
  "bytecode": "0x60a0604052306080523480156200001557600080fd5b506200002062000026565b620000e8565b600054610100900460ff1615620000935760405162461bcd60e51b815260206004820152602760248201527f496e697469616c697a61626c653a20636f6e747261637420697320696e697469604482015266616c697a696e6760c81b606482015260840160405180910390fd5b60005460ff9081161015620000e6576000805460ff191660ff9081179091556040519081527f7f26b83ff96e1f2b6a682f133852f6798a09c465da95921460cefb38474024989060200160405180910390a15b565b60805161341c62000120600039600081816103ef0152818161042f0152818161051d0152818161055d01526105ec015261341c6000f3fe6080604052600436106100fe5760003560e01c806354fd4d5011610095578063a217fddf11610064578063a217fddf14610290578063c4d66de8146102a5578063d547741f146102c5578063ed03f41a146102e5578063f72c0d8b1461030557600080fd5b806354fd4d501461021557806391383c891461022e57806391d148541461025b5780639f4475da1461027b57600080fd5b80633659cfe6116100d15780633659cfe6146101b857806348c02dc1146101d85780634f1ef286146101ed57806352d1902d1461020057600080fd5b806301ffc9a714610103578063248a9ca3146101385780632f2ff15d1461017657806336568abe14610198575b600080fd5b34801561010f57600080fd5b5061012361011e366004612090565b610327565b60405190151581526020015b60405180910390f35b34801561014457600080fd5b506101686101533660046120ba565b60009081526065602052604090206001015490565b60405190815260200161012f565b34801561018257600080fd5b506101966101913660046120e8565b610338565b005b3480156101a457600080fd5b506101966101b33660046120e8565b610362565b3480156101c457600080fd5b506101966101d3366004612118565b6103e5565b3480156101e457600080fd5b506101966104c4565b6101966101fb3660046121cb565b610513565b34801561020c57600080fd5b506101686105df565b34801561022157600080fd5b5060fb5461ffff16610168565b34801561023a57600080fd5b5061024e6102493660046120ba565b610692565b60405161012f91906122ad565b34801561026757600080fd5b506101236102763660046120e8565b61080a565b34801561028757600080fd5b5061024e610835565b34801561029c57600080fd5b50610168600081565b3480156102b157600080fd5b506101966102c0366004612118565b610a1e565b3480156102d157600080fd5b506101966102e03660046120e8565b610b7c565b3480156102f157600080fd5b5061024e6103003660046122c0565b610ba1565b34801561031157600080fd5b506101686000805160206132bd83398151915281565b600061033282610d57565b92915050565b60008281526065602052604090206001015461035381610d8c565b61035d8383610d96565b505050565b6001600160a01b03811633146103d75760405162461bcd60e51b815260206004820152602f60248201527f416363657373436f6e74726f6c3a2063616e206f6e6c792072656e6f756e636560448201526e103937b632b9903337b91039b2b63360891b60648201526084015b60405180910390fd5b6103e18282610e1c565b5050565b6001600160a01b037f000000000000000000000000000000000000000000000000000000000000000016300361042d5760405162461bcd60e51b81526004016103ce906122e2565b7f00000000000000000000000000000000000000000000000000000000000000006001600160a01b03166104766000805160206132dd833981519152546001600160a01b031690565b6001600160a01b03161461049c5760405162461bcd60e51b81526004016103ce9061232e565b6104a581610e83565b604080516000808252602082019092526104c191839190610e9b565b50565b6000805160206132bd8339815191526104dc81610d8c565b60fb8054600191906000906104f690849061ffff16612390565b92506101000a81548161ffff021916908361ffff16021790555050565b6001600160a01b037f000000000000000000000000000000000000000000000000000000000000000016300361055b5760405162461bcd60e51b81526004016103ce906122e2565b7f00000000000000000000000000000000000000000000000000000000000000006001600160a01b03166105a46000805160206132dd833981519152546001600160a01b031690565b6001600160a01b0316146105ca5760405162461bcd60e51b81526004016103ce9061232e565b6105d382610e83565b6103e182826001610e9b565b6000306001600160a01b037f0000000000000000000000000000000000000000000000000000000000000000161461067f5760405162461bcd60e51b815260206004820152603860248201527f555550535570677261646561626c653a206d757374206e6f742062652063616c60448201527f6c6564207468726f7567682064656c656761746563616c6c000000000000000060648201526084016103ce565b506000805160206132dd83398151915290565b6040516372927aa360e01b81526004810182905260609060009033906372927aa390602401600060405180830381865afa1580156106d4573d6000803e3d6000fd5b505050506040513d6000823e601f3d908101601f191682016040526106fc919081019061258a565b9050600061070d8260800151611006565b90506107e28261014001518361016001516107288585611132565b8561018001516107916040518060400160405280600b81526020016a546f74616c20756e69747360a81b815250604051806040016040528060178152602001762ab734ba39903432b63210313c90333930b1ba34b7b71760491b8152508960e0015160006111f8565b6040516020016107a19190612753565b6040516020818303038152906040526107b98861123c565b6040516020016107ce96959493929190612794565b604051602081830303815290604052611519565b6040516020016107f291906128a8565b60405160208183030381529060405292505050919050565b60009182526065602090815260408084206001600160a01b0393909316845291905290205460ff1690565b60606109fa6040516020016107ce907f7b226e616d65223a224879706572436572747322222c2264657363726970746981527f6f6e223a22487970657243657274732063726561746520616e20696e7465726f60208201527f70657261626c652064617461206c6179657220746f206163636f756e7420666f60408201527f7220616374696f6e7320746861742061726520657870656374656420746f206860608201527f61766520706f73697469766520696d706163742e20546865792061726520612060808201527f746f6f6c20746f206275696c64207363616c61626c652072657761726420737960a08201527f7374656d7320666f7220696d706163742e222c22696d616765223a226874747060c08201527f733a2f2f6261666b726569666a677065777a35366c766464796175377873626160e08201527f65666d33717563336b346d6b3334636f6b716b6c32687875796968756e37712e6101008201527f697066732e6e667473746f726167652e6c696e6b2f222c2265787465726e616c6101208201527f5f75726c223a2268747470733a2f2f7777772e687970657263657274732e7879610140820152627a227d60e81b6101608201526101630190565b604051602001610a0a91906128a8565b604051602081830303815290604052905090565b600054610100900460ff1615808015610a3e5750600054600160ff909116105b80610a585750303b158015610a58575060005460ff166001145b610abb5760405162461bcd60e51b815260206004820152602e60248201527f496e697469616c697a61626c653a20636f6e747261637420697320616c72656160448201526d191e481a5b9a5d1a585b1a5e995960921b60648201526084016103ce565b6000805460ff191660011790558015610ade576000805461ff0019166101001790555b60fb805462010000600160b01b031916620100006001600160a01b03851602179055610b0861166b565b610b1061166b565b610b1b600033610d96565b610b336000805160206132bd83398151915233610d96565b80156103e1576000805461ff0019169055604051600181527f7f26b83ff96e1f2b6a682f133852f6798a09c465da95921460cefb38474024989060200160405180910390a15050565b600082815260656020526040902060010154610b9781610d8c565b61035d8383610e1c565b6040516372927aa360e01b81526004810183905260609060009033906372927aa390602401600060405180830381865afa158015610be3573d6000803e3d6000fd5b505050506040513d6000823e601f3d908101601f19168201604052610c0b919081019061258a565b604051631398fee160e31b8152600481018590529091506000903390639cc7f70890602401602060405180830381865afa158015610c4d573d6000803e3d6000fd5b505050506040513d601f19601f82011682018060405250810190610c7191906128ed565b90506000610c828360800151611006565b9050610d2d836101400151846101600151610c9e8686866116d8565b866101800151610d0560405180604001604052806008815260200167233930b1ba34b7b760c11b815250604051806040016040528060178152602001762ab734ba39903432b63210313c90333930b1ba34b7b71760491b815250898b60e001516000611757565b604051602001610d159190612906565b6040516020818303038152906040526107b98961123c565b604051602001610d3d91906128a8565b604051602081830303815290604052935050505092915050565b60006001600160e01b03198216637965db0b60e01b148061033257506301ffc9a760e01b6001600160e01b0319831614610332565b6104c181336117a6565b610da0828261080a565b6103e15760008281526065602090815260408083206001600160a01b03851684529091529020805460ff19166001179055610dd83390565b6001600160a01b0316816001600160a01b0316837f2f8788117e7eff1d82e926ec794901d17c78024a50270940304540a733656f0d60405160405180910390a45050565b610e26828261080a565b156103e15760008281526065602090815260408083206001600160a01b0385168085529252808320805460ff1916905551339285917ff6391f5c32d9c69d2a47ea670b442974b53935d1edc7fd64eb21e047a839171b9190a45050565b6000805160206132bd8339815191526103e181610d8c565b7f4910fdfa16fed3260ed0e7147f7cc6da11a60208b5b9406d12a635614ffd91435460ff1615610ece5761035d8361180a565b826001600160a01b03166352d1902d6040518163ffffffff1660e01b8152600401602060405180830381865afa925050508015610f28575060408051601f3d908101601f19168201909252610f25918101906128ed565b60015b610f8b5760405162461bcd60e51b815260206004820152602e60248201527f45524331393637557067726164653a206e657720696d706c656d656e7461746960448201526d6f6e206973206e6f74205555505360901b60648201526084016103ce565b6000805160206132dd8339815191528114610ffa5760405162461bcd60e51b815260206004820152602960248201527f45524331393637557067726164653a20756e737570706f727465642070726f786044820152681a58589b195555525160ba1b60648201526084016103ce565b5061035d8383836118a6565b8051606090801561112c576000816001600160401b0381111561102b5761102b612135565b60405190808252806020026020018201604052801561105e57816020015b60608152602001906001900390816110495790505b50905060005b8281101561112857336001600160a01b031663ef6f66d786838151811061108d5761108d612945565b60200260200101516040518263ffffffff1660e01b81526004016110b391815260200190565b600060405180830381865afa1580156110d0573d6000803e3d6000fd5b505050506040513d6000823e601f3d908101601f191682016040526110f8919081019061295b565b82828151811061110a5761110a612945565b602002602001018190525080806111209061298f565b915050611064565b5091505b50919050565b60fb54610140830151602084015160408086015160e087015191516312945dd760e31b81526060956111d195620100009091046001600160a01b0316946394a2eeb8946111879492938a939190600401612a29565b600060405180830381865afa1580156111a4573d6000803e3d6000fd5b505050506040513d6000823e601f3d908101601f191682016040526111cc919081019061295b565b611519565b6040516020016111e19190612a7b565b604051602081830303815290604052905092915050565b60608484611205856118d1565b6112108515156119d9565b6040516020016112239493929190612ac0565b6040516020818303038152906040529050949350505050565b60606112916040518060400160405280600c81526020016b121e5c195c90d95c9d08125160a21b8152506040518060600160405280602b815260200161325b602b9139845161128a906118d1565b6000611a22565b6040516020016112a19190612b90565b60405160208183030381529060405261130f6040518060400160405280600e81526020016d53636f706573206f6620576f726b60901b815250604051806060016040528060378152602001613286603791396113086113038760600151611a45565b611b67565b6001611bfe565b60405160200161131f9190612bd2565b6040516020818303038152906040526113836040518060400160405280601081526020016f14d8dbdc195cc81bd988125b5c1858dd60821b81525060405180606001604052806039815260200161333d603991396113086113038860800151611006565b6040516020016113939190612c15565b6040516020818303038152906040526113f46040518060400160405280601181526020017054696d656672616d65206f6620776f726b60781b8152506040518060600160405280603c81526020016133d4603c913987602001516001611c21565b6040516020016114049190612c5a565b60405160208183030381529060405261146760405180604001604052806013815260200172151a5b59599c985b59481bd9881a5b5c1858dd606a1b8152506040518060600160405280602581526020016132366025913988604001516001611c21565b6040516020016114779190612c83565b6040516020818303038152906040526114d16040518060400160405280600681526020016552696768747360d01b81525060405180606001604052806037815260200161339d603791396113086113038b60a00151611c2e565b6040516020016114e19190612cae565b60408051601f1981840301815290829052611503969594939291602001612ce0565b6040516020818303038152906040529050919050565b6060815160000361153857505060408051602081019091526000815290565b60006040518060600160405280604081526020016132fd60409139905060006003845160026115679190612d5f565b6115719190612d88565b61157c906004612d9c565b6001600160401b0381111561159357611593612135565b6040519080825280601f01601f1916602001820160405280156115bd576020820181803683370190505b509050600182016020820185865187015b80821015611629576003820191508151603f8160121c168501518453600184019350603f81600c1c168501518453600184019350603f8160061c168501518453600184019350603f81168501518453506001830192506115ce565b5050600386510660018114611645576002811461165857611660565b603d6001830353603d6002830353611660565b603d60018303535b509195945050505050565b600054610100900460ff166116d65760405162461bcd60e51b815260206004820152602b60248201527f496e697469616c697a61626c653a20636f6e7472616374206973206e6f74206960448201526a6e697469616c697a696e6760a81b60648201526084016103ce565b565b60fb54610140840151602085015160408087015160e08801519151634560ed3960e11b815260609561172e95620100009091046001600160a01b031694638ac1da72946111879492938a93918c91600401612dbb565b60405160200161173e9190612a7b565b60405160208183030381529060405290505b9392505050565b60608585611764866118d1565b61176d866118d1565b6117788615156119d9565b60405160200161178c959493929190612e14565b604051602081830303815290604052905095945050505050565b6117b0828261080a565b6103e1576117c8816001600160a01b03166014611d50565b6117d3836020611d50565b6040516020016117e4929190612f19565b60408051601f198184030181529082905262461bcd60e51b82526103ce916004016122ad565b6001600160a01b0381163b6118775760405162461bcd60e51b815260206004820152602d60248201527f455243313936373a206e657720696d706c656d656e746174696f6e206973206e60448201526c1bdd08184818dbdb9d1c9858dd609a1b60648201526084016103ce565b6000805160206132dd83398151915280546001600160a01b0319166001600160a01b0392909216919091179055565b6118af83611eeb565b6000825111806118bc5750805b1561035d576118cb8383611f2b565b50505050565b6060816000036118f85750506040805180820190915260018152600360fc1b602082015290565b8160005b8115611922578061190c8161298f565b915061191b9050600a83612d88565b91506118fc565b6000816001600160401b0381111561193c5761193c612135565b6040519080825280601f01601f191660200182016040528015611966576020820181803683370190505b5090505b84156119d15761197b600183612f8e565b9150611988600a86612fa1565b611993906030612d5f565b60f81b8183815181106119a8576119a8612945565b60200101906001600160f81b031916908160001a9053506119ca600a86612d88565b945061196a565b949350505050565b60608115611a015750506040805180820190915260048152637472756560e01b602082015290565b505060408051808201909152600581526466616c736560d81b602082015290565b6060848484611a328515156119d9565b6040516020016112239493929190612fb5565b8051606090801561112c576000816001600160401b03811115611a6a57611a6a612135565b604051908082528060200260200182016040528015611a9d57816020015b6060815260200190600190039081611a885790505b50905060005b8281101561112857336001600160a01b0316638f88b767868381518110611acc57611acc612945565b60200260200101516040518263ffffffff1660e01b8152600401611af291815260200190565b600060405180830381865afa158015611b0f573d6000803e3d6000fd5b505050506040513d6000823e601f3d908101601f19168201604052611b37919081019061295b565b828281518110611b4957611b49612945565b60200260200101819052508080611b5f9061298f565b915050611aa3565b80516060908160005b82811015611128576000858281518110611b8c57611b8c612945565b6020026020010151604051602001611ba49190613087565b60405160208183030381529060405290508251600003611bc657809250611beb565b8281604051602001611bd99291906130b5565b60405160208183030381529060405292505b5080611bf68161298f565b915050611b70565b6060848484611c0e8515156119d9565b60405160200161122394939291906130f1565b606084846112058561201f565b8051606090801561112c576000816001600160401b03811115611c5357611c53612135565b604051908082528060200260200182016040528015611c8657816020015b6060815260200190600190039081611c715790505b50905060005b8281101561112857336001600160a01b031663d52fd095868381518110611cb557611cb5612945565b60200260200101516040518263ffffffff1660e01b8152600401611cdb91815260200190565b600060405180830381865afa158015611cf8573d6000803e3d6000fd5b505050506040513d6000823e601f3d908101601f19168201604052611d20919081019061295b565b828281518110611d3257611d32612945565b60200260200101819052508080611d489061298f565b915050611c8c565b60606000611d5f836002612d9c565b611d6a906002612d5f565b6001600160401b03811115611d8157611d81612135565b6040519080825280601f01601f191660200182016040528015611dab576020820181803683370190505b509050600360fc1b81600081518110611dc657611dc6612945565b60200101906001600160f81b031916908160001a905350600f60fb1b81600181518110611df557611df5612945565b60200101906001600160f81b031916908160001a9053506000611e19846002612d9c565b611e24906001612d5f565b90505b6001811115611e9c576f181899199a1a9b1b9c1cb0b131b232b360811b85600f1660108110611e5857611e58612945565b1a60f81b828281518110611e6e57611e6e612945565b60200101906001600160f81b031916908160001a90535060049490941c93611e95816131a6565b9050611e27565b5083156117505760405162461bcd60e51b815260206004820181905260248201527f537472696e67733a20686578206c656e67746820696e73756666696369656e7460448201526064016103ce565b611ef48161180a565b6040516001600160a01b038216907fbc7cd75a20ee27fd9adebab32041f755214dbc6bffa90cc0225b39da2e5c2d3b90600090a250565b60606001600160a01b0383163b611f935760405162461bcd60e51b815260206004820152602660248201527f416464726573733a2064656c65676174652063616c6c20746f206e6f6e2d636f6044820152651b9d1c9858dd60d21b60648201526084016103ce565b600080846001600160a01b031684604051611fae91906131bd565b600060405180830381855af49150503d8060008114611fe9576040519150601f19603f3d011682016040523d82523d6000602084013e611fee565b606091505b5091509150612016828260405180606001604052806027815260200161337660279139612057565b95945050505050565b606061203b8260005b60200201516001600160401b03166118d1565b612046836001612028565b6040516020016115039291906131d9565b60608315612066575081611750565b8251156120765782518084602001fd5b8160405162461bcd60e51b81526004016103ce91906122ad565b6000602082840312156120a257600080fd5b81356001600160e01b03198116811461175057600080fd5b6000602082840312156120cc57600080fd5b5035919050565b6001600160a01b03811681146104c157600080fd5b600080604083850312156120fb57600080fd5b82359150602083013561210d816120d3565b809150509250929050565b60006020828403121561212a57600080fd5b8135611750816120d3565b634e487b7160e01b600052604160045260246000fd5b6040516101a081016001600160401b038111828210171561216e5761216e612135565b60405290565b604051601f8201601f191681016001600160401b038111828210171561219c5761219c612135565b604052919050565b60006001600160401b038211156121bd576121bd612135565b50601f01601f191660200190565b600080604083850312156121de57600080fd5b82356121e9816120d3565b915060208301356001600160401b0381111561220457600080fd5b8301601f8101851361221557600080fd5b8035612228612223826121a4565b612174565b81815286602083850101111561223d57600080fd5b816020840160208301376000602083830101528093505050509250929050565b60005b83811015612278578181015183820152602001612260565b50506000910152565b6000815180845261229981602086016020860161225d565b601f01601f19169290920160200192915050565b6020815260006117506020830184612281565b600080604083850312156122d357600080fd5b50508035926020909101359150565b6020808252602c908201527f46756e6374696f6e206d7573742062652063616c6c6564207468726f7567682060408201526b19195b1959d85d1958d85b1b60a21b606082015260800190565b6020808252602c908201527f46756e6374696f6e206d7573742062652063616c6c6564207468726f7567682060408201526b6163746976652070726f787960a01b606082015260800190565b634e487b7160e01b600052601160045260246000fd5b61ffff8181168382160190808211156123ab576123ab61237a565b5092915050565b600082601f8301126123c357600080fd5b604051604081016001600160401b0382821081831117156123e6576123e6612135565b604091825282918501868111156123fc57600080fd5b855b8181101561242557805183811681146124175760008081fd5b8452602093840193016123fe565b50929695505050505050565b60006001600160401b0382111561244a5761244a612135565b5060051b60200190565b600082601f83011261246557600080fd5b8151602061247561222383612431565b82815260059290921b8401810191818101908684111561249457600080fd5b8286015b848110156124af5780518352918301918301612498565b509695505050505050565b600082601f8301126124cb57600080fd5b815160206124db61222383612431565b82815260059290921b840181019181810190868411156124fa57600080fd5b8286015b848110156124af578051612511816120d3565b83529183019183016124fe565b805161ffff8116811461253057600080fd5b919050565b8051801515811461253057600080fd5b600082601f83011261255657600080fd5b8151612564612223826121a4565b81815284602083860101111561257957600080fd5b6119d182602083016020870161225d565b60006020828403121561259c57600080fd5b81516001600160401b03808211156125b357600080fd5b908301906101e082860312156125c857600080fd5b6125d061214b565b825181526125e186602085016123b2565b60208201526125f386606085016123b2565b604082015260a08301518281111561260a57600080fd5b61261687828601612454565b60608301525060c08301518281111561262e57600080fd5b61263a87828601612454565b60808301525060e08301518281111561265257600080fd5b61265e87828601612454565b60a083015250610100808401518381111561267857600080fd5b612684888287016124ba565b60c0840152506101208085015160e08401526101406126a481870161251e565b8385015261016092506126b8838701612535565b82850152610180915081860151858111156126d257600080fd5b6126de8a828901612545565b8286015250506101a0850151848111156126f757600080fd5b61270389828801612545565b83850152506101c085015191508382111561271d57600080fd5b61272988838701612545565b908301525095945050505050565b6000815161274981856020860161225d565b9290920192915050565b6c113a37ba30b62ab734ba39911d60991b8152815160009061277c81600d85016020870161225d565b600b60fa1b600d939091019283015250600e01919050565b683d913730b6b2911d1160b91b815286516000906127b9816009850160208c0161225d565b701116113232b9b1b934b83a34b7b7111d1160791b60099184019182015287516127ea81601a840160208c0161225d565b6a11161134b6b0b3b2911d1160a91b601a92909101918201528651612816816025840160208b0161225d565b7111161132bc3a32b93730b62fbab936111d1160711b602592909101918201528551612849816037840160208a0161225d565b6f222c2270726f70657274696573223a7b60801b60379290910191820152845161287a81604784016020890161225d565b61289a61288c60478385010187612737565b617d7d60f01b815260020190565b9a9950505050505050505050565b7f646174613a6170706c69636174696f6e2f6a736f6e3b6261736536342c0000008152600082516128e081601d85016020870161225d565b91909101601d0192915050565b6000602082840312156128ff57600080fd5b5051919050565b6a11333930b1ba34b7b7111d60a91b8152815160009061292d81600b85016020870161225d565b600b60fa1b600b939091019283015250600c01919050565b634e487b7160e01b600052603260045260246000fd5b60006020828403121561296d57600080fd5b81516001600160401b0381111561298357600080fd5b6119d184828501612545565b6000600182016129a1576129a161237a565b5060010190565b600081518084526020808501808196508360051b8101915082860160005b858110156129f05782840389526129de848351612281565b988501989350908401906001016129c6565b5091979650505050505050565b8060005b60028110156118cb5781516001600160401b0316845260209384019390910190600101612a01565b60e081526000612a3c60e0830188612281565b8281036020840152612a4e81886129a8565b915050612a5e60408301866129fd565b612a6b60808301856129fd565b8260c08301529695505050505050565b7f646174613a696d6167652f7376672b786d6c3b6261736536342c000000000000815260008251612ab381601a85016020870161225d565b91909101601a0192915050565b683d913730b6b2911d1160b91b81528451600090612ae5816009850160208a0161225d565b701116113232b9b1b934b83a34b7b7111d1160791b6009918401918201528551612b1681601a840160208a0161225d565b691116113b30b63ab2911d60b11b601a92909101918201528451612b4181602484016020890161225d565b70161134b9afb4b73a3934b739b4b1911d1160791b602492909101918201528351612b7381603584016020880161225d565b61227d60f01b603592909101918201526037019695505050505050565b6d11343cb832b921b2b93a24a2111d60911b81528151600090612bba81600e85016020870161225d565b600b60fa1b600e939091019283015250600f01919050565b6e1139b1b7b832b9a7b32bb7b935911d60891b81528151600090612bfd81600f85016020870161225d565b600b60fa1b600f939091019283015250601001919050565b701139b1b7b832b9a7b324b6b830b1ba111d60791b81528151600090612c4281601185016020870161225d565b600b60fa1b6011939091019283015250601201919050565b6c113a34b6b2a7b32bb7b935911d60991b8152815160009061277c81600d85016020870161225d565b6e113a34b6b2a7b324b6b830b1ba111d60891b81528151600090612bfd81600f85016020870161225d565b68113934b3b43a39911d60b91b81528151600090612cd381600985016020870161225d565b9190910160090192915050565b600087516020612cf38285838d0161225d565b885191840191612d068184848d0161225d565b8851920191612d188184848c0161225d565b8751920191612d2a8184848b0161225d565b8651920191612d3c8184848a0161225d565b8551920191612d4e818484890161225d565b919091019998505050505050505050565b808201808211156103325761033261237a565b634e487b7160e01b600052601260045260246000fd5b600082612d9757612d97612d72565b500490565b6000816000190483118215151615612db657612db661237a565b500290565b6000610100808352612dcf8184018a612281565b90508281036020840152612de381896129a8565b915050612df360408301876129fd565b612e0060808301866129fd565b60c082019390935260e00152949350505050565b683d913730b6b2911d1160b91b81528551600090612e39816009850160208b0161225d565b701116113232b9b1b934b83a34b7b7111d1160791b6009918401918201528651612e6a81601a840160208b0161225d565b691116113b30b63ab2911d60b11b601a92909101918201528551612e95816024840160208a0161225d565b6c161136b0bc2fbb30b63ab2911d60991b602492909101918201528451612ec381603184016020890161225d565b70161134b9afb4b73a3934b739b4b1911d1160791b603192909101918201528351612ef581604284016020880161225d565b612f0c60428284010161227d60f01b815260020190565b9998505050505050505050565b7f416363657373436f6e74726f6c3a206163636f756e7420000000000000000000815260008351612f5181601785016020880161225d565b7001034b99036b4b9b9b4b733903937b6329607d1b6017918401918201528351612f8281602884016020880161225d565b01602801949350505050565b818103818111156103325761033261237a565b600082612fb057612fb0612d72565b500690565b683d913730b6b2911d1160b91b81528451600090612fda816009850160208a0161225d565b701116113232b9b1b934b83a34b7b7111d1160791b600991840191820152855161300b81601a840160208a0161225d565b6a1116113b30b63ab2911d1160a91b601a9290910191820152845161303781602584016020890161225d565b7111161134b9afb4b73a3934b739b4b1911d1160711b60259290910191820152835161306a81603784016020880161225d565b61227d60f01b603792909101918201526039019695505050505050565b6000601160f91b80835283516130a481600186016020880161225d565b600193019283015250600201919050565b600083516130c781846020880161225d565b600b60fa1b90830190815283516130e581600184016020880161225d565b01600101949350505050565b683d913730b6b2911d1160b91b81528451600090613116816009850160208a0161225d565b701116113232b9b1b934b83a34b7b7111d1160791b600991840191820152855161314781601a840160208a0161225d565b6a222c2276616c7565223a5b60a81b601a9290910191820152845161317381602584016020890161225d565b712e961134b9afb4b73a3934b739b4b1911d1160711b60259290910191820152835161306a81603784016020880161225d565b6000816131b5576131b561237a565b506000190190565b600082516131cf81846020870161225d565b9190910192915050565b612d9160f11b815282516000906131f781600285016020880161225d565b6211161160e91b600291840191820152835161321a81600584016020880161225d565b61225d60f01b6005929091019182015260070194935050505056fe54696d656672616d6520696e20776869636820696d70616374206973207265616c697a6564556e69717565206964656e746966696572206f662048797065724365727420696e20636f6e74726163742e53636f706573206f6620776f726b20656e63617073756c6174656420696e207468697320687970657263657274206672616374696f6e2e189ab7a9244df0848122154315af71fe140f3db0fe014031783b0946b8c9d2e3360894a13ba1a3210667c828492db98dca3e2076cc3735a920a3ca505d382bbc4142434445464748494a4b4c4d4e4f505152535455565758595a6162636465666768696a6b6c6d6e6f707172737475767778797a303132333435363738392b2f53636f706573206f6620696d7061637420656e63617073756c6174656420696e207468697320687970657263657274206672616374696f6e2e416464726573733a206c6f772d6c6576656c2064656c65676174652063616c6c206661696c6564526967687473206173736f6369617465642077697468206f776e696e67207468652068797065726365727420286672616374696f6e732954696d656672616d6520696e20776869636820776f726b20746f206163686965766520696d7061637420686173206265656e20706572666f726d6564a164736f6c6343000810000a",
  "devdoc": {
    "details": "Hypercertificate metadata creation logic",
    "kind": "dev",
    "methods": {
      "constructor": {
        "custom:oz-upgrades-unsafe-allow": "constructor"
      },
      "getRoleAdmin(bytes32)": {
        "details": "Returns the admin role that controls `role`. See {grantRole} and {revokeRole}. To change a role's admin, use {_setRoleAdmin}."
      },
      "grantRole(bytes32,address)": {
        "details": "Grants `role` to `account`. If `account` had not been already granted `role`, emits a {RoleGranted} event. Requirements: - the caller must have ``role``'s admin role. May emit a {RoleGranted} event."
      },
      "hasRole(bytes32,address)": {
        "details": "Returns `true` if `account` has been granted `role`."
      },
      "proxiableUUID()": {
        "details": "Implementation of the ERC1822 {proxiableUUID} function. This returns the storage slot used by the implementation. It is used to validate that the this implementation remains valid after an upgrade. IMPORTANT: A proxy pointing at a proxiable contract should not be considered proxiable itself, because this risks bricking a proxy that upgrades to it, by delegating to itself until out of gas. Thus it is critical that this function revert if invoked through a proxy. This is guaranteed by the `notDelegated` modifier."
      },
      "renounceRole(bytes32,address)": {
        "details": "Revokes `role` from the calling account. Roles are often managed via {grantRole} and {revokeRole}: this function's purpose is to provide a mechanism for accounts to lose their privileges if they are compromised (such as when a trusted device is misplaced). If the calling account had been revoked `role`, emits a {RoleRevoked} event. Requirements: - the caller must be `account`. May emit a {RoleRevoked} event."
      },
      "revokeRole(bytes32,address)": {
        "details": "Revokes `role` from `account`. If `account` had been granted `role`, emits a {RoleRevoked} event. Requirements: - the caller must have ``role``'s admin role. May emit a {RoleRevoked} event."
      },
      "supportsInterface(bytes4)": {
        "params": {
          "interfaceId": "Id of the interface"
        },
        "returns": {
          "_0": "true, if the interface is supported"
        }
      },
      "upgradeTo(address)": {
        "details": "Upgrade the implementation of the proxy to `newImplementation`. Calls {_authorizeUpgrade}. Emits an {Upgraded} event."
      },
      "upgradeToAndCall(address,bytes)": {
        "details": "Upgrade the implementation of the proxy to `newImplementation`, and subsequently execute the function call encoded in `data`. Calls {_authorizeUpgrade}. Emits an {Upgraded} event."
      }
    },
    "version": 1
  },
  "userdoc": {
    "kind": "user",
    "methods": {
      "UPGRADER_ROLE()": {
        "notice": "User role required in order to upgrade the contract"
      },
      "constructor": {
        "notice": "Contract constructor logic"
      },
      "initialize(address)": {
        "notice": "Contract initialization logic"
      },
      "supportsInterface(bytes4)": {
        "notice": "Returns a flag indicating if the contract supports the specified interface"
      },
      "updateVersion()": {
        "notice": "Update the contract version numberOnly allowed for member of UPGRADER_ROLE"
      },
      "version()": {
        "notice": "gets the current version of the contract"
      }
    },
    "version": 1
  },
  "storageLayout": {
    "storage": [
      {
        "astId": 814,
        "contract": "contracts/HyperCertMetadata.sol:HyperCertMetadata",
        "label": "_initialized",
        "offset": 0,
        "slot": "0",
        "type": "t_uint8"
      },
      {
        "astId": 817,
        "contract": "contracts/HyperCertMetadata.sol:HyperCertMetadata",
        "label": "_initializing",
        "offset": 1,
        "slot": "0",
        "type": "t_bool"
      },
      {
        "astId": 1617,
        "contract": "contracts/HyperCertMetadata.sol:HyperCertMetadata",
        "label": "__gap",
        "offset": 0,
        "slot": "1",
        "type": "t_array(t_uint256)50_storage"
      },
      {
        "astId": 1947,
        "contract": "contracts/HyperCertMetadata.sol:HyperCertMetadata",
        "label": "__gap",
        "offset": 0,
        "slot": "51",
        "type": "t_array(t_uint256)50_storage"
      },
      {
        "astId": 39,
        "contract": "contracts/HyperCertMetadata.sol:HyperCertMetadata",
        "label": "_roles",
        "offset": 0,
        "slot": "101",
        "type": "t_mapping(t_bytes32,t_struct(RoleData)34_storage)"
      },
      {
        "astId": 338,
        "contract": "contracts/HyperCertMetadata.sol:HyperCertMetadata",
        "label": "__gap",
        "offset": 0,
        "slot": "102",
        "type": "t_array(t_uint256)49_storage"
      },
      {
        "astId": 796,
        "contract": "contracts/HyperCertMetadata.sol:HyperCertMetadata",
        "label": "__gap",
        "offset": 0,
        "slot": "151",
        "type": "t_array(t_uint256)50_storage"
      },
      {
        "astId": 1093,
        "contract": "contracts/HyperCertMetadata.sol:HyperCertMetadata",
        "label": "__gap",
        "offset": 0,
        "slot": "201",
        "type": "t_array(t_uint256)50_storage"
      },
      {
        "astId": 4800,
        "contract": "contracts/HyperCertMetadata.sol:HyperCertMetadata",
        "label": "_version",
        "offset": 0,
        "slot": "251",
        "type": "t_uint16"
      },
      {
        "astId": 4803,
        "contract": "contracts/HyperCertMetadata.sol:HyperCertMetadata",
        "label": "_svgGenerator",
        "offset": 2,
        "slot": "251",
        "type": "t_contract(IHyperCertSVG)4763"
      }
    ],
    "types": {
      "t_address": {
        "encoding": "inplace",
        "label": "address",
        "numberOfBytes": "20"
      },
      "t_array(t_uint256)49_storage": {
        "base": "t_uint256",
        "encoding": "inplace",
        "label": "uint256[49]",
        "numberOfBytes": "1568"
      },
      "t_array(t_uint256)50_storage": {
        "base": "t_uint256",
        "encoding": "inplace",
        "label": "uint256[50]",
        "numberOfBytes": "1600"
      },
      "t_bool": {
        "encoding": "inplace",
        "label": "bool",
        "numberOfBytes": "1"
      },
      "t_bytes32": {
        "encoding": "inplace",
        "label": "bytes32",
        "numberOfBytes": "32"
      },
      "t_contract(IHyperCertSVG)4763": {
        "encoding": "inplace",
        "label": "contract IHyperCertSVG",
        "numberOfBytes": "20"
      },
      "t_mapping(t_address,t_bool)": {
        "encoding": "mapping",
        "key": "t_address",
        "label": "mapping(address => bool)",
        "numberOfBytes": "32",
        "value": "t_bool"
      },
      "t_mapping(t_bytes32,t_struct(RoleData)34_storage)": {
        "encoding": "mapping",
        "key": "t_bytes32",
        "label": "mapping(bytes32 => struct AccessControlUpgradeable.RoleData)",
        "numberOfBytes": "32",
        "value": "t_struct(RoleData)34_storage"
      },
      "t_struct(RoleData)34_storage": {
        "encoding": "inplace",
        "label": "struct AccessControlUpgradeable.RoleData",
        "members": [
          {
            "astId": 31,
            "contract": "contracts/HyperCertMetadata.sol:HyperCertMetadata",
            "label": "members",
            "offset": 0,
            "slot": "0",
            "type": "t_mapping(t_address,t_bool)"
          },
          {
            "astId": 33,
            "contract": "contracts/HyperCertMetadata.sol:HyperCertMetadata",
            "label": "adminRole",
            "offset": 0,
            "slot": "1",
            "type": "t_bytes32"
          }
        ],
        "numberOfBytes": "64"
      },
      "t_uint16": {
        "encoding": "inplace",
        "label": "uint16",
        "numberOfBytes": "2"
      },
      "t_uint256": {
        "encoding": "inplace",
        "label": "uint256",
        "numberOfBytes": "32"
      },
      "t_uint8": {
        "encoding": "inplace",
        "label": "uint8",
        "numberOfBytes": "1"
      }
    }
  }
}