{
  "address": "0x4F89B1e751343575c311c1b0D17d474BFeA4A868",
  "abi": [
    {
      "inputs": [],
      "stateMutability": "nonpayable",
      "type": "constructor"
    },
    {
      "anonymous": false,
      "inputs": [
        {
          "indexed": false,
          "internalType": "uint256",
          "name": "id",
          "type": "uint256"
        }
      ],
      "name": "BackgroundAdded",
      "type": "event"
    },
    {
      "inputs": [
        {
          "internalType": "string",
          "name": "svgString",
          "type": "string"
        }
      ],
      "name": "addBackground",
      "outputs": [
        {
          "internalType": "uint256",
          "name": "id",
          "type": "uint256"
        }
      ],
      "stateMutability": "nonpayable",
      "type": "function"
    },
    {
      "inputs": [
        {
          "internalType": "string",
          "name": "name",
          "type": "string"
        },
        {
          "internalType": "string[]",
          "name": "scopesOfImpact",
          "type": "string[]"
        },
        {
          "internalType": "uint64[2]",
          "name": "workTimeframe",
          "type": "uint64[2]"
        },
        {
          "internalType": "uint64[2]",
          "name": "impactTimeframe",
          "type": "uint64[2]"
        },
        {
          "internalType": "uint256",
          "name": "units",
          "type": "uint256"
        },
        {
          "internalType": "uint256",
          "name": "totalUnits",
          "type": "uint256"
        }
      ],
      "name": "generateSvgFraction",
      "outputs": [
        {
          "internalType": "string",
          "name": "",
          "type": "string"
        }
      ],
      "stateMutability": "view",
      "type": "function"
    },
    {
      "inputs": [
        {
          "internalType": "string",
          "name": "name",
          "type": "string"
        },
        {
          "internalType": "string[]",
          "name": "scopesOfImpact",
          "type": "string[]"
        },
        {
          "internalType": "uint64[2]",
          "name": "workTimeframe",
          "type": "uint64[2]"
        },
        {
          "internalType": "uint64[2]",
          "name": "impactTimeframe",
          "type": "uint64[2]"
        },
        {
          "internalType": "uint256",
          "name": "totalUnits",
          "type": "uint256"
        }
      ],
      "name": "generateSvgHyperCert",
      "outputs": [
        {
          "internalType": "string",
          "name": "",
          "type": "string"
        }
      ],
      "stateMutability": "view",
      "type": "function"
    },
    {
      "inputs": [
        {
          "internalType": "uint256",
          "name": "part",
          "type": "uint256"
        },
        {
          "internalType": "uint256",
          "name": "whole",
          "type": "uint256"
        }
      ],
      "name": "getPercent",
      "outputs": [
        {
          "internalType": "uint256",
          "name": "percent",
          "type": "uint256"
        }
      ],
      "stateMutability": "pure",
      "type": "function"
    }
  ],
  "transactionHash": "0xa7994cb75fba97f9bb4bccf39980ba70e66baa44ae376deb7adac73898658037",
  "args": [],
  "numDeployments": 1,
  "solcInputHash": "3bd6be4b69d2df248088917031093718",
  "bytecode": "0x6080604052600060015534801561001557600080fd5b50612af3806100256000396000f3fe608060405234801561001057600080fd5b506004361061004c5760003560e01c80635e70664c1461005157806362219866146100775780638ac1da721461008a57806394a2eeb8146100aa575b600080fd5b61006461005f366004611757565b6100bd565b6040519081526020015b60405180910390f35b61006461008536600461178c565b610129565b61009d6100983660046118c1565b610176565b60405161006e91906119ab565b61009d6100b83660046119c5565b6101bb565b60015460008181526020819052604090206100d88382611add565b506040518181527fabb811cda210349363acfb5609934d3717818d26783decefcd058c05030652f09060200160405180910390a1600180600082825461011e9190611bb3565b909155509092915050565b60008061013984620186a0611bc6565b905083811161014757600080fd5b60006101538483611bfb565b61015e906005611bb3565b905061016b600a82611bfb565b925050505b92915050565b6060610180611640565b8781526020810187905260408101869052606081018590526080810184905260a081018390526101af816101f8565b98975050505050505050565b60606101c5611640565b86815260208101869052604081018590526060810184905260a081018390526101ed81610263565b979650505050505050565b60606102026102ae565b61020a610369565b61021384610424565b61021c8561061f565b61022586610ada565b61022e87610c1c565b61023788610d09565b60405160200161024d9796959493929190611c2b565b6040516020818303038152906040529050919050565b606061026d6102ae565b610275610369565b61027e84610424565b6102878561061f565b61029086610ada565b61029987610d09565b60405160200161024d96959493929190611d7a565b6060604051602001610355907f3c726563742069643d226261636b67726f756e642d636f6c6f722d322220646181527f74612d6e616d653d226261636b67726f756e642d636f6c6f722220783d222e3560208201527f2220793d2230222077696474683d2235353022206865696768743d223835302260408201527f2072783d223332222072793d223332222f3e0000000000000000000000000000606082015260720190565b604051602081830303815290604052905090565b60008080526020527fad3228b676f7d3cd4284a5443f17f1962b36e491b30a40b2405849e597ba5fb58054606091906103a190611a54565b80601f01602080910402602001604051908101604052809291908181526020018280546103cd90611a54565b801561041a5780601f106103ef5761010080835404028352916020019161041a565b820191906000526020600020905b8154815290600101906020018083116103fd57829003601f168201915b5050505050905090565b60606000806000610459856040015160006002811061044557610445611eb4565b602002015167ffffffffffffffff16610ddc565b925092509250600080600061047e886040015160016002811061044557610445611eb4565b92509250925060405160200161054f907f3c706174682069643d22666f726567726f756e642d636f6c6f722d322220646181527f74612d6e616d653d22666f726567726f756e642d636f6c6f722220643d224d3460208201527f33352c3737372e383348313135762d3530483433357635305a6d302d3533322e60408201527f3833483131357633363048343335563234355a6d302d3132322e38334831313560608201527f762d3530483433357635305a222f3e00000000000000000000000000000000006080820152608f0190565b60405160208183030381529060405261056787610dfb565b61057087610dfb565b61057987610dfb565b60405160200161058b93929190611eca565b6040516020818303038152906040526105a385610dfb565b6105ac85610dfb565b6105b585610dfb565b6040516020016105c793929190611eca565b60408051601f19818403018152908290526105e59291602001611f24565b60408051601f19818403018152908290526106039291602001612191565b6040516020818303038152906040529650505050505050919050565b60606000826000015160405160200161063891906121c0565b60408051601f19818403018152828252855183830183526000808552602094850181905283518085019094528151845290840193830193909352925061067d90610f1c565b9050600d811115610a94578351604080518082018252600080825260209182018190528251808401845284518152938201848301528251808401845260018152600160fd1b8184019081528451808601865283815284018390528451808601865291518252818401528351600680825260e082019095529093919283928392839290919082015b60408051808201909152600080825260208201528152602001906001900390816107045750506040805160038082526080820190925291925060009190602082015b60608152602001906001900390816107465790505090505b60038510156109bd5760006107738888610ff5565b905061077e81511590565b15610818578783868151811061079657610796611eb4565b60200260200101819052506107f5836107ef604051806040016040528060018152602001600160fd1b81525060408051808201825260008082526020918201528151808301909252825182529182019181019190915290565b9061101b565b82878151811061080757610807611eb4565b6020026020010181905250506109bd565b600a61082382610f1c565b61082d9086611bb3565b1115610976578560020361089557604080518082018252600381526217171760e91b6020808301918252835180850185526000808252908201528351808501909452915183529082015283868151811061088957610889611eb4565b60200260200101819052505b60408051808201825260018152600160fd1b602080830191825283518085018552600080825290820152835180850190945291518352908201526108da9084906107ef565b8287815181106108ec576108ec611eb4565b6020908102919091010152610902600187611bb3565b60408051600680825260e08201909252919750816020015b604080518082019091526000808252602082015281526020019060019003908161091a579050509250808360008151811061095757610957611eb4565b602002602001018190525061096b81610f1c565b9350600194506109b7565b61097f81610f1c565b6109899085611bb3565b93508083868151811061099e5761099e611eb4565b60209081029190910101526109b4600186611bb3565b94505b5061075e565b806000815181106109d0576109d0611eb4565b60200260200101516040516020016109e891906121c0565b60405160208183030381529060405281600181518110610a0a57610a0a611eb4565b6020026020010151604051602001610a229190612217565b60405160208183030381529060405282600281518110610a4457610a44611eb4565b6020026020010151604051602001610a5c919061226e565b60408051601f1981840301815290829052610a7b9392916020016122a6565b6040516020818303038152906040529850505050505050505b81604051602001610aa591906122e9565b60408051601f1981840301815290829052610ac2916020016123c7565b60405160208183030381529060405292505050919050565b606060008260200151600081518110610af557610af5611eb4565b6020026020010151604051602001610b0d91906121c0565b60408051601f198184030181529190526020840151519091506001811115610c0b578360200151600081518110610b4657610b46611eb4565b6020026020010151604051602001610b5e919061244a565b6040516020818303038152906040528460200151600181518110610b8457610b84611eb4565b6020026020010151604051602001610b9c91906121c0565b6040516020818303038152906040528560200151600281518110610bc257610bc2611eb4565b6020026020010151604051602001610bda91906124a1565b60408051601f1981840301815290829052610bf99392916020016122a6565b60405160208183030381529060405291505b81604051602001610ac291906124d9565b6060610c616040518060400160405280600781526020017f556e6974733a200000000000000000000000000000000000000000000000000081525083608001516111bf565b610ca46040518060400160405280600c81526020017f746f74616c556e6974733a2000000000000000000000000000000000000000008152508360a001516111bf565b6000610cb883608001518460a00151610129565b9050610cc581600261121d565b604051602001610cd59190612603565b60408051601f1981840301815290829052610cf291602001612629565b604051602081830303815290604052915050919050565b60606000806000610d2a856060015160006002811061044557610445611eb4565b9250925092506000806000610d4f886060015160016002811061044557610445611eb4565b925092509250610d5e86610dfb565b610d6786610dfb565b610d7086610dfb565b604051602001610d8293929190611eca565b604051602081830303815290604052610d9a84610dfb565b610da384610dfb565b610dac84610dfb565b604051602001610dbe93929190611eca565b60408051601f19818403018152908290526106039291602001612779565b60008080610dee620151808504611349565b9196909550909350915050565b606081600003610e225750506040805180820190915260018152600360fc1b602082015290565b8160005b8115610e4c5780610e368161291c565b9150610e459050600a83611bfb565b9150610e26565b60008167ffffffffffffffff811115610e6757610e676116a0565b6040519080825280601f01601f191660200182016040528015610e91576020820181803683370190505b5090505b8415610f1457610ea6600183612935565b9150610eb3600a86612948565b610ebe906030611bb3565b60f81b818381518110610ed357610ed3611eb4565b60200101907effffffffffffffffffffffffffffffffffffffffffffffffffffffffffffff1916908160001a905350610f0d600a86611bfb565b9450610e95565b949350505050565b600080601f8360200151610f309190612935565b8351909150600090610f429083611bb3565b9050600092505b80821015610fee57815160ff166080811015610f7157610f6a600184611bb3565b9250610fdb565b60e08160ff161015610f8857610f6a600284611bb3565b60f08160ff161015610f9f57610f6a600384611bb3565b60f88160ff161015610fb657610f6a600484611bb3565b60fc8160ff161015610fcd57610f6a600584611bb3565b610fd8600684611bb3565b92505b5082610fe68161291c565b935050610f49565b5050919050565b60408051808201909152600080825260208201526110148383836113e5565b5092915050565b6060815160000361103b5750604080516020810190915260008152610170565b60006001835161104b9190612935565b84516110579190611bc6565b905060005b83518110156110a25783818151811061107757611077611eb4565b6020026020010151600001518261108e9190611bb3565b91508061109a8161291c565b91505061105c565b5060008167ffffffffffffffff8111156110be576110be6116a0565b6040519080825280601f01601f1916602001820160405280156110e8576020820181803683370190505b5090506020810160005b85518110156111b4576111408287838151811061111157611111611eb4565b60200260200101516020015188848151811061112f5761112f611eb4565b602002602001015160000151611490565b85818151811061115257611152611eb4565b602002602001015160000151826111699190611bb3565b9150600186516111799190612935565b8110156111a2576111938288602001518960000151611490565b865161119f9083611bb3565b91505b806111ac8161291c565b9150506110f2565b509095945050505050565b61121982826040516024016111d592919061295c565b60408051601f198184030181529190526020810180517bffffffffffffffffffffffffffffffffffffffffffffffffffffffff16632d839cb360e21b17905261150a565b5050565b606061125e6040518060400160405280600681526020017f53656c663a200000000000000000000000000000000000000000000000000000815250846111bf565b600061126b83600a612a62565b9050600061128161127c8387611bfb565b610dfb565b9050600061129261127c8488612948565b90506000815190506000836040516020016112ad9190612a71565b60405160208183030381529060405290508660ff1682101561131a5760005b6112d98360ff8a16612935565b8160ff16101561131857816040516020016112f49190612a96565b6040516020818303038152906040529150808061131090612abb565b9150506112cc565b505b808360405160200161132d929190612191565b6040516020818303038152906040529550505050505092915050565b60008080836226496581018262023ab1600483020590506004600362023ab18302010590910390600062164b09610fa0600185010205905060046105b58202058303601f019250600061098f84605002816113a6576113a6611be5565b0590506000605061098f83020585039050600b820560301994909401606402929092018301996002600c90940290910392909201975095509350505050565b60408051808201909152600080825260208201526000611417856000015186602001518660000151876020015161152b565b6020808701805191860191909152519091506114339082612935565b8352845160208601516114469190611bb3565b81036114555760008552611487565b835183516114639190611bb3565b85518690611472908390612935565b90525083516114819082611bb3565b60208601525b50909392505050565b602081106114c857815183526114a7602084611bb3565b92506114b4602083611bb3565b91506114c1602082612935565b9050611490565b60001981156114f75760016114de836020612935565b6114ea90610100612ada565b6114f49190612935565b90505b9151835183169219169190911790915250565b80516a636f6e736f6c652e6c6f67602083016000808483855afa5050505050565b6000838186851161163657602085116115e55760008515611577576001611553876020612935565b61155e906008611bc6565b611569906002612ada565b6115739190612935565b1990505b845181166000876115888b8b611bb3565b6115929190612935565b855190915083165b8281146115d7578186106115bf576115b28b8b611bb3565b9650505050505050610f14565b856115c98161291c565b96505083865116905061159a565b859650505050505050610f14565b508383206000905b6115f78689612935565b8211611634578583208082036116135783945050505050610f14565b61161e600185611bb3565b935050818061162c9061291c565b9250506115ed565b505b6101ed8787611bb3565b6040518060c001604052806060815260200160608152602001611661611682565b815260200161166e611682565b815260200160008152602001600081525090565b60405180604001604052806002906020820280368337509192915050565b634e487b7160e01b600052604160045260246000fd5b604051601f8201601f1916810167ffffffffffffffff811182821017156116df576116df6116a0565b604052919050565b600082601f8301126116f857600080fd5b813567ffffffffffffffff811115611712576117126116a0565b611725601f8201601f19166020016116b6565b81815284602083860101111561173a57600080fd5b816020850160208301376000918101602001919091529392505050565b60006020828403121561176957600080fd5b813567ffffffffffffffff81111561178057600080fd5b610f14848285016116e7565b6000806040838503121561179f57600080fd5b50508035926020909101359150565b600082601f8301126117bf57600080fd5b8135602067ffffffffffffffff808311156117dc576117dc6116a0565b8260051b6117eb8382016116b6565b938452858101830193838101908886111561180557600080fd5b84880192505b858310156101af578235848111156118235760008081fd5b6118318a87838c01016116e7565b835250918401919084019061180b565b600082601f83011261185257600080fd5b6040516040810167ffffffffffffffff8282108183111715611876576118766116a0565b6040918252829185018681111561188c57600080fd5b855b818110156118b557803583811681146118a75760008081fd5b84526020938401930161188e565b50929695505050505050565b60008060008060008061010087890312156118db57600080fd5b863567ffffffffffffffff808211156118f357600080fd5b6118ff8a838b016116e7565b9750602089013591508082111561191557600080fd5b5061192289828a016117ae565b9550506119328860408901611841565b93506119418860808901611841565b925060c0870135915060e087013590509295509295509295565b60005b8381101561197657818101518382015260200161195e565b50506000910152565b6000815180845261199781602086016020860161195b565b601f01601f19169290920160200192915050565b6020815260006119be602083018461197f565b9392505050565b600080600080600060e086880312156119dd57600080fd5b853567ffffffffffffffff808211156119f557600080fd5b611a0189838a016116e7565b96506020880135915080821115611a1757600080fd5b50611a24888289016117ae565b945050611a348760408801611841565b9250611a438760808801611841565b9497939650919460c0013592915050565b600181811c90821680611a6857607f821691505b602082108103611a8857634e487b7160e01b600052602260045260246000fd5b50919050565b601f821115611ad857600081815260208120601f850160051c81016020861015611ab55750805b601f850160051c820191505b81811015611ad457828155600101611ac1565b5050505b505050565b815167ffffffffffffffff811115611af757611af76116a0565b611b0b81611b058454611a54565b84611a8e565b602080601f831160018114611b405760008415611b285750858301515b600019600386901b1c1916600185901b178555611ad4565b600085815260208120601f198616915b82811015611b6f57888601518255948401946001909101908401611b50565b5085821015611b8d5787850151600019600388901b60f8161c191681555b5050505050600190811b01905550565b634e487b7160e01b600052601160045260246000fd5b8082018082111561017057610170611b9d565b6000816000190483118215151615611be057611be0611b9d565b500290565b634e487b7160e01b600052601260045260246000fd5b600082611c0a57611c0a611be5565b500490565b60008151611c2181856020860161195b565b9290920192915050565b7f3c7376672077696474683d2235353022206865696768743d223835302220766981527f6577426f783d2230203020353530203835302220786d6c6e733d22687474703a60208201527f2f2f7777772e77332e6f72672f323030302f7376672220786d6c6e733a786c6960408201527f6e6b3d22687474703a2f2f7777772e77332e6f72672f313939392f786c696e6b606082015261111f60f11b608082015260006082820189516020611ce28284838f0161195b565b8a519190920191611cf68284838e0161195b565b89519190920191611d0a8284838d0161195b565b88519190920191611d1e8284838c0161195b565b87519190920191611d328284838b0161195b565b86519190920191611d468284838a0161195b565b85519190920191611d5a828483890161195b565b50651e17b9bb339f60d11b91019081526006019998505050505050505050565b7f3c7376672077696474683d2235353022206865696768743d223835302220766981527f6577426f783d2230203020353530203835302220786d6c6e733d22687474703a60208201527f2f2f7777772e77332e6f72672f323030302f7376672220786d6c6e733a786c6960408201527f6e6b3d22687474703a2f2f7777772e77332e6f72672f313939392f786c696e6b606082015261111f60f11b608082015260006082820188516020611e318284838e0161195b565b89519190920191611e458284838d0161195b565b88519190920191611e598284838c0161195b565b87519190920191611e6d8284838b0161195b565b86519190920191611e818284838a0161195b565b85519190920191611e95828483890161195b565b50651e17b9bb339f60d11b910190815260060198975050505050505050565b634e487b7160e01b600052603260045260246000fd5b60008451611edc81846020890161195b565b8083019050602d60f81b8082528551611efc816001850160208a0161195b565b60019201918201528351611f1781600284016020880161195b565b0160020195945050505050565b7f3c672069643d22646976696465722d636f6c6f722220746578742d72656e646581527f72696e673d226f7074696d697a6553706565642220666f6e742d73697a653d2260208201527f3130222066696c6c3d2223666663653433223e0000000000000000000000000060408201527f3c706174682069643d22646976696465722d636f6c6f722d322220646174612d60538201527f6e616d653d22646976696465722d636f6c6f722220643d224d3135362e33352c60738201527f3531342e3539683233372e333122207374796c653d2266696c6c3a206e6f6e6560938201527f3b207374726f6b653a20236666636534333b207374726f6b652d6d697465726c60b38201527f696d69743a2031303b207374726f6b652d77696474683a203270783b222f3e0060d38201527f3c746578742069643d22776f726b2d706572696f642d636f6c6f72222074726160f28201527f6e73666f726d3d227472616e736c617465283133342e3735203130322e3036296101128201527f22207374796c653d22666f6e742d66616d696c793a2048656c7665746963613b6101328201527f20666f6e742d73697a653a20313570783b223e000000000000000000000000006101528201527f3c747370616e20783d22302220793d223022207374796c653d226c65747465726101658201527f2d73706163696e673a202d2e3035656d3b223e576f726b20506572696f643a206101858201526000610f146121686121626121536101a5860188611c0f565b620101f160ed1b815260030190565b85611c0f565b7f3c2f747370616e3e3c2f746578743e3c2f673e00000000000000000000000000815260130190565b600083516121a381846020880161195b565b8351908301906121b781836020880161195b565b01949350505050565b7f3c747370616e20783d22302220793d2230223e000000000000000000000000008152600082516121f881601385016020870161195b565b671e17ba39b830b71f60c11b6013939091019283015250601b01919050565b7f3c747370616e20783d22302220793d223336223e00000000000000000000000081526000825161224f81601485016020870161195b565b671e17ba39b830b71f60c11b6014939091019283015250601c01919050565b7f3c747370616e20783d22302220793d223732223e00000000000000000000000081526000825161224f81601485016020870161195b565b600084516122b881846020890161195b565b8451908301906122cc81836020890161195b565b84519101906122df81836020880161195b565b0195945050505050565b7f3c746578742069643d226e616d652d636f6c6f722d3222207472616e73666f7281527f6d3d227472616e736c617465283135362e3335203330302922207374796c653d60208201527f2266696c6c3a20236666636534333b20666f6e742d66616d696c793a204d6f6e60408201527f61636f3b223e000000000000000000000000000000000000000000000000000060608201526000825161239381606685016020870161195b565b7f3c2f746578743e000000000000000000000000000000000000000000000000006066939091019283015250606d01919050565b7f3c672069643d226e616d652d636f6c6f722220746578742d72656e646572696e81527f673d226f7074696d697a6553706565642220666f6e742d73697a653d223330226020820152601f60f91b60408201526000825161242f81604185016020870161195b565b631e17b39f60e11b6041939091019283015250604501919050565b7f3c747370616e20783d22302220793d222d3230223e000000000000000000000081526000825161248281601585016020870161195b565b671e17ba39b830b71f60c11b6015939091019283015250601d01919050565b7f3c747370616e20783d22302220793d223230223e00000000000000000000000081526000825161224f81601485016020870161195b565b7f3c672069643d226465736372697074696f6e2d636f6c6f722220746578742d7281527f656e646572696e673d226f7074696d697a6553706565642220666f6e742d736960208201527f7a653d223135222066696c6c3d227768697465223e000000000000000000000060408201527f3c74657874207472616e73666f726d3d227472616e736c61746528313535203460558201527f38302922207374796c653d22666f6e742d66616d696c793a2048656c7665746960758201527f63613b20666f6e742d73697a653a20313570783b223e000000000000000000006095820152600082516125cf8160ab85016020870161195b565b7f3c2f746578743e3c2f673e00000000000000000000000000000000000000000060ab93909101928301525060b601919050565b6000825161261581846020870161195b565b61202560f01b920191825250600201919050565b7f3c672069643d226672616374696f6e2d636f6c6f722220746578742d72656e6481527f6572696e673d226f7074696d697a6553706565642220666f6e742d73697a653d60208201527f223330223e00000000000000000000000000000000000000000000000000000060408201527f3c746578742069643d226672616374696f6e2d636f6c6f722d3222207472616e60458201527f73666f726d3d227472616e736c617465283135362e3335203536382e3033292260658201527f207374796c653d2266696c6c3a20236666636534333b20666f6e742d66616d6960858201527f6c793a204d6f6e61636f223e3c747370616e20783d22302220793d2230223e0060a5820152600082516127458160c485016020870161195b565b7f3c2f747370616e3e3c2f746578743e3c2f673e0000000000000000000000000060c493909101928301525060d701919050565b7f3c672069643d22696d706163742d706572696f642d636f6c6f7222207465787481527f2d72656e646572696e673d226f7074696d697a6553706565642220666f6e742d60208201527f73697a653d223130222066696c6c3d2223666663653433223e0000000000000060408201527f3c746578742069643d22696d706163742d706572696f642d636f6c6f722d322260598201527f207472616e73666f726d3d227472616e736c617465283133342e37352037353860798201527f2922207374796c653d22666f6e742d66616d696c793a2048656c76657469636160998201527f3b20666f6e742d73697a653a20313570783b223e00000000000000000000000060b98201527f3c747370616e20783d22302220793d223022207374796c653d226c657474657260cd8201527f2d73706163696e673a202d2e3035656d3b223e496d7061637420506572696f6460ed8201526101d160f51b61010d820152600061010f84516128ef818386016020890161195b565b61291261216861290c8484880101620101f160ed1b815260030190565b87611c0f565b9695505050505050565b60006001820161292e5761292e611b9d565b5060010190565b8181038181111561017057610170611b9d565b60008261295757612957611be5565b500690565b60408152600061296f604083018561197f565b90508260208301529392505050565b600181815b808511156129b957816000190482111561299f5761299f611b9d565b808516156129ac57918102915b93841c9390800290612983565b509250929050565b6000826129d057506001610170565b816129dd57506000610170565b81600181146129f357600281146129fd57612a19565b6001915050610170565b60ff841115612a0e57612a0e611b9d565b50506001821b610170565b5060208310610133831016604e8410600b8410161715612a3c575081810a610170565b612a46838361297e565b8060001904821115612a5a57612a5a611b9d565b029392505050565b60006119be60ff8416836129c1565b60008251612a8381846020870161195b565b601760f91b920191825250600101919050565b60008251612aa881846020870161195b565b600360fc1b920191825250600101919050565b600060ff821660ff8103612ad157612ad1611b9d565b60010192915050565b60006119be83836129c156fea164736f6c6343000810000a",
  "devdoc": {
    "kind": "dev",
    "methods": {},
    "stateVariables": {
      "background": {
        "details": "voucher => claimType => background colors"
      }
    },
    "version": 1
  },
  "userdoc": {
    "kind": "user",
    "methods": {},
    "version": 1
  },
  "storageLayout": {
    "storage": [
      {
        "astId": 6564,
        "contract": "contracts/HyperCertSVG.sol:HyperCertSVG",
        "label": "background",
        "offset": 0,
        "slot": "0",
        "type": "t_mapping(t_uint256,t_string_storage)"
      },
      {
        "astId": 6567,
        "contract": "contracts/HyperCertSVG.sol:HyperCertSVG",
        "label": "backgroundCounter",
        "offset": 0,
        "slot": "1",
        "type": "t_uint256"
      }
    ],
    "types": {
      "t_mapping(t_uint256,t_string_storage)": {
        "encoding": "mapping",
        "key": "t_uint256",
        "label": "mapping(uint256 => string)",
        "numberOfBytes": "32",
        "value": "t_string_storage"
      },
      "t_string_storage": {
        "encoding": "bytes",
        "label": "string",
        "numberOfBytes": "32"
      },
      "t_uint256": {
        "encoding": "inplace",
        "label": "uint256",
        "numberOfBytes": "32"
      }
    }
  }
}