{
  "address": "0x10df6c27dD4D30e286cBB888Bb4A76a5B37D3Dc3",
  "abi": [
    {
      "inputs": [],
      "stateMutability": "nonpayable",
      "type": "constructor"
    },
    {
      "anonymous": false,
      "inputs": [
        {
          "indexed": false,
          "internalType": "address",
          "name": "previousAdmin",
          "type": "address"
        },
        {
          "indexed": false,
          "internalType": "address",
          "name": "newAdmin",
          "type": "address"
        }
      ],
      "name": "AdminChanged",
      "type": "event"
    },
    {
      "anonymous": false,
      "inputs": [
        {
          "indexed": false,
          "internalType": "uint256",
          "name": "id",
          "type": "uint256"
        }
      ],
      "name": "BackgroundAdded",
      "type": "event"
    },
    {
      "anonymous": false,
      "inputs": [
        {
          "indexed": true,
          "internalType": "address",
          "name": "beacon",
          "type": "address"
        }
      ],
      "name": "BeaconUpgraded",
      "type": "event"
    },
    {
      "anonymous": false,
      "inputs": [
        {
          "indexed": false,
          "internalType": "uint256",
          "name": "id",
          "type": "uint256"
        },
        {
          "indexed": false,
          "internalType": "string[2]",
          "name": "colorPair",
          "type": "string[2]"
        }
      ],
      "name": "ColorPairAdded",
      "type": "event"
    },
    {
      "anonymous": false,
      "inputs": [
        {
          "indexed": false,
          "internalType": "uint8",
          "name": "version",
          "type": "uint8"
        }
      ],
      "name": "Initialized",
      "type": "event"
    },
    {
      "anonymous": false,
      "inputs": [
        {
          "indexed": true,
          "internalType": "bytes32",
          "name": "role",
          "type": "bytes32"
        },
        {
          "indexed": true,
          "internalType": "bytes32",
          "name": "previousAdminRole",
          "type": "bytes32"
        },
        {
          "indexed": true,
          "internalType": "bytes32",
          "name": "newAdminRole",
          "type": "bytes32"
        }
      ],
      "name": "RoleAdminChanged",
      "type": "event"
    },
    {
      "anonymous": false,
      "inputs": [
        {
          "indexed": true,
          "internalType": "bytes32",
          "name": "role",
          "type": "bytes32"
        },
        {
          "indexed": true,
          "internalType": "address",
          "name": "account",
          "type": "address"
        },
        {
          "indexed": true,
          "internalType": "address",
          "name": "sender",
          "type": "address"
        }
      ],
      "name": "RoleGranted",
      "type": "event"
    },
    {
      "anonymous": false,
      "inputs": [
        {
          "indexed": true,
          "internalType": "bytes32",
          "name": "role",
          "type": "bytes32"
        },
        {
          "indexed": true,
          "internalType": "address",
          "name": "account",
          "type": "address"
        },
        {
          "indexed": true,
          "internalType": "address",
          "name": "sender",
          "type": "address"
        }
      ],
      "name": "RoleRevoked",
      "type": "event"
    },
    {
      "anonymous": false,
      "inputs": [
        {
          "indexed": true,
          "internalType": "address",
          "name": "implementation",
          "type": "address"
        }
      ],
      "name": "Upgraded",
      "type": "event"
    },
    {
      "inputs": [],
      "name": "DEFAULT_ADMIN_ROLE",
      "outputs": [
        {
          "internalType": "bytes32",
          "name": "",
          "type": "bytes32"
        }
      ],
      "stateMutability": "view",
      "type": "function"
    },
    {
      "inputs": [],
      "name": "UPGRADER_ROLE",
      "outputs": [
        {
          "internalType": "bytes32",
          "name": "",
          "type": "bytes32"
        }
      ],
      "stateMutability": "view",
      "type": "function"
    },
    {
      "inputs": [
        {
          "internalType": "string",
          "name": "svgString",
          "type": "string"
        }
      ],
      "name": "addBackground",
      "outputs": [
        {
          "internalType": "uint256",
          "name": "id",
          "type": "uint256"
        }
      ],
      "stateMutability": "nonpayable",
      "type": "function"
    },
    {
      "inputs": [
        {
          "internalType": "string[2]",
          "name": "colorPair",
          "type": "string[2]"
        }
      ],
      "name": "addColorPair",
      "outputs": [
        {
          "internalType": "uint256",
          "name": "id",
          "type": "uint256"
        }
      ],
      "stateMutability": "nonpayable",
      "type": "function"
    },
    {
      "inputs": [],
      "name": "backgroundCounter",
      "outputs": [
        {
          "internalType": "uint256",
          "name": "",
          "type": "uint256"
        }
      ],
      "stateMutability": "view",
      "type": "function"
    },
    {
      "inputs": [
        {
          "internalType": "uint256",
          "name": "",
          "type": "uint256"
        }
      ],
      "name": "backgrounds",
      "outputs": [
        {
          "internalType": "string",
          "name": "",
          "type": "string"
        }
      ],
      "stateMutability": "view",
      "type": "function"
    },
    {
      "inputs": [],
      "name": "colorPairCounter",
      "outputs": [
        {
          "internalType": "uint256",
          "name": "",
          "type": "uint256"
        }
      ],
      "stateMutability": "view",
      "type": "function"
    },
    {
      "inputs": [
        {
          "internalType": "uint256",
          "name": "",
          "type": "uint256"
        },
        {
          "internalType": "uint256",
          "name": "",
          "type": "uint256"
        }
      ],
      "name": "colorPairs",
      "outputs": [
        {
          "internalType": "string",
          "name": "",
          "type": "string"
        }
      ],
      "stateMutability": "view",
      "type": "function"
    },
    {
      "inputs": [
        {
          "internalType": "string",
          "name": "name",
          "type": "string"
        },
        {
          "internalType": "string[]",
          "name": "scopesOfImpact",
          "type": "string[]"
        },
        {
          "internalType": "uint64[2]",
          "name": "workTimeframe",
          "type": "uint64[2]"
        },
        {
          "internalType": "uint64[2]",
          "name": "impactTimeframe",
          "type": "uint64[2]"
        },
        {
          "internalType": "uint256",
          "name": "units",
          "type": "uint256"
        },
        {
          "internalType": "uint256",
          "name": "totalUnits",
          "type": "uint256"
        }
      ],
      "name": "generateSvgFraction",
      "outputs": [
        {
          "internalType": "string",
          "name": "",
          "type": "string"
        }
      ],
      "stateMutability": "view",
      "type": "function"
    },
    {
      "inputs": [
        {
          "internalType": "string",
          "name": "name",
          "type": "string"
        },
        {
          "internalType": "string[]",
          "name": "scopesOfImpact",
          "type": "string[]"
        },
        {
          "internalType": "uint64[2]",
          "name": "workTimeframe",
          "type": "uint64[2]"
        },
        {
          "internalType": "uint64[2]",
          "name": "impactTimeframe",
          "type": "uint64[2]"
        },
        {
          "internalType": "uint256",
          "name": "totalUnits",
          "type": "uint256"
        }
      ],
      "name": "generateSvgHyperCert",
      "outputs": [
        {
          "internalType": "string",
          "name": "",
          "type": "string"
        }
      ],
      "stateMutability": "view",
      "type": "function"
    },
    {
      "inputs": [
        {
          "internalType": "uint256",
          "name": "part",
          "type": "uint256"
        },
        {
          "internalType": "uint256",
          "name": "whole",
          "type": "uint256"
        }
      ],
      "name": "getPercent",
      "outputs": [
        {
          "internalType": "uint256",
          "name": "percent",
          "type": "uint256"
        }
      ],
      "stateMutability": "pure",
      "type": "function"
    },
    {
      "inputs": [
        {
          "internalType": "bytes32",
          "name": "role",
          "type": "bytes32"
        }
      ],
      "name": "getRoleAdmin",
      "outputs": [
        {
          "internalType": "bytes32",
          "name": "",
          "type": "bytes32"
        }
      ],
      "stateMutability": "view",
      "type": "function"
    },
    {
      "inputs": [
        {
          "internalType": "bytes32",
          "name": "role",
          "type": "bytes32"
        },
        {
          "internalType": "address",
          "name": "account",
          "type": "address"
        }
      ],
      "name": "grantRole",
      "outputs": [],
      "stateMutability": "nonpayable",
      "type": "function"
    },
    {
      "inputs": [
        {
          "internalType": "bytes32",
          "name": "role",
          "type": "bytes32"
        },
        {
          "internalType": "address",
          "name": "account",
          "type": "address"
        }
      ],
      "name": "hasRole",
      "outputs": [
        {
          "internalType": "bool",
          "name": "",
          "type": "bool"
        }
      ],
      "stateMutability": "view",
      "type": "function"
    },
    {
      "inputs": [],
      "name": "initialize",
      "outputs": [],
      "stateMutability": "nonpayable",
      "type": "function"
    },
    {
      "inputs": [],
      "name": "proxiableUUID",
      "outputs": [
        {
          "internalType": "bytes32",
          "name": "",
          "type": "bytes32"
        }
      ],
      "stateMutability": "view",
      "type": "function"
    },
    {
      "inputs": [
        {
          "internalType": "bytes32",
          "name": "role",
          "type": "bytes32"
        },
        {
          "internalType": "address",
          "name": "account",
          "type": "address"
        }
      ],
      "name": "renounceRole",
      "outputs": [],
      "stateMutability": "nonpayable",
      "type": "function"
    },
    {
      "inputs": [
        {
          "internalType": "bytes32",
          "name": "role",
          "type": "bytes32"
        },
        {
          "internalType": "address",
          "name": "account",
          "type": "address"
        }
      ],
      "name": "revokeRole",
      "outputs": [],
      "stateMutability": "nonpayable",
      "type": "function"
    },
    {
      "inputs": [
        {
          "internalType": "bytes4",
          "name": "interfaceId",
          "type": "bytes4"
        }
      ],
      "name": "supportsInterface",
      "outputs": [
        {
          "internalType": "bool",
          "name": "",
          "type": "bool"
        }
      ],
      "stateMutability": "view",
      "type": "function"
    },
    {
      "inputs": [],
      "name": "updateVersion",
      "outputs": [],
      "stateMutability": "nonpayable",
      "type": "function"
    },
    {
      "inputs": [
        {
          "internalType": "address",
          "name": "newImplementation",
          "type": "address"
        }
      ],
      "name": "upgradeTo",
      "outputs": [],
      "stateMutability": "nonpayable",
      "type": "function"
    },
    {
      "inputs": [
        {
          "internalType": "address",
          "name": "newImplementation",
          "type": "address"
        },
        {
          "internalType": "bytes",
          "name": "data",
          "type": "bytes"
        }
      ],
      "name": "upgradeToAndCall",
      "outputs": [],
      "stateMutability": "payable",
      "type": "function"
    },
    {
      "inputs": [],
      "name": "version",
      "outputs": [
        {
          "internalType": "uint256",
          "name": "",
          "type": "uint256"
        }
      ],
      "stateMutability": "view",
      "type": "function"
    }
  ],
  "numDeployments": 8,
  "solcInputHash": "f38a7af1e7b1550cb2084257ef9cbced",
  "bytecode": "0x60a0604052306080523480156200001557600080fd5b506200002062000026565b620000e8565b600054610100900460ff1615620000935760405162461bcd60e51b815260206004820152602760248201527f496e697469616c697a61626c653a20636f6e747261637420697320696e697469604482015266616c697a696e6760c81b606482015260840160405180910390fd5b60005460ff9081161015620000e6576000805460ff191660ff9081179091556040519081527f7f26b83ff96e1f2b6a682f133852f6798a09c465da95921460cefb38474024989060200160405180910390a15b565b608051613eda6200012060003960008181610577015281816105b7015281816106a5015281816106e501526107740152613eda6000f3fe6080604052600436106101405760003560e01c806359c42f21116100b657806394a2eeb81161006f57806394a2eeb814610368578063a217fddf14610388578063a3e033f11461039d578063b1552267146103bd578063d547741f146103d3578063f72c0d8b146103f357600080fd5b806359c42f21146102b35780635e70664c146102d357806362219866146102f35780638129fc1c146103135780638ac1da721461032857806391d148541461034857600080fd5b80633659cfe6116101085780633659cfe6146102275780633d5b23e31461024757806348c02dc11461025d5780634f1ef2861461027257806352d1902d1461028557806354fd4d501461029a57600080fd5b806301ffc9a71461014557806304bde4dd1461017a578063248a9ca3146101a75780632f2ff15d146101e557806336568abe14610207575b600080fd5b34801561015157600080fd5b5061016561016036600461281e565b610415565b60405190151581526020015b60405180910390f35b34801561018657600080fd5b5061019a610195366004612848565b610426565b60405161017191906128b1565b3480156101b357600080fd5b506101d76101c2366004612848565b60009081526065602052604090206001015490565b604051908152602001610171565b3480156101f157600080fd5b506102056102003660046128db565b6104c0565b005b34801561021357600080fd5b506102056102223660046128db565b6104ea565b34801561023357600080fd5b50610205610242366004612907565b61056d565b34801561025357600080fd5b506101d760fe5481565b34801561026957600080fd5b5061020561064c565b6102056102803660046129e7565b61069b565b34801561029157600080fd5b506101d7610767565b3480156102a657600080fd5b5060fb5461ffff166101d7565b3480156102bf57600080fd5b5061019a6102ce366004612a48565b61081a565b3480156102df57600080fd5b506101d76102ee366004612a8a565b610846565b3480156102ff57600080fd5b506101d761030e366004612a48565b6108b3565b34801561031f57600080fd5b5061020561092c565b34801561033457600080fd5b5061019a610343366004612bab565b610a6c565b34801561035457600080fd5b506101656103633660046128db565b610ab1565b34801561037457600080fd5b5061019a610383366004612c44565b610adc565b34801561039457600080fd5b506101d7600081565b3480156103a957600080fd5b506101d76103b8366004612cd2565b610b19565b3480156103c957600080fd5b506101d760ff5481565b3480156103df57600080fd5b506102056103ee3660046128db565b610b83565b3480156103ff57600080fd5b506101d7600080516020613e6783398151915281565b600061042082610ba8565b92915050565b60fc602052600090815260409020805461043f90612d6c565b80601f016020809104026020016040519081016040528092919081815260200182805461046b90612d6c565b80156104b85780601f1061048d576101008083540402835291602001916104b8565b820191906000526020600020905b81548152906001019060200180831161049b57829003601f168201915b505050505081565b6000828152606560205260409020600101546104db81610bdd565b6104e58383610be7565b505050565b6001600160a01b038116331461055f5760405162461bcd60e51b815260206004820152602f60248201527f416363657373436f6e74726f6c3a2063616e206f6e6c792072656e6f756e636560448201526e103937b632b9903337b91039b2b63360891b60648201526084015b60405180910390fd5b6105698282610c6d565b5050565b6001600160a01b037f00000000000000000000000000000000000000000000000000000000000000001630036105b55760405162461bcd60e51b815260040161055690612da6565b7f00000000000000000000000000000000000000000000000000000000000000006001600160a01b03166105fe600080516020613e87833981519152546001600160a01b031690565b6001600160a01b0316146106245760405162461bcd60e51b815260040161055690612df2565b61062d81610cd4565b6040805160008082526020820190925261064991839190610cec565b50565b600080516020613e6783398151915261066481610bdd565b60fb80546001919060009061067e90849061ffff16612e54565b92506101000a81548161ffff021916908361ffff16021790555050565b6001600160a01b037f00000000000000000000000000000000000000000000000000000000000000001630036106e35760405162461bcd60e51b815260040161055690612da6565b7f00000000000000000000000000000000000000000000000000000000000000006001600160a01b031661072c600080516020613e87833981519152546001600160a01b031690565b6001600160a01b0316146107525760405162461bcd60e51b815260040161055690612df2565b61075b82610cd4565b61056982826001610cec565b6000306001600160a01b037f000000000000000000000000000000000000000000000000000000000000000016146108075760405162461bcd60e51b815260206004820152603860248201527f555550535570677261646561626c653a206d757374206e6f742062652063616c60448201527f6c6564207468726f7567682064656c656761746563616c6c00000000000000006064820152608401610556565b50600080516020613e8783398151915290565b60fd602052816000526040600020816002811061083657600080fd5b01805490925061043f9150612d6c565b60fe54600081815260fc602052604090206108618382612ebd565b506040518181527fabb811cda210349363acfb5609934d3717818d26783decefcd058c05030652f09060200160405180910390a1600160fe60008282546108a89190612f7c565b909155509092915050565b6000806108c384620186a0612f8f565b90508381116108ff5760405162461bcd60e51b81526020600482015260086024820152674f766572666c6f7760c01b6044820152606401610556565b600061090b8483612fc4565b610916906005612f7c565b9050610923600a82612fc4565b95945050505050565b600054610100900460ff161580801561094c5750600054600160ff909116105b806109665750303b158015610966575060005460ff166001145b6109c95760405162461bcd60e51b815260206004820152602e60248201527f496e697469616c697a61626c653a20636f6e747261637420697320616c72656160448201526d191e481a5b9a5d1a585b1a5e995960921b6064820152608401610556565b6000805460ff1916600117905580156109ec576000805461ff0019166101001790555b6109f4610e57565b6109fc610e57565b610a07600033610be7565b610a1f600080516020613e6783398151915233610be7565b600060fe558015610649576000805461ff0019169055604051600181527f7f26b83ff96e1f2b6a682f133852f6798a09c465da95921460cefb38474024989060200160405180910390a150565b6060610a7661270e565b8781526020810187905260408101869052606081018590526080810184905260a08101839052610aa581610ec4565b98975050505050505050565b60009182526065602090815260408084206001600160a01b0393909316845291905290205460ff1690565b6060610ae661270e565b86815260208101869052604081018590526060810184905260a08101839052610b0e81610f4e565b979650505050505050565b60ff54600081815260fd60205260409020610b3690836002612750565b507f5ecb6e80c43cb0e0bdb5cee29498fd6f694ddd330a970ac2f363506fa7673d468183604051610b68929190612fd8565b60405180910390a1600160ff60008282546108a89190612f7c565b600082815260656020526040902060010154610b9e81610bdd565b6104e58383610c6d565b60006001600160e01b03198216637965db0b60e01b148061042057506301ffc9a760e01b6001600160e01b0319831614610420565b6106498133610fab565b610bf18282610ab1565b6105695760008281526065602090815260408083206001600160a01b03851684529091529020805460ff19166001179055610c293390565b6001600160a01b0316816001600160a01b0316837f2f8788117e7eff1d82e926ec794901d17c78024a50270940304540a733656f0d60405160405180910390a45050565b610c778282610ab1565b156105695760008281526065602090815260408083206001600160a01b0385168085529252808320805460ff1916905551339285917ff6391f5c32d9c69d2a47ea670b442974b53935d1edc7fd64eb21e047a839171b9190a45050565b600080516020613e6783398151915261056981610bdd565b7f4910fdfa16fed3260ed0e7147f7cc6da11a60208b5b9406d12a635614ffd91435460ff1615610d1f576104e58361100f565b826001600160a01b03166352d1902d6040518163ffffffff1660e01b8152600401602060405180830381865afa925050508015610d79575060408051601f3d908101601f19168201909252610d769181019061302f565b60015b610ddc5760405162461bcd60e51b815260206004820152602e60248201527f45524331393637557067726164653a206e657720696d706c656d656e7461746960448201526d6f6e206973206e6f74205555505360901b6064820152608401610556565b600080516020613e878339815191528114610e4b5760405162461bcd60e51b815260206004820152602960248201527f45524331393637557067726164653a20756e737570706f727465642070726f786044820152681a58589b195555525160ba1b6064820152608401610556565b506104e58383836110ab565b600054610100900460ff16610ec25760405162461bcd60e51b815260206004820152602b60248201527f496e697469616c697a61626c653a20636f6e7472616374206973206e6f74206960448201526a6e697469616c697a696e6760a81b6064820152608401610556565b565b6060610ece6110d6565b610ef58360200151600081518110610ee857610ee8613048565b6020026020010151611163565b610efe846112cf565b610f0785611498565b610f10866118b1565b610f1987611972565b610f22886119d9565b604051602001610f389796959493929190613120565b6040516020818303038152906040529050919050565b6060610f586110d6565b610f728360200151600081518110610ee857610ee8613048565b610f7b846112cf565b610f8485611498565b610f8d866118b1565b610f96876119d9565b604051602001610f38969594939291906131d4565b610fb58282610ab1565b61056957610fcd816001600160a01b03166014611aac565b610fd8836020611aac565b604051602001610fe9929190613273565b60408051601f198184030181529082905262461bcd60e51b8252610556916004016128b1565b6001600160a01b0381163b61107c5760405162461bcd60e51b815260206004820152602d60248201527f455243313936373a206e657720696d706c656d656e746174696f6e206973206e60448201526c1bdd08184818dbdb9d1c9858dd609a1b6064820152608401610556565b600080516020613e8783398151915280546001600160a01b0319166001600160a01b0392909216919091179055565b6110b483611c4e565b6000825111806110c15750805b156104e5576110d08383611c8e565b50505050565b606060405160200161114f907f3c726563742069643d226261636b67726f756e642d636f6c6f722d322220783d81527f222e352220793d2230222077696474683d2235353022206865696768743d22386020820152741a981110393c1e9119991110393c9e91199911179f60591b604082015260550190565b604051602081830303815290604052905090565b606060fc600061117284611d79565b8152602001908152602001600020805461118b90612d6c565b80601f01602080910402602001604051908101604052809291908181526020018280546111b790612d6c565b80156112045780601f106111d957610100808354040283529160200191611204565b820191906000526020600020905b8154815290600101906020018083116111e757829003601f168201915b5050505050905080516000036112ca576000805260fc6020527f3d65bc8af043c3492e2efc328ab30f794c3cc5eba72564adef73ad45ad4ac2ea805461124990612d6c565b80601f016020809104026020016040519081016040528092919081815260200182805461127590612d6c565b80156112c25780601f10611297576101008083540402835291602001916112c2565b820191906000526020600020905b8154815290600101906020018083116112a557829003601f168201915b505050505090505b919050565b6060600080600061130385604001516000600281106112f0576112f0613048565b60200201516001600160401b0316611d92565b925092509250600080600061132888604001516001600281106112f0576112f0613048565b9250925092506040516020016113c8907f3c706174682069643d22666f726567726f756e642d636f6c6f722d322220643d81527f224d3433352c3737372e383348313135762d3530483433357635305a6d302d3560208201527f33322e3833483131357633363048343335563234355a6d302d3132322e38334860408201527118989abb169a98241a199abb1a982d11179f60711b606082015260720190565b6040516020818303038152906040526113e087611db1565b6113e987611db1565b6113f287611db1565b604051602001611404939291906132e8565b60405160208183030381529060405261141c85611db1565b61142585611db1565b61142e85611db1565b604051602001611440939291906132e8565b60408051601f198184030181529082905261145e9291602001613342565b60408051601f198184030181529082905261147c9291602001613576565b6040516020818303038152906040529650505050505050919050565b6060600082600001516040516020016114b191906135a5565b604051602081830303815290604052905060006114d96114d48560000151611eb9565b611ee6565b9050600d81111561186b5760006114f38560000151611eb9565b90506000611519604051806040016040528060018152602001600160fd1b815250611eb9565b60408051600680825260e08201909252919250600091829182918291816020015b604080518082019091526000808252602082015281526020019060019003908161153a5750506040805160038082526080820190925291925060009190602082015b606081526020019060019003908161157c5790505090505b60038510156117945760006115a98888611fbf565b90506115b481511590565b1561162657878386815181106115cc576115cc613048565b6020026020010181905250611603836115fd604051806040016040528060018152602001600160fd1b815250611eb9565b90611fe5565b82878151811061161557611615613048565b602002602001018190525050611794565b600a61163182611ee6565b61163b9086612f7c565b111561174d578560020361168b5761166d6040518060400160405280600381526020016217171760e91b815250611eb9565b83868151811061167f5761167f613048565b60200260200101819052505b6116b1836115fd604051806040016040528060018152602001600160fd1b815250611eb9565b8287815181106116c3576116c3613048565b60209081029190910101526116d9600187612f7c565b60408051600680825260e08201909252919750816020015b60408051808201909152600080825260208201528152602001906001900390816116f1579050509250808360008151811061172e5761172e613048565b602002602001018190525061174281611ee6565b93506001945061178e565b61175681611ee6565b6117609085612f7c565b93508083868151811061177557611775613048565b602090810291909101015261178b600186612f7c565b94505b50611594565b806000815181106117a7576117a7613048565b60200260200101516040516020016117bf91906135a5565b604051602081830303815290604052816001815181106117e1576117e1613048565b60200260200101516040516020016117f991906135f3565b6040516020818303038152906040528260028151811061181b5761181b613048565b60200260200101516040516020016118339190613642565b60408051601f1981840301815290829052611852939291602001613672565b6040516020818303038152906040529850505050505050505b8160405160200161187c91906136b5565b60408051601f198184030181529082905261189991602001613766565b60405160208183030381529060405292505050919050565b6040805160208082019092526000815290820151516060919060038111156118d7575060035b60005b8181101561196057600061190a866020015183815181106118fd576118fd613048565b6020026020010151612188565b90508361192061191b846014612f8f565b611db1565b611929836121a7565b60405160200161193b939291906137e9565b60405160208183030381529060405293505080806119589061386d565b9150506118da565b50816040516020016118999190613886565b6060600061198883608001518460a001516108b3565b9050611995816002612317565b6040516020016119a5919061398f565b60408051601f19818403018152908290526119c2916020016139b5565b604051602081830303815290604052915050919050565b606060008060006119fa85606001516000600281106112f0576112f0613048565b9250925092506000806000611a1f88606001516001600281106112f0576112f0613048565b925092509250611a2e86611db1565b611a3786611db1565b611a4086611db1565b604051602001611a52939291906132e8565b604051602081830303815290604052611a6a84611db1565b611a7384611db1565b611a7c84611db1565b604051602001611a8e939291906132e8565b60408051601f198184030181529082905261147c9291602001613ae3565b60606000611abb836002612f8f565b611ac6906002612f7c565b6001600160401b03811115611add57611add612922565b6040519080825280601f01601f191660200182016040528015611b07576020820181803683370190505b509050600360fc1b81600081518110611b2257611b22613048565b60200101906001600160f81b031916908160001a905350600f60fb1b81600181518110611b5157611b51613048565b60200101906001600160f81b031916908160001a9053506000611b75846002612f8f565b611b80906001612f7c565b90505b6001811115611bf8576f181899199a1a9b1b9c1cb0b131b232b360811b85600f1660108110611bb457611bb4613048565b1a60f81b828281518110611bca57611bca613048565b60200101906001600160f81b031916908160001a90535060049490941c93611bf181613c7d565b9050611b83565b508315611c475760405162461bcd60e51b815260206004820181905260248201527f537472696e67733a20686578206c656e67746820696e73756666696369656e746044820152606401610556565b9392505050565b611c578161100f565b6040516001600160a01b038216907fbc7cd75a20ee27fd9adebab32041f755214dbc6bffa90cc0225b39da2e5c2d3b90600090a250565b60606001600160a01b0383163b611cf65760405162461bcd60e51b815260206004820152602660248201527f416464726573733a2064656c65676174652063616c6c20746f206e6f6e2d636f6044820152651b9d1c9858dd60d21b6064820152608401610556565b600080846001600160a01b031684604051611d119190613c94565b600060405180830381855af49150503d8060008114611d4c576040519150601f19603f3d011682016040523d82523d6000602084013e611d51565b606091505b50915091506109238282604051806060016040528060278152602001613ea7602791396123ff565b600080611d8583612188565b9050611c47600a82613cb0565b60008080611da4620151808504612438565b9196909550909350915050565b606081600003611dd85750506040805180820190915260018152600360fc1b602082015290565b8160005b8115611e025780611dec8161386d565b9150611dfb9050600a83612fc4565b9150611ddc565b6000816001600160401b03811115611e1c57611e1c612922565b6040519080825280601f01601f191660200182016040528015611e46576020820181803683370190505b5090505b8415611eb157611e5b600183613cc4565b9150611e68600a86613cb0565b611e73906030612f7c565b60f81b818381518110611e8857611e88613048565b60200101906001600160f81b031916908160001a905350611eaa600a86612fc4565b9450611e4a565b949350505050565b60408051808201825260008082526020918201528151808301909252825182529182019181019190915290565b600080601f8360200151611efa9190613cc4565b8351909150600090611f0c9083612f7c565b9050600092505b80821015611fb857815160ff166080811015611f3b57611f34600184612f7c565b9250611fa5565b60e08160ff161015611f5257611f34600284612f7c565b60f08160ff161015611f6957611f34600384612f7c565b60f88160ff161015611f8057611f34600484612f7c565b60fc8160ff161015611f9757611f34600584612f7c565b611fa2600684612f7c565b92505b5082611fb08161386d565b935050611f13565b5050919050565b6040805180820190915260008082526020820152611fde8383836124d4565b5092915050565b606081516000036120055750604080516020810190915260008152610420565b6000600183516120159190613cc4565b84516120219190612f8f565b905060005b835181101561206c5783818151811061204157612041613048565b602002602001015160000151826120589190612f7c565b9150806120648161386d565b915050612026565b506000816001600160401b0381111561208757612087612922565b6040519080825280601f01601f1916602001820160405280156120b1576020820181803683370190505b5090506020810160005b855181101561217d57612109828783815181106120da576120da613048565b6020026020010151602001518884815181106120f8576120f8613048565b60200260200101516000015161257f565b85818151811061211b5761211b613048565b602002602001015160000151826121329190612f7c565b9150600186516121429190613cc4565b81101561216b5761215c828860200151896000015161257f565b86516121689083612f7c565b91505b806121758161386d565b9150506120bb565b509095945050505050565b80516000908290820361219e5750600092915050565b50506020015190565b606060005b601b8160ff161080156121e05750828160ff16602081106121cf576121cf613048565b1a60f81b6001600160f81b03191615155b156121f757806121ef81613cd7565b9150506121ac565b60008160ff166001600160401b0381111561221457612214612922565b6040519080825280601f01601f19166020018201604052801561223e576020820181803683370190505b509050600091505b601b8260ff1610801561227a5750838260ff166020811061226957612269613048565b1a60f81b6001600160f81b03191615155b156122d657838260ff166020811061229457612294613048565b1a60f81b818360ff16815181106122ad576122ad613048565b60200101906001600160f81b031916908160001a905350816122ce81613cd7565b925050612246565b8084601c1a60f81b6001600160f81b03191615611eb157806040516020016122fe9190613cf6565b6040516020818303038152906040529050949350505050565b6060600061232683600a613e01565b9050600061233761191b8387612fc4565b9050600061234861191b8488613cb0565b90506000815190506000836040516020016123639190613e10565b60405160208183030381529060405290508660ff168210156123d05760005b61238f8360ff8a16613cc4565b8160ff1610156123ce57816040516020016123aa9190613e35565b604051602081830303815290604052915080806123c690613cd7565b915050612382565b505b80836040516020016123e3929190613576565b6040516020818303038152906040529550505050505092915050565b6060831561240e575081611c47565b82511561241e5782518084602001fd5b8160405162461bcd60e51b815260040161055691906128b1565b60008080836226496581018262023ab1600483020590506004600362023ab18302010590910390600062164b09610fa0600185010205905060046105b58202058303601f019250600061098f846050028161249557612495612fae565b0590506000605061098f83020585039050600b820560301994909401606402929092018301996002600c90940290910392909201975095509350505050565b6040805180820190915260008082526020820152600061250685600001518660200151866000015187602001516125f9565b6020808701805191860191909152519091506125229082613cc4565b8352845160208601516125359190612f7c565b81036125445760008552612576565b835183516125529190612f7c565b85518690612561908390613cc4565b90525083516125709082612f7c565b60208601525b50909392505050565b602081106125b75781518352612596602084612f7c565b92506125a3602083612f7c565b91506125b0602082613cc4565b905061257f565b60001981156125e65760016125cd836020613cc4565b6125d990610100613e5a565b6125e39190613cc4565b90505b9151835183169219169190911790915250565b6000838186851161270457602085116126b35760008515612645576001612621876020613cc4565b61262c906008612f8f565b612637906002613e5a565b6126419190613cc4565b1990505b845181166000876126568b8b612f7c565b6126609190613cc4565b855190915083165b8281146126a55781861061268d576126808b8b612f7c565b9650505050505050611eb1565b856126978161386d565b965050838651169050612668565b859650505050505050611eb1565b508383206000905b6126c58689613cc4565b8211612702578583208082036126e15783945050505050611eb1565b6126ec600185612f7c565b93505081806126fa9061386d565b9250506126bb565b505b610b0e8787612f7c565b6040518060c00160405280606081526020016060815260200161272f612799565b815260200161273c612799565b815260200160008152602001600081525090565b8260028101928215612789579160200282015b8281111561278957825182906127799082612ebd565b5091602001919060010190612763565b506127959291506127b7565b5090565b60405180604001604052806002906020820280368337509192915050565b808211156127955760006127cb82826127d4565b506001016127b7565b5080546127e090612d6c565b6000825580601f106127f0575050565b601f01602090049060005260206000209081019061064991905b80821115612795576000815560010161280a565b60006020828403121561283057600080fd5b81356001600160e01b031981168114611c4757600080fd5b60006020828403121561285a57600080fd5b5035919050565b60005b8381101561287c578181015183820152602001612864565b50506000910152565b6000815180845261289d816020860160208601612861565b601f01601f19169290920160200192915050565b602081526000611c476020830184612885565b80356001600160a01b03811681146112ca57600080fd5b600080604083850312156128ee57600080fd5b823591506128fe602084016128c4565b90509250929050565b60006020828403121561291957600080fd5b611c47826128c4565b634e487b7160e01b600052604160045260246000fd5b604080519081016001600160401b038111828210171561295a5761295a612922565b60405290565b604051601f8201601f191681016001600160401b038111828210171561298857612988612922565b604052919050565b60006001600160401b038311156129a9576129a9612922565b6129bc601f8401601f1916602001612960565b90508281528383830111156129d057600080fd5b828260208301376000602084830101529392505050565b600080604083850312156129fa57600080fd5b612a03836128c4565b915060208301356001600160401b03811115612a1e57600080fd5b8301601f81018513612a2f57600080fd5b612a3e85823560208401612990565b9150509250929050565b60008060408385031215612a5b57600080fd5b50508035926020909101359150565b600082601f830112612a7b57600080fd5b611c4783833560208501612990565b600060208284031215612a9c57600080fd5b81356001600160401b03811115612ab257600080fd5b611eb184828501612a6a565b600082601f830112612acf57600080fd5b813560206001600160401b0380831115612aeb57612aeb612922565b8260051b612afa838201612960565b9384528581018301938381019088861115612b1457600080fd5b84880192505b85831015610aa557823584811115612b325760008081fd5b612b408a87838c0101612a6a565b8352509184019190840190612b1a565b600082601f830112612b6157600080fd5b612b69612938565b806040840185811115612b7b57600080fd5b845b8181101561217d5780356001600160401b0381168114612b9d5760008081fd5b845260209384019301612b7d565b6000806000806000806101008789031215612bc557600080fd5b86356001600160401b0380821115612bdc57600080fd5b612be88a838b01612a6a565b97506020890135915080821115612bfe57600080fd5b50612c0b89828a01612abe565b955050612c1b8860408901612b50565b9350612c2a8860808901612b50565b925060c0870135915060e087013590509295509295509295565b600080600080600060e08688031215612c5c57600080fd5b85356001600160401b0380821115612c7357600080fd5b612c7f89838a01612a6a565b96506020880135915080821115612c9557600080fd5b50612ca288828901612abe565b945050612cb28760408801612b50565b9250612cc18760808801612b50565b9497939650919460c0013592915050565b60006020808385031215612ce557600080fd5b82356001600160401b0380821115612cfc57600080fd5b818501915085601f830112612d1057600080fd5b612d18612938565b806040840188811115612d2a57600080fd5b845b81811015612d5e57803585811115612d445760008081fd5b612d508b828901612a6a565b855250928601928601612d2c565b509098975050505050505050565b600181811c90821680612d8057607f821691505b602082108103612da057634e487b7160e01b600052602260045260246000fd5b50919050565b6020808252602c908201527f46756e6374696f6e206d7573742062652063616c6c6564207468726f7567682060408201526b19195b1959d85d1958d85b1b60a21b606082015260800190565b6020808252602c908201527f46756e6374696f6e206d7573742062652063616c6c6564207468726f7567682060408201526b6163746976652070726f787960a01b606082015260800190565b634e487b7160e01b600052601160045260246000fd5b61ffff818116838216019080821115611fde57611fde612e3e565b601f8211156104e557600081815260208120601f850160051c81016020861015612e965750805b601f850160051c820191505b81811015612eb557828155600101612ea2565b505050505050565b81516001600160401b03811115612ed657612ed6612922565b612eea81612ee48454612d6c565b84612e6f565b602080601f831160018114612f1f5760008415612f075750858301515b600019600386901b1c1916600185901b178555612eb5565b600085815260208120601f198616915b82811015612f4e57888601518255948401946001909101908401612f2f565b5085821015612f6c5787850151600019600388901b60f8161c191681555b5050505050600190811b01905550565b8082018082111561042057610420612e3e565b6000816000190483118215151615612fa957612fa9612e3e565b500290565b634e487b7160e01b600052601260045260246000fd5b600082612fd357612fd3612fae565b500490565b82815260406020808301829052600091608084019190840185845b600281101561302257603f19878603018352613010858351612885565b94509183019190830190600101612ff3565b5092979650505050505050565b60006020828403121561304157600080fd5b5051919050565b634e487b7160e01b600052603260045260246000fd5b7f3c7376672077696474683d2235353022206865696768743d223835302220766981527f6577426f783d2230203020353530203835302220786d6c6e733d22687474703a60208201527f2f2f7777772e77332e6f72672f323030302f7376672220786d6c6e733a786c6960408201527f6e6b3d22687474703a2f2f7777772e77332e6f72672f313939392f786c696e6b606082015261111f60f11b608082015260820190565b60008151613116818560208601612861565b9290920192915050565b600061312b8261305e565b8951602061313c8284838f01612861565b8a5191909201916131508284838e01612861565b895191909201916131648284838d01612861565b885191909201916131788284838c01612861565b8751919092019161318c8284838b01612861565b865191909201916131a08284838a01612861565b855191909201916131b48284838901612861565b50651e17b9bb339f60d11b91019081526006019998505050505050505050565b60006131df8261305e565b885160206131f08284838e01612861565b895191909201916132048284838d01612861565b885191909201916132188284838c01612861565b8751919092019161322c8284838b01612861565b865191909201916132408284838a01612861565b855191909201916132548284838901612861565b50651e17b9bb339f60d11b910190815260060198975050505050505050565b7f416363657373436f6e74726f6c3a206163636f756e74200000000000000000008152600083516132ab816017850160208801612861565b7001034b99036b4b9b9b4b733903937b6329607d1b60179184019182015283516132dc816028840160208801612861565b01602801949350505050565b600084516132fa818460208901612861565b8083019050602d60f81b808252855161331a816001850160208a01612861565b60019201918201528351613335816002840160208801612861565b0160020195945050505050565b7f3c672069643d22646976696465722d636f6c6f722220746578742d72656e646581527f72696e673d226f7074696d697a6553706565642220666f6e742d73697a653d22602082015270189811103334b6361e913bb434ba32911f60791b60408201527f3c706174682069643d22646976696465722d636f6c6f722d322220643d224d3160518201527f35362e33352c3531342e3539683233372e333122207374796c653d2266696c6c60718201527f3a206e6f6e653b207374726f6b653a20236666636534333b207374726f6b652d60918201527f6d697465726c696d69743a2031303b207374726f6b652d77696474683a20327060b1820152643c1d91179f60d91b60d18201527f3c746578742069643d22776f726b2d706572696f642d636f6c6f72222074726160d68201527f6e73666f726d3d227472616e736c617465283133342e3735203130322e30362960f68201527f22207374796c653d22666f6e742d66616d696c793a2048656c7665746963613b61011682015272103337b73a16b9b4bd329d10189ab83c1d911f60691b6101368201527f3c747370616e20783d22302220793d223022207374796c653d226c65747465726101498201527f2d73706163696e673a202d2e3035656d3b223e576f726b20506572696f643a206101698201526000611eb1613557613551613542610189860188613104565b620101f160ed1b815260030190565b85613104565b721e17ba39b830b71f1e17ba32bc3a1f1e17b39f60691b815260130190565b60008351613588818460208801612861565b83519083019061359c818360208801612861565b01949350505050565b721e3a39b830b7103c1e911811103c9e9118111f60691b815281516000906135d4816013850160208701612861565b671e17ba39b830b71f60c11b6013939091019283015250601b01919050565b731e3a39b830b7103c1e911811103c9e91199b111f60611b81528151600090613623816014850160208701612861565b671e17ba39b830b71f60c11b6014939091019283015250601c01919050565b731e3a39b830b7103c1e911811103c9e911b99111f60611b81528151600090613623816014850160208701612861565b60008451613684818460208901612861565b845190830190613698818360208901612861565b84519101906136ab818360208801612861565b0195945050505050565b7f3c746578742069643d226e616d652d636f6c6f722d3222207472616e73666f7281527f6d3d227472616e736c617465283135362e3335203330302922207374796c653d60208201527f2266696c6c3a20236666636534333b20666f6e742d66616d696c793a204d6f6e60408201526530b1b79d911f60d11b606082015260008251613748816066850160208701612861565b661e17ba32bc3a1f60c91b6066939091019283015250606d01919050565b7f3c672069643d226e616d652d636f6c6f722220746578742d72656e646572696e81527f673d226f7074696d697a6553706565642220666f6e742d73697a653d223330226020820152601f60f91b6040820152600082516137ce816041850160208701612861565b631e17b39f60e11b6041939091019283015250604501919050565b600084516137fb818460208901612861565b6f1e3a39b830b7103c1e911811103c9e9160811b9083019081528451613828816010840160208901612861565b61111f60f11b60109290910191820152835161384b816012840160208801612861565b671e17ba39b830b71f60c11b60129290910191820152601a0195945050505050565b60006001820161387f5761387f612e3e565b5060010190565b7f3c672069643d226465736372697074696f6e2d636f6c6f722220746578742d7281527f656e646572696e673d226f7074696d697a6553706565642220666f6e742d73696020820152743d329e91189a91103334b6361e913bb434ba32911f60591b60408201527f3c74657874207472616e73666f726d3d227472616e736c61746528313535203460558201527f36302922207374796c653d22666f6e742d66616d696c793a2048656c7665746960758201527531b09d903337b73a16b9b4bd329d10189ab83c1d911f60511b60958201526000825161396d8160ab850160208701612861565b6a1e17ba32bc3a1f1e17b39f60a91b60ab93909101928301525060b601919050565b600082516139a1818460208701612861565b61202560f01b920191825250600201919050565b7f3c672069643d226672616374696f6e2d636f6c6f722220746578742d72656e6481527f6572696e673d226f7074696d697a6553706565642220666f6e742d73697a653d602082015264111998111f60d91b60408201527f3c746578742069643d226672616374696f6e2d636f6c6f722d3222207472616e60458201527f73666f726d3d227472616e736c617465283135362e3335203536382e3033292260658201527f207374796c653d2266696c6c3a20236666636534333b20666f6e742d66616d6960858201527f6c793a204d6f6e61636f223e3c747370616e20783d22302220793d2230223e0060a582015260008251613ab98160c4850160208701612861565b721e17ba39b830b71f1e17ba32bc3a1f1e17b39f60691b60c493909101928301525060d701919050565b7f3c672069643d22696d706163742d706572696f642d636f6c6f7222207465787481527f2d72656e646572696e673d226f7074696d697a6553706565642220666f6e742d60208201527f73697a653d223130222066696c6c3d227768697465223e00000000000000000060408201527f3c746578742069643d22696d706163742d706572696f642d636f6c6f722d322260578201527f207472616e73666f726d3d227472616e736c617465283133342e37352037353860778201527f2922207374796c653d22666f6e742d66616d696c793a2048656c7665746963616097820152731d903337b73a16b9b4bd329d10189ab83c1d911f60611b60b78201527f3c747370616e20783d22302220793d223022207374796c653d226c657474657260cb8201527f2d73706163696e673a202d2e3035656d3b223e496d7061637420506572696f6460eb8201526101d160f51b61010b820152600061010d8451613c508183860160208901612861565b613c73613557613c6d8484880101620101f160ed1b815260030190565b87613104565b9695505050505050565b600081613c8c57613c8c612e3e565b506000190190565b60008251613ca6818460208701612861565b9190910192915050565b600082613cbf57613cbf612fae565b500690565b8181038181111561042057610420612e3e565b600060ff821660ff8103613ced57613ced612e3e565b60010192915050565b60008251613d08818460208701612861565b6217171760e91b920191825250600301919050565b600181815b80851115613d58578160001904821115613d3e57613d3e612e3e565b80851615613d4b57918102915b93841c9390800290613d22565b509250929050565b600082613d6f57506001610420565b81613d7c57506000610420565b8160018114613d925760028114613d9c57613db8565b6001915050610420565b60ff841115613dad57613dad612e3e565b50506001821b610420565b5060208310610133831016604e8410600b8410161715613ddb575081810a610420565b613de58383613d1d565b8060001904821115613df957613df9612e3e565b029392505050565b6000611c4760ff841683613d60565b60008251613e22818460208701612861565b601760f91b920191825250600101919050565b60008251613e47818460208701612861565b600360fc1b920191825250600101919050565b6000611c478383613d6056fe189ab7a9244df0848122154315af71fe140f3db0fe014031783b0946b8c9d2e3360894a13ba1a3210667c828492db98dca3e2076cc3735a920a3ca505d382bbc416464726573733a206c6f772d6c6576656c2064656c65676174652063616c6c206661696c6564a164736f6c6343000810000a",
  "devdoc": {
    "kind": "dev",
    "methods": {
      "constructor": {
        "custom:oz-upgrades-unsafe-allow": "constructor"
      },
      "getRoleAdmin(bytes32)": {
        "details": "Returns the admin role that controls `role`. See {grantRole} and {revokeRole}. To change a role's admin, use {_setRoleAdmin}."
      },
      "grantRole(bytes32,address)": {
        "details": "Grants `role` to `account`. If `account` had not been already granted `role`, emits a {RoleGranted} event. Requirements: - the caller must have ``role``'s admin role. May emit a {RoleGranted} event."
      },
      "hasRole(bytes32,address)": {
        "details": "Returns `true` if `account` has been granted `role`."
      },
      "proxiableUUID()": {
        "details": "Implementation of the ERC1822 {proxiableUUID} function. This returns the storage slot used by the implementation. It is used to validate that the this implementation remains valid after an upgrade. IMPORTANT: A proxy pointing at a proxiable contract should not be considered proxiable itself, because this risks bricking a proxy that upgrades to it, by delegating to itself until out of gas. Thus it is critical that this function revert if invoked through a proxy. This is guaranteed by the `notDelegated` modifier."
      },
      "renounceRole(bytes32,address)": {
        "details": "Revokes `role` from the calling account. Roles are often managed via {grantRole} and {revokeRole}: this function's purpose is to provide a mechanism for accounts to lose their privileges if they are compromised (such as when a trusted device is misplaced). If the calling account had been revoked `role`, emits a {RoleRevoked} event. Requirements: - the caller must be `account`. May emit a {RoleRevoked} event."
      },
      "revokeRole(bytes32,address)": {
        "details": "Revokes `role` from `account`. If `account` had been granted `role`, emits a {RoleRevoked} event. Requirements: - the caller must have ``role``'s admin role. May emit a {RoleRevoked} event."
      },
      "supportsInterface(bytes4)": {
        "params": {
          "interfaceId": "Id of the interface"
        },
        "returns": {
          "_0": "true, if the interface is supported"
        }
      },
      "upgradeTo(address)": {
        "details": "Upgrade the implementation of the proxy to `newImplementation`. Calls {_authorizeUpgrade}. Emits an {Upgraded} event."
      },
      "upgradeToAndCall(address,bytes)": {
        "details": "Upgrade the implementation of the proxy to `newImplementation`, and subsequently execute the function call encoded in `data`. Calls {_authorizeUpgrade}. Emits an {Upgraded} event."
      }
    },
    "stateVariables": {
      "backgrounds": {
        "details": "id => background"
      },
      "colorPairs": {
        "details": "id => colorPairs [prime, second]"
      }
    },
    "version": 1
  },
  "userdoc": {
    "kind": "user",
    "methods": {
      "UPGRADER_ROLE()": {
        "notice": "User role required in order to upgrade the contract"
      },
      "constructor": {
        "notice": "Contract constructor logic"
      },
      "initialize()": {
        "notice": "Contract initialization logic"
      },
      "supportsInterface(bytes4)": {
        "notice": "Returns a flag indicating if the contract supports the specified interface"
      },
      "updateVersion()": {
        "notice": "Update the contract version numberOnly allowed for member of UPGRADER_ROLE"
      },
      "version()": {
        "notice": "gets the current version of the contract"
      }
    },
    "version": 1
  },
  "storageLayout": {
    "storage": [
      {
        "astId": 814,
        "contract": "contracts/HyperCertSVG.sol:HyperCertSVG",
        "label": "_initialized",
        "offset": 0,
        "slot": "0",
        "type": "t_uint8"
      },
      {
        "astId": 817,
        "contract": "contracts/HyperCertSVG.sol:HyperCertSVG",
        "label": "_initializing",
        "offset": 1,
        "slot": "0",
        "type": "t_bool"
      },
      {
        "astId": 1617,
        "contract": "contracts/HyperCertSVG.sol:HyperCertSVG",
        "label": "__gap",
        "offset": 0,
        "slot": "1",
        "type": "t_array(t_uint256)50_storage"
      },
      {
        "astId": 1947,
        "contract": "contracts/HyperCertSVG.sol:HyperCertSVG",
        "label": "__gap",
        "offset": 0,
        "slot": "51",
        "type": "t_array(t_uint256)50_storage"
      },
      {
        "astId": 39,
        "contract": "contracts/HyperCertSVG.sol:HyperCertSVG",
        "label": "_roles",
        "offset": 0,
        "slot": "101",
        "type": "t_mapping(t_bytes32,t_struct(RoleData)34_storage)"
      },
      {
        "astId": 338,
        "contract": "contracts/HyperCertSVG.sol:HyperCertSVG",
        "label": "__gap",
        "offset": 0,
        "slot": "102",
        "type": "t_array(t_uint256)49_storage"
      },
      {
        "astId": 796,
        "contract": "contracts/HyperCertSVG.sol:HyperCertSVG",
        "label": "__gap",
        "offset": 0,
        "slot": "151",
        "type": "t_array(t_uint256)50_storage"
      },
      {
        "astId": 1093,
        "contract": "contracts/HyperCertSVG.sol:HyperCertSVG",
        "label": "__gap",
        "offset": 0,
        "slot": "201",
        "type": "t_array(t_uint256)50_storage"
      },
      {
        "astId": 6965,
        "contract": "contracts/HyperCertSVG.sol:HyperCertSVG",
        "label": "_version",
        "offset": 0,
        "slot": "251",
        "type": "t_uint16"
      },
      {
        "astId": 6970,
        "contract": "contracts/HyperCertSVG.sol:HyperCertSVG",
        "label": "backgrounds",
        "offset": 0,
        "slot": "252",
        "type": "t_mapping(t_uint256,t_string_storage)"
      },
      {
        "astId": 6977,
        "contract": "contracts/HyperCertSVG.sol:HyperCertSVG",
        "label": "colorPairs",
        "offset": 0,
        "slot": "253",
        "type": "t_mapping(t_uint256,t_array(t_string_storage)2_storage)"
      },
      {
        "astId": 6979,
        "contract": "contracts/HyperCertSVG.sol:HyperCertSVG",
        "label": "backgroundCounter",
        "offset": 0,
        "slot": "254",
        "type": "t_uint256"
      },
      {
        "astId": 6981,
        "contract": "contracts/HyperCertSVG.sol:HyperCertSVG",
        "label": "colorPairCounter",
        "offset": 0,
        "slot": "255",
        "type": "t_uint256"
      }
    ],
    "types": {
      "t_address": {
        "encoding": "inplace",
        "label": "address",
        "numberOfBytes": "20"
      },
      "t_array(t_string_storage)2_storage": {
        "base": "t_string_storage",
        "encoding": "inplace",
        "label": "string[2]",
        "numberOfBytes": "64"
      },
      "t_array(t_uint256)49_storage": {
        "base": "t_uint256",
        "encoding": "inplace",
        "label": "uint256[49]",
        "numberOfBytes": "1568"
      },
      "t_array(t_uint256)50_storage": {
        "base": "t_uint256",
        "encoding": "inplace",
        "label": "uint256[50]",
        "numberOfBytes": "1600"
      },
      "t_bool": {
        "encoding": "inplace",
        "label": "bool",
        "numberOfBytes": "1"
      },
      "t_bytes32": {
        "encoding": "inplace",
        "label": "bytes32",
        "numberOfBytes": "32"
      },
      "t_mapping(t_address,t_bool)": {
        "encoding": "mapping",
        "key": "t_address",
        "label": "mapping(address => bool)",
        "numberOfBytes": "32",
        "value": "t_bool"
      },
      "t_mapping(t_bytes32,t_struct(RoleData)34_storage)": {
        "encoding": "mapping",
        "key": "t_bytes32",
        "label": "mapping(bytes32 => struct AccessControlUpgradeable.RoleData)",
        "numberOfBytes": "32",
        "value": "t_struct(RoleData)34_storage"
      },
      "t_mapping(t_uint256,t_array(t_string_storage)2_storage)": {
        "encoding": "mapping",
        "key": "t_uint256",
        "label": "mapping(uint256 => string[2])",
        "numberOfBytes": "32",
        "value": "t_array(t_string_storage)2_storage"
      },
      "t_mapping(t_uint256,t_string_storage)": {
        "encoding": "mapping",
        "key": "t_uint256",
        "label": "mapping(uint256 => string)",
        "numberOfBytes": "32",
        "value": "t_string_storage"
      },
      "t_string_storage": {
        "encoding": "bytes",
        "label": "string",
        "numberOfBytes": "32"
      },
      "t_struct(RoleData)34_storage": {
        "encoding": "inplace",
        "label": "struct AccessControlUpgradeable.RoleData",
        "members": [
          {
            "astId": 31,
            "contract": "contracts/HyperCertSVG.sol:HyperCertSVG",
            "label": "members",
            "offset": 0,
            "slot": "0",
            "type": "t_mapping(t_address,t_bool)"
          },
          {
            "astId": 33,
            "contract": "contracts/HyperCertSVG.sol:HyperCertSVG",
            "label": "adminRole",
            "offset": 0,
            "slot": "1",
            "type": "t_bytes32"
          }
        ],
        "numberOfBytes": "64"
      },
      "t_uint16": {
        "encoding": "inplace",
        "label": "uint16",
        "numberOfBytes": "2"
      },
      "t_uint256": {
        "encoding": "inplace",
        "label": "uint256",
        "numberOfBytes": "32"
      },
      "t_uint8": {
        "encoding": "inplace",
        "label": "uint8",
        "numberOfBytes": "1"
      }
    }
  }
}