{
  "address": "0x1A03ebb982BD78Ab32d7a8059baF5A700BBa7560",
  "abi": [
    {
      "inputs": [],
      "stateMutability": "nonpayable",
      "type": "constructor"
    },
    {
      "anonymous": false,
      "inputs": [
        {
          "indexed": false,
          "internalType": "address",
          "name": "previousAdmin",
          "type": "address"
        },
        {
          "indexed": false,
          "internalType": "address",
          "name": "newAdmin",
          "type": "address"
        }
      ],
      "name": "AdminChanged",
      "type": "event"
    },
    {
      "anonymous": false,
      "inputs": [
        {
          "indexed": false,
          "internalType": "uint256",
          "name": "id",
          "type": "uint256"
        }
      ],
      "name": "BackgroundAdded",
      "type": "event"
    },
    {
      "anonymous": false,
      "inputs": [
        {
          "indexed": true,
          "internalType": "address",
          "name": "beacon",
          "type": "address"
        }
      ],
      "name": "BeaconUpgraded",
      "type": "event"
    },
    {
      "anonymous": false,
      "inputs": [
        {
          "indexed": false,
          "internalType": "uint256",
          "name": "id",
          "type": "uint256"
        },
        {
          "components": [
            {
              "internalType": "string",
              "name": "primary",
              "type": "string"
            },
            {
              "internalType": "string",
              "name": "labels",
              "type": "string"
            },
            {
              "internalType": "string",
              "name": "background",
              "type": "string"
            }
          ],
          "indexed": false,
          "internalType": "struct HyperCertSVG.SVGColors",
          "name": "colors",
          "type": "tuple"
        }
      ],
      "name": "ColorsAdded",
      "type": "event"
    },
    {
      "anonymous": false,
      "inputs": [
        {
          "indexed": false,
          "internalType": "uint8",
          "name": "version",
          "type": "uint8"
        }
      ],
      "name": "Initialized",
      "type": "event"
    },
    {
      "anonymous": false,
      "inputs": [
        {
          "indexed": true,
          "internalType": "bytes32",
          "name": "role",
          "type": "bytes32"
        },
        {
          "indexed": true,
          "internalType": "bytes32",
          "name": "previousAdminRole",
          "type": "bytes32"
        },
        {
          "indexed": true,
          "internalType": "bytes32",
          "name": "newAdminRole",
          "type": "bytes32"
        }
      ],
      "name": "RoleAdminChanged",
      "type": "event"
    },
    {
      "anonymous": false,
      "inputs": [
        {
          "indexed": true,
          "internalType": "bytes32",
          "name": "role",
          "type": "bytes32"
        },
        {
          "indexed": true,
          "internalType": "address",
          "name": "account",
          "type": "address"
        },
        {
          "indexed": true,
          "internalType": "address",
          "name": "sender",
          "type": "address"
        }
      ],
      "name": "RoleGranted",
      "type": "event"
    },
    {
      "anonymous": false,
      "inputs": [
        {
          "indexed": true,
          "internalType": "bytes32",
          "name": "role",
          "type": "bytes32"
        },
        {
          "indexed": true,
          "internalType": "address",
          "name": "account",
          "type": "address"
        },
        {
          "indexed": true,
          "internalType": "address",
          "name": "sender",
          "type": "address"
        }
      ],
      "name": "RoleRevoked",
      "type": "event"
    },
    {
      "anonymous": false,
      "inputs": [
        {
          "indexed": true,
          "internalType": "address",
          "name": "implementation",
          "type": "address"
        }
      ],
      "name": "Upgraded",
      "type": "event"
    },
    {
      "inputs": [],
      "name": "DEFAULT_ADMIN_ROLE",
      "outputs": [
        {
          "internalType": "bytes32",
          "name": "",
          "type": "bytes32"
        }
      ],
      "stateMutability": "view",
      "type": "function"
    },
    {
      "inputs": [],
      "name": "UPGRADER_ROLE",
      "outputs": [
        {
          "internalType": "bytes32",
          "name": "",
          "type": "bytes32"
        }
      ],
      "stateMutability": "view",
      "type": "function"
    },
    {
      "inputs": [
        {
          "internalType": "string",
          "name": "svgString",
          "type": "string"
        }
      ],
      "name": "addBackground",
      "outputs": [
        {
          "internalType": "uint256",
          "name": "id",
          "type": "uint256"
        }
      ],
      "stateMutability": "nonpayable",
      "type": "function"
    },
    {
      "inputs": [
        {
          "internalType": "string[3]",
          "name": "_colors",
          "type": "string[3]"
        }
      ],
      "name": "addColors",
      "outputs": [
        {
          "internalType": "uint256",
          "name": "id",
          "type": "uint256"
        }
      ],
      "stateMutability": "nonpayable",
      "type": "function"
    },
    {
      "inputs": [],
      "name": "backgroundCounter",
      "outputs": [
        {
          "internalType": "uint256",
          "name": "",
          "type": "uint256"
        }
      ],
      "stateMutability": "view",
      "type": "function"
    },
    {
      "inputs": [
        {
          "internalType": "uint256",
          "name": "",
          "type": "uint256"
        }
      ],
      "name": "backgrounds",
      "outputs": [
        {
          "internalType": "string",
          "name": "",
          "type": "string"
        }
      ],
      "stateMutability": "view",
      "type": "function"
    },
    {
      "inputs": [
        {
          "internalType": "uint256",
          "name": "",
          "type": "uint256"
        }
      ],
      "name": "colors",
      "outputs": [
        {
          "internalType": "string",
          "name": "primary",
          "type": "string"
        },
        {
          "internalType": "string",
          "name": "labels",
          "type": "string"
        },
        {
          "internalType": "string",
          "name": "background",
          "type": "string"
        }
      ],
      "stateMutability": "view",
      "type": "function"
    },
    {
      "inputs": [],
      "name": "colorsCounter",
      "outputs": [
        {
          "internalType": "uint256",
          "name": "",
          "type": "uint256"
        }
      ],
      "stateMutability": "view",
      "type": "function"
    },
    {
      "inputs": [
        {
          "internalType": "string",
          "name": "name",
          "type": "string"
        },
        {
          "internalType": "string[]",
          "name": "scopesOfImpact",
          "type": "string[]"
        },
        {
          "internalType": "uint64[2]",
          "name": "workTimeframe",
          "type": "uint64[2]"
        },
        {
          "internalType": "uint64[2]",
          "name": "impactTimeframe",
          "type": "uint64[2]"
        },
        {
          "internalType": "uint256",
          "name": "units",
          "type": "uint256"
        },
        {
          "internalType": "uint256",
          "name": "totalUnits",
          "type": "uint256"
        }
      ],
      "name": "generateSvgFraction",
      "outputs": [
        {
          "internalType": "string",
          "name": "",
          "type": "string"
        }
      ],
      "stateMutability": "view",
      "type": "function"
    },
    {
      "inputs": [
        {
          "internalType": "string",
          "name": "name",
          "type": "string"
        },
        {
          "internalType": "string[]",
          "name": "scopesOfImpact",
          "type": "string[]"
        },
        {
          "internalType": "uint64[2]",
          "name": "workTimeframe",
          "type": "uint64[2]"
        },
        {
          "internalType": "uint64[2]",
          "name": "impactTimeframe",
          "type": "uint64[2]"
        },
        {
          "internalType": "uint256",
          "name": "totalUnits",
          "type": "uint256"
        }
      ],
      "name": "generateSvgHyperCert",
      "outputs": [
        {
          "internalType": "string",
          "name": "",
          "type": "string"
        }
      ],
      "stateMutability": "view",
      "type": "function"
    },
    {
      "inputs": [
        {
          "internalType": "uint256",
          "name": "part",
          "type": "uint256"
        },
        {
          "internalType": "uint256",
          "name": "whole",
          "type": "uint256"
        }
      ],
      "name": "getPercent",
      "outputs": [
        {
          "internalType": "uint256",
          "name": "percent",
          "type": "uint256"
        }
      ],
      "stateMutability": "pure",
      "type": "function"
    },
    {
      "inputs": [
        {
          "internalType": "bytes32",
          "name": "role",
          "type": "bytes32"
        }
      ],
      "name": "getRoleAdmin",
      "outputs": [
        {
          "internalType": "bytes32",
          "name": "",
          "type": "bytes32"
        }
      ],
      "stateMutability": "view",
      "type": "function"
    },
    {
      "inputs": [
        {
          "internalType": "bytes32",
          "name": "role",
          "type": "bytes32"
        },
        {
          "internalType": "address",
          "name": "account",
          "type": "address"
        }
      ],
      "name": "grantRole",
      "outputs": [],
      "stateMutability": "nonpayable",
      "type": "function"
    },
    {
      "inputs": [
        {
          "internalType": "bytes32",
          "name": "role",
          "type": "bytes32"
        },
        {
          "internalType": "address",
          "name": "account",
          "type": "address"
        }
      ],
      "name": "hasRole",
      "outputs": [
        {
          "internalType": "bool",
          "name": "",
          "type": "bool"
        }
      ],
      "stateMutability": "view",
      "type": "function"
    },
    {
      "inputs": [],
      "name": "initialize",
      "outputs": [],
      "stateMutability": "nonpayable",
      "type": "function"
    },
    {
      "inputs": [],
      "name": "proxiableUUID",
      "outputs": [
        {
          "internalType": "bytes32",
          "name": "",
          "type": "bytes32"
        }
      ],
      "stateMutability": "view",
      "type": "function"
    },
    {
      "inputs": [
        {
          "internalType": "bytes32",
          "name": "role",
          "type": "bytes32"
        },
        {
          "internalType": "address",
          "name": "account",
          "type": "address"
        }
      ],
      "name": "renounceRole",
      "outputs": [],
      "stateMutability": "nonpayable",
      "type": "function"
    },
    {
      "inputs": [
        {
          "internalType": "bytes32",
          "name": "role",
          "type": "bytes32"
        },
        {
          "internalType": "address",
          "name": "account",
          "type": "address"
        }
      ],
      "name": "revokeRole",
      "outputs": [],
      "stateMutability": "nonpayable",
      "type": "function"
    },
    {
      "inputs": [
        {
          "internalType": "bytes4",
          "name": "interfaceId",
          "type": "bytes4"
        }
      ],
      "name": "supportsInterface",
      "outputs": [
        {
          "internalType": "bool",
          "name": "",
          "type": "bool"
        }
      ],
      "stateMutability": "view",
      "type": "function"
    },
    {
      "inputs": [],
      "name": "updateVersion",
      "outputs": [],
      "stateMutability": "nonpayable",
      "type": "function"
    },
    {
      "inputs": [
        {
          "internalType": "address",
          "name": "newImplementation",
          "type": "address"
        }
      ],
      "name": "upgradeTo",
      "outputs": [],
      "stateMutability": "nonpayable",
      "type": "function"
    },
    {
      "inputs": [
        {
          "internalType": "address",
          "name": "newImplementation",
          "type": "address"
        },
        {
          "internalType": "bytes",
          "name": "data",
          "type": "bytes"
        }
      ],
      "name": "upgradeToAndCall",
      "outputs": [],
      "stateMutability": "payable",
      "type": "function"
    },
    {
      "inputs": [],
      "name": "version",
      "outputs": [
        {
          "internalType": "uint256",
          "name": "",
          "type": "uint256"
        }
      ],
      "stateMutability": "view",
      "type": "function"
    }
  ],
  "numDeployments": 2,
  "solcInputHash": "29ce5052ce8ebf50caecb28ecaa24f1e",
  "bytecode": "0x60a0604052306080523480156200001557600080fd5b506200002062000026565b620000e8565b600054610100900460ff1615620000935760405162461bcd60e51b815260206004820152602760248201527f496e697469616c697a61626c653a20636f6e747261637420697320696e697469604482015266616c697a696e6760c81b606482015260840160405180910390fd5b60005460ff9081161015620000e6576000805460ff191660ff9081179091556040519081527f7f26b83ff96e1f2b6a682f133852f6798a09c465da95921460cefb38474024989060200160405180910390a15b565b6080516149406200012060003960008181610586015281816105c6015281816106b4015281816106f4015261078301526149406000f3fe6080604052600436106101405760003560e01c80635e70664c116100b657806391d148541161006f57806391d148541461035e57806394a2eeb81461037e578063a217fddf1461039e578063bd11f69d146103b3578063d547741f146103e2578063f72c0d8b1461040257600080fd5b80635e70664c146102b357806362219866146102d35780637c77f1c8146102f35780638129fc1c1461031357806381bb2158146103285780638ac1da721461033e57600080fd5b80633659cfe6116101085780633659cfe6146102275780633d5b23e31461024757806348c02dc11461025d5780634f1ef2861461027257806352d1902d1461028557806354fd4d501461029a57600080fd5b806301ffc9a71461014557806304bde4dd1461017a578063248a9ca3146101a75780632f2ff15d146101e557806336568abe14610207575b600080fd5b34801561015157600080fd5b50610165610160366004612e53565b610424565b60405190151581526020015b60405180910390f35b34801561018657600080fd5b5061019a610195366004612e7d565b610435565b6040516101719190612ee6565b3480156101b357600080fd5b506101d76101c2366004612e7d565b60009081526065602052604090206001015490565b604051908152602001610171565b3480156101f157600080fd5b50610205610200366004612f10565b6104cf565b005b34801561021357600080fd5b50610205610222366004612f10565b6104f9565b34801561023357600080fd5b50610205610242366004612f3c565b61057c565b34801561025357600080fd5b506101d760fe5481565b34801561026957600080fd5b5061020561065b565b61020561028036600461301c565b6106aa565b34801561029157600080fd5b506101d7610776565b3480156102a657600080fd5b5060fb5461ffff166101d7565b3480156102bf57600080fd5b506101d76102ce36600461309d565b610829565b3480156102df57600080fd5b506101d76102ee3660046130d1565b610896565b3480156102ff57600080fd5b506101d761030e3660046130f3565b61090f565b34801561031f57600080fd5b506102056109d7565b34801561033457600080fd5b506101d760ff5481565b34801561034a57600080fd5b5061019a61035936600461329e565b610b1c565b34801561036a57600080fd5b50610165610379366004612f10565b610b61565b34801561038a57600080fd5b5061019a610399366004613337565b610b8c565b3480156103aa57600080fd5b506101d7600081565b3480156103bf57600080fd5b506103d36103ce366004612e7d565b610bc9565b604051610171939291906133c5565b3480156103ee57600080fd5b506102056103fd366004612f10565b610d83565b34801561040e57600080fd5b506101d76000805160206148cd83398151915281565b600061042f82610da8565b92915050565b60fc602052600090815260409020805461044e90613408565b80601f016020809104026020016040519081016040528092919081815260200182805461047a90613408565b80156104c75780601f1061049c576101008083540402835291602001916104c7565b820191906000526020600020905b8154815290600101906020018083116104aa57829003601f168201915b505050505081565b6000828152606560205260409020600101546104ea81610ddd565b6104f48383610de7565b505050565b6001600160a01b038116331461056e5760405162461bcd60e51b815260206004820152602f60248201527f416363657373436f6e74726f6c3a2063616e206f6e6c792072656e6f756e636560448201526e103937b632b9903337b91039b2b63360891b60648201526084015b60405180910390fd5b6105788282610e6d565b5050565b6001600160a01b037f00000000000000000000000000000000000000000000000000000000000000001630036105c45760405162461bcd60e51b815260040161056590613442565b7f00000000000000000000000000000000000000000000000000000000000000006001600160a01b031661060d6000805160206148ed833981519152546001600160a01b031690565b6001600160a01b0316146106335760405162461bcd60e51b81526004016105659061348e565b61063c81610ed4565b6040805160008082526020820190925261065891839190610eec565b50565b6000805160206148cd83398151915261067381610ddd565b60fb80546001919060009061068d90849061ffff166134f0565b92506101000a81548161ffff021916908361ffff16021790555050565b6001600160a01b037f00000000000000000000000000000000000000000000000000000000000000001630036106f25760405162461bcd60e51b815260040161056590613442565b7f00000000000000000000000000000000000000000000000000000000000000006001600160a01b031661073b6000805160206148ed833981519152546001600160a01b031690565b6001600160a01b0316146107615760405162461bcd60e51b81526004016105659061348e565b61076a82610ed4565b61057882826001610eec565b6000306001600160a01b037f000000000000000000000000000000000000000000000000000000000000000016146108165760405162461bcd60e51b815260206004820152603860248201527f555550535570677261646561626c653a206d757374206e6f742062652063616c60448201527f6c6564207468726f7567682064656c656761746563616c6c00000000000000006064820152608401610565565b506000805160206148ed83398151915290565b60fe54600081815260fc602052604090206108448382613559565b506040518181527fabb811cda210349363acfb5609934d3717818d26783decefcd058c05030652f09060200160405180910390a1600160fe600082825461088b9190613618565b909155509092915050565b6000806108a684620186a061362b565b90508381116108e25760405162461bcd60e51b81526020600482015260086024820152674f766572666c6f7760c01b6044820152606401610565565b60006108ee8483613660565b6108f9906005613618565b9050610906600a82613660565b95945050505050565b60ff546040805160608101825283518152602080850151818301528483015182840152600084815260fd90915291909120815182919081906109519082613559565b50602082015160018201906109669082613559565b506040820151600282019061097b9082613559565b509050507f69986a664f3bef2d9bf80814131229e954b45295a8cb027d93f09b6009c57da982826040516109b092919061368a565b60405180910390a1600160ff60008282546109cb9190613618565b90915550919392505050565b600054610100900460ff16158080156109f75750600054600160ff909116105b80610a115750303b158015610a11575060005460ff166001145b610a745760405162461bcd60e51b815260206004820152602e60248201527f496e697469616c697a61626c653a20636f6e747261637420697320616c72656160448201526d191e481a5b9a5d1a585b1a5e995960921b6064820152608401610565565b6000805460ff191660011790558015610a97576000805461ff0019166101001790555b610a9f611057565b610aa7611057565b610ab2600033610de7565b610aca6000805160206148cd83398151915233610de7565b600060fe81905560ff558015610658576000805461ff0019169055604051600181527f7f26b83ff96e1f2b6a682f133852f6798a09c465da95921460cefb38474024989060200160405180910390a150565b6060610b26612df3565b8781526020810187905260408101869052606081018590526080810184905260a08101839052610b55816110c4565b98975050505050505050565b60009182526065602090815260408084206001600160a01b0393909316845291905290205460ff1690565b6060610b96612df3565b86815260208101869052604081018590526060810184905260a08101839052610bbe81611177565b979650505050505050565b60fd60205260009081526040902080548190610be490613408565b80601f0160208091040260200160405190810160405280929190818152602001828054610c1090613408565b8015610c5d5780601f10610c3257610100808354040283529160200191610c5d565b820191906000526020600020905b815481529060010190602001808311610c4057829003601f168201915b505050505090806001018054610c7290613408565b80601f0160208091040260200160405190810160405280929190818152602001828054610c9e90613408565b8015610ceb5780601f10610cc057610100808354040283529160200191610ceb565b820191906000526020600020905b815481529060010190602001808311610cce57829003601f168201915b505050505090806002018054610d0090613408565b80601f0160208091040260200160405190810160405280929190818152602001828054610d2c90613408565b8015610d795780601f10610d4e57610100808354040283529160200191610d79565b820191906000526020600020905b815481529060010190602001808311610d5c57829003601f168201915b5050505050905083565b600082815260656020526040902060010154610d9e81610ddd565b6104f48383610e6d565b60006001600160e01b03198216637965db0b60e01b148061042f57506301ffc9a760e01b6001600160e01b031983161461042f565b61065881336111ed565b610df18282610b61565b6105785760008281526065602090815260408083206001600160a01b03851684529091529020805460ff19166001179055610e293390565b6001600160a01b0316816001600160a01b0316837f2f8788117e7eff1d82e926ec794901d17c78024a50270940304540a733656f0d60405160405180910390a45050565b610e778282610b61565b156105785760008281526065602090815260408083206001600160a01b0385168085529252808320805460ff1916905551339285917ff6391f5c32d9c69d2a47ea670b442974b53935d1edc7fd64eb21e047a839171b9190a45050565b6000805160206148cd83398151915261057881610ddd565b7f4910fdfa16fed3260ed0e7147f7cc6da11a60208b5b9406d12a635614ffd91435460ff1615610f1f576104f483611251565b826001600160a01b03166352d1902d6040518163ffffffff1660e01b8152600401602060405180830381865afa925050508015610f79575060408051601f3d908101601f19168201909252610f76918101906136e8565b60015b610fdc5760405162461bcd60e51b815260206004820152602e60248201527f45524331393637557067726164653a206e657720696d706c656d656e7461746960448201526d6f6e206973206e6f74205555505360901b6064820152608401610565565b6000805160206148ed833981519152811461104b5760405162461bcd60e51b815260206004820152602960248201527f45524331393637557067726164653a20756e737570706f727465642070726f786044820152681a58589b195555525160ba1b6064820152608401610565565b506104f48383836112ed565b600054610100900460ff166110c25760405162461bcd60e51b815260206004820152602b60248201527f496e697469616c697a61626c653a20636f6e7472616374206973206e6f74206960448201526a6e697469616c697a696e6760a81b6064820152608401610565565b565b606060006110ef83602001516000815181106110e2576110e2613674565b6020026020010151611318565b9050611119836020015160008151811061110b5761110b613674565b60200260200101518261178f565b6111238483611947565b61112d8584611ad6565b6111378685611f10565b6111418786611ff2565b61114b8887612064565b604051602001611160969594939291906137c3565b604051602081830303815290604052915050919050565b6060600061119583602001516000815181106110e2576110e2613674565b90506111b1836020015160008151811061110b5761110b613674565b6111bb8483611947565b6111c58584611ad6565b6111cf8685611f10565b6111d98786612064565b604051602001611160959493929190613862565b6111f78282610b61565b6105785761120f816001600160a01b0316601461215c565b61121a83602061215c565b60405160200161122b9291906138e6565b60408051601f198184030181529082905262461bcd60e51b825261056591600401612ee6565b6001600160a01b0381163b6112be5760405162461bcd60e51b815260206004820152602d60248201527f455243313936373a206e657720696d706c656d656e746174696f6e206973206e60448201526c1bdd08184818dbdb9d1c9858dd609a1b6064820152608401610565565b6000805160206148ed83398151915280546001600160a01b0319166001600160a01b0392909216919091179055565b6112f6836122fe565b6000825111806113035750805b156104f457611312838361233e565b50505050565b61133c60405180606001604052806060815260200160608152602001606081525090565b60ff546000036113b25750506040805160a0810182526006606082018181526579656c6c6f7760d01b6080840152825282518084018452600581526433b932b2b760d91b602082810191909152808401919091528351808501855291825265707572706c6560d01b908201529181019190915290565b60fd60006113bf84612429565b81526020019081526020016000206040518060600160405290816000820180546113e890613408565b80601f016020809104026020016040519081016040528092919081815260200182805461141490613408565b80156114615780601f1061143657610100808354040283529160200191611461565b820191906000526020600020905b81548152906001019060200180831161144457829003601f168201915b5050505050815260200160018201805461147a90613408565b80601f01602080910402602001604051908101604052809291908181526020018280546114a690613408565b80156114f35780601f106114c8576101008083540402835291602001916114f3565b820191906000526020600020905b8154815290600101906020018083116114d657829003601f168201915b5050505050815260200160028201805461150c90613408565b80601f016020809104026020016040519081016040528092919081815260200182805461153890613408565b80156115855780601f1061155a57610100808354040283529160200191611585565b820191906000526020600020905b81548152906001019060200180831161156857829003601f168201915b505050505081525050905080600001515160000361178a576000805260fd60205260408051606081019091527fc34a738ec333e394a3927794cadc6dd0eb7d9eed0999d1e55021ea223ac362cc8054829082906115e190613408565b80601f016020809104026020016040519081016040528092919081815260200182805461160d90613408565b801561165a5780601f1061162f5761010080835404028352916020019161165a565b820191906000526020600020905b81548152906001019060200180831161163d57829003601f168201915b5050505050815260200160018201805461167390613408565b80601f016020809104026020016040519081016040528092919081815260200182805461169f90613408565b80156116ec5780601f106116c1576101008083540402835291602001916116ec565b820191906000526020600020905b8154815290600101906020018083116116cf57829003601f168201915b5050505050815260200160028201805461170590613408565b80601f016020809104026020016040519081016040528092919081815260200182805461173190613408565b801561177e5780601f106117535761010080835404028352916020019161177e565b820191906000526020600020905b81548152906001019060200180831161176157829003601f168201915b50505050508152505090505b919050565b6060600060fc60006117a086612462565b815260200190815260200160002080546117b990613408565b80601f01602080910402602001604051908101604052809291908181526020018280546117e590613408565b80156118325780601f1061180757610100808354040283529160200191611832565b820191906000526020600020905b81548152906001019060200180831161181557829003601f168201915b5050505050905080516000036118f8576000805260fc6020527f3d65bc8af043c3492e2efc328ab30f794c3cc5eba72564adef73ad45ad4ac2ea805461187790613408565b80601f01602080910402602001604051908101604052809291908181526020018280546118a390613408565b80156118f05780601f106118c5576101008083540402835291602001916118f0565b820191906000526020600020905b8154815290600101906020018083116118d357829003601f168201915b505050505090505b826040015160405160200161190d919061395b565b60408051601f1981840301815290829052845161192f92849190602001613a03565b60405160208183030381529060405291505092915050565b6060600080600061197b866040015160006002811061196857611968613674565b60200201516001600160401b0316612477565b92509250925060008060006119a0896040015160016002811061196857611968613674565b92509250925087604001516040516020016119bb9190613afd565b60405160208183030381529060405288602001516040516020016119df9190613bc1565b6040516020818303038152906040528960000151604051602001611a039190613c4b565b604051602081830303815290604052611a1b89612496565b611a2489612496565b611a2d89612496565b604051602001611a3f93929190613cce565b604051602081830303815290604052611a5787612496565b611a6087612496565b611a6987612496565b604051602001611a7b93929190613cce565b60408051601f1981840301815290829052611a9b94939291602001613d28565b60408051601f1981840301815290829052611ab99291602001613ec8565b604051602081830303815290604052965050505050505092915050565b606060008360000151604051602001611aef9190613ef7565b60405160208183030381529060405290506000611b17611b12866000015161259e565b6125cb565b9050600d811115611ea9576000611b31866000015161259e565b90506000611b57604051806040016040528060018152602001600160fd1b81525061259e565b60408051600680825260e08201909252919250600091829182918291816020015b6040805180820190915260008082526020820152815260200190600190039081611b785750506040805160038082526080820190925291925060009190602082015b6060815260200190600190039081611bba5790505090505b6003851015611dd2576000611be788886126a4565b9050611bf281511590565b15611c645787838681518110611c0a57611c0a613674565b6020026020010181905250611c4183611c3b604051806040016040528060018152602001600160fd1b81525061259e565b906126ca565b828781518110611c5357611c53613674565b602002602001018190525050611dd2565b600a611c6f826125cb565b611c799086613618565b1115611d8b5785600203611cc957611cab6040518060400160405280600381526020016217171760e91b81525061259e565b838681518110611cbd57611cbd613674565b60200260200101819052505b611cef83611c3b604051806040016040528060018152602001600160fd1b81525061259e565b828781518110611d0157611d01613674565b6020908102919091010152611d17600187613618565b60408051600680825260e08201909252919750816020015b6040805180820190915260008082526020820152815260200190600190039081611d2f5790505092508083600081518110611d6c57611d6c613674565b6020026020010181905250611d80816125cb565b935060019450611dcc565b611d94816125cb565b611d9e9085613618565b935080838681518110611db357611db3613674565b6020908102919091010152611dc9600186613618565b94505b50611bd2565b80600081518110611de557611de5613674565b6020026020010151604051602001611dfd9190613ef7565b60405160208183030381529060405281600181518110611e1f57611e1f613674565b6020026020010151604051602001611e379190613f45565b60405160208183030381529060405282600281518110611e5957611e59613674565b6020026020010151604051602001611e719190613f94565b60408051601f1981840301815290829052611e90939291602001613fc4565b6040516020818303038152906040529850505050505050505b8351604051611ebb9190602001614007565b60408051601f1981840301815290829052611eda918490602001614064565b60408051601f1981840301815290829052611ef7916020016140f9565b6040516020818303038152906040529250505092915050565b604080516020808201909252600081529083015151606091906003811115611f36575060035b60005b81811015611fbf576000611f6987602001518381518110611f5c57611f5c613674565b602002602001015161286d565b905083611f7f611f7a84601461362b565b612496565b611f888361288c565b604051602001611f9a9392919061417c565b6040516020818303038152906040529350508080611fb790614200565b915050611f39565b50602080850151604051611fd39201614219565b60408051601f1981840301815290829052611ef79184906020016142a7565b6060600061200884608001518560a00151610896565b835160405191925061201c9160200161435d565b6040516020818303038152906040526120368260026129fc565b60405160200161204691906143ba565b60408051601f198184030181529082905261192f9291602001614415565b60606000806000612085866060015160006002811061196857611968613674565b92509250925060008060006120aa896060015160016002811061196857611968613674565b92509250925087602001516040516020016120c591906144fa565b6040516020818303038152906040526120dd87612496565b6120e687612496565b6120ef87612496565b60405160200161210193929190613cce565b60405160208183030381529060405261211985612496565b61212285612496565b61212b85612496565b60405160200161213d93929190613cce565b60408051601f1981840301815290829052611ab993929160200161458a565b6060600061216b83600261362b565b612176906002613618565b6001600160401b0381111561218d5761218d612f57565b6040519080825280601f01601f1916602001820160405280156121b7576020820181803683370190505b509050600360fc1b816000815181106121d2576121d2613674565b60200101906001600160f81b031916908160001a905350600f60fb1b8160018151811061220157612201613674565b60200101906001600160f81b031916908160001a905350600061222584600261362b565b612230906001613618565b90505b60018111156122a8576f181899199a1a9b1b9c1cb0b131b232b360811b85600f166010811061226457612264613674565b1a60f81b82828151811061227a5761227a613674565b60200101906001600160f81b031916908160001a90535060049490941c936122a1816146e3565b9050612233565b5083156122f75760405162461bcd60e51b815260206004820181905260248201527f537472696e67733a20686578206c656e67746820696e73756666696369656e746044820152606401610565565b9392505050565b61230781611251565b6040516001600160a01b038216907fbc7cd75a20ee27fd9adebab32041f755214dbc6bffa90cc0225b39da2e5c2d3b90600090a250565b60606001600160a01b0383163b6123a65760405162461bcd60e51b815260206004820152602660248201527f416464726573733a2064656c65676174652063616c6c20746f206e6f6e2d636f6044820152651b9d1c9858dd60d21b6064820152608401610565565b600080846001600160a01b0316846040516123c191906146fa565b600060405180830381855af49150503d80600081146123fc576040519150601f19603f3d011682016040523d82523d6000602084013e612401565b606091505b5091509150610906828260405180606001604052806027815260200161490d60279139612ae4565b600060ff548260405160200161243f9190612ee6565b6040516020818303038152906040528051906020012060001c61042f9190614716565b6000600a8260405160200161243f9190612ee6565b60008080612489620151808504612b1d565b9196909550909350915050565b6060816000036124bd5750506040805180820190915260018152600360fc1b602082015290565b8160005b81156124e757806124d181614200565b91506124e09050600a83613660565b91506124c1565b6000816001600160401b0381111561250157612501612f57565b6040519080825280601f01601f19166020018201604052801561252b576020820181803683370190505b5090505b84156125965761254060018361472a565b915061254d600a86614716565b612558906030613618565b60f81b81838151811061256d5761256d613674565b60200101906001600160f81b031916908160001a90535061258f600a86613660565b945061252f565b949350505050565b60408051808201825260008082526020918201528151808301909252825182529182019181019190915290565b600080601f83602001516125df919061472a565b83519091506000906125f19083613618565b9050600092505b8082101561269d57815160ff16608081101561262057612619600184613618565b925061268a565b60e08160ff16101561263757612619600284613618565b60f08160ff16101561264e57612619600384613618565b60f88160ff16101561266557612619600484613618565b60fc8160ff16101561267c57612619600584613618565b612687600684613618565b92505b508261269581614200565b9350506125f8565b5050919050565b60408051808201909152600080825260208201526126c3838383612bb9565b5092915050565b606081516000036126ea575060408051602081019091526000815261042f565b6000600183516126fa919061472a565b8451612706919061362b565b905060005b83518110156127515783818151811061272657612726613674565b6020026020010151600001518261273d9190613618565b91508061274981614200565b91505061270b565b506000816001600160401b0381111561276c5761276c612f57565b6040519080825280601f01601f191660200182016040528015612796576020820181803683370190505b5090506020810160005b8551811015612862576127ee828783815181106127bf576127bf613674565b6020026020010151602001518884815181106127dd576127dd613674565b602002602001015160000151612c64565b85818151811061280057612800613674565b602002602001015160000151826128179190613618565b915060018651612827919061472a565b811015612850576128418288602001518960000151612c64565b865161284d9083613618565b91505b8061285a81614200565b9150506127a0565b509095945050505050565b8051600090829082036128835750600092915050565b50506020015190565b606060005b601b8160ff161080156128c55750828160ff16602081106128b4576128b4613674565b1a60f81b6001600160f81b03191615155b156128dc57806128d48161473d565b915050612891565b60008160ff166001600160401b038111156128f9576128f9612f57565b6040519080825280601f01601f191660200182016040528015612923576020820181803683370190505b509050600091505b601b8260ff1610801561295f5750838260ff166020811061294e5761294e613674565b1a60f81b6001600160f81b03191615155b156129bb57838260ff166020811061297957612979613674565b1a60f81b818360ff168151811061299257612992613674565b60200101906001600160f81b031916908160001a905350816129b38161473d565b92505061292b565b8084601c1a60f81b6001600160f81b0319161561259657806040516020016129e3919061475c565b6040516020818303038152906040529050949350505050565b60606000612a0b83600a614867565b90506000612a1c611f7a8387613660565b90506000612a2d611f7a8488614716565b9050600081519050600083604051602001612a489190614876565b60405160208183030381529060405290508660ff16821015612ab55760005b612a748360ff8a1661472a565b8160ff161015612ab35781604051602001612a8f919061489b565b60405160208183030381529060405291508080612aab9061473d565b915050612a67565b505b8083604051602001612ac8929190613ec8565b6040516020818303038152906040529550505050505092915050565b60608315612af35750816122f7565b825115612b035782518084602001fd5b8160405162461bcd60e51b81526004016105659190612ee6565b60008080836226496581018262023ab1600483020590506004600362023ab18302010590910390600062164b09610fa0600185010205905060046105b58202058303601f019250600061098f8460500281612b7a57612b7a61364a565b0590506000605061098f83020585039050600b820560301994909401606402929092018301996002600c90940290910392909201975095509350505050565b60408051808201909152600080825260208201526000612beb8560000151866020015186600001518760200151612cde565b602080870180519186019190915251909150612c07908261472a565b835284516020860151612c1a9190613618565b8103612c295760008552612c5b565b83518351612c379190613618565b85518690612c4690839061472a565b9052508351612c559082613618565b60208601525b50909392505050565b60208110612c9c5781518352612c7b602084613618565b9250612c88602083613618565b9150612c9560208261472a565b9050612c64565b6000198115612ccb576001612cb283602061472a565b612cbe906101006148c0565b612cc8919061472a565b90505b9151835183169219169190911790915250565b60008381868511612de95760208511612d985760008515612d2a576001612d0687602061472a565b612d1190600861362b565b612d1c9060026148c0565b612d26919061472a565b1990505b84518116600087612d3b8b8b613618565b612d45919061472a565b855190915083165b828114612d8a57818610612d7257612d658b8b613618565b9650505050505050612596565b85612d7c81614200565b965050838651169050612d4d565b859650505050505050612596565b508383206000905b612daa868961472a565b8211612de757858320808203612dc65783945050505050612596565b612dd1600185613618565b9350508180612ddf90614200565b925050612da0565b505b610bbe8787613618565b6040518060c001604052806060815260200160608152602001612e14612e35565b8152602001612e21612e35565b815260200160008152602001600081525090565b60405180604001604052806002906020820280368337509192915050565b600060208284031215612e6557600080fd5b81356001600160e01b0319811681146122f757600080fd5b600060208284031215612e8f57600080fd5b5035919050565b60005b83811015612eb1578181015183820152602001612e99565b50506000910152565b60008151808452612ed2816020860160208601612e96565b601f01601f19169290920160200192915050565b6020815260006122f76020830184612eba565b80356001600160a01b038116811461178a57600080fd5b60008060408385031215612f2357600080fd5b82359150612f3360208401612ef9565b90509250929050565b600060208284031215612f4e57600080fd5b6122f782612ef9565b634e487b7160e01b600052604160045260246000fd5b604051606081016001600160401b0381118282101715612f8f57612f8f612f57565b60405290565b604051601f8201601f191681016001600160401b0381118282101715612fbd57612fbd612f57565b604052919050565b60006001600160401b03831115612fde57612fde612f57565b612ff1601f8401601f1916602001612f95565b905082815283838301111561300557600080fd5b828260208301376000602084830101529392505050565b6000806040838503121561302f57600080fd5b61303883612ef9565b915060208301356001600160401b0381111561305357600080fd5b8301601f8101851361306457600080fd5b61307385823560208401612fc5565b9150509250929050565b600082601f83011261308e57600080fd5b6122f783833560208501612fc5565b6000602082840312156130af57600080fd5b81356001600160401b038111156130c557600080fd5b6125968482850161307d565b600080604083850312156130e457600080fd5b50508035926020909101359150565b6000602080838503121561310657600080fd5b82356001600160401b038082111561311d57600080fd5b818501915085601f83011261313157600080fd5b613139612f6d565b80606084018881111561314b57600080fd5b845b8181101561317f578035858111156131655760008081fd5b6131718b82890161307d565b85525092860192860161314d565b509098975050505050505050565b600082601f83011261319e57600080fd5b813560206001600160401b03808311156131ba576131ba612f57565b8260051b6131c9838201612f95565b93845285810183019383810190888611156131e357600080fd5b84880192505b85831015610b55578235848111156132015760008081fd5b61320f8a87838c010161307d565b83525091840191908401906131e9565b600082601f83011261323057600080fd5b604051604081016001600160401b03828210818311171561325357613253612f57565b6040918252829185018681111561326957600080fd5b855b8181101561329257803583811681146132845760008081fd5b84526020938401930161326b565b50929695505050505050565b60008060008060008061010087890312156132b857600080fd5b86356001600160401b03808211156132cf57600080fd5b6132db8a838b0161307d565b975060208901359150808211156132f157600080fd5b506132fe89828a0161318d565b95505061330e886040890161321f565b935061331d886080890161321f565b925060c0870135915060e087013590509295509295509295565b600080600080600060e0868803121561334f57600080fd5b85356001600160401b038082111561336657600080fd5b61337289838a0161307d565b9650602088013591508082111561338857600080fd5b506133958882890161318d565b9450506133a5876040880161321f565b92506133b4876080880161321f565b9497939650919460c0013592915050565b6060815260006133d86060830186612eba565b82810360208401526133ea8186612eba565b905082810360408401526133fe8185612eba565b9695505050505050565b600181811c9082168061341c57607f821691505b60208210810361343c57634e487b7160e01b600052602260045260246000fd5b50919050565b6020808252602c908201527f46756e6374696f6e206d7573742062652063616c6c6564207468726f7567682060408201526b19195b1959d85d1958d85b1b60a21b606082015260800190565b6020808252602c908201527f46756e6374696f6e206d7573742062652063616c6c6564207468726f7567682060408201526b6163746976652070726f787960a01b606082015260800190565b634e487b7160e01b600052601160045260246000fd5b61ffff8181168382160190808211156126c3576126c36134da565b601f8211156104f457600081815260208120601f850160051c810160208610156135325750805b601f850160051c820191505b818110156135515782815560010161353e565b505050505050565b81516001600160401b0381111561357257613572612f57565b613586816135808454613408565b8461350b565b602080601f8311600181146135bb57600084156135a35750858301515b600019600386901b1c1916600185901b178555613551565b600085815260208120601f198616915b828110156135ea578886015182559484019460019091019084016135cb565b50858210156136085787850151600019600388901b60f8161c191681555b5050505050600190811b01905550565b8082018082111561042f5761042f6134da565b6000816000190483118215151615613645576136456134da565b500290565b634e487b7160e01b600052601260045260246000fd5b60008261366f5761366f61364a565b500490565b634e487b7160e01b600052603260045260246000fd5b8281526040602082015260008251606060408401526136ac60a0840182612eba565b90506020840151603f19808584030160608601526136ca8383612eba565b92506040860151915080858403016080860152506133fe8282612eba565b6000602082840312156136fa57600080fd5b5051919050565b7f3c7376672077696474683d2235353022206865696768743d223835302220766981527f6577426f783d2230203020353530203835302220786d6c6e733d22687474703a60208201527f2f2f7777772e77332e6f72672f323030302f7376672220786d6c6e733a786c6960408201527f6e6b3d22687474703a2f2f7777772e77332e6f72672f313939392f786c696e6b606082015261111f60f11b608082015260820190565b600081516137b9818560208601612e96565b9290920192915050565b60006137ce82613701565b885160206137df8284838e01612e96565b895191909201916137f38284838d01612e96565b885191909201916138078284838c01612e96565b8751919092019161381b8284838b01612e96565b8651919092019161382f8284838a01612e96565b855191909201916138438284838901612e96565b50651e17b9bb339f60d11b910190815260060198975050505050505050565b600061386d82613701565b875161387d818360208c01612e96565b8751910190613890818360208b01612e96565b86519101906138a3818360208a01612e96565b85519101906138b6818360208901612e96565b84519101906138c9818360208801612e96565b651e17b9bb339f60d11b9101908152600601979650505050505050565b7f416363657373436f6e74726f6c3a206163636f756e742000000000000000000081526000835161391e816017850160208801612e96565b7001034b99036b4b9b9b4b733903937b6329607d1b601791840191820152835161394f816028840160208801612e96565b01602801949350505050565b7f3c726563742069643d226261636b67726f756e642d636f6c6f722d322220783d81527f222e352220793d2230222077696474683d2235353022206865696768743d223860208201527f3530222072783d223332222072793d22333222207374796c653d2266696c6c3a6040820152600160fd1b6060820152600082516139e9816061850160208701612e96565b6211179f60e91b6061939091019283015250606401919050565b60008451613a15818460208901612e96565b80830190507f3c672069643d22677261706869632d636f6c6f72223e3c706174682069643d2281527333b930b83434b196b1b7b637b916991110321e9160611b60208201528451613a6d816034840160208901612e96565b7f22207374796c653d2266696c6c3a206e6f6e653b207374726f6b653a20000000603492909101918201528351613aab816051840160208801612e96565b7f3b207374726f6b652d6d697465726c696d69743a2031303b207374726f6b652d60519290910191820152713bb4b23a341d1019383c1d91179f1e17b39f60711b607182015260830195945050505050565b7f3c706174682069643d22666f726567726f756e642d636f6c6f722d322220643d81527f224d3433352c3737372e383348313135762d3530483433357635305a6d302d3560208201527f33322e3833483131357633363048343335563234355a6d302d3132322e38334860408201527f313135762d3530483433357635305a22207374796c653d2266696c6c3a200000606082015260008251613ba781607e850160208701612e96565b6211179f60e91b607e939091019283015250608101919050565b7f3c672069643d22646976696465722d636f6c6f722220746578742d72656e646581527f72696e673d226f7074696d697a6553706565642220666f6e742d73697a653d22602082015269189811103334b6361e9160b11b604082015260008251613c3281604a850160208701612e96565b61111f60f11b604a939091019283015250604c01919050565b7f7374796c653d2266696c6c3a206e6f6e653b207374726f6b653a200000000000815260008251613c8381601b850160208701612e96565b7f3b207374726f6b652d6d697465726c696d69743a2031303b207374726f6b652d601b9390910192830152506d3bb4b23a341d1019383c1d91179f60911b603b820152604901919050565b60008451613ce0818460208901612e96565b8083019050602d60f81b8082528551613d00816001850160208a01612e96565b60019201918201528351613d1b816002840160208801612e96565b0160020195945050505050565b60008551613d3a818460208a01612e96565b80830190507f3c706174682069643d22646976696465722d636f6c6f722d322220643d224d3181527401a9b17199a961a989a171a9cb419199b971998911605d1b60208201528551613d93816035840160208a01612e96565b7f3c746578742069643d22776f726b2d706572696f642d636f6c6f722220747261603592909101918201527f6e73666f726d3d227472616e736c617465283133342e3735203130322e30362960558201527f22207374796c653d22666f6e742d66616d696c793a2048656c7665746963613b607582015272103337b73a16b9b4bd329d10189ab83c1d911f60691b60958201527f3c747370616e20783d22302220793d223022207374796c653d226c657474657260a88201527f2d73706163696e673a202d2e3035656d3b223e576f726b20506572696f643a2060c88201528451613e858160e8840160208901612e96565b610b55613ea9613ea360e884860101620101f160ed1b815260030190565b876137a7565b721e17ba39b830b71f1e17ba32bc3a1f1e17b39f60691b815260130190565b60008351613eda818460208801612e96565b835190830190613eee818360208801612e96565b01949350505050565b721e3a39b830b7103c1e911811103c9e9118111f60691b81528151600090613f26816013850160208701612e96565b671e17ba39b830b71f60c11b6013939091019283015250601b01919050565b731e3a39b830b7103c1e911811103c9e91199b111f60611b81528151600090613f75816014850160208701612e96565b671e17ba39b830b71f60c11b6014939091019283015250601c01919050565b731e3a39b830b7103c1e911811103c9e911b99111f60611b81528151600090613f75816014850160208701612e96565b60008451613fd6818460208901612e96565b845190830190613fea818360208901612e96565b8451910190613ffd818360208801612e96565b0195945050505050565b6c039ba3cb6329e913334b6361d1609d1b8152815160009061403081600d850160208701612e96565b7f3b20666f6e742d66616d696c793a204d6f6e61636f3b223e0000000000000000600d939091019283015250602501919050565b7f3c746578742069643d226e616d652d636f6c6f722d3222207472616e73666f7281527f6d3d227472616e736c617465283135362e3335203330302922200000000000006020820152600083516140c281603a850160208801612e96565b8351908301906140d981603a840160208801612e96565b661e17ba32bc3a1f60c91b603a9290910191820152604101949350505050565b7f3c672069643d226e616d652d636f6c6f722220746578742d72656e646572696e81527f673d226f7074696d697a6553706565642220666f6e742d73697a653d223330226020820152601f60f91b604082015260008251614161816041850160208701612e96565b631e17b39f60e11b6041939091019283015250604501919050565b6000845161418e818460208901612e96565b6f1e3a39b830b7103c1e911811103c9e9160811b90830190815284516141bb816010840160208901612e96565b61111f60f11b6010929091019182015283516141de816012840160208801612e96565b671e17ba39b830b71f60c11b60129290910191820152601a0195945050505050565b600060018201614212576142126134da565b5060010190565b7f3c672069643d226465736372697074696f6e2d636f6c6f722220746578742d7281527f656e646572696e673d226f7074696d697a6553706565642220666f6e742d736960208201526d3d329e91189a91103334b6361e9160911b60408201526000825161428e81604e850160208701612e96565b61111f60f11b604e939091019283015250605001919050565b600083516142b9818460208801612e96565b80830190507f3c74657874207472616e73666f726d3d227472616e736c61746528313535203481527f36302922207374796c653d22666f6e742d66616d696c793a2048656c7665746960208201527531b09d903337b73a16b9b4bd329d10189ab83c1d911f60511b60408201528351614339816056840160208801612e96565b6a1e17ba32bc3a1f1e17b39f60a91b60569290910191820152606101949350505050565b6c039ba3cb6329e913334b6361d1609d1b8152815160009061438681600d850160208701612e96565b7f3b20666f6e742d66616d696c793a204d6f6e61636f223e000000000000000000600d939091019283015250602401919050565b721e3a39b830b7103c1e911811103c9e9118111f60691b815281516000906143e9816013850160208701612e96565b7410129e17ba39b830b71f1e17ba32bc3a1f1e17b39f60591b6013939091019283015250602801919050565b7f3c672069643d226672616374696f6e2d636f6c6f722220746578742d72656e6481527f6572696e673d226f7074696d697a6553706565642220666f6e742d73697a653d602082015264111998111f60d91b60408201527f3c746578742069643d226672616374696f6e2d636f6c6f722d3222207472616e60458201527f73666f726d3d227472616e736c617465283135362e3335203536382e303329226065820152600160fd1b6085820152600083516144d7816086850160208801612e96565b8351908301906144ee816086840160208801612e96565b01608601949350505050565b7f3c672069643d22696d706163742d706572696f642d636f6c6f7222207465787481527f2d72656e646572696e673d226f7074696d697a6553706565642220666f6e742d60208201526f39b4bd329e91189811103334b6361e9160811b604082015260008251614571816050850160208701612e96565b61111f60f11b6050939091019283015250605201919050565b6000845161459c818460208901612e96565b80830190507f3c746578742069643d22696d706163742d706572696f642d636f6c6f722d322281527f207472616e73666f726d3d227472616e736c617465283133342e37352037353860208201527f2922207374796c653d22666f6e742d66616d696c793a2048656c7665746963616040820152731d903337b73a16b9b4bd329d10189ab83c1d911f60611b60608201527f3c747370616e20783d22302220793d223022207374796c653d226c657474657260748201527f2d73706163696e673a202d2e3035656d3b223e496d7061637420506572696f6460948201526101d160f51b60b482015284516146978160b6840160208901612e96565b620101f160ed1b60b6929091019182015283516146bb8160b9840160208801612e96565b610bbe60b982840101721e17ba39b830b71f1e17ba32bc3a1f1e17b39f60691b815260130190565b6000816146f2576146f26134da565b506000190190565b6000825161470c818460208701612e96565b9190910192915050565b6000826147255761472561364a565b500690565b8181038181111561042f5761042f6134da565b600060ff821660ff8103614753576147536134da565b60010192915050565b6000825161476e818460208701612e96565b6217171760e91b920191825250600301919050565b600181815b808511156147be5781600019048211156147a4576147a46134da565b808516156147b157918102915b93841c9390800290614788565b509250929050565b6000826147d55750600161042f565b816147e25750600061042f565b81600181146147f857600281146148025761481e565b600191505061042f565b60ff841115614813576148136134da565b50506001821b61042f565b5060208310610133831016604e8410600b8410161715614841575081810a61042f565b61484b8383614783565b806000190482111561485f5761485f6134da565b029392505050565b60006122f760ff8416836147c6565b60008251614888818460208701612e96565b601760f91b920191825250600101919050565b600082516148ad818460208701612e96565b600360fc1b920191825250600101919050565b60006122f783836147c656fe189ab7a9244df0848122154315af71fe140f3db0fe014031783b0946b8c9d2e3360894a13ba1a3210667c828492db98dca3e2076cc3735a920a3ca505d382bbc416464726573733a206c6f772d6c6576656c2064656c65676174652063616c6c206661696c6564a164736f6c6343000810000a",
  "devdoc": {
    "kind": "dev",
    "methods": {
      "constructor": {
        "custom:oz-upgrades-unsafe-allow": "constructor"
      },
      "getRoleAdmin(bytes32)": {
        "details": "Returns the admin role that controls `role`. See {grantRole} and {revokeRole}. To change a role's admin, use {_setRoleAdmin}."
      },
      "grantRole(bytes32,address)": {
        "details": "Grants `role` to `account`. If `account` had not been already granted `role`, emits a {RoleGranted} event. Requirements: - the caller must have ``role``'s admin role. May emit a {RoleGranted} event."
      },
      "hasRole(bytes32,address)": {
        "details": "Returns `true` if `account` has been granted `role`."
      },
      "proxiableUUID()": {
        "details": "Implementation of the ERC1822 {proxiableUUID} function. This returns the storage slot used by the implementation. It is used to validate that the this implementation remains valid after an upgrade. IMPORTANT: A proxy pointing at a proxiable contract should not be considered proxiable itself, because this risks bricking a proxy that upgrades to it, by delegating to itself until out of gas. Thus it is critical that this function revert if invoked through a proxy. This is guaranteed by the `notDelegated` modifier."
      },
      "renounceRole(bytes32,address)": {
        "details": "Revokes `role` from the calling account. Roles are often managed via {grantRole} and {revokeRole}: this function's purpose is to provide a mechanism for accounts to lose their privileges if they are compromised (such as when a trusted device is misplaced). If the calling account had been revoked `role`, emits a {RoleRevoked} event. Requirements: - the caller must be `account`. May emit a {RoleRevoked} event."
      },
      "revokeRole(bytes32,address)": {
        "details": "Revokes `role` from `account`. If `account` had been granted `role`, emits a {RoleRevoked} event. Requirements: - the caller must have ``role``'s admin role. May emit a {RoleRevoked} event."
      },
      "supportsInterface(bytes4)": {
        "params": {
          "interfaceId": "Id of the interface"
        },
        "returns": {
          "_0": "true, if the interface is supported"
        }
      },
      "upgradeTo(address)": {
        "details": "Upgrade the implementation of the proxy to `newImplementation`. Calls {_authorizeUpgrade}. Emits an {Upgraded} event."
      },
      "upgradeToAndCall(address,bytes)": {
        "details": "Upgrade the implementation of the proxy to `newImplementation`, and subsequently execute the function call encoded in `data`. Calls {_authorizeUpgrade}. Emits an {Upgraded} event."
      }
    },
    "stateVariables": {
      "backgrounds": {
        "details": "id => background"
      },
      "colors": {
        "details": "id => colors"
      }
    },
    "version": 1
  },
  "userdoc": {
    "kind": "user",
    "methods": {
      "UPGRADER_ROLE()": {
        "notice": "User role required in order to upgrade the contract"
      },
      "constructor": {
        "notice": "Contract constructor logic"
      },
      "initialize()": {
        "notice": "Contract initialization logic"
      },
      "supportsInterface(bytes4)": {
        "notice": "Returns a flag indicating if the contract supports the specified interface"
      },
      "updateVersion()": {
        "notice": "Update the contract version numberOnly allowed for member of UPGRADER_ROLE"
      },
      "version()": {
        "notice": "gets the current version of the contract"
      }
    },
    "version": 1
  },
  "storageLayout": {
    "storage": [
      {
        "astId": 808,
        "contract": "contracts/HyperCertSVG.sol:HyperCertSVG",
        "label": "_initialized",
        "offset": 0,
        "slot": "0",
        "type": "t_uint8"
      },
      {
        "astId": 811,
        "contract": "contracts/HyperCertSVG.sol:HyperCertSVG",
        "label": "_initializing",
        "offset": 1,
        "slot": "0",
        "type": "t_bool"
      },
      {
        "astId": 1372,
        "contract": "contracts/HyperCertSVG.sol:HyperCertSVG",
        "label": "__gap",
        "offset": 0,
        "slot": "1",
        "type": "t_array(t_uint256)50_storage"
      },
      {
        "astId": 1702,
        "contract": "contracts/HyperCertSVG.sol:HyperCertSVG",
        "label": "__gap",
        "offset": 0,
        "slot": "51",
        "type": "t_array(t_uint256)50_storage"
      },
      {
        "astId": 39,
        "contract": "contracts/HyperCertSVG.sol:HyperCertSVG",
        "label": "_roles",
        "offset": 0,
        "slot": "101",
        "type": "t_mapping(t_bytes32,t_struct(RoleData)34_storage)"
      },
      {
        "astId": 338,
        "contract": "contracts/HyperCertSVG.sol:HyperCertSVG",
        "label": "__gap",
        "offset": 0,
        "slot": "102",
        "type": "t_array(t_uint256)49_storage"
      },
      {
        "astId": 790,
        "contract": "contracts/HyperCertSVG.sol:HyperCertSVG",
        "label": "__gap",
        "offset": 0,
        "slot": "151",
        "type": "t_array(t_uint256)50_storage"
      },
      {
        "astId": 1087,
        "contract": "contracts/HyperCertSVG.sol:HyperCertSVG",
        "label": "__gap",
        "offset": 0,
        "slot": "201",
        "type": "t_array(t_uint256)50_storage"
      },
      {
        "astId": 1743,
        "contract": "contracts/HyperCertSVG.sol:HyperCertSVG",
        "label": "_version",
        "offset": 0,
        "slot": "251",
        "type": "t_uint16"
      },
      {
        "astId": 1748,
        "contract": "contracts/HyperCertSVG.sol:HyperCertSVG",
        "label": "backgrounds",
        "offset": 0,
        "slot": "252",
        "type": "t_mapping(t_uint256,t_string_storage)"
      },
      {
        "astId": 1754,
        "contract": "contracts/HyperCertSVG.sol:HyperCertSVG",
        "label": "colors",
        "offset": 0,
        "slot": "253",
        "type": "t_mapping(t_uint256,t_struct(SVGColors)1783_storage)"
      },
      {
        "astId": 1756,
        "contract": "contracts/HyperCertSVG.sol:HyperCertSVG",
        "label": "backgroundCounter",
        "offset": 0,
        "slot": "254",
        "type": "t_uint256"
      },
      {
        "astId": 1758,
        "contract": "contracts/HyperCertSVG.sol:HyperCertSVG",
        "label": "colorsCounter",
        "offset": 0,
        "slot": "255",
        "type": "t_uint256"
      }
    ],
    "types": {
      "t_address": {
        "encoding": "inplace",
        "label": "address",
        "numberOfBytes": "20"
      },
      "t_array(t_uint256)49_storage": {
        "base": "t_uint256",
        "encoding": "inplace",
        "label": "uint256[49]",
        "numberOfBytes": "1568"
      },
      "t_array(t_uint256)50_storage": {
        "base": "t_uint256",
        "encoding": "inplace",
        "label": "uint256[50]",
        "numberOfBytes": "1600"
      },
      "t_bool": {
        "encoding": "inplace",
        "label": "bool",
        "numberOfBytes": "1"
      },
      "t_bytes32": {
        "encoding": "inplace",
        "label": "bytes32",
        "numberOfBytes": "32"
      },
      "t_mapping(t_address,t_bool)": {
        "encoding": "mapping",
        "key": "t_address",
        "label": "mapping(address => bool)",
        "numberOfBytes": "32",
        "value": "t_bool"
      },
      "t_mapping(t_bytes32,t_struct(RoleData)34_storage)": {
        "encoding": "mapping",
        "key": "t_bytes32",
        "label": "mapping(bytes32 => struct AccessControlUpgradeable.RoleData)",
        "numberOfBytes": "32",
        "value": "t_struct(RoleData)34_storage"
      },
      "t_mapping(t_uint256,t_string_storage)": {
        "encoding": "mapping",
        "key": "t_uint256",
        "label": "mapping(uint256 => string)",
        "numberOfBytes": "32",
        "value": "t_string_storage"
      },
      "t_mapping(t_uint256,t_struct(SVGColors)1783_storage)": {
        "encoding": "mapping",
        "key": "t_uint256",
        "label": "mapping(uint256 => struct HyperCertSVG.SVGColors)",
        "numberOfBytes": "32",
        "value": "t_struct(SVGColors)1783_storage"
      },
      "t_string_storage": {
        "encoding": "bytes",
        "label": "string",
        "numberOfBytes": "32"
      },
      "t_struct(RoleData)34_storage": {
        "encoding": "inplace",
        "label": "struct AccessControlUpgradeable.RoleData",
        "members": [
          {
            "astId": 31,
            "contract": "contracts/HyperCertSVG.sol:HyperCertSVG",
            "label": "members",
            "offset": 0,
            "slot": "0",
            "type": "t_mapping(t_address,t_bool)"
          },
          {
            "astId": 33,
            "contract": "contracts/HyperCertSVG.sol:HyperCertSVG",
            "label": "adminRole",
            "offset": 0,
            "slot": "1",
            "type": "t_bytes32"
          }
        ],
        "numberOfBytes": "64"
      },
      "t_struct(SVGColors)1783_storage": {
        "encoding": "inplace",
        "label": "struct HyperCertSVG.SVGColors",
        "members": [
          {
            "astId": 1778,
            "contract": "contracts/HyperCertSVG.sol:HyperCertSVG",
            "label": "primary",
            "offset": 0,
            "slot": "0",
            "type": "t_string_storage"
          },
          {
            "astId": 1780,
            "contract": "contracts/HyperCertSVG.sol:HyperCertSVG",
            "label": "labels",
            "offset": 0,
            "slot": "1",
            "type": "t_string_storage"
          },
          {
            "astId": 1782,
            "contract": "contracts/HyperCertSVG.sol:HyperCertSVG",
            "label": "background",
            "offset": 0,
            "slot": "2",
            "type": "t_string_storage"
          }
        ],
        "numberOfBytes": "96"
      },
      "t_uint16": {
        "encoding": "inplace",
        "label": "uint16",
        "numberOfBytes": "2"
      },
      "t_uint256": {
        "encoding": "inplace",
        "label": "uint256",
        "numberOfBytes": "32"
      },
      "t_uint8": {
        "encoding": "inplace",
        "label": "uint8",
        "numberOfBytes": "1"
      }
    }
  }
}