{
  "address": "0xb89F8441bdDd3507ca4E744F7A91D5da727CC4c2",
  "abi": [
    {
      "inputs": [],
      "stateMutability": "nonpayable",
      "type": "constructor"
    },
    {
      "inputs": [
        {
          "internalType": "uint256",
          "name": "tokenId",
          "type": "uint256"
        }
      ],
      "name": "AlreadyMinted",
      "type": "error"
    },
    {
      "inputs": [],
      "name": "ConflictingClaim",
      "type": "error"
    },
    {
      "inputs": [],
      "name": "DuplicateScope",
      "type": "error"
    },
    {
      "inputs": [],
      "name": "EmptyInput",
      "type": "error"
    },
    {
      "inputs": [
        {
          "internalType": "uint256",
          "name": "transferAmount",
          "type": "uint256"
        },
        {
          "internalType": "uint256",
          "name": "allowance",
          "type": "uint256"
        }
      ],
      "name": "InsufficientAllowance",
      "type": "error"
    },
    {
      "inputs": [
        {
          "internalType": "uint256",
          "name": "transferAmount",
          "type": "uint256"
        },
        {
          "internalType": "uint256",
          "name": "balance",
          "type": "uint256"
        }
      ],
      "name": "InsufficientBalance",
      "type": "error"
    },
    {
      "inputs": [
        {
          "internalType": "uint256",
          "name": "tokenId",
          "type": "uint256"
        },
        {
          "internalType": "address",
          "name": "from",
          "type": "address"
        },
        {
          "internalType": "address",
          "name": "to",
          "type": "address"
        }
      ],
      "name": "InvalidApproval",
      "type": "error"
    },
    {
      "inputs": [
        {
          "internalType": "uint256",
          "name": "tokenId",
          "type": "uint256"
        }
      ],
      "name": "InvalidID",
      "type": "error"
    },
    {
      "inputs": [],
      "name": "InvalidScope",
      "type": "error"
    },
    {
      "inputs": [
        {
          "internalType": "uint64",
          "name": "from",
          "type": "uint64"
        },
        {
          "internalType": "uint64",
          "name": "to",
          "type": "uint64"
        }
      ],
      "name": "InvalidTimeframe",
      "type": "error"
    },
    {
      "inputs": [
        {
          "internalType": "uint256",
          "name": "tokenId",
          "type": "uint256"
        }
      ],
      "name": "NonExistentToken",
      "type": "error"
    },
    {
      "inputs": [],
      "name": "NotApprovedOrOwner",
      "type": "error"
    },
    {
      "inputs": [
        {
          "internalType": "uint256",
          "name": "fromTokenId",
          "type": "uint256"
        },
        {
          "internalType": "uint256",
          "name": "toTokenId",
          "type": "uint256"
        }
      ],
      "name": "SlotsMismatch",
      "type": "error"
    },
    {
      "inputs": [],
      "name": "ToZeroAddress",
      "type": "error"
    },
    {
      "anonymous": false,
      "inputs": [
        {
          "indexed": false,
          "internalType": "address",
          "name": "previousAdmin",
          "type": "address"
        },
        {
          "indexed": false,
          "internalType": "address",
          "name": "newAdmin",
          "type": "address"
        }
      ],
      "name": "AdminChanged",
      "type": "event"
    },
    {
      "anonymous": false,
      "inputs": [
        {
          "indexed": true,
          "internalType": "address",
          "name": "owner",
          "type": "address"
        },
        {
          "indexed": true,
          "internalType": "address",
          "name": "approved",
          "type": "address"
        },
        {
          "indexed": true,
          "internalType": "uint256",
          "name": "tokenId",
          "type": "uint256"
        }
      ],
      "name": "Approval",
      "type": "event"
    },
    {
      "anonymous": false,
      "inputs": [
        {
          "indexed": true,
          "internalType": "address",
          "name": "owner",
          "type": "address"
        },
        {
          "indexed": true,
          "internalType": "address",
          "name": "operator",
          "type": "address"
        },
        {
          "indexed": false,
          "internalType": "bool",
          "name": "approved",
          "type": "bool"
        }
      ],
      "name": "ApprovalForAll",
      "type": "event"
    },
    {
      "anonymous": false,
      "inputs": [
        {
          "indexed": true,
          "internalType": "uint256",
          "name": "_tokenId",
          "type": "uint256"
        },
        {
          "indexed": true,
          "internalType": "address",
          "name": "_operator",
          "type": "address"
        },
        {
          "indexed": false,
          "internalType": "uint256",
          "name": "_value",
          "type": "uint256"
        }
      ],
      "name": "ApprovalValue",
      "type": "event"
    },
    {
      "anonymous": false,
      "inputs": [
        {
          "indexed": true,
          "internalType": "address",
          "name": "beacon",
          "type": "address"
        }
      ],
      "name": "BeaconUpgraded",
      "type": "event"
    },
    {
      "anonymous": false,
      "inputs": [
        {
          "indexed": false,
          "internalType": "uint256",
          "name": "id",
          "type": "uint256"
        },
        {
          "indexed": false,
          "internalType": "address",
          "name": "minter",
          "type": "address"
        },
        {
          "indexed": false,
          "internalType": "uint8[]",
          "name": "fractions",
          "type": "uint8[]"
        }
      ],
      "name": "ImpactClaimed",
      "type": "event"
    },
    {
      "anonymous": false,
      "inputs": [
        {
          "indexed": false,
          "internalType": "bytes32",
          "name": "id",
          "type": "bytes32"
        },
        {
          "indexed": false,
          "internalType": "string",
          "name": "text",
          "type": "string"
        }
      ],
      "name": "ImpactScopeAdded",
      "type": "event"
    },
    {
      "anonymous": false,
      "inputs": [
        {
          "indexed": false,
          "internalType": "uint8",
          "name": "version",
          "type": "uint8"
        }
      ],
      "name": "Initialized",
      "type": "event"
    },
    {
      "anonymous": false,
      "inputs": [
        {
          "indexed": false,
          "internalType": "bytes32",
          "name": "id",
          "type": "bytes32"
        },
        {
          "indexed": false,
          "internalType": "string",
          "name": "text",
          "type": "string"
        }
      ],
      "name": "RightAdded",
      "type": "event"
    },
    {
      "anonymous": false,
      "inputs": [
        {
          "indexed": true,
          "internalType": "bytes32",
          "name": "role",
          "type": "bytes32"
        },
        {
          "indexed": true,
          "internalType": "bytes32",
          "name": "previousAdminRole",
          "type": "bytes32"
        },
        {
          "indexed": true,
          "internalType": "bytes32",
          "name": "newAdminRole",
          "type": "bytes32"
        }
      ],
      "name": "RoleAdminChanged",
      "type": "event"
    },
    {
      "anonymous": false,
      "inputs": [
        {
          "indexed": true,
          "internalType": "bytes32",
          "name": "role",
          "type": "bytes32"
        },
        {
          "indexed": true,
          "internalType": "address",
          "name": "account",
          "type": "address"
        },
        {
          "indexed": true,
          "internalType": "address",
          "name": "sender",
          "type": "address"
        }
      ],
      "name": "RoleGranted",
      "type": "event"
    },
    {
      "anonymous": false,
      "inputs": [
        {
          "indexed": true,
          "internalType": "bytes32",
          "name": "role",
          "type": "bytes32"
        },
        {
          "indexed": true,
          "internalType": "address",
          "name": "account",
          "type": "address"
        },
        {
          "indexed": true,
          "internalType": "address",
          "name": "sender",
          "type": "address"
        }
      ],
      "name": "RoleRevoked",
      "type": "event"
    },
    {
      "anonymous": false,
      "inputs": [
        {
          "indexed": true,
          "internalType": "uint256",
          "name": "_tokenId",
          "type": "uint256"
        },
        {
          "indexed": true,
          "internalType": "uint256",
          "name": "_oldSlot",
          "type": "uint256"
        },
        {
          "indexed": true,
          "internalType": "uint256",
          "name": "_newSlot",
          "type": "uint256"
        }
      ],
      "name": "SlotChanged",
      "type": "event"
    },
    {
      "anonymous": false,
      "inputs": [
        {
          "indexed": true,
          "internalType": "address",
          "name": "from",
          "type": "address"
        },
        {
          "indexed": true,
          "internalType": "address",
          "name": "to",
          "type": "address"
        },
        {
          "indexed": true,
          "internalType": "uint256",
          "name": "tokenId",
          "type": "uint256"
        }
      ],
      "name": "Transfer",
      "type": "event"
    },
    {
      "anonymous": false,
      "inputs": [
        {
          "indexed": true,
          "internalType": "uint256",
          "name": "_fromTokenId",
          "type": "uint256"
        },
        {
          "indexed": true,
          "internalType": "uint256",
          "name": "_toTokenId",
          "type": "uint256"
        },
        {
          "indexed": false,
          "internalType": "uint256",
          "name": "_value",
          "type": "uint256"
        }
      ],
      "name": "TransferValue",
      "type": "event"
    },
    {
      "anonymous": false,
      "inputs": [
        {
          "indexed": true,
          "internalType": "address",
          "name": "implementation",
          "type": "address"
        }
      ],
      "name": "Upgraded",
      "type": "event"
    },
    {
      "anonymous": false,
      "inputs": [
        {
          "indexed": false,
          "internalType": "bytes32",
          "name": "id",
          "type": "bytes32"
        },
        {
          "indexed": false,
          "internalType": "string",
          "name": "text",
          "type": "string"
        }
      ],
      "name": "WorkScopeAdded",
      "type": "event"
    },
    {
      "inputs": [],
      "name": "DECIMALS",
      "outputs": [
        {
          "internalType": "uint8",
          "name": "",
          "type": "uint8"
        }
      ],
      "stateMutability": "view",
      "type": "function"
    },
    {
      "inputs": [],
      "name": "DEFAULT_ADMIN_ROLE",
      "outputs": [
        {
          "internalType": "bytes32",
          "name": "",
          "type": "bytes32"
        }
      ],
      "stateMutability": "view",
      "type": "function"
    },
    {
      "inputs": [],
      "name": "NAME",
      "outputs": [
        {
          "internalType": "string",
          "name": "",
          "type": "string"
        }
      ],
      "stateMutability": "view",
      "type": "function"
    },
    {
      "inputs": [],
      "name": "SYMBOL",
      "outputs": [
        {
          "internalType": "string",
          "name": "",
          "type": "string"
        }
      ],
      "stateMutability": "view",
      "type": "function"
    },
    {
      "inputs": [],
      "name": "UPGRADER_ROLE",
      "outputs": [
        {
          "internalType": "bytes32",
          "name": "",
          "type": "bytes32"
        }
      ],
      "stateMutability": "view",
      "type": "function"
    },
    {
      "inputs": [
        {
          "internalType": "string",
          "name": "text",
          "type": "string"
        }
      ],
      "name": "addImpactScope",
      "outputs": [
        {
          "internalType": "bytes32",
          "name": "id",
          "type": "bytes32"
        }
      ],
      "stateMutability": "nonpayable",
      "type": "function"
    },
    {
      "inputs": [
        {
          "internalType": "string",
          "name": "text",
          "type": "string"
        }
      ],
      "name": "addRight",
      "outputs": [
        {
          "internalType": "bytes32",
          "name": "id",
          "type": "bytes32"
        }
      ],
      "stateMutability": "nonpayable",
      "type": "function"
    },
    {
      "inputs": [
        {
          "internalType": "string",
          "name": "text",
          "type": "string"
        }
      ],
      "name": "addWorkScope",
      "outputs": [
        {
          "internalType": "bytes32",
          "name": "id",
          "type": "bytes32"
        }
      ],
      "stateMutability": "nonpayable",
      "type": "function"
    },
    {
      "inputs": [
        {
          "internalType": "uint256",
          "name": "tokenId_",
          "type": "uint256"
        },
        {
          "internalType": "address",
          "name": "operator_",
          "type": "address"
        }
      ],
      "name": "allowance",
      "outputs": [
        {
          "internalType": "uint256",
          "name": "",
          "type": "uint256"
        }
      ],
      "stateMutability": "view",
      "type": "function"
    },
    {
      "inputs": [
        {
          "internalType": "address",
          "name": "to",
          "type": "address"
        },
        {
          "internalType": "uint256",
          "name": "tokenId",
          "type": "uint256"
        }
      ],
      "name": "approve",
      "outputs": [],
      "stateMutability": "nonpayable",
      "type": "function"
    },
    {
      "inputs": [
        {
          "internalType": "uint256",
          "name": "tokenId_",
          "type": "uint256"
        },
        {
          "internalType": "address",
          "name": "to_",
          "type": "address"
        },
        {
          "internalType": "uint256",
          "name": "value_",
          "type": "uint256"
        }
      ],
      "name": "approve",
      "outputs": [],
      "stateMutability": "payable",
      "type": "function"
    },
    {
      "inputs": [
        {
          "internalType": "address",
          "name": "owner",
          "type": "address"
        }
      ],
      "name": "balanceOf",
      "outputs": [
        {
          "internalType": "uint256",
          "name": "",
          "type": "uint256"
        }
      ],
      "stateMutability": "view",
      "type": "function"
    },
    {
      "inputs": [
        {
          "internalType": "uint256",
          "name": "tokenId_",
          "type": "uint256"
        }
      ],
      "name": "balanceOf",
      "outputs": [
        {
          "internalType": "uint256",
          "name": "",
          "type": "uint256"
        }
      ],
      "stateMutability": "view",
      "type": "function"
    },
    {
      "inputs": [
        {
          "internalType": "uint256",
          "name": "tokenId",
          "type": "uint256"
        }
      ],
      "name": "burn",
      "outputs": [],
      "stateMutability": "nonpayable",
      "type": "function"
    },
    {
      "inputs": [],
      "name": "contractURI",
      "outputs": [
        {
          "internalType": "string",
          "name": "",
          "type": "string"
        }
      ],
      "stateMutability": "view",
      "type": "function"
    },
    {
      "inputs": [
        {
          "internalType": "uint256",
          "name": "tokenId",
          "type": "uint256"
        }
      ],
      "name": "getApproved",
      "outputs": [
        {
          "internalType": "address",
          "name": "",
          "type": "address"
        }
      ],
      "stateMutability": "view",
      "type": "function"
    },
    {
      "inputs": [
        {
          "internalType": "uint64[2]",
          "name": "workTimeframe_",
          "type": "uint64[2]"
        },
        {
          "internalType": "bytes32[]",
          "name": "workScopes_",
          "type": "bytes32[]"
        },
        {
          "internalType": "uint64[2]",
          "name": "impactTimeframe_",
          "type": "uint64[2]"
        },
        {
          "internalType": "bytes32[]",
          "name": "impactScopes_",
          "type": "bytes32[]"
        }
      ],
      "name": "getHash",
      "outputs": [
        {
          "internalType": "bytes32",
          "name": "",
          "type": "bytes32"
        }
      ],
      "stateMutability": "pure",
      "type": "function"
    },
    {
      "inputs": [
        {
          "internalType": "uint256",
          "name": "claimID",
          "type": "uint256"
        }
      ],
      "name": "getImpactCert",
      "outputs": [
        {
          "components": [
            {
              "internalType": "bytes32",
              "name": "claimHash",
              "type": "bytes32"
            },
            {
              "internalType": "uint64[2]",
              "name": "workTimeframe",
              "type": "uint64[2]"
            },
            {
              "internalType": "uint64[2]",
              "name": "impactTimeframe",
              "type": "uint64[2]"
            },
            {
              "internalType": "bytes32[]",
              "name": "workScopes",
              "type": "bytes32[]"
            },
            {
              "internalType": "bytes32[]",
              "name": "impactScopes",
              "type": "bytes32[]"
            },
            {
              "internalType": "bytes32[]",
              "name": "rights",
              "type": "bytes32[]"
            },
            {
              "internalType": "address[]",
              "name": "contributors",
              "type": "address[]"
            },
            {
              "internalType": "uint256",
              "name": "totalUnits",
              "type": "uint256"
            },
            {
              "internalType": "uint16",
              "name": "version",
              "type": "uint16"
            },
            {
              "internalType": "bool",
              "name": "exists",
              "type": "bool"
            },
            {
              "internalType": "string",
              "name": "name",
              "type": "string"
            },
            {
              "internalType": "string",
              "name": "description",
              "type": "string"
            },
            {
              "internalType": "string",
              "name": "uri",
              "type": "string"
            }
          ],
          "internalType": "struct HypercertMinter.Claim",
          "name": "",
          "type": "tuple"
        }
      ],
      "stateMutability": "view",
      "type": "function"
    },
    {
      "inputs": [
        {
          "internalType": "bytes32",
          "name": "role",
          "type": "bytes32"
        }
      ],
      "name": "getRoleAdmin",
      "outputs": [
        {
          "internalType": "bytes32",
          "name": "",
          "type": "bytes32"
        }
      ],
      "stateMutability": "view",
      "type": "function"
    },
    {
      "inputs": [
        {
          "internalType": "bytes32",
          "name": "role",
          "type": "bytes32"
        },
        {
          "internalType": "address",
          "name": "account",
          "type": "address"
        }
      ],
      "name": "grantRole",
      "outputs": [],
      "stateMutability": "nonpayable",
      "type": "function"
    },
    {
      "inputs": [
        {
          "internalType": "bytes32",
          "name": "role",
          "type": "bytes32"
        },
        {
          "internalType": "address",
          "name": "account",
          "type": "address"
        }
      ],
      "name": "hasRole",
      "outputs": [
        {
          "internalType": "bool",
          "name": "",
          "type": "bool"
        }
      ],
      "stateMutability": "view",
      "type": "function"
    },
    {
      "inputs": [
        {
          "internalType": "bytes32",
          "name": "",
          "type": "bytes32"
        }
      ],
      "name": "impactScopes",
      "outputs": [
        {
          "internalType": "string",
          "name": "",
          "type": "string"
        }
      ],
      "stateMutability": "view",
      "type": "function"
    },
    {
      "inputs": [
        {
          "internalType": "address",
          "name": "metadataAddress",
          "type": "address"
        }
      ],
      "name": "initialize",
      "outputs": [],
      "stateMutability": "nonpayable",
      "type": "function"
    },
    {
      "inputs": [
        {
          "internalType": "address",
          "name": "owner",
          "type": "address"
        },
        {
          "internalType": "address",
          "name": "operator",
          "type": "address"
        }
      ],
      "name": "isApprovedForAll",
      "outputs": [
        {
          "internalType": "bool",
          "name": "",
          "type": "bool"
        }
      ],
      "stateMutability": "view",
      "type": "function"
    },
    {
      "inputs": [
        {
          "internalType": "address",
          "name": "account",
          "type": "address"
        },
        {
          "internalType": "bytes",
          "name": "data",
          "type": "bytes"
        }
      ],
      "name": "mint",
      "outputs": [],
      "stateMutability": "nonpayable",
      "type": "function"
    },
    {
      "inputs": [],
      "name": "name",
      "outputs": [
        {
          "internalType": "string",
          "name": "",
          "type": "string"
        }
      ],
      "stateMutability": "pure",
      "type": "function"
    },
    {
      "inputs": [
        {
          "internalType": "uint256",
          "name": "tokenId",
          "type": "uint256"
        }
      ],
      "name": "ownerOf",
      "outputs": [
        {
          "internalType": "address",
          "name": "",
          "type": "address"
        }
      ],
      "stateMutability": "view",
      "type": "function"
    },
    {
      "inputs": [],
      "name": "proxiableUUID",
      "outputs": [
        {
          "internalType": "bytes32",
          "name": "",
          "type": "bytes32"
        }
      ],
      "stateMutability": "view",
      "type": "function"
    },
    {
      "inputs": [
        {
          "internalType": "bytes32",
          "name": "role",
          "type": "bytes32"
        },
        {
          "internalType": "address",
          "name": "account",
          "type": "address"
        }
      ],
      "name": "renounceRole",
      "outputs": [],
      "stateMutability": "nonpayable",
      "type": "function"
    },
    {
      "inputs": [
        {
          "internalType": "bytes32",
          "name": "role",
          "type": "bytes32"
        },
        {
          "internalType": "address",
          "name": "account",
          "type": "address"
        }
      ],
      "name": "revokeRole",
      "outputs": [],
      "stateMutability": "nonpayable",
      "type": "function"
    },
    {
      "inputs": [
        {
          "internalType": "bytes32",
          "name": "",
          "type": "bytes32"
        }
      ],
      "name": "rights",
      "outputs": [
        {
          "internalType": "string",
          "name": "",
          "type": "string"
        }
      ],
      "stateMutability": "view",
      "type": "function"
    },
    {
      "inputs": [
        {
          "internalType": "address",
          "name": "from",
          "type": "address"
        },
        {
          "internalType": "address",
          "name": "to",
          "type": "address"
        },
        {
          "internalType": "uint256",
          "name": "tokenId",
          "type": "uint256"
        }
      ],
      "name": "safeTransferFrom",
      "outputs": [],
      "stateMutability": "nonpayable",
      "type": "function"
    },
    {
      "inputs": [
        {
          "internalType": "address",
          "name": "from",
          "type": "address"
        },
        {
          "internalType": "address",
          "name": "to",
          "type": "address"
        },
        {
          "internalType": "uint256",
          "name": "tokenId",
          "type": "uint256"
        },
        {
          "internalType": "bytes",
          "name": "data",
          "type": "bytes"
        }
      ],
      "name": "safeTransferFrom",
      "outputs": [],
      "stateMutability": "nonpayable",
      "type": "function"
    },
    {
      "inputs": [
        {
          "internalType": "address",
          "name": "operator",
          "type": "address"
        },
        {
          "internalType": "bool",
          "name": "approved",
          "type": "bool"
        }
      ],
      "name": "setApprovalForAll",
      "outputs": [],
      "stateMutability": "nonpayable",
      "type": "function"
    },
    {
      "inputs": [
        {
          "internalType": "uint256",
          "name": "_index",
          "type": "uint256"
        }
      ],
      "name": "slotByIndex",
      "outputs": [
        {
          "internalType": "uint256",
          "name": "",
          "type": "uint256"
        }
      ],
      "stateMutability": "view",
      "type": "function"
    },
    {
      "inputs": [],
      "name": "slotCount",
      "outputs": [
        {
          "internalType": "uint256",
          "name": "",
          "type": "uint256"
        }
      ],
      "stateMutability": "view",
      "type": "function"
    },
    {
      "inputs": [
        {
          "internalType": "uint256",
          "name": "tokenId_",
          "type": "uint256"
        }
      ],
      "name": "slotOf",
      "outputs": [
        {
          "internalType": "uint256",
          "name": "",
          "type": "uint256"
        }
      ],
      "stateMutability": "view",
      "type": "function"
    },
    {
      "inputs": [
        {
          "internalType": "uint256",
          "name": "slotId_",
          "type": "uint256"
        }
      ],
      "name": "slotURI",
      "outputs": [
        {
          "internalType": "string",
          "name": "",
          "type": "string"
        }
      ],
      "stateMutability": "view",
      "type": "function"
    },
    {
      "inputs": [
        {
          "internalType": "bytes4",
          "name": "interfaceId",
          "type": "bytes4"
        }
      ],
      "name": "supportsInterface",
      "outputs": [
        {
          "internalType": "bool",
          "name": "",
          "type": "bool"
        }
      ],
      "stateMutability": "view",
      "type": "function"
    },
    {
      "inputs": [],
      "name": "symbol",
      "outputs": [
        {
          "internalType": "string",
          "name": "",
          "type": "string"
        }
      ],
      "stateMutability": "pure",
      "type": "function"
    },
    {
      "inputs": [
        {
          "internalType": "uint256",
          "name": "index",
          "type": "uint256"
        }
      ],
      "name": "tokenByIndex",
      "outputs": [
        {
          "internalType": "uint256",
          "name": "",
          "type": "uint256"
        }
      ],
      "stateMutability": "view",
      "type": "function"
    },
    {
      "inputs": [
        {
          "internalType": "uint256",
          "name": "_slot",
          "type": "uint256"
        },
        {
          "internalType": "uint256",
          "name": "_index",
          "type": "uint256"
        }
      ],
      "name": "tokenInSlotByIndex",
      "outputs": [
        {
          "internalType": "uint256",
          "name": "",
          "type": "uint256"
        }
      ],
      "stateMutability": "view",
      "type": "function"
    },
    {
      "inputs": [
        {
          "internalType": "address",
          "name": "owner",
          "type": "address"
        },
        {
          "internalType": "uint256",
          "name": "index",
          "type": "uint256"
        }
      ],
      "name": "tokenOfOwnerByIndex",
      "outputs": [
        {
          "internalType": "uint256",
          "name": "",
          "type": "uint256"
        }
      ],
      "stateMutability": "view",
      "type": "function"
    },
    {
      "inputs": [
        {
          "internalType": "uint256",
          "name": "_slot",
          "type": "uint256"
        }
      ],
      "name": "tokenSupplyInSlot",
      "outputs": [
        {
          "internalType": "uint256",
          "name": "",
          "type": "uint256"
        }
      ],
      "stateMutability": "view",
      "type": "function"
    },
    {
      "inputs": [
        {
          "internalType": "uint256",
          "name": "tokenId_",
          "type": "uint256"
        }
      ],
      "name": "tokenURI",
      "outputs": [
        {
          "internalType": "string",
          "name": "",
          "type": "string"
        }
      ],
      "stateMutability": "view",
      "type": "function"
    },
    {
      "inputs": [],
      "name": "totalSupply",
      "outputs": [
        {
          "internalType": "uint256",
          "name": "",
          "type": "uint256"
        }
      ],
      "stateMutability": "view",
      "type": "function"
    },
    {
      "inputs": [
        {
          "internalType": "uint256",
          "name": "fromTokenId_",
          "type": "uint256"
        },
        {
          "internalType": "address",
          "name": "to_",
          "type": "address"
        },
        {
          "internalType": "uint256",
          "name": "value_",
          "type": "uint256"
        }
      ],
      "name": "transferFrom",
      "outputs": [
        {
          "internalType": "uint256",
          "name": "newTokenId",
          "type": "uint256"
        }
      ],
      "stateMutability": "payable",
      "type": "function"
    },
    {
      "inputs": [
        {
          "internalType": "address",
          "name": "from",
          "type": "address"
        },
        {
          "internalType": "address",
          "name": "to",
          "type": "address"
        },
        {
          "internalType": "uint256",
          "name": "tokenId",
          "type": "uint256"
        }
      ],
      "name": "transferFrom",
      "outputs": [],
      "stateMutability": "nonpayable",
      "type": "function"
    },
    {
      "inputs": [
        {
          "internalType": "uint256",
          "name": "fromTokenId_",
          "type": "uint256"
        },
        {
          "internalType": "uint256",
          "name": "toTokenId_",
          "type": "uint256"
        },
        {
          "internalType": "uint256",
          "name": "value_",
          "type": "uint256"
        }
      ],
      "name": "transferFrom",
      "outputs": [],
      "stateMutability": "payable",
      "type": "function"
    },
    {
      "inputs": [],
      "name": "updateVersion",
      "outputs": [],
      "stateMutability": "nonpayable",
      "type": "function"
    },
    {
      "inputs": [
        {
          "internalType": "address",
          "name": "newImplementation",
          "type": "address"
        }
      ],
      "name": "upgradeTo",
      "outputs": [],
      "stateMutability": "nonpayable",
      "type": "function"
    },
    {
      "inputs": [
        {
          "internalType": "address",
          "name": "newImplementation",
          "type": "address"
        },
        {
          "internalType": "bytes",
          "name": "data",
          "type": "bytes"
        }
      ],
      "name": "upgradeToAndCall",
      "outputs": [],
      "stateMutability": "payable",
      "type": "function"
    },
    {
      "inputs": [],
      "name": "valueDecimals",
      "outputs": [
        {
          "internalType": "uint8",
          "name": "",
          "type": "uint8"
        }
      ],
      "stateMutability": "view",
      "type": "function"
    },
    {
      "inputs": [],
      "name": "version",
      "outputs": [
        {
          "internalType": "uint256",
          "name": "",
          "type": "uint256"
        }
      ],
      "stateMutability": "view",
      "type": "function"
    },
    {
      "inputs": [
        {
          "internalType": "bytes32",
          "name": "",
          "type": "bytes32"
        }
      ],
      "name": "workScopes",
      "outputs": [
        {
          "internalType": "string",
          "name": "",
          "type": "string"
        }
      ],
      "stateMutability": "view",
      "type": "function"
    }
  ],
  "numDeployments": 1,
  "solcInputHash": "e1b4a699dda491c1d4d78680af92daf0",
  "bytecode": "0x60a0604052306080523480156200001557600080fd5b506200002062000026565b620000e8565b600054610100900460ff1615620000935760405162461bcd60e51b815260206004820152602760248201527f496e697469616c697a61626c653a20636f6e747261637420697320696e697469604482015266616c697a696e6760c81b606482015260840160405180910390fd5b60005460ff9081161015620000e6576000805460ff191660ff9081179091556040519081527f7f26b83ff96e1f2b6a682f133852f6798a09c465da95921460cefb38474024989060200160405180910390a15b565b6080516150b36200012060003960008181611028015281816110ad015281816112950152818161131a01526114a401526150b36000f3fe60806040526004361061035f5760003560e01c806354fd4d50116101c6578063b510391f116100f7578063e8a3d48511610095578063ef6f66d71161006f578063ef6f66d714610a61578063f0f11e0514610a81578063f72c0d8b14610aa1578063f76f8d7814610ad557600080fd5b8063e8a3d485146109ee578063e985e9c514610a03578063ed08fa8014610a4c57600080fd5b8063c87b56dd116100d1578063c87b56dd14610947578063d52fd09514610967578063d547741f14610987578063e345e0bc146109a757600080fd5b8063b510391f146108e7578063b88d4fde14610907578063c4d66de81461092757600080fd5b806395d89b41116101645780639cc7f7081161013e5780639cc7f7081461085c578063a217fddf1461087c578063a22cb46514610891578063a3f4df7e146108b157600080fd5b806395d89b41146107ef578063993bef8d1461081c578063997edc611461083c57600080fd5b806372927aa3116101a057806372927aa3146107485780638cb0a511146107755780638f88b7671461078857806391d14854146107a857600080fd5b806354fd4d50146106ee5780636352211e1461070857806370a082311461072857600080fd5b80632e0f2625116102a057806342842e0e1161023e5780634f1ef286116102185780634f1ef286146106795780634f6ccce71461068c5780634f8a0f83146106ac57806352d1902d146106d957600080fd5b806342842e0e1461062457806342966c681461064457806348c02dc11461066457600080fd5b8063310ed7f01161027a578063310ed7f0146105bd57806336568abe146105d05780633659cfe6146105f05780633e7e86691461061057600080fd5b80632e0f2625146105565780632f2ff15d1461057d5780632f745c591461059d57600080fd5b80630f485c021161030d5780631e6ad4b8116102e75780631e6ad4b8146104c557806323b872dd146104e5578063248a9ca314610505578063263f3e7e1461053657600080fd5b80630f485c021461047d57806311e322081461049057806318160ddd146104b057600080fd5b8063081812fc1161033e578063081812fc14610403578063095ea7b31461043b57806309c3dd871461045d57600080fd5b8062cd01101461036457806301ffc9a71461039757806306fdde03146103c7575b600080fd5b34801561037057600080fd5b5061038461037f366004614157565b610b05565b6040519081526020015b60405180910390f35b3480156103a357600080fd5b506103b76103b236600461418f565b610b39565b604051901515815260200161038e565b3480156103d357600080fd5b5060408051808201909152600a8152694879706572636572747360b01b60208201525b60405161038e91906141fc565b34801561040f57600080fd5b5061042361041e36600461420f565b610b44565b6040516001600160a01b03909116815260200161038e565b34801561044757600080fd5b5061045b610456366004614244565b610b6b565b005b34801561046957600080fd5b506103f661047836600461420f565b610c85565b61038461048b36600461426e565b610cff565b34801561049c57600080fd5b506103846104ab3660046143f9565b610d47565b3480156104bc57600080fd5b50609954610384565b3480156104d157600080fd5b506103846104e03660046144f9565b610d81565b3480156104f157600080fd5b5061045b61050036600461452e565b610dea565b34801561051157600080fd5b5061038461052036600461420f565b6000908152610100602052604090206001015490565b34801561054257600080fd5b5061038461055136600461420f565b610e63565b34801561056257600080fd5b5061056b600081565b60405160ff909116815260200161038e565b34801561058957600080fd5b5061045b61059836600461455a565b610eae565b3480156105a957600080fd5b506103846105b8366004614244565b610ed4565b61045b6105cb366004614586565b610f7c565b3480156105dc57600080fd5b5061045b6105eb36600461455a565b610f92565b3480156105fc57600080fd5b5061045b61060b3660046145b2565b61101e565b34801561061c57600080fd5b50600061056b565b34801561063057600080fd5b5061045b61063f36600461452e565b611199565b34801561065057600080fd5b5061045b61065f36600461420f565b6111b4565b34801561067057600080fd5b5061045b611229565b61045b6106873660046145cd565b61128b565b34801561069857600080fd5b506103846106a736600461420f565b6113f3565b3480156106b857600080fd5b506103846106c736600461420f565b600090815260ff602052604090205490565b3480156106e557600080fd5b50610384611497565b3480156106fa57600080fd5b506101965461ffff16610384565b34801561071457600080fd5b5061042361072336600461420f565b61155c565b34801561073457600080fd5b506103846107433660046145b2565b6115c1565b34801561075457600080fd5b5061076861076336600461420f565b61165b565b60405161038e91906146bc565b61045b61078336600461426e565b611aa9565b34801561079457600080fd5b506103f66107a336600461420f565b611b37565b3480156107b457600080fd5b506103b76107c336600461455a565b6000918252610100602090815260408084206001600160a01b0393909316845291905290205460ff1690565b3480156107fb57600080fd5b506040805180820190915260048152631210d49560e21b60208201526103f6565b34801561082857600080fd5b5061038461083736600461420f565b611bd2565b34801561084857600080fd5b506103846108573660046144f9565b611be7565b34801561086857600080fd5b5061038461087736600461420f565b611c43565b34801561088857600080fd5b50610384600081565b34801561089d57600080fd5b5061045b6108ac366004614808565b611c8e565b3480156108bd57600080fd5b506103f66040518060400160405280600a8152602001694879706572636572747360b01b81525081565b3480156108f357600080fd5b5061045b610902366004614844565b611c99565b34801561091357600080fd5b5061045b6109223660046148c7565b611e97565b34801561093357600080fd5b5061045b6109423660046145b2565b611f10565b34801561095357600080fd5b506103f661096236600461420f565b6120ae565b34801561097357600080fd5b506103f661098236600461420f565b6120f9565b34801561099357600080fd5b5061045b6109a236600461455a565b612113565b3480156109b357600080fd5b506103846109c236600461455a565b600082815260fc602090815260408083206001600160a01b038516845260010190915290205492915050565b3480156109fa57600080fd5b506103f6612139565b348015610a0f57600080fd5b506103b7610a1e366004614923565b6001600160a01b039182166000908152606a6020908152604080832093909416825291909152205460ff1690565b348015610a5857600080fd5b5060fe54610384565b348015610a6d57600080fd5b506103f6610a7c36600461420f565b6121a2565b348015610a8d57600080fd5b50610384610a9c3660046144f9565b6121bc565b348015610aad57600080fd5b506103847f189ab7a9244df0848122154315af71fe140f3db0fe014031783b0946b8c9d2e381565b348015610ae157600080fd5b506103f6604051806040016040528060048152602001631210d49560e21b81525081565b600082815260ff60205260408120805483908110610b2557610b2561494d565b906000526020600020015490505b92915050565b6000610b3382612218565b6000610b4f8261223d565b506000908152606960205260409020546001600160a01b031690565b6000610b768261155c565b9050806001600160a01b0316836001600160a01b031603610be85760405162461bcd60e51b815260206004820152602160248201527f4552433732313a20617070726f76616c20746f2063757272656e74206f776e656044820152603960f91b60648201526084015b60405180910390fd5b336001600160a01b0382161480610c045750610c048133610a1e565b610c765760405162461bcd60e51b815260206004820152603e60248201527f4552433732313a20617070726f76652063616c6c6572206973206e6f7420746f60448201527f6b656e206f776e6572206e6f7220617070726f76656420666f7220616c6c00006064820152608401610bdf565b610c8083836122a1565b505050565b610196546040516391383c8960e01b8152600481018390526060916201000090046001600160a01b0316906391383c89906024015b600060405180830381865afa158015610cd7573d6000803e3d6000fd5b505050506040513d6000823e601f3d908101601f19168201604052610b339190810190614963565b6000610d0c33858461230f565b610d1584612392565b9050610d35838260fd6000888152602001908152602001600020546123a8565b610d40848284612462565b9392505050565b600084848484604051602001610d6094939291906149d1565b6040516020818303038152906040528051906020012090505b949350505050565b6000610d8f82610198612608565b600081815261019860205260409020909150610dab8382614a9b565b507f2efcce702e3d0b95b3deb632da6d41c3d169e0c3effb9066d949f14d6f13224f8183604051610ddd929190614b5b565b60405180910390a1919050565b610df5335b8261267d565b610e585760405162461bcd60e51b815260206004820152602e60248201527f4552433732313a2063616c6c6572206973206e6f7420746f6b656e206f776e6560448201526d1c881b9bdc88185c1c1c9bdd995960921b6064820152608401610bdf565b610c808383836126fb565b6000818152606760205260408120546001600160a01b0316610e9b576040516338077a2b60e01b815260048101839052602401610bdf565b50600090815260fd602052604090205490565b60008281526101006020526040902060010154610eca816128ba565b610c8083836128c4565b6000610edf836115c1565b8210610f535760405162461bcd60e51b815260206004820152602b60248201527f455243373231456e756d657261626c653a206f776e657220696e646578206f7560448201527f74206f6620626f756e64730000000000000000000000000000000000000000006064820152608401610bdf565b506001600160a01b03919091166000908152609760209081526040808320938352929052205490565b610f8733848361230f565b610c80838383612462565b6001600160a01b03811633146110105760405162461bcd60e51b815260206004820152602f60248201527f416363657373436f6e74726f6c3a2063616e206f6e6c792072656e6f756e636560448201527f20726f6c657320666f722073656c6600000000000000000000000000000000006064820152608401610bdf565b61101a8282612968565b5050565b6001600160a01b037f00000000000000000000000000000000000000000000000000000000000000001630036110ab5760405162461bcd60e51b815260206004820152602c60248201527f46756e6374696f6e206d7573742062652063616c6c6564207468726f7567682060448201526b19195b1959d85d1958d85b1b60a21b6064820152608401610bdf565b7f00000000000000000000000000000000000000000000000000000000000000006001600160a01b03166111067f360894a13ba1a3210667c828492db98dca3e2076cc3735a920a3ca505d382bbc546001600160a01b031690565b6001600160a01b0316146111715760405162461bcd60e51b815260206004820152602c60248201527f46756e6374696f6e206d7573742062652063616c6c6564207468726f7567682060448201526b6163746976652070726f787960a01b6064820152608401610bdf565b61117a816129ed565b6040805160008082526020820190925261119691839190612a17565b50565b610c8083838360405180602001604052806000815250611e97565b6111bd33610def565b6112205760405162461bcd60e51b815260206004820152602e60248201527f4552433732313a2063616c6c6572206973206e6f7420746f6b656e206f776e6560448201526d1c881b9bdc88185c1c1c9bdd995960921b6064820152608401610bdf565b61119681612bb7565b7f189ab7a9244df0848122154315af71fe140f3db0fe014031783b0946b8c9d2e3611253816128ba565b61019680546001919060009061126e90849061ffff16614b8a565b92506101000a81548161ffff021916908361ffff16021790555050565b6001600160a01b037f00000000000000000000000000000000000000000000000000000000000000001630036113185760405162461bcd60e51b815260206004820152602c60248201527f46756e6374696f6e206d7573742062652063616c6c6564207468726f7567682060448201526b19195b1959d85d1958d85b1b60a21b6064820152608401610bdf565b7f00000000000000000000000000000000000000000000000000000000000000006001600160a01b03166113737f360894a13ba1a3210667c828492db98dca3e2076cc3735a920a3ca505d382bbc546001600160a01b031690565b6001600160a01b0316146113de5760405162461bcd60e51b815260206004820152602c60248201527f46756e6374696f6e206d7573742062652063616c6c6564207468726f7567682060448201526b6163746976652070726f787960a01b6064820152608401610bdf565b6113e7826129ed565b61101a82826001612a17565b60006113fe60995490565b82106114725760405162461bcd60e51b815260206004820152602c60248201527f455243373231456e756d657261626c653a20676c6f62616c20696e646578206f60448201527f7574206f6620626f756e647300000000000000000000000000000000000000006064820152608401610bdf565b609982815481106114855761148561494d565b90600052602060002001549050919050565b6000306001600160a01b037f000000000000000000000000000000000000000000000000000000000000000016146115375760405162461bcd60e51b815260206004820152603860248201527f555550535570677261646561626c653a206d757374206e6f742062652063616c60448201527f6c6564207468726f7567682064656c656761746563616c6c00000000000000006064820152608401610bdf565b507f360894a13ba1a3210667c828492db98dca3e2076cc3735a920a3ca505d382bbc90565b6000818152606760205260408120546001600160a01b031680610b335760405162461bcd60e51b815260206004820152601860248201527f4552433732313a20696e76616c696420746f6b656e20494400000000000000006044820152606401610bdf565b60006001600160a01b03821661163f5760405162461bcd60e51b815260206004820152602960248201527f4552433732313a2061646472657373207a65726f206973206e6f74206120766160448201527f6c6964206f776e657200000000000000000000000000000000000000000000006064820152608401610bdf565b506001600160a01b031660009081526068602052604090205490565b611663613f53565b600082815261019b6020908152604080832081516101a0810183528154815282518084019384905290949193850192909160018501916002918390855b82829054906101000a900467ffffffffffffffff1667ffffffffffffffff16815260200190600801906020826007010492830192600103820291508084116116a057505050928452505060408051808201918290526020909301929150600284810191826000855b82829054906101000a900467ffffffffffffffff1667ffffffffffffffff168152602001906008019060208260070104928301926001038202915080841161170857905050505050508152602001600382018054806020026020016040519081016040528092919081815260200182805480156117a457602002820191906000526020600020905b815481526020019060010190808311611790575b50505050508152602001600482018054806020026020016040519081016040528092919081815260200182805480156117fc57602002820191906000526020600020905b8154815260200190600101908083116117e8575b505050505081526020016005820180548060200260200160405190810160405280929190818152602001828054801561185457602002820191906000526020600020905b815481526020019060010190808311611840575b50505050508152602001600682018054806020026020016040519081016040528092919081815260200182805480156118b657602002820191906000526020600020905b81546001600160a01b03168152600190910190602001808311611898575b505050918352505060078201546020820152600882015461ffff8116604083015262010000900460ff16151560608201526009820180546080909201916118fc90614a1b565b80601f016020809104026020016040519081016040528092919081815260200182805461192890614a1b565b80156119755780601f1061194a57610100808354040283529160200191611975565b820191906000526020600020905b81548152906001019060200180831161195857829003601f168201915b50505050508152602001600a8201805461198e90614a1b565b80601f01602080910402602001604051908101604052809291908181526020018280546119ba90614a1b565b8015611a075780601f106119dc57610100808354040283529160200191611a07565b820191906000526020600020905b8154815290600101906020018083116119ea57829003601f168201915b50505050508152602001600b82018054611a2090614a1b565b80601f0160208091040260200160405190810160405280929190818152602001828054611a4c90614a1b565b8015611a995780601f10611a6e57610100808354040283529160200191611a99565b820191906000526020600020905b815481529060010190602001808311611a7c57829003601f168201915b5050505050815250509050919050565b6000611ab48461155c565b9050806001600160a01b0316836001600160a01b031603611aff5760405162ea9f2160e81b8152600481018590523360248201526001600160a01b0384166044820152606401610bdf565b611b09338561267d565b611b265760405163390cdd9b60e21b815260040160405180910390fd5b611b31848484612c6f565b50505050565b6101976020526000908152604090208054611b5190614a1b565b80601f0160208091040260200160405190810160405280929190818152602001828054611b7d90614a1b565b8015611bca5780601f10611b9f57610100808354040283529160200191611bca565b820191906000526020600020905b815481529060010190602001808311611bad57829003601f168201915b505050505081565b600060fe82815481106114855761148561494d565b6000611bf582610197612608565b600081815261019760205260409020909150611c118382614a9b565b507f8b841033bc947e807d9766c542105a3dbb0bae62591be7b5c8cd4f37f698bf738183604051610ddd929190614b5b565b6000818152606760205260408120546001600160a01b0316611c7b576040516338077a2b60e01b815260048101839052602401610bdf565b50600090815260fb602052604090205490565b61101a338383612cf9565b600080611ca68484612dc7565b91509150611cb48583612e9b565b611cc682600001518360c00151613072565b8151600081815261019b602090815260409091208451815590840151849190611cf59060018301906002613fce565b506040820151611d0b9060028084019190613fce565b5060608201518051611d27916003840191602090910190614076565b5060808201518051611d43916004840191602090910190614076565b5060a08201518051611d5f916005840191602090910190614076565b5060c08201518051611d7b9160068401916020909101906140b1565b5060e082015160078201556101008201516008820180546101208501511515620100000262ffffff1990911661ffff909316929092179190911790556101408201516009820190611dcc9082614a9b565b50610160820151600a820190611de29082614a9b565b50610180820151600b820190611df89082614a9b565b50508251905060005b81811015611e52576000611e156000612392565b9050611e3f898286888681518110611e2f57611e2f61494d565b602002602001015160ff16613151565b5080611e4a81614ba5565b915050611e01565b507f52f149aad70848d65dd4b8c3d399a7bf6c93cbfb6af50c371d71eff7340f4ac7828885604051611e8693929190614bbe565b60405180910390a150505050505050565b611ea1338361267d565b611f045760405162461bcd60e51b815260206004820152602e60248201527f4552433732313a2063616c6c6572206973206e6f7420746f6b656e206f776e6560448201526d1c881b9bdc88185c1c1c9bdd995960921b6064820152608401610bdf565b611b3184848484613225565b600054610100900460ff1615808015611f305750600054600160ff909116105b80611f4a5750303b158015611f4a575060005460ff166001145b611fbc5760405162461bcd60e51b815260206004820152602e60248201527f496e697469616c697a61626c653a20636f6e747261637420697320616c72656160448201527f647920696e697469616c697a65640000000000000000000000000000000000006064820152608401610bdf565b6000805460ff191660011790558015611fdf576000805461ff0019166101001790555b61019680547fffffffffffffffffffff0000000000000000000000000000000000000000ffff16620100006001600160a01b038516021790556120206132ae565b6120286132ae565b6120306132ae565b61203b6000336128c4565b6120657f189ab7a9244df0848122154315af71fe140f3db0fe014031783b0946b8c9d2e3336128c4565b801561101a576000805461ff0019169055604051600181527f7f26b83ff96e1f2b6a682f133852f6798a09c465da95921460cefb38474024989060200160405180910390a15050565b610196546060906201000090046001600160a01b031663ed03f41a6120d284610e63565b846040518363ffffffff1660e01b8152600401610cba929190918252602082015260400190565b6101996020526000908152604090208054611b5190614a1b565b6000828152610100602052604090206001015461212f816128ba565b610c808383612968565b606061216260408051808201909152600a8152694879706572636572747360b01b602082015290565b6040805180820190915260048152631210d49560e21b602082015260405160200161218e929190614c1f565b604051602081830303815290604052905090565b6101986020526000908152604090208054611b5190614a1b565b60006121ca82610199612608565b6000818152610199602052604090209091506121e68382614a9b565b507f4527d373276b1ece0c8dd18e140572f93feffd35a0993d9e4de70623b1ac93ce8183604051610ddd929190614b5b565b60006001600160e01b03198216637965db0b60e01b1480610b335750610b338261332d565b6000818152606760205260409020546001600160a01b03166111965760405162461bcd60e51b815260206004820152601860248201527f4552433732313a20696e76616c696420746f6b656e20494400000000000000006044820152606401610bdf565b600081815260696020526040902080546001600160a01b0319166001600160a01b03841690811790915581906122d68261155c565b6001600160a01b03167f8c5be1e5ebec7d5bd14f71427d1e84f3dd0314c0f7b2291e5b200ac8c7c3b92560405160405180910390a45050565b600082815260fc602090815260408083206001600160a01b038716845260010190915290205461233f848461267d565b15801561234e57506000198114155b15611b31578181101561237e5760405163054365bb60e31b81526004810183905260248101829052604401610bdf565b611b31838561238d8585614cd4565b612c6f565b600061239d60995490565b610b33906001614ce7565b6123b28383613388565b600082815260fd6020908152604080832084905583835260ff909152812054900361240d5760fe80546001810182556000919091527f54075df80ec1ae6ac9100e1fd0ebf3246c17f5c933137af392011f4c5f61513a018190555b600081815260ff6020908152604080832080546001810182559084529183209091018490555182919084907fe4f48c240d3b994948aa54f3e2f5fca59263dfe1d52b6e4cf39a5d249b5ccb65908390a4505050565b6000838152606760205260409020546001600160a01b031661249a576040516338077a2b60e01b815260048101849052602401610bdf565b6000828152606760205260409020546001600160a01b03166124d2576040516338077a2b60e01b815260048101839052602401610bdf565b600083815260fb6020526040902054811061251b57600083815260fb60205260409081902054905163cf47918160e01b8152610bdf918391600401918252602082015260400190565b600082815260fd6020526040808220548583529120541461255957604051630240901360e61b81526004810184905260248101839052604401610bdf565b60006125648461155c565b905060006125718461155c565b600086815260fb6020526040812080549293508592909190612594908490614cd4565b9091555050600084815260fb6020526040812080548592906125b7908490614ce7565b9091555050600085905260fd60205283857f0b2aac84f3ec956911fd78eae5311062972ff949f38412e8da39069d9f068cc6856040516125f991815260200190565b60405180910390a35050505050565b6000825160000361262c5760405163a447fc5360e01b815260040160405180910390fd5b8260405160200161263d91906141fc565b60405160208183030381529060405280519060200120905061265f82826134de565b15610b335760405163331d850160e01b815260040160405180910390fd5b6000806126898361155c565b9050806001600160a01b0316846001600160a01b031614806126d057506001600160a01b038082166000908152606a602090815260408083209388168352929052205460ff165b80610d795750836001600160a01b03166126e984610b44565b6001600160a01b031614949350505050565b826001600160a01b031661270e8261155c565b6001600160a01b03161461278a5760405162461bcd60e51b815260206004820152602560248201527f4552433732313a207472616e736665722066726f6d20696e636f72726563742060448201527f6f776e65720000000000000000000000000000000000000000000000000000006064820152608401610bdf565b6001600160a01b0382166127ec5760405162461bcd60e51b8152602060048201526024808201527f4552433732313a207472616e7366657220746f20746865207a65726f206164646044820152637265737360e01b6064820152608401610bdf565b6127f7838383613505565b6128026000826122a1565b6001600160a01b038316600090815260686020526040812080546001929061282b908490614cd4565b90915550506001600160a01b0382166000908152606860205260408120805460019290612859908490614ce7565b909155505060008181526067602052604080822080546001600160a01b0319166001600160a01b0386811691821790925591518493918716917fddf252ad1be2c89b69c2b068fc378daa952ba7f163c4a11628f55a4df523b3ef91a4505050565b61119681336135a7565b6000828152610100602090815260408083206001600160a01b038516845290915290205460ff1661101a576000828152610100602090815260408083206001600160a01b03851684529091529020805460ff191660011790556129243390565b6001600160a01b0316816001600160a01b0316837f2f8788117e7eff1d82e926ec794901d17c78024a50270940304540a733656f0d60405160405180910390a45050565b6000828152610100602090815260408083206001600160a01b038516845290915290205460ff161561101a576000828152610100602090815260408083206001600160a01b0385168085529252808320805460ff1916905551339285917ff6391f5c32d9c69d2a47ea670b442974b53935d1edc7fd64eb21e047a839171b9190a45050565b7f189ab7a9244df0848122154315af71fe140f3db0fe014031783b0946b8c9d2e361101a816128ba565b7f4910fdfa16fed3260ed0e7147f7cc6da11a60208b5b9406d12a635614ffd91435460ff1615612a4a57610c8083613628565b826001600160a01b03166352d1902d6040518163ffffffff1660e01b8152600401602060405180830381865afa925050508015612aa4575060408051601f3d908101601f19168201909252612aa191810190614cfa565b60015b612b165760405162461bcd60e51b815260206004820152602e60248201527f45524331393637557067726164653a206e657720696d706c656d656e7461746960448201527f6f6e206973206e6f7420555550530000000000000000000000000000000000006064820152608401610bdf565b7f360894a13ba1a3210667c828492db98dca3e2076cc3735a920a3ca505d382bbc8114612bab5760405162461bcd60e51b815260206004820152602960248201527f45524331393637557067726164653a20756e737570706f727465642070726f7860448201527f6961626c655555494400000000000000000000000000000000000000000000006064820152608401610bdf565b50610c808383836136e6565b6000612bc28261155c565b600083815260fd602090815260408083205460fb9092529091205491925090612bea8461370b565b600084815260fd6020908152604080832083905560fb82528083208390555183815286917f0b2aac84f3ec956911fd78eae5311062972ff949f38412e8da39069d9f068cc6910160405180910390a3600082857fe4f48c240d3b994948aa54f3e2f5fca59263dfe1d52b6e4cf39a5d249b5ccb6560405160405180910390a450505050565b600083815260fc6020908152604080832080546001808201835582865284862090910180546001600160a01b0319166001600160a01b038916908117909155808652908201845293829020859055905184815290929186917f621b050de0ad08b51d19b48b3e6df75348c4de6bdd93e81b252ca62e28265b1b91015b60405180910390a350505050565b816001600160a01b0316836001600160a01b031603612d5a5760405162461bcd60e51b815260206004820152601960248201527f4552433732313a20617070726f766520746f2063616c6c6572000000000000006044820152606401610bdf565b6001600160a01b038381166000818152606a6020908152604080832094871680845294825291829020805460ff191686151590811790915591519182527f17307eab39ab6107e8899845ad3d59bd9653f200f220920489ca2b5937696c31910160405180910390a3505050565b612dcf613f53565b60606000839003612df35760405163a447fc5360e01b815260040160405180910390fd5b6000808080808080808080612e0a8d8f018f614de0565b9950995099509950995099509950995099509950612e2a878a888b610d47565b8c5260c08c0185905260208c0187905260408c0186905260608c0189905260808c0188905260a08c018a9052612e5f816137b2565b60e08d015260006101008d015260016101208d01526101408c01939093526101608b01919091526101808a015296505050505050509250929050565b6001600160a01b038216612ec257604051630c63e1ed60e11b815260040160405180910390fd5b60208181015190810151905167ffffffffffffffff91821691161115612f1f57602081015180519060015b6020020151604051630b58ad1560e21b815267ffffffffffffffff928316600482015291166024820152604401610bdf565b60408101516020810151905167ffffffffffffffff91821691161115612f4e5760408101518051906001612eed565b60408101515160208201515167ffffffffffffffff91821691161115612f805760208101515160408201516000612eed565b60808101515160005b8181101561300157610198600084608001518381518110612fac57612fac61494d565b602002602001015181526020019081526020016000208054612fcd90614a1b565b9050600003612fef5760405163725a844f60e01b815260040160405180910390fd5b80612ff981614ba5565b915050612f89565b5060608201515160005b8181101561306b5761303c6101978560600151838151811061302f5761302f61494d565b60200260200101516134de565b6130595760405163725a844f60e01b815260040160405180910390fd5b8061306381614ba5565b91505061300b565b5050505050565b60005b8151811015610c805761019a60008383815181106130955761309561494d565b6020908102919091018101516001600160a01b03168252818101929092526040908101600090812086825290925290205460ff16156130e75760405163755402db60e11b815260040160405180910390fd5b600161019a60008484815181106131005761310061494d565b6020908102919091018101516001600160a01b0316825281810192909252604090810160009081208782529092529020805460ff19169115159190911790558061314981614ba5565b915050613075565b6001600160a01b03841661317857604051630c63e1ed60e11b815260040160405180910390fd5b8260000361319c5760405163d338ed0760e01b815260048101849052602401610bdf565b6000838152606760205260409020546001600160a01b0316156131d5576040516314b27b7f60e31b815260048101849052602401610bdf565b6131e08484846123a8565b600083815260fb602052604090208190558260007f0b2aac84f3ec956911fd78eae5311062972ff949f38412e8da39069d9f068cc683604051612ceb91815260200190565b6132308484846126fb565b61323c84848484613815565b611b315760405162461bcd60e51b815260206004820152603260248201527f4552433732313a207472616e7366657220746f206e6f6e20455243373231526560448201527f63656976657220696d706c656d656e74657200000000000000000000000000006064820152608401610bdf565b600054610100900460ff1661332b5760405162461bcd60e51b815260206004820152602b60248201527f496e697469616c697a61626c653a20636f6e7472616374206973206e6f74206960448201527f6e697469616c697a696e670000000000000000000000000000000000000000006064820152608401610bdf565b565b60006001600160e01b031982166370b0048160e11b148061335e57506001600160e01b03198216631dba0dcf60e11b145b8061337957506001600160e01b03198216630354d60560e61b145b80610b335750610b3382613969565b6001600160a01b0382166133de5760405162461bcd60e51b815260206004820181905260248201527f4552433732313a206d696e7420746f20746865207a65726f20616464726573736044820152606401610bdf565b6000818152606760205260409020546001600160a01b0316156134435760405162461bcd60e51b815260206004820152601c60248201527f4552433732313a20746f6b656e20616c7265616479206d696e746564000000006044820152606401610bdf565b61344f60008383613505565b6001600160a01b0382166000908152606860205260408120805460019290613478908490614ce7565b909155505060008181526067602052604080822080546001600160a01b0319166001600160a01b03861690811790915590518392907fddf252ad1be2c89b69c2b068fc378daa952ba7f163c4a11628f55a4df523b3ef908290a45050565b505050505050565b600081815260208390526040812080548291906134fa90614a1b565b905011905092915050565b61351083838361398e565b600081815260fc6020526040812054905b8181101561358f57600083815260fc602052604081208054839081106135495761354961494d565b600091825260208083209091015486835260fc825260408084206001600160a01b039092168452600191909101909152812055508061358781614ba5565b915050613521565b50600082815260fc60205260408120611b3191614106565b6000828152610100602090815260408083206001600160a01b038516845290915290205460ff1661101a576135e6816001600160a01b03166014613a46565b6135f1836020613a46565b604051602001613602929190614f47565b60408051601f198184030181529082905262461bcd60e51b8252610bdf916004016141fc565b6001600160a01b0381163b6136a55760405162461bcd60e51b815260206004820152602d60248201527f455243313936373a206e657720696d706c656d656e746174696f6e206973206e60448201527f6f74206120636f6e7472616374000000000000000000000000000000000000006064820152608401610bdf565b7f360894a13ba1a3210667c828492db98dca3e2076cc3735a920a3ca505d382bbc80546001600160a01b0319166001600160a01b0392909216919091179055565b6136ef83613bef565b6000825111806136fc5750805b15610c8057611b318383613c2f565b60006137168261155c565b905061372481600084613505565b61372f6000836122a1565b6001600160a01b0381166000908152606860205260408120805460019290613758908490614cd4565b909155505060008281526067602052604080822080546001600160a01b0319169055518391906001600160a01b038416907fddf252ad1be2c89b69c2b068fc378daa952ba7f163c4a11628f55a4df523b3ef908390a45050565b600081516000036137c557506000919050565b6000805b835181101561380e578381815181106137e4576137e461494d565b602002602001015160ff16826137fa9190614ce7565b91508061380681614ba5565b9150506137c9565b5092915050565b60006001600160a01b0384163b1561396157604051630a85bd0160e11b81526001600160a01b0385169063150b7a0290613859903390899088908890600401614fc8565b6020604051808303816000875af1925050508015613894575060408051601f3d908101601f1916820190925261389191810190614ffa565b60015b613947573d8080156138c2576040519150601f19603f3d011682016040523d82523d6000602084013e6138c7565b606091505b50805160000361393f5760405162461bcd60e51b815260206004820152603260248201527f4552433732313a207472616e7366657220746f206e6f6e20455243373231526560448201527f63656976657220696d706c656d656e74657200000000000000000000000000006064820152608401610bdf565b805181602001fd5b6001600160e01b031916630a85bd0160e11b149050610d79565b506001610d79565b60006001600160e01b0319821663780e9d6360e01b1480610b335750610b3382613d3a565b6001600160a01b0383166139e9576139e481609980546000838152609a60205260408120829055600182018355919091527f72a152ddfb8e864297c917af52ea6c1c68aead0fee1a62673fcc7e0c94979d000155565b613a0c565b816001600160a01b0316836001600160a01b031614613a0c57613a0c8382613d8a565b6001600160a01b038216613a2357610c8081613e27565b826001600160a01b0316826001600160a01b031614610c8057610c808282613ed6565b60606000613a55836002615017565b613a60906002614ce7565b67ffffffffffffffff811115613a7857613a786142a3565b6040519080825280601f01601f191660200182016040528015613aa2576020820181803683370190505b509050600360fc1b81600081518110613abd57613abd61494d565b60200101906001600160f81b031916908160001a905350600f60fb1b81600181518110613aec57613aec61494d565b60200101906001600160f81b031916908160001a9053506000613b10846002615017565b613b1b906001614ce7565b90505b6001811115613ba0577f303132333435363738396162636465660000000000000000000000000000000085600f1660108110613b5c57613b5c61494d565b1a60f81b828281518110613b7257613b7261494d565b60200101906001600160f81b031916908160001a90535060049490941c93613b9981615036565b9050613b1e565b508315610d405760405162461bcd60e51b815260206004820181905260248201527f537472696e67733a20686578206c656e67746820696e73756666696369656e746044820152606401610bdf565b613bf881613628565b6040516001600160a01b038216907fbc7cd75a20ee27fd9adebab32041f755214dbc6bffa90cc0225b39da2e5c2d3b90600090a250565b60606001600160a01b0383163b613cae5760405162461bcd60e51b815260206004820152602660248201527f416464726573733a2064656c65676174652063616c6c20746f206e6f6e2d636f60448201527f6e747261637400000000000000000000000000000000000000000000000000006064820152608401610bdf565b600080846001600160a01b031684604051613cc9919061504d565b600060405180830381855af49150503d8060008114613d04576040519150601f19603f3d011682016040523d82523d6000602084013e613d09565b606091505b5091509150613d31828260405180606001604052806027815260200161508060279139613f1a565b95945050505050565b60006001600160e01b031982166380ac58cd60e01b1480613d6b57506001600160e01b03198216635b5e139f60e01b145b80610b3357506301ffc9a760e01b6001600160e01b0319831614610b33565b60006001613d97846115c1565b613da19190614cd4565b600083815260986020526040902054909150808214613df4576001600160a01b03841660009081526097602090815260408083208584528252808320548484528184208190558352609890915290208190555b5060009182526098602090815260408084208490556001600160a01b039094168352609781528383209183525290812055565b609954600090613e3990600190614cd4565b6000838152609a602052604081205460998054939450909284908110613e6157613e6161494d565b906000526020600020015490508060998381548110613e8257613e8261494d565b6000918252602080832090910192909255828152609a90915260408082208490558582528120556099805480613eba57613eba615069565b6001900381819060005260206000200160009055905550505050565b6000613ee1836115c1565b6001600160a01b039093166000908152609760209081526040808320868452825280832085905593825260989052919091209190915550565b60608315613f29575081610d40565b825115613f395782518084602001fd5b8160405162461bcd60e51b8152600401610bdf91906141fc565b604080516101a081019091526000815260208101613f6f614124565b8152602001613f7c614124565b81526020016060815260200160608152602001606081526020016060815260200160008152602001600061ffff1681526020016000151581526020016060815260200160608152602001606081525090565b6001830191839082156140665791602002820160005b8382111561403057835183826101000a81548167ffffffffffffffff021916908367ffffffffffffffff1602179055509260200192600801602081600701049283019260010302613fe4565b80156140645782816101000a81549067ffffffffffffffff0219169055600801602081600701049283019260010302614030565b505b50614072929150614142565b5090565b828054828255906000526020600020908101928215614066579160200282015b82811115614066578251825591602001919060010190614096565b828054828255906000526020600020908101928215614066579160200282015b8281111561406657825182546001600160a01b0319166001600160a01b039091161782556020909201916001909101906140d1565b50805460008255906000526020600020908101906111969190614142565b60405180604001604052806002906020820280368337509192915050565b5b808211156140725760008155600101614143565b6000806040838503121561416a57600080fd5b50508035926020909101359150565b6001600160e01b03198116811461119657600080fd5b6000602082840312156141a157600080fd5b8135610d4081614179565b60005b838110156141c75781810151838201526020016141af565b50506000910152565b600081518084526141e88160208601602086016141ac565b601f01601f19169290920160200192915050565b602081526000610d4060208301846141d0565b60006020828403121561422157600080fd5b5035919050565b80356001600160a01b038116811461423f57600080fd5b919050565b6000806040838503121561425757600080fd5b61426083614228565b946020939093013593505050565b60008060006060848603121561428357600080fd5b8335925061429360208501614228565b9150604084013590509250925092565b634e487b7160e01b600052604160045260246000fd5b604051601f8201601f1916810167ffffffffffffffff811182821017156142e2576142e26142a3565b604052919050565b600082601f8301126142fb57600080fd5b6040516040810167ffffffffffffffff828210818311171561431f5761431f6142a3565b6040918252829185018681111561433557600080fd5b855b8181101561435e57803583811681146143505760008081fd5b845260209384019301614337565b50929695505050505050565b600067ffffffffffffffff821115614384576143846142a3565b5060051b60200190565b600082601f83011261439f57600080fd5b813560206143b46143af8361436a565b6142b9565b82815260059290921b840181019181810190868411156143d357600080fd5b8286015b848110156143ee57803583529183019183016143d7565b509695505050505050565b60008060008060c0858703121561440f57600080fd5b61441986866142ea565b9350604085013567ffffffffffffffff8082111561443657600080fd5b6144428883890161438e565b945061445188606089016142ea565b935060a087013591508082111561446757600080fd5b506144748782880161438e565b91505092959194509250565b600067ffffffffffffffff82111561449a5761449a6142a3565b50601f01601f191660200190565b600082601f8301126144b957600080fd5b81356144c76143af82614480565b8181528460208386010111156144dc57600080fd5b816020850160208301376000918101602001919091529392505050565b60006020828403121561450b57600080fd5b813567ffffffffffffffff81111561452257600080fd5b610d79848285016144a8565b60008060006060848603121561454357600080fd5b61454c84614228565b925061429360208501614228565b6000806040838503121561456d57600080fd5b8235915061457d60208401614228565b90509250929050565b60008060006060848603121561459b57600080fd5b505081359360208301359350604090920135919050565b6000602082840312156145c457600080fd5b610d4082614228565b600080604083850312156145e057600080fd5b6145e983614228565b9150602083013567ffffffffffffffff81111561460557600080fd5b614611858286016144a8565b9150509250929050565b8060005b6002811015611b3157815167ffffffffffffffff1684526020938401939091019060010161461f565b600081518084526020808501945080840160005b838110156146785781518752958201959082019060010161465c565b509495945050505050565b600081518084526020808501945080840160005b838110156146785781516001600160a01b031687529582019590820190600101614697565b6020815281516020820152600060208301516146db604084018261461b565b5060408301516146ee608084018261461b565b5060608301516101e08060c085015261470b610200850183614648565b91506080850151601f19808685030160e08701526147298483614648565b935060a087015191506101008187860301818801526147488584614648565b945060c088015192506101208288870301818901526147678685614683565b955060e0890151935061014084818a0152828a015194506101609250614792838a018661ffff169052565b908901519350610180906147a98983018615159052565b89015188870384016101a08a015293506147c386856141d0565b955081890151935082888703016101c08901526147e086856141d0565b95508089015193505050808685030183870152506147fe83826141d0565b9695505050505050565b6000806040838503121561481b57600080fd5b61482483614228565b91506020830135801515811461483957600080fd5b809150509250929050565b60008060006040848603121561485957600080fd5b61486284614228565b9250602084013567ffffffffffffffff8082111561487f57600080fd5b818601915086601f83011261489357600080fd5b8135818111156148a257600080fd5b8760208285010111156148b457600080fd5b6020830194508093505050509250925092565b600080600080608085870312156148dd57600080fd5b6148e685614228565b93506148f460208601614228565b925060408501359150606085013567ffffffffffffffff81111561491757600080fd5b614474878288016144a8565b6000806040838503121561493657600080fd5b61493f83614228565b915061457d60208401614228565b634e487b7160e01b600052603260045260246000fd5b60006020828403121561497557600080fd5b815167ffffffffffffffff81111561498c57600080fd5b8201601f8101841361499d57600080fd5b80516149ab6143af82614480565b8181528560208385010111156149c057600080fd5b613d318260208301602086016141ac565b6149db818661461b565b60c0604082015260006149f160c0830186614648565b6149fe606084018661461b565b82810360a0840152614a108185614648565b979650505050505050565b600181811c90821680614a2f57607f821691505b602082108103614a4f57634e487b7160e01b600052602260045260246000fd5b50919050565b601f821115610c8057600081815260208120601f850160051c81016020861015614a7c5750805b601f850160051c820191505b818110156134d657828155600101614a88565b815167ffffffffffffffff811115614ab557614ab56142a3565b614ac981614ac38454614a1b565b84614a55565b602080601f831160018114614afe5760008415614ae65750858301515b600019600386901b1c1916600185901b1785556134d6565b600085815260208120601f198616915b82811015614b2d57888601518255948401946001909101908401614b0e565b5085821015614b4b5787850151600019600388901b60f8161c191681555b5050505050600190811b01905550565b828152604060208201526000610d7960408301846141d0565b634e487b7160e01b600052601160045260246000fd5b61ffff81811683821601908082111561380e5761380e614b74565b600060018201614bb757614bb7614b74565b5060010190565b60006060820185835260206001600160a01b0386168185015260606040850152818551808452608086019150828701935060005b81811015614c1157845160ff1683529383019391830191600101614bf2565b509098975050505050505050565b7f646174613a6170706c69636174696f6e2f6a736f6e3b7b00000000000000000081527f226e616d65223a00000000000000000000000000000000000000000000000000601782015260008351614c7d81601e8501602088016141ac565b7f2c2273796d626f6c223a00000000000000000000000000000000000000000000601e918401918201528351614cba8160288401602088016141ac565b607d60f81b60289290910191820152602901949350505050565b81810381811115610b3357610b33614b74565b80820180821115610b3357610b33614b74565b600060208284031215614d0c57600080fd5b5051919050565b600082601f830112614d2457600080fd5b81356020614d346143af8361436a565b82815260059290921b84018101918181019086841115614d5357600080fd5b8286015b848110156143ee57614d6881614228565b8352918301918301614d57565b600082601f830112614d8657600080fd5b81356020614d966143af8361436a565b82815260059290921b84018101918181019086841115614db557600080fd5b8286015b848110156143ee57803560ff81168114614dd35760008081fd5b8352918301918301614db9565b6000806000806000806000806000806101808b8d031215614e0057600080fd5b8a3567ffffffffffffffff80821115614e1857600080fd5b614e248e838f0161438e565b9b5060208d0135915080821115614e3a57600080fd5b614e468e838f0161438e565b9a5060408d0135915080821115614e5c57600080fd5b614e688e838f0161438e565b9950614e778e60608f016142ea565b9850614e868e60a08f016142ea565b975060e08d0135915080821115614e9c57600080fd5b614ea88e838f01614d13565b96506101008d0135915080821115614ebf57600080fd5b614ecb8e838f016144a8565b95506101208d0135915080821115614ee257600080fd5b614eee8e838f016144a8565b94506101408d0135915080821115614f0557600080fd5b614f118e838f016144a8565b93506101608d0135915080821115614f2857600080fd5b50614f358d828e01614d75565b9150509295989b9194979a5092959850565b7f416363657373436f6e74726f6c3a206163636f756e7420000000000000000000815260008351614f7f8160178501602088016141ac565b7f206973206d697373696e6720726f6c65200000000000000000000000000000006017918401918201528351614fbc8160288401602088016141ac565b01602801949350505050565b60006001600160a01b038087168352808616602084015250836040830152608060608301526147fe60808301846141d0565b60006020828403121561500c57600080fd5b8151610d4081614179565b600081600019048311821515161561503157615031614b74565b500290565b60008161504557615045614b74565b506000190190565b6000825161505f8184602087016141ac565b9190910192915050565b634e487b7160e01b600052603160045260246000fdfe416464726573733a206c6f772d6c6576656c2064656c65676174652063616c6c206661696c6564a164736f6c6343000810000a",
  "devdoc": {
    "author": "bitbeckers, mr_bluesky",
    "events": {
      "ImpactClaimed(uint256,address,uint8[])": {
        "params": {
          "fractions": "Units of tokens issued under the hypercert.",
          "id": "Id of the claimed impact.",
          "minter": "Address of cert minter."
        }
      },
      "ImpactScopeAdded(bytes32,string)": {
        "params": {
          "id": "Id of the impact scope.",
          "text": "Short text code of the impact scope."
        }
      },
      "RightAdded(bytes32,string)": {
        "params": {
          "id": "Id of the right.",
          "text": "Short text code of the right."
        }
      },
      "WorkScopeAdded(bytes32,string)": {
        "params": {
          "id": "Id of the work scope.",
          "text": "Short text code of the work scope."
        }
      }
    },
    "kind": "dev",
    "methods": {
      "addImpactScope(string)": {
        "params": {
          "text": "Text representing the impact scope"
        },
        "returns": {
          "id": "Id of the impact scope"
        }
      },
      "addRight(string)": {
        "params": {
          "text": "Text representing the right"
        },
        "returns": {
          "id": "Id of the right"
        }
      },
      "addWorkScope(string)": {
        "params": {
          "text": "Text representing the work scope"
        },
        "returns": {
          "id": "Id of the work scope"
        }
      },
      "approve(address,uint256)": {
        "details": "See {IERC721-approve}."
      },
      "balanceOf(address)": {
        "details": "See {IERC721-balanceOf}."
      },
      "burn(uint256)": {
        "details": "Burns `tokenId`. See {ERC721-_burn}. Requirements: - The caller must own `tokenId` or be an approved operator."
      },
      "constructor": {
        "custom:oz-upgrades-unsafe-allow": "constructor"
      },
      "contractURI()": {
        "details": "This function SHOULD return the URI for this contract in JSON format, starting with  header `data:application/json;`.  See https://eips.ethereum.org/EIPS/eip-3525 for the JSON schema for contract URI.",
        "returns": {
          "_0": "The JSON formatted URI of the current ERC3525 contract"
        }
      },
      "getApproved(uint256)": {
        "details": "See {IERC721-getApproved}."
      },
      "getImpactCert(uint256)": {
        "params": {
          "claimID": "Id of the claim"
        },
        "returns": {
          "_0": "The claim, if it doesn't exist with default values"
        }
      },
      "getRoleAdmin(bytes32)": {
        "details": "Returns the admin role that controls `role`. See {grantRole} and {revokeRole}. To change a role's admin, use {_setRoleAdmin}."
      },
      "grantRole(bytes32,address)": {
        "details": "Grants `role` to `account`. If `account` had not been already granted `role`, emits a {RoleGranted} event. Requirements: - the caller must have ``role``'s admin role. May emit a {RoleGranted} event."
      },
      "hasRole(bytes32,address)": {
        "details": "Returns `true` if `account` has been granted `role`."
      },
      "isApprovedForAll(address,address)": {
        "details": "See {IERC721-isApprovedForAll}."
      },
      "mint(address,bytes)": {
        "params": {
          "account": "Account issuing the new hypercertificate",
          "data": "Data representing the parameters of the claim"
        }
      },
      "ownerOf(uint256)": {
        "details": "See {IERC721-ownerOf}."
      },
      "proxiableUUID()": {
        "details": "Implementation of the ERC1822 {proxiableUUID} function. This returns the storage slot used by the implementation. It is used to validate that the this implementation remains valid after an upgrade. IMPORTANT: A proxy pointing at a proxiable contract should not be considered proxiable itself, because this risks bricking a proxy that upgrades to it, by delegating to itself until out of gas. Thus it is critical that this function revert if invoked through a proxy. This is guaranteed by the `notDelegated` modifier."
      },
      "renounceRole(bytes32,address)": {
        "details": "Revokes `role` from the calling account. Roles are often managed via {grantRole} and {revokeRole}: this function's purpose is to provide a mechanism for accounts to lose their privileges if they are compromised (such as when a trusted device is misplaced). If the calling account had been revoked `role`, emits a {RoleRevoked} event. Requirements: - the caller must be `account`. May emit a {RoleRevoked} event."
      },
      "revokeRole(bytes32,address)": {
        "details": "Revokes `role` from `account`. If `account` had been granted `role`, emits a {RoleRevoked} event. Requirements: - the caller must have ``role``'s admin role. May emit a {RoleRevoked} event."
      },
      "safeTransferFrom(address,address,uint256)": {
        "details": "See {IERC721-safeTransferFrom}."
      },
      "safeTransferFrom(address,address,uint256,bytes)": {
        "details": "See {IERC721-safeTransferFrom}."
      },
      "setApprovalForAll(address,bool)": {
        "details": "See {IERC721-setApprovalForAll}."
      },
      "slotByIndex(uint256)": {
        "params": {
          "_index": "The index in the slot list"
        },
        "returns": {
          "_0": "The slot at `index` of all slots."
        }
      },
      "slotCount()": {
        "returns": {
          "_0": "The total amount of slots"
        }
      },
      "supportsInterface(bytes4)": {
        "params": {
          "interfaceId": "Id of the interface"
        },
        "returns": {
          "_0": "true, if the interface is supported"
        }
      },
      "tokenByIndex(uint256)": {
        "details": "See {IERC721Enumerable-tokenByIndex}."
      },
      "tokenInSlotByIndex(uint256,uint256)": {
        "params": {
          "_index": "The index in the token list of the slot",
          "_slot": "The slot to query tokens with"
        },
        "returns": {
          "_0": "The token ID at `_index` of all tokens with `_slot`"
        }
      },
      "tokenOfOwnerByIndex(address,uint256)": {
        "details": "See {IERC721Enumerable-tokenOfOwnerByIndex}."
      },
      "tokenSupplyInSlot(uint256)": {
        "params": {
          "_slot": "The slot to query token supply for"
        },
        "returns": {
          "_0": "The total amount of tokens with the specified `_slot`"
        }
      },
      "totalSupply()": {
        "details": "See {IERC721Enumerable-totalSupply}."
      },
      "transferFrom(address,address,uint256)": {
        "details": "See {IERC721-transferFrom}."
      },
      "upgradeTo(address)": {
        "details": "Upgrade the implementation of the proxy to `newImplementation`. Calls {_authorizeUpgrade}. Emits an {Upgraded} event."
      },
      "upgradeToAndCall(address,bytes)": {
        "details": "Upgrade the implementation of the proxy to `newImplementation`, and subsequently execute the function call encoded in `data`. Calls {_authorizeUpgrade}. Emits an {Upgraded} event."
      },
      "valueDecimals()": {
        "returns": {
          "_0": "The number of decimals for value"
        }
      }
    },
    "title": "Hypercertificate minting logic",
    "version": 1
  },
  "userdoc": {
    "events": {
      "ImpactClaimed(uint256,address,uint8[])": {
        "notice": "Emitted when an impact is claimed."
      },
      "ImpactScopeAdded(bytes32,string)": {
        "notice": "Emitted when a new impact scope is added."
      },
      "RightAdded(bytes32,string)": {
        "notice": "Emitted when a new right is added."
      },
      "WorkScopeAdded(bytes32,string)": {
        "notice": "Emitted when a new work scope is added."
      }
    },
    "kind": "user",
    "methods": {
      "DECIMALS()": {
        "notice": "Token value decimals"
      },
      "NAME()": {
        "notice": "Contract name"
      },
      "SYMBOL()": {
        "notice": "Token symbol"
      },
      "UPGRADER_ROLE()": {
        "notice": "User role required in order to upgrade the contract"
      },
      "addImpactScope(string)": {
        "notice": "Adds a new impact scope"
      },
      "addRight(string)": {
        "notice": "Adds a new right"
      },
      "addWorkScope(string)": {
        "notice": "Adds a new work scope"
      },
      "constructor": {
        "notice": "Contract constructor logic"
      },
      "contractURI()": {
        "notice": "Returns the Uniform Resource Identifier (URI) for the current ERC3525 contract."
      },
      "getImpactCert(uint256)": {
        "notice": "Gets the impact claim with the specified id"
      },
      "impactScopes(bytes32)": {
        "notice": "Mapping of id's to impact-scopes"
      },
      "initialize(address)": {
        "notice": "Contract initialization logic"
      },
      "mint(address,bytes)": {
        "notice": "Issues a new hypercertificate"
      },
      "rights(bytes32)": {
        "notice": "Mapping of id's to rights"
      },
      "slotByIndex(uint256)": {
        "notice": "Get the slot at the specified index of all slots stored by the contract."
      },
      "slotCount()": {
        "notice": "Get the total amount of slots stored by the contract."
      },
      "supportsInterface(bytes4)": {
        "notice": "Returns a flag indicating if the contract supports the specified interface"
      },
      "tokenInSlotByIndex(uint256,uint256)": {
        "notice": "Get the token at the specified index of all tokens with the same slot."
      },
      "tokenSupplyInSlot(uint256)": {
        "notice": "Get the total amount of tokens with the same slot."
      },
      "updateVersion()": {
        "notice": "Update the contract version numberOnly allowed for member of UPGRADER_ROLE"
      },
      "valueDecimals()": {
        "notice": "Get the number of decimals the token uses for value - e.g. 6, means the user  representation of the value of a token can be calculated by dividing it by 1,000,000.  Considering the compatibility with third-party wallets, this function is defined as  `valueDecimals()` instead of `decimals()` to avoid conflict with EIP-20 tokens."
      },
      "version()": {
        "notice": "gets the current version of the contract"
      },
      "workScopes(bytes32)": {
        "notice": "Mapping of id's to work-scopes"
      }
    },
    "notice": "Contains functions and events to initialize and issue a hypercertificate",
    "version": 1
  },
  "storageLayout": {
    "storage": [
      {
        "astId": 814,
        "contract": "contracts/HypercertMinter.sol:HypercertMinter",
        "label": "_initialized",
        "offset": 0,
        "slot": "0",
        "type": "t_uint8"
      },
      {
        "astId": 817,
        "contract": "contracts/HypercertMinter.sol:HypercertMinter",
        "label": "_initializing",
        "offset": 1,
        "slot": "0",
        "type": "t_bool"
      },
      {
        "astId": 3062,
        "contract": "contracts/HypercertMinter.sol:HypercertMinter",
        "label": "__gap",
        "offset": 0,
        "slot": "1",
        "type": "t_array(t_uint256)50_storage"
      },
      {
        "astId": 3392,
        "contract": "contracts/HypercertMinter.sol:HypercertMinter",
        "label": "__gap",
        "offset": 0,
        "slot": "51",
        "type": "t_array(t_uint256)50_storage"
      },
      {
        "astId": 1123,
        "contract": "contracts/HypercertMinter.sol:HypercertMinter",
        "label": "_name",
        "offset": 0,
        "slot": "101",
        "type": "t_string_storage"
      },
      {
        "astId": 1125,
        "contract": "contracts/HypercertMinter.sol:HypercertMinter",
        "label": "_symbol",
        "offset": 0,
        "slot": "102",
        "type": "t_string_storage"
      },
      {
        "astId": 1129,
        "contract": "contracts/HypercertMinter.sol:HypercertMinter",
        "label": "_owners",
        "offset": 0,
        "slot": "103",
        "type": "t_mapping(t_uint256,t_address)"
      },
      {
        "astId": 1133,
        "contract": "contracts/HypercertMinter.sol:HypercertMinter",
        "label": "_balances",
        "offset": 0,
        "slot": "104",
        "type": "t_mapping(t_address,t_uint256)"
      },
      {
        "astId": 1137,
        "contract": "contracts/HypercertMinter.sol:HypercertMinter",
        "label": "_tokenApprovals",
        "offset": 0,
        "slot": "105",
        "type": "t_mapping(t_uint256,t_address)"
      },
      {
        "astId": 1143,
        "contract": "contracts/HypercertMinter.sol:HypercertMinter",
        "label": "_operatorApprovals",
        "offset": 0,
        "slot": "106",
        "type": "t_mapping(t_address,t_mapping(t_address,t_bool))"
      },
      {
        "astId": 1985,
        "contract": "contracts/HypercertMinter.sol:HypercertMinter",
        "label": "__gap",
        "offset": 0,
        "slot": "107",
        "type": "t_array(t_uint256)44_storage"
      },
      {
        "astId": 2200,
        "contract": "contracts/HypercertMinter.sol:HypercertMinter",
        "label": "_ownedTokens",
        "offset": 0,
        "slot": "151",
        "type": "t_mapping(t_address,t_mapping(t_uint256,t_uint256))"
      },
      {
        "astId": 2204,
        "contract": "contracts/HypercertMinter.sol:HypercertMinter",
        "label": "_ownedTokensIndex",
        "offset": 0,
        "slot": "152",
        "type": "t_mapping(t_uint256,t_uint256)"
      },
      {
        "astId": 2207,
        "contract": "contracts/HypercertMinter.sol:HypercertMinter",
        "label": "_allTokens",
        "offset": 0,
        "slot": "153",
        "type": "t_array(t_uint256)dyn_storage"
      },
      {
        "astId": 2211,
        "contract": "contracts/HypercertMinter.sol:HypercertMinter",
        "label": "_allTokensIndex",
        "offset": 0,
        "slot": "154",
        "type": "t_mapping(t_uint256,t_uint256)"
      },
      {
        "astId": 2527,
        "contract": "contracts/HypercertMinter.sol:HypercertMinter",
        "label": "__gap",
        "offset": 0,
        "slot": "155",
        "type": "t_array(t_uint256)46_storage"
      },
      {
        "astId": 2169,
        "contract": "contracts/HypercertMinter.sol:HypercertMinter",
        "label": "__gap",
        "offset": 0,
        "slot": "201",
        "type": "t_array(t_uint256)50_storage"
      },
      {
        "astId": 3491,
        "contract": "contracts/HypercertMinter.sol:HypercertMinter",
        "label": "_values",
        "offset": 0,
        "slot": "251",
        "type": "t_mapping(t_uint256,t_uint256)"
      },
      {
        "astId": 3497,
        "contract": "contracts/HypercertMinter.sol:HypercertMinter",
        "label": "_approvedValues",
        "offset": 0,
        "slot": "252",
        "type": "t_mapping(t_uint256,t_struct(ApproveData)3486_storage)"
      },
      {
        "astId": 3502,
        "contract": "contracts/HypercertMinter.sol:HypercertMinter",
        "label": "_slots",
        "offset": 0,
        "slot": "253",
        "type": "t_mapping(t_uint256,t_uint256)"
      },
      {
        "astId": 3505,
        "contract": "contracts/HypercertMinter.sol:HypercertMinter",
        "label": "_slotArray",
        "offset": 0,
        "slot": "254",
        "type": "t_array(t_uint256)dyn_storage"
      },
      {
        "astId": 3511,
        "contract": "contracts/HypercertMinter.sol:HypercertMinter",
        "label": "_tokensBySlot",
        "offset": 0,
        "slot": "255",
        "type": "t_mapping(t_uint256,t_array(t_uint256)dyn_storage)"
      },
      {
        "astId": 39,
        "contract": "contracts/HypercertMinter.sol:HypercertMinter",
        "label": "_roles",
        "offset": 0,
        "slot": "256",
        "type": "t_mapping(t_bytes32,t_struct(RoleData)34_storage)"
      },
      {
        "astId": 338,
        "contract": "contracts/HypercertMinter.sol:HypercertMinter",
        "label": "__gap",
        "offset": 0,
        "slot": "257",
        "type": "t_array(t_uint256)49_storage"
      },
      {
        "astId": 796,
        "contract": "contracts/HypercertMinter.sol:HypercertMinter",
        "label": "__gap",
        "offset": 0,
        "slot": "306",
        "type": "t_array(t_uint256)50_storage"
      },
      {
        "astId": 1093,
        "contract": "contracts/HypercertMinter.sol:HypercertMinter",
        "label": "__gap",
        "offset": 0,
        "slot": "356",
        "type": "t_array(t_uint256)50_storage"
      },
      {
        "astId": 5369,
        "contract": "contracts/HypercertMinter.sol:HypercertMinter",
        "label": "_version",
        "offset": 0,
        "slot": "406",
        "type": "t_uint16"
      },
      {
        "astId": 5372,
        "contract": "contracts/HypercertMinter.sol:HypercertMinter",
        "label": "_metadata",
        "offset": 2,
        "slot": "406",
        "type": "t_address"
      },
      {
        "astId": 5377,
        "contract": "contracts/HypercertMinter.sol:HypercertMinter",
        "label": "workScopes",
        "offset": 0,
        "slot": "407",
        "type": "t_mapping(t_bytes32,t_string_storage)"
      },
      {
        "astId": 5382,
        "contract": "contracts/HypercertMinter.sol:HypercertMinter",
        "label": "impactScopes",
        "offset": 0,
        "slot": "408",
        "type": "t_mapping(t_bytes32,t_string_storage)"
      },
      {
        "astId": 5387,
        "contract": "contracts/HypercertMinter.sol:HypercertMinter",
        "label": "rights",
        "offset": 0,
        "slot": "409",
        "type": "t_mapping(t_bytes32,t_string_storage)"
      },
      {
        "astId": 5393,
        "contract": "contracts/HypercertMinter.sol:HypercertMinter",
        "label": "_contributorImpacts",
        "offset": 0,
        "slot": "410",
        "type": "t_mapping(t_address,t_mapping(t_bytes32,t_bool))"
      },
      {
        "astId": 5398,
        "contract": "contracts/HypercertMinter.sol:HypercertMinter",
        "label": "_impactCerts",
        "offset": 0,
        "slot": "411",
        "type": "t_mapping(t_uint256,t_struct(Claim)5433_storage)"
      }
    ],
    "types": {
      "t_address": {
        "encoding": "inplace",
        "label": "address",
        "numberOfBytes": "20"
      },
      "t_array(t_address)dyn_storage": {
        "base": "t_address",
        "encoding": "dynamic_array",
        "label": "address[]",
        "numberOfBytes": "32"
      },
      "t_array(t_bytes32)dyn_storage": {
        "base": "t_bytes32",
        "encoding": "dynamic_array",
        "label": "bytes32[]",
        "numberOfBytes": "32"
      },
      "t_array(t_uint256)44_storage": {
        "base": "t_uint256",
        "encoding": "inplace",
        "label": "uint256[44]",
        "numberOfBytes": "1408"
      },
      "t_array(t_uint256)46_storage": {
        "base": "t_uint256",
        "encoding": "inplace",
        "label": "uint256[46]",
        "numberOfBytes": "1472"
      },
      "t_array(t_uint256)49_storage": {
        "base": "t_uint256",
        "encoding": "inplace",
        "label": "uint256[49]",
        "numberOfBytes": "1568"
      },
      "t_array(t_uint256)50_storage": {
        "base": "t_uint256",
        "encoding": "inplace",
        "label": "uint256[50]",
        "numberOfBytes": "1600"
      },
      "t_array(t_uint256)dyn_storage": {
        "base": "t_uint256",
        "encoding": "dynamic_array",
        "label": "uint256[]",
        "numberOfBytes": "32"
      },
      "t_array(t_uint64)2_storage": {
        "base": "t_uint64",
        "encoding": "inplace",
        "label": "uint64[2]",
        "numberOfBytes": "32"
      },
      "t_bool": {
        "encoding": "inplace",
        "label": "bool",
        "numberOfBytes": "1"
      },
      "t_bytes32": {
        "encoding": "inplace",
        "label": "bytes32",
        "numberOfBytes": "32"
      },
      "t_mapping(t_address,t_bool)": {
        "encoding": "mapping",
        "key": "t_address",
        "label": "mapping(address => bool)",
        "numberOfBytes": "32",
        "value": "t_bool"
      },
      "t_mapping(t_address,t_mapping(t_address,t_bool))": {
        "encoding": "mapping",
        "key": "t_address",
        "label": "mapping(address => mapping(address => bool))",
        "numberOfBytes": "32",
        "value": "t_mapping(t_address,t_bool)"
      },
      "t_mapping(t_address,t_mapping(t_bytes32,t_bool))": {
        "encoding": "mapping",
        "key": "t_address",
        "label": "mapping(address => mapping(bytes32 => bool))",
        "numberOfBytes": "32",
        "value": "t_mapping(t_bytes32,t_bool)"
      },
      "t_mapping(t_address,t_mapping(t_uint256,t_uint256))": {
        "encoding": "mapping",
        "key": "t_address",
        "label": "mapping(address => mapping(uint256 => uint256))",
        "numberOfBytes": "32",
        "value": "t_mapping(t_uint256,t_uint256)"
      },
      "t_mapping(t_address,t_uint256)": {
        "encoding": "mapping",
        "key": "t_address",
        "label": "mapping(address => uint256)",
        "numberOfBytes": "32",
        "value": "t_uint256"
      },
      "t_mapping(t_bytes32,t_bool)": {
        "encoding": "mapping",
        "key": "t_bytes32",
        "label": "mapping(bytes32 => bool)",
        "numberOfBytes": "32",
        "value": "t_bool"
      },
      "t_mapping(t_bytes32,t_string_storage)": {
        "encoding": "mapping",
        "key": "t_bytes32",
        "label": "mapping(bytes32 => string)",
        "numberOfBytes": "32",
        "value": "t_string_storage"
      },
      "t_mapping(t_bytes32,t_struct(RoleData)34_storage)": {
        "encoding": "mapping",
        "key": "t_bytes32",
        "label": "mapping(bytes32 => struct AccessControlUpgradeable.RoleData)",
        "numberOfBytes": "32",
        "value": "t_struct(RoleData)34_storage"
      },
      "t_mapping(t_uint256,t_address)": {
        "encoding": "mapping",
        "key": "t_uint256",
        "label": "mapping(uint256 => address)",
        "numberOfBytes": "32",
        "value": "t_address"
      },
      "t_mapping(t_uint256,t_array(t_uint256)dyn_storage)": {
        "encoding": "mapping",
        "key": "t_uint256",
        "label": "mapping(uint256 => uint256[])",
        "numberOfBytes": "32",
        "value": "t_array(t_uint256)dyn_storage"
      },
      "t_mapping(t_uint256,t_struct(ApproveData)3486_storage)": {
        "encoding": "mapping",
        "key": "t_uint256",
        "label": "mapping(uint256 => struct ERC3525Upgradeable.ApproveData)",
        "numberOfBytes": "32",
        "value": "t_struct(ApproveData)3486_storage"
      },
      "t_mapping(t_uint256,t_struct(Claim)5433_storage)": {
        "encoding": "mapping",
        "key": "t_uint256",
        "label": "mapping(uint256 => struct HypercertMinter.Claim)",
        "numberOfBytes": "32",
        "value": "t_struct(Claim)5433_storage"
      },
      "t_mapping(t_uint256,t_uint256)": {
        "encoding": "mapping",
        "key": "t_uint256",
        "label": "mapping(uint256 => uint256)",
        "numberOfBytes": "32",
        "value": "t_uint256"
      },
      "t_string_storage": {
        "encoding": "bytes",
        "label": "string",
        "numberOfBytes": "32"
      },
      "t_struct(ApproveData)3486_storage": {
        "encoding": "inplace",
        "label": "struct ERC3525Upgradeable.ApproveData",
        "members": [
          {
            "astId": 3481,
            "contract": "contracts/HypercertMinter.sol:HypercertMinter",
            "label": "approvals",
            "offset": 0,
            "slot": "0",
            "type": "t_array(t_address)dyn_storage"
          },
          {
            "astId": 3485,
            "contract": "contracts/HypercertMinter.sol:HypercertMinter",
            "label": "allowances",
            "offset": 0,
            "slot": "1",
            "type": "t_mapping(t_address,t_uint256)"
          }
        ],
        "numberOfBytes": "64"
      },
      "t_struct(Claim)5433_storage": {
        "encoding": "inplace",
        "label": "struct HypercertMinter.Claim",
        "members": [
          {
            "astId": 5400,
            "contract": "contracts/HypercertMinter.sol:HypercertMinter",
            "label": "claimHash",
            "offset": 0,
            "slot": "0",
            "type": "t_bytes32"
          },
          {
            "astId": 5404,
            "contract": "contracts/HypercertMinter.sol:HypercertMinter",
            "label": "workTimeframe",
            "offset": 0,
            "slot": "1",
            "type": "t_array(t_uint64)2_storage"
          },
          {
            "astId": 5408,
            "contract": "contracts/HypercertMinter.sol:HypercertMinter",
            "label": "impactTimeframe",
            "offset": 0,
            "slot": "2",
            "type": "t_array(t_uint64)2_storage"
          },
          {
            "astId": 5411,
            "contract": "contracts/HypercertMinter.sol:HypercertMinter",
            "label": "workScopes",
            "offset": 0,
            "slot": "3",
            "type": "t_array(t_bytes32)dyn_storage"
          },
          {
            "astId": 5414,
            "contract": "contracts/HypercertMinter.sol:HypercertMinter",
            "label": "impactScopes",
            "offset": 0,
            "slot": "4",
            "type": "t_array(t_bytes32)dyn_storage"
          },
          {
            "astId": 5417,
            "contract": "contracts/HypercertMinter.sol:HypercertMinter",
            "label": "rights",
            "offset": 0,
            "slot": "5",
            "type": "t_array(t_bytes32)dyn_storage"
          },
          {
            "astId": 5420,
            "contract": "contracts/HypercertMinter.sol:HypercertMinter",
            "label": "contributors",
            "offset": 0,
            "slot": "6",
            "type": "t_array(t_address)dyn_storage"
          },
          {
            "astId": 5422,
            "contract": "contracts/HypercertMinter.sol:HypercertMinter",
            "label": "totalUnits",
            "offset": 0,
            "slot": "7",
            "type": "t_uint256"
          },
          {
            "astId": 5424,
            "contract": "contracts/HypercertMinter.sol:HypercertMinter",
            "label": "version",
            "offset": 0,
            "slot": "8",
            "type": "t_uint16"
          },
          {
            "astId": 5426,
            "contract": "contracts/HypercertMinter.sol:HypercertMinter",
            "label": "exists",
            "offset": 2,
            "slot": "8",
            "type": "t_bool"
          },
          {
            "astId": 5428,
            "contract": "contracts/HypercertMinter.sol:HypercertMinter",
            "label": "name",
            "offset": 0,
            "slot": "9",
            "type": "t_string_storage"
          },
          {
            "astId": 5430,
            "contract": "contracts/HypercertMinter.sol:HypercertMinter",
            "label": "description",
            "offset": 0,
            "slot": "10",
            "type": "t_string_storage"
          },
          {
            "astId": 5432,
            "contract": "contracts/HypercertMinter.sol:HypercertMinter",
            "label": "uri",
            "offset": 0,
            "slot": "11",
            "type": "t_string_storage"
          }
        ],
        "numberOfBytes": "384"
      },
      "t_struct(RoleData)34_storage": {
        "encoding": "inplace",
        "label": "struct AccessControlUpgradeable.RoleData",
        "members": [
          {
            "astId": 31,
            "contract": "contracts/HypercertMinter.sol:HypercertMinter",
            "label": "members",
            "offset": 0,
            "slot": "0",
            "type": "t_mapping(t_address,t_bool)"
          },
          {
            "astId": 33,
            "contract": "contracts/HypercertMinter.sol:HypercertMinter",
            "label": "adminRole",
            "offset": 0,
            "slot": "1",
            "type": "t_bytes32"
          }
        ],
        "numberOfBytes": "64"
      },
      "t_uint16": {
        "encoding": "inplace",
        "label": "uint16",
        "numberOfBytes": "2"
      },
      "t_uint256": {
        "encoding": "inplace",
        "label": "uint256",
        "numberOfBytes": "32"
      },
      "t_uint64": {
        "encoding": "inplace",
        "label": "uint64",
        "numberOfBytes": "8"
      },
      "t_uint8": {
        "encoding": "inplace",
        "label": "uint8",
        "numberOfBytes": "1"
      }
    }
  }
}