{
  "address": "0x0a21c5d7aA2e9b36C213842762ABDDd13aa21761",
  "abi": [
    {
      "inputs": [],
      "stateMutability": "nonpayable",
      "type": "constructor"
    },
    {
      "inputs": [
        {
          "internalType": "address",
          "name": "",
          "type": "address"
        },
        {
          "internalType": "uint8",
          "name": "",
          "type": "uint8"
        },
        {
          "internalType": "uint256",
          "name": "",
          "type": "uint256"
        }
      ],
      "name": "certBgColors",
      "outputs": [
        {
          "internalType": "string",
          "name": "",
          "type": "string"
        }
      ],
      "stateMutability": "view",
      "type": "function"
    },
    {
      "inputs": [
        {
          "internalType": "string",
          "name": "name",
          "type": "string"
        },
        {
          "internalType": "string",
          "name": "description",
          "type": "string"
        },
        {
          "internalType": "uint64[2]",
          "name": "workTimeframe",
          "type": "uint64[2]"
        },
        {
          "internalType": "uint64[2]",
          "name": "impactTimeframe",
          "type": "uint64[2]"
        },
        {
          "internalType": "uint256",
          "name": "units",
          "type": "uint256"
        },
        {
          "internalType": "uint256",
          "name": "totalUnits",
          "type": "uint256"
        }
      ],
      "name": "generateSVG",
      "outputs": [
        {
          "internalType": "string",
          "name": "",
          "type": "string"
        }
      ],
      "stateMutability": "view",
      "type": "function"
    }
  ],
  "transactionHash": "0x8fb603cba17581707f7e62861387b5ffb7277fb9ce84ee5e27dece7ed6d19852",
  "args": [],
  "numDeployments": 1,
  "solcInputHash": "17292d2b1e9b83df56a30743ede042e9",
  "bytecode": "0x608060405234801561001057600080fd5b50614dc9806100206000396000f3fe608060405234801561001057600080fd5b50600436106100365760003560e01c8063656047541461003b578063e866426714610064575b600080fd5b61004e610049366004610935565b610077565b60405161005b91906109f3565b60405180910390f35b61004e610072366004610a26565b6100bc565b60606100816107b2565b8781526020810187905260408101869052606081018590526080810184905260a081018390526100b081610182565b98975050505050505050565b600060205282600052604060002060205281600052604060002081815481106100e457600080fd5b906000526020600020016000925092505050805461010190610a86565b80601f016020809104026020016040519081016040528092919081815260200182805461012d90610a86565b801561017a5780601f1061014f5761010080835404028352916020019161017a565b820191906000526020600020905b81548152906001019060200180831161015d57829003601f168201915b505050505081565b606061018c6101e4565b61019583610209565b61019e84610437565b6101a785610468565b6101b08661049c565b6101b9876104e6565b6040516020016101ce96959493929190610adc565b6040516020818303038152906040529050919050565b60606040516020016101f590610c7a565b604051602081830303815290604052905090565b6060600080600061023e856040015160006002811061022a5761022a614363565b602002015167ffffffffffffffff166105d6565b9250925092506000806000610263886040015160016002811061022a5761022a614363565b925092509250604051602001610367907f3c672069643d22666f726567726f756e642d636f6c6f72223e0000000000000081527f3c706174682069643d22666f726567726f756e642d636f6c6f722d322220646160198201527f74612d6e616d653d22666f726567726f756e642d636f6c6f722220643d224d3460398201527f33352c3737372e383348313135762d3530483433357635305a6d302d3533322e60598201527f3833483131357633363048343335563234355a6d302d3132322e38334831313560798201527f762d3530483433357635305a222f3e00000000000000000000000000000000006099820152631e17b39f60e11b60a882015260ac0190565b60405160208183030381529060405261037f876105f5565b610388876105f5565b610391876105f5565b6040516020016103a393929190614379565b6040516020818303038152906040526103bb856105f5565b6103c4856105f5565b6103cd856105f5565b6040516020016103df93929190614379565b60408051601f19818403018152908290526103fd92916020016143d3565b60408051601f198184030181529082905261041b9291602001614645565b6040516020818303038152906040529650505050505050919050565b805160405160609161044b91602001614674565b60408051601f19818403018152908290526101ce9160200161477f565b6060816020015160405160200161047f9190614802565b60408051601f19818403018152908290526101ce916020016148df565b60606104ab82608001516105f5565b6104b88360a001516105f5565b6040516020016104c992919061497e565b60408051601f19818403018152908290526101ce91602001614a99565b60606000806000610507856060015160006002811061022a5761022a614363565b925092509250600080600061052c886060015160016002811061022a5761022a614363565b92509250925061053b866105f5565b610544866105f5565b61054d866105f5565b60405160200161055f93929190614379565b604051602081830303815290604052610577846105f5565b610580846105f5565b610589846105f5565b60405160200161059b93929190614379565b60408051601f19818403018152908290526105b99291602001614b38565b60408051601f198184030181529082905261041b91602001614c7d565b600080806105e8620151808504610716565b9196909550909350915050565b60608160000361061c5750506040805180820190915260018152600360fc1b602082015290565b8160005b8115610646578061063081614d55565b915061063f9050600a83614d6e565b9150610620565b60008167ffffffffffffffff81111561066157610661610812565b6040519080825280601f01601f19166020018201604052801561068b576020820181803683370190505b5090505b841561070e576106a0600183614d82565b91506106ad600a86614d95565b6106b8906030614da9565b60f81b8183815181106106cd576106cd614363565b60200101907effffffffffffffffffffffffffffffffffffffffffffffffffffffffffffff1916908160001a905350610707600a86614d6e565b945061068f565b949350505050565b60008080836226496581018262023ab1600483020590506004600362023ab18302010590910390600062164b09610fa0600185010205905060046105b58202058303601f019250600061098f846050028161077357610773614d29565b0590506000605061098f83020585039050600b820560301994909401606402929092018301996002600c90940290910392909201975095509350505050565b6040518060c0016040528060608152602001606081526020016107d36107f4565b81526020016107e06107f4565b815260200160008152602001600081525090565b60405180604001604052806002906020820280368337509192915050565b634e487b7160e01b600052604160045260246000fd5b600082601f83011261083957600080fd5b813567ffffffffffffffff8082111561085457610854610812565b604051601f8301601f19908116603f0116810190828211818310171561087c5761087c610812565b8160405283815286602085880101111561089557600080fd5b836020870160208301376000602085830101528094505050505092915050565b600082601f8301126108c657600080fd5b6040516040810167ffffffffffffffff82821081831117156108ea576108ea610812565b6040918252829185018681111561090057600080fd5b855b81811015610929578035838116811461091b5760008081fd5b845260209384019301610902565b50929695505050505050565b600080600080600080610100878903121561094f57600080fd5b863567ffffffffffffffff8082111561096757600080fd5b6109738a838b01610828565b9750602089013591508082111561098957600080fd5b5061099689828a01610828565b9550506109a688604089016108b5565b93506109b588608089016108b5565b925060c0870135915060e087013590509295509295509295565b60005b838110156109ea5781810151838201526020016109d2565b50506000910152565b6020815260008251806020840152610a128160408501602087016109cf565b601f01601f19169190910160400192915050565b600080600060608486031215610a3b57600080fd5b833573ffffffffffffffffffffffffffffffffffffffff81168114610a5f57600080fd5b9250602084013560ff81168114610a7557600080fd5b929592945050506040919091013590565b600181811c90821680610a9a57607f821691505b602082108103610aba57634e487b7160e01b600052602260045260246000fd5b50919050565b60008151610ad28185602086016109cf565b9290920192915050565b7f3c7376672077696474683d2235353022206865696768743d223835302220766981527f6577426f783d223020302035353020383530222000000000000000000000000060208201527f786d6c6e733d22687474703a2f2f7777772e77332e6f72672f323030302f737660348201527f672220786d6c6e733a786c696e6b3d22687474703a2f2f7777772e77332e6f7260548201527f672f313939392f786c696e6b223e00000000000000000000000000000000000060748201527f3c6720666f6e742d66616d696c793d2253706163654d6f6e6f2d426f6c64223e608282015260008751610bd28160a2850160208c016109cf565b875190830190610be98160a2840160208c016109cf565b8751910190610bff8160a2840160208b016109cf565b8651910190610c158160a2840160208a016109cf565b610c6c610c43610c33610c2d60a2858701018a610ac0565b88610ac0565b631e17b39f60e11b815260040190565b7f3c2f7376673e0000000000000000000000000000000000000000000000000000815260060190565b9a9950505050505050505050565b7f3c672069643d22677261706869632d636f6c6f72223e3c706174682069643d2281527f677261706869632d636f6c6f722d322220646174612d6e616d653d226772617060208201527f6869632d636f6c6f722220643d224d3535302c3534392e327631302e30394d3060408201527f2c3337372e38317631342e36336d3535302c3233312e3139632d2e31382c2e3260608201527f332d2e33382c2e34362d2e35352c2e372d31312e35362c31352e38382d352e3560808201527f392c34392e35342c2e35352c38332e344d32322e34342c312e34356334332e3860a08201527f322c31352e39312c39362e38312c34392e30352c3132372e36322c33392e303560c08201527f2c31342e34322d342e36382c32372e32342d32302e37362c33392e36342d343060e08201527f2e356d3336302e32372c33302e3337632d34302e33372d392e33322d3132342e6101008201527f30342c36342e31342d3136332e34312c35312e33362d32312e39362d372e31336101208201527f2d33392e33332d34362e35372d35372e36392d38312e37326d2d3132322e35386101408201527f2c30632d31352e352c32382e34392d33312e30352c35352e31312d34392e35336101608201527f2c36312e3131433132302e392c37322e37352c35312e392c31392e392c362e376101808201527f332c31322e33384d302c3335352e34376333312e30322c32332e31352c38372e6101a08201527f352c35302e37332c38372e352c36392e35335333312e30322c3437312e33392c6101c08201527f302c3439342e35336d302d3137342e37326333362e34382d342e31382c3131316101e08201527f2e34342c31312e32362c3132332e32362d342e39392c31352e33342d32312e306102008201527f382d35312e33332d3132342e392d33302e32362d3134302e32342c32302e38376102208201527f2d31352e31392c39382e39352c38302e31372c3132342e30322c37322e30332c6102408201527f32342e31392d372e38352c33312e31362d3133312e31362c35372e39372d31336102608201527f312e31367333332e37382c3132332e33312c35372e39372c3133312e313663326102808201527f352e30372c382e31342c3130332e31352d38372e32322c3132342e30322d37326102a08201527f2e30332c32312e30382c31352e33342d34352e362c3131392e31362d33302e326102c08201527f362c3134302e32342c31312e38322c31362e32342c38362e37382c2e38312c316102e08201527f32332e32362c342e39394d302c3236362e336331362e34392d322e37362c32396103008201527f2e37362d372e31312c33352e36312d31352e31354335372e36342c3232302e386103208201527f382d2e39342c3130382e39362c32392e33332c38362e39336332392e39372d326103408201527f312e38312c3131382e32312c36382e33312c3135342e32312c35362e363243326103608201527f31382e32382c3133322e32382c3233362e352c372e31322c3237352c372e31326103808201527f7335362e37322c3132352e31362c39312e34362c3133362e34346333362c31316103a08201527f2e36392c3132342e32352d37382e34332c3135342e32312d35362e36322c33306103c08201527f2e32372c32322e30332d32382e33312c3133332e39342d362e32382c3136342e6103e08201527f32312c352e38352c382e30342c31392e31322c31322e33392c33352e36312c316104008201527f352e31354d3137342e31362c34323563302d31372e34362d3131362e332d35336104208201527f2e31322d3131312e31382d36382e38382c352e332d31362e33332c3132302e356104408201527f312c32332e32332c3133302e342c392e36342c392e39392d31332e37332d36336104608201527f2e31362d3131312e30372d34392e34332d3132312e30362c31332e35392d392e6104808201527f38392c38332e35342c38392e36362c39392e38372c38342e33362c31352e37366104a08201527f2d352e31322c31332e37332d3132362e39342c33312e31392d3132362e3934736104c08201527f31352e34332c3132312e38332c33312e31392c3132362e39346331362e33332c6104e08201527f352e332c38362e32372d39342e32352c39392e38362d38342e33362c31332e376105008201527f332c392e39392d35392e34322c3130372e33332d34392e34332c3132312e30366105208201527f2c392e38392c31332e35392c3132352e312d32352e39372c3133302e342d392e6105408201527f36342c352e31322c31352e37362d3131312e31382c35312e34322d3131312e316105608201527f382c36382e3838733131362e332c35332e31322c3131312e31382c36382e38386105808201527f632d352e332c31362e33332d3132302e35312d32332e32332d3133302e342d396105a08201527f2e36342d392e39392c31332e37332c36332e31362c3131312e30372c34392e346105c08201527f332c3132312e30362d31332e35392c392e38392d38332e35342d38392e36362d6105e08201527f39392e38372d38342e33362d31352e37362c352e31322d31332e37332c3132366106008201527f2e39342d33312e31392c3132362e3934732d31352e34332d3132312e38332d336106208201527f312e31392d3132362e3934632d31362e33332d352e332d38362e32372c39342e6106408201527f32352d39392e38362c38342e33362d31332e37332d392e39392c35392e34322d6106608201527f3130372e33332c34392e34332d3132312e30362d392e38392d31332e35392d316106808201527f32352e312c32352e39372d3133302e342c392e36342d352e31322d31352e37366106a08201527f2c3131312e31382d35312e34322c3131312e31382d36382e38385a6d2d36352c6106c08201527f3063302d32342e34372d3131352e31392d36362e38392d3130382e30322d38386106e08201527f2e39372c372e34332d32322e38392c3132352e37382c31302e35382c3133392e6107008201527f36342d382e34382c31342d31392e32342d35342e32392d3132312e34342d33356107208201527f2e30352d3133352e34342c31392e30352d31332e38362c39352e30392c38322e6107408201527f35342c3131372e39382c37352e31312c32322e30382d372e31372c32362e382d6107608201527f3133302e31312c35312e32382d3133302e31317332392e31392c3132322e39346107808201527f2c35312e32382c3133302e31316332322e38392c372e34332c39382e39332d386107a08201527f382e39382c3131372e39382d37352e31312c31392e32342c31342d34392e30356107c08201527f2c3131362e322d33352e30352c3133352e34342c31332e38362c31392e30352c6107e08201527f3133322e32312d31342e34312c3133392e36352c382e34382c372e31372c32326108008201527f2e30382d3130382e30322c36342e34392d3130382e30322c38382e39377331316108208201527f352e31392c36362e38392c3130382e30322c38382e3937632d372e34332c32326108408201527f2e38392d3132352e37382d31302e35382d3133392e36342c382e34382d31342c6108608201527f31392e32342c35342e32392c3132312e34342c33352e30352c3133352e34342d6108808201527f31392e30352c31332e38362d39352e30392d38322e35342d3131372e39382d376108a08201527f352e31312d32322e30382c372e31372d32362e382c3133302e31312d35312e326108c08201527f382c3133302e3131732d32392e31392d3132322e39342d35312e32382d3133306108e08201527f2e3131632d32322e38392d372e34332d39382e39332c38382e39382d3131372e6109008201527f39382c37352e31312d31392e32342d31342c34392e30352d3131362e322c33356109208201527f2e30352d3133352e34342d31332e38362d31392e30352d3133322e32312c31346109408201527f2e34312d3133392e36352d382e34382d372e31372d32322e30382c3130382e306109608201527f322d36342e34392c3130382e30322d38382e39375a4d302c3331302e313963336109808201527f392e34332d2e37342c39342e39312c362e37372c3130352e37332d382e31312c6109a08201527f31362e36382d32322e39322d34382e33382d3132382e33362d32352e34362d316109c08201527f34352e30332c32322e36392d31362e35312c3130322e382c37372e382c3133306109e08201527f2e30362c36382e39352c32362e332d382e35342c33352e35322d3133322e3232610a008201527f2c36342e36372d3133322e32327333382e33372c3132332e36382c36342e3637610a208201527f2c3133322e32326332372e32362c382e38352c3130372e33372d38352e34362c610a408201527f3133302e30362d36382e39352c32322e39322c31362e36382d34322e31342c31610a608201527f32322e31322d32352e34362c3134352e30332c31302e38322c31342e38372c36610a808201527f362e332c372e33372c3130352e37332c382e31316d2d3333322e352c3131342e610aa08201527f383163302d31322e37392d3131372e30342d34332e39352d3131332e32392d35610ac08201527f352e34382c332e38382d31312e39362c3131362e39392c33312e36372c313234610ae08201527f2e32342c32312e37322c372e33322d31302e30352d36392e30372d3130342e31610b008201527f362d35392e30322d3131312e34372c392e39352d372e32342c37352e38332c39610b208201527f342e342c38372e37392c39302e35322c31312e35342d332e37352c352e30312d610b408201527f3132342e38332c31372e37392d3132342e383373362e32352c3132312e30392c610b608201527f31372e37392c3132342e38336331312e39362c332e38382c37372e38332d3937610b808201527f2e37362c38372e37392d39302e35322c31302e30352c372e33322d36362e3334610ba08201527f2c3130312e34322d35392e30322c3131312e34372c372e32342c392e39352c31610bc08201527f32302e33352d33332e36382c3132342e32342d32312e37322c332e37352c3131610be08201527f2e35342d3131332e32392c34322e372d3131332e32392c35352e343873313137610c008201527f2e30342c34332e39352c3131332e32392c35352e3438632d332e38382c31312e610c208201527f39362d3131362e39392d33312e36372d3132342e32342d32312e37322d372e33610c408201527f322c31302e30352c36392e30372c3130342e31362c35392e30322c3131312e34610c608201527f372d392e39352c372e32342d37352e38332d39342e342d38372e37392d39302e610c808201527f35322d31312e35342c332e37352d352e30312c3132342e38332d31372e37392c610ca08201527f3132342e3833732d362e32352d3132312e30392d31372e37392d3132342e3833610cc08201527f632d31312e39362d332e38382d37372e38332c39372e37362d38372e37392c39610ce08201527f302e35322d31302e30352d372e33322c36362e33342d3130312e34322c35392e610d008201527f30322d3131312e34372d372e32342d392e39352d3132302e33352c33332e3638610d208201527f2d3132342e32342c32312e37322d332e37352d31312e35342c3131332e32392d610d408201527f34322e372c3131332e32392d35352e34385a6d2d32312e36372c3063302d3135610d608201527f2e31322d3131362e36372d34382e35332d3131322e32342d36322e31382c342e610d808201527f35392d31342e31342c3131382e37352c32372e34352c3132372e33322c31352e610da08201527f36382c382e36352d31312e38392d36362e31322d3130372e36312d35342e3233610dc08201527f2d3131362e32372c31312e37372d382e35372c37392e36382c39322e30332c39610de08201527f332e38332c38372e34342c31332e36352d342e34332c392e33372d3132352e38610e008201527f392c32342e34392d3132352e38397331302e38342c3132312e34362c32342e34610e208201527f392c3132352e38396331342e31342c342e35392c38322e30352d39362e30312c610e408201527f39332e38332d38372e34342c31312e38392c382e36352d36322e38382c313034610e608201527f2e33382d35342e32332c3131362e32372c382e35372c31312e37372c3132322e610e808201527f37332d32392e38322c3132372e33322d31352e36382c342e34332c31332e3635610ea08201527f2d3131322e32342c34372e30362d3131322e32342c36322e3138733131362e36610ec08201527f372c34382e35332c3131322e32342c36322e3138632d342e35392c31342e3134610ee08201527f2d3131382e37352d32372e34352d3132372e33322d31352e36382d382e36352c610f008201527f31312e38392c36362e31322c3130372e36312c35342e32332c3131362e32372d610f208201527f31312e37372c382e35372d37392e36382d39322e30332d39332e38332d38372e610f408201527f34342d31332e36352c342e34332d392e33372c3132352e38392d32342e34392c610f608201527f3132352e3839732d31302e38342d3132312e34362d32342e34392d3132352e38610f808201527f39632d31342e31342d342e35392d38322e30352c39362e30312d39332e38332c610fa08201527f38372e34342d31312e38392d382e36352c36322e38382d3130342e33382c3534610fc08201527f2e32332d3131362e32372d382e35372d31312e37372d3132322e37332c32392e610fe08201527f38322d3132372e33322c31352e36382d342e34332d31332e36352c3131322e326110008201527f342d34372e30362c3131322e32342d36322e31385a6d2d34332e33332c3063306110208201527f2d31392e382d3131352e39332d35372e37312d3131302e31332d37352e35372c6110408201527f362e30312d31382e35322c3132322e32372c31392e30312c3133332e34382c336110608201527f2e362c31312e33332d31352e35372d36302e322d3131342e35332d34342e36346110808201527f2d3132352e38362c31352e34312d31312e32322c38372e33392c38372e32392c6110a08201527f3130352e392c38312e32382c31372e38362d352e382c31382e30382d3132382c6110c08201527f33372e38382d3132387332302e30322c3132322e322c33372e38382c313238636110e08201527f31382e35322c362e30312c39302e34392d39322e34392c3130352e392d38312e6111008201527f32382c31352e35372c31312e33332d35352e39372c3131302e32392d34342e366111208201527f342c3132352e38362c31312e32322c31352e34312c3132372e34372d32322e316111408201527f322c3133332e34382d332e362c352e382c31372e38362d3131302e31332c35356111608201527f2e37382d3131302e31332c37352e3537733131352e39332c35372e37312c31316111808201527f302e31332c37352e3537632d362e30312c31382e35322d3132322e32372d31396111a08201527f2e30312d3133332e34382d332e362d31312e33332c31352e35372c36302e322c6111c08201527f3131342e35332c34342e36342c3132352e38362d31352e34312c31312e32322d6111e08201527f38372e33392d38372e32392d3130352e392d38312e32382d31372e38362c352e6112008201527f382d31382e30382c3132382d33372e38382c313238732d32302e30322d3132326112208201527f2e322d33372e38382d313238632d31382e35322d362e30312d39302e34392c396112408201527f322e34392d3130352e392c38312e32382d31352e35372d31312e33332c35352e6112608201527f39372d3131302e32392c34342e36342d3132352e38362d31312e32322d31352e6112808201527f34312d3132372e34372c32322e31322d3133332e34382c332e362d352e382d316112a08201527f372e38362c3131302e31332d35352e37382c3131302e31332d37352e35375a6d6112c08201527f2d32312e36372c3063302d32322e31342d3131352e35362d36322e332d3130396112e08201527f2e30372d38322e32372c362e37322d32302e372c3132342e30322c31342e37396113008201527f2c3133362e35362d322e34342c31322e36372d31372e342d35372e32352d31316113208201527f372e39392d33392e38342d3133302e36352c31372e32332d31322e35342c39316113408201527f2e32342c38342e39322c3131312e39342c37382e31392c31392e39372d362e346113608201527f392c32322e34342d3132392e30352c34342e35382d3132392e30357332342e366113808201527f312c3132322e35372c34342e35382c3132392e30356332302e372c362e37322c6113a08201527f39342e37312d39302e37332c3131312e39342d37382e322c31372e342c31322e6113c08201527f36372d35322e35312c3131332e32352d33392e38342c3133302e36352c31322e6113e08201527f35342c31372e32332c3132392e38342d31382e32362c3133362e35362c322e346114008201527f342c362e34392c31392e39372d3130392e30372c36302e31342d3130392e30376114208201527f2c38322e3237733131352e35362c36322e332c3130392e30372c38322e3237636114408201527f2d362e37322c32302e372d3132342e30322d31342e37392d3133362e35362c326114608201527f2e34342d31322e36372c31372e342c35372e32352c3131372e39392c33392e386114808201527f342c3133302e36352d31372e32332c31322e35342d39312e32342d38342e39326114a08201527f2d3131312e39342d37382e31392d31392e39372c362e34392d32322e34342c316114c08201527f32392e30352d34342e35382c3132392e3035732d32342e36312d3132322e35376114e08201527f2d34342e35382d3132392e3035632d32302e372d362e37322d39342e37312c396115008201527f302e37332d3131312e39342c37382e322d31372e342d31322e36372c35322e356115208201527f312d3131332e32352c33392e38342d3133302e36352d31322e35342d31372e326115408201527f332d3132392e38342c31382e32362d3133362e35362d322e34342d362e34392d6115608201527f31392e39372c3130392e30372d36302e31342c3130392e30372d38322e32375a6115808201527f4d302c3339322e34346331332e31322c31312e372c32322e352c32322e38352c6115a08201527f32322e352c33322e3536732d392e33382c32302e38372d32322e352c33322e356115c08201527f366d302d37392e37356332332e32322c31362e39362c34342e31362c33332e376115e08201527f2c34342e31362c34372e3139732d32302e39352c33302e32332d34342e31362c6116008201527f34372e31394d3532372e35362c312e3435632d34332e38322c31352e39312d396116208201527f362e38312c34392e30352d3132372e36322c33392e30352d31342e34322d342e6116408201527f36382d32372e32342d32302e37362d33392e36342d34302e356d3133352e342c6116608201527f30632d33332e37332c31342e38372d36372e32382c32392e31392d38392e37326116808201527f2c32312e39312d392e36392d332e31352d31382e37312d31312e31362d32372e6116a08201527f33362d32312e39316d2d34392e37372c3835306331382e33362d33352e31352c6116c08201527f33352e37332d37342e35392c35372e36392d38312e37322c33392e33372d31326116e08201527f2e37382c3132332e30342c36302e36372c3136332e34312c35312e33364d31376117008201527f312e33372c30632d382e36352c31302e37352d31372e36362c31382e37362d326117208201527f372e33362c32312e3931433132312e35372c32392e31392c38382e30322c31346117408201527f2e38372c35342e32392c304d302c3336362e31366333302e30352c32302e372c6117608201527f36352e38332c34322e35352c36352e38332c35382e38345333302e30352c34366117808201527f332e31352c302c3438332e38346d302d3139332e31336333312e34332d2e38326117a08201527f2c36312e392d322e30342c37302e36372d31342e312c31392e33352d32362e356117c08201527f392d34322e34362d3133352e32372d31352e38372d3135342e36322c32362e336117e08201527f332d31392e31362c3131302e35312c37332e30362c3134322e31342c36322e376118008201527f392c33302e35322d392e39312c34342e32342d3133342e33332c37382e30372d6118208201527f3133342e33337334372e35352c3132342e34322c37382e30372c3133342e33336118408201527f6333312e36332c31302e32372c3131352e38312d38312e39352c3134322e31346118608201527f2d36322e37392c32362e35392c31392e33352d33352e32322c3132382e30332d6118808201527f31352e38372c3135342e36322c382e37382c31322e30362c33392e32342c31336118a08201527f2e32382c37302e36372c31342e316d302d3233352e3139632d312e31342d312e6118c08201527f33372d322e34312d322e362d332e38362d332e36352d33332e36312d32342e346118e08201527f362d3132352e39322c36332e35372d3136362e32392c35302e34362d32352e326119008201527f382d382e32312d34332e37332d36342e312d36352e33362d3130322e33334d306119208201527f2c3330302e386333362e382d2e32312c37382e33342c322e312c38382e322d316119408201527f312e34352c31382e30312d32342e37352d34352e34322d3133312e38312d32306119608201527f2e36372d3134392e38332c32342e35312d31372e38342c3130362e36352c37356119808201527f2e34332c3133362e312c36352e38372c32382e34312d392e32322c33392e38386119a08201527f2d3133332e32372c37312e33372d3133332e32377334322e39362c3132342e306119c08201527f352c37312e33372c3133332e32376332392e34342c392e35362c3131312e35396119e08201527f2d38332e37312c3133362e312d36352e38372c32342e37352c31382e30312d33611a008201527f382e36382c3132352e30372d32302e36372c3134392e38332c392e38362c3133611a208201527f2e35352c35312e342c31312e32352c38382e322c31312e34354d3239382e3438611a408201527f2c306332362e37332c33332e342c34352e36312c3131332e35312c37342e3638611a608201527f2c3132322e39352c33382e31392c31322e342c3132382e34372d37362e36382c611a808201527f3136302e32352d35332e35342c33322e312c32332e33362d32342e38352c3133611aa08201527f362e392d312e34392c3136392c332e372c352e30382c31302e30322c382e3835611ac08201527f2c31382e30382c31312e37376d2d362e37332d3233372e38632d34352e31372c611ae08201527f372e35322d3131342e31372c36302e33372d3135302e30322c34382e37332d31611b008201527f382e34372d362d33342e30332d33322e36322d34392e35332d36312e31316d32611b208201527f30362e32382c3437322e3139632d32332e32322d31362e39362d34342e31362d611b408201527f33332e372d34342e31362d34372e31397332302e39352d33302e32332c34342e611b608201527f31362d34372e31394d302c3739342e343763312e31342c312e33372c322e3431611b808201527f2c322e362c332e38362c332e36352c33332e36312c32342e34362c3132352e39611ba08201527f322d36332e35372c3136362e32392d35302e34362c32352e32382c382e32312c611bc08201527f34332e37332c36342e312c36352e33362c3130322e33334d302c3235302e3138611be08201527f63382e30362d322e39322c31342e33382d362e36392c31382e30382d31312e37611c008201527f372c32332e33362d33322e312d33332e35392d3134352e36342d312e34392d31611c208201527f36392c33312e37392d32332e31332c3132322e30362c36352e39342c3136302e611c408201527f32352c35332e35342c32392e30372d392e34342c34372e39352d38392e35342c611c608201527f37342e36382d3132322e39354d362e37332c3833372e36326334352e31372d37611c808201527f2e35322c3131342e31372d36302e33372c3135302e30322d34382e37332c3138611ca08201527f2e34372c362c33342e30332c33322e36322c34392e35332c36312e31314d2e30611cc08201527f342c3831392e36336334302e33372c392e33322c3132342e30342d36342e3134611ce08201527f2c3136332e34312d35312e33362c32312e39362c372e31332c33392e33332c34611d008201527f362e35372c35372e36392c38312e37326d3332382e38362d3336362e3136632d611d208201527f33302e30352d32302e372d36352e38332d34322e35352d36352e38332d35382e611d408201527f38347333352e37382d33382e31352c36352e38332d35382e38346d302c313238611d608201527f2e3338632d33312e30322d32332e31352d38372e352d35302e37332d38372e35611d808201527f2d36392e35337335362e34372d34362e33392c38372e352d36392e35334d3233611da08201527f352e352c30632d32312e36332c33382e32342d34302e30382c39342e31332d36611dc08201527f352e33362c3130322e3333433132392e37372c3131352e34342c33372e34362c611de08201527f32372e34322c332e38362c35312e3837632d312e34352c312e30352d322e3732611e008201527f2c322e32382d332e38362c332e36354d32322e34342c3834382e35356334332e611e208201527f38322d31352e39312c39362e38312d34392e30352c3132372e36322d33392e30611e408201527f352c31342e34322c342e36382c32372e32342c32302e37362c33392e36342c34611e608201527f302e354d3232312e31342c30632d31382e33362c33352e31352d33352e37332c611e808201527f37342e35392d35372e36392c38312e3732433132342e30382c39342e35312c34611ea08201527f302e34312c32312e30352c2e30342c33302e33374d3336302e33312c38353063611ec08201527f31322e342d31392e37342c32352e32312d33352e38322c33392e36342d34302e611ee08201527f352c33302e38312d31302c38332e37392c32332e31332c3132372e36322c3339611f008201527f2e30356d2d3134382e39332c312e343563382e36352d31302e37352c31372e36611f208201527f362d31382e37362c32372e33362d32312e39312c32322e34342d372e32392c35611f408201527f362c372e30342c38392e37322c32312e39316d2d3135312e39392c306331352e611f608201527f352d32382e34392c33312e30352d35352e31312c34392e35332d36312e31312c611f808201527f33352e38352d31312e36342c3130342e38352c34312e32312c3135302e30322c611fa08201527f34382e37336d2d3438382e39382c31322e33386333332e37332d31342e38372c611fc08201527f36372e32382d32392e31392c38392e37322d32312e39312c392e36392c332e31611fe08201527f352c31382e37312c31312e31362c32372e33362c32312e39316d3337382e36336120008201527f2d3331302e3139632d33392e34332c2e37342d39342e39312d362e37372d31306120208201527f352e37332c382e31312d31362e36382c32322e39322c34382e33382c3132382e6120408201527f33362c32352e34362c3134352e30332d32322e36392c31362e35312d3130322e6120608201527f382d37372e382d3133302e30362d36382e39352d32362e332c382e35342d33356120808201527f2e35322c3133322e32322d36342e36372c3133322e3232732d33382e33372d316120a08201527f32332e36382d36342e36372d3133322e3232632d32372e32362d382e38352d316120c08201527f30372e33372c38352e34362d3133302e30362c36382e39352d32322e39322d316120e08201527f362e36382c34322e31342d3132322e31322c32352e34362d3134352e30332d316121008201527f302e38322d31342e38372d36362e332d372e33372d3130352e37332d382e31316121208201527f6d3535302d392e3632632d33362e34382c342e31382d3131312e34342d31312e6121408201527f32362d3132332e32362c342e39392d31352e33342c32312e30382c35312e33336121608201527f2c3132342e392c33302e32362c3134302e32342d32302e38372c31352e31392d6121808201527f39382e39352d38302e31372d3132342e30322d37322e30332d32342e31392c376121a08201527f2e38352d33312e31362c3133312e31362d35372e39372c3133312e3136732d336121c08201527f332e37382d3132332e33312d35372e39372d3133312e3136632d32352e30372d6121e08201527f382e31342d3130332e31352c38372e32322d3132342e30322c37322e30332d326122008201527f312e30382d31352e33342c34352e362d3131392e31362c33302e32362d3134306122208201527f2e32342d31312e38322d31362e32342d38362e37382d2e38312d3132332e32366122408201527f2d342e39396d3535302c31392e3031632d33362e382c2e32312d37382e33342d6122608201527f322e312d38382e322c31312e34352d31382e30312c32342e37352c34352e34326122808201527f2c3133312e38312c32302e36372c3134392e38332d32342e35312c31372e38346122a08201527f2d3130362e36352d37352e34332d3133362e312d36352e38372d32382e34312c6122c08201527f392e32322d33392e38382c3133332e32372d37312e33372c3133332e3237732d6122e08201527f34322e39362d3132342e30352d37312e33372d3133332e3237632d32392e34346123008201527f2d392e35362d3131312e35392c38332e37312d3133362e312c36352e38372d326123208201527f342e37352d31382e30312c33382e36382d3132352e30372c32302e36372d31346123408201527f392e38332d392e38362d31332e35352d35312e342d31312e32352d38382e322d6123608201527f31312e34356d3331342e352c3330302e386332312e36332d33382e32342c34306123808201527f2e30382d39342e31332c36352e33362d3130322e33332c34302e33372d31332e6123a08201527f31312c3133322e36382c37342e39322c3136362e32392c35302e34362c312e346123c08201527f352d312e30352c322e37322d322e32382c332e38362d332e36356d302d3139346123e08201527f2e3635632d382e30362c322e39322d31342e33382c362e36392d31382e30382c6124008201527f31312e37372d32332e33362c33322e312c33332e35392c3134352e36342c312e6124208201527f34392c3136392d33312e37392c32332e31332d3132322e30362d36352e39342d6124408201527f3136302e32352d35332e35342d32392e30372c392e34342d34372e39352c38396124608201527f2e35342d37342e36382c3132322e39356d2d35392e33322d34323563302d31306124808201527f2e34352d3131372e34312d33392e33362d3131342e33352d34382e37392c332e6124a08201527f31372d392e37372c3131352e32342c33352e38392c3132312e31362c32372e376124c08201527f362c352e39382d382e32322d37322e30332d3130302e372d36332e38322d31306124e08201527f362e36382c382e31332d352e39322c37312e39382c39362e37382c38312e37356125008201527f2c39332e362c392e34332d332e30362c2e36352d3132332e37382c31312e30396125208201527f2d3132332e373873312e36372c3132302e37322c31312e30392c3132332e37386125408201527f63392e37372c332e31372c37332e36312d39392e35322c38312e37352d39332e6125608201527f362c382e32322c352e39382d36392e37392c39382e34372d36332e38312c31306125808201527f362e36382c352e39322c382e31332c3131372e39382d33372e35332c3132312e6125a08201527f31362d32372e37362c332e30362c392e34332d3131342e33352c33382e33342d6125c08201527f3131342e33352c34382e3739733131372e34312c33392e33362c3131342e33356125e08201527f2c34382e3739632d332e31372c392e37372d3131352e32342d33352e38392d316126008201527f32312e31362d32372e37362d352e39382c382e32322c37322e30332c3130302e6126208201527f372c36332e38322c3130362e36382d382e31332c352e39322d37312e39382d396126408201527f362e37382d38312e37352d39332e362d392e34332c332e30362d2e36352c31326126608201527f332e37382d31312e30392c3132332e3738732d312e36372d3132302e37322d316126808201527f312e30392d3132332e3738632d392e37372d332e31372d37332e36312c39392e6126a08201527f35322d38312e37352c39332e362d382e32322d352e39382c36392e37392d39386126c08201527f2e34372c36332e38312d3130362e36382d352e39322d382e31332d3131372e396126e08201527f382c33372e35332d3132312e31362c32372e37362d332e30362d392e34332c316127008201527f31342e33352d33382e33342c3131342e33352d34382e37395a4d302c3237392e6127208201527f34326332342e34352d312e38352c34352e36372d352e32362c35332e31342d316127408201527f352e35342c32302e36392d32382e34332d33392e35312d3133382e37332d31316127608201527f2e30382d3135392e34322c32382e31352d32302e34382c3131342e33362c37306127808201527f2e36392c3134382e31372c35392e37312c33322e36332d31302e35392c34382e6127a08201527f362d3133352e33382c38342e37362d3133352e33387335322e31342c3132342e6127c08201527f37392c38342e37362c3133352e33386333332e38322c31302e39382c3132302e6127e08201527f30332d38302e31392c3134382e31372d35392e37312c32382e34332c32302e366128008201527f392d33312e37372c3133302e39392d31312e30382c3135392e34322c372e34386128208201527f2c31302e32372c32382e36392c31332e36392c35332e31342c31352e35344d326128408201527f35312e35322c383530632d32362e37332d33332e342d34352e36312d3131332e6128608201527f35312d37342e36382d3132322e39352d33382e31392d31322e342d3132382e346128808201527f372c37362e36382d3136302e32352c35332e35342d33322e312d32332e33362c6128a08201527f32342e38352d3133362e392c312e34392d3136392d332e372d352e30382d31306128c08201527f2e30322d382e38352d31382e30382d31312e37376d3535302d3134322e3236636128e08201527f2d31332e31322d31312e372d32322e352d32322e38352d32322e352d33322e356129008201527f3673392e33382d32302e38372c32322e352d33322e35366d302c3136362e38356129208201527f632d33312e34332c2e38322d36312e392c322e30342d37302e36372c31342e316129408201527f2d31392e33352c32362e35392c34322e34362c3133352e32372c31352e38372c6129608201527f3135342e36322d32362e33332c31392e31362d3131302e35312d37332e30362d6129808201527f3134322e31342d36322e37392d33302e35322c392e39312d34342e32342c31336129a08201527f342e33332d37382e30372c3133342e3333732d34372e35352d3132342e34322d6129c08201527f37382e30372d3133342e3333632d33312e36332d31302e32372d3131352e38316129e08201527f2c38312e39352d3134322e31342c36322e37392d32362e35392d31392e33352c612a008201527f33352e32322d3132382e30332c31352e38372d3135342e36322d382e37382d31612a208201527f322e30362d33392e32342d31332e32382d37302e36372d31342e316d3535302c612a408201527f31312e33632d32342e34352c312e38352d34352e36372c352e32362d35332e31612a608201527f342c31352e35342d32302e36392c32382e34332c33392e35312c3133382e3733612a808201527f2c31312e30382c3135392e34322d32382e31352c32302e34382d3131342e3336612aa08201527f2d37302e36392d3134382e31372d35392e37312d33322e36332c31302e35392d612ac08201527f34382e362c3133352e33382d38342e37362c3133352e3338732d35322e31342d612ae08201527f3132342e37392d38342e37362d3133352e3338632d33332e38322d31302e3938612b008201527f2d3132302e30332c38302e31392d3134382e31372c35392e37312d32382e3433612b208201527f2d32302e36392c33312e37372d3133302e39392c31312e30382d3135392e3432612b408201527f2d372e34382d31302e32372d32382e36392d31332e36392d35332e31342d3135612b608201527f2e35346d3535302c31332e3132632d31362e34392c322e37362d32392e37362c612b808201527f372e31312d33352e36312c31352e31352d32322e30332c33302e32372c33362e612ba08201527f35352c3134322e31382c362e32382c3136342e32312d32392e39372c32312e38612bc08201527f312d3131382e32312d36382e33312d3135342e32312d35362e36322d33342e37612be08201527f342c31312e32382d35322e39362c3133362e34342d39312e34362c3133362e34612c008201527f34732d35362e37322d3132352e31362d39312e34362d3133362e3434632d3336612c208201527f2d31312e36392d3132342e32352c37382e34332d3135342e32312c35362e3632612c408201527f2d33302e32372d32322e30332c32382e33312d3133332e39342c362e32382d31612c608201527f36342e32312d352e38352d382e30342d31392e31322d31322e33392d33352e36612c808201527f312d31352e313522207374796c653d2266696c6c3a206e6f6e653b207374726f612ca08201527f6b653a20236666636534333b207374726f6b652d6d697465726c696d69743a20612cc08201527f31303b207374726f6b652d77696474683a203270783b222f3e00000000000000612ce0820152631e17b39f60e11b612cf98201526000612cfd82015b92915050565b634e487b7160e01b600052603260045260246000fd5b6000845161438b8184602089016109cf565b8083019050602d60f81b80825285516143ab816001850160208a016109cf565b600192019182015283516143c68160028401602088016109cf565b0160020195945050505050565b7f3c672069643d22646976696465722d636f6c6f722220746578742d72656e646581527f72696e673d226f7074696d697a6553706565642220666f6e742d73697a653d2260208201527f3130222066696c6c3d2223666663653433223e0000000000000000000000000060408201526000605382017f3c706174682069643d22646976696465722d636f6c6f722d322220646174612d81527f6e616d653d22646976696465722d636f6c6f722220643d224d3135362e33352c60208201527f3531342e3539683233372e333122207374796c653d2266696c6c3a206e6f6e6560408201527f3b207374726f6b653a20236666636534333b207374726f6b652d6d697465726c60608201527f696d69743a2031303b207374726f6b652d77696474683a203270783b222f3e0060808201527f3c746578742069643d22776f726b2d706572696f642d636f6c6f722220747261609f8201527f6e73666f726d3d227472616e736c617465283133342e3735203130322e30362960bf8201527f22207374796c653d22666f6e742d66616d696c793a20496e7465722d5265677560df8201527f6c61722c20496e7465723b20666f6e742d73697a653a20313570783b223e000060ff8201527f3c747370616e20783d22302220793d223022207374796c653d226c657474657261011d8201527f2d73706163696e673a202d2e3035656d3b223e576f726b20506572696f643a2061013d82015261463c610c33614629614615610c2d61460661015d87018b610ac0565b620101f160ed1b815260030190565b671e17ba39b830b71f60c11b815260080190565b661e17ba32bc3a1f60c91b815260070190565b95945050505050565b600083516146578184602088016109cf565b83519083019061466b8183602088016109cf565b01949350505050565b7f3c746578742069643d2273636f70652d7469746c652d636f6c6f72222074726181527f6e73666f726d3d227472616e736c617465283135362e3335203334332e37372960208201527f22207374796c653d2266696c6c3a20236666636534333b20666f6e742d66616d60408201527f696c793a2053706163654d6f6e6f2d426f6c642c205370616365204d6f6e6f3b60608201526210111f60e91b60808201527f3c747370616e20783d22302220793d2230223e000000000000000000000000006083820152600082516147508160968501602087016109cf565b671e17ba39b830b71f60c11b6096939091019283015250661e17ba32bc3a1f60c91b609e82015260a501919050565b7f3c672069643d226e616d652d636f6c6f722220746578742d72656e646572696e81527f673d226f7074696d697a6553706565642220666f6e742d73697a653d223330226020820152601f60f91b6040820152600082516147e78160418501602087016109cf565b631e17b39f60e11b6041939091019283015250604501919050565b7f3c74657874207472616e73666f726d3d227472616e736c617465283135362e3381527f35203530302922207374796c653d22666f6e742d66616d696c793a20496e746560208201527f722d526567756c61722c20496e7465723b20666f6e742d73697a653a203135706040820152633c1d911f60e11b60608201527f3c747370616e20783d22302220793d2230223e200000000000000000000000006064820152600082516148b98160788501602087016109cf565b6e1e17ba39b830b71f1e17ba32bc3a1f60891b6078939091019283015250608701919050565b7f3c672069643d2273636f70652d63617465676f72792d636f6c6f72222074657881527f742d72656e646572696e673d226f7074696d697a6553706565642220666f6e7460208201527f2d73697a653d223135222066696c6c3d227768697465223e00000000000000006040820152600082516149638160588501602087016109cf565b631e17b39f60e11b6058939091019283015250605c01919050565b7f3c746578742069643d226672616374696f6d2d636f6c6f7222207472616e736681527f6f726d3d227472616e736c617465283135362e3335203536382e30332922207360208201527f74796c653d2266696c6c3a20236666636534333b20666f6e742d66616d696c7960408201527f3a2053706163654d6f6e6f2d426f6c642c2053706163654d6f6e6f223e3c747360608201527f70616e20783d22302220793d2230223e00000000000000000000000000000000608082015260008351614a4e8160908501602088016109cf565b6201017960ed1b6090918401918201528351614a718160938401602088016109cf565b6e1e17ba39b830b71f1e17ba32bc3a1f60891b6093929091019182015260a201949350505050565b7f3c672069643d2273636f70652d63617465676f72792d636f6c6f72222074657881527f742d72656e646572696e673d226f7074696d697a6553706565642220666f6e7460208201527f2d73697a653d223330223e000000000000000000000000000000000000000000604082015260008251614b1d81604b8501602087016109cf565b631e17b39f60e11b604b939091019283015250604f01919050565b7f3c746578742069643d22696d706163742d706572696f642d636f6c6f7222207481527f72616e73666f726d3d227472616e736c617465283133342e373520373635292260208201527f207374796c653d22666f6e742d66616d696c793a20496e7465722d526567756c60408201527f61722c20496e7465723b20666f6e742d73697a653a20313570783b223e00000060608201527f3c747370616e20783d22302220793d223022207374796c653d226c6574746572607d8201527f2d73706163696e673a202d2e3035656d3b223e496d7061637420506572696f64609d8201526101d160f51b60bd82015260008351614c398160bf8501602088016109cf565b620101f160ed1b60bf918401918201528351614c5c8160c28401602088016109cf565b671e17ba39b830b71f60c11b60c2929091019182015260ca01949350505050565b7f3c672069643d22646976696465722d636f6c6f722220746578742d72656e646581527f72696e673d226f7074696d697a6553706565642220666f6e742d73697a653d2260208201527f3130222066696c6c3d2223666663653433223e0000000000000000000000000060408201526000605382018351614d028183602088016109cf565b661e17ba32bc3a1f60c91b9101908152631e17b39f60e11b6007820152600b019392505050565b634e487b7160e01b600052601260045260246000fd5b634e487b7160e01b600052601160045260246000fd5b600060018201614d6757614d67614d3f565b5060010190565b600082614d7d57614d7d614d29565b500490565b8181038181111561435d5761435d614d3f565b600082614da457614da4614d29565b500690565b8082018082111561435d5761435d614d3f56fea164736f6c6343000810000a",
  "devdoc": {
    "kind": "dev",
    "methods": {},
    "stateVariables": {
      "certBgColors": {
        "details": "voucher => claimType => background colors"
      }
    },
    "version": 1
  },
  "userdoc": {
    "kind": "user",
    "methods": {},
    "version": 1
  },
  "storageLayout": {
    "storage": [
      {
        "astId": 257,
        "contract": "contracts/HypercertSVG.sol:HypercertSVG",
        "label": "certBgColors",
        "offset": 0,
        "slot": "0",
        "type": "t_mapping(t_address,t_mapping(t_uint8,t_array(t_string_storage)dyn_storage))"
      }
    ],
    "types": {
      "t_address": {
        "encoding": "inplace",
        "label": "address",
        "numberOfBytes": "20"
      },
      "t_array(t_string_storage)dyn_storage": {
        "base": "t_string_storage",
        "encoding": "dynamic_array",
        "label": "string[]",
        "numberOfBytes": "32"
      },
      "t_mapping(t_address,t_mapping(t_uint8,t_array(t_string_storage)dyn_storage))": {
        "encoding": "mapping",
        "key": "t_address",
        "label": "mapping(address => mapping(uint8 => string[]))",
        "numberOfBytes": "32",
        "value": "t_mapping(t_uint8,t_array(t_string_storage)dyn_storage)"
      },
      "t_mapping(t_uint8,t_array(t_string_storage)dyn_storage)": {
        "encoding": "mapping",
        "key": "t_uint8",
        "label": "mapping(uint8 => string[])",
        "numberOfBytes": "32",
        "value": "t_array(t_string_storage)dyn_storage"
      },
      "t_string_storage": {
        "encoding": "bytes",
        "label": "string",
        "numberOfBytes": "32"
      },
      "t_uint8": {
        "encoding": "inplace",
        "label": "uint8",
        "numberOfBytes": "1"
      }
    }
  }
}