{
  "address": "0x3bC93F25302E1709c9c8Bd4E75ebcF30a888Dcbc",
  "abi": [
    {
      "inputs": [],
      "stateMutability": "nonpayable",
      "type": "constructor"
    },
    {
      "anonymous": false,
      "inputs": [
        {
          "indexed": false,
          "internalType": "address",
          "name": "previousAdmin",
          "type": "address"
        },
        {
          "indexed": false,
          "internalType": "address",
          "name": "newAdmin",
          "type": "address"
        }
      ],
      "name": "AdminChanged",
      "type": "event"
    },
    {
      "anonymous": false,
      "inputs": [
        {
          "indexed": true,
          "internalType": "address",
          "name": "beacon",
          "type": "address"
        }
      ],
      "name": "BeaconUpgraded",
      "type": "event"
    },
    {
      "anonymous": false,
      "inputs": [
        {
          "indexed": false,
          "internalType": "uint8",
          "name": "version",
          "type": "uint8"
        }
      ],
      "name": "Initialized",
      "type": "event"
    },
    {
      "anonymous": false,
      "inputs": [
        {
          "indexed": true,
          "internalType": "bytes32",
          "name": "role",
          "type": "bytes32"
        },
        {
          "indexed": true,
          "internalType": "bytes32",
          "name": "previousAdminRole",
          "type": "bytes32"
        },
        {
          "indexed": true,
          "internalType": "bytes32",
          "name": "newAdminRole",
          "type": "bytes32"
        }
      ],
      "name": "RoleAdminChanged",
      "type": "event"
    },
    {
      "anonymous": false,
      "inputs": [
        {
          "indexed": true,
          "internalType": "bytes32",
          "name": "role",
          "type": "bytes32"
        },
        {
          "indexed": true,
          "internalType": "address",
          "name": "account",
          "type": "address"
        },
        {
          "indexed": true,
          "internalType": "address",
          "name": "sender",
          "type": "address"
        }
      ],
      "name": "RoleGranted",
      "type": "event"
    },
    {
      "anonymous": false,
      "inputs": [
        {
          "indexed": true,
          "internalType": "bytes32",
          "name": "role",
          "type": "bytes32"
        },
        {
          "indexed": true,
          "internalType": "address",
          "name": "account",
          "type": "address"
        },
        {
          "indexed": true,
          "internalType": "address",
          "name": "sender",
          "type": "address"
        }
      ],
      "name": "RoleRevoked",
      "type": "event"
    },
    {
      "anonymous": false,
      "inputs": [
        {
          "indexed": true,
          "internalType": "address",
          "name": "implementation",
          "type": "address"
        }
      ],
      "name": "Upgraded",
      "type": "event"
    },
    {
      "inputs": [],
      "name": "DEFAULT_ADMIN_ROLE",
      "outputs": [
        {
          "internalType": "bytes32",
          "name": "",
          "type": "bytes32"
        }
      ],
      "stateMutability": "view",
      "type": "function"
    },
    {
      "inputs": [],
      "name": "UPGRADER_ROLE",
      "outputs": [
        {
          "internalType": "bytes32",
          "name": "",
          "type": "bytes32"
        }
      ],
      "stateMutability": "view",
      "type": "function"
    },
    {
      "inputs": [
        {
          "internalType": "uint256",
          "name": "slotId",
          "type": "uint256"
        }
      ],
      "name": "generateSlotURI",
      "outputs": [
        {
          "internalType": "string",
          "name": "",
          "type": "string"
        }
      ],
      "stateMutability": "view",
      "type": "function"
    },
    {
      "inputs": [
        {
          "internalType": "uint256",
          "name": "slotId",
          "type": "uint256"
        },
        {
          "internalType": "uint256",
          "name": "tokenId",
          "type": "uint256"
        }
      ],
      "name": "generateTokenURI",
      "outputs": [
        {
          "internalType": "string",
          "name": "",
          "type": "string"
        }
      ],
      "stateMutability": "view",
      "type": "function"
    },
    {
      "inputs": [
        {
          "internalType": "bytes32",
          "name": "role",
          "type": "bytes32"
        }
      ],
      "name": "getRoleAdmin",
      "outputs": [
        {
          "internalType": "bytes32",
          "name": "",
          "type": "bytes32"
        }
      ],
      "stateMutability": "view",
      "type": "function"
    },
    {
      "inputs": [
        {
          "internalType": "bytes32",
          "name": "role",
          "type": "bytes32"
        },
        {
          "internalType": "address",
          "name": "account",
          "type": "address"
        }
      ],
      "name": "grantRole",
      "outputs": [],
      "stateMutability": "nonpayable",
      "type": "function"
    },
    {
      "inputs": [
        {
          "internalType": "bytes32",
          "name": "role",
          "type": "bytes32"
        },
        {
          "internalType": "address",
          "name": "account",
          "type": "address"
        }
      ],
      "name": "hasRole",
      "outputs": [
        {
          "internalType": "bool",
          "name": "",
          "type": "bool"
        }
      ],
      "stateMutability": "view",
      "type": "function"
    },
    {
      "inputs": [
        {
          "internalType": "address",
          "name": "svgGenerationAddress",
          "type": "address"
        }
      ],
      "name": "initialize",
      "outputs": [],
      "stateMutability": "nonpayable",
      "type": "function"
    },
    {
      "inputs": [],
      "name": "proxiableUUID",
      "outputs": [
        {
          "internalType": "bytes32",
          "name": "",
          "type": "bytes32"
        }
      ],
      "stateMutability": "view",
      "type": "function"
    },
    {
      "inputs": [
        {
          "internalType": "bytes32",
          "name": "role",
          "type": "bytes32"
        },
        {
          "internalType": "address",
          "name": "account",
          "type": "address"
        }
      ],
      "name": "renounceRole",
      "outputs": [],
      "stateMutability": "nonpayable",
      "type": "function"
    },
    {
      "inputs": [
        {
          "internalType": "bytes32",
          "name": "role",
          "type": "bytes32"
        },
        {
          "internalType": "address",
          "name": "account",
          "type": "address"
        }
      ],
      "name": "revokeRole",
      "outputs": [],
      "stateMutability": "nonpayable",
      "type": "function"
    },
    {
      "inputs": [
        {
          "internalType": "bytes4",
          "name": "interfaceId",
          "type": "bytes4"
        }
      ],
      "name": "supportsInterface",
      "outputs": [
        {
          "internalType": "bool",
          "name": "",
          "type": "bool"
        }
      ],
      "stateMutability": "view",
      "type": "function"
    },
    {
      "inputs": [],
      "name": "updateVersion",
      "outputs": [],
      "stateMutability": "nonpayable",
      "type": "function"
    },
    {
      "inputs": [
        {
          "internalType": "address",
          "name": "newImplementation",
          "type": "address"
        }
      ],
      "name": "upgradeTo",
      "outputs": [],
      "stateMutability": "nonpayable",
      "type": "function"
    },
    {
      "inputs": [
        {
          "internalType": "address",
          "name": "newImplementation",
          "type": "address"
        },
        {
          "internalType": "bytes",
          "name": "data",
          "type": "bytes"
        }
      ],
      "name": "upgradeToAndCall",
      "outputs": [],
      "stateMutability": "payable",
      "type": "function"
    },
    {
      "inputs": [],
      "name": "version",
      "outputs": [
        {
          "internalType": "uint256",
          "name": "",
          "type": "uint256"
        }
      ],
      "stateMutability": "view",
      "type": "function"
    }
  ],
  "numDeployments": 1,
  "solcInputHash": "d97d8224a1f6868a44a5813a670ec6f4",
  "bytecode": "0x60a0604052306080523480156200001557600080fd5b506200002062000026565b620000e8565b600054610100900460ff1615620000935760405162461bcd60e51b815260206004820152602760248201527f496e697469616c697a61626c653a20636f6e747261637420697320696e697469604482015266616c697a696e6760c81b606482015260840160405180910390fd5b60005460ff9081161015620000e6576000805460ff191660ff9081179091556040519081527f7f26b83ff96e1f2b6a682f133852f6798a09c465da95921460cefb38474024989060200160405180910390a15b565b6080516133aa62000120600039600081816104150152818161049a015281816105f101528181610676015261075c01526133aa6000f3fe6080604052600436106100f35760003560e01c806354fd4d501161008a578063c4d66de811610059578063c4d66de8146102ab578063d547741f146102cb578063ed03f41a146102eb578063f72c0d8b1461030b57600080fd5b806354fd4d501461020a57806391383c891461022357806391d1485414610250578063a217fddf1461029657600080fd5b80633659cfe6116100c65780633659cfe6146101ad57806348c02dc1146101cd5780634f1ef286146101e257806352d1902d146101f557600080fd5b806301ffc9a7146100f8578063248a9ca31461012d5780632f2ff15d1461016b57806336568abe1461018d575b600080fd5b34801561010457600080fd5b50610118610113366004612145565b61033f565b60405190151581526020015b60405180910390f35b34801561013957600080fd5b5061015d61014836600461216f565b60009081526065602052604090206001015490565b604051908152602001610124565b34801561017757600080fd5b5061018b61018636600461219d565b610350565b005b34801561019957600080fd5b5061018b6101a836600461219d565b61037a565b3480156101b957600080fd5b5061018b6101c83660046121cd565b61040b565b3480156101d957600080fd5b5061018b610586565b61018b6101f0366004612283565b6105e7565b34801561020157600080fd5b5061015d61074f565b34801561021657600080fd5b5060fb5461ffff1661015d565b34801561022f57600080fd5b5061024361023e36600461216f565b610814565b6040516101249190612366565b34801561025c57600080fd5b5061011861026b36600461219d565b60009182526065602090815260408084206001600160a01b0393909316845291905290205460ff1690565b3480156102a257600080fd5b5061015d600081565b3480156102b757600080fd5b5061018b6102c63660046121cd565b6109a4565b3480156102d757600080fd5b5061018b6102e636600461219d565b610b39565b3480156102f757600080fd5b50610243610306366004612379565b610b5e565b34801561031757600080fd5b5061015d7f189ab7a9244df0848122154315af71fe140f3db0fe014031783b0946b8c9d2e381565b600061034a82610d2f565b92915050565b60008281526065602052604090206001015461036b81610d64565b6103758383610d6e565b505050565b6001600160a01b03811633146103fd5760405162461bcd60e51b815260206004820152602f60248201527f416363657373436f6e74726f6c3a2063616e206f6e6c792072656e6f756e636560448201527f20726f6c657320666f722073656c66000000000000000000000000000000000060648201526084015b60405180910390fd5b6104078282610e10565b5050565b6001600160a01b037f00000000000000000000000000000000000000000000000000000000000000001630036104985760405162461bcd60e51b815260206004820152602c60248201527f46756e6374696f6e206d7573742062652063616c6c6564207468726f7567682060448201526b19195b1959d85d1958d85b1b60a21b60648201526084016103f4565b7f00000000000000000000000000000000000000000000000000000000000000006001600160a01b03166104f37f360894a13ba1a3210667c828492db98dca3e2076cc3735a920a3ca505d382bbc546001600160a01b031690565b6001600160a01b03161461055e5760405162461bcd60e51b815260206004820152602c60248201527f46756e6374696f6e206d7573742062652063616c6c6564207468726f7567682060448201526b6163746976652070726f787960a01b60648201526084016103f4565b61056781610e93565b6040805160008082526020820190925261058391839190610ebd565b50565b7f189ab7a9244df0848122154315af71fe140f3db0fe014031783b0946b8c9d2e36105b081610d64565b60fb8054600191906000906105ca90849061ffff166123b1565b92506101000a81548161ffff021916908361ffff16021790555050565b6001600160a01b037f00000000000000000000000000000000000000000000000000000000000000001630036106745760405162461bcd60e51b815260206004820152602c60248201527f46756e6374696f6e206d7573742062652063616c6c6564207468726f7567682060448201526b19195b1959d85d1958d85b1b60a21b60648201526084016103f4565b7f00000000000000000000000000000000000000000000000000000000000000006001600160a01b03166106cf7f360894a13ba1a3210667c828492db98dca3e2076cc3735a920a3ca505d382bbc546001600160a01b031690565b6001600160a01b03161461073a5760405162461bcd60e51b815260206004820152602c60248201527f46756e6374696f6e206d7573742062652063616c6c6564207468726f7567682060448201526b6163746976652070726f787960a01b60648201526084016103f4565b61074382610e93565b61040782826001610ebd565b6000306001600160a01b037f000000000000000000000000000000000000000000000000000000000000000016146107ef5760405162461bcd60e51b815260206004820152603860248201527f555550535570677261646561626c653a206d757374206e6f742062652063616c60448201527f6c6564207468726f7567682064656c656761746563616c6c000000000000000060648201526084016103f4565b507f360894a13ba1a3210667c828492db98dca3e2076cc3735a920a3ca505d382bbc90565b6040516372927aa360e01b81526004810182905260609060009033906372927aa390602401600060405180830381865afa158015610856573d6000803e3d6000fd5b505050506040513d6000823e601f3d908101601f1916820160405261087e91908101906125ad565b9050600061088f826080015161105d565b905061097c8261014001518361016001516108aa858561118a565b85610180015161092b6040518060400160405280600b81526020017f546f74616c20756e6974730000000000000000000000000000000000000000008152506040518060400160405280601781526020017f556e6974732068656c64206279206672616374696f6e2e0000000000000000008152508960e001516000611250565b60405160200161093b9190612777565b60405160208183030381529060405261095388611294565b604051602001610968969594939291906127c7565b604051602081830303815290604052611547565b60405160200161098c9190612904565b60405160208183030381529060405292505050919050565b600054610100900460ff16158080156109c45750600054600160ff909116105b806109de5750303b1580156109de575060005460ff166001145b610a505760405162461bcd60e51b815260206004820152602e60248201527f496e697469616c697a61626c653a20636f6e747261637420697320616c72656160448201527f647920696e697469616c697a656400000000000000000000000000000000000060648201526084016103f4565b6000805460ff191660011790558015610a73576000805461ff0019166101001790555b60fb80547fffffffffffffffffffff0000000000000000000000000000000000000000ffff16620100006001600160a01b03851602179055610ab361169a565b610abb61169a565b610ac6600033610d6e565b610af07f189ab7a9244df0848122154315af71fe140f3db0fe014031783b0946b8c9d2e333610d6e565b8015610407576000805461ff0019169055604051600181527f7f26b83ff96e1f2b6a682f133852f6798a09c465da95921460cefb38474024989060200160405180910390a15050565b600082815260656020526040902060010154610b5481610d64565b6103758383610e10565b6040516372927aa360e01b81526004810183905260609060009033906372927aa390602401600060405180830381865afa158015610ba0573d6000803e3d6000fd5b505050506040513d6000823e601f3d908101601f19168201604052610bc891908101906125ad565b604051631398fee160e31b8152600481018590529091506000903390639cc7f70890602401602060405180830381865afa158015610c0a573d6000803e3d6000fd5b505050506040513d601f19601f82011682018060405250810190610c2e9190612949565b90506000610c3f836080015161105d565b9050610d05836101400151846101600151610c5b868686611719565b866101800151610cdd6040518060400160405280600881526020017f4672616374696f6e0000000000000000000000000000000000000000000000008152506040518060400160405280601781526020017f556e6974732068656c64206279206672616374696f6e2e000000000000000000815250898b60e001516000611798565b604051602001610ced9190612962565b60405160208183030381529060405261095389611294565b604051602001610d159190612904565b604051602081830303815290604052935050505092915050565b60006001600160e01b03198216637965db0b60e01b148061034a57506301ffc9a760e01b6001600160e01b031983161461034a565b61058381336117e7565b60008281526065602090815260408083206001600160a01b038516845290915290205460ff166104075760008281526065602090815260408083206001600160a01b03851684529091529020805460ff19166001179055610dcc3390565b6001600160a01b0316816001600160a01b0316837f2f8788117e7eff1d82e926ec794901d17c78024a50270940304540a733656f0d60405160405180910390a45050565b60008281526065602090815260408083206001600160a01b038516845290915290205460ff16156104075760008281526065602090815260408083206001600160a01b0385168085529252808320805460ff1916905551339285917ff6391f5c32d9c69d2a47ea670b442974b53935d1edc7fd64eb21e047a839171b9190a45050565b7f189ab7a9244df0848122154315af71fe140f3db0fe014031783b0946b8c9d2e361040781610d64565b7f4910fdfa16fed3260ed0e7147f7cc6da11a60208b5b9406d12a635614ffd91435460ff1615610ef05761037583611867565b826001600160a01b03166352d1902d6040518163ffffffff1660e01b8152600401602060405180830381865afa925050508015610f4a575060408051601f3d908101601f19168201909252610f4791810190612949565b60015b610fbc5760405162461bcd60e51b815260206004820152602e60248201527f45524331393637557067726164653a206e657720696d706c656d656e7461746960448201527f6f6e206973206e6f74205555505300000000000000000000000000000000000060648201526084016103f4565b7f360894a13ba1a3210667c828492db98dca3e2076cc3735a920a3ca505d382bbc81146110515760405162461bcd60e51b815260206004820152602960248201527f45524331393637557067726164653a20756e737570706f727465642070726f7860448201527f6961626c6555554944000000000000000000000000000000000000000000000060648201526084016103f4565b5061037583838361193d565b805160609080156111845760008167ffffffffffffffff811115611083576110836121ea565b6040519080825280602002602001820160405280156110b657816020015b60608152602001906001900390816110a15790505b50905060005b8281101561118057336001600160a01b031663ef6f66d78683815181106110e5576110e56129b2565b60200260200101516040518263ffffffff1660e01b815260040161110b91815260200190565b600060405180830381865afa158015611128573d6000803e3d6000fd5b505050506040513d6000823e601f3d908101601f1916820160405261115091908101906129c8565b828281518110611162576111626129b2565b60200260200101819052508080611178906129fd565b9150506110bc565b5091505b50919050565b60fb54610140830151602084015160408086015160e087015191516312945dd760e31b815260609561122995620100009091046001600160a01b0316946394a2eeb8946111df9492938a939190600401612a98565b600060405180830381865afa1580156111fc573d6000803e3d6000fd5b505050506040513d6000823e601f3d908101601f1916820160405261122491908101906129c8565b611547565b6040516020016112399190612aea565b604051602081830303815290604052905092915050565b6060848461125d85611968565b611268851515611a71565b60405160200161127b9493929190612b2f565b6040516020818303038152906040529050949350505050565b60606113046040518060400160405280600e81526020017f53636f706573206f6620576f726b000000000000000000000000000000000000815250604051806060016040528060378152602001613254603791396112fd6112f88660600151611ad2565b611bf5565b6001611c8c565b6040516020016113149190612c0a565b6040516020818303038152906040526113856040518060400160405280601081526020017f53636f706573206f6620496d70616374000000000000000000000000000000008152506040518060600160405280603981526020016132cb603991396112fd6112f8876080015161105d565b6040516020016113959190612c5a565b6040516020818303038152906040526114026040518060400160405280601181526020017f54696d656672616d65206f6620776f726b0000000000000000000000000000008152506040518060600160405280603c8152602001613362603c913986602001516001611caf565b6040516020016114129190612caa565b60405160208183030381529060405261147f6040518060400160405280601381526020017f54696d656672616d65206f6620696d706163740000000000000000000000000081525060405180606001604052806025815260200161322f6025913987604001516001611caf565b60405160200161148f9190612ce2565b6040516020818303038152906040526115006040518060400160405280600681526020017f526967687473000000000000000000000000000000000000000000000000000081525060405180606001604052806037815260200161332b603791396112fd6112f88a60a00151611cbc565b6040516020016115109190612d1a565b60408051601f19818403018152908290526115319594939291602001612d5f565b6040516020818303038152906040529050919050565b6060815160000361156657505060408051602081019091526000815290565b600060405180606001604052806040815260200161328b60409139905060006003845160026115959190612dca565b61159f9190612df3565b6115aa906004612e07565b67ffffffffffffffff8111156115c2576115c26121ea565b6040519080825280601f01601f1916602001820160405280156115ec576020820181803683370190505b509050600182016020820185865187015b80821015611658576003820191508151603f8160121c168501518453600184019350603f81600c1c168501518453600184019350603f8160061c168501518453600184019350603f81168501518453506001830192506115fd565b505060038651066001811461167457600281146116875761168f565b603d6001830353603d600283035361168f565b603d60018303535b509195945050505050565b600054610100900460ff166117175760405162461bcd60e51b815260206004820152602b60248201527f496e697469616c697a61626c653a20636f6e7472616374206973206e6f74206960448201527f6e697469616c697a696e6700000000000000000000000000000000000000000060648201526084016103f4565b565b60fb54610140840151602085015160408087015160e08801519151634560ed3960e11b815260609561176f95620100009091046001600160a01b031694638ac1da72946111df9492938a93918c91600401612e26565b60405160200161177f9190612aea565b60405160208183030381529060405290505b9392505050565b606085856117a586611968565b6117ae86611968565b6117b9861515611a71565b6040516020016117cd959493929190612e7f565b604051602081830303815290604052905095945050505050565b60008281526065602090815260408083206001600160a01b038516845290915290205460ff1661040757611825816001600160a01b03166014611ddf565b611830836020611ddf565b604051602001611841929190612f9f565b60408051601f198184030181529082905262461bcd60e51b82526103f491600401612366565b6001600160a01b0381163b6118e45760405162461bcd60e51b815260206004820152602d60248201527f455243313936373a206e657720696d706c656d656e746174696f6e206973206e60448201527f6f74206120636f6e74726163740000000000000000000000000000000000000060648201526084016103f4565b7f360894a13ba1a3210667c828492db98dca3e2076cc3735a920a3ca505d382bbc80547fffffffffffffffffffffffff0000000000000000000000000000000000000000166001600160a01b0392909216919091179055565b61194683611f88565b6000825111806119535750805b15610375576119628383611fc8565b50505050565b60608160000361198f5750506040805180820190915260018152600360fc1b602082015290565b8160005b81156119b957806119a3816129fd565b91506119b29050600a83612df3565b9150611993565b60008167ffffffffffffffff8111156119d4576119d46121ea565b6040519080825280601f01601f1916602001820160405280156119fe576020820181803683370190505b5090505b8415611a6957611a13600183613020565b9150611a20600a86613033565b611a2b906030612dca565b60f81b818381518110611a4057611a406129b2565b60200101906001600160f81b031916908160001a905350611a62600a86612df3565b9450611a02565b949350505050565b60608115611a995750506040805180820190915260048152637472756560e01b602082015290565b505060408051808201909152600581527f66616c7365000000000000000000000000000000000000000000000000000000602082015290565b805160609080156111845760008167ffffffffffffffff811115611af857611af86121ea565b604051908082528060200260200182016040528015611b2b57816020015b6060815260200190600190039081611b165790505b50905060005b8281101561118057336001600160a01b0316638f88b767868381518110611b5a57611b5a6129b2565b60200260200101516040518263ffffffff1660e01b8152600401611b8091815260200190565b600060405180830381865afa158015611b9d573d6000803e3d6000fd5b505050506040513d6000823e601f3d908101601f19168201604052611bc591908101906129c8565b828281518110611bd757611bd76129b2565b60200260200101819052508080611bed906129fd565b915050611b31565b80516060908160005b82811015611180576000858281518110611c1a57611c1a6129b2565b6020026020010151604051602001611c329190613047565b60405160208183030381529060405290508251600003611c5457809250611c79565b8281604051602001611c67929190613075565b60405160208183030381529060405292505b5080611c84816129fd565b915050611bfe565b6060848484611c9c851515611a71565b60405160200161127b94939291906130b1565b6060848461125d856120d3565b805160609080156111845760008167ffffffffffffffff811115611ce257611ce26121ea565b604051908082528060200260200182016040528015611d1557816020015b6060815260200190600190039081611d005790505b50905060005b8281101561118057336001600160a01b031663d52fd095868381518110611d4457611d446129b2565b60200260200101516040518263ffffffff1660e01b8152600401611d6a91815260200190565b600060405180830381865afa158015611d87573d6000803e3d6000fd5b505050506040513d6000823e601f3d908101601f19168201604052611daf91908101906129c8565b828281518110611dc157611dc16129b2565b60200260200101819052508080611dd7906129fd565b915050611d1b565b60606000611dee836002612e07565b611df9906002612dca565b67ffffffffffffffff811115611e1157611e116121ea565b6040519080825280601f01601f191660200182016040528015611e3b576020820181803683370190505b509050600360fc1b81600081518110611e5657611e566129b2565b60200101906001600160f81b031916908160001a905350600f60fb1b81600181518110611e8557611e856129b2565b60200101906001600160f81b031916908160001a9053506000611ea9846002612e07565b611eb4906001612dca565b90505b6001811115611f39577f303132333435363738396162636465660000000000000000000000000000000085600f1660108110611ef557611ef56129b2565b1a60f81b828281518110611f0b57611f0b6129b2565b60200101906001600160f81b031916908160001a90535060049490941c93611f328161319f565b9050611eb7565b5083156117915760405162461bcd60e51b815260206004820181905260248201527f537472696e67733a20686578206c656e67746820696e73756666696369656e7460448201526064016103f4565b611f9181611867565b6040516001600160a01b038216907fbc7cd75a20ee27fd9adebab32041f755214dbc6bffa90cc0225b39da2e5c2d3b90600090a250565b60606001600160a01b0383163b6120475760405162461bcd60e51b815260206004820152602660248201527f416464726573733a2064656c65676174652063616c6c20746f206e6f6e2d636f60448201527f6e7472616374000000000000000000000000000000000000000000000000000060648201526084016103f4565b600080846001600160a01b03168460405161206291906131b6565b600060405180830381855af49150503d806000811461209d576040519150601f19603f3d011682016040523d82523d6000602084013e6120a2565b606091505b50915091506120ca82826040518060600160405280602781526020016133046027913961210c565b95945050505050565b60606120f08260005b602002015167ffffffffffffffff16611968565b6120fb8360016120dc565b6040516020016115319291906131d2565b6060831561211b575081611791565b82511561212b5782518084602001fd5b8160405162461bcd60e51b81526004016103f49190612366565b60006020828403121561215757600080fd5b81356001600160e01b03198116811461179157600080fd5b60006020828403121561218157600080fd5b5035919050565b6001600160a01b038116811461058357600080fd5b600080604083850312156121b057600080fd5b8235915060208301356121c281612188565b809150509250929050565b6000602082840312156121df57600080fd5b813561179181612188565b634e487b7160e01b600052604160045260246000fd5b6040516101a0810167ffffffffffffffff81118282101715612224576122246121ea565b60405290565b604051601f8201601f1916810167ffffffffffffffff81118282101715612253576122536121ea565b604052919050565b600067ffffffffffffffff821115612275576122756121ea565b50601f01601f191660200190565b6000806040838503121561229657600080fd5b82356122a181612188565b9150602083013567ffffffffffffffff8111156122bd57600080fd5b8301601f810185136122ce57600080fd5b80356122e16122dc8261225b565b61222a565b8181528660208385010111156122f657600080fd5b816020840160208301376000602083830101528093505050509250929050565b60005b83811015612331578181015183820152602001612319565b50506000910152565b60008151808452612352816020860160208601612316565b601f01601f19169290920160200192915050565b602081526000611791602083018461233a565b6000806040838503121561238c57600080fd5b50508035926020909101359150565b634e487b7160e01b600052601160045260246000fd5b61ffff8181168382160190808211156123cc576123cc61239b565b5092915050565b600082601f8301126123e457600080fd5b6040516040810167ffffffffffffffff8282108183111715612408576124086121ea565b6040918252829185018681111561241e57600080fd5b855b8181101561244757805183811681146124395760008081fd5b845260209384019301612420565b50929695505050505050565b600067ffffffffffffffff82111561246d5761246d6121ea565b5060051b60200190565b600082601f83011261248857600080fd5b815160206124986122dc83612453565b82815260059290921b840181019181810190868411156124b757600080fd5b8286015b848110156124d257805183529183019183016124bb565b509695505050505050565b600082601f8301126124ee57600080fd5b815160206124fe6122dc83612453565b82815260059290921b8401810191818101908684111561251d57600080fd5b8286015b848110156124d257805161253481612188565b8352918301918301612521565b805161ffff8116811461255357600080fd5b919050565b8051801515811461255357600080fd5b600082601f83011261257957600080fd5b81516125876122dc8261225b565b81815284602083860101111561259c57600080fd5b611a69826020830160208701612316565b6000602082840312156125bf57600080fd5b815167ffffffffffffffff808211156125d757600080fd5b908301906101e082860312156125ec57600080fd5b6125f4612200565b8251815261260586602085016123d3565b602082015261261786606085016123d3565b604082015260a08301518281111561262e57600080fd5b61263a87828601612477565b60608301525060c08301518281111561265257600080fd5b61265e87828601612477565b60808301525060e08301518281111561267657600080fd5b61268287828601612477565b60a083015250610100808401518381111561269c57600080fd5b6126a8888287016124dd565b60c0840152506101208085015160e08401526101406126c8818701612541565b8385015261016092506126dc838701612558565b82850152610180915081860151858111156126f657600080fd5b6127028a828901612568565b8286015250506101a08501518481111561271b57600080fd5b61272789828801612568565b83850152506101c085015191508382111561274157600080fd5b61274d88838701612568565b908301525095945050505050565b6000815161276d818560208601612316565b9290920192915050565b7f22746f74616c556e697473223a000000000000000000000000000000000000008152600082516127af81600d850160208701612316565b600b60fa1b600d939091019283015250600e01919050565b683d913730b6b2911d1160b91b8152600087516127eb816009850160208c01612316565b701116113232b9b1b934b83a34b7b7111d1160791b600991840191820152875161281c81601a840160208c01612316565b7f222c22696d616765223a22000000000000000000000000000000000000000000601a9290910191820152865161285a816025840160208b01612316565b7f222c2265787465726e616c5f75726c223a220000000000000000000000000000602592909101918201528551612898816037840160208a01612316565b7f222c2270726f70657274696573223a7b000000000000000000000000000000006037929091019182015284516128d6816047840160208901612316565b6128f66128e86047838501018761275b565b617d7d60f01b815260020190565b9a9950505050505050505050565b7f646174613a6170706c69636174696f6e2f6a736f6e3b6261736536342c00000081526000825161293c81601d850160208701612316565b91909101601d0192915050565b60006020828403121561295b57600080fd5b5051919050565b7f226672616374696f6e223a00000000000000000000000000000000000000000081526000825161299a81600b850160208701612316565b600b60fa1b600b939091019283015250600c01919050565b634e487b7160e01b600052603260045260246000fd5b6000602082840312156129da57600080fd5b815167ffffffffffffffff8111156129f157600080fd5b611a6984828501612568565b600060018201612a0f57612a0f61239b565b5060010190565b600081518084526020808501808196508360051b8101915082860160005b85811015612a5e578284038952612a4c84835161233a565b98850198935090840190600101612a34565b5091979650505050505050565b8060005b600281101561196257815167ffffffffffffffff16845260209384019390910190600101612a6f565b60e081526000612aab60e083018861233a565b8281036020840152612abd8188612a16565b915050612acd6040830186612a6b565b612ada6080830185612a6b565b8260c08301529695505050505050565b7f646174613a696d6167652f7376672b786d6c3b6261736536342c000000000000815260008251612b2281601a850160208701612316565b91909101601a0192915050565b683d913730b6b2911d1160b91b815260008551612b53816009850160208a01612316565b701116113232b9b1b934b83a34b7b7111d1160791b6009918401918201528551612b8481601a840160208a01612316565b691116113b30b63ab2911d60b11b601a92909101918201528451612baf816024840160208901612316565b7f2c2269735f696e7472696e736963223a22000000000000000000000000000000602492909101918201528351612bed816035840160208801612316565b61227d60f01b603592909101918201526037019695505050505050565b7f2273636f7065734f66576f726b223a0000000000000000000000000000000000815260008251612c4281600f850160208701612316565b600b60fa1b600f939091019283015250601001919050565b7f2273636f7065734f66496d70616374223a000000000000000000000000000000815260008251612c92816011850160208701612316565b600b60fa1b6011939091019283015250601201919050565b7f2274696d654f66576f726b223a000000000000000000000000000000000000008152600082516127af81600d850160208701612316565b7f2274696d654f66496d70616374223a0000000000000000000000000000000000815260008251612c4281600f850160208701612316565b7f22726967687473223a0000000000000000000000000000000000000000000000815260008251612d52816009850160208701612316565b9190910160090192915050565b60008651612d71818460208b01612316565b865190830190612d85818360208b01612316565b8651910190612d98818360208a01612316565b8551910190612dab818360208901612316565b8451910190612dbe818360208801612316565b01979650505050505050565b8082018082111561034a5761034a61239b565b634e487b7160e01b600052601260045260246000fd5b600082612e0257612e02612ddd565b500490565b6000816000190483118215151615612e2157612e2161239b565b500290565b6000610100808352612e3a8184018a61233a565b90508281036020840152612e4e8189612a16565b915050612e5e6040830187612a6b565b612e6b6080830186612a6b565b60c082019390935260e00152949350505050565b683d913730b6b2911d1160b91b815260008651612ea3816009850160208b01612316565b701116113232b9b1b934b83a34b7b7111d1160791b6009918401918201528651612ed481601a840160208b01612316565b691116113b30b63ab2911d60b11b601a92909101918201528551612eff816024840160208a01612316565b7f2c226d61785f76616c7565223a00000000000000000000000000000000000000602492909101918201528451612f3d816031840160208901612316565b7f2c2269735f696e7472696e736963223a22000000000000000000000000000000603192909101918201528351612f7b816042840160208801612316565b612f9260428284010161227d60f01b815260020190565b9998505050505050505050565b7f416363657373436f6e74726f6c3a206163636f756e7420000000000000000000815260008351612fd7816017850160208801612316565b7f206973206d697373696e6720726f6c65200000000000000000000000000000006017918401918201528351613014816028840160208801612316565b01602801949350505050565b8181038181111561034a5761034a61239b565b60008261304257613042612ddd565b500690565b6000601160f91b8083528351613064816001860160208801612316565b600193019283015250600201919050565b60008351613087818460208801612316565b600b60fa1b90830190815283516130a5816001840160208801612316565b01600101949350505050565b683d913730b6b2911d1160b91b8152600085516130d5816009850160208a01612316565b701116113232b9b1b934b83a34b7b7111d1160791b600991840191820152855161310681601a840160208a01612316565b7f222c2276616c7565223a5b000000000000000000000000000000000000000000601a92909101918201528451613144816025840160208901612316565b7f5d2c2269735f696e7472696e736963223a220000000000000000000000000000602592909101918201528351613182816037840160208801612316565b61227d60f01b603792909101918201526039019695505050505050565b6000816131ae576131ae61239b565b506000190190565b600082516131c8818460208701612316565b9190910192915050565b612d9160f11b815282516000906131f0816002850160208801612316565b6211161160e91b6002918401918201528351613213816005840160208801612316565b61225d60f01b6005929091019182015260070194935050505056fe54696d656672616d6520696e20776869636820696d70616374206973207265616c697a656453636f706573206f6620776f726b20656e63617073756c6174656420696e207468697320687970657263657274206672616374696f6e2e4142434445464748494a4b4c4d4e4f505152535455565758595a6162636465666768696a6b6c6d6e6f707172737475767778797a303132333435363738392b2f53636f706573206f6620696d7061637420656e63617073756c6174656420696e207468697320687970657263657274206672616374696f6e2e416464726573733a206c6f772d6c6576656c2064656c65676174652063616c6c206661696c6564526967687473206173736f6369617465642077697468206f776e696e67207468652068797065726365727420286672616374696f6e732954696d656672616d6520696e20776869636820776f726b20746f206163686965766520696d7061637420686173206265656e20706572666f726d6564a164736f6c6343000810000a",
  "devdoc": {
    "details": "Hypercertificate metadata creation logic",
    "kind": "dev",
    "methods": {
      "constructor": {
        "custom:oz-upgrades-unsafe-allow": "constructor"
      },
      "getRoleAdmin(bytes32)": {
        "details": "Returns the admin role that controls `role`. See {grantRole} and {revokeRole}. To change a role's admin, use {_setRoleAdmin}."
      },
      "grantRole(bytes32,address)": {
        "details": "Grants `role` to `account`. If `account` had not been already granted `role`, emits a {RoleGranted} event. Requirements: - the caller must have ``role``'s admin role. May emit a {RoleGranted} event."
      },
      "hasRole(bytes32,address)": {
        "details": "Returns `true` if `account` has been granted `role`."
      },
      "proxiableUUID()": {
        "details": "Implementation of the ERC1822 {proxiableUUID} function. This returns the storage slot used by the implementation. It is used to validate that the this implementation remains valid after an upgrade. IMPORTANT: A proxy pointing at a proxiable contract should not be considered proxiable itself, because this risks bricking a proxy that upgrades to it, by delegating to itself until out of gas. Thus it is critical that this function revert if invoked through a proxy. This is guaranteed by the `notDelegated` modifier."
      },
      "renounceRole(bytes32,address)": {
        "details": "Revokes `role` from the calling account. Roles are often managed via {grantRole} and {revokeRole}: this function's purpose is to provide a mechanism for accounts to lose their privileges if they are compromised (such as when a trusted device is misplaced). If the calling account had been revoked `role`, emits a {RoleRevoked} event. Requirements: - the caller must be `account`. May emit a {RoleRevoked} event."
      },
      "revokeRole(bytes32,address)": {
        "details": "Revokes `role` from `account`. If `account` had been granted `role`, emits a {RoleRevoked} event. Requirements: - the caller must have ``role``'s admin role. May emit a {RoleRevoked} event."
      },
      "supportsInterface(bytes4)": {
        "params": {
          "interfaceId": "Id of the interface"
        },
        "returns": {
          "_0": "true, if the interface is supported"
        }
      },
      "upgradeTo(address)": {
        "details": "Upgrade the implementation of the proxy to `newImplementation`. Calls {_authorizeUpgrade}. Emits an {Upgraded} event."
      },
      "upgradeToAndCall(address,bytes)": {
        "details": "Upgrade the implementation of the proxy to `newImplementation`, and subsequently execute the function call encoded in `data`. Calls {_authorizeUpgrade}. Emits an {Upgraded} event."
      }
    },
    "version": 1
  },
  "userdoc": {
    "kind": "user",
    "methods": {
      "UPGRADER_ROLE()": {
        "notice": "User role required in order to upgrade the contract"
      },
      "constructor": {
        "notice": "Contract constructor logic"
      },
      "initialize(address)": {
        "notice": "Contract initialization logic"
      },
      "supportsInterface(bytes4)": {
        "notice": "Returns a flag indicating if the contract supports the specified interface"
      },
      "updateVersion()": {
        "notice": "Update the contract version numberOnly allowed for member of UPGRADER_ROLE"
      },
      "version()": {
        "notice": "gets the current version of the contract"
      }
    },
    "version": 1
  },
  "storageLayout": {
    "storage": [
      {
        "astId": 808,
        "contract": "contracts/HyperCertMetadata.sol:HyperCertMetadata",
        "label": "_initialized",
        "offset": 0,
        "slot": "0",
        "type": "t_uint8"
      },
      {
        "astId": 811,
        "contract": "contracts/HyperCertMetadata.sol:HyperCertMetadata",
        "label": "_initializing",
        "offset": 1,
        "slot": "0",
        "type": "t_bool"
      },
      {
        "astId": 1419,
        "contract": "contracts/HyperCertMetadata.sol:HyperCertMetadata",
        "label": "__gap",
        "offset": 0,
        "slot": "1",
        "type": "t_array(t_uint256)50_storage"
      },
      {
        "astId": 1749,
        "contract": "contracts/HyperCertMetadata.sol:HyperCertMetadata",
        "label": "__gap",
        "offset": 0,
        "slot": "51",
        "type": "t_array(t_uint256)50_storage"
      },
      {
        "astId": 39,
        "contract": "contracts/HyperCertMetadata.sol:HyperCertMetadata",
        "label": "_roles",
        "offset": 0,
        "slot": "101",
        "type": "t_mapping(t_bytes32,t_struct(RoleData)34_storage)"
      },
      {
        "astId": 338,
        "contract": "contracts/HyperCertMetadata.sol:HyperCertMetadata",
        "label": "__gap",
        "offset": 0,
        "slot": "102",
        "type": "t_array(t_uint256)49_storage"
      },
      {
        "astId": 790,
        "contract": "contracts/HyperCertMetadata.sol:HyperCertMetadata",
        "label": "__gap",
        "offset": 0,
        "slot": "151",
        "type": "t_array(t_uint256)50_storage"
      },
      {
        "astId": 1087,
        "contract": "contracts/HyperCertMetadata.sol:HyperCertMetadata",
        "label": "__gap",
        "offset": 0,
        "slot": "201",
        "type": "t_array(t_uint256)50_storage"
      },
      {
        "astId": 1924,
        "contract": "contracts/HyperCertMetadata.sol:HyperCertMetadata",
        "label": "_version",
        "offset": 0,
        "slot": "251",
        "type": "t_uint16"
      },
      {
        "astId": 1926,
        "contract": "contracts/HyperCertMetadata.sol:HyperCertMetadata",
        "label": "svgGenerator",
        "offset": 2,
        "slot": "251",
        "type": "t_address"
      }
    ],
    "types": {
      "t_address": {
        "encoding": "inplace",
        "label": "address",
        "numberOfBytes": "20"
      },
      "t_array(t_uint256)49_storage": {
        "base": "t_uint256",
        "encoding": "inplace",
        "label": "uint256[49]",
        "numberOfBytes": "1568"
      },
      "t_array(t_uint256)50_storage": {
        "base": "t_uint256",
        "encoding": "inplace",
        "label": "uint256[50]",
        "numberOfBytes": "1600"
      },
      "t_bool": {
        "encoding": "inplace",
        "label": "bool",
        "numberOfBytes": "1"
      },
      "t_bytes32": {
        "encoding": "inplace",
        "label": "bytes32",
        "numberOfBytes": "32"
      },
      "t_mapping(t_address,t_bool)": {
        "encoding": "mapping",
        "key": "t_address",
        "label": "mapping(address => bool)",
        "numberOfBytes": "32",
        "value": "t_bool"
      },
      "t_mapping(t_bytes32,t_struct(RoleData)34_storage)": {
        "encoding": "mapping",
        "key": "t_bytes32",
        "label": "mapping(bytes32 => struct AccessControlUpgradeable.RoleData)",
        "numberOfBytes": "32",
        "value": "t_struct(RoleData)34_storage"
      },
      "t_struct(RoleData)34_storage": {
        "encoding": "inplace",
        "label": "struct AccessControlUpgradeable.RoleData",
        "members": [
          {
            "astId": 31,
            "contract": "contracts/HyperCertMetadata.sol:HyperCertMetadata",
            "label": "members",
            "offset": 0,
            "slot": "0",
            "type": "t_mapping(t_address,t_bool)"
          },
          {
            "astId": 33,
            "contract": "contracts/HyperCertMetadata.sol:HyperCertMetadata",
            "label": "adminRole",
            "offset": 0,
            "slot": "1",
            "type": "t_bytes32"
          }
        ],
        "numberOfBytes": "64"
      },
      "t_uint16": {
        "encoding": "inplace",
        "label": "uint16",
        "numberOfBytes": "2"
      },
      "t_uint256": {
        "encoding": "inplace",
        "label": "uint256",
        "numberOfBytes": "32"
      },
      "t_uint8": {
        "encoding": "inplace",
        "label": "uint8",
        "numberOfBytes": "1"
      }
    }
  }
}