{
  "address": "0x126abf1ca4db7389b1f5fd3B8a84b3434313854d",
  "abi": [
    {
      "anonymous": false,
      "inputs": [
        {
          "indexed": false,
          "internalType": "address",
          "name": "previousAdmin",
          "type": "address"
        },
        {
          "indexed": false,
          "internalType": "address",
          "name": "newAdmin",
          "type": "address"
        }
      ],
      "name": "AdminChanged",
      "type": "event"
    },
    {
      "anonymous": false,
      "inputs": [
        {
          "indexed": true,
          "internalType": "address",
          "name": "account",
          "type": "address"
        },
        {
          "indexed": true,
          "internalType": "address",
          "name": "operator",
          "type": "address"
        },
        {
          "indexed": false,
          "internalType": "bool",
          "name": "approved",
          "type": "bool"
        }
      ],
      "name": "ApprovalForAll",
      "type": "event"
    },
    {
      "anonymous": false,
      "inputs": [
        {
          "indexed": true,
          "internalType": "address",
          "name": "beacon",
          "type": "address"
        }
      ],
      "name": "BeaconUpgraded",
      "type": "event"
    },
    {
      "anonymous": false,
      "inputs": [
        {
          "indexed": false,
          "internalType": "uint256",
          "name": "id",
          "type": "uint256"
        },
        {
          "indexed": false,
          "internalType": "bytes32",
          "name": "claimHash",
          "type": "bytes32"
        },
        {
          "indexed": false,
          "internalType": "address[]",
          "name": "contributors",
          "type": "address[]"
        },
        {
          "indexed": false,
          "internalType": "uint256[2]",
          "name": "workTimeframe",
          "type": "uint256[2]"
        },
        {
          "indexed": false,
          "internalType": "uint256[2]",
          "name": "impactTimeframe",
          "type": "uint256[2]"
        },
        {
          "indexed": false,
          "internalType": "bytes32[]",
          "name": "workScopes",
          "type": "bytes32[]"
        },
        {
          "indexed": false,
          "internalType": "bytes32[]",
          "name": "impactScopes",
          "type": "bytes32[]"
        },
        {
          "indexed": false,
          "internalType": "bytes32[]",
          "name": "rights",
          "type": "bytes32[]"
        },
        {
          "indexed": false,
          "internalType": "uint256",
          "name": "version",
          "type": "uint256"
        },
        {
          "indexed": false,
          "internalType": "string",
          "name": "uri",
          "type": "string"
        }
      ],
      "name": "ImpactClaimed",
      "type": "event"
    },
    {
      "anonymous": false,
      "inputs": [
        {
          "indexed": false,
          "internalType": "bytes32",
          "name": "id",
          "type": "bytes32"
        },
        {
          "indexed": false,
          "internalType": "string",
          "name": "text",
          "type": "string"
        }
      ],
      "name": "ImpactScopeAdded",
      "type": "event"
    },
    {
      "anonymous": false,
      "inputs": [
        {
          "indexed": false,
          "internalType": "uint8",
          "name": "version",
          "type": "uint8"
        }
      ],
      "name": "Initialized",
      "type": "event"
    },
    {
      "anonymous": false,
      "inputs": [
        {
          "indexed": false,
          "internalType": "bytes32",
          "name": "id",
          "type": "bytes32"
        },
        {
          "indexed": false,
          "internalType": "string",
          "name": "text",
          "type": "string"
        }
      ],
      "name": "RightAdded",
      "type": "event"
    },
    {
      "anonymous": false,
      "inputs": [
        {
          "indexed": true,
          "internalType": "bytes32",
          "name": "role",
          "type": "bytes32"
        },
        {
          "indexed": true,
          "internalType": "bytes32",
          "name": "previousAdminRole",
          "type": "bytes32"
        },
        {
          "indexed": true,
          "internalType": "bytes32",
          "name": "newAdminRole",
          "type": "bytes32"
        }
      ],
      "name": "RoleAdminChanged",
      "type": "event"
    },
    {
      "anonymous": false,
      "inputs": [
        {
          "indexed": true,
          "internalType": "bytes32",
          "name": "role",
          "type": "bytes32"
        },
        {
          "indexed": true,
          "internalType": "address",
          "name": "account",
          "type": "address"
        },
        {
          "indexed": true,
          "internalType": "address",
          "name": "sender",
          "type": "address"
        }
      ],
      "name": "RoleGranted",
      "type": "event"
    },
    {
      "anonymous": false,
      "inputs": [
        {
          "indexed": true,
          "internalType": "bytes32",
          "name": "role",
          "type": "bytes32"
        },
        {
          "indexed": true,
          "internalType": "address",
          "name": "account",
          "type": "address"
        },
        {
          "indexed": true,
          "internalType": "address",
          "name": "sender",
          "type": "address"
        }
      ],
      "name": "RoleRevoked",
      "type": "event"
    },
    {
      "anonymous": false,
      "inputs": [
        {
          "indexed": true,
          "internalType": "address",
          "name": "operator",
          "type": "address"
        },
        {
          "indexed": true,
          "internalType": "address",
          "name": "from",
          "type": "address"
        },
        {
          "indexed": true,
          "internalType": "address",
          "name": "to",
          "type": "address"
        },
        {
          "indexed": false,
          "internalType": "uint256[]",
          "name": "ids",
          "type": "uint256[]"
        },
        {
          "indexed": false,
          "internalType": "uint256[]",
          "name": "values",
          "type": "uint256[]"
        }
      ],
      "name": "TransferBatch",
      "type": "event"
    },
    {
      "anonymous": false,
      "inputs": [
        {
          "indexed": true,
          "internalType": "address",
          "name": "operator",
          "type": "address"
        },
        {
          "indexed": true,
          "internalType": "address",
          "name": "from",
          "type": "address"
        },
        {
          "indexed": true,
          "internalType": "address",
          "name": "to",
          "type": "address"
        },
        {
          "indexed": false,
          "internalType": "uint256",
          "name": "id",
          "type": "uint256"
        },
        {
          "indexed": false,
          "internalType": "uint256",
          "name": "value",
          "type": "uint256"
        }
      ],
      "name": "TransferSingle",
      "type": "event"
    },
    {
      "anonymous": false,
      "inputs": [
        {
          "indexed": false,
          "internalType": "string",
          "name": "value",
          "type": "string"
        },
        {
          "indexed": true,
          "internalType": "uint256",
          "name": "id",
          "type": "uint256"
        }
      ],
      "name": "URI",
      "type": "event"
    },
    {
      "anonymous": false,
      "inputs": [
        {
          "indexed": true,
          "internalType": "address",
          "name": "implementation",
          "type": "address"
        }
      ],
      "name": "Upgraded",
      "type": "event"
    },
    {
      "anonymous": false,
      "inputs": [
        {
          "indexed": false,
          "internalType": "bytes32",
          "name": "id",
          "type": "bytes32"
        },
        {
          "indexed": false,
          "internalType": "string",
          "name": "text",
          "type": "string"
        }
      ],
      "name": "WorkScopeAdded",
      "type": "event"
    },
    {
      "inputs": [],
      "name": "DEFAULT_ADMIN_ROLE",
      "outputs": [
        {
          "internalType": "bytes32",
          "name": "",
          "type": "bytes32"
        }
      ],
      "stateMutability": "view",
      "type": "function"
    },
    {
      "inputs": [],
      "name": "UPGRADER_ROLE",
      "outputs": [
        {
          "internalType": "bytes32",
          "name": "",
          "type": "bytes32"
        }
      ],
      "stateMutability": "view",
      "type": "function"
    },
    {
      "inputs": [
        {
          "internalType": "string",
          "name": "text",
          "type": "string"
        }
      ],
      "name": "addImpactScope",
      "outputs": [
        {
          "internalType": "bytes32",
          "name": "id",
          "type": "bytes32"
        }
      ],
      "stateMutability": "nonpayable",
      "type": "function"
    },
    {
      "inputs": [
        {
          "internalType": "string",
          "name": "text",
          "type": "string"
        }
      ],
      "name": "addRight",
      "outputs": [
        {
          "internalType": "bytes32",
          "name": "id",
          "type": "bytes32"
        }
      ],
      "stateMutability": "nonpayable",
      "type": "function"
    },
    {
      "inputs": [
        {
          "internalType": "string",
          "name": "text",
          "type": "string"
        }
      ],
      "name": "addWorkScope",
      "outputs": [
        {
          "internalType": "bytes32",
          "name": "id",
          "type": "bytes32"
        }
      ],
      "stateMutability": "nonpayable",
      "type": "function"
    },
    {
      "inputs": [
        {
          "internalType": "address",
          "name": "account",
          "type": "address"
        },
        {
          "internalType": "uint256",
          "name": "id",
          "type": "uint256"
        }
      ],
      "name": "balanceOf",
      "outputs": [
        {
          "internalType": "uint256",
          "name": "",
          "type": "uint256"
        }
      ],
      "stateMutability": "view",
      "type": "function"
    },
    {
      "inputs": [
        {
          "internalType": "address[]",
          "name": "accounts",
          "type": "address[]"
        },
        {
          "internalType": "uint256[]",
          "name": "ids",
          "type": "uint256[]"
        }
      ],
      "name": "balanceOfBatch",
      "outputs": [
        {
          "internalType": "uint256[]",
          "name": "",
          "type": "uint256[]"
        }
      ],
      "stateMutability": "view",
      "type": "function"
    },
    {
      "inputs": [
        {
          "internalType": "address",
          "name": "account",
          "type": "address"
        },
        {
          "internalType": "uint256",
          "name": "id",
          "type": "uint256"
        },
        {
          "internalType": "uint256",
          "name": "value",
          "type": "uint256"
        }
      ],
      "name": "burn",
      "outputs": [],
      "stateMutability": "nonpayable",
      "type": "function"
    },
    {
      "inputs": [
        {
          "internalType": "address",
          "name": "account",
          "type": "address"
        },
        {
          "internalType": "uint256[]",
          "name": "ids",
          "type": "uint256[]"
        },
        {
          "internalType": "uint256[]",
          "name": "values",
          "type": "uint256[]"
        }
      ],
      "name": "burnBatch",
      "outputs": [],
      "stateMutability": "nonpayable",
      "type": "function"
    },
    {
      "inputs": [
        {
          "internalType": "address",
          "name": "",
          "type": "address"
        },
        {
          "internalType": "bytes32",
          "name": "",
          "type": "bytes32"
        }
      ],
      "name": "contributorImpacts",
      "outputs": [
        {
          "internalType": "bool",
          "name": "",
          "type": "bool"
        }
      ],
      "stateMutability": "view",
      "type": "function"
    },
    {
      "inputs": [],
      "name": "counter",
      "outputs": [
        {
          "internalType": "uint256",
          "name": "",
          "type": "uint256"
        }
      ],
      "stateMutability": "view",
      "type": "function"
    },
    {
      "inputs": [
        {
          "internalType": "uint256",
          "name": "id",
          "type": "uint256"
        }
      ],
      "name": "exists",
      "outputs": [
        {
          "internalType": "bool",
          "name": "",
          "type": "bool"
        }
      ],
      "stateMutability": "view",
      "type": "function"
    },
    {
      "inputs": [
        {
          "internalType": "uint256",
          "name": "claimID",
          "type": "uint256"
        }
      ],
      "name": "getImpactCert",
      "outputs": [
        {
          "components": [
            {
              "internalType": "bytes32",
              "name": "claimHash",
              "type": "bytes32"
            },
            {
              "internalType": "address[]",
              "name": "contributors",
              "type": "address[]"
            },
            {
              "internalType": "uint256[2]",
              "name": "workTimeframe",
              "type": "uint256[2]"
            },
            {
              "internalType": "uint256[2]",
              "name": "impactTimeframe",
              "type": "uint256[2]"
            },
            {
              "internalType": "bytes32[]",
              "name": "workScopes",
              "type": "bytes32[]"
            },
            {
              "internalType": "bytes32[]",
              "name": "impactScopes",
              "type": "bytes32[]"
            },
            {
              "internalType": "bytes32[]",
              "name": "rights",
              "type": "bytes32[]"
            },
            {
              "internalType": "uint256",
              "name": "version",
              "type": "uint256"
            },
            {
              "internalType": "bool",
              "name": "exists",
              "type": "bool"
            }
          ],
          "internalType": "struct HypercertMinterV0.Claim",
          "name": "",
          "type": "tuple"
        }
      ],
      "stateMutability": "view",
      "type": "function"
    },
    {
      "inputs": [
        {
          "internalType": "bytes32",
          "name": "role",
          "type": "bytes32"
        }
      ],
      "name": "getRoleAdmin",
      "outputs": [
        {
          "internalType": "bytes32",
          "name": "",
          "type": "bytes32"
        }
      ],
      "stateMutability": "view",
      "type": "function"
    },
    {
      "inputs": [
        {
          "internalType": "bytes32",
          "name": "role",
          "type": "bytes32"
        },
        {
          "internalType": "address",
          "name": "account",
          "type": "address"
        }
      ],
      "name": "grantRole",
      "outputs": [],
      "stateMutability": "nonpayable",
      "type": "function"
    },
    {
      "inputs": [
        {
          "internalType": "bytes32",
          "name": "role",
          "type": "bytes32"
        },
        {
          "internalType": "address",
          "name": "account",
          "type": "address"
        }
      ],
      "name": "hasRole",
      "outputs": [
        {
          "internalType": "bool",
          "name": "",
          "type": "bool"
        }
      ],
      "stateMutability": "view",
      "type": "function"
    },
    {
      "inputs": [
        {
          "internalType": "bytes32",
          "name": "",
          "type": "bytes32"
        }
      ],
      "name": "impactScopes",
      "outputs": [
        {
          "internalType": "string",
          "name": "",
          "type": "string"
        }
      ],
      "stateMutability": "view",
      "type": "function"
    },
    {
      "inputs": [],
      "name": "initialize",
      "outputs": [],
      "stateMutability": "nonpayable",
      "type": "function"
    },
    {
      "inputs": [
        {
          "internalType": "address",
          "name": "account",
          "type": "address"
        },
        {
          "internalType": "address",
          "name": "operator",
          "type": "address"
        }
      ],
      "name": "isApprovedForAll",
      "outputs": [
        {
          "internalType": "bool",
          "name": "",
          "type": "bool"
        }
      ],
      "stateMutability": "view",
      "type": "function"
    },
    {
      "inputs": [
        {
          "internalType": "address",
          "name": "account",
          "type": "address"
        },
        {
          "internalType": "uint256",
          "name": "amount",
          "type": "uint256"
        },
        {
          "internalType": "bytes",
          "name": "data",
          "type": "bytes"
        }
      ],
      "name": "mint",
      "outputs": [],
      "stateMutability": "nonpayable",
      "type": "function"
    },
    {
      "inputs": [],
      "name": "name",
      "outputs": [
        {
          "internalType": "string",
          "name": "",
          "type": "string"
        }
      ],
      "stateMutability": "view",
      "type": "function"
    },
    {
      "inputs": [],
      "name": "proxiableUUID",
      "outputs": [
        {
          "internalType": "bytes32",
          "name": "",
          "type": "bytes32"
        }
      ],
      "stateMutability": "view",
      "type": "function"
    },
    {
      "inputs": [
        {
          "internalType": "bytes32",
          "name": "role",
          "type": "bytes32"
        },
        {
          "internalType": "address",
          "name": "account",
          "type": "address"
        }
      ],
      "name": "renounceRole",
      "outputs": [],
      "stateMutability": "nonpayable",
      "type": "function"
    },
    {
      "inputs": [
        {
          "internalType": "bytes32",
          "name": "role",
          "type": "bytes32"
        },
        {
          "internalType": "address",
          "name": "account",
          "type": "address"
        }
      ],
      "name": "revokeRole",
      "outputs": [],
      "stateMutability": "nonpayable",
      "type": "function"
    },
    {
      "inputs": [
        {
          "internalType": "bytes32",
          "name": "",
          "type": "bytes32"
        }
      ],
      "name": "rights",
      "outputs": [
        {
          "internalType": "string",
          "name": "",
          "type": "string"
        }
      ],
      "stateMutability": "view",
      "type": "function"
    },
    {
      "inputs": [
        {
          "internalType": "address",
          "name": "from",
          "type": "address"
        },
        {
          "internalType": "address",
          "name": "to",
          "type": "address"
        },
        {
          "internalType": "uint256[]",
          "name": "ids",
          "type": "uint256[]"
        },
        {
          "internalType": "uint256[]",
          "name": "amounts",
          "type": "uint256[]"
        },
        {
          "internalType": "bytes",
          "name": "data",
          "type": "bytes"
        }
      ],
      "name": "safeBatchTransferFrom",
      "outputs": [],
      "stateMutability": "nonpayable",
      "type": "function"
    },
    {
      "inputs": [
        {
          "internalType": "address",
          "name": "from",
          "type": "address"
        },
        {
          "internalType": "address",
          "name": "to",
          "type": "address"
        },
        {
          "internalType": "uint256",
          "name": "id",
          "type": "uint256"
        },
        {
          "internalType": "uint256",
          "name": "amount",
          "type": "uint256"
        },
        {
          "internalType": "bytes",
          "name": "data",
          "type": "bytes"
        }
      ],
      "name": "safeTransferFrom",
      "outputs": [],
      "stateMutability": "nonpayable",
      "type": "function"
    },
    {
      "inputs": [
        {
          "internalType": "address",
          "name": "operator",
          "type": "address"
        },
        {
          "internalType": "bool",
          "name": "approved",
          "type": "bool"
        }
      ],
      "name": "setApprovalForAll",
      "outputs": [],
      "stateMutability": "nonpayable",
      "type": "function"
    },
    {
      "inputs": [
        {
          "internalType": "bytes4",
          "name": "interfaceId",
          "type": "bytes4"
        }
      ],
      "name": "supportsInterface",
      "outputs": [
        {
          "internalType": "bool",
          "name": "",
          "type": "bool"
        }
      ],
      "stateMutability": "view",
      "type": "function"
    },
    {
      "inputs": [
        {
          "internalType": "uint256",
          "name": "id",
          "type": "uint256"
        }
      ],
      "name": "totalSupply",
      "outputs": [
        {
          "internalType": "uint256",
          "name": "",
          "type": "uint256"
        }
      ],
      "stateMutability": "view",
      "type": "function"
    },
    {
      "inputs": [
        {
          "internalType": "address",
          "name": "newImplementation",
          "type": "address"
        }
      ],
      "name": "upgradeTo",
      "outputs": [],
      "stateMutability": "nonpayable",
      "type": "function"
    },
    {
      "inputs": [
        {
          "internalType": "address",
          "name": "newImplementation",
          "type": "address"
        },
        {
          "internalType": "bytes",
          "name": "data",
          "type": "bytes"
        }
      ],
      "name": "upgradeToAndCall",
      "outputs": [],
      "stateMutability": "payable",
      "type": "function"
    },
    {
      "inputs": [
        {
          "internalType": "uint256",
          "name": "tokenId",
          "type": "uint256"
        }
      ],
      "name": "uri",
      "outputs": [
        {
          "internalType": "string",
          "name": "",
          "type": "string"
        }
      ],
      "stateMutability": "view",
      "type": "function"
    },
    {
      "inputs": [],
      "name": "version",
      "outputs": [
        {
          "internalType": "uint256",
          "name": "",
          "type": "uint256"
        }
      ],
      "stateMutability": "pure",
      "type": "function"
    },
    {
      "inputs": [
        {
          "internalType": "bytes32",
          "name": "",
          "type": "bytes32"
        }
      ],
      "name": "workScopes",
      "outputs": [
        {
          "internalType": "string",
          "name": "",
          "type": "string"
        }
      ],
      "stateMutability": "view",
      "type": "function"
    }
  ],
  "numDeployments": 1,
  "solcInputHash": "48d9024495949dc4bc889abea769bf62",
  "bytecode": "0x60a0604052306080523480156200001557600080fd5b506200002062000026565b620000e8565b600054610100900460ff1615620000935760405162461bcd60e51b815260206004820152602760248201527f496e697469616c697a61626c653a20636f6e747261637420697320696e697469604482015266616c697a696e6760c81b606482015260840160405180910390fd5b60005460ff9081161015620000e6576000805460ff191660ff9081179091556040519081527f7f26b83ff96e1f2b6a682f133852f6798a09c465da95921460cefb38474024989060200160405180910390a15b565b608051614a066200012060003960008181610a9b01528181610b2001528181610d5401528181610dd90152610ebf0152614a066000f3fe6080604052600436106102335760003560e01c80636b20c45411610138578063bd85b039116100b0578063ef6f66d71161007f578063f242432a11610064578063f242432a14610701578063f5298aca14610721578063f72c0d8b1461074157600080fd5b8063ef6f66d7146106c1578063f0f11e05146106e157600080fd5b8063bd85b0391461060b578063d52fd09514610638578063d547741f14610658578063e985e9c51461067857600080fd5b806391d1485411610107578063997edc61116100ec578063997edc61146105b6578063a217fddf146105d6578063a22cb465146105eb57600080fd5b806391d148541461055057806394d008ef1461059657600080fd5b80636b20c454146104ce57806372927aa3146104ee5780638129fc1c1461051b5780638f88b7671461053057600080fd5b806336568abe116101cb5780634f1ef2861161019a57806352d1902d1161017f57806352d1902d1461048e57806354fd4d50146104a357806361bc221a146104b757600080fd5b80634f1ef2861461044c5780634f558e791461045f57600080fd5b806336568abe146103a35780633659cfe6146103c35780633a3acca5146103e35780634e1273f41461041f57600080fd5b80631e6ad4b8116102075780631e6ad4b814610311578063248a9ca3146103315780632eb2c2d6146103615780632f2ff15d1461038357600080fd5b8062fdd58e1461023857806301ffc9a71461026b57806306fdde031461029b5780630e89341c146102f1575b600080fd5b34801561024457600080fd5b506102586102533660046139c0565b610775565b6040519081526020015b60405180910390f35b34801561027757600080fd5b5061028b610286366004613a02565b610823565b6040519015158152602001610262565b3480156102a757600080fd5b506102e46040518060400160405280601881526020017f496d70616374206879706572636572746966696361746573000000000000000081525081565b6040516102629190613a6f565b3480156102fd57600080fd5b506102e461030c366004613a82565b61082e565b34801561031d57600080fd5b5061025861032c366004613b4c565b610839565b34801561033d57600080fd5b5061025861034c366004613a82565b60009081526097602052604090206001015490565b34801561036d57600080fd5b5061038161037c366004613c52565b610947565b005b34801561038f57600080fd5b5061038161039e366004613d00565b6109db565b3480156103af57600080fd5b506103816103be366004613d00565b610a05565b3480156103cf57600080fd5b506103816103de366004613d30565b610a91565b3480156103ef57600080fd5b5061028b6103fe3660046139c0565b6101c860209081526000928352604080842090915290825290205460ff1681565b34801561042b57600080fd5b5061043f61043a366004613d4d565b610c0c565b6040516102629190613e55565b61038161045a366004613e68565b610d4a565b34801561046b57600080fd5b5061028b61047a366004613a82565b600090815260fb6020526040902054151590565b34801561049a57600080fd5b50610258610eb2565b3480156104af57600080fd5b506001610258565b3480156104c357600080fd5b506102586101c45481565b3480156104da57600080fd5b506103816104e9366004613eae565b610f78565b3480156104fa57600080fd5b5061050e610509366004613a82565b611003565b6040516102629190613f80565b34801561052757600080fd5b50610381611222565b34801561053c57600080fd5b506102e461054b366004613a82565b6113b8565b34801561055c57600080fd5b5061028b61056b366004613d00565b60009182526097602090815260408084206001600160a01b0393909316845291905290205460ff1690565b3480156105a257600080fd5b506103816105b1366004614056565b611453565b3480156105c257600080fd5b506102586105d1366004613b4c565b611846565b3480156105e257600080fd5b50610258600081565b3480156105f757600080fd5b506103816106063660046140a5565b611947565b34801561061757600080fd5b50610258610626366004613a82565b600090815260fb602052604090205490565b34801561064457600080fd5b506102e4610653366004613a82565b611952565b34801561066457600080fd5b50610381610673366004613d00565b61196c565b34801561068457600080fd5b5061028b6106933660046140d8565b6001600160a01b03918216600090815260666020908152604080832093909416825291909152205460ff1690565b3480156106cd57600080fd5b506102e46106dc366004613a82565b611991565b3480156106ed57600080fd5b506102586106fc366004613b4c565b6119ab565b34801561070d57600080fd5b5061038161071c366004614106565b611aac565b34801561072d57600080fd5b5061038161073c36600461416f565b611b39565b34801561074d57600080fd5b506102587f189ab7a9244df0848122154315af71fe140f3db0fe014031783b0946b8c9d2e381565b60006001600160a01b0383166107f85760405162461bcd60e51b815260206004820152602a60248201527f455243313135353a2061646472657373207a65726f206973206e6f742061207660448201527f616c6964206f776e65720000000000000000000000000000000000000000000060648201526084015b60405180910390fd5b5060008181526065602090815260408083206001600160a01b03861684529091529020545b92915050565b600061081d82611bc4565b606061081d82611be9565b60008082511161088b5760405162461bcd60e51b815260206004820152601a60248201527f616464496d7061637453636f70653a20656d707479207465787400000000000060448201526064016107ef565b61089482611ccb565b90506108a26101c682611cfb565b156108ef5760405162461bcd60e51b815260206004820152601e60248201527f616464496d7061637453636f70653a20616c726561647920657869737473000060448201526064016107ef565b60008181526101c6602052604090206109088382614224565b507f2efcce702e3d0b95b3deb632da6d41c3d169e0c3effb9066d949f14d6f13224f818360405161093a9291906142e4565b60405180910390a1919050565b6001600160a01b03851633148061096357506109638533610693565b6109c75760405162461bcd60e51b815260206004820152602f60248201527f455243313135353a2063616c6c6572206973206e6f7420746f6b656e206f776e60448201526e195c881b9bdc88185c1c1c9bdd9959608a1b60648201526084016107ef565b6109d48585858585611d22565b5050505050565b6000828152609760205260409020600101546109f681611f91565b610a008383611f9b565b505050565b6001600160a01b0381163314610a835760405162461bcd60e51b815260206004820152602f60248201527f416363657373436f6e74726f6c3a2063616e206f6e6c792072656e6f756e636560448201527f20726f6c657320666f722073656c66000000000000000000000000000000000060648201526084016107ef565b610a8d828261203d565b5050565b6001600160a01b037f0000000000000000000000000000000000000000000000000000000000000000163003610b1e5760405162461bcd60e51b815260206004820152602c60248201527f46756e6374696f6e206d7573742062652063616c6c6564207468726f7567682060448201526b19195b1959d85d1958d85b1b60a21b60648201526084016107ef565b7f00000000000000000000000000000000000000000000000000000000000000006001600160a01b0316610b797f360894a13ba1a3210667c828492db98dca3e2076cc3735a920a3ca505d382bbc546001600160a01b031690565b6001600160a01b031614610be45760405162461bcd60e51b815260206004820152602c60248201527f46756e6374696f6e206d7573742062652063616c6c6564207468726f7567682060448201526b6163746976652070726f787960a01b60648201526084016107ef565b610bed816120c0565b60408051600080825260208201909252610c09918391906120ea565b50565b60608151835114610c855760405162461bcd60e51b815260206004820152602960248201527f455243313135353a206163636f756e747320616e6420696473206c656e67746860448201527f206d69736d61746368000000000000000000000000000000000000000000000060648201526084016107ef565b6000835167ffffffffffffffff811115610ca157610ca1613a9b565b604051908082528060200260200182016040528015610cca578160200160208202803683370190505b50905060005b8451811015610d4257610d15858281518110610cee57610cee6142fd565b6020026020010151858381518110610d0857610d086142fd565b6020026020010151610775565b828281518110610d2757610d276142fd565b6020908102919091010152610d3b81614329565b9050610cd0565b509392505050565b6001600160a01b037f0000000000000000000000000000000000000000000000000000000000000000163003610dd75760405162461bcd60e51b815260206004820152602c60248201527f46756e6374696f6e206d7573742062652063616c6c6564207468726f7567682060448201526b19195b1959d85d1958d85b1b60a21b60648201526084016107ef565b7f00000000000000000000000000000000000000000000000000000000000000006001600160a01b0316610e327f360894a13ba1a3210667c828492db98dca3e2076cc3735a920a3ca505d382bbc546001600160a01b031690565b6001600160a01b031614610e9d5760405162461bcd60e51b815260206004820152602c60248201527f46756e6374696f6e206d7573742062652063616c6c6564207468726f7567682060448201526b6163746976652070726f787960a01b60648201526084016107ef565b610ea6826120c0565b610a8d828260016120ea565b6000306001600160a01b037f00000000000000000000000000000000000000000000000000000000000000001614610f525760405162461bcd60e51b815260206004820152603860248201527f555550535570677261646561626c653a206d757374206e6f742062652063616c60448201527f6c6564207468726f7567682064656c656761746563616c6c000000000000000060648201526084016107ef565b507f360894a13ba1a3210667c828492db98dca3e2076cc3735a920a3ca505d382bbc5b90565b6001600160a01b038316331480610f945750610f948333610693565b610ff85760405162461bcd60e51b815260206004820152602f60248201527f455243313135353a2063616c6c6572206973206e6f7420746f6b656e206f776e60448201526e195c881b9bdc88185c1c1c9bdd9959608a1b60648201526084016107ef565b610a0083838361228a565b61100b613845565b60008281526101c96020908152604091829020825161012081018452815481526001820180548551818602810186019096528086529194929385810193929083018282801561108357602002820191906000526020600020905b81546001600160a01b03168152600190910190602001808311611065575b505050918352505060408051808201918290526020909201919060028481019182845b8154815260200190600101908083116110a6575050509183525050604080518082019182905260209092019190600484019060029082845b8154815260200190600101908083116110de57505050505081526020016006820180548060200260200160405190810160405280929190818152602001828054801561114957602002820191906000526020600020905b815481526020019060010190808311611135575b50505050508152602001600782018054806020026020016040519081016040528092919081815260200182805480156111a157602002820191906000526020600020905b81548152602001906001019080831161118d575b50505050508152602001600882018054806020026020016040519081016040528092919081815260200182805480156111f957602002820191906000526020600020905b8154815260200190600101908083116111e5575b505050918352505060098201546020820152600a9091015460ff16151560409091015292915050565b600054610100900460ff16158080156112425750600054600160ff909116105b8061125c5750303b15801561125c575060005460ff166001145b6112ce5760405162461bcd60e51b815260206004820152602e60248201527f496e697469616c697a61626c653a20636f6e747261637420697320616c72656160448201527f647920696e697469616c697a656400000000000000000000000000000000000060648201526084016107ef565b6000805460ff1916600117905580156112f1576000805461ff0019166101001790555b611309604051806020016040528060008152506124e4565b611311612558565b611319612558565b6113216125c5565b611329612558565b611334600033611f9b565b61135e7f189ab7a9244df0848122154315af71fe140f3db0fe014031783b0946b8c9d2e333611f9b565b6101c3805461ffff1916905560006101c4558015610c09576000805461ff0019169055604051600181527f7f26b83ff96e1f2b6a682f133852f6798a09c465da95921460cefb38474024989060200160405180910390a150565b6101c560205260009081526040902080546113d2906141a4565b80601f01602080910402602001604051908101604052809291908181526020018280546113fe906141a4565b801561144b5780601f106114205761010080835404028352916020019161144b565b820191906000526020600020905b81548152906001019060200180831161142e57829003601f168201915b505050505081565b6001600160a01b0383166114a95760405162461bcd60e51b815260206004820152601e60248201527f4d696e743a206d696e7420746f20746865207a65726f2061646472657373000060448201526064016107ef565b60008151116114fa5760405162461bcd60e51b815260206004820152601660248201527f4d696e743a20696e707574206461746120656d7074790000000000000000000060448201526064016107ef565b60006001905060008060008060008060008880602001905181019061151f91906144d6565b96509650965096509650965096506000848785888c6040516020016115489594939291906145cd565b60405160208183030381529060405280519060200120905060005b86518110156115ef576115916101c6888381518110611584576115846142fd565b6020026020010151611cfb565b6115dd5760405162461bcd60e51b815260206004820152601a60248201527f4d696e743a20696e76616c696420696d706163742073636f706500000000000060448201526064016107ef565b806115e781614329565b915050611563565b5060005b8751811015611672576116146101c5898381518110611584576115846142fd565b6116605760405162461bcd60e51b815260206004820152601860248201527f4d696e743a20696e76616c696420776f726b2073636f7065000000000000000060448201526064016107ef565b8061166a81614329565b9150506115f3565b5061167d8184612638565b611685613845565b8181526020808201858152604080840189905260608401889052608084018b905260a084018a905260c084018c905260e084018d9052600161010085018190526101c45460009081526101c9855291909120845181559151805185946116ef93850192019061389e565b5060408201516117059060028084019190613910565b50606082015161171b9060048301906002613910565b506080820151805161173791600684019160209091019061393e565b5060a0820151805161175391600784019160209091019061393e565b5060c0820151805161176f91600884019160209091019061393e565b5060e0820151600982015561010090910151600a909101805460ff19169115159190911790556101c4546117a3908461276c565b6117b28d6101c4548e8e6127ca565b7f8a5e2ad605927fd0538691713998234ea0be291a0621aadc32da2b59b5ea63626101c454826000015183602001518460400151856060015186608001518760a001518860c001518960e001518c6040516118169a9998979695949392919061461f565b60405180910390a160016101c4600082825461183291906146c4565b909155505050505050505050505050505050565b6000808251116118985760405162461bcd60e51b815260206004820152601860248201527f616464576f726b53636f70653a20656d7074792074657874000000000000000060448201526064016107ef565b6118a182611ccb565b90506118af6101c582611cfb565b156118fc5760405162461bcd60e51b815260206004820152601c60248201527f616464576f726b53636f70653a20616c7265616479206578697374730000000060448201526064016107ef565b60008181526101c5602052604090206119158382614224565b507f8b841033bc947e807d9766c542105a3dbb0bae62591be7b5c8cd4f37f698bf73818360405161093a9291906142e4565b610a8d3383836128ef565b6101c760205260009081526040902080546113d2906141a4565b60008281526097602052604090206001015461198781611f91565b610a00838361203d565b6101c660205260009081526040902080546113d2906141a4565b6000808251116119fd5760405162461bcd60e51b815260206004820152601460248201527f61646452696768743a20656d707479207465787400000000000000000000000060448201526064016107ef565b611a0682611ccb565b9050611a146101c782611cfb565b15611a615760405162461bcd60e51b815260206004820152601860248201527f61646452696768743a20616c726561647920657869737473000000000000000060448201526064016107ef565b60008181526101c760205260409020611a7a8382614224565b507f4527d373276b1ece0c8dd18e140572f93feffd35a0993d9e4de70623b1ac93ce818360405161093a9291906142e4565b6001600160a01b038516331480611ac85750611ac88533610693565b611b2c5760405162461bcd60e51b815260206004820152602f60248201527f455243313135353a2063616c6c6572206973206e6f7420746f6b656e206f776e60448201526e195c881b9bdc88185c1c1c9bdd9959608a1b60648201526084016107ef565b6109d485858585856129e3565b6001600160a01b038316331480611b555750611b558333610693565b611bb95760405162461bcd60e51b815260206004820152602f60248201527f455243313135353a2063616c6c6572206973206e6f7420746f6b656e206f776e60448201526e195c881b9bdc88185c1c1c9bdd9959608a1b60648201526084016107ef565b610a00838383612ba0565b60006001600160e01b03198216637965db0b60e01b148061081d575061081d82612d34565b600081815261012e6020526040812080546060929190611c08906141a4565b80601f0160208091040260200160405190810160405280929190818152602001828054611c34906141a4565b8015611c815780601f10611c5657610100808354040283529160200191611c81565b820191906000526020600020905b815481529060010190602001808311611c6457829003601f168201915b505050505090506000815111611c9f57611c9a83612d84565b611cc4565b61012d81604051602001611cb49291906146d7565b6040516020818303038152906040525b9392505050565b600081604051602001611cde9190613a6f565b604051602081830303815290604052805190602001209050919050565b60008181526020839052604081208054829190611d17906141a4565b905011905092915050565b8151835114611d845760405162461bcd60e51b815260206004820152602860248201527f455243313135353a2069647320616e6420616d6f756e7473206c656e677468206044820152670dad2e6dac2e8c6d60c31b60648201526084016107ef565b6001600160a01b038416611de85760405162461bcd60e51b815260206004820152602560248201527f455243313135353a207472616e7366657220746f20746865207a65726f206164604482015264647265737360d81b60648201526084016107ef565b33611df7818787878787612e18565b60005b8451811015611f23576000858281518110611e1757611e176142fd565b602002602001015190506000858381518110611e3557611e356142fd565b60209081029190910181015160008481526065835260408082206001600160a01b038e168352909352919091205490915081811015611ec95760405162461bcd60e51b815260206004820152602a60248201527f455243313135353a20696e73756666696369656e742062616c616e636520666f60448201526939103a3930b739b332b960b11b60648201526084016107ef565b60008381526065602090815260408083206001600160a01b038e8116855292528083208585039055908b16825281208054849290611f089084906146c4565b9250508190555050505080611f1c90614329565b9050611dfa565b50846001600160a01b0316866001600160a01b0316826001600160a01b03167f4a39dc06d4c0dbc64b70af90fd698a233a518aa5d07e595d983b8c0526c8f7fb8787604051611f7392919061475e565b60405180910390a4611f89818787878787612e26565b505050505050565b610c098133612fcb565b60008281526097602090815260408083206001600160a01b038516845290915290205460ff16610a8d5760008281526097602090815260408083206001600160a01b03851684529091529020805460ff19166001179055611ff93390565b6001600160a01b0316816001600160a01b0316837f2f8788117e7eff1d82e926ec794901d17c78024a50270940304540a733656f0d60405160405180910390a45050565b60008281526097602090815260408083206001600160a01b038516845290915290205460ff1615610a8d5760008281526097602090815260408083206001600160a01b0385168085529252808320805460ff1916905551339285917ff6391f5c32d9c69d2a47ea670b442974b53935d1edc7fd64eb21e047a839171b9190a45050565b7f189ab7a9244df0848122154315af71fe140f3db0fe014031783b0946b8c9d2e3610a8d81611f91565b7f4910fdfa16fed3260ed0e7147f7cc6da11a60208b5b9406d12a635614ffd91435460ff161561211d57610a008361304b565b826001600160a01b03166352d1902d6040518163ffffffff1660e01b8152600401602060405180830381865afa925050508015612177575060408051601f3d908101601f1916820190925261217491810190614783565b60015b6121e95760405162461bcd60e51b815260206004820152602e60248201527f45524331393637557067726164653a206e657720696d706c656d656e7461746960448201527f6f6e206973206e6f74205555505300000000000000000000000000000000000060648201526084016107ef565b7f360894a13ba1a3210667c828492db98dca3e2076cc3735a920a3ca505d382bbc811461227e5760405162461bcd60e51b815260206004820152602960248201527f45524331393637557067726164653a20756e737570706f727465642070726f7860448201527f6961626c6555554944000000000000000000000000000000000000000000000060648201526084016107ef565b50610a00838383613116565b6001600160a01b0383166122ec5760405162461bcd60e51b815260206004820152602360248201527f455243313135353a206275726e2066726f6d20746865207a65726f206164647260448201526265737360e81b60648201526084016107ef565b805182511461234e5760405162461bcd60e51b815260206004820152602860248201527f455243313135353a2069647320616e6420616d6f756e7473206c656e677468206044820152670dad2e6dac2e8c6d60c31b60648201526084016107ef565b600033905061237181856000868660405180602001604052806000815250612e18565b60005b8351811015612475576000848281518110612391576123916142fd565b6020026020010151905060008483815181106123af576123af6142fd565b60209081029190910181015160008481526065835260408082206001600160a01b038c16835290935291909120549091508181101561243c5760405162461bcd60e51b8152602060048201526024808201527f455243313135353a206275726e20616d6f756e7420657863656564732062616c604482015263616e636560e01b60648201526084016107ef565b60009283526065602090815260408085206001600160a01b038b168652909152909220910390558061246d81614329565b915050612374565b5060006001600160a01b0316846001600160a01b0316826001600160a01b03167f4a39dc06d4c0dbc64b70af90fd698a233a518aa5d07e595d983b8c0526c8f7fb86866040516124c692919061475e565b60405180910390a46040805160208101909152600090525b50505050565b600054610100900460ff1661254f5760405162461bcd60e51b815260206004820152602b60248201527f496e697469616c697a61626c653a20636f6e7472616374206973206e6f74206960448201526a6e697469616c697a696e6760a81b60648201526084016107ef565b610c098161313b565b600054610100900460ff166125c35760405162461bcd60e51b815260206004820152602b60248201527f496e697469616c697a61626c653a20636f6e7472616374206973206e6f74206960448201526a6e697469616c697a696e6760a81b60648201526084016107ef565b565b600054610100900460ff166126305760405162461bcd60e51b815260206004820152602b60248201527f496e697469616c697a61626c653a20636f6e7472616374206973206e6f74206960448201526a6e697469616c697a696e6760a81b60648201526084016107ef565b6125c36131af565b60005b8151811015610a00576101c8600083838151811061265b5761265b6142fd565b6020908102919091018101516001600160a01b03168252818101929092526040908101600090812086825290925290205460ff16156127025760405162461bcd60e51b815260206004820152602560248201527f436c61696d3a20636c61696d20666f722063726561746f7273206f7665726c6160448201527f7070696e6700000000000000000000000000000000000000000000000000000060648201526084016107ef565b60016101c8600084848151811061271b5761271b6142fd565b6020908102919091018101516001600160a01b0316825281810192909252604090810160009081208782529092529020805460ff19169115159190911790558061276481614329565b91505061263b565b600082815261012e602052604090206127858282614224565b50817f6bb7ff708619ba0610cba295a58592e0451dee2622938c8755667688daf3529b6127b18461082e565b6040516127be9190613a6f565b60405180910390a25050565b6001600160a01b03841661282a5760405162461bcd60e51b815260206004820152602160248201527f455243313135353a206d696e7420746f20746865207a65726f206164647265736044820152607360f81b60648201526084016107ef565b33600061283685613237565b9050600061284385613237565b905061285483600089858589612e18565b60008681526065602090815260408083206001600160a01b038b168452909152812080548792906128869084906146c4565b909155505060408051878152602081018790526001600160a01b03808a1692600092918716917fc3d58168c5ae7397731d063d5bbf3d657854427343f4c083240f7aacaa2d0f62910160405180910390a46128e683600089898989613282565b50505050505050565b816001600160a01b0316836001600160a01b0316036129765760405162461bcd60e51b815260206004820152602960248201527f455243313135353a2073657474696e6720617070726f76616c2073746174757360448201527f20666f722073656c66000000000000000000000000000000000000000000000060648201526084016107ef565b6001600160a01b03838116600081815260666020908152604080832094871680845294825291829020805460ff191686151590811790915591519182527f17307eab39ab6107e8899845ad3d59bd9653f200f220920489ca2b5937696c31910160405180910390a3505050565b6001600160a01b038416612a475760405162461bcd60e51b815260206004820152602560248201527f455243313135353a207472616e7366657220746f20746865207a65726f206164604482015264647265737360d81b60648201526084016107ef565b336000612a5385613237565b90506000612a6085613237565b9050612a70838989858589612e18565b60008681526065602090815260408083206001600160a01b038c16845290915290205485811015612af65760405162461bcd60e51b815260206004820152602a60248201527f455243313135353a20696e73756666696369656e742062616c616e636520666f60448201526939103a3930b739b332b960b11b60648201526084016107ef565b60008781526065602090815260408083206001600160a01b038d8116855292528083208985039055908a16825281208054889290612b359084906146c4565b909155505060408051888152602081018890526001600160a01b03808b16928c821692918816917fc3d58168c5ae7397731d063d5bbf3d657854427343f4c083240f7aacaa2d0f62910160405180910390a4612b95848a8a8a8a8a613282565b505050505050505050565b6001600160a01b038316612c025760405162461bcd60e51b815260206004820152602360248201527f455243313135353a206275726e2066726f6d20746865207a65726f206164647260448201526265737360e81b60648201526084016107ef565b336000612c0e84613237565b90506000612c1b84613237565b9050612c3b83876000858560405180602001604052806000815250612e18565b60008581526065602090815260408083206001600160a01b038a16845290915290205484811015612cba5760405162461bcd60e51b8152602060048201526024808201527f455243313135353a206275726e20616d6f756e7420657863656564732062616c604482015263616e636560e01b60648201526084016107ef565b60008681526065602090815260408083206001600160a01b038b81168086529184528285208a8703905582518b81529384018a90529092908816917fc3d58168c5ae7397731d063d5bbf3d657854427343f4c083240f7aacaa2d0f62910160405180910390a46040805160208101909152600090526128e6565b60006001600160e01b03198216636cdb3d1360e11b1480612d6557506001600160e01b031982166303a24d0760e21b145b8061081d57506301ffc9a760e01b6001600160e01b031983161461081d565b606060678054612d93906141a4565b80601f0160208091040260200160405190810160405280929190818152602001828054612dbf906141a4565b8015612e0c5780601f10612de157610100808354040283529160200191612e0c565b820191906000526020600020905b815481529060010190602001808311612def57829003601f168201915b50505050509050919050565b611f8986868686868661337e565b6001600160a01b0384163b15611f895760405163bc197c8160e01b81526001600160a01b0385169063bc197c8190612e6a908990899088908890889060040161479c565b6020604051808303816000875af1925050508015612ea5575060408051601f3d908101601f19168201909252612ea2918101906147fa565b60015b612f5a57612eb1614817565b806308c379a003612eea5750612ec5614832565b80612ed05750612eec565b8060405162461bcd60e51b81526004016107ef9190613a6f565b505b60405162461bcd60e51b815260206004820152603460248201527f455243313135353a207472616e7366657220746f206e6f6e204552433131353560448201527f526563656976657220696d706c656d656e74657200000000000000000000000060648201526084016107ef565b6001600160e01b0319811663bc197c8160e01b146128e65760405162461bcd60e51b815260206004820152602860248201527f455243313135353a204552433131353552656365697665722072656a656374656044820152676420746f6b656e7360c01b60648201526084016107ef565b60008281526097602090815260408083206001600160a01b038516845290915290205460ff16610a8d57613009816001600160a01b0316601461350c565b61301483602061350c565b6040516020016130259291906148bc565b60408051601f198184030181529082905262461bcd60e51b82526107ef91600401613a6f565b6001600160a01b0381163b6130c85760405162461bcd60e51b815260206004820152602d60248201527f455243313936373a206e657720696d706c656d656e746174696f6e206973206e60448201527f6f74206120636f6e74726163740000000000000000000000000000000000000060648201526084016107ef565b7f360894a13ba1a3210667c828492db98dca3e2076cc3735a920a3ca505d382bbc805473ffffffffffffffffffffffffffffffffffffffff19166001600160a01b0392909216919091179055565b61311f836136b5565b60008251118061312c5750805b15610a00576124de83836136f5565b600054610100900460ff166131a65760405162461bcd60e51b815260206004820152602b60248201527f496e697469616c697a61626c653a20636f6e7472616374206973206e6f74206960448201526a6e697469616c697a696e6760a81b60648201526084016107ef565b610c0981613800565b600054610100900460ff1661321a5760405162461bcd60e51b815260206004820152602b60248201527f496e697469616c697a61626c653a20636f6e7472616374206973206e6f74206960448201526a6e697469616c697a696e6760a81b60648201526084016107ef565b60408051602081019091526000815261012d90610c099082614224565b60408051600180825281830190925260609160009190602080830190803683370190505090508281600081518110613271576132716142fd565b602090810291909101015292915050565b6001600160a01b0384163b15611f895760405163f23a6e6160e01b81526001600160a01b0385169063f23a6e61906132c6908990899088908890889060040161493d565b6020604051808303816000875af1925050508015613301575060408051601f3d908101601f191682019092526132fe918101906147fa565b60015b61330d57612eb1614817565b6001600160e01b0319811663f23a6e6160e01b146128e65760405162461bcd60e51b815260206004820152602860248201527f455243313135353a204552433131353552656365697665722072656a656374656044820152676420746f6b656e7360c01b60648201526084016107ef565b6001600160a01b0385166134055760005b8351811015613403578281815181106133aa576133aa6142fd565b602002602001015160fb60008684815181106133c8576133c86142fd565b6020026020010151815260200190815260200160002060008282546133ed91906146c4565b909155506133fc905081614329565b905061338f565b505b6001600160a01b038416611f895760005b83518110156128e6576000848281518110613433576134336142fd565b602002602001015190506000848381518110613451576134516142fd565b60200260200101519050600060fb6000848152602001908152602001600020549050818110156134e95760405162461bcd60e51b815260206004820152602860248201527f455243313135353a206275726e20616d6f756e74206578636565647320746f7460448201527f616c537570706c7900000000000000000000000000000000000000000000000060648201526084016107ef565b600092835260fb60205260409092209103905561350581614329565b9050613416565b6060600061351b836002614980565b6135269060026146c4565b67ffffffffffffffff81111561353e5761353e613a9b565b6040519080825280601f01601f191660200182016040528015613568576020820181803683370190505b509050600360fc1b81600081518110613583576135836142fd565b60200101906001600160f81b031916908160001a905350600f60fb1b816001815181106135b2576135b26142fd565b60200101906001600160f81b031916908160001a90535060006135d6846002614980565b6135e19060016146c4565b90505b6001811115613666577f303132333435363738396162636465660000000000000000000000000000000085600f1660108110613622576136226142fd565b1a60f81b828281518110613638576136386142fd565b60200101906001600160f81b031916908160001a90535060049490941c9361365f8161499f565b90506135e4565b508315611cc45760405162461bcd60e51b815260206004820181905260248201527f537472696e67733a20686578206c656e67746820696e73756666696369656e7460448201526064016107ef565b6136be8161304b565b6040516001600160a01b038216907fbc7cd75a20ee27fd9adebab32041f755214dbc6bffa90cc0225b39da2e5c2d3b90600090a250565b60606001600160a01b0383163b6137745760405162461bcd60e51b815260206004820152602660248201527f416464726573733a2064656c65676174652063616c6c20746f206e6f6e2d636f60448201527f6e7472616374000000000000000000000000000000000000000000000000000060648201526084016107ef565b600080846001600160a01b03168460405161378f91906149b6565b600060405180830381855af49150503d80600081146137ca576040519150601f19603f3d011682016040523d82523d6000602084013e6137cf565b606091505b50915091506137f782826040518060600160405280602781526020016149d36027913961380c565b95945050505050565b6067610a8d8282614224565b6060831561381b575081611cc4565b82511561382b5782518084602001fd5b8160405162461bcd60e51b81526004016107ef9190613a6f565b60408051610120810182526000815260606020820152908101613866613978565b8152602001613873613978565b8152602001606081526020016060815260200160608152602001600081526020016000151581525090565b828054828255906000526020600020908101928215613900579160200282015b82811115613900578251825473ffffffffffffffffffffffffffffffffffffffff19166001600160a01b039091161782556020909201916001909101906138be565b5061390c929150613996565b5090565b8260028101928215613900579160200282015b82811115613900578251825591602001919060010190613923565b8280548282559060005260206000209081019282156139005791602002820182811115613900578251825591602001919060010190613923565b60405180604001604052806002906020820280368337509192915050565b5b8082111561390c5760008155600101613997565b6001600160a01b0381168114610c0957600080fd5b600080604083850312156139d357600080fd5b82356139de816139ab565b946020939093013593505050565b6001600160e01b031981168114610c0957600080fd5b600060208284031215613a1457600080fd5b8135611cc4816139ec565b60005b83811015613a3a578181015183820152602001613a22565b50506000910152565b60008151808452613a5b816020860160208601613a1f565b601f01601f19169290920160200192915050565b602081526000611cc46020830184613a43565b600060208284031215613a9457600080fd5b5035919050565b634e487b7160e01b600052604160045260246000fd5b601f8201601f1916810167ffffffffffffffff81118282101715613ad757613ad7613a9b565b6040525050565b600067ffffffffffffffff821115613af857613af8613a9b565b50601f01601f191660200190565b6000613b1183613ade565b604051613b1e8282613ab1565b809250848152858585011115613b3357600080fd5b8484602083013760006020868301015250509392505050565b600060208284031215613b5e57600080fd5b813567ffffffffffffffff811115613b7557600080fd5b8201601f81018413613b8657600080fd5b613b9584823560208401613b06565b949350505050565b600067ffffffffffffffff821115613bb757613bb7613a9b565b5060051b60200190565b600082601f830112613bd257600080fd5b81356020613bdf82613b9d565b604051613bec8282613ab1565b83815260059390931b8501820192828101915086841115613c0c57600080fd5b8286015b84811015613c275780358352918301918301613c10565b509695505050505050565b600082601f830112613c4357600080fd5b611cc483833560208501613b06565b600080600080600060a08688031215613c6a57600080fd5b8535613c75816139ab565b94506020860135613c85816139ab565b9350604086013567ffffffffffffffff80821115613ca257600080fd5b613cae89838a01613bc1565b94506060880135915080821115613cc457600080fd5b613cd089838a01613bc1565b93506080880135915080821115613ce657600080fd5b50613cf388828901613c32565b9150509295509295909350565b60008060408385031215613d1357600080fd5b823591506020830135613d25816139ab565b809150509250929050565b600060208284031215613d4257600080fd5b8135611cc4816139ab565b60008060408385031215613d6057600080fd5b823567ffffffffffffffff80821115613d7857600080fd5b818501915085601f830112613d8c57600080fd5b81356020613d9982613b9d565b604051613da68282613ab1565b83815260059390931b8501820192828101915089841115613dc657600080fd5b948201945b83861015613ded578535613dde816139ab565b82529482019490820190613dcb565b96505086013592505080821115613e0357600080fd5b50613e1085828601613bc1565b9150509250929050565b600081518084526020808501945080840160005b83811015613e4a57815187529582019590820190600101613e2e565b509495945050505050565b602081526000611cc46020830184613e1a565b60008060408385031215613e7b57600080fd5b8235613e86816139ab565b9150602083013567ffffffffffffffff811115613ea257600080fd5b613e1085828601613c32565b600080600060608486031215613ec357600080fd5b8335613ece816139ab565b9250602084013567ffffffffffffffff80821115613eeb57600080fd5b613ef787838801613bc1565b93506040860135915080821115613f0d57600080fd5b50613f1a86828701613bc1565b9150509250925092565b600081518084526020808501945080840160005b83811015613e4a5781516001600160a01b031687529582019590820190600101613f38565b8060005b60028110156124de578151845260209384019390910190600101613f61565b602081528151602082015260006020830151610160806040850152613fa9610180850183613f24565b91506040850151613fbd6060860182613f5d565b506060850151613fd060a0860182613f5d565b506080850151601f19808685030160e0870152613fed8483613e1a565b935060a0870151915061010081878603018188015261400c8584613e1a565b945060c08801519250818786030161012088015261402a8584613e1a565b945060e0880151610140880152808801519250505061404c8286018215159052565b5090949350505050565b60008060006060848603121561406b57600080fd5b8335614076816139ab565b925060208401359150604084013567ffffffffffffffff81111561409957600080fd5b613f1a86828701613c32565b600080604083850312156140b857600080fd5b82356140c3816139ab565b915060208301358015158114613d2557600080fd5b600080604083850312156140eb57600080fd5b82356140f6816139ab565b91506020830135613d25816139ab565b600080600080600060a0868803121561411e57600080fd5b8535614129816139ab565b94506020860135614139816139ab565b93506040860135925060608601359150608086013567ffffffffffffffff81111561416357600080fd5b613cf388828901613c32565b60008060006060848603121561418457600080fd5b833561418f816139ab565b95602085013595506040909401359392505050565b600181811c908216806141b857607f821691505b6020821081036141d857634e487b7160e01b600052602260045260246000fd5b50919050565b601f821115610a0057600081815260208120601f850160051c810160208610156142055750805b601f850160051c820191505b81811015611f8957828155600101614211565b815167ffffffffffffffff81111561423e5761423e613a9b565b6142528161424c84546141a4565b846141de565b602080601f831160018114614287576000841561426f5750858301515b600019600386901b1c1916600185901b178555611f89565b600085815260208120601f198616915b828110156142b657888601518255948401946001909101908401614297565b50858210156142d45787850151600019600388901b60f8161c191681555b5050505050600190811b01905550565b828152604060208201526000613b956040830184613a43565b634e487b7160e01b600052603260045260246000fd5b634e487b7160e01b600052601160045260246000fd5b60006001820161433b5761433b614313565b5060010190565b600082601f83011261435357600080fd5b8151602061436082613b9d565b60405161436d8282613ab1565b83815260059390931b850182019282810191508684111561438d57600080fd5b8286015b84811015613c275780518352918301918301614391565b600082601f8301126143b957600080fd5b6040516040810181811067ffffffffffffffff821117156143dc576143dc613a9b565b80604052508060408401858111156143f357600080fd5b845b8181101561440d5780518352602092830192016143f5565b509195945050505050565b600082601f83011261442957600080fd5b8151602061443682613b9d565b6040516144438282613ab1565b83815260059390931b850182019282810191508684111561446357600080fd5b8286015b84811015613c2757805161447a816139ab565b8352918301918301614467565b600082601f83011261449857600080fd5b81516144a381613ade565b6040516144b08282613ab1565b8281528560208487010111156144c557600080fd5b6137f7836020830160208801613a1f565b6000806000806000806000610120888a0312156144f257600080fd5b875167ffffffffffffffff8082111561450a57600080fd5b6145168b838c01614342565b985060208a015191508082111561452c57600080fd5b6145388b838c01614342565b975060408a015191508082111561454e57600080fd5b61455a8b838c01614342565b96506145698b60608c016143a8565b95506145788b60a08c016143a8565b945060e08a015191508082111561458e57600080fd5b61459a8b838c01614418565b93506101008a01519150808211156145b157600080fd5b506145be8a828b01614487565b91505092959891949750929550565b6145d78187613f5d565b60e0604082015260006145ed60e0830187613e1a565b6145fa6060840187613f5d565b82810360a084015261460c8186613e1a565b9150508260c08301529695505050505050565b60006101808c83528b602084015280604084015261463f8184018c613f24565b905061464e606084018b613f5d565b61465b60a084018a613f5d565b82810360e084015261466d8189613e1a565b90508281036101008401526146828188613e1a565b90508281036101208401526146978187613e1a565b9050846101408401528281036101608401526146b38185613a43565b9d9c50505050505050505050505050565b8082018082111561081d5761081d614313565b60008084546146e5816141a4565b600182811680156146fd576001811461471257614741565b60ff1984168752821515830287019450614741565b8860005260208060002060005b858110156147385781548a82015290840190820161471f565b50505082870194505b505050508351614755818360208801613a1f565b01949350505050565b6040815260006147716040830185613e1a565b82810360208401526137f78185613e1a565b60006020828403121561479557600080fd5b5051919050565b60006001600160a01b03808816835280871660208401525060a060408301526147c860a0830186613e1a565b82810360608401526147da8186613e1a565b905082810360808401526147ee8185613a43565b98975050505050505050565b60006020828403121561480c57600080fd5b8151611cc4816139ec565b600060033d1115610f755760046000803e5060005160e01c90565b600060443d10156148405790565b6040516003193d81016004833e81513d67ffffffffffffffff816024840111818411171561487057505050505090565b82850191508151818111156148885750505050505090565b843d87010160208285010111156148a25750505050505090565b6148b160208286010187613ab1565b509095945050505050565b7f416363657373436f6e74726f6c3a206163636f756e74200000000000000000008152600083516148f4816017850160208801613a1f565b7f206973206d697373696e6720726f6c65200000000000000000000000000000006017918401918201528351614931816028840160208801613a1f565b01602801949350505050565b60006001600160a01b03808816835280871660208401525084604083015283606083015260a0608083015261497560a0830184613a43565b979650505050505050565b600081600019048311821515161561499a5761499a614313565b500290565b6000816149ae576149ae614313565b506000190190565b600082516149c8818460208701613a1f565b919091019291505056fe416464726573733a206c6f772d6c6576656c2064656c65676174652063616c6c206661696c6564a164736f6c6343000810000a",
  "devdoc": {
    "author": "bitbeckers, mr_bluesky",
    "kind": "dev",
    "methods": {
      "addImpactScope(string)": {
        "params": {
          "text": "text representing the impact scope"
        },
        "returns": {
          "id": "id of the impact scope"
        }
      },
      "addRight(string)": {
        "params": {
          "text": "text representing the right"
        },
        "returns": {
          "id": "id of the right"
        }
      },
      "addWorkScope(string)": {
        "params": {
          "text": "text representing the work scope"
        },
        "returns": {
          "id": "id of the work scope"
        }
      },
      "balanceOf(address,uint256)": {
        "details": "See {IERC1155-balanceOf}. Requirements: - `account` cannot be the zero address."
      },
      "balanceOfBatch(address[],uint256[])": {
        "details": "See {IERC1155-balanceOfBatch}. Requirements: - `accounts` and `ids` must have the same length."
      },
      "exists(uint256)": {
        "details": "Indicates whether any token exist with a given id, or not."
      },
      "getImpactCert(uint256)": {
        "params": {
          "claimID": "id of the claim"
        }
      },
      "getRoleAdmin(bytes32)": {
        "details": "Returns the admin role that controls `role`. See {grantRole} and {revokeRole}. To change a role's admin, use {_setRoleAdmin}."
      },
      "grantRole(bytes32,address)": {
        "details": "Grants `role` to `account`. If `account` had not been already granted `role`, emits a {RoleGranted} event. Requirements: - the caller must have ``role``'s admin role. May emit a {RoleGranted} event."
      },
      "hasRole(bytes32,address)": {
        "details": "Returns `true` if `account` has been granted `role`."
      },
      "isApprovedForAll(address,address)": {
        "details": "See {IERC1155-isApprovedForAll}."
      },
      "mint(address,uint256,bytes)": {
        "params": {
          "account": "account minting the new hypercert",
          "amount": "amount of the new token to mint",
          "data": "data representing the parameters of the new hypercert"
        }
      },
      "proxiableUUID()": {
        "details": "Implementation of the ERC1822 {proxiableUUID} function. This returns the storage slot used by the implementation. It is used to validate that the this implementation remains valid after an upgrade. IMPORTANT: A proxy pointing at a proxiable contract should not be considered proxiable itself, because this risks bricking a proxy that upgrades to it, by delegating to itself until out of gas. Thus it is critical that this function revert if invoked through a proxy. This is guaranteed by the `notDelegated` modifier."
      },
      "renounceRole(bytes32,address)": {
        "details": "Revokes `role` from the calling account. Roles are often managed via {grantRole} and {revokeRole}: this function's purpose is to provide a mechanism for accounts to lose their privileges if they are compromised (such as when a trusted device is misplaced). If the calling account had been revoked `role`, emits a {RoleRevoked} event. Requirements: - the caller must be `account`. May emit a {RoleRevoked} event."
      },
      "revokeRole(bytes32,address)": {
        "details": "Revokes `role` from `account`. If `account` had been granted `role`, emits a {RoleRevoked} event. Requirements: - the caller must have ``role``'s admin role. May emit a {RoleRevoked} event."
      },
      "safeBatchTransferFrom(address,address,uint256[],uint256[],bytes)": {
        "details": "See {IERC1155-safeBatchTransferFrom}."
      },
      "safeTransferFrom(address,address,uint256,uint256,bytes)": {
        "details": "See {IERC1155-safeTransferFrom}."
      },
      "setApprovalForAll(address,bool)": {
        "details": "See {IERC1155-setApprovalForAll}."
      },
      "supportsInterface(bytes4)": {
        "params": {
          "interfaceId": "id of the interface"
        }
      },
      "totalSupply(uint256)": {
        "details": "Total amount of tokens in with a given id."
      },
      "upgradeTo(address)": {
        "details": "Upgrade the implementation of the proxy to `newImplementation`. Calls {_authorizeUpgrade}. Emits an {Upgraded} event."
      },
      "upgradeToAndCall(address,bytes)": {
        "details": "Upgrade the implementation of the proxy to `newImplementation`, and subsequently execute the function call encoded in `data`. Calls {_authorizeUpgrade}. Emits an {Upgraded} event."
      },
      "uri(uint256)": {
        "params": {
          "tokenId": "id of the token"
        }
      }
    },
    "title": "Hypercert Minting logic",
    "version": 1
  },
  "userdoc": {
    "events": {
      "ImpactClaimed(uint256,bytes32,address[],uint256[2],uint256[2],bytes32[],bytes32[],bytes32[],uint256,string)": {
        "notice": "Emitted when an impact is claimed."
      },
      "ImpactScopeAdded(bytes32,string)": {
        "notice": "Emitted when a new impact scope is added."
      },
      "RightAdded(bytes32,string)": {
        "notice": "Emitted when a new right is added."
      },
      "WorkScopeAdded(bytes32,string)": {
        "notice": "Emitted when a new work scope is added."
      }
    },
    "kind": "user",
    "methods": {
      "addImpactScope(string)": {
        "notice": "adds a new impact scope"
      },
      "addRight(string)": {
        "notice": "adds a new right"
      },
      "addWorkScope(string)": {
        "notice": "adds a new work scope"
      },
      "getImpactCert(uint256)": {
        "notice": "gets the hypercert with the specified id"
      },
      "initialize()": {
        "notice": "Initializes the hypercert."
      },
      "mint(address,uint256,bytes)": {
        "notice": "mints a new hypercert"
      },
      "supportsInterface(bytes4)": {
        "notice": "returns a flag indicating if the contract supports the specified interface"
      },
      "uri(uint256)": {
        "notice": "gets the URI of the token with the specified id"
      },
      "version()": {
        "notice": "gets the current version of the contract"
      }
    },
    "notice": "Contains functions and events to initialize and issue a hypercert",
    "version": 1
  },
  "storageLayout": {
    "storage": [
      {
        "astId": 808,
        "contract": "contracts/HypercertMinterV1.sol:HypercertMinterV1",
        "label": "_initialized",
        "offset": 0,
        "slot": "0",
        "type": "t_uint8"
      },
      {
        "astId": 811,
        "contract": "contracts/HypercertMinterV1.sol:HypercertMinterV1",
        "label": "_initializing",
        "offset": 1,
        "slot": "0",
        "type": "t_bool"
      },
      {
        "astId": 3175,
        "contract": "contracts/HypercertMinterV1.sol:HypercertMinterV1",
        "label": "__gap",
        "offset": 0,
        "slot": "1",
        "type": "t_array(t_uint256)50_storage"
      },
      {
        "astId": 3505,
        "contract": "contracts/HypercertMinterV1.sol:HypercertMinterV1",
        "label": "__gap",
        "offset": 0,
        "slot": "51",
        "type": "t_array(t_uint256)50_storage"
      },
      {
        "astId": 1117,
        "contract": "contracts/HypercertMinterV1.sol:HypercertMinterV1",
        "label": "_balances",
        "offset": 0,
        "slot": "101",
        "type": "t_mapping(t_uint256,t_mapping(t_address,t_uint256))"
      },
      {
        "astId": 1123,
        "contract": "contracts/HypercertMinterV1.sol:HypercertMinterV1",
        "label": "_operatorApprovals",
        "offset": 0,
        "slot": "102",
        "type": "t_mapping(t_address,t_mapping(t_address,t_bool))"
      },
      {
        "astId": 1125,
        "contract": "contracts/HypercertMinterV1.sol:HypercertMinterV1",
        "label": "_uri",
        "offset": 0,
        "slot": "103",
        "type": "t_string_storage"
      },
      {
        "astId": 2332,
        "contract": "contracts/HypercertMinterV1.sol:HypercertMinterV1",
        "label": "__gap",
        "offset": 0,
        "slot": "104",
        "type": "t_array(t_uint256)47_storage"
      },
      {
        "astId": 39,
        "contract": "contracts/HypercertMinterV1.sol:HypercertMinterV1",
        "label": "_roles",
        "offset": 0,
        "slot": "151",
        "type": "t_mapping(t_bytes32,t_struct(RoleData)34_storage)"
      },
      {
        "astId": 338,
        "contract": "contracts/HypercertMinterV1.sol:HypercertMinterV1",
        "label": "__gap",
        "offset": 0,
        "slot": "152",
        "type": "t_array(t_uint256)49_storage"
      },
      {
        "astId": 2584,
        "contract": "contracts/HypercertMinterV1.sol:HypercertMinterV1",
        "label": "__gap",
        "offset": 0,
        "slot": "201",
        "type": "t_array(t_uint256)50_storage"
      },
      {
        "astId": 2610,
        "contract": "contracts/HypercertMinterV1.sol:HypercertMinterV1",
        "label": "_totalSupply",
        "offset": 0,
        "slot": "251",
        "type": "t_mapping(t_uint256,t_uint256)"
      },
      {
        "astId": 2761,
        "contract": "contracts/HypercertMinterV1.sol:HypercertMinterV1",
        "label": "__gap",
        "offset": 0,
        "slot": "252",
        "type": "t_array(t_uint256)49_storage"
      },
      {
        "astId": 2796,
        "contract": "contracts/HypercertMinterV1.sol:HypercertMinterV1",
        "label": "_baseURI",
        "offset": 0,
        "slot": "301",
        "type": "t_string_storage"
      },
      {
        "astId": 2800,
        "contract": "contracts/HypercertMinterV1.sol:HypercertMinterV1",
        "label": "_tokenURIs",
        "offset": 0,
        "slot": "302",
        "type": "t_mapping(t_uint256,t_string_storage)"
      },
      {
        "astId": 2875,
        "contract": "contracts/HypercertMinterV1.sol:HypercertMinterV1",
        "label": "__gap",
        "offset": 0,
        "slot": "303",
        "type": "t_array(t_uint256)48_storage"
      },
      {
        "astId": 790,
        "contract": "contracts/HypercertMinterV1.sol:HypercertMinterV1",
        "label": "__gap",
        "offset": 0,
        "slot": "351",
        "type": "t_array(t_uint256)50_storage"
      },
      {
        "astId": 1087,
        "contract": "contracts/HypercertMinterV1.sol:HypercertMinterV1",
        "label": "__gap",
        "offset": 0,
        "slot": "401",
        "type": "t_array(t_uint256)50_storage"
      },
      {
        "astId": 3545,
        "contract": "contracts/HypercertMinterV1.sol:HypercertMinterV1",
        "label": "_version",
        "offset": 0,
        "slot": "451",
        "type": "t_uint16"
      },
      {
        "astId": 3552,
        "contract": "contracts/HypercertMinterV1.sol:HypercertMinterV1",
        "label": "counter",
        "offset": 0,
        "slot": "452",
        "type": "t_uint256"
      },
      {
        "astId": 3556,
        "contract": "contracts/HypercertMinterV1.sol:HypercertMinterV1",
        "label": "workScopes",
        "offset": 0,
        "slot": "453",
        "type": "t_mapping(t_bytes32,t_string_storage)"
      },
      {
        "astId": 3560,
        "contract": "contracts/HypercertMinterV1.sol:HypercertMinterV1",
        "label": "impactScopes",
        "offset": 0,
        "slot": "454",
        "type": "t_mapping(t_bytes32,t_string_storage)"
      },
      {
        "astId": 3564,
        "contract": "contracts/HypercertMinterV1.sol:HypercertMinterV1",
        "label": "rights",
        "offset": 0,
        "slot": "455",
        "type": "t_mapping(t_bytes32,t_string_storage)"
      },
      {
        "astId": 3570,
        "contract": "contracts/HypercertMinterV1.sol:HypercertMinterV1",
        "label": "contributorImpacts",
        "offset": 0,
        "slot": "456",
        "type": "t_mapping(t_address,t_mapping(t_bytes32,t_bool))"
      },
      {
        "astId": 3575,
        "contract": "contracts/HypercertMinterV1.sol:HypercertMinterV1",
        "label": "impactCerts",
        "offset": 0,
        "slot": "457",
        "type": "t_mapping(t_uint256,t_struct(Claim)3602_storage)"
      }
    ],
    "types": {
      "t_address": {
        "encoding": "inplace",
        "label": "address",
        "numberOfBytes": "20"
      },
      "t_array(t_address)dyn_storage": {
        "base": "t_address",
        "encoding": "dynamic_array",
        "label": "address[]",
        "numberOfBytes": "32"
      },
      "t_array(t_bytes32)dyn_storage": {
        "base": "t_bytes32",
        "encoding": "dynamic_array",
        "label": "bytes32[]",
        "numberOfBytes": "32"
      },
      "t_array(t_uint256)2_storage": {
        "base": "t_uint256",
        "encoding": "inplace",
        "label": "uint256[2]",
        "numberOfBytes": "64"
      },
      "t_array(t_uint256)47_storage": {
        "base": "t_uint256",
        "encoding": "inplace",
        "label": "uint256[47]",
        "numberOfBytes": "1504"
      },
      "t_array(t_uint256)48_storage": {
        "base": "t_uint256",
        "encoding": "inplace",
        "label": "uint256[48]",
        "numberOfBytes": "1536"
      },
      "t_array(t_uint256)49_storage": {
        "base": "t_uint256",
        "encoding": "inplace",
        "label": "uint256[49]",
        "numberOfBytes": "1568"
      },
      "t_array(t_uint256)50_storage": {
        "base": "t_uint256",
        "encoding": "inplace",
        "label": "uint256[50]",
        "numberOfBytes": "1600"
      },
      "t_bool": {
        "encoding": "inplace",
        "label": "bool",
        "numberOfBytes": "1"
      },
      "t_bytes32": {
        "encoding": "inplace",
        "label": "bytes32",
        "numberOfBytes": "32"
      },
      "t_mapping(t_address,t_bool)": {
        "encoding": "mapping",
        "key": "t_address",
        "label": "mapping(address => bool)",
        "numberOfBytes": "32",
        "value": "t_bool"
      },
      "t_mapping(t_address,t_mapping(t_address,t_bool))": {
        "encoding": "mapping",
        "key": "t_address",
        "label": "mapping(address => mapping(address => bool))",
        "numberOfBytes": "32",
        "value": "t_mapping(t_address,t_bool)"
      },
      "t_mapping(t_address,t_mapping(t_bytes32,t_bool))": {
        "encoding": "mapping",
        "key": "t_address",
        "label": "mapping(address => mapping(bytes32 => bool))",
        "numberOfBytes": "32",
        "value": "t_mapping(t_bytes32,t_bool)"
      },
      "t_mapping(t_address,t_uint256)": {
        "encoding": "mapping",
        "key": "t_address",
        "label": "mapping(address => uint256)",
        "numberOfBytes": "32",
        "value": "t_uint256"
      },
      "t_mapping(t_bytes32,t_bool)": {
        "encoding": "mapping",
        "key": "t_bytes32",
        "label": "mapping(bytes32 => bool)",
        "numberOfBytes": "32",
        "value": "t_bool"
      },
      "t_mapping(t_bytes32,t_string_storage)": {
        "encoding": "mapping",
        "key": "t_bytes32",
        "label": "mapping(bytes32 => string)",
        "numberOfBytes": "32",
        "value": "t_string_storage"
      },
      "t_mapping(t_bytes32,t_struct(RoleData)34_storage)": {
        "encoding": "mapping",
        "key": "t_bytes32",
        "label": "mapping(bytes32 => struct AccessControlUpgradeable.RoleData)",
        "numberOfBytes": "32",
        "value": "t_struct(RoleData)34_storage"
      },
      "t_mapping(t_uint256,t_mapping(t_address,t_uint256))": {
        "encoding": "mapping",
        "key": "t_uint256",
        "label": "mapping(uint256 => mapping(address => uint256))",
        "numberOfBytes": "32",
        "value": "t_mapping(t_address,t_uint256)"
      },
      "t_mapping(t_uint256,t_string_storage)": {
        "encoding": "mapping",
        "key": "t_uint256",
        "label": "mapping(uint256 => string)",
        "numberOfBytes": "32",
        "value": "t_string_storage"
      },
      "t_mapping(t_uint256,t_struct(Claim)3602_storage)": {
        "encoding": "mapping",
        "key": "t_uint256",
        "label": "mapping(uint256 => struct HypercertMinterV0.Claim)",
        "numberOfBytes": "32",
        "value": "t_struct(Claim)3602_storage"
      },
      "t_mapping(t_uint256,t_uint256)": {
        "encoding": "mapping",
        "key": "t_uint256",
        "label": "mapping(uint256 => uint256)",
        "numberOfBytes": "32",
        "value": "t_uint256"
      },
      "t_string_storage": {
        "encoding": "bytes",
        "label": "string",
        "numberOfBytes": "32"
      },
      "t_struct(Claim)3602_storage": {
        "encoding": "inplace",
        "label": "struct HypercertMinterV0.Claim",
        "members": [
          {
            "astId": 3577,
            "contract": "contracts/HypercertMinterV1.sol:HypercertMinterV1",
            "label": "claimHash",
            "offset": 0,
            "slot": "0",
            "type": "t_bytes32"
          },
          {
            "astId": 3580,
            "contract": "contracts/HypercertMinterV1.sol:HypercertMinterV1",
            "label": "contributors",
            "offset": 0,
            "slot": "1",
            "type": "t_array(t_address)dyn_storage"
          },
          {
            "astId": 3584,
            "contract": "contracts/HypercertMinterV1.sol:HypercertMinterV1",
            "label": "workTimeframe",
            "offset": 0,
            "slot": "2",
            "type": "t_array(t_uint256)2_storage"
          },
          {
            "astId": 3588,
            "contract": "contracts/HypercertMinterV1.sol:HypercertMinterV1",
            "label": "impactTimeframe",
            "offset": 0,
            "slot": "4",
            "type": "t_array(t_uint256)2_storage"
          },
          {
            "astId": 3591,
            "contract": "contracts/HypercertMinterV1.sol:HypercertMinterV1",
            "label": "workScopes",
            "offset": 0,
            "slot": "6",
            "type": "t_array(t_bytes32)dyn_storage"
          },
          {
            "astId": 3594,
            "contract": "contracts/HypercertMinterV1.sol:HypercertMinterV1",
            "label": "impactScopes",
            "offset": 0,
            "slot": "7",
            "type": "t_array(t_bytes32)dyn_storage"
          },
          {
            "astId": 3597,
            "contract": "contracts/HypercertMinterV1.sol:HypercertMinterV1",
            "label": "rights",
            "offset": 0,
            "slot": "8",
            "type": "t_array(t_bytes32)dyn_storage"
          },
          {
            "astId": 3599,
            "contract": "contracts/HypercertMinterV1.sol:HypercertMinterV1",
            "label": "version",
            "offset": 0,
            "slot": "9",
            "type": "t_uint256"
          },
          {
            "astId": 3601,
            "contract": "contracts/HypercertMinterV1.sol:HypercertMinterV1",
            "label": "exists",
            "offset": 0,
            "slot": "10",
            "type": "t_bool"
          }
        ],
        "numberOfBytes": "352"
      },
      "t_struct(RoleData)34_storage": {
        "encoding": "inplace",
        "label": "struct AccessControlUpgradeable.RoleData",
        "members": [
          {
            "astId": 31,
            "contract": "contracts/HypercertMinterV1.sol:HypercertMinterV1",
            "label": "members",
            "offset": 0,
            "slot": "0",
            "type": "t_mapping(t_address,t_bool)"
          },
          {
            "astId": 33,
            "contract": "contracts/HypercertMinterV1.sol:HypercertMinterV1",
            "label": "adminRole",
            "offset": 0,
            "slot": "1",
            "type": "t_bytes32"
          }
        ],
        "numberOfBytes": "64"
      },
      "t_uint16": {
        "encoding": "inplace",
        "label": "uint16",
        "numberOfBytes": "2"
      },
      "t_uint256": {
        "encoding": "inplace",
        "label": "uint256",
        "numberOfBytes": "32"
      },
      "t_uint8": {
        "encoding": "inplace",
        "label": "uint8",
        "numberOfBytes": "1"
      }
    }
  }
}