{
  "address": "0x1A03ebb982BD78Ab32d7a8059baF5A700BBa7560",
  "abi": [
    {
      "inputs": [],
      "stateMutability": "nonpayable",
      "type": "constructor"
    },
    {
      "anonymous": false,
      "inputs": [
        {
          "indexed": false,
          "internalType": "address",
          "name": "previousAdmin",
          "type": "address"
        },
        {
          "indexed": false,
          "internalType": "address",
          "name": "newAdmin",
          "type": "address"
        }
      ],
      "name": "AdminChanged",
      "type": "event"
    },
    {
      "anonymous": false,
      "inputs": [
        {
          "indexed": false,
          "internalType": "uint256",
          "name": "id",
          "type": "uint256"
        }
      ],
      "name": "BackgroundAdded",
      "type": "event"
    },
    {
      "anonymous": false,
      "inputs": [
        {
          "indexed": true,
          "internalType": "address",
          "name": "beacon",
          "type": "address"
        }
      ],
      "name": "BeaconUpgraded",
      "type": "event"
    },
    {
      "anonymous": false,
      "inputs": [
        {
          "indexed": false,
          "internalType": "uint256",
          "name": "id",
          "type": "uint256"
        },
        {
          "components": [
            {
              "internalType": "string",
              "name": "primary",
              "type": "string"
            },
            {
              "internalType": "string",
              "name": "labels",
              "type": "string"
            },
            {
              "internalType": "string",
              "name": "background",
              "type": "string"
            }
          ],
          "indexed": false,
          "internalType": "struct HyperCertSVG.SVGColors",
          "name": "colors",
          "type": "tuple"
        }
      ],
      "name": "ColorsAdded",
      "type": "event"
    },
    {
      "anonymous": false,
      "inputs": [
        {
          "indexed": false,
          "internalType": "uint8",
          "name": "version",
          "type": "uint8"
        }
      ],
      "name": "Initialized",
      "type": "event"
    },
    {
      "anonymous": false,
      "inputs": [
        {
          "indexed": true,
          "internalType": "bytes32",
          "name": "role",
          "type": "bytes32"
        },
        {
          "indexed": true,
          "internalType": "bytes32",
          "name": "previousAdminRole",
          "type": "bytes32"
        },
        {
          "indexed": true,
          "internalType": "bytes32",
          "name": "newAdminRole",
          "type": "bytes32"
        }
      ],
      "name": "RoleAdminChanged",
      "type": "event"
    },
    {
      "anonymous": false,
      "inputs": [
        {
          "indexed": true,
          "internalType": "bytes32",
          "name": "role",
          "type": "bytes32"
        },
        {
          "indexed": true,
          "internalType": "address",
          "name": "account",
          "type": "address"
        },
        {
          "indexed": true,
          "internalType": "address",
          "name": "sender",
          "type": "address"
        }
      ],
      "name": "RoleGranted",
      "type": "event"
    },
    {
      "anonymous": false,
      "inputs": [
        {
          "indexed": true,
          "internalType": "bytes32",
          "name": "role",
          "type": "bytes32"
        },
        {
          "indexed": true,
          "internalType": "address",
          "name": "account",
          "type": "address"
        },
        {
          "indexed": true,
          "internalType": "address",
          "name": "sender",
          "type": "address"
        }
      ],
      "name": "RoleRevoked",
      "type": "event"
    },
    {
      "anonymous": false,
      "inputs": [
        {
          "indexed": true,
          "internalType": "address",
          "name": "implementation",
          "type": "address"
        }
      ],
      "name": "Upgraded",
      "type": "event"
    },
    {
      "inputs": [],
      "name": "DEFAULT_ADMIN_ROLE",
      "outputs": [
        {
          "internalType": "bytes32",
          "name": "",
          "type": "bytes32"
        }
      ],
      "stateMutability": "view",
      "type": "function"
    },
    {
      "inputs": [],
      "name": "UPGRADER_ROLE",
      "outputs": [
        {
          "internalType": "bytes32",
          "name": "",
          "type": "bytes32"
        }
      ],
      "stateMutability": "view",
      "type": "function"
    },
    {
      "inputs": [
        {
          "internalType": "string",
          "name": "svgString",
          "type": "string"
        }
      ],
      "name": "addBackground",
      "outputs": [
        {
          "internalType": "uint256",
          "name": "id",
          "type": "uint256"
        }
      ],
      "stateMutability": "nonpayable",
      "type": "function"
    },
    {
      "inputs": [
        {
          "internalType": "string[3]",
          "name": "_colors",
          "type": "string[3]"
        }
      ],
      "name": "addColors",
      "outputs": [
        {
          "internalType": "uint256",
          "name": "id",
          "type": "uint256"
        }
      ],
      "stateMutability": "nonpayable",
      "type": "function"
    },
    {
      "inputs": [],
      "name": "backgroundCounter",
      "outputs": [
        {
          "internalType": "uint256",
          "name": "",
          "type": "uint256"
        }
      ],
      "stateMutability": "view",
      "type": "function"
    },
    {
      "inputs": [
        {
          "internalType": "uint256",
          "name": "",
          "type": "uint256"
        }
      ],
      "name": "backgrounds",
      "outputs": [
        {
          "internalType": "string",
          "name": "",
          "type": "string"
        }
      ],
      "stateMutability": "view",
      "type": "function"
    },
    {
      "inputs": [
        {
          "internalType": "uint256",
          "name": "",
          "type": "uint256"
        }
      ],
      "name": "colors",
      "outputs": [
        {
          "internalType": "string",
          "name": "primary",
          "type": "string"
        },
        {
          "internalType": "string",
          "name": "labels",
          "type": "string"
        },
        {
          "internalType": "string",
          "name": "background",
          "type": "string"
        }
      ],
      "stateMutability": "view",
      "type": "function"
    },
    {
      "inputs": [],
      "name": "colorsCounter",
      "outputs": [
        {
          "internalType": "uint256",
          "name": "",
          "type": "uint256"
        }
      ],
      "stateMutability": "view",
      "type": "function"
    },
    {
      "inputs": [
        {
          "internalType": "string",
          "name": "name",
          "type": "string"
        },
        {
          "internalType": "string[]",
          "name": "scopesOfImpact",
          "type": "string[]"
        },
        {
          "internalType": "uint64[2]",
          "name": "workTimeframe",
          "type": "uint64[2]"
        },
        {
          "internalType": "uint64[2]",
          "name": "impactTimeframe",
          "type": "uint64[2]"
        },
        {
          "internalType": "uint256",
          "name": "units",
          "type": "uint256"
        },
        {
          "internalType": "uint256",
          "name": "totalUnits",
          "type": "uint256"
        }
      ],
      "name": "generateSvgFraction",
      "outputs": [
        {
          "internalType": "string",
          "name": "",
          "type": "string"
        }
      ],
      "stateMutability": "view",
      "type": "function"
    },
    {
      "inputs": [
        {
          "internalType": "string",
          "name": "name",
          "type": "string"
        },
        {
          "internalType": "string[]",
          "name": "scopesOfImpact",
          "type": "string[]"
        },
        {
          "internalType": "uint64[2]",
          "name": "workTimeframe",
          "type": "uint64[2]"
        },
        {
          "internalType": "uint64[2]",
          "name": "impactTimeframe",
          "type": "uint64[2]"
        },
        {
          "internalType": "uint256",
          "name": "totalUnits",
          "type": "uint256"
        }
      ],
      "name": "generateSvgHyperCert",
      "outputs": [
        {
          "internalType": "string",
          "name": "",
          "type": "string"
        }
      ],
      "stateMutability": "view",
      "type": "function"
    },
    {
      "inputs": [
        {
          "internalType": "uint256",
          "name": "part",
          "type": "uint256"
        },
        {
          "internalType": "uint256",
          "name": "whole",
          "type": "uint256"
        }
      ],
      "name": "getPercent",
      "outputs": [
        {
          "internalType": "uint256",
          "name": "percent",
          "type": "uint256"
        }
      ],
      "stateMutability": "pure",
      "type": "function"
    },
    {
      "inputs": [
        {
          "internalType": "bytes32",
          "name": "role",
          "type": "bytes32"
        }
      ],
      "name": "getRoleAdmin",
      "outputs": [
        {
          "internalType": "bytes32",
          "name": "",
          "type": "bytes32"
        }
      ],
      "stateMutability": "view",
      "type": "function"
    },
    {
      "inputs": [
        {
          "internalType": "bytes32",
          "name": "role",
          "type": "bytes32"
        },
        {
          "internalType": "address",
          "name": "account",
          "type": "address"
        }
      ],
      "name": "grantRole",
      "outputs": [],
      "stateMutability": "nonpayable",
      "type": "function"
    },
    {
      "inputs": [
        {
          "internalType": "bytes32",
          "name": "role",
          "type": "bytes32"
        },
        {
          "internalType": "address",
          "name": "account",
          "type": "address"
        }
      ],
      "name": "hasRole",
      "outputs": [
        {
          "internalType": "bool",
          "name": "",
          "type": "bool"
        }
      ],
      "stateMutability": "view",
      "type": "function"
    },
    {
      "inputs": [],
      "name": "initialize",
      "outputs": [],
      "stateMutability": "nonpayable",
      "type": "function"
    },
    {
      "inputs": [],
      "name": "proxiableUUID",
      "outputs": [
        {
          "internalType": "bytes32",
          "name": "",
          "type": "bytes32"
        }
      ],
      "stateMutability": "view",
      "type": "function"
    },
    {
      "inputs": [
        {
          "internalType": "bytes32",
          "name": "role",
          "type": "bytes32"
        },
        {
          "internalType": "address",
          "name": "account",
          "type": "address"
        }
      ],
      "name": "renounceRole",
      "outputs": [],
      "stateMutability": "nonpayable",
      "type": "function"
    },
    {
      "inputs": [
        {
          "internalType": "bytes32",
          "name": "role",
          "type": "bytes32"
        },
        {
          "internalType": "address",
          "name": "account",
          "type": "address"
        }
      ],
      "name": "revokeRole",
      "outputs": [],
      "stateMutability": "nonpayable",
      "type": "function"
    },
    {
      "inputs": [
        {
          "internalType": "bytes4",
          "name": "interfaceId",
          "type": "bytes4"
        }
      ],
      "name": "supportsInterface",
      "outputs": [
        {
          "internalType": "bool",
          "name": "",
          "type": "bool"
        }
      ],
      "stateMutability": "view",
      "type": "function"
    },
    {
      "inputs": [
        {
          "internalType": "address",
          "name": "newImplementation",
          "type": "address"
        }
      ],
      "name": "upgradeTo",
      "outputs": [],
      "stateMutability": "nonpayable",
      "type": "function"
    },
    {
      "inputs": [
        {
          "internalType": "address",
          "name": "newImplementation",
          "type": "address"
        },
        {
          "internalType": "bytes",
          "name": "data",
          "type": "bytes"
        }
      ],
      "name": "upgradeToAndCall",
      "outputs": [],
      "stateMutability": "payable",
      "type": "function"
    }
  ],
  "numDeployments": 6,
  "solcInputHash": "e162cb740af530e8d848e02375987c67",
  "bytecode": "0x60a0604052306080523480156200001557600080fd5b506200002062000026565b620000e8565b600054610100900460ff1615620000935760405162461bcd60e51b815260206004820152602760248201527f496e697469616c697a61626c653a20636f6e747261637420697320696e697469604482015266616c697a696e6760c81b606482015260840160405180910390fd5b60005460ff9081161015620000e6576000805460ff191660ff9081179091556040519081527f7f26b83ff96e1f2b6a682f133852f6798a09c465da95921460cefb38474024989060200160405180910390a15b565b60805161493e62000120600039600081816105540152818161059401528181610633015281816106730152610702015261493e6000f3fe60806040526004361061012a5760003560e01c806362219866116100ab57806391d148541161006f57806391d148541461031a57806394a2eeb81461033a578063a217fddf1461035a578063bd11f69d1461036f578063d547741f1461039e578063f72c0d8b146103be57600080fd5b8063622198661461028f5780637c77f1c8146102af5780638129fc1c146102cf57806381bb2158146102e45780638ac1da72146102fa57600080fd5b80633659cfe6116100f25780633659cfe6146102115780633d5b23e3146102315780634f1ef2861461024757806352d1902d1461025a5780635e70664c1461026f57600080fd5b806301ffc9a71461012f57806304bde4dd14610164578063248a9ca3146101915780632f2ff15d146101cf57806336568abe146101f1575b600080fd5b34801561013b57600080fd5b5061014f61014a36600461315b565b6103f2565b60405190151581526020015b60405180910390f35b34801561017057600080fd5b5061018461017f366004613185565b610403565b60405161015b91906131ee565b34801561019d57600080fd5b506101c16101ac366004613185565b60009081526065602052604090206001015490565b60405190815260200161015b565b3480156101db57600080fd5b506101ef6101ea366004613218565b61049d565b005b3480156101fd57600080fd5b506101ef61020c366004613218565b6104c7565b34801561021d57600080fd5b506101ef61022c366004613244565b61054a565b34801561023d57600080fd5b506101c160fe5481565b6101ef610255366004613324565b610629565b34801561026657600080fd5b506101c16106f5565b34801561027b57600080fd5b506101c161028a3660046133a5565b6107a8565b34801561029b57600080fd5b506101c16102aa3660046133d9565b610815565b3480156102bb57600080fd5b506101c16102ca3660046133fb565b61088e565b3480156102db57600080fd5b506101ef610956565b3480156102f057600080fd5b506101c160ff5481565b34801561030657600080fd5b506101846103153660046135a6565b610aad565b34801561032657600080fd5b5061014f610335366004613218565b610af2565b34801561034657600080fd5b5061018461035536600461363f565b610b1d565b34801561036657600080fd5b506101c1600081565b34801561037b57600080fd5b5061038f61038a366004613185565b610b5a565b60405161015b939291906136cd565b3480156103aa57600080fd5b506101ef6103b9366004613218565b610d14565b3480156103ca57600080fd5b506101c17f189ab7a9244df0848122154315af71fe140f3db0fe014031783b0946b8c9d2e381565b60006103fd82610d39565b92915050565b60fc602052600090815260409020805461041c90613710565b80601f016020809104026020016040519081016040528092919081815260200182805461044890613710565b80156104955780601f1061046a57610100808354040283529160200191610495565b820191906000526020600020905b81548152906001019060200180831161047857829003601f168201915b505050505081565b6000828152606560205260409020600101546104b881610d6e565b6104c28383610d78565b505050565b6001600160a01b038116331461053c5760405162461bcd60e51b815260206004820152602f60248201527f416363657373436f6e74726f6c3a2063616e206f6e6c792072656e6f756e636560448201526e103937b632b9903337b91039b2b63360891b60648201526084015b60405180910390fd5b6105468282610dfe565b5050565b6001600160a01b037f00000000000000000000000000000000000000000000000000000000000000001630036105925760405162461bcd60e51b81526004016105339061374a565b7f00000000000000000000000000000000000000000000000000000000000000006001600160a01b03166105db6000805160206148eb833981519152546001600160a01b031690565b6001600160a01b0316146106015760405162461bcd60e51b815260040161053390613796565b61060a81610e65565b6040805160008082526020820190925261062691839190610e8f565b50565b6001600160a01b037f00000000000000000000000000000000000000000000000000000000000000001630036106715760405162461bcd60e51b81526004016105339061374a565b7f00000000000000000000000000000000000000000000000000000000000000006001600160a01b03166106ba6000805160206148eb833981519152546001600160a01b031690565b6001600160a01b0316146106e05760405162461bcd60e51b815260040161053390613796565b6106e982610e65565b61054682826001610e8f565b6000306001600160a01b037f000000000000000000000000000000000000000000000000000000000000000016146107955760405162461bcd60e51b815260206004820152603860248201527f555550535570677261646561626c653a206d757374206e6f742062652063616c60448201527f6c6564207468726f7567682064656c656761746563616c6c00000000000000006064820152608401610533565b506000805160206148eb83398151915290565b60fe54600081815260fc602052604090206107c38382613830565b506040518181527fabb811cda210349363acfb5609934d3717818d26783decefcd058c05030652f09060200160405180910390a1600160fe600082825461080a9190613905565b909155509092915050565b60008061082584620186a0613918565b90508381116108615760405162461bcd60e51b81526020600482015260086024820152674f766572666c6f7760c01b6044820152606401610533565b600061086d8483613945565b610878906005613905565b9050610885600a82613945565b95945050505050565b60ff546040805160608101825283518152602080850151818301528483015182840152600084815260fd90915291909120815182919081906108d09082613830565b50602082015160018201906108e59082613830565b50604082015160028201906108fa9082613830565b509050507f69986a664f3bef2d9bf80814131229e954b45295a8cb027d93f09b6009c57da9828260405161092f92919061396f565b60405180910390a1600160ff600082825461094a9190613905565b90915550919392505050565b600054610100900460ff16158080156109765750600054600160ff909116105b806109905750303b158015610990575060005460ff166001145b6109f35760405162461bcd60e51b815260206004820152602e60248201527f496e697469616c697a61626c653a20636f6e747261637420697320616c72656160448201526d191e481a5b9a5d1a585b1a5e995960921b6064820152608401610533565b6000805460ff191660011790558015610a16576000805461ff0019166101001790555b610a1e610ffa565b610a26610ffa565b610a31600033610d78565b610a5b7f189ab7a9244df0848122154315af71fe140f3db0fe014031783b0946b8c9d2e333610d78565b600060fe81905560ff558015610626576000805461ff0019169055604051600181527f7f26b83ff96e1f2b6a682f133852f6798a09c465da95921460cefb38474024989060200160405180910390a150565b6060610ab76130fb565b8781526020810187905260408101869052606081018590526080810184905260a08101839052610ae681611067565b98975050505050505050565b60009182526065602090815260408084206001600160a01b0393909316845291905290205460ff1690565b6060610b276130fb565b86815260208101869052604081018590526060810184905260a08101839052610b4f81611119565b979650505050505050565b60fd60205260009081526040902080548190610b7590613710565b80601f0160208091040260200160405190810160405280929190818152602001828054610ba190613710565b8015610bee5780601f10610bc357610100808354040283529160200191610bee565b820191906000526020600020905b815481529060010190602001808311610bd157829003601f168201915b505050505090806001018054610c0390613710565b80601f0160208091040260200160405190810160405280929190818152602001828054610c2f90613710565b8015610c7c5780601f10610c5157610100808354040283529160200191610c7c565b820191906000526020600020905b815481529060010190602001808311610c5f57829003601f168201915b505050505090806002018054610c9190613710565b80601f0160208091040260200160405190810160405280929190818152602001828054610cbd90613710565b8015610d0a5780601f10610cdf57610100808354040283529160200191610d0a565b820191906000526020600020905b815481529060010190602001808311610ced57829003601f168201915b5050505050905083565b600082815260656020526040902060010154610d2f81610d6e565b6104c28383610dfe565b60006001600160e01b03198216637965db0b60e01b14806103fd57506301ffc9a760e01b6001600160e01b03198316146103fd565b6106268133611183565b610d828282610af2565b6105465760008281526065602090815260408083206001600160a01b03851684529091529020805460ff19166001179055610dba3390565b6001600160a01b0316816001600160a01b0316837f2f8788117e7eff1d82e926ec794901d17c78024a50270940304540a733656f0d60405160405180910390a45050565b610e088282610af2565b156105465760008281526065602090815260408083206001600160a01b0385168085529252808320805460ff1916905551339285917ff6391f5c32d9c69d2a47ea670b442974b53935d1edc7fd64eb21e047a839171b9190a45050565b7f189ab7a9244df0848122154315af71fe140f3db0fe014031783b0946b8c9d2e361054681610d6e565b7f4910fdfa16fed3260ed0e7147f7cc6da11a60208b5b9406d12a635614ffd91435460ff1615610ec2576104c2836111e7565b826001600160a01b03166352d1902d6040518163ffffffff1660e01b8152600401602060405180830381865afa925050508015610f1c575060408051601f3d908101601f19168201909252610f19918101906139cd565b60015b610f7f5760405162461bcd60e51b815260206004820152602e60248201527f45524331393637557067726164653a206e657720696d706c656d656e7461746960448201526d6f6e206973206e6f74205555505360901b6064820152608401610533565b6000805160206148eb8339815191528114610fee5760405162461bcd60e51b815260206004820152602960248201527f45524331393637557067726164653a20756e737570706f727465642070726f786044820152681a58589b195555525160ba1b6064820152608401610533565b506104c2838383611283565b600054610100900460ff166110655760405162461bcd60e51b815260206004820152602b60248201527f496e697469616c697a61626c653a20636f6e7472616374206973206e6f74206960448201526a6e697469616c697a696e6760a81b6064820152608401610533565b565b60606000611092836020015160008151811061108557611085613959565b60200260200101516112ae565b90506110bc83602001516000815181106110ae576110ae613959565b602002602001015182611728565b6110c684836118e0565b6110d08584611938565b6110d984612080565b6110e387866120cc565b6110ed88876121f2565b60405160200161110296959493929190613a02565b604051602081830303815290604052915050919050565b60606000611137836020015160008151811061108557611085613959565b905061115383602001516000815181106110ae576110ae613959565b61115d84836118e0565b6111678584611938565b61117084612080565b61117a87866120cc565b6110ed86612267565b61118d8282610af2565b610546576111a5816001600160a01b031660146122d4565b6111b08360206122d4565b6040516020016111c1929190613b3c565b60408051601f198184030181529082905262461bcd60e51b8252610533916004016131ee565b6001600160a01b0381163b6112545760405162461bcd60e51b815260206004820152602d60248201527f455243313936373a206e657720696d706c656d656e746174696f6e206973206e60448201526c1bdd08184818dbdb9d1c9858dd609a1b6064820152608401610533565b6000805160206148eb83398151915280546001600160a01b0319166001600160a01b0392909216919091179055565b61128c83612476565b6000825111806112995750805b156104c2576112a883836124b6565b50505050565b6112d260405180606001604052806060815260200160608152602001606081525090565b60ff5460000361134b5750506040805160a0810182526007606082018181526611a3199a9a9b2360c91b6080840152825282518084018452818152662331323139333360c81b60208281019190915280840191909152835180850185529182526611a21a2123232360c91b908201529181019190915290565b60fd6000611358846125a1565b815260200190815260200160002060405180606001604052908160008201805461138190613710565b80601f01602080910402602001604051908101604052809291908181526020018280546113ad90613710565b80156113fa5780601f106113cf576101008083540402835291602001916113fa565b820191906000526020600020905b8154815290600101906020018083116113dd57829003601f168201915b5050505050815260200160018201805461141390613710565b80601f016020809104026020016040519081016040528092919081815260200182805461143f90613710565b801561148c5780601f106114615761010080835404028352916020019161148c565b820191906000526020600020905b81548152906001019060200180831161146f57829003601f168201915b505050505081526020016002820180546114a590613710565b80601f01602080910402602001604051908101604052809291908181526020018280546114d190613710565b801561151e5780601f106114f35761010080835404028352916020019161151e565b820191906000526020600020905b81548152906001019060200180831161150157829003601f168201915b5050505050815250509050806000015151600003611723576000805260fd60205260408051606081019091527fc34a738ec333e394a3927794cadc6dd0eb7d9eed0999d1e55021ea223ac362cc80548290829061157a90613710565b80601f01602080910402602001604051908101604052809291908181526020018280546115a690613710565b80156115f35780601f106115c8576101008083540402835291602001916115f3565b820191906000526020600020905b8154815290600101906020018083116115d657829003601f168201915b5050505050815260200160018201805461160c90613710565b80601f016020809104026020016040519081016040528092919081815260200182805461163890613710565b80156116855780601f1061165a57610100808354040283529160200191611685565b820191906000526020600020905b81548152906001019060200180831161166857829003601f168201915b5050505050815260200160028201805461169e90613710565b80601f01602080910402602001604051908101604052809291908181526020018280546116ca90613710565b80156117175780601f106116ec57610100808354040283529160200191611717565b820191906000526020600020905b8154815290600101906020018083116116fa57829003601f168201915b50505050508152505090505b919050565b6060600060fc6000611739866125da565b8152602001908152602001600020805461175290613710565b80601f016020809104026020016040519081016040528092919081815260200182805461177e90613710565b80156117cb5780601f106117a0576101008083540402835291602001916117cb565b820191906000526020600020905b8154815290600101906020018083116117ae57829003601f168201915b505050505090508051600003611891576000805260fc6020527f3d65bc8af043c3492e2efc328ab30f794c3cc5eba72564adef73ad45ad4ac2ea805461181090613710565b80601f016020809104026020016040519081016040528092919081815260200182805461183c90613710565b80156118895780601f1061185e57610100808354040283529160200191611889565b820191906000526020600020905b81548152906001019060200180831161186c57829003601f168201915b505050505090505b82604001516040516020016118a69190613bb1565b60408051601f198184030181529082905284516118c892849190602001613c9d565b60405160208183030381529060405291505092915050565b606081604001516040516020016118f79190613d53565b60405160208183030381529060405261191084846125ef565b604051602001611921929190613e17565b604051602081830303815290604052905092915050565b6060600083600001516040516020016119519190613e46565b604051602081830303815290604052905060006119796119748660000151612630565b61265d565b9050600d8111156120195760006119938660000151612630565b905060006119b9604051806040016040528060018152602001600160fd1b815250612630565b60408051600680825260e08201909252919250600091829182918291816020015b60408051808201909152600080825260208201528152602001906001900390816119da5750506040805160038082526080820190925291925060009190602082015b6060815260200190600190039081611a1c5790505090505b6003851015611f42576000611a498888612736565b9050611a5488511590565b15611cab5783600003611af657600d611a6c8261265d565b1015611a9e57611a7b8161275c565b828781518110611a8d57611a8d613959565b602002602001018190525050611f42565b600080611ab4611aad8461275c565b600d6127c4565b9150915081848981518110611acb57611acb613959565b6020908102919091010152611ae1600189613905565b9750611aec81612630565b9950505050611a34565b8315611ca657600d611b078261265d565b611b119086613905565b1015611b615780838681518110611b2a57611b2a613959565b6020026020010181905250611a7b83611b5b604051806040016040528060018152602001600160fd1b815250612630565b90612813565b85600203611bb257611ba0611b9b611b788361275c565b611b818461265d565b611b8c88600d613905565b611b969190613e94565b6129b6565b612630565b838681518110611b2a57611b2a613959565b611bd883611b5b604051806040016040528060018152602001600160fd1b815250612630565b828781518110611bea57611bea613959565b6020908102919091010152611c00600187613905565b9550600080611c11611aad8461275c565b9150915087600203611c4a57611c2882600a6129b6565b848981518110611c3a57611c3a613959565b6020026020010181905250611c9e565b81848981518110611c5d57611c5d613959565b6020908102919091010152611c73600189613905565b9750611c8081600a6129b6565b848981518110611c9257611c92613959565b60200260200101819052505b505050611f42565b611f3c565b83600003611d7957600d611cbe8261265d565b1115611d3457600080611cd3611aad8461275c565b9150915081848981518110611cea57611cea613959565b6020908102919091010152611d00600189613905565b9750611aec81611d0f8c61275c565b604051602001611d20929190613ea7565b604051602081830303815290604052612630565b80838681518110611d4757611d47613959565b6020908102919091010152611d5d600186613905565b9450611d688161265d565b611d729085613905565b9350611f3c565b600d611d848261265d565b611d8e9086613905565b1115611efb5785600203611dc057611ba06040518060400160405280600381526020016217171760e91b815250612630565b600d611dcb8261265d565b1115611ca657600080611de0611aad8461275c565b91509150611e0a85611b5b604051806040016040528060018152602001600160fd1b815250612630565b848981518110611e1c57611e1c613959565b602090810291909101015260408051600680825260e0820190925290816020015b6040805180820190915260008082526020820152815260200190600190039081611e3d57905050600097509450611e75600189613905565b975087600203611eb957611e8a82600a6129b6565b848981518110611e9c57611e9c613959565b6020908102919091010152611eb2600189613905565b9750611ef4565b81848981518110611ecc57611ecc613959565b6020908102919091010152611ee2600189613905565b9750611ef181611d0f8c61275c565b99505b5050611f3c565b80838681518110611f0e57611f0e613959565b6020908102919091010152611f24600186613905565b9450611f2f8161265d565b611f399085613905565b93505b50611a34565b80600081518110611f5557611f55613959565b6020026020010151604051602001611f6d9190613e46565b60405160208183030381529060405281600181518110611f8f57611f8f613959565b6020026020010151604051602001611fa79190613ee3565b60405160208183030381529060405282600281518110611fc957611fc9613959565b6020026020010151604051602001611fe19190613f32565b60408051601f1981840301815290829052612000939291602001613f62565b6040516020818303038152906040529850505050505050505b835160405161202b9190602001613fa5565b60408051601f198184030181529082905261204a918490602001614002565b60408051601f198184030181529082905261206791602001614097565b6040516020818303038152906040529250505092915050565b60608160200151604051602001612097919061411a565b60408051601f198184030181529082905283516120b6926020016141a4565b6040516020818303038152906040529050919050565b6060600080600061210086604001516000600281106120ed576120ed613959565b60200201516001600160401b0316612a07565b925092509250600080600061212589604001516001600281106120ed576120ed613959565b925092509250876020015161213987612a26565b61214287612a26565b61214b87612a26565b60405160200161215d93929190614243565b60405160208183030381529060405261217585612a26565b61217e85612a26565b61218785612a26565b60405160200161219993929190614243565b60408051601f19818403018152908290526121b893929160200161429d565b60408051601f19818403018152908290526121d591602001614424565b604051602081830303815290604052965050505050505092915050565b6060600061220884608001518560a00151610815565b9050826020015160405160200161221f9190614440565b604051602081830303815290604052612239826002612b2e565b60405160200161224991906144ae565b60408051601f19818403018152908290526118c892916020016144df565b6060816020015160405160200161227e9190614440565b60408051808303601f1901815282825268121e5c195c98d95c9d60ba1b60208401526a1e17ba32bc3a1f1e17b39f60a91b602984015281516014818503018152603484019092526120b6929091906054016144df565b606060006122e3836002613918565b6122ee906002613905565b6001600160401b038111156123055761230561325f565b6040519080825280601f01601f19166020018201604052801561232f576020820181803683370190505b509050600360fc1b8160008151811061234a5761234a613959565b60200101906001600160f81b031916908160001a905350600f60fb1b8160018151811061237957612379613959565b60200101906001600160f81b031916908160001a905350600061239d846002613918565b6123a8906001613905565b90505b6001811115612420576f181899199a1a9b1b9c1cb0b131b232b360811b85600f16601081106123dc576123dc613959565b1a60f81b8282815181106123f2576123f2613959565b60200101906001600160f81b031916908160001a90535060049490941c93612419816145ec565b90506123ab565b50831561246f5760405162461bcd60e51b815260206004820181905260248201527f537472696e67733a20686578206c656e67746820696e73756666696369656e746044820152606401610533565b9392505050565b61247f816111e7565b6040516001600160a01b038216907fbc7cd75a20ee27fd9adebab32041f755214dbc6bffa90cc0225b39da2e5c2d3b90600090a250565b60606001600160a01b0383163b61251e5760405162461bcd60e51b815260206004820152602660248201527f416464726573733a2064656c65676174652063616c6c20746f206e6f6e2d636f6044820152651b9d1c9858dd60d21b6064820152608401610533565b600080846001600160a01b0316846040516125399190614424565b600060405180830381855af49150503d8060008114612574576040519150601f19603f3d011682016040523d82523d6000602084013e612579565b606091505b5091509150610885828260405180606001604052806027815260200161490b60279139612c1b565b600060ff54826040516020016125b791906131ee565b6040516020818303038152906040528051906020012060001c6103fd9190614603565b6000600a826040516020016125b791906131ee565b6060816020015161261f846020015160008151811061261057612610613959565b602002602001015160146129b6565b604051602001611921929190614617565b60408051808201825260008082526020918201528151808301909252825182529182019181019190915290565b600080601f83602001516126719190613e94565b83519091506000906126839083613905565b9050600092505b8082101561272f57815160ff1660808110156126b2576126ab600184613905565b925061271c565b60e08160ff1610156126c9576126ab600284613905565b60f08160ff1610156126e0576126ab600384613905565b60f88160ff1610156126f7576126ab600484613905565b60fc8160ff16101561270e576126ab600584613905565b612719600684613905565b92505b508261272781614742565b93505061268a565b5050919050565b6040805180820190915260008082526020820152612755838383612c54565b5092915050565b6060600082600001516001600160401b0381111561277c5761277c61325f565b6040519080825280601f01601f1916602001820160405280156127a6576020820181803683370190505b50905060006020820190506127558185602001518660000151612cff565b60608060006127d285612d79565b90506127de8185612d98565b925060006127fd6127ee85612630565b6127f788612630565b90612ec5565b90506128088161275c565b925050509250929050565b6060815160000361283357506040805160208101909152600081526103fd565b6000600183516128439190613e94565b845161284f9190613918565b905060005b835181101561289a5783818151811061286f5761286f613959565b602002602001015160000151826128869190613905565b91508061289281614742565b915050612854565b506000816001600160401b038111156128b5576128b561325f565b6040519080825280601f01601f1916602001820160405280156128df576020820181803683370190505b5090506020810160005b85518110156129ab576129378287838151811061290857612908613959565b60200260200101516020015188848151811061292657612926613959565b602002602001015160000151612cff565b85818151811061294957612949613959565b602002602001015160000151826129609190613905565b9150600186516129709190613e94565b8110156129995761298a8288602001518960000151612cff565b86516129969083613905565b91505b806129a381614742565b9150506128e9565b509095945050505050565b606060006129c384612d79565b90506129cf8184612d98565b91508083602081106129e3576129e3613959565b1a60f81b6001600160f81b0319161561275557816040516020016118c8919061475b565b60008080612a19620151808504612f4a565b9196909550909350915050565b606081600003612a4d5750506040805180820190915260018152600360fc1b602082015290565b8160005b8115612a775780612a6181614742565b9150612a709050600a83613945565b9150612a51565b6000816001600160401b03811115612a9157612a9161325f565b6040519080825280601f01601f191660200182016040528015612abb576020820181803683370190505b5090505b8415612b2657612ad0600183613e94565b9150612add600a86614603565b612ae8906030613905565b60f81b818381518110612afd57612afd613959565b60200101906001600160f81b031916908160001a905350612b1f600a86613945565b9450612abf565b949350505050565b60606000612b3d83600a614866565b90506000612b53612b4e8387613945565b612a26565b90506000612b64612b4e8488614603565b9050600081519050600083604051602001612b7f9190614875565b60405160208183030381529060405290508660ff16821015612bec5760005b612bab8360ff8a16613e94565b8160ff161015612bea5781604051602001612bc6919061489a565b60405160208183030381529060405291508080612be2906148bf565b915050612b9e565b505b8083604051602001612bff929190613e17565b6040516020818303038152906040529550505050505092915050565b60608315612c2a57508161246f565b825115612c3a5782518084602001fd5b8160405162461bcd60e51b815260040161053391906131ee565b60408051808201909152600080825260208201526000612c868560000151866020015186600001518760200151612fe6565b602080870180519186019190915251909150612ca29082613e94565b835284516020860151612cb59190613905565b8103612cc45760008552612cf6565b83518351612cd29190613905565b85518690612ce1908390613e94565b9052508351612cf09082613905565b60208601525b50909392505050565b60208110612d375781518352612d16602084613905565b9250612d23602083613905565b9150612d30602082613e94565b9050612cff565b6000198115612d66576001612d4d836020613e94565b612d59906101006148de565b612d639190613e94565b90505b9151835183169219169190911790915250565b805160009082908203612d8f5750600092915050565b50506020015190565b606060005b828160ff16108015612dd05750838160ff1660208110612dbf57612dbf613959565b1a60f81b6001600160f81b03191615155b15612de75780612ddf816148bf565b915050612d9d565b60008160ff166001600160401b03811115612e0457612e0461325f565b6040519080825280601f01601f191660200182016040528015612e2e576020820181803683370190505b509050600091505b838260ff16108015612e695750848260ff1660208110612e5857612e58613959565b1a60f81b6001600160f81b03191615155b15612b2657848260ff1660208110612e8357612e83613959565b1a60f81b818360ff1681518110612e9c57612e9c613959565b60200101906001600160f81b031916908160001a90535081612ebd816148bf565b925050612e36565b6040805180820190915260008082526020820152815183511015612eea5750816103fd565b6020808301519084015160019114612f115750815160208481015190840151829020919020145b8015612f4257825184518590612f28908390613e94565b9052508251602085018051612f3e908390613905565b9052505b509192915050565b60008080836226496581018262023ab1600483020590506004600362023ab18302010590910390600062164b09610fa0600185010205905060046105b58202058303601f019250600061098f8460500281612fa757612fa761392f565b0590506000605061098f83020585039050600b820560301994909401606402929092018301996002600c90940290910392909201975095509350505050565b600083818685116130f157602085116130a0576000851561303257600161300e876020613e94565b613019906008613918565b6130249060026148de565b61302e9190613e94565b1990505b845181166000876130438b8b613905565b61304d9190613e94565b855190915083165b8281146130925781861061307a5761306d8b8b613905565b9650505050505050612b26565b8561308481614742565b965050838651169050613055565b859650505050505050612b26565b508383206000905b6130b28689613e94565b82116130ef578583208082036130ce5783945050505050612b26565b6130d9600185613905565b93505081806130e790614742565b9250506130a8565b505b610b4f8787613905565b6040518060c00160405280606081526020016060815260200161311c61313d565b815260200161312961313d565b815260200160008152602001600081525090565b60405180604001604052806002906020820280368337509192915050565b60006020828403121561316d57600080fd5b81356001600160e01b03198116811461246f57600080fd5b60006020828403121561319757600080fd5b5035919050565b60005b838110156131b95781810151838201526020016131a1565b50506000910152565b600081518084526131da81602086016020860161319e565b601f01601f19169290920160200192915050565b60208152600061246f60208301846131c2565b80356001600160a01b038116811461172357600080fd5b6000806040838503121561322b57600080fd5b8235915061323b60208401613201565b90509250929050565b60006020828403121561325657600080fd5b61246f82613201565b634e487b7160e01b600052604160045260246000fd5b604051606081016001600160401b03811182821017156132975761329761325f565b60405290565b604051601f8201601f191681016001600160401b03811182821017156132c5576132c561325f565b604052919050565b60006001600160401b038311156132e6576132e661325f565b6132f9601f8401601f191660200161329d565b905082815283838301111561330d57600080fd5b828260208301376000602084830101529392505050565b6000806040838503121561333757600080fd5b61334083613201565b915060208301356001600160401b0381111561335b57600080fd5b8301601f8101851361336c57600080fd5b61337b858235602084016132cd565b9150509250929050565b600082601f83011261339657600080fd5b61246f838335602085016132cd565b6000602082840312156133b757600080fd5b81356001600160401b038111156133cd57600080fd5b612b2684828501613385565b600080604083850312156133ec57600080fd5b50508035926020909101359150565b6000602080838503121561340e57600080fd5b82356001600160401b038082111561342557600080fd5b818501915085601f83011261343957600080fd5b613441613275565b80606084018881111561345357600080fd5b845b818110156134875780358581111561346d5760008081fd5b6134798b828901613385565b855250928601928601613455565b509098975050505050505050565b600082601f8301126134a657600080fd5b813560206001600160401b03808311156134c2576134c261325f565b8260051b6134d183820161329d565b93845285810183019383810190888611156134eb57600080fd5b84880192505b85831015610ae6578235848111156135095760008081fd5b6135178a87838c0101613385565b83525091840191908401906134f1565b600082601f83011261353857600080fd5b604051604081016001600160401b03828210818311171561355b5761355b61325f565b6040918252829185018681111561357157600080fd5b855b8181101561359a578035838116811461358c5760008081fd5b845260209384019301613573565b50929695505050505050565b60008060008060008061010087890312156135c057600080fd5b86356001600160401b03808211156135d757600080fd5b6135e38a838b01613385565b975060208901359150808211156135f957600080fd5b5061360689828a01613495565b9550506136168860408901613527565b93506136258860808901613527565b925060c0870135915060e087013590509295509295509295565b600080600080600060e0868803121561365757600080fd5b85356001600160401b038082111561366e57600080fd5b61367a89838a01613385565b9650602088013591508082111561369057600080fd5b5061369d88828901613495565b9450506136ad8760408801613527565b92506136bc8760808801613527565b9497939650919460c0013592915050565b6060815260006136e060608301866131c2565b82810360208401526136f281866131c2565b9050828103604084015261370681856131c2565b9695505050505050565b600181811c9082168061372457607f821691505b60208210810361374457634e487b7160e01b600052602260045260246000fd5b50919050565b6020808252602c908201527f46756e6374696f6e206d7573742062652063616c6c6564207468726f7567682060408201526b19195b1959d85d1958d85b1b60a21b606082015260800190565b6020808252602c908201527f46756e6374696f6e206d7573742062652063616c6c6564207468726f7567682060408201526b6163746976652070726f787960a01b606082015260800190565b601f8211156104c257600081815260208120601f850160051c810160208610156138095750805b601f850160051c820191505b8181101561382857828155600101613815565b505050505050565b81516001600160401b038111156138495761384961325f565b61385d816138578454613710565b846137e2565b602080601f831160018114613892576000841561387a5750858301515b600019600386901b1c1916600185901b178555613828565b600085815260208120601f198616915b828110156138c1578886015182559484019460019091019084016138a2565b50858210156138df5787850151600019600388901b60f8161c191681555b5050505050600190811b01905550565b634e487b7160e01b600052601160045260246000fd5b808201808211156103fd576103fd6138ef565b80820281158282048414176103fd576103fd6138ef565b634e487b7160e01b600052601260045260246000fd5b6000826139545761395461392f565b500490565b634e487b7160e01b600052603260045260246000fd5b82815260406020820152600082516060604084015261399160a08401826131c2565b90506020840151603f19808584030160608601526139af83836131c2565b925060408601519150808584030160808601525061370682826131c2565b6000602082840312156139df57600080fd5b5051919050565b600081516139f881856020860161319e565b9290920192915050565b7f3c7376672077696474683d2235353022206865696768743d22383530222076698152600060207f6577426f783d2230203020353530203835302220786d6c6e733d22687474703a818401527f2f2f7777772e77332e6f72672f323030302f7376672220786d6c6e733a786c6960408401527f6e6b3d22687474703a2f2f7777772e77332e6f72672f313939392f786c696e6b606084015261111f60f11b608084015260828951613ab881838701858e0161319e565b895190850190613acd81848401868e0161319e565b8951910190613ae181848401868d0161319e565b8851910190613af581848401868c0161319e565b8751910190613b0981848401868b0161319e565b613b2c613b1a8483850101896139e6565b651e17b9bb339f60d11b815260060190565b9c9b505050505050505050505050565b7f416363657373436f6e74726f6c3a206163636f756e7420000000000000000000815260008351613b7481601785016020880161319e565b7001034b99036b4b9b9b4b733903937b6329607d1b6017918401918201528351613ba581602884016020880161319e565b01602801949350505050565b7f3c726563742069643d226261636b67726f756e642d636f6c6f722d322220783d81527f222e352220793d2230222077696474683d2235353022206865696768743d223860208201527f3530222072783d223332222072793d22333222207374796c653d2266696c6c3a6040820152600160fd1b606082015260008251613c3f81606185016020870161319e565b6211179f60e91b6061939091019283015250606401919050565b7f3b207374726f6b652d6d697465726c696d69743a2031303b207374726f6b652d8152713bb4b23a341d1019383c1d91179f1e17b39f60711b602082015260320190565b60008451613caf81846020890161319e565b80830190507f3c672069643d22677261706869632d636f6c6f72223e3c706174682069643d2281527333b930b83434b196b1b7b637b916991110321e9160611b60208201528451613d0781603484016020890161319e565b7f22207374796c653d2266696c6c3a206e6f6e653b207374726f6b653a20000000603492909101918201528351613d4581605184016020880161319e565b610b4f605182840101613c59565b7f3c706174682069643d22666f726567726f756e642d636f6c6f722d322220643d81527f224d3433352c3737372e383348313135762d3530483433357635305a6d302d3560208201527f33322e3833483131357633363048343335563234355a6d302d3132322e38334860408201527f313135762d3530483433357635305a22207374796c653d2266696c6c3a200000606082015260008251613dfd81607e85016020870161319e565b6211179f60e91b607e939091019283015250608101919050565b60008351613e2981846020880161319e565b835190830190613e3d81836020880161319e565b01949350505050565b721e3a39b830b7103c1e911811103c9e9118111f60691b81528151600090613e7581601385016020870161319e565b671e17ba39b830b71f60c11b6013939091019283015250601b01919050565b818103818111156103fd576103fd6138ef565b60008351613eb981846020880161319e565b600160fd1b9083019081528351613ed781600184016020880161319e565b01600101949350505050565b731e3a39b830b7103c1e911811103c9e91199b111f60611b81528151600090613f1381601485016020870161319e565b671e17ba39b830b71f60c11b6014939091019283015250601c01919050565b731e3a39b830b7103c1e911811103c9e911b99111f60611b81528151600090613f1381601485016020870161319e565b60008451613f7481846020890161319e565b845190830190613f8881836020890161319e565b8451910190613f9b81836020880161319e565b0195945050505050565b6c039ba3cb6329e913334b6361d1609d1b81528151600090613fce81600d85016020870161319e565b7f3b20666f6e742d66616d696c793a204d6f6e61636f3b223e0000000000000000600d939091019283015250602501919050565b7f3c746578742069643d226e616d652d636f6c6f722d3222207472616e73666f7281527f6d3d227472616e736c617465283135362e33352033303029222000000000000060208201526000835161406081603a85016020880161319e565b83519083019061407781603a84016020880161319e565b661e17ba32bc3a1f60c91b603a9290910191820152604101949350505050565b7f3c672069643d226e616d652d636f6c6f722220746578742d72656e646572696e81527f673d226f7074696d697a6553706565642220666f6e742d73697a653d223330226020820152601f60f91b6040820152600082516140ff81604185016020870161319e565b631e17b39f60e11b6041939091019283015250604501919050565b7f3c672069643d22646976696465722d636f6c6f722220746578742d72656e646581527f72696e673d226f7074696d697a6553706565642220666f6e742d73697a653d22602082015269189811103334b6361e9160b11b60408201526000825161418b81604a85016020870161319e565b61111f60f11b604a939091019283015250604c01919050565b600083516141b681846020880161319e565b80830190507f3c706174682069643d22646976696465722d636f6c6f722d322220643d224d3181527401a9b17199a961a989a171a9cb419199b971998911605d1b60208201527f7374796c653d2266696c6c3a206e6f6e653b207374726f6b653a2000000000006035820152835161423581605084016020880161319e565b613706605082840101613c59565b6000845161425581846020890161319e565b8083019050602d60f81b8082528551614275816001850160208a0161319e565b6001920191820152835161429081600284016020880161319e565b0160020195945050505050565b7f3c673e3c746578742069643d22776f726b2d706572696f642d636f6c6f72222081527f7472616e73666f726d3d227472616e736c617465283020353635292220646f6d60208201527f696e616e742d626173656c696e653d226d6964646c652220746578742d616e6360408201527f686f723d226d6964646c652220207374796c653d22666f6e742d66616d696c7960608201527f3a2048656c7665746963613b20666f6e742d73697a653a20323570783b206669608082015263036361d160e51b60a08201526000845161437a8160a485016020890161319e565b61111f60f11b60a4918401918201527f3c747370616e20783d223530252220793d223022207374796c653d226c65747460a68201527432b916b9b830b1b4b7339d101697181ab2b69d911f60591b60c682015284516143e08160db84016020890161319e565b610b4f6144056143ff60db84860101630103a37960e51b815260040190565b876139e6565b721e17ba39b830b71f1e17ba32bc3a1f1e17b39f60691b815260130190565b6000825161443681846020870161319e565b9190910192915050565b6c039ba3cb6329e913334b6361d1609d1b8152815160009061446981600d85016020870161319e565b7f3b20666f6e742d66616d696c793a204d6f6e61636f3b20666f6e742d73697a65600d939091019283015250671d10191ab83c111f60c11b602d820152603501919050565b600082516144c081846020870161319e565b6c10129e17ba32bc3a1f1e17b39f60991b920191825250600d01919050565b7f3c672069643d226672616374696f6e2d636f6c6f722220746578742d72656e6481527f6572696e673d226f7074696d697a6553706565642220646f6d696e616e742d6260208201527f6173656c696e653d226d6964646c652220746578742d616e63686f723d226d696040820152663232363291101f60c91b60608201527f3c746578742069643d226672616374696f6e2d636f6c6f722d322220783d223560678201527f302522207472616e73666f726d3d227472616e736c61746528302037353529226087820152600160fd1b60a7820152600083516145c98160a885016020880161319e565b8351908301906145e08160a884016020880161319e565b0160a801949350505050565b6000816145fb576145fb6138ef565b506000190190565b6000826146125761461261392f565b500690565b7f3c746578742069643d2273636f70652d696d706163742d636f6c6f722220783d81527f223530252220793d2230252220646f6d696e616e742d626173656c696e653d2260208201527f6d6964646c652220746578742d616e63686f723d226d6964646c65222074726160408201527f6e73666f726d3d227472616e736c6174652830203130302922207374796c653d60608201527f22666f6e742d66616d696c793a2048656c7665746963613b20666f6e742d736960808201526f03d329d10191ab83c1d903334b6361d160851b60a0820152600083516147008160b085016020880161319e565b61111f60f11b60b09184019182015283516147228160b284016020880161319e565b661e17ba32bc3a1f60c91b60b2929091019182015260b901949350505050565b600060018201614754576147546138ef565b5060010190565b6000825161476d81846020870161319e565b6217171760e91b920191825250600301919050565b600181815b808511156147bd5781600019048211156147a3576147a36138ef565b808516156147b057918102915b93841c9390800290614787565b509250929050565b6000826147d4575060016103fd565b816147e1575060006103fd565b81600181146147f757600281146148015761481d565b60019150506103fd565b60ff841115614812576148126138ef565b50506001821b6103fd565b5060208310610133831016604e8410600b8410161715614840575081810a6103fd565b61484a8383614782565b806000190482111561485e5761485e6138ef565b029392505050565b600061246f60ff8416836147c5565b6000825161488781846020870161319e565b601760f91b920191825250600101919050565b600082516148ac81846020870161319e565b600360fc1b920191825250600101919050565b600060ff821660ff81036148d5576148d56138ef565b60010192915050565b600061246f83836147c556fe360894a13ba1a3210667c828492db98dca3e2076cc3735a920a3ca505d382bbc416464726573733a206c6f772d6c6576656c2064656c65676174652063616c6c206661696c6564a164736f6c6343000811000a",
  "devdoc": {
    "kind": "dev",
    "methods": {
      "constructor": {
        "custom:oz-upgrades-unsafe-allow": "constructor"
      },
      "getRoleAdmin(bytes32)": {
        "details": "Returns the admin role that controls `role`. See {grantRole} and {revokeRole}. To change a role's admin, use {_setRoleAdmin}."
      },
      "grantRole(bytes32,address)": {
        "details": "Grants `role` to `account`. If `account` had not been already granted `role`, emits a {RoleGranted} event. Requirements: - the caller must have ``role``'s admin role. May emit a {RoleGranted} event."
      },
      "hasRole(bytes32,address)": {
        "details": "Returns `true` if `account` has been granted `role`."
      },
      "proxiableUUID()": {
        "details": "Implementation of the ERC1822 {proxiableUUID} function. This returns the storage slot used by the implementation. It is used to validate that the this implementation remains valid after an upgrade. IMPORTANT: A proxy pointing at a proxiable contract should not be considered proxiable itself, because this risks bricking a proxy that upgrades to it, by delegating to itself until out of gas. Thus it is critical that this function revert if invoked through a proxy. This is guaranteed by the `notDelegated` modifier."
      },
      "renounceRole(bytes32,address)": {
        "details": "Revokes `role` from the calling account. Roles are often managed via {grantRole} and {revokeRole}: this function's purpose is to provide a mechanism for accounts to lose their privileges if they are compromised (such as when a trusted device is misplaced). If the calling account had been revoked `role`, emits a {RoleRevoked} event. Requirements: - the caller must be `account`. May emit a {RoleRevoked} event."
      },
      "revokeRole(bytes32,address)": {
        "details": "Revokes `role` from `account`. If `account` had been granted `role`, emits a {RoleRevoked} event. Requirements: - the caller must have ``role``'s admin role. May emit a {RoleRevoked} event."
      },
      "supportsInterface(bytes4)": {
        "params": {
          "interfaceId": "Id of the interface"
        },
        "returns": {
          "_0": "true, if the interface is supported"
        }
      },
      "upgradeTo(address)": {
        "details": "Upgrade the implementation of the proxy to `newImplementation`. Calls {_authorizeUpgrade}. Emits an {Upgraded} event."
      },
      "upgradeToAndCall(address,bytes)": {
        "details": "Upgrade the implementation of the proxy to `newImplementation`, and subsequently execute the function call encoded in `data`. Calls {_authorizeUpgrade}. Emits an {Upgraded} event."
      }
    },
    "stateVariables": {
      "backgrounds": {
        "details": "id => background"
      },
      "colors": {
        "details": "id => colors"
      }
    },
    "version": 1
  },
  "userdoc": {
    "kind": "user",
    "methods": {
      "UPGRADER_ROLE()": {
        "notice": "User role required in order to upgrade the contract"
      },
      "constructor": {
        "notice": "Contract constructor logic"
      },
      "initialize()": {
        "notice": "Contract initialization logic"
      },
      "supportsInterface(bytes4)": {
        "notice": "Returns a flag indicating if the contract supports the specified interface"
      }
    },
    "version": 1
  },
  "storageLayout": {
    "storage": [
      {
        "astId": 808,
        "contract": "contracts/HyperCertSVG.sol:HyperCertSVG",
        "label": "_initialized",
        "offset": 0,
        "slot": "0",
        "type": "t_uint8"
      },
      {
        "astId": 811,
        "contract": "contracts/HyperCertSVG.sol:HyperCertSVG",
        "label": "_initializing",
        "offset": 1,
        "slot": "0",
        "type": "t_bool"
      },
      {
        "astId": 1372,
        "contract": "contracts/HyperCertSVG.sol:HyperCertSVG",
        "label": "__gap",
        "offset": 0,
        "slot": "1",
        "type": "t_array(t_uint256)50_storage"
      },
      {
        "astId": 1702,
        "contract": "contracts/HyperCertSVG.sol:HyperCertSVG",
        "label": "__gap",
        "offset": 0,
        "slot": "51",
        "type": "t_array(t_uint256)50_storage"
      },
      {
        "astId": 39,
        "contract": "contracts/HyperCertSVG.sol:HyperCertSVG",
        "label": "_roles",
        "offset": 0,
        "slot": "101",
        "type": "t_mapping(t_bytes32,t_struct(RoleData)34_storage)"
      },
      {
        "astId": 338,
        "contract": "contracts/HyperCertSVG.sol:HyperCertSVG",
        "label": "__gap",
        "offset": 0,
        "slot": "102",
        "type": "t_array(t_uint256)49_storage"
      },
      {
        "astId": 790,
        "contract": "contracts/HyperCertSVG.sol:HyperCertSVG",
        "label": "__gap",
        "offset": 0,
        "slot": "151",
        "type": "t_array(t_uint256)50_storage"
      },
      {
        "astId": 1087,
        "contract": "contracts/HyperCertSVG.sol:HyperCertSVG",
        "label": "__gap",
        "offset": 0,
        "slot": "201",
        "type": "t_array(t_uint256)50_storage"
      },
      {
        "astId": 1744,
        "contract": "contracts/HyperCertSVG.sol:HyperCertSVG",
        "label": "_version",
        "offset": 0,
        "slot": "251",
        "type": "t_uint16"
      },
      {
        "astId": 1749,
        "contract": "contracts/HyperCertSVG.sol:HyperCertSVG",
        "label": "backgrounds",
        "offset": 0,
        "slot": "252",
        "type": "t_mapping(t_uint256,t_string_storage)"
      },
      {
        "astId": 1755,
        "contract": "contracts/HyperCertSVG.sol:HyperCertSVG",
        "label": "colors",
        "offset": 0,
        "slot": "253",
        "type": "t_mapping(t_uint256,t_struct(SVGColors)1784_storage)"
      },
      {
        "astId": 1757,
        "contract": "contracts/HyperCertSVG.sol:HyperCertSVG",
        "label": "backgroundCounter",
        "offset": 0,
        "slot": "254",
        "type": "t_uint256"
      },
      {
        "astId": 1759,
        "contract": "contracts/HyperCertSVG.sol:HyperCertSVG",
        "label": "colorsCounter",
        "offset": 0,
        "slot": "255",
        "type": "t_uint256"
      }
    ],
    "types": {
      "t_address": {
        "encoding": "inplace",
        "label": "address",
        "numberOfBytes": "20"
      },
      "t_array(t_uint256)49_storage": {
        "base": "t_uint256",
        "encoding": "inplace",
        "label": "uint256[49]",
        "numberOfBytes": "1568"
      },
      "t_array(t_uint256)50_storage": {
        "base": "t_uint256",
        "encoding": "inplace",
        "label": "uint256[50]",
        "numberOfBytes": "1600"
      },
      "t_bool": {
        "encoding": "inplace",
        "label": "bool",
        "numberOfBytes": "1"
      },
      "t_bytes32": {
        "encoding": "inplace",
        "label": "bytes32",
        "numberOfBytes": "32"
      },
      "t_mapping(t_address,t_bool)": {
        "encoding": "mapping",
        "key": "t_address",
        "label": "mapping(address => bool)",
        "numberOfBytes": "32",
        "value": "t_bool"
      },
      "t_mapping(t_bytes32,t_struct(RoleData)34_storage)": {
        "encoding": "mapping",
        "key": "t_bytes32",
        "label": "mapping(bytes32 => struct AccessControlUpgradeable.RoleData)",
        "numberOfBytes": "32",
        "value": "t_struct(RoleData)34_storage"
      },
      "t_mapping(t_uint256,t_string_storage)": {
        "encoding": "mapping",
        "key": "t_uint256",
        "label": "mapping(uint256 => string)",
        "numberOfBytes": "32",
        "value": "t_string_storage"
      },
      "t_mapping(t_uint256,t_struct(SVGColors)1784_storage)": {
        "encoding": "mapping",
        "key": "t_uint256",
        "label": "mapping(uint256 => struct HyperCertSVG.SVGColors)",
        "numberOfBytes": "32",
        "value": "t_struct(SVGColors)1784_storage"
      },
      "t_string_storage": {
        "encoding": "bytes",
        "label": "string",
        "numberOfBytes": "32"
      },
      "t_struct(RoleData)34_storage": {
        "encoding": "inplace",
        "label": "struct AccessControlUpgradeable.RoleData",
        "members": [
          {
            "astId": 31,
            "contract": "contracts/HyperCertSVG.sol:HyperCertSVG",
            "label": "members",
            "offset": 0,
            "slot": "0",
            "type": "t_mapping(t_address,t_bool)"
          },
          {
            "astId": 33,
            "contract": "contracts/HyperCertSVG.sol:HyperCertSVG",
            "label": "adminRole",
            "offset": 0,
            "slot": "1",
            "type": "t_bytes32"
          }
        ],
        "numberOfBytes": "64"
      },
      "t_struct(SVGColors)1784_storage": {
        "encoding": "inplace",
        "label": "struct HyperCertSVG.SVGColors",
        "members": [
          {
            "astId": 1779,
            "contract": "contracts/HyperCertSVG.sol:HyperCertSVG",
            "label": "primary",
            "offset": 0,
            "slot": "0",
            "type": "t_string_storage"
          },
          {
            "astId": 1781,
            "contract": "contracts/HyperCertSVG.sol:HyperCertSVG",
            "label": "labels",
            "offset": 0,
            "slot": "1",
            "type": "t_string_storage"
          },
          {
            "astId": 1783,
            "contract": "contracts/HyperCertSVG.sol:HyperCertSVG",
            "label": "background",
            "offset": 0,
            "slot": "2",
            "type": "t_string_storage"
          }
        ],
        "numberOfBytes": "96"
      },
      "t_uint16": {
        "encoding": "inplace",
        "label": "uint16",
        "numberOfBytes": "2"
      },
      "t_uint256": {
        "encoding": "inplace",
        "label": "uint256",
        "numberOfBytes": "32"
      },
      "t_uint8": {
        "encoding": "inplace",
        "label": "uint8",
        "numberOfBytes": "1"
      }
    }
  }
}