{
  "address": "0x1A03ebb982BD78Ab32d7a8059baF5A700BBa7560",
  "abi": [
    {
      "inputs": [],
      "stateMutability": "nonpayable",
      "type": "constructor"
    },
    {
      "anonymous": false,
      "inputs": [
        {
          "indexed": false,
          "internalType": "address",
          "name": "previousAdmin",
          "type": "address"
        },
        {
          "indexed": false,
          "internalType": "address",
          "name": "newAdmin",
          "type": "address"
        }
      ],
      "name": "AdminChanged",
      "type": "event"
    },
    {
      "anonymous": false,
      "inputs": [
        {
          "indexed": false,
          "internalType": "uint256",
          "name": "id",
          "type": "uint256"
        }
      ],
      "name": "BackgroundAdded",
      "type": "event"
    },
    {
      "anonymous": false,
      "inputs": [
        {
          "indexed": true,
          "internalType": "address",
          "name": "beacon",
          "type": "address"
        }
      ],
      "name": "BeaconUpgraded",
      "type": "event"
    },
    {
      "anonymous": false,
      "inputs": [
        {
          "indexed": false,
          "internalType": "uint256",
          "name": "id",
          "type": "uint256"
        },
        {
          "components": [
            {
              "internalType": "string",
              "name": "primary",
              "type": "string"
            },
            {
              "internalType": "string",
              "name": "labels",
              "type": "string"
            },
            {
              "internalType": "string",
              "name": "background",
              "type": "string"
            }
          ],
          "indexed": false,
          "internalType": "struct HyperCertSVG.SVGColors",
          "name": "colors",
          "type": "tuple"
        }
      ],
      "name": "ColorsAdded",
      "type": "event"
    },
    {
      "anonymous": false,
      "inputs": [
        {
          "indexed": false,
          "internalType": "uint8",
          "name": "version",
          "type": "uint8"
        }
      ],
      "name": "Initialized",
      "type": "event"
    },
    {
      "anonymous": false,
      "inputs": [
        {
          "indexed": true,
          "internalType": "bytes32",
          "name": "role",
          "type": "bytes32"
        },
        {
          "indexed": true,
          "internalType": "bytes32",
          "name": "previousAdminRole",
          "type": "bytes32"
        },
        {
          "indexed": true,
          "internalType": "bytes32",
          "name": "newAdminRole",
          "type": "bytes32"
        }
      ],
      "name": "RoleAdminChanged",
      "type": "event"
    },
    {
      "anonymous": false,
      "inputs": [
        {
          "indexed": true,
          "internalType": "bytes32",
          "name": "role",
          "type": "bytes32"
        },
        {
          "indexed": true,
          "internalType": "address",
          "name": "account",
          "type": "address"
        },
        {
          "indexed": true,
          "internalType": "address",
          "name": "sender",
          "type": "address"
        }
      ],
      "name": "RoleGranted",
      "type": "event"
    },
    {
      "anonymous": false,
      "inputs": [
        {
          "indexed": true,
          "internalType": "bytes32",
          "name": "role",
          "type": "bytes32"
        },
        {
          "indexed": true,
          "internalType": "address",
          "name": "account",
          "type": "address"
        },
        {
          "indexed": true,
          "internalType": "address",
          "name": "sender",
          "type": "address"
        }
      ],
      "name": "RoleRevoked",
      "type": "event"
    },
    {
      "anonymous": false,
      "inputs": [
        {
          "indexed": true,
          "internalType": "address",
          "name": "implementation",
          "type": "address"
        }
      ],
      "name": "Upgraded",
      "type": "event"
    },
    {
      "inputs": [],
      "name": "DEFAULT_ADMIN_ROLE",
      "outputs": [
        {
          "internalType": "bytes32",
          "name": "",
          "type": "bytes32"
        }
      ],
      "stateMutability": "view",
      "type": "function"
    },
    {
      "inputs": [],
      "name": "UPGRADER_ROLE",
      "outputs": [
        {
          "internalType": "bytes32",
          "name": "",
          "type": "bytes32"
        }
      ],
      "stateMutability": "view",
      "type": "function"
    },
    {
      "inputs": [
        {
          "internalType": "string",
          "name": "svgString",
          "type": "string"
        }
      ],
      "name": "addBackground",
      "outputs": [
        {
          "internalType": "uint256",
          "name": "id",
          "type": "uint256"
        }
      ],
      "stateMutability": "nonpayable",
      "type": "function"
    },
    {
      "inputs": [
        {
          "internalType": "string[3]",
          "name": "_colors",
          "type": "string[3]"
        }
      ],
      "name": "addColors",
      "outputs": [
        {
          "internalType": "uint256",
          "name": "id",
          "type": "uint256"
        }
      ],
      "stateMutability": "nonpayable",
      "type": "function"
    },
    {
      "inputs": [],
      "name": "backgroundCounter",
      "outputs": [
        {
          "internalType": "uint256",
          "name": "",
          "type": "uint256"
        }
      ],
      "stateMutability": "view",
      "type": "function"
    },
    {
      "inputs": [
        {
          "internalType": "uint256",
          "name": "",
          "type": "uint256"
        }
      ],
      "name": "backgrounds",
      "outputs": [
        {
          "internalType": "string",
          "name": "",
          "type": "string"
        }
      ],
      "stateMutability": "view",
      "type": "function"
    },
    {
      "inputs": [
        {
          "internalType": "uint256",
          "name": "",
          "type": "uint256"
        }
      ],
      "name": "colors",
      "outputs": [
        {
          "internalType": "string",
          "name": "primary",
          "type": "string"
        },
        {
          "internalType": "string",
          "name": "labels",
          "type": "string"
        },
        {
          "internalType": "string",
          "name": "background",
          "type": "string"
        }
      ],
      "stateMutability": "view",
      "type": "function"
    },
    {
      "inputs": [],
      "name": "colorsCounter",
      "outputs": [
        {
          "internalType": "uint256",
          "name": "",
          "type": "uint256"
        }
      ],
      "stateMutability": "view",
      "type": "function"
    },
    {
      "inputs": [
        {
          "internalType": "string",
          "name": "name",
          "type": "string"
        },
        {
          "internalType": "string[]",
          "name": "scopesOfImpact",
          "type": "string[]"
        },
        {
          "internalType": "uint64[2]",
          "name": "workTimeframe",
          "type": "uint64[2]"
        },
        {
          "internalType": "uint64[2]",
          "name": "impactTimeframe",
          "type": "uint64[2]"
        },
        {
          "internalType": "uint256",
          "name": "units",
          "type": "uint256"
        },
        {
          "internalType": "uint256",
          "name": "totalUnits",
          "type": "uint256"
        }
      ],
      "name": "generateSvgFraction",
      "outputs": [
        {
          "internalType": "string",
          "name": "",
          "type": "string"
        }
      ],
      "stateMutability": "view",
      "type": "function"
    },
    {
      "inputs": [
        {
          "internalType": "string",
          "name": "name",
          "type": "string"
        },
        {
          "internalType": "string[]",
          "name": "scopesOfImpact",
          "type": "string[]"
        },
        {
          "internalType": "uint64[2]",
          "name": "workTimeframe",
          "type": "uint64[2]"
        },
        {
          "internalType": "uint64[2]",
          "name": "impactTimeframe",
          "type": "uint64[2]"
        },
        {
          "internalType": "uint256",
          "name": "totalUnits",
          "type": "uint256"
        }
      ],
      "name": "generateSvgHyperCert",
      "outputs": [
        {
          "internalType": "string",
          "name": "",
          "type": "string"
        }
      ],
      "stateMutability": "view",
      "type": "function"
    },
    {
      "inputs": [
        {
          "internalType": "uint256",
          "name": "part",
          "type": "uint256"
        },
        {
          "internalType": "uint256",
          "name": "whole",
          "type": "uint256"
        }
      ],
      "name": "getPercent",
      "outputs": [
        {
          "internalType": "uint256",
          "name": "percent",
          "type": "uint256"
        }
      ],
      "stateMutability": "pure",
      "type": "function"
    },
    {
      "inputs": [
        {
          "internalType": "bytes32",
          "name": "role",
          "type": "bytes32"
        }
      ],
      "name": "getRoleAdmin",
      "outputs": [
        {
          "internalType": "bytes32",
          "name": "",
          "type": "bytes32"
        }
      ],
      "stateMutability": "view",
      "type": "function"
    },
    {
      "inputs": [
        {
          "internalType": "bytes32",
          "name": "role",
          "type": "bytes32"
        },
        {
          "internalType": "address",
          "name": "account",
          "type": "address"
        }
      ],
      "name": "grantRole",
      "outputs": [],
      "stateMutability": "nonpayable",
      "type": "function"
    },
    {
      "inputs": [
        {
          "internalType": "bytes32",
          "name": "role",
          "type": "bytes32"
        },
        {
          "internalType": "address",
          "name": "account",
          "type": "address"
        }
      ],
      "name": "hasRole",
      "outputs": [
        {
          "internalType": "bool",
          "name": "",
          "type": "bool"
        }
      ],
      "stateMutability": "view",
      "type": "function"
    },
    {
      "inputs": [],
      "name": "initialize",
      "outputs": [],
      "stateMutability": "nonpayable",
      "type": "function"
    },
    {
      "inputs": [],
      "name": "proxiableUUID",
      "outputs": [
        {
          "internalType": "bytes32",
          "name": "",
          "type": "bytes32"
        }
      ],
      "stateMutability": "view",
      "type": "function"
    },
    {
      "inputs": [
        {
          "internalType": "bytes32",
          "name": "role",
          "type": "bytes32"
        },
        {
          "internalType": "address",
          "name": "account",
          "type": "address"
        }
      ],
      "name": "renounceRole",
      "outputs": [],
      "stateMutability": "nonpayable",
      "type": "function"
    },
    {
      "inputs": [
        {
          "internalType": "bytes32",
          "name": "role",
          "type": "bytes32"
        },
        {
          "internalType": "address",
          "name": "account",
          "type": "address"
        }
      ],
      "name": "revokeRole",
      "outputs": [],
      "stateMutability": "nonpayable",
      "type": "function"
    },
    {
      "inputs": [
        {
          "internalType": "bytes4",
          "name": "interfaceId",
          "type": "bytes4"
        }
      ],
      "name": "supportsInterface",
      "outputs": [
        {
          "internalType": "bool",
          "name": "",
          "type": "bool"
        }
      ],
      "stateMutability": "view",
      "type": "function"
    },
    {
      "inputs": [],
      "name": "updateVersion",
      "outputs": [],
      "stateMutability": "nonpayable",
      "type": "function"
    },
    {
      "inputs": [
        {
          "internalType": "address",
          "name": "newImplementation",
          "type": "address"
        }
      ],
      "name": "upgradeTo",
      "outputs": [],
      "stateMutability": "nonpayable",
      "type": "function"
    },
    {
      "inputs": [
        {
          "internalType": "address",
          "name": "newImplementation",
          "type": "address"
        },
        {
          "internalType": "bytes",
          "name": "data",
          "type": "bytes"
        }
      ],
      "name": "upgradeToAndCall",
      "outputs": [],
      "stateMutability": "payable",
      "type": "function"
    },
    {
      "inputs": [],
      "name": "version",
      "outputs": [
        {
          "internalType": "uint256",
          "name": "",
          "type": "uint256"
        }
      ],
      "stateMutability": "view",
      "type": "function"
    }
  ],
  "numDeployments": 5,
  "solcInputHash": "6106fb8b09871f51305f5d7bc092e22b",
  "bytecode": "0x60a0604052306080523480156200001557600080fd5b506200002062000026565b620000e8565b600054610100900460ff1615620000935760405162461bcd60e51b815260206004820152602760248201527f496e697469616c697a61626c653a20636f6e747261637420697320696e697469604482015266616c697a696e6760c81b606482015260840160405180910390fd5b60005460ff9081161015620000e6576000805460ff191660ff9081179091556040519081527f7f26b83ff96e1f2b6a682f133852f6798a09c465da95921460cefb38474024989060200160405180910390a15b565b6080516145f56200012060003960008181610586015281816105c6015281816106b4015281816106f4015261078301526145f56000f3fe6080604052600436106101405760003560e01c80635e70664c116100b657806391d148541161006f57806391d148541461035e57806394a2eeb81461037e578063a217fddf1461039e578063bd11f69d146103b3578063d547741f146103e2578063f72c0d8b1461040257600080fd5b80635e70664c146102b357806362219866146102d35780637c77f1c8146102f35780638129fc1c1461031357806381bb2158146103285780638ac1da721461033e57600080fd5b80633659cfe6116101085780633659cfe6146102275780633d5b23e31461024757806348c02dc11461025d5780634f1ef2861461027257806352d1902d1461028557806354fd4d501461029a57600080fd5b806301ffc9a71461014557806304bde4dd1461017a578063248a9ca3146101a75780632f2ff15d146101e557806336568abe14610207575b600080fd5b34801561015157600080fd5b50610165610160366004612d79565b610424565b60405190151581526020015b60405180910390f35b34801561018657600080fd5b5061019a610195366004612da3565b610435565b6040516101719190612e0c565b3480156101b357600080fd5b506101d76101c2366004612da3565b60009081526065602052604090206001015490565b604051908152602001610171565b3480156101f157600080fd5b50610205610200366004612e36565b6104cf565b005b34801561021357600080fd5b50610205610222366004612e36565b6104f9565b34801561023357600080fd5b50610205610242366004612e62565b61057c565b34801561025357600080fd5b506101d760fe5481565b34801561026957600080fd5b5061020561065b565b610205610280366004612f42565b6106aa565b34801561029157600080fd5b506101d7610776565b3480156102a657600080fd5b5060fb5461ffff166101d7565b3480156102bf57600080fd5b506101d76102ce366004612fc3565b610829565b3480156102df57600080fd5b506101d76102ee366004612ff7565b610896565b3480156102ff57600080fd5b506101d761030e366004613019565b61090f565b34801561031f57600080fd5b506102056109d7565b34801561033457600080fd5b506101d760ff5481565b34801561034a57600080fd5b5061019a6103593660046131c4565b610b1c565b34801561036a57600080fd5b50610165610379366004612e36565b610b61565b34801561038a57600080fd5b5061019a61039936600461325d565b610b8c565b3480156103aa57600080fd5b506101d7600081565b3480156103bf57600080fd5b506103d36103ce366004612da3565b610bc9565b604051610171939291906132eb565b3480156103ee57600080fd5b506102056103fd366004612e36565b610d83565b34801561040e57600080fd5b506101d760008051602061458283398151915281565b600061042f82610da8565b92915050565b60fc602052600090815260409020805461044e9061332e565b80601f016020809104026020016040519081016040528092919081815260200182805461047a9061332e565b80156104c75780601f1061049c576101008083540402835291602001916104c7565b820191906000526020600020905b8154815290600101906020018083116104aa57829003601f168201915b505050505081565b6000828152606560205260409020600101546104ea81610ddd565b6104f48383610de7565b505050565b6001600160a01b038116331461056e5760405162461bcd60e51b815260206004820152602f60248201527f416363657373436f6e74726f6c3a2063616e206f6e6c792072656e6f756e636560448201526e103937b632b9903337b91039b2b63360891b60648201526084015b60405180910390fd5b6105788282610e6d565b5050565b6001600160a01b037f00000000000000000000000000000000000000000000000000000000000000001630036105c45760405162461bcd60e51b815260040161056590613368565b7f00000000000000000000000000000000000000000000000000000000000000006001600160a01b031661060d6000805160206145a2833981519152546001600160a01b031690565b6001600160a01b0316146106335760405162461bcd60e51b8152600401610565906133b4565b61063c81610ed4565b6040805160008082526020820190925261065891839190610eec565b50565b60008051602061458283398151915261067381610ddd565b60fb80546001919060009061068d90849061ffff16613416565b92506101000a81548161ffff021916908361ffff16021790555050565b6001600160a01b037f00000000000000000000000000000000000000000000000000000000000000001630036106f25760405162461bcd60e51b815260040161056590613368565b7f00000000000000000000000000000000000000000000000000000000000000006001600160a01b031661073b6000805160206145a2833981519152546001600160a01b031690565b6001600160a01b0316146107615760405162461bcd60e51b8152600401610565906133b4565b61076a82610ed4565b61057882826001610eec565b6000306001600160a01b037f000000000000000000000000000000000000000000000000000000000000000016146108165760405162461bcd60e51b815260206004820152603860248201527f555550535570677261646561626c653a206d757374206e6f742062652063616c60448201527f6c6564207468726f7567682064656c656761746563616c6c00000000000000006064820152608401610565565b506000805160206145a283398151915290565b60fe54600081815260fc60205260409020610844838261347f565b506040518181527fabb811cda210349363acfb5609934d3717818d26783decefcd058c05030652f09060200160405180910390a1600160fe600082825461088b919061353e565b909155509092915050565b6000806108a684620186a0613551565b90508381116108e25760405162461bcd60e51b81526020600482015260086024820152674f766572666c6f7760c01b6044820152606401610565565b60006108ee8483613586565b6108f990600561353e565b9050610906600a82613586565b95945050505050565b60ff546040805160608101825283518152602080850151818301528483015182840152600084815260fd9091529190912081518291908190610951908261347f565b5060208201516001820190610966908261347f565b506040820151600282019061097b908261347f565b509050507f69986a664f3bef2d9bf80814131229e954b45295a8cb027d93f09b6009c57da982826040516109b09291906135b0565b60405180910390a1600160ff60008282546109cb919061353e565b90915550919392505050565b600054610100900460ff16158080156109f75750600054600160ff909116105b80610a115750303b158015610a11575060005460ff166001145b610a745760405162461bcd60e51b815260206004820152602e60248201527f496e697469616c697a61626c653a20636f6e747261637420697320616c72656160448201526d191e481a5b9a5d1a585b1a5e995960921b6064820152608401610565565b6000805460ff191660011790558015610a97576000805461ff0019166101001790555b610a9f611057565b610aa7611057565b610ab2600033610de7565b610aca60008051602061458283398151915233610de7565b600060fe81905560ff558015610658576000805461ff0019169055604051600181527f7f26b83ff96e1f2b6a682f133852f6798a09c465da95921460cefb38474024989060200160405180910390a150565b6060610b26612d19565b8781526020810187905260408101869052606081018590526080810184905260a08101839052610b55816110c4565b98975050505050505050565b60009182526065602090815260408084206001600160a01b0393909316845291905290205460ff1690565b6060610b96612d19565b86815260208101869052604081018590526060810184905260a08101839052610bbe81611176565b979650505050505050565b60fd60205260009081526040902080548190610be49061332e565b80601f0160208091040260200160405190810160405280929190818152602001828054610c109061332e565b8015610c5d5780601f10610c3257610100808354040283529160200191610c5d565b820191906000526020600020905b815481529060010190602001808311610c4057829003601f168201915b505050505090806001018054610c729061332e565b80601f0160208091040260200160405190810160405280929190818152602001828054610c9e9061332e565b8015610ceb5780601f10610cc057610100808354040283529160200191610ceb565b820191906000526020600020905b815481529060010190602001808311610cce57829003601f168201915b505050505090806002018054610d009061332e565b80601f0160208091040260200160405190810160405280929190818152602001828054610d2c9061332e565b8015610d795780601f10610d4e57610100808354040283529160200191610d79565b820191906000526020600020905b815481529060010190602001808311610d5c57829003601f168201915b5050505050905083565b600082815260656020526040902060010154610d9e81610ddd565b6104f48383610e6d565b60006001600160e01b03198216637965db0b60e01b148061042f57506301ffc9a760e01b6001600160e01b031983161461042f565b61065881336111eb565b610df18282610b61565b6105785760008281526065602090815260408083206001600160a01b03851684529091529020805460ff19166001179055610e293390565b6001600160a01b0316816001600160a01b0316837f2f8788117e7eff1d82e926ec794901d17c78024a50270940304540a733656f0d60405160405180910390a45050565b610e778282610b61565b156105785760008281526065602090815260408083206001600160a01b0385168085529252808320805460ff1916905551339285917ff6391f5c32d9c69d2a47ea670b442974b53935d1edc7fd64eb21e047a839171b9190a45050565b60008051602061458283398151915261057881610ddd565b7f4910fdfa16fed3260ed0e7147f7cc6da11a60208b5b9406d12a635614ffd91435460ff1615610f1f576104f48361124f565b826001600160a01b03166352d1902d6040518163ffffffff1660e01b8152600401602060405180830381865afa925050508015610f79575060408051601f3d908101601f19168201909252610f769181019061360e565b60015b610fdc5760405162461bcd60e51b815260206004820152602e60248201527f45524331393637557067726164653a206e657720696d706c656d656e7461746960448201526d6f6e206973206e6f74205555505360901b6064820152608401610565565b6000805160206145a2833981519152811461104b5760405162461bcd60e51b815260206004820152602960248201527f45524331393637557067726164653a20756e737570706f727465642070726f786044820152681a58589b195555525160ba1b6064820152608401610565565b506104f48383836112eb565b600054610100900460ff166110c25760405162461bcd60e51b815260206004820152602b60248201527f496e697469616c697a61626c653a20636f6e7472616374206973206e6f74206960448201526a6e697469616c697a696e6760a81b6064820152608401610565565b565b606060006110ef83602001516000815181106110e2576110e261359a565b6020026020010151611316565b9050611119836020015160008151811061110b5761110b61359a565b60200260200101518261178d565b6111238483611945565b61112d8584611a00565b61113684611e57565b6111408786611ea3565b61114a8887611f99565b60405160200161115f969594939291906136e9565b604051602081830303815290604052915050919050565b6060600061119483602001516000815181106110e2576110e261359a565b90506111b0836020015160008151811061110b5761110b61359a565b6111ba8483611945565b6111c48584611a00565b6111cd84611e57565b6111d78786611ea3565b60405160200161115f959493929190613788565b6111f58282610b61565b6105785761120d816001600160a01b0316601461200e565b61121883602061200e565b60405160200161122992919061380c565b60408051601f198184030181529082905262461bcd60e51b825261056591600401612e0c565b6001600160a01b0381163b6112bc5760405162461bcd60e51b815260206004820152602d60248201527f455243313936373a206e657720696d706c656d656e746174696f6e206973206e60448201526c1bdd08184818dbdb9d1c9858dd609a1b6064820152608401610565565b6000805160206145a283398151915280546001600160a01b0319166001600160a01b0392909216919091179055565b6112f4836121b0565b6000825111806113015750805b156104f45761131083836121f0565b50505050565b61133a60405180606001604052806060815260200160608152602001606081525090565b60ff546000036113b05750506040805160a0810182526006606082018181526579656c6c6f7760d01b6080840152825282518084018452600581526433b932b2b760d91b602082810191909152808401919091528351808501855291825265707572706c6560d01b908201529181019190915290565b60fd60006113bd846122db565b81526020019081526020016000206040518060600160405290816000820180546113e69061332e565b80601f01602080910402602001604051908101604052809291908181526020018280546114129061332e565b801561145f5780601f106114345761010080835404028352916020019161145f565b820191906000526020600020905b81548152906001019060200180831161144257829003601f168201915b505050505081526020016001820180546114789061332e565b80601f01602080910402602001604051908101604052809291908181526020018280546114a49061332e565b80156114f15780601f106114c6576101008083540402835291602001916114f1565b820191906000526020600020905b8154815290600101906020018083116114d457829003601f168201915b5050505050815260200160028201805461150a9061332e565b80601f01602080910402602001604051908101604052809291908181526020018280546115369061332e565b80156115835780601f1061155857610100808354040283529160200191611583565b820191906000526020600020905b81548152906001019060200180831161156657829003601f168201915b5050505050815250509050806000015151600003611788576000805260fd60205260408051606081019091527fc34a738ec333e394a3927794cadc6dd0eb7d9eed0999d1e55021ea223ac362cc8054829082906115df9061332e565b80601f016020809104026020016040519081016040528092919081815260200182805461160b9061332e565b80156116585780601f1061162d57610100808354040283529160200191611658565b820191906000526020600020905b81548152906001019060200180831161163b57829003601f168201915b505050505081526020016001820180546116719061332e565b80601f016020809104026020016040519081016040528092919081815260200182805461169d9061332e565b80156116ea5780601f106116bf576101008083540402835291602001916116ea565b820191906000526020600020905b8154815290600101906020018083116116cd57829003601f168201915b505050505081526020016002820180546117039061332e565b80601f016020809104026020016040519081016040528092919081815260200182805461172f9061332e565b801561177c5780601f106117515761010080835404028352916020019161177c565b820191906000526020600020905b81548152906001019060200180831161175f57829003601f168201915b50505050508152505090505b919050565b6060600060fc600061179e86612314565b815260200190815260200160002080546117b79061332e565b80601f01602080910402602001604051908101604052809291908181526020018280546117e39061332e565b80156118305780601f1061180557610100808354040283529160200191611830565b820191906000526020600020905b81548152906001019060200180831161181357829003601f168201915b5050505050905080516000036118f6576000805260fc6020527f3d65bc8af043c3492e2efc328ab30f794c3cc5eba72564adef73ad45ad4ac2ea80546118759061332e565b80601f01602080910402602001604051908101604052809291908181526020018280546118a19061332e565b80156118ee5780601f106118c3576101008083540402835291602001916118ee565b820191906000526020600020905b8154815290600101906020018083116118d157829003601f168201915b505050505090505b826040015160405160200161190b9190613881565b60408051601f1981840301815290829052845161192d9284919060200161396d565b60405160208183030381529060405291505092915050565b6060600080600061197986604001516000600281106119665761196661359a565b60200201516001600160401b0316612329565b925092509250600080600061199e89604001516001600281106119665761196661359a565b92509250925087604001516040516020016119b99190613a23565b6040516020818303038152906040526119d28a8a612348565b6040516020016119e3929190613ae7565b604051602081830303815290604052965050505050505092915050565b606060008360000151604051602001611a199190613b16565b60405160208183030381529060405290506000611a41611a3c86600001516123a0565b6123cd565b9050600d811115611df0576000611a5b86600001516123a0565b90506000611a81604051806040016040528060018152602001600160fd1b8152506123a0565b60408051600680825260e08201909252919250600091829182918291816020015b6040805180820190915260008082526020820152815260200190600190039081611aa25750506040805160038082526080820190925291925060009190602082015b6060815260200190600190039081611ae45790505090505b6003851015611d19576000611b1188886124a6565b9050611b1c88511590565b8015611b26575085155b15611b5b578c51611b3890600a6124cc565b828781518110611b4a57611b4a61359a565b602002602001018190525050611d19565b8051611bab5787838681518110611b7457611b7461359a565b6020026020010181905250611b3883611ba5604051806040016040528060018152602001600160fd1b8152506123a0565b90612520565b600a611bb6826123cd565b611bc0908661353e565b1115611cd25785600203611c1057611bf26040518060400160405280600381526020016217171760e91b8152506123a0565b838681518110611c0457611c0461359a565b60200260200101819052505b611c3683611ba5604051806040016040528060018152602001600160fd1b8152506123a0565b828781518110611c4857611c4861359a565b6020908102919091010152611c5e60018761353e565b60408051600680825260e08201909252919750816020015b6040805180820190915260008082526020820152815260200190600190039081611c765790505092508083600081518110611cb357611cb361359a565b6020026020010181905250611cc7816123cd565b935060019450611d13565b611cdb816123cd565b611ce5908561353e565b935080838681518110611cfa57611cfa61359a565b6020908102919091010152611d1060018661353e565b94505b50611afc565b80600081518110611d2c57611d2c61359a565b6020026020010151604051602001611d449190613b16565b60405160208183030381529060405281600181518110611d6657611d6661359a565b6020026020010151604051602001611d7e9190613b64565b60405160208183030381529060405282600281518110611da057611da061359a565b6020026020010151604051602001611db89190613bb3565b60408051601f1981840301815290829052611dd7939291602001613be3565b6040516020818303038152906040529850505050505050505b8351604051611e029190602001613c26565b60408051601f1981840301815290829052611e21918490602001613c83565b60408051601f1981840301815290829052611e3e91602001613d18565b6040516020818303038152906040529250505092915050565b60608160200151604051602001611e6e9190613d9b565b60408051601f19818403018152908290528351611e8d92602001613e25565b6040516020818303038152906040529050919050565b60606000806000611ec486604001516000600281106119665761196661359a565b9250925092506000806000611ee989604001516001600281106119665761196661359a565b9250925092508760200151611efd876126c3565b611f06876126c3565b611f0f876126c3565b604051602001611f2193929190613ec4565b604051602081830303815290604052611f39856126c3565b611f42856126c3565b611f4b856126c3565b604051602001611f5d93929190613ec4565b60408051601f1981840301815290829052611f7c939291602001613f1e565b60408051601f19818403018152908290526119e3916020016140a5565b60606000611faf84608001518560a00151610896565b90508260200151604051602001611fc691906140c1565b604051602081830303815290604052611fe08260026127cb565b604051602001611ff0919061412f565b60408051601f198184030181529082905261192d9291602001614160565b6060600061201d836002613551565b61202890600261353e565b6001600160401b0381111561203f5761203f612e7d565b6040519080825280601f01601f191660200182016040528015612069576020820181803683370190505b509050600360fc1b816000815181106120845761208461359a565b60200101906001600160f81b031916908160001a905350600f60fb1b816001815181106120b3576120b361359a565b60200101906001600160f81b031916908160001a90535060006120d7846002613551565b6120e290600161353e565b90505b600181111561215a576f181899199a1a9b1b9c1cb0b131b232b360811b85600f16601081106121165761211661359a565b1a60f81b82828151811061212c5761212c61359a565b60200101906001600160f81b031916908160001a90535060049490941c936121538161426d565b90506120e5565b5083156121a95760405162461bcd60e51b815260206004820181905260248201527f537472696e67733a20686578206c656e67746820696e73756666696369656e746044820152606401610565565b9392505050565b6121b98161124f565b6040516001600160a01b038216907fbc7cd75a20ee27fd9adebab32041f755214dbc6bffa90cc0225b39da2e5c2d3b90600090a250565b60606001600160a01b0383163b6122585760405162461bcd60e51b815260206004820152602660248201527f416464726573733a2064656c65676174652063616c6c20746f206e6f6e2d636f6044820152651b9d1c9858dd60d21b6064820152608401610565565b600080846001600160a01b03168460405161227391906140a5565b600060405180830381855af49150503d80600081146122ae576040519150601f19603f3d011682016040523d82523d6000602084013e6122b3565b606091505b509150915061090682826040518060600160405280602781526020016145c2602791396128b8565b600060ff54826040516020016122f19190612e0c565b6040516020818303038152906040528051906020012060001c61042f9190614284565b6000600a826040516020016122f19190612e0c565b6000808061233b6201518085046128f1565b9196909550909350915050565b6060816020015161237884602001516000815181106123695761236961359a565b602002602001015160146124cc565b604051602001612389929190614298565b604051602081830303815290604052905092915050565b60408051808201825260008082526020918201528151808301909252825182529182019181019190915290565b600080601f83602001516123e191906143c6565b83519091506000906123f3908361353e565b9050600092505b8082101561249f57815160ff1660808110156124225761241b60018461353e565b925061248c565b60e08160ff1610156124395761241b60028461353e565b60f08160ff1610156124505761241b60038461353e565b60f88160ff1610156124675761241b60048461353e565b60fc8160ff16101561247e5761241b60058461353e565b61248960068461353e565b92505b5082612497816143d9565b9350506123fa565b5050919050565b60408051808201909152600080825260208201526124c583838361298d565b5092915050565b606060006124d984612a38565b90506124e58184612a57565b9150808360ff16602081106124fc576124fc61359a565b1a60f81b6001600160f81b031916156124c5578160405160200161192d91906143f2565b60608151600003612540575060408051602081019091526000815261042f565b60006001835161255091906143c6565b845161255c9190613551565b905060005b83518110156125a75783818151811061257c5761257c61359a565b60200260200101516000015182612593919061353e565b91508061259f816143d9565b915050612561565b506000816001600160401b038111156125c2576125c2612e7d565b6040519080825280601f01601f1916602001820160405280156125ec576020820181803683370190505b5090506020810160005b85518110156126b857612644828783815181106126155761261561359a565b6020026020010151602001518884815181106126335761263361359a565b602002602001015160000151612b8a565b8581815181106126565761265661359a565b6020026020010151600001518261266d919061353e565b91506001865161267d91906143c6565b8110156126a6576126978288602001518960000151612b8a565b86516126a3908361353e565b91505b806126b0816143d9565b9150506125f6565b509095945050505050565b6060816000036126ea5750506040805180820190915260018152600360fc1b602082015290565b8160005b811561271457806126fe816143d9565b915061270d9050600a83613586565b91506126ee565b6000816001600160401b0381111561272e5761272e612e7d565b6040519080825280601f01601f191660200182016040528015612758576020820181803683370190505b5090505b84156127c35761276d6001836143c6565b915061277a600a86614284565b61278590603061353e565b60f81b81838151811061279a5761279a61359a565b60200101906001600160f81b031916908160001a9053506127bc600a86613586565b945061275c565b949350505050565b606060006127da83600a6144fd565b905060006127f06127eb8387613586565b6126c3565b905060006128016127eb8488614284565b905060008151905060008360405160200161281c919061450c565b60405160208183030381529060405290508660ff168210156128895760005b6128488360ff8a166143c6565b8160ff16101561288757816040516020016128639190614531565b6040516020818303038152906040529150808061287f90614556565b91505061283b565b505b808360405160200161289c929190613ae7565b6040516020818303038152906040529550505050505092915050565b606083156128c75750816121a9565b8251156128d75782518084602001fd5b8160405162461bcd60e51b81526004016105659190612e0c565b60008080836226496581018262023ab1600483020590506004600362023ab18302010590910390600062164b09610fa0600185010205905060046105b58202058303601f019250600061098f846050028161294e5761294e613570565b0590506000605061098f83020585039050600b820560301994909401606402929092018301996002600c90940290910392909201975095509350505050565b604080518082019091526000808252602082015260006129bf8560000151866020015186600001518760200151612c04565b6020808701805191860191909152519091506129db90826143c6565b8352845160208601516129ee919061353e565b81036129fd5760008552612a2f565b83518351612a0b919061353e565b85518690612a1a9083906143c6565b9052508351612a29908261353e565b60208601525b50909392505050565b805160009082908203612a4e5750600092915050565b50506020015190565b606060005b8260ff168160ff16108015612a925750838160ff1660208110612a8157612a8161359a565b1a60f81b6001600160f81b03191615155b15612aa95780612aa181614556565b915050612a5c565b60008160ff166001600160401b03811115612ac657612ac6612e7d565b6040519080825280601f01601f191660200182016040528015612af0576020820181803683370190505b509050600091505b8360ff168260ff16108015612b2e5750848260ff1660208110612b1d57612b1d61359a565b1a60f81b6001600160f81b03191615155b156127c357848260ff1660208110612b4857612b4861359a565b1a60f81b818360ff1681518110612b6157612b6161359a565b60200101906001600160f81b031916908160001a90535081612b8281614556565b925050612af8565b60208110612bc25781518352612ba160208461353e565b9250612bae60208361353e565b9150612bbb6020826143c6565b9050612b8a565b6000198115612bf1576001612bd88360206143c6565b612be490610100614575565b612bee91906143c6565b90505b9151835183169219169190911790915250565b60008381868511612d0f5760208511612cbe5760008515612c50576001612c2c8760206143c6565b612c37906008613551565b612c42906002614575565b612c4c91906143c6565b1990505b84518116600087612c618b8b61353e565b612c6b91906143c6565b855190915083165b828114612cb057818610612c9857612c8b8b8b61353e565b96505050505050506127c3565b85612ca2816143d9565b965050838651169050612c73565b8596505050505050506127c3565b508383206000905b612cd086896143c6565b8211612d0d57858320808203612cec57839450505050506127c3565b612cf760018561353e565b9350508180612d05906143d9565b925050612cc6565b505b610bbe878761353e565b6040518060c001604052806060815260200160608152602001612d3a612d5b565b8152602001612d47612d5b565b815260200160008152602001600081525090565b60405180604001604052806002906020820280368337509192915050565b600060208284031215612d8b57600080fd5b81356001600160e01b0319811681146121a957600080fd5b600060208284031215612db557600080fd5b5035919050565b60005b83811015612dd7578181015183820152602001612dbf565b50506000910152565b60008151808452612df8816020860160208601612dbc565b601f01601f19169290920160200192915050565b6020815260006121a96020830184612de0565b80356001600160a01b038116811461178857600080fd5b60008060408385031215612e4957600080fd5b82359150612e5960208401612e1f565b90509250929050565b600060208284031215612e7457600080fd5b6121a982612e1f565b634e487b7160e01b600052604160045260246000fd5b604051606081016001600160401b0381118282101715612eb557612eb5612e7d565b60405290565b604051601f8201601f191681016001600160401b0381118282101715612ee357612ee3612e7d565b604052919050565b60006001600160401b03831115612f0457612f04612e7d565b612f17601f8401601f1916602001612ebb565b9050828152838383011115612f2b57600080fd5b828260208301376000602084830101529392505050565b60008060408385031215612f5557600080fd5b612f5e83612e1f565b915060208301356001600160401b03811115612f7957600080fd5b8301601f81018513612f8a57600080fd5b612f9985823560208401612eeb565b9150509250929050565b600082601f830112612fb457600080fd5b6121a983833560208501612eeb565b600060208284031215612fd557600080fd5b81356001600160401b03811115612feb57600080fd5b6127c384828501612fa3565b6000806040838503121561300a57600080fd5b50508035926020909101359150565b6000602080838503121561302c57600080fd5b82356001600160401b038082111561304357600080fd5b818501915085601f83011261305757600080fd5b61305f612e93565b80606084018881111561307157600080fd5b845b818110156130a55780358581111561308b5760008081fd5b6130978b828901612fa3565b855250928601928601613073565b509098975050505050505050565b600082601f8301126130c457600080fd5b813560206001600160401b03808311156130e0576130e0612e7d565b8260051b6130ef838201612ebb565b938452858101830193838101908886111561310957600080fd5b84880192505b85831015610b55578235848111156131275760008081fd5b6131358a87838c0101612fa3565b835250918401919084019061310f565b600082601f83011261315657600080fd5b604051604081016001600160401b03828210818311171561317957613179612e7d565b6040918252829185018681111561318f57600080fd5b855b818110156131b857803583811681146131aa5760008081fd5b845260209384019301613191565b50929695505050505050565b60008060008060008061010087890312156131de57600080fd5b86356001600160401b03808211156131f557600080fd5b6132018a838b01612fa3565b9750602089013591508082111561321757600080fd5b5061322489828a016130b3565b9550506132348860408901613145565b93506132438860808901613145565b925060c0870135915060e087013590509295509295509295565b600080600080600060e0868803121561327557600080fd5b85356001600160401b038082111561328c57600080fd5b61329889838a01612fa3565b965060208801359150808211156132ae57600080fd5b506132bb888289016130b3565b9450506132cb8760408801613145565b92506132da8760808801613145565b9497939650919460c0013592915050565b6060815260006132fe6060830186612de0565b82810360208401526133108186612de0565b905082810360408401526133248185612de0565b9695505050505050565b600181811c9082168061334257607f821691505b60208210810361336257634e487b7160e01b600052602260045260246000fd5b50919050565b6020808252602c908201527f46756e6374696f6e206d7573742062652063616c6c6564207468726f7567682060408201526b19195b1959d85d1958d85b1b60a21b606082015260800190565b6020808252602c908201527f46756e6374696f6e206d7573742062652063616c6c6564207468726f7567682060408201526b6163746976652070726f787960a01b606082015260800190565b634e487b7160e01b600052601160045260246000fd5b61ffff8181168382160190808211156124c5576124c5613400565b601f8211156104f457600081815260208120601f850160051c810160208610156134585750805b601f850160051c820191505b8181101561347757828155600101613464565b505050505050565b81516001600160401b0381111561349857613498612e7d565b6134ac816134a6845461332e565b84613431565b602080601f8311600181146134e157600084156134c95750858301515b600019600386901b1c1916600185901b178555613477565b600085815260208120601f198616915b82811015613510578886015182559484019460019091019084016134f1565b508582101561352e5787850151600019600388901b60f8161c191681555b5050505050600190811b01905550565b8082018082111561042f5761042f613400565b600081600019048311821515161561356b5761356b613400565b500290565b634e487b7160e01b600052601260045260246000fd5b60008261359557613595613570565b500490565b634e487b7160e01b600052603260045260246000fd5b8281526040602082015260008251606060408401526135d260a0840182612de0565b90506020840151603f19808584030160608601526135f08383612de0565b92506040860151915080858403016080860152506133248282612de0565b60006020828403121561362057600080fd5b5051919050565b7f3c7376672077696474683d2235353022206865696768743d223835302220766981527f6577426f783d2230203020353530203835302220786d6c6e733d22687474703a60208201527f2f2f7777772e77332e6f72672f323030302f7376672220786d6c6e733a786c6960408201527f6e6b3d22687474703a2f2f7777772e77332e6f72672f313939392f786c696e6b606082015261111f60f11b608082015260820190565b600081516136df818560208601612dbc565b9290920192915050565b60006136f482613627565b885160206137058284838e01612dbc565b895191909201916137198284838d01612dbc565b8851919092019161372d8284838c01612dbc565b875191909201916137418284838b01612dbc565b865191909201916137558284838a01612dbc565b855191909201916137698284838901612dbc565b50651e17b9bb339f60d11b910190815260060198975050505050505050565b600061379382613627565b87516137a3818360208c01612dbc565b87519101906137b6818360208b01612dbc565b86519101906137c9818360208a01612dbc565b85519101906137dc818360208901612dbc565b84519101906137ef818360208801612dbc565b651e17b9bb339f60d11b9101908152600601979650505050505050565b7f416363657373436f6e74726f6c3a206163636f756e7420000000000000000000815260008351613844816017850160208801612dbc565b7001034b99036b4b9b9b4b733903937b6329607d1b6017918401918201528351613875816028840160208801612dbc565b01602801949350505050565b7f3c726563742069643d226261636b67726f756e642d636f6c6f722d322220783d81527f222e352220793d2230222077696474683d2235353022206865696768743d223860208201527f3530222072783d223332222072793d22333222207374796c653d2266696c6c3a6040820152600160fd1b60608201526000825161390f816061850160208701612dbc565b6211179f60e91b6061939091019283015250606401919050565b7f3b207374726f6b652d6d697465726c696d69743a2031303b207374726f6b652d8152713bb4b23a341d1019383c1d91179f1e17b39f60711b602082015260320190565b6000845161397f818460208901612dbc565b80830190507f3c672069643d22677261706869632d636f6c6f72223e3c706174682069643d2281527333b930b83434b196b1b7b637b916991110321e9160611b602082015284516139d7816034840160208901612dbc565b7f22207374796c653d2266696c6c3a206e6f6e653b207374726f6b653a20000000603492909101918201528351613a15816051840160208801612dbc565b610bbe605182840101613929565b7f3c706174682069643d22666f726567726f756e642d636f6c6f722d322220643d81527f224d3433352c3737372e383348313135762d3530483433357635305a6d302d3560208201527f33322e3833483131357633363048343335563234355a6d302d3132322e38334860408201527f313135762d3530483433357635305a22207374796c653d2266696c6c3a200000606082015260008251613acd81607e850160208701612dbc565b6211179f60e91b607e939091019283015250608101919050565b60008351613af9818460208801612dbc565b835190830190613b0d818360208801612dbc565b01949350505050565b721e3a39b830b7103c1e911811103c9e9118111f60691b81528151600090613b45816013850160208701612dbc565b671e17ba39b830b71f60c11b6013939091019283015250601b01919050565b731e3a39b830b7103c1e911811103c9e91199b111f60611b81528151600090613b94816014850160208701612dbc565b671e17ba39b830b71f60c11b6014939091019283015250601c01919050565b731e3a39b830b7103c1e911811103c9e911b99111f60611b81528151600090613b94816014850160208701612dbc565b60008451613bf5818460208901612dbc565b845190830190613c09818360208901612dbc565b8451910190613c1c818360208801612dbc565b0195945050505050565b6c039ba3cb6329e913334b6361d1609d1b81528151600090613c4f81600d850160208701612dbc565b7f3b20666f6e742d66616d696c793a204d6f6e61636f3b223e0000000000000000600d939091019283015250602501919050565b7f3c746578742069643d226e616d652d636f6c6f722d3222207472616e73666f7281527f6d3d227472616e736c617465283135362e333520333030292220000000000000602082015260008351613ce181603a850160208801612dbc565b835190830190613cf881603a840160208801612dbc565b661e17ba32bc3a1f60c91b603a9290910191820152604101949350505050565b7f3c672069643d226e616d652d636f6c6f722220746578742d72656e646572696e81527f673d226f7074696d697a6553706565642220666f6e742d73697a653d223330226020820152601f60f91b604082015260008251613d80816041850160208701612dbc565b631e17b39f60e11b6041939091019283015250604501919050565b7f3c672069643d22646976696465722d636f6c6f722220746578742d72656e646581527f72696e673d226f7074696d697a6553706565642220666f6e742d73697a653d22602082015269189811103334b6361e9160b11b604082015260008251613e0c81604a850160208701612dbc565b61111f60f11b604a939091019283015250604c01919050565b60008351613e37818460208801612dbc565b80830190507f3c706174682069643d22646976696465722d636f6c6f722d322220643d224d3181527401a9b17199a961a989a171a9cb419199b971998911605d1b60208201527f7374796c653d2266696c6c3a206e6f6e653b207374726f6b653a20000000000060358201528351613eb6816050840160208801612dbc565b613324605082840101613929565b60008451613ed6818460208901612dbc565b8083019050602d60f81b8082528551613ef6816001850160208a01612dbc565b60019201918201528351613f11816002840160208801612dbc565b0160020195945050505050565b7f3c673e3c746578742069643d22776f726b2d706572696f642d636f6c6f72222081527f7472616e73666f726d3d227472616e736c617465283020353635292220646f6d60208201527f696e616e742d626173656c696e653d226d6964646c652220746578742d616e6360408201527f686f723d226d6964646c652220207374796c653d22666f6e742d66616d696c7960608201527f3a2048656c7665746963613b20666f6e742d73697a653a20323070783b206669608082015263036361d160e51b60a082015260008451613ffb8160a4850160208901612dbc565b61111f60f11b60a4918401918201527f3c747370616e20783d223530252220793d223022207374796c653d226c65747460a68201527432b916b9b830b1b4b7339d101697181ab2b69d911f60591b60c682015284516140618160db840160208901612dbc565b610bbe61408661408060db84860101630103a37960e51b815260040190565b876136cd565b721e17ba39b830b71f1e17ba32bc3a1f1e17b39f60691b815260130190565b600082516140b7818460208701612dbc565b9190910192915050565b6c039ba3cb6329e913334b6361d1609d1b815281516000906140ea81600d850160208701612dbc565b7f3b20666f6e742d66616d696c793a204d6f6e61636f3b20666f6e742d73697a65600d939091019283015250671d101918383c111f60c11b602d820152603501919050565b60008251614141818460208701612dbc565b6c10129e17ba32bc3a1f1e17b39f60991b920191825250600d01919050565b7f3c672069643d226672616374696f6e2d636f6c6f722220746578742d72656e6481527f6572696e673d226f7074696d697a6553706565642220646f6d696e616e742d6260208201527f6173656c696e653d226d6964646c652220746578742d616e63686f723d226d696040820152663232363291101f60c91b60608201527f3c746578742069643d226672616374696f6e2d636f6c6f722d322220783d223560678201527f302522207472616e73666f726d3d227472616e736c61746528302037353329226087820152600160fd1b60a78201526000835161424a8160a8850160208801612dbc565b8351908301906142618160a8840160208801612dbc565b0160a801949350505050565b60008161427c5761427c613400565b506000190190565b60008261429357614293613570565b500690565b7f3c746578742069643d2273636f70652d696d706163742d636f6c6f722220783d81527f223530252220793d2230252220646f6d696e616e742d626173656c696e653d2260208201527f6d6964646c652220746578742d616e63686f723d226d6964646c65222074726160408201527f6e73666f726d3d227472616e736c6174652830203130322e303629222073747960608201527f6c653d22666f6e742d66616d696c793a2048656c7665746963613b20666f6e74608082015272016b9b4bd329d101918383c1d903334b6361d1606d1b60a0820152600083516143848160b3850160208801612dbc565b61111f60f11b60b39184019182015283516143a68160b5840160208801612dbc565b661e17ba32bc3a1f60c91b60b5929091019182015260bc01949350505050565b8181038181111561042f5761042f613400565b6000600182016143eb576143eb613400565b5060010190565b60008251614404818460208701612dbc565b6217171760e91b920191825250600301919050565b600181815b8085111561445457816000190482111561443a5761443a613400565b8085161561444757918102915b93841c939080029061441e565b509250929050565b60008261446b5750600161042f565b816144785750600061042f565b816001811461448e5760028114614498576144b4565b600191505061042f565b60ff8411156144a9576144a9613400565b50506001821b61042f565b5060208310610133831016604e8410600b84101617156144d7575081810a61042f565b6144e18383614419565b80600019048211156144f5576144f5613400565b029392505050565b60006121a960ff84168361445c565b6000825161451e818460208701612dbc565b601760f91b920191825250600101919050565b60008251614543818460208701612dbc565b600360fc1b920191825250600101919050565b600060ff821660ff810361456c5761456c613400565b60010192915050565b60006121a9838361445c56fe189ab7a9244df0848122154315af71fe140f3db0fe014031783b0946b8c9d2e3360894a13ba1a3210667c828492db98dca3e2076cc3735a920a3ca505d382bbc416464726573733a206c6f772d6c6576656c2064656c65676174652063616c6c206661696c6564a164736f6c6343000810000a",
  "devdoc": {
    "kind": "dev",
    "methods": {
      "constructor": {
        "custom:oz-upgrades-unsafe-allow": "constructor"
      },
      "getRoleAdmin(bytes32)": {
        "details": "Returns the admin role that controls `role`. See {grantRole} and {revokeRole}. To change a role's admin, use {_setRoleAdmin}."
      },
      "grantRole(bytes32,address)": {
        "details": "Grants `role` to `account`. If `account` had not been already granted `role`, emits a {RoleGranted} event. Requirements: - the caller must have ``role``'s admin role. May emit a {RoleGranted} event."
      },
      "hasRole(bytes32,address)": {
        "details": "Returns `true` if `account` has been granted `role`."
      },
      "proxiableUUID()": {
        "details": "Implementation of the ERC1822 {proxiableUUID} function. This returns the storage slot used by the implementation. It is used to validate that the this implementation remains valid after an upgrade. IMPORTANT: A proxy pointing at a proxiable contract should not be considered proxiable itself, because this risks bricking a proxy that upgrades to it, by delegating to itself until out of gas. Thus it is critical that this function revert if invoked through a proxy. This is guaranteed by the `notDelegated` modifier."
      },
      "renounceRole(bytes32,address)": {
        "details": "Revokes `role` from the calling account. Roles are often managed via {grantRole} and {revokeRole}: this function's purpose is to provide a mechanism for accounts to lose their privileges if they are compromised (such as when a trusted device is misplaced). If the calling account had been revoked `role`, emits a {RoleRevoked} event. Requirements: - the caller must be `account`. May emit a {RoleRevoked} event."
      },
      "revokeRole(bytes32,address)": {
        "details": "Revokes `role` from `account`. If `account` had been granted `role`, emits a {RoleRevoked} event. Requirements: - the caller must have ``role``'s admin role. May emit a {RoleRevoked} event."
      },
      "supportsInterface(bytes4)": {
        "params": {
          "interfaceId": "Id of the interface"
        },
        "returns": {
          "_0": "true, if the interface is supported"
        }
      },
      "upgradeTo(address)": {
        "details": "Upgrade the implementation of the proxy to `newImplementation`. Calls {_authorizeUpgrade}. Emits an {Upgraded} event."
      },
      "upgradeToAndCall(address,bytes)": {
        "details": "Upgrade the implementation of the proxy to `newImplementation`, and subsequently execute the function call encoded in `data`. Calls {_authorizeUpgrade}. Emits an {Upgraded} event."
      }
    },
    "stateVariables": {
      "backgrounds": {
        "details": "id => background"
      },
      "colors": {
        "details": "id => colors"
      }
    },
    "version": 1
  },
  "userdoc": {
    "kind": "user",
    "methods": {
      "UPGRADER_ROLE()": {
        "notice": "User role required in order to upgrade the contract"
      },
      "constructor": {
        "notice": "Contract constructor logic"
      },
      "initialize()": {
        "notice": "Contract initialization logic"
      },
      "supportsInterface(bytes4)": {
        "notice": "Returns a flag indicating if the contract supports the specified interface"
      },
      "updateVersion()": {
        "notice": "Update the contract version numberOnly allowed for member of UPGRADER_ROLE"
      },
      "version()": {
        "notice": "gets the current version of the contract"
      }
    },
    "version": 1
  },
  "storageLayout": {
    "storage": [
      {
        "astId": 808,
        "contract": "contracts/HyperCertSVG.sol:HyperCertSVG",
        "label": "_initialized",
        "offset": 0,
        "slot": "0",
        "type": "t_uint8"
      },
      {
        "astId": 811,
        "contract": "contracts/HyperCertSVG.sol:HyperCertSVG",
        "label": "_initializing",
        "offset": 1,
        "slot": "0",
        "type": "t_bool"
      },
      {
        "astId": 1372,
        "contract": "contracts/HyperCertSVG.sol:HyperCertSVG",
        "label": "__gap",
        "offset": 0,
        "slot": "1",
        "type": "t_array(t_uint256)50_storage"
      },
      {
        "astId": 1702,
        "contract": "contracts/HyperCertSVG.sol:HyperCertSVG",
        "label": "__gap",
        "offset": 0,
        "slot": "51",
        "type": "t_array(t_uint256)50_storage"
      },
      {
        "astId": 39,
        "contract": "contracts/HyperCertSVG.sol:HyperCertSVG",
        "label": "_roles",
        "offset": 0,
        "slot": "101",
        "type": "t_mapping(t_bytes32,t_struct(RoleData)34_storage)"
      },
      {
        "astId": 338,
        "contract": "contracts/HyperCertSVG.sol:HyperCertSVG",
        "label": "__gap",
        "offset": 0,
        "slot": "102",
        "type": "t_array(t_uint256)49_storage"
      },
      {
        "astId": 790,
        "contract": "contracts/HyperCertSVG.sol:HyperCertSVG",
        "label": "__gap",
        "offset": 0,
        "slot": "151",
        "type": "t_array(t_uint256)50_storage"
      },
      {
        "astId": 1087,
        "contract": "contracts/HyperCertSVG.sol:HyperCertSVG",
        "label": "__gap",
        "offset": 0,
        "slot": "201",
        "type": "t_array(t_uint256)50_storage"
      },
      {
        "astId": 1743,
        "contract": "contracts/HyperCertSVG.sol:HyperCertSVG",
        "label": "_version",
        "offset": 0,
        "slot": "251",
        "type": "t_uint16"
      },
      {
        "astId": 1748,
        "contract": "contracts/HyperCertSVG.sol:HyperCertSVG",
        "label": "backgrounds",
        "offset": 0,
        "slot": "252",
        "type": "t_mapping(t_uint256,t_string_storage)"
      },
      {
        "astId": 1754,
        "contract": "contracts/HyperCertSVG.sol:HyperCertSVG",
        "label": "colors",
        "offset": 0,
        "slot": "253",
        "type": "t_mapping(t_uint256,t_struct(SVGColors)1783_storage)"
      },
      {
        "astId": 1756,
        "contract": "contracts/HyperCertSVG.sol:HyperCertSVG",
        "label": "backgroundCounter",
        "offset": 0,
        "slot": "254",
        "type": "t_uint256"
      },
      {
        "astId": 1758,
        "contract": "contracts/HyperCertSVG.sol:HyperCertSVG",
        "label": "colorsCounter",
        "offset": 0,
        "slot": "255",
        "type": "t_uint256"
      }
    ],
    "types": {
      "t_address": {
        "encoding": "inplace",
        "label": "address",
        "numberOfBytes": "20"
      },
      "t_array(t_uint256)49_storage": {
        "base": "t_uint256",
        "encoding": "inplace",
        "label": "uint256[49]",
        "numberOfBytes": "1568"
      },
      "t_array(t_uint256)50_storage": {
        "base": "t_uint256",
        "encoding": "inplace",
        "label": "uint256[50]",
        "numberOfBytes": "1600"
      },
      "t_bool": {
        "encoding": "inplace",
        "label": "bool",
        "numberOfBytes": "1"
      },
      "t_bytes32": {
        "encoding": "inplace",
        "label": "bytes32",
        "numberOfBytes": "32"
      },
      "t_mapping(t_address,t_bool)": {
        "encoding": "mapping",
        "key": "t_address",
        "label": "mapping(address => bool)",
        "numberOfBytes": "32",
        "value": "t_bool"
      },
      "t_mapping(t_bytes32,t_struct(RoleData)34_storage)": {
        "encoding": "mapping",
        "key": "t_bytes32",
        "label": "mapping(bytes32 => struct AccessControlUpgradeable.RoleData)",
        "numberOfBytes": "32",
        "value": "t_struct(RoleData)34_storage"
      },
      "t_mapping(t_uint256,t_string_storage)": {
        "encoding": "mapping",
        "key": "t_uint256",
        "label": "mapping(uint256 => string)",
        "numberOfBytes": "32",
        "value": "t_string_storage"
      },
      "t_mapping(t_uint256,t_struct(SVGColors)1783_storage)": {
        "encoding": "mapping",
        "key": "t_uint256",
        "label": "mapping(uint256 => struct HyperCertSVG.SVGColors)",
        "numberOfBytes": "32",
        "value": "t_struct(SVGColors)1783_storage"
      },
      "t_string_storage": {
        "encoding": "bytes",
        "label": "string",
        "numberOfBytes": "32"
      },
      "t_struct(RoleData)34_storage": {
        "encoding": "inplace",
        "label": "struct AccessControlUpgradeable.RoleData",
        "members": [
          {
            "astId": 31,
            "contract": "contracts/HyperCertSVG.sol:HyperCertSVG",
            "label": "members",
            "offset": 0,
            "slot": "0",
            "type": "t_mapping(t_address,t_bool)"
          },
          {
            "astId": 33,
            "contract": "contracts/HyperCertSVG.sol:HyperCertSVG",
            "label": "adminRole",
            "offset": 0,
            "slot": "1",
            "type": "t_bytes32"
          }
        ],
        "numberOfBytes": "64"
      },
      "t_struct(SVGColors)1783_storage": {
        "encoding": "inplace",
        "label": "struct HyperCertSVG.SVGColors",
        "members": [
          {
            "astId": 1778,
            "contract": "contracts/HyperCertSVG.sol:HyperCertSVG",
            "label": "primary",
            "offset": 0,
            "slot": "0",
            "type": "t_string_storage"
          },
          {
            "astId": 1780,
            "contract": "contracts/HyperCertSVG.sol:HyperCertSVG",
            "label": "labels",
            "offset": 0,
            "slot": "1",
            "type": "t_string_storage"
          },
          {
            "astId": 1782,
            "contract": "contracts/HyperCertSVG.sol:HyperCertSVG",
            "label": "background",
            "offset": 0,
            "slot": "2",
            "type": "t_string_storage"
          }
        ],
        "numberOfBytes": "96"
      },
      "t_uint16": {
        "encoding": "inplace",
        "label": "uint16",
        "numberOfBytes": "2"
      },
      "t_uint256": {
        "encoding": "inplace",
        "label": "uint256",
        "numberOfBytes": "32"
      },
      "t_uint8": {
        "encoding": "inplace",
        "label": "uint8",
        "numberOfBytes": "1"
      }
    }
  }
}