{
  "address": "0x5e2748b95494a5040f3C018d1D635FA79593b7d5",
  "abi": [
    {
      "inputs": [],
      "stateMutability": "nonpayable",
      "type": "constructor"
    },
    {
      "anonymous": false,
      "inputs": [
        {
          "indexed": false,
          "internalType": "address",
          "name": "previousAdmin",
          "type": "address"
        },
        {
          "indexed": false,
          "internalType": "address",
          "name": "newAdmin",
          "type": "address"
        }
      ],
      "name": "AdminChanged",
      "type": "event"
    },
    {
      "anonymous": false,
      "inputs": [
        {
          "indexed": false,
          "internalType": "uint256",
          "name": "id",
          "type": "uint256"
        }
      ],
      "name": "BackgroundAdded",
      "type": "event"
    },
    {
      "anonymous": false,
      "inputs": [
        {
          "indexed": true,
          "internalType": "address",
          "name": "beacon",
          "type": "address"
        }
      ],
      "name": "BeaconUpgraded",
      "type": "event"
    },
    {
      "anonymous": false,
      "inputs": [
        {
          "indexed": false,
          "internalType": "uint8",
          "name": "version",
          "type": "uint8"
        }
      ],
      "name": "Initialized",
      "type": "event"
    },
    {
      "anonymous": false,
      "inputs": [
        {
          "indexed": true,
          "internalType": "bytes32",
          "name": "role",
          "type": "bytes32"
        },
        {
          "indexed": true,
          "internalType": "bytes32",
          "name": "previousAdminRole",
          "type": "bytes32"
        },
        {
          "indexed": true,
          "internalType": "bytes32",
          "name": "newAdminRole",
          "type": "bytes32"
        }
      ],
      "name": "RoleAdminChanged",
      "type": "event"
    },
    {
      "anonymous": false,
      "inputs": [
        {
          "indexed": true,
          "internalType": "bytes32",
          "name": "role",
          "type": "bytes32"
        },
        {
          "indexed": true,
          "internalType": "address",
          "name": "account",
          "type": "address"
        },
        {
          "indexed": true,
          "internalType": "address",
          "name": "sender",
          "type": "address"
        }
      ],
      "name": "RoleGranted",
      "type": "event"
    },
    {
      "anonymous": false,
      "inputs": [
        {
          "indexed": true,
          "internalType": "bytes32",
          "name": "role",
          "type": "bytes32"
        },
        {
          "indexed": true,
          "internalType": "address",
          "name": "account",
          "type": "address"
        },
        {
          "indexed": true,
          "internalType": "address",
          "name": "sender",
          "type": "address"
        }
      ],
      "name": "RoleRevoked",
      "type": "event"
    },
    {
      "anonymous": false,
      "inputs": [
        {
          "indexed": true,
          "internalType": "address",
          "name": "implementation",
          "type": "address"
        }
      ],
      "name": "Upgraded",
      "type": "event"
    },
    {
      "inputs": [],
      "name": "DEFAULT_ADMIN_ROLE",
      "outputs": [
        {
          "internalType": "bytes32",
          "name": "",
          "type": "bytes32"
        }
      ],
      "stateMutability": "view",
      "type": "function"
    },
    {
      "inputs": [],
      "name": "UPGRADER_ROLE",
      "outputs": [
        {
          "internalType": "bytes32",
          "name": "",
          "type": "bytes32"
        }
      ],
      "stateMutability": "view",
      "type": "function"
    },
    {
      "inputs": [
        {
          "internalType": "string",
          "name": "svgString",
          "type": "string"
        }
      ],
      "name": "addBackground",
      "outputs": [
        {
          "internalType": "uint256",
          "name": "id",
          "type": "uint256"
        }
      ],
      "stateMutability": "nonpayable",
      "type": "function"
    },
    {
      "inputs": [],
      "name": "backgroundCounter",
      "outputs": [
        {
          "internalType": "uint256",
          "name": "",
          "type": "uint256"
        }
      ],
      "stateMutability": "view",
      "type": "function"
    },
    {
      "inputs": [
        {
          "internalType": "uint256",
          "name": "",
          "type": "uint256"
        }
      ],
      "name": "backgrounds",
      "outputs": [
        {
          "internalType": "string",
          "name": "",
          "type": "string"
        }
      ],
      "stateMutability": "view",
      "type": "function"
    },
    {
      "inputs": [
        {
          "internalType": "string",
          "name": "name",
          "type": "string"
        },
        {
          "internalType": "string[]",
          "name": "scopesOfImpact",
          "type": "string[]"
        },
        {
          "internalType": "uint64[2]",
          "name": "workTimeframe",
          "type": "uint64[2]"
        },
        {
          "internalType": "uint64[2]",
          "name": "impactTimeframe",
          "type": "uint64[2]"
        },
        {
          "internalType": "uint256",
          "name": "units",
          "type": "uint256"
        },
        {
          "internalType": "uint256",
          "name": "totalUnits",
          "type": "uint256"
        }
      ],
      "name": "generateSvgFraction",
      "outputs": [
        {
          "internalType": "string",
          "name": "",
          "type": "string"
        }
      ],
      "stateMutability": "view",
      "type": "function"
    },
    {
      "inputs": [
        {
          "internalType": "string",
          "name": "name",
          "type": "string"
        },
        {
          "internalType": "string[]",
          "name": "scopesOfImpact",
          "type": "string[]"
        },
        {
          "internalType": "uint64[2]",
          "name": "workTimeframe",
          "type": "uint64[2]"
        },
        {
          "internalType": "uint64[2]",
          "name": "impactTimeframe",
          "type": "uint64[2]"
        },
        {
          "internalType": "uint256",
          "name": "totalUnits",
          "type": "uint256"
        }
      ],
      "name": "generateSvgHyperCert",
      "outputs": [
        {
          "internalType": "string",
          "name": "",
          "type": "string"
        }
      ],
      "stateMutability": "view",
      "type": "function"
    },
    {
      "inputs": [
        {
          "internalType": "uint256",
          "name": "part",
          "type": "uint256"
        },
        {
          "internalType": "uint256",
          "name": "whole",
          "type": "uint256"
        }
      ],
      "name": "getPercent",
      "outputs": [
        {
          "internalType": "uint256",
          "name": "percent",
          "type": "uint256"
        }
      ],
      "stateMutability": "pure",
      "type": "function"
    },
    {
      "inputs": [
        {
          "internalType": "bytes32",
          "name": "role",
          "type": "bytes32"
        }
      ],
      "name": "getRoleAdmin",
      "outputs": [
        {
          "internalType": "bytes32",
          "name": "",
          "type": "bytes32"
        }
      ],
      "stateMutability": "view",
      "type": "function"
    },
    {
      "inputs": [
        {
          "internalType": "bytes32",
          "name": "role",
          "type": "bytes32"
        },
        {
          "internalType": "address",
          "name": "account",
          "type": "address"
        }
      ],
      "name": "grantRole",
      "outputs": [],
      "stateMutability": "nonpayable",
      "type": "function"
    },
    {
      "inputs": [
        {
          "internalType": "bytes32",
          "name": "role",
          "type": "bytes32"
        },
        {
          "internalType": "address",
          "name": "account",
          "type": "address"
        }
      ],
      "name": "hasRole",
      "outputs": [
        {
          "internalType": "bool",
          "name": "",
          "type": "bool"
        }
      ],
      "stateMutability": "view",
      "type": "function"
    },
    {
      "inputs": [],
      "name": "initialize",
      "outputs": [],
      "stateMutability": "nonpayable",
      "type": "function"
    },
    {
      "inputs": [],
      "name": "proxiableUUID",
      "outputs": [
        {
          "internalType": "bytes32",
          "name": "",
          "type": "bytes32"
        }
      ],
      "stateMutability": "view",
      "type": "function"
    },
    {
      "inputs": [
        {
          "internalType": "bytes32",
          "name": "role",
          "type": "bytes32"
        },
        {
          "internalType": "address",
          "name": "account",
          "type": "address"
        }
      ],
      "name": "renounceRole",
      "outputs": [],
      "stateMutability": "nonpayable",
      "type": "function"
    },
    {
      "inputs": [
        {
          "internalType": "bytes32",
          "name": "role",
          "type": "bytes32"
        },
        {
          "internalType": "address",
          "name": "account",
          "type": "address"
        }
      ],
      "name": "revokeRole",
      "outputs": [],
      "stateMutability": "nonpayable",
      "type": "function"
    },
    {
      "inputs": [
        {
          "internalType": "bytes4",
          "name": "interfaceId",
          "type": "bytes4"
        }
      ],
      "name": "supportsInterface",
      "outputs": [
        {
          "internalType": "bool",
          "name": "",
          "type": "bool"
        }
      ],
      "stateMutability": "view",
      "type": "function"
    },
    {
      "inputs": [],
      "name": "updateVersion",
      "outputs": [],
      "stateMutability": "nonpayable",
      "type": "function"
    },
    {
      "inputs": [
        {
          "internalType": "address",
          "name": "newImplementation",
          "type": "address"
        }
      ],
      "name": "upgradeTo",
      "outputs": [],
      "stateMutability": "nonpayable",
      "type": "function"
    },
    {
      "inputs": [
        {
          "internalType": "address",
          "name": "newImplementation",
          "type": "address"
        },
        {
          "internalType": "bytes",
          "name": "data",
          "type": "bytes"
        }
      ],
      "name": "upgradeToAndCall",
      "outputs": [],
      "stateMutability": "payable",
      "type": "function"
    },
    {
      "inputs": [],
      "name": "version",
      "outputs": [
        {
          "internalType": "uint256",
          "name": "",
          "type": "uint256"
        }
      ],
      "stateMutability": "view",
      "type": "function"
    }
  ],
  "numDeployments": 1,
  "solcInputHash": "da0f0f0d151fc9ccfc0d7e0fcc8b076f",
  "bytecode": "0x60a0604052306080523480156200001557600080fd5b506200002062000026565b620000e8565b600054610100900460ff1615620000935760405162461bcd60e51b815260206004820152602760248201527f496e697469616c697a61626c653a20636f6e747261637420697320696e697469604482015266616c697a696e6760c81b606482015260840160405180910390fd5b60005460ff9081161015620000e6576000805460ff191660ff9081179091556040519081527f7f26b83ff96e1f2b6a682f133852f6798a09c465da95921460cefb38474024989060200160405180910390a15b565b608051613f4862000120600039600081816105860152818161060b01528181610762015281816107e701526108cd0152613f486000f3fe60806040526004361061015f5760003560e01c806354fd4d50116100c057806391d1485411610074578063a217fddf11610059578063a217fddf146103ad578063d547741f146103c2578063f72c0d8b146103e257600080fd5b806391d148541461034757806394a2eeb81461038d57600080fd5b806362219866116100a557806362219866146102f25780638129fc1c146103125780638ac1da721461032757600080fd5b806354fd4d50146102b95780635e70664c146102d257600080fd5b80633659cfe61161011757806348c02dc1116100fc57806348c02dc11461027c5780634f1ef2861461029157806352d1902d146102a457600080fd5b80633659cfe6146102465780633d5b23e31461026657600080fd5b8063248a9ca311610148578063248a9ca3146101c65780632f2ff15d1461020457806336568abe1461022657600080fd5b806301ffc9a71461016457806304bde4dd14610199575b600080fd5b34801561017057600080fd5b5061018461017f3660046128df565b610416565b60405190151581526020015b60405180910390f35b3480156101a557600080fd5b506101b96101b4366004612909565b610427565b6040516101909190612972565b3480156101d257600080fd5b506101f66101e1366004612909565b60009081526065602052604090206001015490565b604051908152602001610190565b34801561021057600080fd5b5061022461021f3660046129a1565b6104c1565b005b34801561023257600080fd5b506102246102413660046129a1565b6104eb565b34801561025257600080fd5b506102246102613660046129cd565b61057c565b34801561027257600080fd5b506101f660fd5481565b34801561028857600080fd5b506102246106f7565b61022461029f366004612a87565b610758565b3480156102b057600080fd5b506101f66108c0565b3480156102c557600080fd5b5060fb5461ffff166101f6565b3480156102de57600080fd5b506101f66102ed366004612b09565b610985565b3480156102fe57600080fd5b506101f661030d366004612b3e565b6109f2565b34801561031e57600080fd5b50610224610a3d565b34801561033357600080fd5b506101b9610342366004612c73565b610b9e565b34801561035357600080fd5b506101846103623660046129a1565b60009182526065602090815260408084206001600160a01b0393909316845291905290205460ff1690565b34801561039957600080fd5b506101b96103a8366004612d0d565b610be3565b3480156103b957600080fd5b506101f6600081565b3480156103ce57600080fd5b506102246103dd3660046129a1565b610c20565b3480156103ee57600080fd5b506101f67f189ab7a9244df0848122154315af71fe140f3db0fe014031783b0946b8c9d2e381565b600061042182610c45565b92915050565b60fc602052600090815260409020805461044090612d9c565b80601f016020809104026020016040519081016040528092919081815260200182805461046c90612d9c565b80156104b95780601f1061048e576101008083540402835291602001916104b9565b820191906000526020600020905b81548152906001019060200180831161049c57829003601f168201915b505050505081565b6000828152606560205260409020600101546104dc81610c7a565b6104e68383610c84565b505050565b6001600160a01b038116331461056e5760405162461bcd60e51b815260206004820152602f60248201527f416363657373436f6e74726f6c3a2063616e206f6e6c792072656e6f756e636560448201527f20726f6c657320666f722073656c66000000000000000000000000000000000060648201526084015b60405180910390fd5b6105788282610d26565b5050565b6001600160a01b037f00000000000000000000000000000000000000000000000000000000000000001630036106095760405162461bcd60e51b815260206004820152602c60248201527f46756e6374696f6e206d7573742062652063616c6c6564207468726f7567682060448201526b19195b1959d85d1958d85b1b60a21b6064820152608401610565565b7f00000000000000000000000000000000000000000000000000000000000000006001600160a01b03166106647f360894a13ba1a3210667c828492db98dca3e2076cc3735a920a3ca505d382bbc546001600160a01b031690565b6001600160a01b0316146106cf5760405162461bcd60e51b815260206004820152602c60248201527f46756e6374696f6e206d7573742062652063616c6c6564207468726f7567682060448201526b6163746976652070726f787960a01b6064820152608401610565565b6106d881610da9565b604080516000808252602082019092526106f491839190610dd3565b50565b7f189ab7a9244df0848122154315af71fe140f3db0fe014031783b0946b8c9d2e361072181610c7a565b60fb80546001919060009061073b90849061ffff16612dec565b92506101000a81548161ffff021916908361ffff16021790555050565b6001600160a01b037f00000000000000000000000000000000000000000000000000000000000000001630036107e55760405162461bcd60e51b815260206004820152602c60248201527f46756e6374696f6e206d7573742062652063616c6c6564207468726f7567682060448201526b19195b1959d85d1958d85b1b60a21b6064820152608401610565565b7f00000000000000000000000000000000000000000000000000000000000000006001600160a01b03166108407f360894a13ba1a3210667c828492db98dca3e2076cc3735a920a3ca505d382bbc546001600160a01b031690565b6001600160a01b0316146108ab5760405162461bcd60e51b815260206004820152602c60248201527f46756e6374696f6e206d7573742062652063616c6c6564207468726f7567682060448201526b6163746976652070726f787960a01b6064820152608401610565565b6108b482610da9565b61057882826001610dd3565b6000306001600160a01b037f000000000000000000000000000000000000000000000000000000000000000016146109605760405162461bcd60e51b815260206004820152603860248201527f555550535570677261646561626c653a206d757374206e6f742062652063616c60448201527f6c6564207468726f7567682064656c656761746563616c6c00000000000000006064820152608401610565565b507f360894a13ba1a3210667c828492db98dca3e2076cc3735a920a3ca505d382bbc90565b60fd54600081815260fc602052604090206109a08382612e55565b506040518181527fabb811cda210349363acfb5609934d3717818d26783decefcd058c05030652f09060200160405180910390a1600160fd60008282546109e79190612f15565b909155509092915050565b600080610a0284620186a0612f28565b9050838111610a1057600080fd5b6000610a1c8483612f5d565b610a27906005612f15565b9050610a34600a82612f5d565b95945050505050565b600054610100900460ff1615808015610a5d5750600054600160ff909116105b80610a775750303b158015610a77575060005460ff166001145b610ae95760405162461bcd60e51b815260206004820152602e60248201527f496e697469616c697a61626c653a20636f6e747261637420697320616c72656160448201527f647920696e697469616c697a65640000000000000000000000000000000000006064820152608401610565565b6000805460ff191660011790558015610b0c576000805461ff0019166101001790555b610b14610f73565b610b1c610f73565b610b27600033610c84565b610b517f189ab7a9244df0848122154315af71fe140f3db0fe014031783b0946b8c9d2e333610c84565b600060fd5580156106f4576000805461ff0019169055604051600181527f7f26b83ff96e1f2b6a682f133852f6798a09c465da95921460cefb38474024989060200160405180910390a150565b6060610ba861287f565b8781526020810187905260408101869052606081018590526080810184905260a08101839052610bd781610ff2565b98975050505050505050565b6060610bed61287f565b86815260208101869052604081018590526060810184905260a08101839052610c158161105d565b979650505050505050565b600082815260656020526040902060010154610c3b81610c7a565b6104e68383610d26565b60006001600160e01b03198216637965db0b60e01b148061042157506301ffc9a760e01b6001600160e01b0319831614610421565b6106f481336110a8565b60008281526065602090815260408083206001600160a01b038516845290915290205460ff166105785760008281526065602090815260408083206001600160a01b03851684529091529020805460ff19166001179055610ce23390565b6001600160a01b0316816001600160a01b0316837f2f8788117e7eff1d82e926ec794901d17c78024a50270940304540a733656f0d60405160405180910390a45050565b60008281526065602090815260408083206001600160a01b038516845290915290205460ff16156105785760008281526065602090815260408083206001600160a01b0385168085529252808320805460ff1916905551339285917ff6391f5c32d9c69d2a47ea670b442974b53935d1edc7fd64eb21e047a839171b9190a45050565b7f189ab7a9244df0848122154315af71fe140f3db0fe014031783b0946b8c9d2e361057881610c7a565b7f4910fdfa16fed3260ed0e7147f7cc6da11a60208b5b9406d12a635614ffd91435460ff1615610e06576104e683611128565b826001600160a01b03166352d1902d6040518163ffffffff1660e01b8152600401602060405180830381865afa925050508015610e60575060408051601f3d908101601f19168201909252610e5d91810190612f71565b60015b610ed25760405162461bcd60e51b815260206004820152602e60248201527f45524331393637557067726164653a206e657720696d706c656d656e7461746960448201527f6f6e206973206e6f7420555550530000000000000000000000000000000000006064820152608401610565565b7f360894a13ba1a3210667c828492db98dca3e2076cc3735a920a3ca505d382bbc8114610f675760405162461bcd60e51b815260206004820152602960248201527f45524331393637557067726164653a20756e737570706f727465642070726f7860448201527f6961626c655555494400000000000000000000000000000000000000000000006064820152608401610565565b506104e68383836111fe565b600054610100900460ff16610ff05760405162461bcd60e51b815260206004820152602b60248201527f496e697469616c697a61626c653a20636f6e7472616374206973206e6f74206960448201527f6e697469616c697a696e670000000000000000000000000000000000000000006064820152608401610565565b565b6060610ffc611229565b6110046112be565b61100d8461137a565b6110168561154f565b61101f86611a0a565b61102887611b4c565b61103188611c39565b6040516020016110479796959493929190612fa6565b6040516020818303038152906040529050919050565b6060611067611229565b61106f6112be565b6110788461137a565b6110818561154f565b61108a86611a0a565b61109387611c39565b604051602001611047969594939291906130f5565b60008281526065602090815260408083206001600160a01b038516845290915290205460ff16610578576110e6816001600160a01b03166014611d0c565b6110f1836020611d0c565b60405160200161110292919061322f565b60408051601f198184030181529082905262461bcd60e51b825261056591600401612972565b6001600160a01b0381163b6111a55760405162461bcd60e51b815260206004820152602d60248201527f455243313936373a206e657720696d706c656d656e746174696f6e206973206e60448201527f6f74206120636f6e7472616374000000000000000000000000000000000000006064820152608401610565565b7f360894a13ba1a3210667c828492db98dca3e2076cc3735a920a3ca505d382bbc80547fffffffffffffffffffffffff0000000000000000000000000000000000000000166001600160a01b0392909216919091179055565b61120783611ebc565b6000825111806112145750805b156104e6576112238383611efc565b50505050565b60606040516020016112aa907f3c726563742069643d226261636b67726f756e642d636f6c6f722d322220783d81527f222e352220793d2230222077696474683d2235353022206865696768743d223860208201527f3530222072783d223332222072793d223332222f3e0000000000000000000000604082015260550190565b604051602081830303815290604052905090565b6000805260fc6020527f3d65bc8af043c3492e2efc328ab30f794c3cc5eba72564adef73ad45ad4ac2ea8054606091906112f790612d9c565b80601f016020809104026020016040519081016040528092919081815260200182805461132390612d9c565b80156113705780601f1061134557610100808354040283529160200191611370565b820191906000526020600020905b81548152906001019060200180831161135357829003601f168201915b5050505050905090565b606060008060006113af856040015160006002811061139b5761139b6132b0565b602002015167ffffffffffffffff16611ffe565b92509250925060008060006113d4886040015160016002811061139b5761139b6132b0565b92509250925060405160200161147f907f3c706174682069643d22666f726567726f756e642d636f6c6f722d322220643d81527f224d3433352c3737372e383348313135762d3530483433357635305a6d302d3560208201527f33322e3833483131357633363048343335563234355a6d302d3132322e38334860408201527f313135762d3530483433357635305a222f3e0000000000000000000000000000606082015260720190565b6040516020818303038152906040526114978761201d565b6114a08761201d565b6114a98761201d565b6040516020016114bb939291906132c6565b6040516020818303038152906040526114d38561201d565b6114dc8561201d565b6114e58561201d565b6040516020016114f7939291906132c6565b60408051601f19818403018152908290526115159291602001613320565b60408051601f1981840301815290829052611533929160200161358c565b6040516020818303038152906040529650505050505050919050565b60606000826000015160405160200161156891906135bb565b60408051601f1981840301815282825285518383018352600080855260209485018190528351808501909452815184529084019383019390935292506115ad90612126565b9050600d8111156119c4578351604080518082018252600080825260209182018190528251808401845284518152938201848301528251808401845260018152600160fd1b8184019081528451808601865283815284018390528451808601865291518252818401528351600680825260e082019095529093919283928392839290919082015b60408051808201909152600080825260208201528152602001906001900390816116345750506040805160038082526080820190925291925060009190602082015b60608152602001906001900390816116765790505090505b60038510156118ed5760006116a388886121ff565b90506116ae81511590565b1561174857878386815181106116c6576116c66132b0565b60200260200101819052506117258361171f604051806040016040528060018152602001600160fd1b81525060408051808201825260008082526020918201528151808301909252825182529182019181019190915290565b90612225565b828781518110611737576117376132b0565b6020026020010181905250506118ed565b600a61175382612126565b61175d9086612f15565b11156118a657856002036117c557604080518082018252600381526217171760e91b602080830191825283518085018552600080825290820152835180850190945291518352908201528386815181106117b9576117b96132b0565b60200260200101819052505b60408051808201825260018152600160fd1b6020808301918252835180850185526000808252908201528351808501909452915183529082015261180a90849061171f565b82878151811061181c5761181c6132b0565b6020908102919091010152611832600187612f15565b60408051600680825260e08201909252919750816020015b604080518082019091526000808252602082015281526020019060019003908161184a5790505092508083600081518110611887576118876132b0565b602002602001018190525061189b81612126565b9350600194506118e7565b6118af81612126565b6118b99085612f15565b9350808386815181106118ce576118ce6132b0565b60209081029190910101526118e4600186612f15565b94505b5061168e565b80600081518110611900576119006132b0565b602002602001015160405160200161191891906135bb565b6040516020818303038152906040528160018151811061193a5761193a6132b0565b60200260200101516040516020016119529190613612565b60405160208183030381529060405282600281518110611974576119746132b0565b602002602001015160405160200161198c9190613669565b60408051601f19818403018152908290526119ab9392916020016136a1565b6040516020818303038152906040529850505050505050505b816040516020016119d591906136e4565b60408051601f19818403018152908290526119f2916020016137c2565b60405160208183030381529060405292505050919050565b606060008260200151600081518110611a2557611a256132b0565b6020026020010151604051602001611a3d91906135bb565b60408051601f198184030181529190526020840151519091506001811115611b3b578360200151600081518110611a7657611a766132b0565b6020026020010151604051602001611a8e9190613845565b6040516020818303038152906040528460200151600181518110611ab457611ab46132b0565b6020026020010151604051602001611acc91906135bb565b6040516020818303038152906040528560200151600281518110611af257611af26132b0565b6020026020010151604051602001611b0a919061389c565b60408051601f1981840301815290829052611b299392916020016136a1565b60405160208183030381529060405291505b816040516020016119f291906138d4565b6060611b916040518060400160405280600781526020017f556e6974733a200000000000000000000000000000000000000000000000000081525083608001516123c9565b611bd46040518060400160405280600c81526020017f746f74616c556e6974733a2000000000000000000000000000000000000000008152508360a001516123c9565b6000611be883608001518460a001516109f2565b9050611bf5816002612423565b604051602001611c0591906139fe565b60408051601f1981840301815290829052611c2291602001613a24565b604051602081830303815290604052915050919050565b60606000806000611c5a856060015160006002811061139b5761139b6132b0565b9250925092506000806000611c7f886060015160016002811061139b5761139b6132b0565b925092509250611c8e8661201d565b611c978661201d565b611ca08661201d565b604051602001611cb2939291906132c6565b604051602081830303815290604052611cca8461201d565b611cd38461201d565b611cdc8461201d565b604051602001611cee939291906132c6565b60408051601f19818403018152908290526115339291602001613b74565b60606000611d1b836002612f28565b611d26906002612f15565b67ffffffffffffffff811115611d3e57611d3e6129e8565b6040519080825280601f01601f191660200182016040528015611d68576020820181803683370190505b509050600360fc1b81600081518110611d8357611d836132b0565b60200101906001600160f81b031916908160001a905350600f60fb1b81600181518110611db257611db26132b0565b60200101906001600160f81b031916908160001a9053506000611dd6846002612f28565b611de1906001612f15565b90505b6001811115611e66577f303132333435363738396162636465660000000000000000000000000000000085600f1660108110611e2257611e226132b0565b1a60f81b828281518110611e3857611e386132b0565b60200101906001600160f81b031916908160001a90535060049490941c93611e5f81613d17565b9050611de4565b508315611eb55760405162461bcd60e51b815260206004820181905260248201527f537472696e67733a20686578206c656e67746820696e73756666696369656e746044820152606401610565565b9392505050565b611ec581611128565b6040516001600160a01b038216907fbc7cd75a20ee27fd9adebab32041f755214dbc6bffa90cc0225b39da2e5c2d3b90600090a250565b60606001600160a01b0383163b611f7b5760405162461bcd60e51b815260206004820152602660248201527f416464726573733a2064656c65676174652063616c6c20746f206e6f6e2d636f60448201527f6e747261637400000000000000000000000000000000000000000000000000006064820152608401610565565b600080846001600160a01b031684604051611f969190613d2e565b600060405180830381855af49150503d8060008114611fd1576040519150601f19603f3d011682016040523d82523d6000602084013e611fd6565b606091505b5091509150610a348282604051806060016040528060278152602001613f156027913961254f565b60008080612010620151808504612588565b9196909550909350915050565b6060816000036120445750506040805180820190915260018152600360fc1b602082015290565b8160005b811561206e578061205881613d4a565b91506120679050600a83612f5d565b9150612048565b60008167ffffffffffffffff811115612089576120896129e8565b6040519080825280601f01601f1916602001820160405280156120b3576020820181803683370190505b5090505b841561211e576120c8600183613d63565b91506120d5600a86613d76565b6120e0906030612f15565b60f81b8183815181106120f5576120f56132b0565b60200101906001600160f81b031916908160001a905350612117600a86612f5d565b94506120b7565b949350505050565b600080601f836020015161213a9190613d63565b835190915060009061214c9083612f15565b9050600092505b808210156121f857815160ff16608081101561217b57612174600184612f15565b92506121e5565b60e08160ff16101561219257612174600284612f15565b60f08160ff1610156121a957612174600384612f15565b60f88160ff1610156121c057612174600484612f15565b60fc8160ff1610156121d757612174600584612f15565b6121e2600684612f15565b92505b50826121f081613d4a565b935050612153565b5050919050565b604080518082019091526000808252602082015261221e838383612624565b5092915050565b606081516000036122455750604080516020810190915260008152610421565b6000600183516122559190613d63565b84516122619190612f28565b905060005b83518110156122ac57838181518110612281576122816132b0565b602002602001015160000151826122989190612f15565b9150806122a481613d4a565b915050612266565b5060008167ffffffffffffffff8111156122c8576122c86129e8565b6040519080825280601f01601f1916602001820160405280156122f2576020820181803683370190505b5090506020810160005b85518110156123be5761234a8287838151811061231b5761231b6132b0565b602002602001015160200151888481518110612339576123396132b0565b6020026020010151600001516126cf565b85818151811061235c5761235c6132b0565b602002602001015160000151826123739190612f15565b9150600186516123839190613d63565b8110156123ac5761239d82886020015189600001516126cf565b86516123a99083612f15565b91505b806123b681613d4a565b9150506122fc565b509095945050505050565b61057882826040516024016123df929190613d8a565b60408051601f198184030181529190526020810180517bffffffffffffffffffffffffffffffffffffffffffffffffffffffff16632d839cb360e21b179052612749565b60606124646040518060400160405280600681526020017f53656c663a200000000000000000000000000000000000000000000000000000815250846123c9565b600061247183600a613e90565b905060006124876124828387612f5d565b61201d565b905060006124986124828488613d76565b90506000815190506000836040516020016124b39190613e9f565b60405160208183030381529060405290508660ff168210156125205760005b6124df8360ff8a16613d63565b8160ff16101561251e57816040516020016124fa9190613ec4565b6040516020818303038152906040529150808061251690613ee9565b9150506124d2565b505b808360405160200161253392919061358c565b6040516020818303038152906040529550505050505092915050565b6060831561255e575081611eb5565b82511561256e5782518084602001fd5b8160405162461bcd60e51b81526004016105659190612972565b60008080836226496581018262023ab1600483020590506004600362023ab18302010590910390600062164b09610fa0600185010205905060046105b58202058303601f019250600061098f84605002816125e5576125e5612f47565b0590506000605061098f83020585039050600b820560301994909401606402929092018301996002600c90940290910392909201975095509350505050565b60408051808201909152600080825260208201526000612656856000015186602001518660000151876020015161276a565b6020808701805191860191909152519091506126729082613d63565b8352845160208601516126859190612f15565b810361269457600085526126c6565b835183516126a29190612f15565b855186906126b1908390613d63565b90525083516126c09082612f15565b60208601525b50909392505050565b6020811061270757815183526126e6602084612f15565b92506126f3602083612f15565b9150612700602082613d63565b90506126cf565b600019811561273657600161271d836020613d63565b61272990610100613f08565b6127339190613d63565b90505b9151835183169219169190911790915250565b80516a636f6e736f6c652e6c6f67602083016000808483855afa5050505050565b60008381868511612875576020851161282457600085156127b6576001612792876020613d63565b61279d906008612f28565b6127a8906002613f08565b6127b29190613d63565b1990505b845181166000876127c78b8b612f15565b6127d19190613d63565b855190915083165b828114612816578186106127fe576127f18b8b612f15565b965050505050505061211e565b8561280881613d4a565b9650508386511690506127d9565b85965050505050505061211e565b508383206000905b6128368689613d63565b821161287357858320808203612852578394505050505061211e565b61285d600185612f15565b935050818061286b90613d4a565b92505061282c565b505b610c158787612f15565b6040518060c0016040528060608152602001606081526020016128a06128c1565b81526020016128ad6128c1565b815260200160008152602001600081525090565b60405180604001604052806002906020820280368337509192915050565b6000602082840312156128f157600080fd5b81356001600160e01b031981168114611eb557600080fd5b60006020828403121561291b57600080fd5b5035919050565b60005b8381101561293d578181015183820152602001612925565b50506000910152565b6000815180845261295e816020860160208601612922565b601f01601f19169290920160200192915050565b602081526000611eb56020830184612946565b80356001600160a01b038116811461299c57600080fd5b919050565b600080604083850312156129b457600080fd5b823591506129c460208401612985565b90509250929050565b6000602082840312156129df57600080fd5b611eb582612985565b634e487b7160e01b600052604160045260246000fd5b604051601f8201601f1916810167ffffffffffffffff81118282101715612a2757612a276129e8565b604052919050565b600067ffffffffffffffff831115612a4957612a496129e8565b612a5c601f8401601f19166020016129fe565b9050828152838383011115612a7057600080fd5b828260208301376000602084830101529392505050565b60008060408385031215612a9a57600080fd5b612aa383612985565b9150602083013567ffffffffffffffff811115612abf57600080fd5b8301601f81018513612ad057600080fd5b612adf85823560208401612a2f565b9150509250929050565b600082601f830112612afa57600080fd5b611eb583833560208501612a2f565b600060208284031215612b1b57600080fd5b813567ffffffffffffffff811115612b3257600080fd5b61211e84828501612ae9565b60008060408385031215612b5157600080fd5b50508035926020909101359150565b600082601f830112612b7157600080fd5b8135602067ffffffffffffffff80831115612b8e57612b8e6129e8565b8260051b612b9d8382016129fe565b9384528581018301938381019088861115612bb757600080fd5b84880192505b85831015610bd757823584811115612bd55760008081fd5b612be38a87838c0101612ae9565b8352509184019190840190612bbd565b600082601f830112612c0457600080fd5b6040516040810167ffffffffffffffff8282108183111715612c2857612c286129e8565b60409182528291850186811115612c3e57600080fd5b855b81811015612c675780358381168114612c595760008081fd5b845260209384019301612c40565b50929695505050505050565b6000806000806000806101008789031215612c8d57600080fd5b863567ffffffffffffffff80821115612ca557600080fd5b612cb18a838b01612ae9565b97506020890135915080821115612cc757600080fd5b50612cd489828a01612b60565b955050612ce48860408901612bf3565b9350612cf38860808901612bf3565b925060c0870135915060e087013590509295509295509295565b600080600080600060e08688031215612d2557600080fd5b853567ffffffffffffffff80821115612d3d57600080fd5b612d4989838a01612ae9565b96506020880135915080821115612d5f57600080fd5b50612d6c88828901612b60565b945050612d7c8760408801612bf3565b9250612d8b8760808801612bf3565b9497939650919460c0013592915050565b600181811c90821680612db057607f821691505b602082108103612dd057634e487b7160e01b600052602260045260246000fd5b50919050565b634e487b7160e01b600052601160045260246000fd5b61ffff81811683821601908082111561221e5761221e612dd6565b601f8211156104e657600081815260208120601f850160051c81016020861015612e2e5750805b601f850160051c820191505b81811015612e4d57828155600101612e3a565b505050505050565b815167ffffffffffffffff811115612e6f57612e6f6129e8565b612e8381612e7d8454612d9c565b84612e07565b602080601f831160018114612eb85760008415612ea05750858301515b600019600386901b1c1916600185901b178555612e4d565b600085815260208120601f198616915b82811015612ee757888601518255948401946001909101908401612ec8565b5085821015612f055787850151600019600388901b60f8161c191681555b5050505050600190811b01905550565b8082018082111561042157610421612dd6565b6000816000190483118215151615612f4257612f42612dd6565b500290565b634e487b7160e01b600052601260045260246000fd5b600082612f6c57612f6c612f47565b500490565b600060208284031215612f8357600080fd5b5051919050565b60008151612f9c818560208601612922565b9290920192915050565b7f3c7376672077696474683d2235353022206865696768743d223835302220766981527f6577426f783d2230203020353530203835302220786d6c6e733d22687474703a60208201527f2f2f7777772e77332e6f72672f323030302f7376672220786d6c6e733a786c6960408201527f6e6b3d22687474703a2f2f7777772e77332e6f72672f313939392f786c696e6b606082015261111f60f11b60808201526000608282018951602061305d8284838f01612922565b8a5191909201916130718284838e01612922565b895191909201916130858284838d01612922565b885191909201916130998284838c01612922565b875191909201916130ad8284838b01612922565b865191909201916130c18284838a01612922565b855191909201916130d58284838901612922565b50651e17b9bb339f60d11b91019081526006019998505050505050505050565b7f3c7376672077696474683d2235353022206865696768743d223835302220766981527f6577426f783d2230203020353530203835302220786d6c6e733d22687474703a60208201527f2f2f7777772e77332e6f72672f323030302f7376672220786d6c6e733a786c6960408201527f6e6b3d22687474703a2f2f7777772e77332e6f72672f313939392f786c696e6b606082015261111f60f11b6080820152600060828201885160206131ac8284838e01612922565b895191909201916131c08284838d01612922565b885191909201916131d48284838c01612922565b875191909201916131e88284838b01612922565b865191909201916131fc8284838a01612922565b855191909201916132108284838901612922565b50651e17b9bb339f60d11b910190815260060198975050505050505050565b7f416363657373436f6e74726f6c3a206163636f756e7420000000000000000000815260008351613267816017850160208801612922565b7f206973206d697373696e6720726f6c652000000000000000000000000000000060179184019182015283516132a4816028840160208801612922565b01602801949350505050565b634e487b7160e01b600052603260045260246000fd5b600084516132d8818460208901612922565b8083019050602d60f81b80825285516132f8816001850160208a01612922565b60019201918201528351613313816002840160208801612922565b0160020195945050505050565b7f3c672069643d22646976696465722d636f6c6f722220746578742d72656e646581527f72696e673d226f7074696d697a6553706565642220666f6e742d73697a653d2260208201527f3130222066696c6c3d2223666663653433223e0000000000000000000000000060408201527f3c706174682069643d22646976696465722d636f6c6f722d322220643d224d3160538201527f35362e33352c3531342e3539683233372e333122207374796c653d2266696c6c60738201527f3a206e6f6e653b207374726f6b653a20236666636534333b207374726f6b652d60938201527f6d697465726c696d69743a2031303b207374726f6b652d77696474683a20327060b38201527f783b222f3e00000000000000000000000000000000000000000000000000000060d38201527f3c746578742069643d22776f726b2d706572696f642d636f6c6f72222074726160d88201527f6e73666f726d3d227472616e736c617465283133342e3735203130322e30362960f88201527f22207374796c653d22666f6e742d66616d696c793a2048656c7665746963613b6101188201527f20666f6e742d73697a653a20313570783b223e000000000000000000000000006101388201527f3c747370616e20783d22302220793d223022207374796c653d226c657474657261014b8201527f2d73706163696e673a202d2e3035656d3b223e576f726b20506572696f643a2061016b820152600061211e61356361355d61354e61018b860188612f8a565b620101f160ed1b815260030190565b85612f8a565b7f3c2f747370616e3e3c2f746578743e3c2f673e00000000000000000000000000815260130190565b6000835161359e818460208801612922565b8351908301906135b2818360208801612922565b01949350505050565b7f3c747370616e20783d22302220793d2230223e000000000000000000000000008152600082516135f3816013850160208701612922565b671e17ba39b830b71f60c11b6013939091019283015250601b01919050565b7f3c747370616e20783d22302220793d223336223e00000000000000000000000081526000825161364a816014850160208701612922565b671e17ba39b830b71f60c11b6014939091019283015250601c01919050565b7f3c747370616e20783d22302220793d223732223e00000000000000000000000081526000825161364a816014850160208701612922565b600084516136b3818460208901612922565b8451908301906136c7818360208901612922565b84519101906136da818360208801612922565b0195945050505050565b7f3c746578742069643d226e616d652d636f6c6f722d3222207472616e73666f7281527f6d3d227472616e736c617465283135362e3335203330302922207374796c653d60208201527f2266696c6c3a20236666636534333b20666f6e742d66616d696c793a204d6f6e60408201527f61636f3b223e000000000000000000000000000000000000000000000000000060608201526000825161378e816066850160208701612922565b7f3c2f746578743e000000000000000000000000000000000000000000000000006066939091019283015250606d01919050565b7f3c672069643d226e616d652d636f6c6f722220746578742d72656e646572696e81527f673d226f7074696d697a6553706565642220666f6e742d73697a653d223330226020820152601f60f91b60408201526000825161382a816041850160208701612922565b631e17b39f60e11b6041939091019283015250604501919050565b7f3c747370616e20783d22302220793d222d3230223e000000000000000000000081526000825161387d816015850160208701612922565b671e17ba39b830b71f60c11b6015939091019283015250601d01919050565b7f3c747370616e20783d22302220793d223230223e00000000000000000000000081526000825161364a816014850160208701612922565b7f3c672069643d226465736372697074696f6e2d636f6c6f722220746578742d7281527f656e646572696e673d226f7074696d697a6553706565642220666f6e742d736960208201527f7a653d223135222066696c6c3d227768697465223e000000000000000000000060408201527f3c74657874207472616e73666f726d3d227472616e736c61746528313535203460558201527f38302922207374796c653d22666f6e742d66616d696c793a2048656c7665746960758201527f63613b20666f6e742d73697a653a20313570783b223e000000000000000000006095820152600082516139ca8160ab850160208701612922565b7f3c2f746578743e3c2f673e00000000000000000000000000000000000000000060ab93909101928301525060b601919050565b60008251613a10818460208701612922565b61202560f01b920191825250600201919050565b7f3c672069643d226672616374696f6e2d636f6c6f722220746578742d72656e6481527f6572696e673d226f7074696d697a6553706565642220666f6e742d73697a653d60208201527f223330223e00000000000000000000000000000000000000000000000000000060408201527f3c746578742069643d226672616374696f6e2d636f6c6f722d3222207472616e60458201527f73666f726d3d227472616e736c617465283135362e3335203536382e3033292260658201527f207374796c653d2266696c6c3a20236666636534333b20666f6e742d66616d6960858201527f6c793a204d6f6e61636f223e3c747370616e20783d22302220793d2230223e0060a582015260008251613b408160c4850160208701612922565b7f3c2f747370616e3e3c2f746578743e3c2f673e0000000000000000000000000060c493909101928301525060d701919050565b7f3c672069643d22696d706163742d706572696f642d636f6c6f7222207465787481527f2d72656e646572696e673d226f7074696d697a6553706565642220666f6e742d60208201527f73697a653d223130222066696c6c3d2223666663653433223e0000000000000060408201527f3c746578742069643d22696d706163742d706572696f642d636f6c6f722d322260598201527f207472616e73666f726d3d227472616e736c617465283133342e37352037353860798201527f2922207374796c653d22666f6e742d66616d696c793a2048656c76657469636160998201527f3b20666f6e742d73697a653a20313570783b223e00000000000000000000000060b98201527f3c747370616e20783d22302220793d223022207374796c653d226c657474657260cd8201527f2d73706163696e673a202d2e3035656d3b223e496d7061637420506572696f6460ed8201526101d160f51b61010d820152600061010f8451613cea8183860160208901612922565b613d0d613563613d078484880101620101f160ed1b815260030190565b87612f8a565b9695505050505050565b600081613d2657613d26612dd6565b506000190190565b60008251613d40818460208701612922565b9190910192915050565b600060018201613d5c57613d5c612dd6565b5060010190565b8181038181111561042157610421612dd6565b600082613d8557613d85612f47565b500690565b604081526000613d9d6040830185612946565b90508260208301529392505050565b600181815b80851115613de7578160001904821115613dcd57613dcd612dd6565b80851615613dda57918102915b93841c9390800290613db1565b509250929050565b600082613dfe57506001610421565b81613e0b57506000610421565b8160018114613e215760028114613e2b57613e47565b6001915050610421565b60ff841115613e3c57613e3c612dd6565b50506001821b610421565b5060208310610133831016604e8410600b8410161715613e6a575081810a610421565b613e748383613dac565b8060001904821115613e8857613e88612dd6565b029392505050565b6000611eb560ff841683613def565b60008251613eb1818460208701612922565b601760f91b920191825250600101919050565b60008251613ed6818460208701612922565b600360fc1b920191825250600101919050565b600060ff821660ff8103613eff57613eff612dd6565b60010192915050565b6000611eb58383613def56fe416464726573733a206c6f772d6c6576656c2064656c65676174652063616c6c206661696c6564a164736f6c6343000810000a",
  "devdoc": {
    "kind": "dev",
    "methods": {
      "constructor": {
        "custom:oz-upgrades-unsafe-allow": "constructor"
      },
      "getRoleAdmin(bytes32)": {
        "details": "Returns the admin role that controls `role`. See {grantRole} and {revokeRole}. To change a role's admin, use {_setRoleAdmin}."
      },
      "grantRole(bytes32,address)": {
        "details": "Grants `role` to `account`. If `account` had not been already granted `role`, emits a {RoleGranted} event. Requirements: - the caller must have ``role``'s admin role. May emit a {RoleGranted} event."
      },
      "hasRole(bytes32,address)": {
        "details": "Returns `true` if `account` has been granted `role`."
      },
      "proxiableUUID()": {
        "details": "Implementation of the ERC1822 {proxiableUUID} function. This returns the storage slot used by the implementation. It is used to validate that the this implementation remains valid after an upgrade. IMPORTANT: A proxy pointing at a proxiable contract should not be considered proxiable itself, because this risks bricking a proxy that upgrades to it, by delegating to itself until out of gas. Thus it is critical that this function revert if invoked through a proxy. This is guaranteed by the `notDelegated` modifier."
      },
      "renounceRole(bytes32,address)": {
        "details": "Revokes `role` from the calling account. Roles are often managed via {grantRole} and {revokeRole}: this function's purpose is to provide a mechanism for accounts to lose their privileges if they are compromised (such as when a trusted device is misplaced). If the calling account had been revoked `role`, emits a {RoleRevoked} event. Requirements: - the caller must be `account`. May emit a {RoleRevoked} event."
      },
      "revokeRole(bytes32,address)": {
        "details": "Revokes `role` from `account`. If `account` had been granted `role`, emits a {RoleRevoked} event. Requirements: - the caller must have ``role``'s admin role. May emit a {RoleRevoked} event."
      },
      "supportsInterface(bytes4)": {
        "params": {
          "interfaceId": "Id of the interface"
        },
        "returns": {
          "_0": "true, if the interface is supported"
        }
      },
      "upgradeTo(address)": {
        "details": "Upgrade the implementation of the proxy to `newImplementation`. Calls {_authorizeUpgrade}. Emits an {Upgraded} event."
      },
      "upgradeToAndCall(address,bytes)": {
        "details": "Upgrade the implementation of the proxy to `newImplementation`, and subsequently execute the function call encoded in `data`. Calls {_authorizeUpgrade}. Emits an {Upgraded} event."
      }
    },
    "stateVariables": {
      "backgrounds": {
        "details": "id => background"
      }
    },
    "version": 1
  },
  "userdoc": {
    "kind": "user",
    "methods": {
      "UPGRADER_ROLE()": {
        "notice": "User role required in order to upgrade the contract"
      },
      "constructor": {
        "notice": "Contract constructor logic"
      },
      "initialize()": {
        "notice": "Contract initialization logic"
      },
      "supportsInterface(bytes4)": {
        "notice": "Returns a flag indicating if the contract supports the specified interface"
      },
      "updateVersion()": {
        "notice": "Update the contract version numberOnly allowed for member of UPGRADER_ROLE"
      },
      "version()": {
        "notice": "gets the current version of the contract"
      }
    },
    "version": 1
  },
  "storageLayout": {
    "storage": [
      {
        "astId": 808,
        "contract": "contracts/HyperCertSVG.sol:HyperCertSVG",
        "label": "_initialized",
        "offset": 0,
        "slot": "0",
        "type": "t_uint8"
      },
      {
        "astId": 811,
        "contract": "contracts/HyperCertSVG.sol:HyperCertSVG",
        "label": "_initializing",
        "offset": 1,
        "slot": "0",
        "type": "t_bool"
      },
      {
        "astId": 1372,
        "contract": "contracts/HyperCertSVG.sol:HyperCertSVG",
        "label": "__gap",
        "offset": 0,
        "slot": "1",
        "type": "t_array(t_uint256)50_storage"
      },
      {
        "astId": 1702,
        "contract": "contracts/HyperCertSVG.sol:HyperCertSVG",
        "label": "__gap",
        "offset": 0,
        "slot": "51",
        "type": "t_array(t_uint256)50_storage"
      },
      {
        "astId": 39,
        "contract": "contracts/HyperCertSVG.sol:HyperCertSVG",
        "label": "_roles",
        "offset": 0,
        "slot": "101",
        "type": "t_mapping(t_bytes32,t_struct(RoleData)34_storage)"
      },
      {
        "astId": 338,
        "contract": "contracts/HyperCertSVG.sol:HyperCertSVG",
        "label": "__gap",
        "offset": 0,
        "slot": "102",
        "type": "t_array(t_uint256)49_storage"
      },
      {
        "astId": 790,
        "contract": "contracts/HyperCertSVG.sol:HyperCertSVG",
        "label": "__gap",
        "offset": 0,
        "slot": "151",
        "type": "t_array(t_uint256)50_storage"
      },
      {
        "astId": 1087,
        "contract": "contracts/HyperCertSVG.sol:HyperCertSVG",
        "label": "__gap",
        "offset": 0,
        "slot": "201",
        "type": "t_array(t_uint256)50_storage"
      },
      {
        "astId": 1744,
        "contract": "contracts/HyperCertSVG.sol:HyperCertSVG",
        "label": "_version",
        "offset": 0,
        "slot": "251",
        "type": "t_uint16"
      },
      {
        "astId": 1749,
        "contract": "contracts/HyperCertSVG.sol:HyperCertSVG",
        "label": "backgrounds",
        "offset": 0,
        "slot": "252",
        "type": "t_mapping(t_uint256,t_string_storage)"
      },
      {
        "astId": 1751,
        "contract": "contracts/HyperCertSVG.sol:HyperCertSVG",
        "label": "backgroundCounter",
        "offset": 0,
        "slot": "253",
        "type": "t_uint256"
      }
    ],
    "types": {
      "t_address": {
        "encoding": "inplace",
        "label": "address",
        "numberOfBytes": "20"
      },
      "t_array(t_uint256)49_storage": {
        "base": "t_uint256",
        "encoding": "inplace",
        "label": "uint256[49]",
        "numberOfBytes": "1568"
      },
      "t_array(t_uint256)50_storage": {
        "base": "t_uint256",
        "encoding": "inplace",
        "label": "uint256[50]",
        "numberOfBytes": "1600"
      },
      "t_bool": {
        "encoding": "inplace",
        "label": "bool",
        "numberOfBytes": "1"
      },
      "t_bytes32": {
        "encoding": "inplace",
        "label": "bytes32",
        "numberOfBytes": "32"
      },
      "t_mapping(t_address,t_bool)": {
        "encoding": "mapping",
        "key": "t_address",
        "label": "mapping(address => bool)",
        "numberOfBytes": "32",
        "value": "t_bool"
      },
      "t_mapping(t_bytes32,t_struct(RoleData)34_storage)": {
        "encoding": "mapping",
        "key": "t_bytes32",
        "label": "mapping(bytes32 => struct AccessControlUpgradeable.RoleData)",
        "numberOfBytes": "32",
        "value": "t_struct(RoleData)34_storage"
      },
      "t_mapping(t_uint256,t_string_storage)": {
        "encoding": "mapping",
        "key": "t_uint256",
        "label": "mapping(uint256 => string)",
        "numberOfBytes": "32",
        "value": "t_string_storage"
      },
      "t_string_storage": {
        "encoding": "bytes",
        "label": "string",
        "numberOfBytes": "32"
      },
      "t_struct(RoleData)34_storage": {
        "encoding": "inplace",
        "label": "struct AccessControlUpgradeable.RoleData",
        "members": [
          {
            "astId": 31,
            "contract": "contracts/HyperCertSVG.sol:HyperCertSVG",
            "label": "members",
            "offset": 0,
            "slot": "0",
            "type": "t_mapping(t_address,t_bool)"
          },
          {
            "astId": 33,
            "contract": "contracts/HyperCertSVG.sol:HyperCertSVG",
            "label": "adminRole",
            "offset": 0,
            "slot": "1",
            "type": "t_bytes32"
          }
        ],
        "numberOfBytes": "64"
      },
      "t_uint16": {
        "encoding": "inplace",
        "label": "uint16",
        "numberOfBytes": "2"
      },
      "t_uint256": {
        "encoding": "inplace",
        "label": "uint256",
        "numberOfBytes": "32"
      },
      "t_uint8": {
        "encoding": "inplace",
        "label": "uint8",
        "numberOfBytes": "1"
      }
    }
  }
}