{
  "address": "0xDEa91c75C5ECafF5a73b6e5aC5EA26B6165f0E4A",
  "abi": [
    {
      "inputs": [],
      "stateMutability": "nonpayable",
      "type": "constructor"
    },
    {
      "anonymous": false,
      "inputs": [
        {
          "indexed": false,
          "internalType": "uint256",
          "name": "id",
          "type": "uint256"
        }
      ],
      "name": "BackgroundAdded",
      "type": "event"
    },
    {
      "inputs": [
        {
          "internalType": "string",
          "name": "svgString",
          "type": "string"
        }
      ],
      "name": "addBackground",
      "outputs": [
        {
          "internalType": "uint256",
          "name": "id",
          "type": "uint256"
        }
      ],
      "stateMutability": "nonpayable",
      "type": "function"
    },
    {
      "inputs": [
        {
          "internalType": "string",
          "name": "name",
          "type": "string"
        },
        {
          "internalType": "string[]",
          "name": "scopesOfImpact",
          "type": "string[]"
        },
        {
          "internalType": "uint64[2]",
          "name": "workTimeframe",
          "type": "uint64[2]"
        },
        {
          "internalType": "uint64[2]",
          "name": "impactTimeframe",
          "type": "uint64[2]"
        },
        {
          "internalType": "uint256",
          "name": "units",
          "type": "uint256"
        },
        {
          "internalType": "uint256",
          "name": "totalUnits",
          "type": "uint256"
        }
      ],
      "name": "generateSvgFraction",
      "outputs": [
        {
          "internalType": "string",
          "name": "",
          "type": "string"
        }
      ],
      "stateMutability": "view",
      "type": "function"
    },
    {
      "inputs": [
        {
          "internalType": "string",
          "name": "name",
          "type": "string"
        },
        {
          "internalType": "string[]",
          "name": "scopesOfImpact",
          "type": "string[]"
        },
        {
          "internalType": "uint64[2]",
          "name": "workTimeframe",
          "type": "uint64[2]"
        },
        {
          "internalType": "uint64[2]",
          "name": "impactTimeframe",
          "type": "uint64[2]"
        },
        {
          "internalType": "uint256",
          "name": "totalUnits",
          "type": "uint256"
        }
      ],
      "name": "generateSvgHypercert",
      "outputs": [
        {
          "internalType": "string",
          "name": "",
          "type": "string"
        }
      ],
      "stateMutability": "view",
      "type": "function"
    },
    {
      "inputs": [
        {
          "internalType": "uint256",
          "name": "part",
          "type": "uint256"
        },
        {
          "internalType": "uint256",
          "name": "whole",
          "type": "uint256"
        }
      ],
      "name": "getPercent",
      "outputs": [
        {
          "internalType": "uint256",
          "name": "percent",
          "type": "uint256"
        }
      ],
      "stateMutability": "pure",
      "type": "function"
    }
  ],
  "transactionHash": "0x8cd3c301178dad3cebbb4c9739bfd039ed04627c16d80b799d00fe3b30caf81a",
  "args": [],
  "numDeployments": 1,
  "solcInputHash": "694ff827088e4c31ae4bf8590d979b72",
  "bytecode": "0x6080604052600060015534801561001557600080fd5b50612af7806100256000396000f3fe608060405234801561001057600080fd5b506004361061004c5760003560e01c806315022bf4146100515780635e70664c1461007a578063622198661461009b5780638ac1da72146100ae575b600080fd5b61006461005f36600461186e565b6100c1565b604051610071919061194d565b60405180910390f35b61008d610088366004611967565b6100fe565b604051908152602001610071565b61008d6100a936600461199c565b61016a565b6100646100bc3660046119be565b6101b7565b60606100cb611644565b86815260208101869052604081018590526060810184905260a081018390526100f3816101fc565b979650505050505050565b60015460008181526020819052604090206101198382611ae1565b506040518181527fabb811cda210349363acfb5609934d3717818d26783decefcd058c05030652f09060200160405180910390a1600180600082825461015f9190611bb7565b909155509092915050565b60008061017a84620186a0611bca565b905083811161018857600080fd5b60006101948483611bff565b61019f906005611bb7565b90506101ac600a82611bff565b925050505b92915050565b60606101c1611644565b8781526020810187905260408101869052606081018590526080810184905260a081018390526101f08161025d565b98975050505050505050565b60606102066102b2565b61020e61036d565b61021784610428565b61022085610623565b61022986610ade565b61023287610c20565b60405160200161024796959493929190611c2f565b6040516020818303038152906040529050919050565b60606102676102b2565b61026f61036d565b61027884610428565b61028185610623565b61028a86610ade565b61029387610cf3565b61029c88610c20565b6040516020016102479796959493929190611d69565b6060604051602001610359907f3c726563742069643d226261636b67726f756e642d636f6c6f722d322220646181527f74612d6e616d653d226261636b67726f756e642d636f6c6f722220783d222e3560208201527f2220793d2230222077696474683d2235353022206865696768743d223835302260408201527f2072783d223332222072793d223332222f3e0000000000000000000000000000606082015260720190565b604051602081830303815290604052905090565b60008080526020527fad3228b676f7d3cd4284a5443f17f1962b36e491b30a40b2405849e597ba5fb58054606091906103a590611a58565b80601f01602080910402602001604051908101604052809291908181526020018280546103d190611a58565b801561041e5780601f106103f35761010080835404028352916020019161041e565b820191906000526020600020905b81548152906001019060200180831161040157829003601f168201915b5050505050905090565b6060600080600061045d856040015160006002811061044957610449611eb8565b602002015167ffffffffffffffff16610de0565b9250925092506000806000610482886040015160016002811061044957610449611eb8565b925092509250604051602001610553907f3c706174682069643d22666f726567726f756e642d636f6c6f722d322220646181527f74612d6e616d653d22666f726567726f756e642d636f6c6f722220643d224d3460208201527f33352c3737372e383348313135762d3530483433357635305a6d302d3533322e60408201527f3833483131357633363048343335563234355a6d302d3132322e38334831313560608201527f762d3530483433357635305a222f3e00000000000000000000000000000000006080820152608f0190565b60405160208183030381529060405261056b87610dff565b61057487610dff565b61057d87610dff565b60405160200161058f93929190611ece565b6040516020818303038152906040526105a785610dff565b6105b085610dff565b6105b985610dff565b6040516020016105cb93929190611ece565b60408051601f19818403018152908290526105e99291602001611f28565b60408051601f19818403018152908290526106079291602001612195565b6040516020818303038152906040529650505050505050919050565b60606000826000015160405160200161063c91906121c4565b60408051601f19818403018152828252855183830183526000808552602094850181905283518085019094528151845290840193830193909352925061068190610f20565b9050600d811115610a98578351604080518082018252600080825260209182018190528251808401845284518152938201848301528251808401845260018152600160fd1b8184019081528451808601865283815284018390528451808601865291518252818401528351600680825260e082019095529093919283928392839290919082015b60408051808201909152600080825260208201528152602001906001900390816107085750506040805160038082526080820190925291925060009190602082015b606081526020019060019003908161074a5790505090505b60038510156109c15760006107778888610ff9565b905061078281511590565b1561081c578783868151811061079a5761079a611eb8565b60200260200101819052506107f9836107f3604051806040016040528060018152602001600160fd1b81525060408051808201825260008082526020918201528151808301909252825182529182019181019190915290565b9061101f565b82878151811061080b5761080b611eb8565b6020026020010181905250506109c1565b600a61082782610f20565b6108319086611bb7565b111561097a578560020361089957604080518082018252600381526217171760e91b6020808301918252835180850185526000808252908201528351808501909452915183529082015283868151811061088d5761088d611eb8565b60200260200101819052505b60408051808201825260018152600160fd1b602080830191825283518085018552600080825290820152835180850190945291518352908201526108de9084906107f3565b8287815181106108f0576108f0611eb8565b6020908102919091010152610906600187611bb7565b60408051600680825260e08201909252919750816020015b604080518082019091526000808252602082015281526020019060019003908161091e579050509250808360008151811061095b5761095b611eb8565b602002602001018190525061096f81610f20565b9350600194506109bb565b61098381610f20565b61098d9085611bb7565b9350808386815181106109a2576109a2611eb8565b60209081029190910101526109b8600186611bb7565b94505b50610762565b806000815181106109d4576109d4611eb8565b60200260200101516040516020016109ec91906121c4565b60405160208183030381529060405281600181518110610a0e57610a0e611eb8565b6020026020010151604051602001610a26919061221b565b60405160208183030381529060405282600281518110610a4857610a48611eb8565b6020026020010151604051602001610a609190612272565b60408051601f1981840301815290829052610a7f9392916020016122aa565b6040516020818303038152906040529850505050505050505b81604051602001610aa991906122ed565b60408051601f1981840301815290829052610ac6916020016123cb565b60405160208183030381529060405292505050919050565b606060008260200151600081518110610af957610af9611eb8565b6020026020010151604051602001610b1191906121c4565b60408051601f198184030181529190526020840151519091506001811115610c0f578360200151600081518110610b4a57610b4a611eb8565b6020026020010151604051602001610b62919061244e565b6040516020818303038152906040528460200151600181518110610b8857610b88611eb8565b6020026020010151604051602001610ba091906121c4565b6040516020818303038152906040528560200151600281518110610bc657610bc6611eb8565b6020026020010151604051602001610bde91906124a5565b60408051601f1981840301815290829052610bfd9392916020016122aa565b60405160208183030381529060405291505b81604051602001610ac691906124dd565b60606000806000610c41856060015160006002811061044957610449611eb8565b9250925092506000806000610c66886060015160016002811061044957610449611eb8565b925092509250610c7586610dff565b610c7e86610dff565b610c8786610dff565b604051602001610c9993929190611ece565b604051602081830303815290604052610cb184610dff565b610cba84610dff565b610cc384610dff565b604051602001610cd593929190611ece565b60408051601f19818403018152908290526106079291602001612607565b6060610d386040518060400160405280600781526020017f556e6974733a200000000000000000000000000000000000000000000000000081525083608001516111c3565b610d7b6040518060400160405280600c81526020017f746f74616c556e6974733a2000000000000000000000000000000000000000008152508360a001516111c3565b6000610d8f83608001518460a0015161016a565b9050610d9c816002611221565b604051602001610dac91906127aa565b60408051601f1981840301815290829052610dc9916020016127d0565b604051602081830303815290604052915050919050565b60008080610df262015180850461134d565b9196909550909350915050565b606081600003610e265750506040805180820190915260018152600360fc1b602082015290565b8160005b8115610e505780610e3a81612920565b9150610e499050600a83611bff565b9150610e2a565b60008167ffffffffffffffff811115610e6b57610e6b6116a4565b6040519080825280601f01601f191660200182016040528015610e95576020820181803683370190505b5090505b8415610f1857610eaa600183612939565b9150610eb7600a8661294c565b610ec2906030611bb7565b60f81b818381518110610ed757610ed7611eb8565b60200101907effffffffffffffffffffffffffffffffffffffffffffffffffffffffffffff1916908160001a905350610f11600a86611bff565b9450610e99565b949350505050565b600080601f8360200151610f349190612939565b8351909150600090610f469083611bb7565b9050600092505b80821015610ff257815160ff166080811015610f7557610f6e600184611bb7565b9250610fdf565b60e08160ff161015610f8c57610f6e600284611bb7565b60f08160ff161015610fa357610f6e600384611bb7565b60f88160ff161015610fba57610f6e600484611bb7565b60fc8160ff161015610fd157610f6e600584611bb7565b610fdc600684611bb7565b92505b5082610fea81612920565b935050610f4d565b5050919050565b60408051808201909152600080825260208201526110188383836113e9565b5092915050565b6060815160000361103f57506040805160208101909152600081526101b1565b60006001835161104f9190612939565b845161105b9190611bca565b905060005b83518110156110a65783818151811061107b5761107b611eb8565b602002602001015160000151826110929190611bb7565b91508061109e81612920565b915050611060565b5060008167ffffffffffffffff8111156110c2576110c26116a4565b6040519080825280601f01601f1916602001820160405280156110ec576020820181803683370190505b5090506020810160005b85518110156111b8576111448287838151811061111557611115611eb8565b60200260200101516020015188848151811061113357611133611eb8565b602002602001015160000151611494565b85818151811061115657611156611eb8565b6020026020010151600001518261116d9190611bb7565b91506001865161117d9190612939565b8110156111a6576111978288602001518960000151611494565b86516111a39083611bb7565b91505b806111b081612920565b9150506110f6565b509095945050505050565b61121d82826040516024016111d9929190612960565b60408051601f198184030181529190526020810180517bffffffffffffffffffffffffffffffffffffffffffffffffffffffff16632d839cb360e21b17905261150e565b5050565b60606112626040518060400160405280600681526020017f53656c663a200000000000000000000000000000000000000000000000000000815250846111c3565b600061126f83600a612a66565b905060006112856112808387611bff565b610dff565b90506000611296611280848861294c565b90506000815190506000836040516020016112b19190612a75565b60405160208183030381529060405290508660ff1682101561131e5760005b6112dd8360ff8a16612939565b8160ff16101561131c57816040516020016112f89190612a9a565b6040516020818303038152906040529150808061131490612abf565b9150506112d0565b505b8083604051602001611331929190612195565b6040516020818303038152906040529550505050505092915050565b60008080836226496581018262023ab1600483020590506004600362023ab18302010590910390600062164b09610fa0600185010205905060046105b58202058303601f019250600061098f84605002816113aa576113aa611be9565b0590506000605061098f83020585039050600b820560301994909401606402929092018301996002600c90940290910392909201975095509350505050565b6040805180820190915260008082526020820152600061141b856000015186602001518660000151876020015161152f565b6020808701805191860191909152519091506114379082612939565b83528451602086015161144a9190611bb7565b8103611459576000855261148b565b835183516114679190611bb7565b85518690611476908390612939565b90525083516114859082611bb7565b60208601525b50909392505050565b602081106114cc57815183526114ab602084611bb7565b92506114b8602083611bb7565b91506114c5602082612939565b9050611494565b60001981156114fb5760016114e2836020612939565b6114ee90610100612ade565b6114f89190612939565b90505b9151835183169219169190911790915250565b80516a636f6e736f6c652e6c6f67602083016000808483855afa5050505050565b6000838186851161163a57602085116115e9576000851561157b576001611557876020612939565b611562906008611bca565b61156d906002612ade565b6115779190612939565b1990505b8451811660008761158c8b8b611bb7565b6115969190612939565b855190915083165b8281146115db578186106115c3576115b68b8b611bb7565b9650505050505050610f18565b856115cd81612920565b96505083865116905061159e565b859650505050505050610f18565b508383206000905b6115fb8689612939565b8211611638578583208082036116175783945050505050610f18565b611622600185611bb7565b935050818061163090612920565b9250506115f1565b505b6100f38787611bb7565b6040518060c001604052806060815260200160608152602001611665611686565b8152602001611672611686565b815260200160008152602001600081525090565b60405180604001604052806002906020820280368337509192915050565b634e487b7160e01b600052604160045260246000fd5b604051601f8201601f1916810167ffffffffffffffff811182821017156116e3576116e36116a4565b604052919050565b600082601f8301126116fc57600080fd5b813567ffffffffffffffff811115611716576117166116a4565b611729601f8201601f19166020016116ba565b81815284602083860101111561173e57600080fd5b816020850160208301376000918101602001919091529392505050565b600082601f83011261176c57600080fd5b8135602067ffffffffffffffff80831115611789576117896116a4565b8260051b6117988382016116ba565b93845285810183019383810190888611156117b257600080fd5b84880192505b858310156101f0578235848111156117d05760008081fd5b6117de8a87838c01016116eb565b83525091840191908401906117b8565b600082601f8301126117ff57600080fd5b6040516040810167ffffffffffffffff8282108183111715611823576118236116a4565b6040918252829185018681111561183957600080fd5b855b8181101561186257803583811681146118545760008081fd5b84526020938401930161183b565b50929695505050505050565b600080600080600060e0868803121561188657600080fd5b853567ffffffffffffffff8082111561189e57600080fd5b6118aa89838a016116eb565b965060208801359150808211156118c057600080fd5b506118cd8882890161175b565b9450506118dd87604088016117ee565b92506118ec87608088016117ee565b9497939650919460c0013592915050565b60005b83811015611918578181015183820152602001611900565b50506000910152565b600081518084526119398160208601602086016118fd565b601f01601f19169290920160200192915050565b6020815260006119606020830184611921565b9392505050565b60006020828403121561197957600080fd5b813567ffffffffffffffff81111561199057600080fd5b610f18848285016116eb565b600080604083850312156119af57600080fd5b50508035926020909101359150565b60008060008060008061010087890312156119d857600080fd5b863567ffffffffffffffff808211156119f057600080fd5b6119fc8a838b016116eb565b97506020890135915080821115611a1257600080fd5b50611a1f89828a0161175b565b955050611a2f88604089016117ee565b9350611a3e88608089016117ee565b925060c0870135915060e087013590509295509295509295565b600181811c90821680611a6c57607f821691505b602082108103611a8c57634e487b7160e01b600052602260045260246000fd5b50919050565b601f821115611adc57600081815260208120601f850160051c81016020861015611ab95750805b601f850160051c820191505b81811015611ad857828155600101611ac5565b5050505b505050565b815167ffffffffffffffff811115611afb57611afb6116a4565b611b0f81611b098454611a58565b84611a92565b602080601f831160018114611b445760008415611b2c5750858301515b600019600386901b1c1916600185901b178555611ad8565b600085815260208120601f198616915b82811015611b7357888601518255948401946001909101908401611b54565b5085821015611b915787850151600019600388901b60f8161c191681555b5050505050600190811b01905550565b634e487b7160e01b600052601160045260246000fd5b808201808211156101b1576101b1611ba1565b6000816000190483118215151615611be457611be4611ba1565b500290565b634e487b7160e01b600052601260045260246000fd5b600082611c0e57611c0e611be9565b500490565b60008151611c258185602086016118fd565b9290920192915050565b7f3c7376672077696474683d2235353022206865696768743d223835302220766981527f6577426f783d2230203020353530203835302220786d6c6e733d22687474703a60208201527f2f2f7777772e77332e6f72672f323030302f7376672220786d6c6e733a786c6960408201527f6e6b3d22687474703a2f2f7777772e77332e6f72672f313939392f786c696e6b606082015261111f60f11b608082015260006082820188516020611ce68284838e016118fd565b89519190920191611cfa8284838d016118fd565b88519190920191611d0e8284838c016118fd565b87519190920191611d228284838b016118fd565b86519190920191611d368284838a016118fd565b85519190920191611d4a82848389016118fd565b50651e17b9bb339f60d11b910190815260060198975050505050505050565b7f3c7376672077696474683d2235353022206865696768743d223835302220766981527f6577426f783d2230203020353530203835302220786d6c6e733d22687474703a60208201527f2f2f7777772e77332e6f72672f323030302f7376672220786d6c6e733a786c6960408201527f6e6b3d22687474703a2f2f7777772e77332e6f72672f313939392f786c696e6b606082015261111f60f11b608082015260006082820189516020611e208284838f016118fd565b8a519190920191611e348284838e016118fd565b89519190920191611e488284838d016118fd565b88519190920191611e5c8284838c016118fd565b87519190920191611e708284838b016118fd565b86519190920191611e848284838a016118fd565b85519190920191611e9882848389016118fd565b50651e17b9bb339f60d11b91019081526006019998505050505050505050565b634e487b7160e01b600052603260045260246000fd5b60008451611ee08184602089016118fd565b8083019050602d60f81b8082528551611f00816001850160208a016118fd565b60019201918201528351611f1b8160028401602088016118fd565b0160020195945050505050565b7f3c672069643d22646976696465722d636f6c6f722220746578742d72656e646581527f72696e673d226f7074696d697a6553706565642220666f6e742d73697a653d2260208201527f3130222066696c6c3d2223666663653433223e0000000000000000000000000060408201527f3c706174682069643d22646976696465722d636f6c6f722d322220646174612d60538201527f6e616d653d22646976696465722d636f6c6f722220643d224d3135362e33352c60738201527f3531342e3539683233372e333122207374796c653d2266696c6c3a206e6f6e6560938201527f3b207374726f6b653a20236666636534333b207374726f6b652d6d697465726c60b38201527f696d69743a2031303b207374726f6b652d77696474683a203270783b222f3e0060d38201527f3c746578742069643d22776f726b2d706572696f642d636f6c6f72222074726160f28201527f6e73666f726d3d227472616e736c617465283133342e3735203130322e3036296101128201527f22207374796c653d22666f6e742d66616d696c793a2048656c7665746963613b6101328201527f20666f6e742d73697a653a20313570783b223e000000000000000000000000006101528201527f3c747370616e20783d22302220793d223022207374796c653d226c65747465726101658201527f2d73706163696e673a202d2e3035656d3b223e576f726b20506572696f643a206101858201526000610f1861216c6121666121576101a5860188611c13565b620101f160ed1b815260030190565b85611c13565b7f3c2f747370616e3e3c2f746578743e3c2f673e00000000000000000000000000815260130190565b600083516121a78184602088016118fd565b8351908301906121bb8183602088016118fd565b01949350505050565b7f3c747370616e20783d22302220793d2230223e000000000000000000000000008152600082516121fc8160138501602087016118fd565b671e17ba39b830b71f60c11b6013939091019283015250601b01919050565b7f3c747370616e20783d22302220793d223336223e0000000000000000000000008152600082516122538160148501602087016118fd565b671e17ba39b830b71f60c11b6014939091019283015250601c01919050565b7f3c747370616e20783d22302220793d223732223e0000000000000000000000008152600082516122538160148501602087016118fd565b600084516122bc8184602089016118fd565b8451908301906122d08183602089016118fd565b84519101906122e38183602088016118fd565b0195945050505050565b7f3c746578742069643d226e616d652d636f6c6f722d3222207472616e73666f7281527f6d3d227472616e736c617465283135362e3335203330302922207374796c653d60208201527f2266696c6c3a20236666636534333b20666f6e742d66616d696c793a204d6f6e60408201527f61636f3b223e00000000000000000000000000000000000000000000000000006060820152600082516123978160668501602087016118fd565b7f3c2f746578743e000000000000000000000000000000000000000000000000006066939091019283015250606d01919050565b7f3c672069643d226e616d652d636f6c6f722220746578742d72656e646572696e81527f673d226f7074696d697a6553706565642220666f6e742d73697a653d223330226020820152601f60f91b6040820152600082516124338160418501602087016118fd565b631e17b39f60e11b6041939091019283015250604501919050565b7f3c747370616e20783d22302220793d222d3230223e00000000000000000000008152600082516124868160158501602087016118fd565b671e17ba39b830b71f60c11b6015939091019283015250601d01919050565b7f3c747370616e20783d22302220793d223230223e0000000000000000000000008152600082516122538160148501602087016118fd565b7f3c672069643d226465736372697074696f6e2d636f6c6f722220746578742d7281527f656e646572696e673d226f7074696d697a6553706565642220666f6e742d736960208201527f7a653d223135222066696c6c3d227768697465223e000000000000000000000060408201527f3c74657874207472616e73666f726d3d227472616e736c61746528313535203460558201527f38302922207374796c653d22666f6e742d66616d696c793a2048656c7665746960758201527f63613b20666f6e742d73697a653a20313570783b223e000000000000000000006095820152600082516125d38160ab8501602087016118fd565b7f3c2f746578743e3c2f673e00000000000000000000000000000000000000000060ab93909101928301525060b601919050565b7f3c672069643d22696d706163742d706572696f642d636f6c6f7222207465787481527f2d72656e646572696e673d226f7074696d697a6553706565642220666f6e742d60208201527f73697a653d223130222066696c6c3d2223666663653433223e0000000000000060408201527f3c746578742069643d22696d706163742d706572696f642d636f6c6f722d322260598201527f207472616e73666f726d3d227472616e736c617465283133342e37352037353860798201527f2922207374796c653d22666f6e742d66616d696c793a2048656c76657469636160998201527f3b20666f6e742d73697a653a20313570783b223e00000000000000000000000060b98201527f3c747370616e20783d22302220793d223022207374796c653d226c657474657260cd8201527f2d73706163696e673a202d2e3035656d3b223e496d7061637420506572696f6460ed8201526101d160f51b61010d820152600061010f845161277d81838601602089016118fd565b6127a061216c61279a8484880101620101f160ed1b815260030190565b87611c13565b9695505050505050565b600082516127bc8184602087016118fd565b61202560f01b920191825250600201919050565b7f3c672069643d226672616374696f6e2d636f6c6f722220746578742d72656e6481527f6572696e673d226f7074696d697a6553706565642220666f6e742d73697a653d60208201527f223330223e00000000000000000000000000000000000000000000000000000060408201527f3c746578742069643d226672616374696f6e2d636f6c6f722d3222207472616e60458201527f73666f726d3d227472616e736c617465283135362e3335203536382e3033292260658201527f207374796c653d2266696c6c3a20236666636534333b20666f6e742d66616d6960858201527f6c793a204d6f6e61636f223e3c747370616e20783d22302220793d2230223e0060a5820152600082516128ec8160c48501602087016118fd565b7f3c2f747370616e3e3c2f746578743e3c2f673e0000000000000000000000000060c493909101928301525060d701919050565b60006001820161293257612932611ba1565b5060010190565b818103818111156101b1576101b1611ba1565b60008261295b5761295b611be9565b500690565b6040815260006129736040830185611921565b90508260208301529392505050565b600181815b808511156129bd5781600019048211156129a3576129a3611ba1565b808516156129b057918102915b93841c9390800290612987565b509250929050565b6000826129d4575060016101b1565b816129e1575060006101b1565b81600181146129f75760028114612a0157612a1d565b60019150506101b1565b60ff841115612a1257612a12611ba1565b50506001821b6101b1565b5060208310610133831016604e8410600b8410161715612a40575081810a6101b1565b612a4a8383612982565b8060001904821115612a5e57612a5e611ba1565b029392505050565b600061196060ff8416836129c5565b60008251612a878184602087016118fd565b601760f91b920191825250600101919050565b60008251612aac8184602087016118fd565b600360fc1b920191825250600101919050565b600060ff821660ff8103612ad557612ad5611ba1565b60010192915050565b600061196083836129c556fea164736f6c6343000810000a",
  "devdoc": {
    "kind": "dev",
    "methods": {},
    "stateVariables": {
      "background": {
        "details": "voucher => claimType => background colors"
      }
    },
    "version": 1
  },
  "userdoc": {
    "kind": "user",
    "methods": {},
    "version": 1
  },
  "storageLayout": {
    "storage": [
      {
        "astId": 6572,
        "contract": "contracts/HypercertSVG.sol:HypercertSVG",
        "label": "background",
        "offset": 0,
        "slot": "0",
        "type": "t_mapping(t_uint256,t_string_storage)"
      },
      {
        "astId": 6575,
        "contract": "contracts/HypercertSVG.sol:HypercertSVG",
        "label": "backgroundCounter",
        "offset": 0,
        "slot": "1",
        "type": "t_uint256"
      }
    ],
    "types": {
      "t_mapping(t_uint256,t_string_storage)": {
        "encoding": "mapping",
        "key": "t_uint256",
        "label": "mapping(uint256 => string)",
        "numberOfBytes": "32",
        "value": "t_string_storage"
      },
      "t_string_storage": {
        "encoding": "bytes",
        "label": "string",
        "numberOfBytes": "32"
      },
      "t_uint256": {
        "encoding": "inplace",
        "label": "uint256",
        "numberOfBytes": "32"
      }
    }
  }
}