{
  "address": "0x126abf1ca4db7389b1f5fd3B8a84b3434313854d",
  "abi": [
    {
      "inputs": [],
      "stateMutability": "nonpayable",
      "type": "constructor"
    },
    {
      "anonymous": false,
      "inputs": [
        {
          "indexed": false,
          "internalType": "address",
          "name": "previousAdmin",
          "type": "address"
        },
        {
          "indexed": false,
          "internalType": "address",
          "name": "newAdmin",
          "type": "address"
        }
      ],
      "name": "AdminChanged",
      "type": "event"
    },
    {
      "anonymous": false,
      "inputs": [
        {
          "indexed": true,
          "internalType": "address",
          "name": "account",
          "type": "address"
        },
        {
          "indexed": true,
          "internalType": "address",
          "name": "operator",
          "type": "address"
        },
        {
          "indexed": false,
          "internalType": "bool",
          "name": "approved",
          "type": "bool"
        }
      ],
      "name": "ApprovalForAll",
      "type": "event"
    },
    {
      "anonymous": false,
      "inputs": [
        {
          "indexed": true,
          "internalType": "address",
          "name": "beacon",
          "type": "address"
        }
      ],
      "name": "BeaconUpgraded",
      "type": "event"
    },
    {
      "anonymous": false,
      "inputs": [
        {
          "indexed": false,
          "internalType": "uint256",
          "name": "id",
          "type": "uint256"
        },
        {
          "indexed": false,
          "internalType": "bytes32",
          "name": "claimHash",
          "type": "bytes32"
        },
        {
          "indexed": false,
          "internalType": "address[]",
          "name": "contributors",
          "type": "address[]"
        },
        {
          "indexed": false,
          "internalType": "uint256[2]",
          "name": "workTimeframe",
          "type": "uint256[2]"
        },
        {
          "indexed": false,
          "internalType": "uint256[2]",
          "name": "impactTimeframe",
          "type": "uint256[2]"
        },
        {
          "indexed": false,
          "internalType": "bytes32[]",
          "name": "workScopes",
          "type": "bytes32[]"
        },
        {
          "indexed": false,
          "internalType": "bytes32[]",
          "name": "impactScopes",
          "type": "bytes32[]"
        },
        {
          "indexed": false,
          "internalType": "bytes32[]",
          "name": "rights",
          "type": "bytes32[]"
        },
        {
          "indexed": false,
          "internalType": "uint256",
          "name": "version",
          "type": "uint256"
        },
        {
          "indexed": false,
          "internalType": "string",
          "name": "uri",
          "type": "string"
        }
      ],
      "name": "ImpactClaimed",
      "type": "event"
    },
    {
      "anonymous": false,
      "inputs": [
        {
          "indexed": false,
          "internalType": "bytes32",
          "name": "id",
          "type": "bytes32"
        },
        {
          "indexed": false,
          "internalType": "string",
          "name": "text",
          "type": "string"
        }
      ],
      "name": "ImpactScopeAdded",
      "type": "event"
    },
    {
      "anonymous": false,
      "inputs": [
        {
          "indexed": false,
          "internalType": "uint8",
          "name": "version",
          "type": "uint8"
        }
      ],
      "name": "Initialized",
      "type": "event"
    },
    {
      "anonymous": false,
      "inputs": [
        {
          "indexed": false,
          "internalType": "bytes32",
          "name": "id",
          "type": "bytes32"
        },
        {
          "indexed": false,
          "internalType": "string",
          "name": "text",
          "type": "string"
        }
      ],
      "name": "RightAdded",
      "type": "event"
    },
    {
      "anonymous": false,
      "inputs": [
        {
          "indexed": true,
          "internalType": "bytes32",
          "name": "role",
          "type": "bytes32"
        },
        {
          "indexed": true,
          "internalType": "bytes32",
          "name": "previousAdminRole",
          "type": "bytes32"
        },
        {
          "indexed": true,
          "internalType": "bytes32",
          "name": "newAdminRole",
          "type": "bytes32"
        }
      ],
      "name": "RoleAdminChanged",
      "type": "event"
    },
    {
      "anonymous": false,
      "inputs": [
        {
          "indexed": true,
          "internalType": "bytes32",
          "name": "role",
          "type": "bytes32"
        },
        {
          "indexed": true,
          "internalType": "address",
          "name": "account",
          "type": "address"
        },
        {
          "indexed": true,
          "internalType": "address",
          "name": "sender",
          "type": "address"
        }
      ],
      "name": "RoleGranted",
      "type": "event"
    },
    {
      "anonymous": false,
      "inputs": [
        {
          "indexed": true,
          "internalType": "bytes32",
          "name": "role",
          "type": "bytes32"
        },
        {
          "indexed": true,
          "internalType": "address",
          "name": "account",
          "type": "address"
        },
        {
          "indexed": true,
          "internalType": "address",
          "name": "sender",
          "type": "address"
        }
      ],
      "name": "RoleRevoked",
      "type": "event"
    },
    {
      "anonymous": false,
      "inputs": [
        {
          "indexed": true,
          "internalType": "address",
          "name": "operator",
          "type": "address"
        },
        {
          "indexed": true,
          "internalType": "address",
          "name": "from",
          "type": "address"
        },
        {
          "indexed": true,
          "internalType": "address",
          "name": "to",
          "type": "address"
        },
        {
          "indexed": false,
          "internalType": "uint256[]",
          "name": "ids",
          "type": "uint256[]"
        },
        {
          "indexed": false,
          "internalType": "uint256[]",
          "name": "values",
          "type": "uint256[]"
        }
      ],
      "name": "TransferBatch",
      "type": "event"
    },
    {
      "anonymous": false,
      "inputs": [
        {
          "indexed": true,
          "internalType": "address",
          "name": "operator",
          "type": "address"
        },
        {
          "indexed": true,
          "internalType": "address",
          "name": "from",
          "type": "address"
        },
        {
          "indexed": true,
          "internalType": "address",
          "name": "to",
          "type": "address"
        },
        {
          "indexed": false,
          "internalType": "uint256",
          "name": "id",
          "type": "uint256"
        },
        {
          "indexed": false,
          "internalType": "uint256",
          "name": "value",
          "type": "uint256"
        }
      ],
      "name": "TransferSingle",
      "type": "event"
    },
    {
      "anonymous": false,
      "inputs": [
        {
          "indexed": false,
          "internalType": "string",
          "name": "value",
          "type": "string"
        },
        {
          "indexed": true,
          "internalType": "uint256",
          "name": "id",
          "type": "uint256"
        }
      ],
      "name": "URI",
      "type": "event"
    },
    {
      "anonymous": false,
      "inputs": [
        {
          "indexed": true,
          "internalType": "address",
          "name": "implementation",
          "type": "address"
        }
      ],
      "name": "Upgraded",
      "type": "event"
    },
    {
      "anonymous": false,
      "inputs": [
        {
          "indexed": false,
          "internalType": "bytes32",
          "name": "id",
          "type": "bytes32"
        },
        {
          "indexed": false,
          "internalType": "string",
          "name": "text",
          "type": "string"
        }
      ],
      "name": "WorkScopeAdded",
      "type": "event"
    },
    {
      "inputs": [],
      "name": "DEFAULT_ADMIN_ROLE",
      "outputs": [
        {
          "internalType": "bytes32",
          "name": "",
          "type": "bytes32"
        }
      ],
      "stateMutability": "view",
      "type": "function"
    },
    {
      "inputs": [],
      "name": "UPGRADER_ROLE",
      "outputs": [
        {
          "internalType": "bytes32",
          "name": "",
          "type": "bytes32"
        }
      ],
      "stateMutability": "view",
      "type": "function"
    },
    {
      "inputs": [
        {
          "internalType": "string",
          "name": "text",
          "type": "string"
        }
      ],
      "name": "addImpactScope",
      "outputs": [
        {
          "internalType": "bytes32",
          "name": "id",
          "type": "bytes32"
        }
      ],
      "stateMutability": "nonpayable",
      "type": "function"
    },
    {
      "inputs": [
        {
          "internalType": "string",
          "name": "text",
          "type": "string"
        }
      ],
      "name": "addRight",
      "outputs": [
        {
          "internalType": "bytes32",
          "name": "id",
          "type": "bytes32"
        }
      ],
      "stateMutability": "nonpayable",
      "type": "function"
    },
    {
      "inputs": [
        {
          "internalType": "string",
          "name": "text",
          "type": "string"
        }
      ],
      "name": "addWorkScope",
      "outputs": [
        {
          "internalType": "bytes32",
          "name": "id",
          "type": "bytes32"
        }
      ],
      "stateMutability": "nonpayable",
      "type": "function"
    },
    {
      "inputs": [
        {
          "internalType": "address",
          "name": "account",
          "type": "address"
        },
        {
          "internalType": "uint256",
          "name": "id",
          "type": "uint256"
        }
      ],
      "name": "balanceOf",
      "outputs": [
        {
          "internalType": "uint256",
          "name": "",
          "type": "uint256"
        }
      ],
      "stateMutability": "view",
      "type": "function"
    },
    {
      "inputs": [
        {
          "internalType": "address[]",
          "name": "accounts",
          "type": "address[]"
        },
        {
          "internalType": "uint256[]",
          "name": "ids",
          "type": "uint256[]"
        }
      ],
      "name": "balanceOfBatch",
      "outputs": [
        {
          "internalType": "uint256[]",
          "name": "",
          "type": "uint256[]"
        }
      ],
      "stateMutability": "view",
      "type": "function"
    },
    {
      "inputs": [
        {
          "internalType": "address",
          "name": "account",
          "type": "address"
        },
        {
          "internalType": "uint256",
          "name": "id",
          "type": "uint256"
        },
        {
          "internalType": "uint256",
          "name": "value",
          "type": "uint256"
        }
      ],
      "name": "burn",
      "outputs": [],
      "stateMutability": "nonpayable",
      "type": "function"
    },
    {
      "inputs": [
        {
          "internalType": "address",
          "name": "account",
          "type": "address"
        },
        {
          "internalType": "uint256[]",
          "name": "ids",
          "type": "uint256[]"
        },
        {
          "internalType": "uint256[]",
          "name": "values",
          "type": "uint256[]"
        }
      ],
      "name": "burnBatch",
      "outputs": [],
      "stateMutability": "nonpayable",
      "type": "function"
    },
    {
      "inputs": [
        {
          "internalType": "address",
          "name": "",
          "type": "address"
        },
        {
          "internalType": "bytes32",
          "name": "",
          "type": "bytes32"
        }
      ],
      "name": "contributorImpacts",
      "outputs": [
        {
          "internalType": "bool",
          "name": "",
          "type": "bool"
        }
      ],
      "stateMutability": "view",
      "type": "function"
    },
    {
      "inputs": [],
      "name": "counter",
      "outputs": [
        {
          "internalType": "uint256",
          "name": "",
          "type": "uint256"
        }
      ],
      "stateMutability": "view",
      "type": "function"
    },
    {
      "inputs": [
        {
          "internalType": "uint256",
          "name": "id",
          "type": "uint256"
        }
      ],
      "name": "exists",
      "outputs": [
        {
          "internalType": "bool",
          "name": "",
          "type": "bool"
        }
      ],
      "stateMutability": "view",
      "type": "function"
    },
    {
      "inputs": [
        {
          "internalType": "uint256",
          "name": "claimID",
          "type": "uint256"
        }
      ],
      "name": "getImpactCert",
      "outputs": [
        {
          "components": [
            {
              "internalType": "bytes32",
              "name": "claimHash",
              "type": "bytes32"
            },
            {
              "internalType": "address[]",
              "name": "contributors",
              "type": "address[]"
            },
            {
              "internalType": "uint256[2]",
              "name": "workTimeframe",
              "type": "uint256[2]"
            },
            {
              "internalType": "uint256[2]",
              "name": "impactTimeframe",
              "type": "uint256[2]"
            },
            {
              "internalType": "bytes32[]",
              "name": "workScopes",
              "type": "bytes32[]"
            },
            {
              "internalType": "bytes32[]",
              "name": "impactScopes",
              "type": "bytes32[]"
            },
            {
              "internalType": "bytes32[]",
              "name": "rights",
              "type": "bytes32[]"
            },
            {
              "internalType": "uint256",
              "name": "version",
              "type": "uint256"
            },
            {
              "internalType": "bool",
              "name": "exists",
              "type": "bool"
            }
          ],
          "internalType": "struct HypercertMinterV0.Claim",
          "name": "",
          "type": "tuple"
        }
      ],
      "stateMutability": "view",
      "type": "function"
    },
    {
      "inputs": [
        {
          "internalType": "bytes32",
          "name": "role",
          "type": "bytes32"
        }
      ],
      "name": "getRoleAdmin",
      "outputs": [
        {
          "internalType": "bytes32",
          "name": "",
          "type": "bytes32"
        }
      ],
      "stateMutability": "view",
      "type": "function"
    },
    {
      "inputs": [
        {
          "internalType": "bytes32",
          "name": "role",
          "type": "bytes32"
        },
        {
          "internalType": "address",
          "name": "account",
          "type": "address"
        }
      ],
      "name": "grantRole",
      "outputs": [],
      "stateMutability": "nonpayable",
      "type": "function"
    },
    {
      "inputs": [
        {
          "internalType": "bytes32",
          "name": "role",
          "type": "bytes32"
        },
        {
          "internalType": "address",
          "name": "account",
          "type": "address"
        }
      ],
      "name": "hasRole",
      "outputs": [
        {
          "internalType": "bool",
          "name": "",
          "type": "bool"
        }
      ],
      "stateMutability": "view",
      "type": "function"
    },
    {
      "inputs": [
        {
          "internalType": "bytes32",
          "name": "",
          "type": "bytes32"
        }
      ],
      "name": "impactScopes",
      "outputs": [
        {
          "internalType": "string",
          "name": "",
          "type": "string"
        }
      ],
      "stateMutability": "view",
      "type": "function"
    },
    {
      "inputs": [],
      "name": "initialize",
      "outputs": [],
      "stateMutability": "nonpayable",
      "type": "function"
    },
    {
      "inputs": [
        {
          "internalType": "address",
          "name": "account",
          "type": "address"
        },
        {
          "internalType": "address",
          "name": "operator",
          "type": "address"
        }
      ],
      "name": "isApprovedForAll",
      "outputs": [
        {
          "internalType": "bool",
          "name": "",
          "type": "bool"
        }
      ],
      "stateMutability": "view",
      "type": "function"
    },
    {
      "inputs": [
        {
          "internalType": "address",
          "name": "account",
          "type": "address"
        },
        {
          "internalType": "uint256",
          "name": "amount",
          "type": "uint256"
        },
        {
          "internalType": "bytes",
          "name": "data",
          "type": "bytes"
        }
      ],
      "name": "mint",
      "outputs": [],
      "stateMutability": "nonpayable",
      "type": "function"
    },
    {
      "inputs": [],
      "name": "proxiableUUID",
      "outputs": [
        {
          "internalType": "bytes32",
          "name": "",
          "type": "bytes32"
        }
      ],
      "stateMutability": "view",
      "type": "function"
    },
    {
      "inputs": [
        {
          "internalType": "bytes32",
          "name": "role",
          "type": "bytes32"
        },
        {
          "internalType": "address",
          "name": "account",
          "type": "address"
        }
      ],
      "name": "renounceRole",
      "outputs": [],
      "stateMutability": "nonpayable",
      "type": "function"
    },
    {
      "inputs": [
        {
          "internalType": "bytes32",
          "name": "role",
          "type": "bytes32"
        },
        {
          "internalType": "address",
          "name": "account",
          "type": "address"
        }
      ],
      "name": "revokeRole",
      "outputs": [],
      "stateMutability": "nonpayable",
      "type": "function"
    },
    {
      "inputs": [
        {
          "internalType": "bytes32",
          "name": "",
          "type": "bytes32"
        }
      ],
      "name": "rights",
      "outputs": [
        {
          "internalType": "string",
          "name": "",
          "type": "string"
        }
      ],
      "stateMutability": "view",
      "type": "function"
    },
    {
      "inputs": [
        {
          "internalType": "address",
          "name": "from",
          "type": "address"
        },
        {
          "internalType": "address",
          "name": "to",
          "type": "address"
        },
        {
          "internalType": "uint256[]",
          "name": "ids",
          "type": "uint256[]"
        },
        {
          "internalType": "uint256[]",
          "name": "amounts",
          "type": "uint256[]"
        },
        {
          "internalType": "bytes",
          "name": "data",
          "type": "bytes"
        }
      ],
      "name": "safeBatchTransferFrom",
      "outputs": [],
      "stateMutability": "nonpayable",
      "type": "function"
    },
    {
      "inputs": [
        {
          "internalType": "address",
          "name": "from",
          "type": "address"
        },
        {
          "internalType": "address",
          "name": "to",
          "type": "address"
        },
        {
          "internalType": "uint256",
          "name": "id",
          "type": "uint256"
        },
        {
          "internalType": "uint256",
          "name": "amount",
          "type": "uint256"
        },
        {
          "internalType": "bytes",
          "name": "data",
          "type": "bytes"
        }
      ],
      "name": "safeTransferFrom",
      "outputs": [],
      "stateMutability": "nonpayable",
      "type": "function"
    },
    {
      "inputs": [
        {
          "internalType": "address",
          "name": "operator",
          "type": "address"
        },
        {
          "internalType": "bool",
          "name": "approved",
          "type": "bool"
        }
      ],
      "name": "setApprovalForAll",
      "outputs": [],
      "stateMutability": "nonpayable",
      "type": "function"
    },
    {
      "inputs": [
        {
          "internalType": "bytes4",
          "name": "interfaceId",
          "type": "bytes4"
        }
      ],
      "name": "supportsInterface",
      "outputs": [
        {
          "internalType": "bool",
          "name": "",
          "type": "bool"
        }
      ],
      "stateMutability": "view",
      "type": "function"
    },
    {
      "inputs": [
        {
          "internalType": "uint256",
          "name": "id",
          "type": "uint256"
        }
      ],
      "name": "totalSupply",
      "outputs": [
        {
          "internalType": "uint256",
          "name": "",
          "type": "uint256"
        }
      ],
      "stateMutability": "view",
      "type": "function"
    },
    {
      "inputs": [
        {
          "internalType": "address",
          "name": "newImplementation",
          "type": "address"
        }
      ],
      "name": "upgradeTo",
      "outputs": [],
      "stateMutability": "nonpayable",
      "type": "function"
    },
    {
      "inputs": [
        {
          "internalType": "address",
          "name": "newImplementation",
          "type": "address"
        },
        {
          "internalType": "bytes",
          "name": "data",
          "type": "bytes"
        }
      ],
      "name": "upgradeToAndCall",
      "outputs": [],
      "stateMutability": "payable",
      "type": "function"
    },
    {
      "inputs": [
        {
          "internalType": "uint256",
          "name": "tokenId",
          "type": "uint256"
        }
      ],
      "name": "uri",
      "outputs": [
        {
          "internalType": "string",
          "name": "",
          "type": "string"
        }
      ],
      "stateMutability": "view",
      "type": "function"
    },
    {
      "inputs": [],
      "name": "version",
      "outputs": [
        {
          "internalType": "uint256",
          "name": "",
          "type": "uint256"
        }
      ],
      "stateMutability": "pure",
      "type": "function"
    },
    {
      "inputs": [
        {
          "internalType": "bytes32",
          "name": "",
          "type": "bytes32"
        }
      ],
      "name": "workScopes",
      "outputs": [
        {
          "internalType": "string",
          "name": "",
          "type": "string"
        }
      ],
      "stateMutability": "view",
      "type": "function"
    }
  ],
  "numDeployments": 1,
  "solcInputHash": "e10ae1e70375d153f46ce826179c3abd",
  "bytecode": "0x60a0604052306080523480156200001557600080fd5b506200002062000026565b620000e8565b600054610100900460ff1615620000935760405162461bcd60e51b815260206004820152602760248201527f496e697469616c697a61626c653a20636f6e747261637420697320696e697469604482015266616c697a696e6760c81b606482015260840160405180910390fd5b60005460ff9081161015620000e6576000805460ff191660ff9081179091556040519081527f7f26b83ff96e1f2b6a682f133852f6798a09c465da95921460cefb38474024989060200160405180910390a15b565b60805161499d6200012060003960008181610a3701528181610abc01528181610cf001528181610d750152610e5b015261499d6000f3fe6080604052600436106102185760003560e01c806372927aa31161011d578063bd85b039116100b0578063ef6f66d71161007f578063f242432a11610064578063f242432a1461069d578063f5298aca146106bd578063f72c0d8b146106dd57600080fd5b8063ef6f66d71461065d578063f0f11e051461067d57600080fd5b8063bd85b039146105a7578063d52fd095146105d4578063d547741f146105f4578063e985e9c51461061457600080fd5b806394d008ef116100ec57806394d008ef14610532578063997edc6114610552578063a217fddf14610572578063a22cb4651461058757600080fd5b806372927aa31461048a5780638129fc1c146104b75780638f88b767146104cc57806391d14854146104ec57600080fd5b80633659cfe6116101b05780634f558e791161017f57806354fd4d501161016457806354fd4d501461043f57806361bc221a146104535780636b20c4541461046a57600080fd5b80634f558e79146103fb57806352d1902d1461042a57600080fd5b80633659cfe61461035f5780633a3acca51461037f5780634e1273f4146103bb5780634f1ef286146103e857600080fd5b8063248a9ca3116101ec578063248a9ca3146102cd5780632eb2c2d6146102fd5780632f2ff15d1461031f57806336568abe1461033f57600080fd5b8062fdd58e1461021d57806301ffc9a7146102505780630e89341c146102805780631e6ad4b8146102ad575b600080fd5b34801561022957600080fd5b5061023d610238366004613957565b610711565b6040519081526020015b60405180910390f35b34801561025c57600080fd5b5061027061026b366004613999565b6107bf565b6040519015158152602001610247565b34801561028c57600080fd5b506102a061029b3660046139b6565b6107ca565b6040516102479190613a1f565b3480156102b957600080fd5b5061023d6102c8366004613ae3565b6107d5565b3480156102d957600080fd5b5061023d6102e83660046139b6565b60009081526097602052604090206001015490565b34801561030957600080fd5b5061031d610318366004613be9565b6108e3565b005b34801561032b57600080fd5b5061031d61033a366004613c97565b610977565b34801561034b57600080fd5b5061031d61035a366004613c97565b6109a1565b34801561036b57600080fd5b5061031d61037a366004613cc7565b610a2d565b34801561038b57600080fd5b5061027061039a366004613957565b6101c860209081526000928352604080842090915290825290205460ff1681565b3480156103c757600080fd5b506103db6103d6366004613ce4565b610ba8565b6040516102479190613dec565b61031d6103f6366004613dff565b610ce6565b34801561040757600080fd5b506102706104163660046139b6565b600090815260fb6020526040902054151590565b34801561043657600080fd5b5061023d610e4e565b34801561044b57600080fd5b50600061023d565b34801561045f57600080fd5b5061023d6101c45481565b34801561047657600080fd5b5061031d610485366004613e45565b610f14565b34801561049657600080fd5b506104aa6104a53660046139b6565b610f9f565b6040516102479190613f17565b3480156104c357600080fd5b5061031d6111be565b3480156104d857600080fd5b506102a06104e73660046139b6565b611354565b3480156104f857600080fd5b50610270610507366004613c97565b60009182526097602090815260408084206001600160a01b0393909316845291905290205460ff1690565b34801561053e57600080fd5b5061031d61054d366004613fed565b6113ef565b34801561055e57600080fd5b5061023d61056d366004613ae3565b6117dd565b34801561057e57600080fd5b5061023d600081565b34801561059357600080fd5b5061031d6105a236600461403c565b6118de565b3480156105b357600080fd5b5061023d6105c23660046139b6565b600090815260fb602052604090205490565b3480156105e057600080fd5b506102a06105ef3660046139b6565b6118e9565b34801561060057600080fd5b5061031d61060f366004613c97565b611903565b34801561062057600080fd5b5061027061062f36600461406f565b6001600160a01b03918216600090815260666020908152604080832093909416825291909152205460ff1690565b34801561066957600080fd5b506102a06106783660046139b6565b611928565b34801561068957600080fd5b5061023d610698366004613ae3565b611942565b3480156106a957600080fd5b5061031d6106b836600461409d565b611a43565b3480156106c957600080fd5b5061031d6106d8366004614106565b611ad0565b3480156106e957600080fd5b5061023d7f189ab7a9244df0848122154315af71fe140f3db0fe014031783b0946b8c9d2e381565b60006001600160a01b0383166107945760405162461bcd60e51b815260206004820152602a60248201527f455243313135353a2061646472657373207a65726f206973206e6f742061207660448201527f616c6964206f776e65720000000000000000000000000000000000000000000060648201526084015b60405180910390fd5b5060008181526065602090815260408083206001600160a01b03861684529091529020545b92915050565b60006107b982611b5b565b60606107b982611b80565b6000808251116108275760405162461bcd60e51b815260206004820152601a60248201527f616464496d7061637453636f70653a20656d7074792074657874000000000000604482015260640161078b565b61083082611c62565b905061083e6101c682611c92565b1561088b5760405162461bcd60e51b815260206004820152601e60248201527f616464496d7061637453636f70653a20616c7265616479206578697374730000604482015260640161078b565b60008181526101c6602052604090206108a483826141bb565b507f2efcce702e3d0b95b3deb632da6d41c3d169e0c3effb9066d949f14d6f13224f81836040516108d692919061427b565b60405180910390a1919050565b6001600160a01b0385163314806108ff57506108ff853361062f565b6109635760405162461bcd60e51b815260206004820152602f60248201527f455243313135353a2063616c6c6572206973206e6f7420746f6b656e206f776e60448201526e195c881b9bdc88185c1c1c9bdd9959608a1b606482015260840161078b565b6109708585858585611cb9565b5050505050565b60008281526097602052604090206001015461099281611f28565b61099c8383611f32565b505050565b6001600160a01b0381163314610a1f5760405162461bcd60e51b815260206004820152602f60248201527f416363657373436f6e74726f6c3a2063616e206f6e6c792072656e6f756e636560448201527f20726f6c657320666f722073656c660000000000000000000000000000000000606482015260840161078b565b610a298282611fd4565b5050565b6001600160a01b037f0000000000000000000000000000000000000000000000000000000000000000163003610aba5760405162461bcd60e51b815260206004820152602c60248201527f46756e6374696f6e206d7573742062652063616c6c6564207468726f7567682060448201526b19195b1959d85d1958d85b1b60a21b606482015260840161078b565b7f00000000000000000000000000000000000000000000000000000000000000006001600160a01b0316610b157f360894a13ba1a3210667c828492db98dca3e2076cc3735a920a3ca505d382bbc546001600160a01b031690565b6001600160a01b031614610b805760405162461bcd60e51b815260206004820152602c60248201527f46756e6374696f6e206d7573742062652063616c6c6564207468726f7567682060448201526b6163746976652070726f787960a01b606482015260840161078b565b610b8981612057565b60408051600080825260208201909252610ba591839190612081565b50565b60608151835114610c215760405162461bcd60e51b815260206004820152602960248201527f455243313135353a206163636f756e747320616e6420696473206c656e67746860448201527f206d69736d617463680000000000000000000000000000000000000000000000606482015260840161078b565b6000835167ffffffffffffffff811115610c3d57610c3d613a32565b604051908082528060200260200182016040528015610c66578160200160208202803683370190505b50905060005b8451811015610cde57610cb1858281518110610c8a57610c8a614294565b6020026020010151858381518110610ca457610ca4614294565b6020026020010151610711565b828281518110610cc357610cc3614294565b6020908102919091010152610cd7816142c0565b9050610c6c565b509392505050565b6001600160a01b037f0000000000000000000000000000000000000000000000000000000000000000163003610d735760405162461bcd60e51b815260206004820152602c60248201527f46756e6374696f6e206d7573742062652063616c6c6564207468726f7567682060448201526b19195b1959d85d1958d85b1b60a21b606482015260840161078b565b7f00000000000000000000000000000000000000000000000000000000000000006001600160a01b0316610dce7f360894a13ba1a3210667c828492db98dca3e2076cc3735a920a3ca505d382bbc546001600160a01b031690565b6001600160a01b031614610e395760405162461bcd60e51b815260206004820152602c60248201527f46756e6374696f6e206d7573742062652063616c6c6564207468726f7567682060448201526b6163746976652070726f787960a01b606482015260840161078b565b610e4282612057565b610a2982826001612081565b6000306001600160a01b037f00000000000000000000000000000000000000000000000000000000000000001614610eee5760405162461bcd60e51b815260206004820152603860248201527f555550535570677261646561626c653a206d757374206e6f742062652063616c60448201527f6c6564207468726f7567682064656c656761746563616c6c0000000000000000606482015260840161078b565b507f360894a13ba1a3210667c828492db98dca3e2076cc3735a920a3ca505d382bbc5b90565b6001600160a01b038316331480610f305750610f30833361062f565b610f945760405162461bcd60e51b815260206004820152602f60248201527f455243313135353a2063616c6c6572206973206e6f7420746f6b656e206f776e60448201526e195c881b9bdc88185c1c1c9bdd9959608a1b606482015260840161078b565b61099c838383612221565b610fa76137dc565b60008281526101c96020908152604091829020825161012081018452815481526001820180548551818602810186019096528086529194929385810193929083018282801561101f57602002820191906000526020600020905b81546001600160a01b03168152600190910190602001808311611001575b505050918352505060408051808201918290526020909201919060028481019182845b815481526020019060010190808311611042575050509183525050604080518082019182905260209092019190600484019060029082845b81548152602001906001019080831161107a5750505050508152602001600682018054806020026020016040519081016040528092919081815260200182805480156110e557602002820191906000526020600020905b8154815260200190600101908083116110d1575b505050505081526020016007820180548060200260200160405190810160405280929190818152602001828054801561113d57602002820191906000526020600020905b815481526020019060010190808311611129575b505050505081526020016008820180548060200260200160405190810160405280929190818152602001828054801561119557602002820191906000526020600020905b815481526020019060010190808311611181575b505050918352505060098201546020820152600a9091015460ff16151560409091015292915050565b600054610100900460ff16158080156111de5750600054600160ff909116105b806111f85750303b1580156111f8575060005460ff166001145b61126a5760405162461bcd60e51b815260206004820152602e60248201527f496e697469616c697a61626c653a20636f6e747261637420697320616c72656160448201527f647920696e697469616c697a6564000000000000000000000000000000000000606482015260840161078b565b6000805460ff19166001179055801561128d576000805461ff0019166101001790555b6112a56040518060200160405280600081525061247b565b6112ad6124ef565b6112b56124ef565b6112bd61255c565b6112c56124ef565b6112d0600033611f32565b6112fa7f189ab7a9244df0848122154315af71fe140f3db0fe014031783b0946b8c9d2e333611f32565b6101c3805461ffff1916905560006101c4558015610ba5576000805461ff0019169055604051600181527f7f26b83ff96e1f2b6a682f133852f6798a09c465da95921460cefb38474024989060200160405180910390a150565b6101c5602052600090815260409020805461136e9061413b565b80601f016020809104026020016040519081016040528092919081815260200182805461139a9061413b565b80156113e75780601f106113bc576101008083540402835291602001916113e7565b820191906000526020600020905b8154815290600101906020018083116113ca57829003601f168201915b505050505081565b6001600160a01b0383166114455760405162461bcd60e51b815260206004820152601e60248201527f4d696e743a206d696e7420746f20746865207a65726f20616464726573730000604482015260640161078b565b60008151116114965760405162461bcd60e51b815260206004820152601660248201527f4d696e743a20696e707574206461746120656d70747900000000000000000000604482015260640161078b565b600080806000806000806000888060200190518101906114b6919061446d565b96509650965096509650965096506000848785888c6040516020016114df959493929190614564565b60405160208183030381529060405280519060200120905060005b8651811015611586576115286101c688838151811061151b5761151b614294565b6020026020010151611c92565b6115745760405162461bcd60e51b815260206004820152601a60248201527f4d696e743a20696e76616c696420696d706163742073636f7065000000000000604482015260640161078b565b8061157e816142c0565b9150506114fa565b5060005b8751811015611609576115ab6101c589838151811061151b5761151b614294565b6115f75760405162461bcd60e51b815260206004820152601860248201527f4d696e743a20696e76616c696420776f726b2073636f70650000000000000000604482015260640161078b565b80611601816142c0565b91505061158a565b5061161481846125cf565b61161c6137dc565b8181526020808201858152604080840189905260608401889052608084018b905260a084018a905260c084018c905260e084018d9052600161010085018190526101c45460009081526101c985529190912084518155915180518594611686938501920190613835565b50604082015161169c90600280840191906138a7565b5060608201516116b290600483019060026138a7565b50608082015180516116ce9160068401916020909101906138d5565b5060a082015180516116ea9160078401916020909101906138d5565b5060c082015180516117069160088401916020909101906138d5565b5060e0820151600982015561010090910151600a909101805460ff19169115159190911790556101c45461173a9084612703565b6117498d6101c4548e8e612761565b7f8a5e2ad605927fd0538691713998234ea0be291a0621aadc32da2b59b5ea63626101c454826000015183602001518460400151856060015186608001518760a001518860c001518960e001518c6040516117ad9a999897969594939291906145b6565b60405180910390a160016101c460008282546117c9919061465b565b909155505050505050505050505050505050565b60008082511161182f5760405162461bcd60e51b815260206004820152601860248201527f616464576f726b53636f70653a20656d70747920746578740000000000000000604482015260640161078b565b61183882611c62565b90506118466101c582611c92565b156118935760405162461bcd60e51b815260206004820152601c60248201527f616464576f726b53636f70653a20616c72656164792065786973747300000000604482015260640161078b565b60008181526101c5602052604090206118ac83826141bb565b507f8b841033bc947e807d9766c542105a3dbb0bae62591be7b5c8cd4f37f698bf7381836040516108d692919061427b565b610a29338383612886565b6101c7602052600090815260409020805461136e9061413b565b60008281526097602052604090206001015461191e81611f28565b61099c8383611fd4565b6101c6602052600090815260409020805461136e9061413b565b6000808251116119945760405162461bcd60e51b815260206004820152601460248201527f61646452696768743a20656d7074792074657874000000000000000000000000604482015260640161078b565b61199d82611c62565b90506119ab6101c782611c92565b156119f85760405162461bcd60e51b815260206004820152601860248201527f61646452696768743a20616c7265616479206578697374730000000000000000604482015260640161078b565b60008181526101c760205260409020611a1183826141bb565b507f4527d373276b1ece0c8dd18e140572f93feffd35a0993d9e4de70623b1ac93ce81836040516108d692919061427b565b6001600160a01b038516331480611a5f5750611a5f853361062f565b611ac35760405162461bcd60e51b815260206004820152602f60248201527f455243313135353a2063616c6c6572206973206e6f7420746f6b656e206f776e60448201526e195c881b9bdc88185c1c1c9bdd9959608a1b606482015260840161078b565b610970858585858561297a565b6001600160a01b038316331480611aec5750611aec833361062f565b611b505760405162461bcd60e51b815260206004820152602f60248201527f455243313135353a2063616c6c6572206973206e6f7420746f6b656e206f776e60448201526e195c881b9bdc88185c1c1c9bdd9959608a1b606482015260840161078b565b61099c838383612b37565b60006001600160e01b03198216637965db0b60e01b14806107b957506107b982612ccb565b600081815261012e6020526040812080546060929190611b9f9061413b565b80601f0160208091040260200160405190810160405280929190818152602001828054611bcb9061413b565b8015611c185780601f10611bed57610100808354040283529160200191611c18565b820191906000526020600020905b815481529060010190602001808311611bfb57829003601f168201915b505050505090506000815111611c3657611c3183612d1b565b611c5b565b61012d81604051602001611c4b92919061466e565b6040516020818303038152906040525b9392505050565b600081604051602001611c759190613a1f565b604051602081830303815290604052805190602001209050919050565b60008181526020839052604081208054829190611cae9061413b565b905011905092915050565b8151835114611d1b5760405162461bcd60e51b815260206004820152602860248201527f455243313135353a2069647320616e6420616d6f756e7473206c656e677468206044820152670dad2e6dac2e8c6d60c31b606482015260840161078b565b6001600160a01b038416611d7f5760405162461bcd60e51b815260206004820152602560248201527f455243313135353a207472616e7366657220746f20746865207a65726f206164604482015264647265737360d81b606482015260840161078b565b33611d8e818787878787612daf565b60005b8451811015611eba576000858281518110611dae57611dae614294565b602002602001015190506000858381518110611dcc57611dcc614294565b60209081029190910181015160008481526065835260408082206001600160a01b038e168352909352919091205490915081811015611e605760405162461bcd60e51b815260206004820152602a60248201527f455243313135353a20696e73756666696369656e742062616c616e636520666f60448201526939103a3930b739b332b960b11b606482015260840161078b565b60008381526065602090815260408083206001600160a01b038e8116855292528083208585039055908b16825281208054849290611e9f90849061465b565b9250508190555050505080611eb3906142c0565b9050611d91565b50846001600160a01b0316866001600160a01b0316826001600160a01b03167f4a39dc06d4c0dbc64b70af90fd698a233a518aa5d07e595d983b8c0526c8f7fb8787604051611f0a9291906146f5565b60405180910390a4611f20818787878787612dbd565b505050505050565b610ba58133612f62565b60008281526097602090815260408083206001600160a01b038516845290915290205460ff16610a295760008281526097602090815260408083206001600160a01b03851684529091529020805460ff19166001179055611f903390565b6001600160a01b0316816001600160a01b0316837f2f8788117e7eff1d82e926ec794901d17c78024a50270940304540a733656f0d60405160405180910390a45050565b60008281526097602090815260408083206001600160a01b038516845290915290205460ff1615610a295760008281526097602090815260408083206001600160a01b0385168085529252808320805460ff1916905551339285917ff6391f5c32d9c69d2a47ea670b442974b53935d1edc7fd64eb21e047a839171b9190a45050565b7f189ab7a9244df0848122154315af71fe140f3db0fe014031783b0946b8c9d2e3610a2981611f28565b7f4910fdfa16fed3260ed0e7147f7cc6da11a60208b5b9406d12a635614ffd91435460ff16156120b45761099c83612fe2565b826001600160a01b03166352d1902d6040518163ffffffff1660e01b8152600401602060405180830381865afa92505050801561210e575060408051601f3d908101601f1916820190925261210b9181019061471a565b60015b6121805760405162461bcd60e51b815260206004820152602e60248201527f45524331393637557067726164653a206e657720696d706c656d656e7461746960448201527f6f6e206973206e6f742055555053000000000000000000000000000000000000606482015260840161078b565b7f360894a13ba1a3210667c828492db98dca3e2076cc3735a920a3ca505d382bbc81146122155760405162461bcd60e51b815260206004820152602960248201527f45524331393637557067726164653a20756e737570706f727465642070726f7860448201527f6961626c65555549440000000000000000000000000000000000000000000000606482015260840161078b565b5061099c8383836130ad565b6001600160a01b0383166122835760405162461bcd60e51b815260206004820152602360248201527f455243313135353a206275726e2066726f6d20746865207a65726f206164647260448201526265737360e81b606482015260840161078b565b80518251146122e55760405162461bcd60e51b815260206004820152602860248201527f455243313135353a2069647320616e6420616d6f756e7473206c656e677468206044820152670dad2e6dac2e8c6d60c31b606482015260840161078b565b600033905061230881856000868660405180602001604052806000815250612daf565b60005b835181101561240c57600084828151811061232857612328614294565b60200260200101519050600084838151811061234657612346614294565b60209081029190910181015160008481526065835260408082206001600160a01b038c1683529093529190912054909150818110156123d35760405162461bcd60e51b8152602060048201526024808201527f455243313135353a206275726e20616d6f756e7420657863656564732062616c604482015263616e636560e01b606482015260840161078b565b60009283526065602090815260408085206001600160a01b038b1686529091529092209103905580612404816142c0565b91505061230b565b5060006001600160a01b0316846001600160a01b0316826001600160a01b03167f4a39dc06d4c0dbc64b70af90fd698a233a518aa5d07e595d983b8c0526c8f7fb868660405161245d9291906146f5565b60405180910390a46040805160208101909152600090525b50505050565b600054610100900460ff166124e65760405162461bcd60e51b815260206004820152602b60248201527f496e697469616c697a61626c653a20636f6e7472616374206973206e6f74206960448201526a6e697469616c697a696e6760a81b606482015260840161078b565b610ba5816130d2565b600054610100900460ff1661255a5760405162461bcd60e51b815260206004820152602b60248201527f496e697469616c697a61626c653a20636f6e7472616374206973206e6f74206960448201526a6e697469616c697a696e6760a81b606482015260840161078b565b565b600054610100900460ff166125c75760405162461bcd60e51b815260206004820152602b60248201527f496e697469616c697a61626c653a20636f6e7472616374206973206e6f74206960448201526a6e697469616c697a696e6760a81b606482015260840161078b565b61255a613146565b60005b815181101561099c576101c860008383815181106125f2576125f2614294565b6020908102919091018101516001600160a01b03168252818101929092526040908101600090812086825290925290205460ff16156126995760405162461bcd60e51b815260206004820152602560248201527f436c61696d3a20636c61696d20666f722063726561746f7273206f7665726c6160448201527f7070696e67000000000000000000000000000000000000000000000000000000606482015260840161078b565b60016101c860008484815181106126b2576126b2614294565b6020908102919091018101516001600160a01b0316825281810192909252604090810160009081208782529092529020805460ff1916911515919091179055806126fb816142c0565b9150506125d2565b600082815261012e6020526040902061271c82826141bb565b50817f6bb7ff708619ba0610cba295a58592e0451dee2622938c8755667688daf3529b612748846107ca565b6040516127559190613a1f565b60405180910390a25050565b6001600160a01b0384166127c15760405162461bcd60e51b815260206004820152602160248201527f455243313135353a206d696e7420746f20746865207a65726f206164647265736044820152607360f81b606482015260840161078b565b3360006127cd856131ce565b905060006127da856131ce565b90506127eb83600089858589612daf565b60008681526065602090815260408083206001600160a01b038b1684529091528120805487929061281d90849061465b565b909155505060408051878152602081018790526001600160a01b03808a1692600092918716917fc3d58168c5ae7397731d063d5bbf3d657854427343f4c083240f7aacaa2d0f62910160405180910390a461287d83600089898989613219565b50505050505050565b816001600160a01b0316836001600160a01b03160361290d5760405162461bcd60e51b815260206004820152602960248201527f455243313135353a2073657474696e6720617070726f76616c2073746174757360448201527f20666f722073656c660000000000000000000000000000000000000000000000606482015260840161078b565b6001600160a01b03838116600081815260666020908152604080832094871680845294825291829020805460ff191686151590811790915591519182527f17307eab39ab6107e8899845ad3d59bd9653f200f220920489ca2b5937696c31910160405180910390a3505050565b6001600160a01b0384166129de5760405162461bcd60e51b815260206004820152602560248201527f455243313135353a207472616e7366657220746f20746865207a65726f206164604482015264647265737360d81b606482015260840161078b565b3360006129ea856131ce565b905060006129f7856131ce565b9050612a07838989858589612daf565b60008681526065602090815260408083206001600160a01b038c16845290915290205485811015612a8d5760405162461bcd60e51b815260206004820152602a60248201527f455243313135353a20696e73756666696369656e742062616c616e636520666f60448201526939103a3930b739b332b960b11b606482015260840161078b565b60008781526065602090815260408083206001600160a01b038d8116855292528083208985039055908a16825281208054889290612acc90849061465b565b909155505060408051888152602081018890526001600160a01b03808b16928c821692918816917fc3d58168c5ae7397731d063d5bbf3d657854427343f4c083240f7aacaa2d0f62910160405180910390a4612b2c848a8a8a8a8a613219565b505050505050505050565b6001600160a01b038316612b995760405162461bcd60e51b815260206004820152602360248201527f455243313135353a206275726e2066726f6d20746865207a65726f206164647260448201526265737360e81b606482015260840161078b565b336000612ba5846131ce565b90506000612bb2846131ce565b9050612bd283876000858560405180602001604052806000815250612daf565b60008581526065602090815260408083206001600160a01b038a16845290915290205484811015612c515760405162461bcd60e51b8152602060048201526024808201527f455243313135353a206275726e20616d6f756e7420657863656564732062616c604482015263616e636560e01b606482015260840161078b565b60008681526065602090815260408083206001600160a01b038b81168086529184528285208a8703905582518b81529384018a90529092908816917fc3d58168c5ae7397731d063d5bbf3d657854427343f4c083240f7aacaa2d0f62910160405180910390a460408051602081019091526000905261287d565b60006001600160e01b03198216636cdb3d1360e11b1480612cfc57506001600160e01b031982166303a24d0760e21b145b806107b957506301ffc9a760e01b6001600160e01b03198316146107b9565b606060678054612d2a9061413b565b80601f0160208091040260200160405190810160405280929190818152602001828054612d569061413b565b8015612da35780601f10612d7857610100808354040283529160200191612da3565b820191906000526020600020905b815481529060010190602001808311612d8657829003601f168201915b50505050509050919050565b611f20868686868686613315565b6001600160a01b0384163b15611f205760405163bc197c8160e01b81526001600160a01b0385169063bc197c8190612e019089908990889088908890600401614733565b6020604051808303816000875af1925050508015612e3c575060408051601f3d908101601f19168201909252612e3991810190614791565b60015b612ef157612e486147ae565b806308c379a003612e815750612e5c6147c9565b80612e675750612e83565b8060405162461bcd60e51b815260040161078b9190613a1f565b505b60405162461bcd60e51b815260206004820152603460248201527f455243313135353a207472616e7366657220746f206e6f6e204552433131353560448201527f526563656976657220696d706c656d656e746572000000000000000000000000606482015260840161078b565b6001600160e01b0319811663bc197c8160e01b1461287d5760405162461bcd60e51b815260206004820152602860248201527f455243313135353a204552433131353552656365697665722072656a656374656044820152676420746f6b656e7360c01b606482015260840161078b565b60008281526097602090815260408083206001600160a01b038516845290915290205460ff16610a2957612fa0816001600160a01b031660146134a3565b612fab8360206134a3565b604051602001612fbc929190614853565b60408051601f198184030181529082905262461bcd60e51b825261078b91600401613a1f565b6001600160a01b0381163b61305f5760405162461bcd60e51b815260206004820152602d60248201527f455243313936373a206e657720696d706c656d656e746174696f6e206973206e60448201527f6f74206120636f6e747261637400000000000000000000000000000000000000606482015260840161078b565b7f360894a13ba1a3210667c828492db98dca3e2076cc3735a920a3ca505d382bbc805473ffffffffffffffffffffffffffffffffffffffff19166001600160a01b0392909216919091179055565b6130b68361364c565b6000825111806130c35750805b1561099c57612475838361368c565b600054610100900460ff1661313d5760405162461bcd60e51b815260206004820152602b60248201527f496e697469616c697a61626c653a20636f6e7472616374206973206e6f74206960448201526a6e697469616c697a696e6760a81b606482015260840161078b565b610ba581613797565b600054610100900460ff166131b15760405162461bcd60e51b815260206004820152602b60248201527f496e697469616c697a61626c653a20636f6e7472616374206973206e6f74206960448201526a6e697469616c697a696e6760a81b606482015260840161078b565b60408051602081019091526000815261012d90610ba590826141bb565b6040805160018082528183019092526060916000919060208083019080368337019050509050828160008151811061320857613208614294565b602090810291909101015292915050565b6001600160a01b0384163b15611f205760405163f23a6e6160e01b81526001600160a01b0385169063f23a6e619061325d90899089908890889088906004016148d4565b6020604051808303816000875af1925050508015613298575060408051601f3d908101601f1916820190925261329591810190614791565b60015b6132a457612e486147ae565b6001600160e01b0319811663f23a6e6160e01b1461287d5760405162461bcd60e51b815260206004820152602860248201527f455243313135353a204552433131353552656365697665722072656a656374656044820152676420746f6b656e7360c01b606482015260840161078b565b6001600160a01b03851661339c5760005b835181101561339a5782818151811061334157613341614294565b602002602001015160fb600086848151811061335f5761335f614294565b602002602001015181526020019081526020016000206000828254613384919061465b565b909155506133939050816142c0565b9050613326565b505b6001600160a01b038416611f205760005b835181101561287d5760008482815181106133ca576133ca614294565b6020026020010151905060008483815181106133e8576133e8614294565b60200260200101519050600060fb6000848152602001908152602001600020549050818110156134805760405162461bcd60e51b815260206004820152602860248201527f455243313135353a206275726e20616d6f756e74206578636565647320746f7460448201527f616c537570706c79000000000000000000000000000000000000000000000000606482015260840161078b565b600092835260fb60205260409092209103905561349c816142c0565b90506133ad565b606060006134b2836002614917565b6134bd90600261465b565b67ffffffffffffffff8111156134d5576134d5613a32565b6040519080825280601f01601f1916602001820160405280156134ff576020820181803683370190505b509050600360fc1b8160008151811061351a5761351a614294565b60200101906001600160f81b031916908160001a905350600f60fb1b8160018151811061354957613549614294565b60200101906001600160f81b031916908160001a905350600061356d846002614917565b61357890600161465b565b90505b60018111156135fd577f303132333435363738396162636465660000000000000000000000000000000085600f16601081106135b9576135b9614294565b1a60f81b8282815181106135cf576135cf614294565b60200101906001600160f81b031916908160001a90535060049490941c936135f681614936565b905061357b565b508315611c5b5760405162461bcd60e51b815260206004820181905260248201527f537472696e67733a20686578206c656e67746820696e73756666696369656e74604482015260640161078b565b61365581612fe2565b6040516001600160a01b038216907fbc7cd75a20ee27fd9adebab32041f755214dbc6bffa90cc0225b39da2e5c2d3b90600090a250565b60606001600160a01b0383163b61370b5760405162461bcd60e51b815260206004820152602660248201527f416464726573733a2064656c65676174652063616c6c20746f206e6f6e2d636f60448201527f6e74726163740000000000000000000000000000000000000000000000000000606482015260840161078b565b600080846001600160a01b031684604051613726919061494d565b600060405180830381855af49150503d8060008114613761576040519150601f19603f3d011682016040523d82523d6000602084013e613766565b606091505b509150915061378e828260405180606001604052806027815260200161496a602791396137a3565b95945050505050565b6067610a2982826141bb565b606083156137b2575081611c5b565b8251156137c25782518084602001fd5b8160405162461bcd60e51b815260040161078b9190613a1f565b604080516101208101825260008152606060208201529081016137fd61390f565b815260200161380a61390f565b8152602001606081526020016060815260200160608152602001600081526020016000151581525090565b828054828255906000526020600020908101928215613897579160200282015b82811115613897578251825473ffffffffffffffffffffffffffffffffffffffff19166001600160a01b03909116178255602090920191600190910190613855565b506138a392915061392d565b5090565b8260028101928215613897579160200282015b828111156138975782518255916020019190600101906138ba565b82805482825590600052602060002090810192821561389757916020028201828111156138975782518255916020019190600101906138ba565b60405180604001604052806002906020820280368337509192915050565b5b808211156138a3576000815560010161392e565b6001600160a01b0381168114610ba557600080fd5b6000806040838503121561396a57600080fd5b823561397581613942565b946020939093013593505050565b6001600160e01b031981168114610ba557600080fd5b6000602082840312156139ab57600080fd5b8135611c5b81613983565b6000602082840312156139c857600080fd5b5035919050565b60005b838110156139ea5781810151838201526020016139d2565b50506000910152565b60008151808452613a0b8160208601602086016139cf565b601f01601f19169290920160200192915050565b602081526000611c5b60208301846139f3565b634e487b7160e01b600052604160045260246000fd5b601f8201601f1916810167ffffffffffffffff81118282101715613a6e57613a6e613a32565b6040525050565b600067ffffffffffffffff821115613a8f57613a8f613a32565b50601f01601f191660200190565b6000613aa883613a75565b604051613ab58282613a48565b809250848152858585011115613aca57600080fd5b8484602083013760006020868301015250509392505050565b600060208284031215613af557600080fd5b813567ffffffffffffffff811115613b0c57600080fd5b8201601f81018413613b1d57600080fd5b613b2c84823560208401613a9d565b949350505050565b600067ffffffffffffffff821115613b4e57613b4e613a32565b5060051b60200190565b600082601f830112613b6957600080fd5b81356020613b7682613b34565b604051613b838282613a48565b83815260059390931b8501820192828101915086841115613ba357600080fd5b8286015b84811015613bbe5780358352918301918301613ba7565b509695505050505050565b600082601f830112613bda57600080fd5b611c5b83833560208501613a9d565b600080600080600060a08688031215613c0157600080fd5b8535613c0c81613942565b94506020860135613c1c81613942565b9350604086013567ffffffffffffffff80821115613c3957600080fd5b613c4589838a01613b58565b94506060880135915080821115613c5b57600080fd5b613c6789838a01613b58565b93506080880135915080821115613c7d57600080fd5b50613c8a88828901613bc9565b9150509295509295909350565b60008060408385031215613caa57600080fd5b823591506020830135613cbc81613942565b809150509250929050565b600060208284031215613cd957600080fd5b8135611c5b81613942565b60008060408385031215613cf757600080fd5b823567ffffffffffffffff80821115613d0f57600080fd5b818501915085601f830112613d2357600080fd5b81356020613d3082613b34565b604051613d3d8282613a48565b83815260059390931b8501820192828101915089841115613d5d57600080fd5b948201945b83861015613d84578535613d7581613942565b82529482019490820190613d62565b96505086013592505080821115613d9a57600080fd5b50613da785828601613b58565b9150509250929050565b600081518084526020808501945080840160005b83811015613de157815187529582019590820190600101613dc5565b509495945050505050565b602081526000611c5b6020830184613db1565b60008060408385031215613e1257600080fd5b8235613e1d81613942565b9150602083013567ffffffffffffffff811115613e3957600080fd5b613da785828601613bc9565b600080600060608486031215613e5a57600080fd5b8335613e6581613942565b9250602084013567ffffffffffffffff80821115613e8257600080fd5b613e8e87838801613b58565b93506040860135915080821115613ea457600080fd5b50613eb186828701613b58565b9150509250925092565b600081518084526020808501945080840160005b83811015613de15781516001600160a01b031687529582019590820190600101613ecf565b8060005b6002811015612475578151845260209384019390910190600101613ef8565b602081528151602082015260006020830151610160806040850152613f40610180850183613ebb565b91506040850151613f546060860182613ef4565b506060850151613f6760a0860182613ef4565b506080850151601f19808685030160e0870152613f848483613db1565b935060a08701519150610100818786030181880152613fa38584613db1565b945060c088015192508187860301610120880152613fc18584613db1565b945060e08801516101408801528088015192505050613fe38286018215159052565b5090949350505050565b60008060006060848603121561400257600080fd5b833561400d81613942565b925060208401359150604084013567ffffffffffffffff81111561403057600080fd5b613eb186828701613bc9565b6000806040838503121561404f57600080fd5b823561405a81613942565b915060208301358015158114613cbc57600080fd5b6000806040838503121561408257600080fd5b823561408d81613942565b91506020830135613cbc81613942565b600080600080600060a086880312156140b557600080fd5b85356140c081613942565b945060208601356140d081613942565b93506040860135925060608601359150608086013567ffffffffffffffff8111156140fa57600080fd5b613c8a88828901613bc9565b60008060006060848603121561411b57600080fd5b833561412681613942565b95602085013595506040909401359392505050565b600181811c9082168061414f57607f821691505b60208210810361416f57634e487b7160e01b600052602260045260246000fd5b50919050565b601f82111561099c57600081815260208120601f850160051c8101602086101561419c5750805b601f850160051c820191505b81811015611f20578281556001016141a8565b815167ffffffffffffffff8111156141d5576141d5613a32565b6141e9816141e3845461413b565b84614175565b602080601f83116001811461421e57600084156142065750858301515b600019600386901b1c1916600185901b178555611f20565b600085815260208120601f198616915b8281101561424d5788860151825594840194600190910190840161422e565b508582101561426b5787850151600019600388901b60f8161c191681555b5050505050600190811b01905550565b828152604060208201526000613b2c60408301846139f3565b634e487b7160e01b600052603260045260246000fd5b634e487b7160e01b600052601160045260246000fd5b6000600182016142d2576142d26142aa565b5060010190565b600082601f8301126142ea57600080fd5b815160206142f782613b34565b6040516143048282613a48565b83815260059390931b850182019282810191508684111561432457600080fd5b8286015b84811015613bbe5780518352918301918301614328565b600082601f83011261435057600080fd5b6040516040810181811067ffffffffffffffff8211171561437357614373613a32565b806040525080604084018581111561438a57600080fd5b845b818110156143a457805183526020928301920161438c565b509195945050505050565b600082601f8301126143c057600080fd5b815160206143cd82613b34565b6040516143da8282613a48565b83815260059390931b85018201928281019150868411156143fa57600080fd5b8286015b84811015613bbe57805161441181613942565b83529183019183016143fe565b600082601f83011261442f57600080fd5b815161443a81613a75565b6040516144478282613a48565b82815285602084870101111561445c57600080fd5b61378e8360208301602088016139cf565b6000806000806000806000610120888a03121561448957600080fd5b875167ffffffffffffffff808211156144a157600080fd5b6144ad8b838c016142d9565b985060208a01519150808211156144c357600080fd5b6144cf8b838c016142d9565b975060408a01519150808211156144e557600080fd5b6144f18b838c016142d9565b96506145008b60608c0161433f565b955061450f8b60a08c0161433f565b945060e08a015191508082111561452557600080fd5b6145318b838c016143af565b93506101008a015191508082111561454857600080fd5b506145558a828b0161441e565b91505092959891949750929550565b61456e8187613ef4565b60e06040820152600061458460e0830187613db1565b6145916060840187613ef4565b82810360a08401526145a38186613db1565b9150508260c08301529695505050505050565b60006101808c83528b60208401528060408401526145d68184018c613ebb565b90506145e5606084018b613ef4565b6145f260a084018a613ef4565b82810360e08401526146048189613db1565b90508281036101008401526146198188613db1565b905082810361012084015261462e8187613db1565b90508461014084015282810361016084015261464a81856139f3565b9d9c50505050505050505050505050565b808201808211156107b9576107b96142aa565b600080845461467c8161413b565b6001828116801561469457600181146146a9576146d8565b60ff19841687528215158302870194506146d8565b8860005260208060002060005b858110156146cf5781548a8201529084019082016146b6565b50505082870194505b5050505083516146ec8183602088016139cf565b01949350505050565b6040815260006147086040830185613db1565b828103602084015261378e8185613db1565b60006020828403121561472c57600080fd5b5051919050565b60006001600160a01b03808816835280871660208401525060a0604083015261475f60a0830186613db1565b82810360608401526147718186613db1565b9050828103608084015261478581856139f3565b98975050505050505050565b6000602082840312156147a357600080fd5b8151611c5b81613983565b600060033d1115610f115760046000803e5060005160e01c90565b600060443d10156147d75790565b6040516003193d81016004833e81513d67ffffffffffffffff816024840111818411171561480757505050505090565b828501915081518181111561481f5750505050505090565b843d87010160208285010111156148395750505050505090565b61484860208286010187613a48565b509095945050505050565b7f416363657373436f6e74726f6c3a206163636f756e742000000000000000000081526000835161488b8160178501602088016139cf565b7f206973206d697373696e6720726f6c652000000000000000000000000000000060179184019182015283516148c88160288401602088016139cf565b01602801949350505050565b60006001600160a01b03808816835280871660208401525084604083015283606083015260a0608083015261490c60a08301846139f3565b979650505050505050565b6000816000190483118215151615614931576149316142aa565b500290565b600081614945576149456142aa565b506000190190565b6000825161495f8184602087016139cf565b919091019291505056fe416464726573733a206c6f772d6c6576656c2064656c65676174652063616c6c206661696c6564a164736f6c6343000810000a",
  "devdoc": {
    "author": "bitbeckers, mr_bluesky",
    "events": {
      "ImpactClaimed(uint256,bytes32,address[],uint256[2],uint256[2],bytes32[],bytes32[],bytes32[],uint256,string)": {
        "params": {
          "claimHash": "Hash value of the claim data.",
          "contributors": "Contributors to the claimed impact.",
          "id": "Id of the claimed impact.",
          "impactScopes": "Id's relating to the scope of the impact.",
          "impactTimeframe": "To/from date of the claimed impact.",
          "rights": "Id's relating to the rights applied to the hypercert.",
          "uri": "URI of the metadata of the hypercert.",
          "version": "Version of the hypercert.",
          "workScopes": "Id's relating to the scope of the work.",
          "workTimeframe": "To/from date of the work related to the claim."
        }
      },
      "ImpactScopeAdded(bytes32,string)": {
        "params": {
          "id": "Id of the impact scope.",
          "text": "Short text code of the impact scope."
        }
      },
      "RightAdded(bytes32,string)": {
        "params": {
          "id": "Id of the right.",
          "text": "Short text code of the right."
        }
      },
      "WorkScopeAdded(bytes32,string)": {
        "params": {
          "id": "Id of the work scope.",
          "text": "Short text code of the work scope."
        }
      }
    },
    "kind": "dev",
    "methods": {
      "addImpactScope(string)": {
        "params": {
          "text": "text representing the impact scope"
        },
        "returns": {
          "id": "id of the impact scope"
        }
      },
      "addRight(string)": {
        "params": {
          "text": "text representing the right"
        },
        "returns": {
          "id": "id of the right"
        }
      },
      "addWorkScope(string)": {
        "params": {
          "text": "text representing the work scope"
        },
        "returns": {
          "id": "id of the work scope"
        }
      },
      "balanceOf(address,uint256)": {
        "details": "See {IERC1155-balanceOf}. Requirements: - `account` cannot be the zero address."
      },
      "balanceOfBatch(address[],uint256[])": {
        "details": "See {IERC1155-balanceOfBatch}. Requirements: - `accounts` and `ids` must have the same length."
      },
      "constructor": {
        "custom:oz-upgrades-unsafe-allow": "constructor"
      },
      "exists(uint256)": {
        "details": "Indicates whether any token exist with a given id, or not."
      },
      "getImpactCert(uint256)": {
        "params": {
          "claimID": "id of the claim"
        }
      },
      "getRoleAdmin(bytes32)": {
        "details": "Returns the admin role that controls `role`. See {grantRole} and {revokeRole}. To change a role's admin, use {_setRoleAdmin}."
      },
      "grantRole(bytes32,address)": {
        "details": "Grants `role` to `account`. If `account` had not been already granted `role`, emits a {RoleGranted} event. Requirements: - the caller must have ``role``'s admin role. May emit a {RoleGranted} event."
      },
      "hasRole(bytes32,address)": {
        "details": "Returns `true` if `account` has been granted `role`."
      },
      "isApprovedForAll(address,address)": {
        "details": "See {IERC1155-isApprovedForAll}."
      },
      "mint(address,uint256,bytes)": {
        "params": {
          "account": "account minting the new hypercert",
          "amount": "amount of the new token to mint",
          "data": "data representing the parameters of the new hypercert"
        }
      },
      "proxiableUUID()": {
        "details": "Implementation of the ERC1822 {proxiableUUID} function. This returns the storage slot used by the implementation. It is used to validate that the this implementation remains valid after an upgrade. IMPORTANT: A proxy pointing at a proxiable contract should not be considered proxiable itself, because this risks bricking a proxy that upgrades to it, by delegating to itself until out of gas. Thus it is critical that this function revert if invoked through a proxy. This is guaranteed by the `notDelegated` modifier."
      },
      "renounceRole(bytes32,address)": {
        "details": "Revokes `role` from the calling account. Roles are often managed via {grantRole} and {revokeRole}: this function's purpose is to provide a mechanism for accounts to lose their privileges if they are compromised (such as when a trusted device is misplaced). If the calling account had been revoked `role`, emits a {RoleRevoked} event. Requirements: - the caller must be `account`. May emit a {RoleRevoked} event."
      },
      "revokeRole(bytes32,address)": {
        "details": "Revokes `role` from `account`. If `account` had been granted `role`, emits a {RoleRevoked} event. Requirements: - the caller must have ``role``'s admin role. May emit a {RoleRevoked} event."
      },
      "safeBatchTransferFrom(address,address,uint256[],uint256[],bytes)": {
        "details": "See {IERC1155-safeBatchTransferFrom}."
      },
      "safeTransferFrom(address,address,uint256,uint256,bytes)": {
        "details": "See {IERC1155-safeTransferFrom}."
      },
      "setApprovalForAll(address,bool)": {
        "details": "See {IERC1155-setApprovalForAll}."
      },
      "supportsInterface(bytes4)": {
        "params": {
          "interfaceId": "id of the interface"
        }
      },
      "totalSupply(uint256)": {
        "details": "Total amount of tokens in with a given id."
      },
      "upgradeTo(address)": {
        "details": "Upgrade the implementation of the proxy to `newImplementation`. Calls {_authorizeUpgrade}. Emits an {Upgraded} event."
      },
      "upgradeToAndCall(address,bytes)": {
        "details": "Upgrade the implementation of the proxy to `newImplementation`, and subsequently execute the function call encoded in `data`. Calls {_authorizeUpgrade}. Emits an {Upgraded} event."
      },
      "uri(uint256)": {
        "params": {
          "tokenId": "id of the token"
        }
      }
    },
    "title": "Hypercert Minting logic",
    "version": 1
  },
  "userdoc": {
    "events": {
      "ImpactClaimed(uint256,bytes32,address[],uint256[2],uint256[2],bytes32[],bytes32[],bytes32[],uint256,string)": {
        "notice": "Emitted when an impact is claimed."
      },
      "ImpactScopeAdded(bytes32,string)": {
        "notice": "Emitted when a new impact scope is added."
      },
      "RightAdded(bytes32,string)": {
        "notice": "Emitted when a new right is added."
      },
      "WorkScopeAdded(bytes32,string)": {
        "notice": "Emitted when a new work scope is added."
      }
    },
    "kind": "user",
    "methods": {
      "addImpactScope(string)": {
        "notice": "adds a new impact scope"
      },
      "addRight(string)": {
        "notice": "adds a new right"
      },
      "addWorkScope(string)": {
        "notice": "adds a new work scope"
      },
      "constructor": {
        "notice": "constructor"
      },
      "getImpactCert(uint256)": {
        "notice": "gets the hypercert with the specified id"
      },
      "initialize()": {
        "notice": "Initializes the hypercert."
      },
      "mint(address,uint256,bytes)": {
        "notice": "mints a new hypercert"
      },
      "supportsInterface(bytes4)": {
        "notice": "returns a flag indicating if the contract supports the specified interface"
      },
      "uri(uint256)": {
        "notice": "gets the URI of the token with the specified id"
      },
      "version()": {
        "notice": "gets the current version of the contract"
      }
    },
    "notice": "Contains functions and events to initialize and issue a hypercert",
    "version": 1
  },
  "storageLayout": {
    "storage": [
      {
        "astId": 808,
        "contract": "contracts/HypercertMinterV0.sol:HypercertMinterV0",
        "label": "_initialized",
        "offset": 0,
        "slot": "0",
        "type": "t_uint8"
      },
      {
        "astId": 811,
        "contract": "contracts/HypercertMinterV0.sol:HypercertMinterV0",
        "label": "_initializing",
        "offset": 1,
        "slot": "0",
        "type": "t_bool"
      },
      {
        "astId": 3175,
        "contract": "contracts/HypercertMinterV0.sol:HypercertMinterV0",
        "label": "__gap",
        "offset": 0,
        "slot": "1",
        "type": "t_array(t_uint256)50_storage"
      },
      {
        "astId": 3505,
        "contract": "contracts/HypercertMinterV0.sol:HypercertMinterV0",
        "label": "__gap",
        "offset": 0,
        "slot": "51",
        "type": "t_array(t_uint256)50_storage"
      },
      {
        "astId": 1117,
        "contract": "contracts/HypercertMinterV0.sol:HypercertMinterV0",
        "label": "_balances",
        "offset": 0,
        "slot": "101",
        "type": "t_mapping(t_uint256,t_mapping(t_address,t_uint256))"
      },
      {
        "astId": 1123,
        "contract": "contracts/HypercertMinterV0.sol:HypercertMinterV0",
        "label": "_operatorApprovals",
        "offset": 0,
        "slot": "102",
        "type": "t_mapping(t_address,t_mapping(t_address,t_bool))"
      },
      {
        "astId": 1125,
        "contract": "contracts/HypercertMinterV0.sol:HypercertMinterV0",
        "label": "_uri",
        "offset": 0,
        "slot": "103",
        "type": "t_string_storage"
      },
      {
        "astId": 2332,
        "contract": "contracts/HypercertMinterV0.sol:HypercertMinterV0",
        "label": "__gap",
        "offset": 0,
        "slot": "104",
        "type": "t_array(t_uint256)47_storage"
      },
      {
        "astId": 39,
        "contract": "contracts/HypercertMinterV0.sol:HypercertMinterV0",
        "label": "_roles",
        "offset": 0,
        "slot": "151",
        "type": "t_mapping(t_bytes32,t_struct(RoleData)34_storage)"
      },
      {
        "astId": 338,
        "contract": "contracts/HypercertMinterV0.sol:HypercertMinterV0",
        "label": "__gap",
        "offset": 0,
        "slot": "152",
        "type": "t_array(t_uint256)49_storage"
      },
      {
        "astId": 2584,
        "contract": "contracts/HypercertMinterV0.sol:HypercertMinterV0",
        "label": "__gap",
        "offset": 0,
        "slot": "201",
        "type": "t_array(t_uint256)50_storage"
      },
      {
        "astId": 2610,
        "contract": "contracts/HypercertMinterV0.sol:HypercertMinterV0",
        "label": "_totalSupply",
        "offset": 0,
        "slot": "251",
        "type": "t_mapping(t_uint256,t_uint256)"
      },
      {
        "astId": 2761,
        "contract": "contracts/HypercertMinterV0.sol:HypercertMinterV0",
        "label": "__gap",
        "offset": 0,
        "slot": "252",
        "type": "t_array(t_uint256)49_storage"
      },
      {
        "astId": 2796,
        "contract": "contracts/HypercertMinterV0.sol:HypercertMinterV0",
        "label": "_baseURI",
        "offset": 0,
        "slot": "301",
        "type": "t_string_storage"
      },
      {
        "astId": 2800,
        "contract": "contracts/HypercertMinterV0.sol:HypercertMinterV0",
        "label": "_tokenURIs",
        "offset": 0,
        "slot": "302",
        "type": "t_mapping(t_uint256,t_string_storage)"
      },
      {
        "astId": 2875,
        "contract": "contracts/HypercertMinterV0.sol:HypercertMinterV0",
        "label": "__gap",
        "offset": 0,
        "slot": "303",
        "type": "t_array(t_uint256)48_storage"
      },
      {
        "astId": 790,
        "contract": "contracts/HypercertMinterV0.sol:HypercertMinterV0",
        "label": "__gap",
        "offset": 0,
        "slot": "351",
        "type": "t_array(t_uint256)50_storage"
      },
      {
        "astId": 1087,
        "contract": "contracts/HypercertMinterV0.sol:HypercertMinterV0",
        "label": "__gap",
        "offset": 0,
        "slot": "401",
        "type": "t_array(t_uint256)50_storage"
      },
      {
        "astId": 3545,
        "contract": "contracts/HypercertMinterV0.sol:HypercertMinterV0",
        "label": "_version",
        "offset": 0,
        "slot": "451",
        "type": "t_uint16"
      },
      {
        "astId": 3552,
        "contract": "contracts/HypercertMinterV0.sol:HypercertMinterV0",
        "label": "counter",
        "offset": 0,
        "slot": "452",
        "type": "t_uint256"
      },
      {
        "astId": 3556,
        "contract": "contracts/HypercertMinterV0.sol:HypercertMinterV0",
        "label": "workScopes",
        "offset": 0,
        "slot": "453",
        "type": "t_mapping(t_bytes32,t_string_storage)"
      },
      {
        "astId": 3560,
        "contract": "contracts/HypercertMinterV0.sol:HypercertMinterV0",
        "label": "impactScopes",
        "offset": 0,
        "slot": "454",
        "type": "t_mapping(t_bytes32,t_string_storage)"
      },
      {
        "astId": 3564,
        "contract": "contracts/HypercertMinterV0.sol:HypercertMinterV0",
        "label": "rights",
        "offset": 0,
        "slot": "455",
        "type": "t_mapping(t_bytes32,t_string_storage)"
      },
      {
        "astId": 3570,
        "contract": "contracts/HypercertMinterV0.sol:HypercertMinterV0",
        "label": "contributorImpacts",
        "offset": 0,
        "slot": "456",
        "type": "t_mapping(t_address,t_mapping(t_bytes32,t_bool))"
      },
      {
        "astId": 3575,
        "contract": "contracts/HypercertMinterV0.sol:HypercertMinterV0",
        "label": "impactCerts",
        "offset": 0,
        "slot": "457",
        "type": "t_mapping(t_uint256,t_struct(Claim)3602_storage)"
      }
    ],
    "types": {
      "t_address": {
        "encoding": "inplace",
        "label": "address",
        "numberOfBytes": "20"
      },
      "t_array(t_address)dyn_storage": {
        "base": "t_address",
        "encoding": "dynamic_array",
        "label": "address[]",
        "numberOfBytes": "32"
      },
      "t_array(t_bytes32)dyn_storage": {
        "base": "t_bytes32",
        "encoding": "dynamic_array",
        "label": "bytes32[]",
        "numberOfBytes": "32"
      },
      "t_array(t_uint256)2_storage": {
        "base": "t_uint256",
        "encoding": "inplace",
        "label": "uint256[2]",
        "numberOfBytes": "64"
      },
      "t_array(t_uint256)47_storage": {
        "base": "t_uint256",
        "encoding": "inplace",
        "label": "uint256[47]",
        "numberOfBytes": "1504"
      },
      "t_array(t_uint256)48_storage": {
        "base": "t_uint256",
        "encoding": "inplace",
        "label": "uint256[48]",
        "numberOfBytes": "1536"
      },
      "t_array(t_uint256)49_storage": {
        "base": "t_uint256",
        "encoding": "inplace",
        "label": "uint256[49]",
        "numberOfBytes": "1568"
      },
      "t_array(t_uint256)50_storage": {
        "base": "t_uint256",
        "encoding": "inplace",
        "label": "uint256[50]",
        "numberOfBytes": "1600"
      },
      "t_bool": {
        "encoding": "inplace",
        "label": "bool",
        "numberOfBytes": "1"
      },
      "t_bytes32": {
        "encoding": "inplace",
        "label": "bytes32",
        "numberOfBytes": "32"
      },
      "t_mapping(t_address,t_bool)": {
        "encoding": "mapping",
        "key": "t_address",
        "label": "mapping(address => bool)",
        "numberOfBytes": "32",
        "value": "t_bool"
      },
      "t_mapping(t_address,t_mapping(t_address,t_bool))": {
        "encoding": "mapping",
        "key": "t_address",
        "label": "mapping(address => mapping(address => bool))",
        "numberOfBytes": "32",
        "value": "t_mapping(t_address,t_bool)"
      },
      "t_mapping(t_address,t_mapping(t_bytes32,t_bool))": {
        "encoding": "mapping",
        "key": "t_address",
        "label": "mapping(address => mapping(bytes32 => bool))",
        "numberOfBytes": "32",
        "value": "t_mapping(t_bytes32,t_bool)"
      },
      "t_mapping(t_address,t_uint256)": {
        "encoding": "mapping",
        "key": "t_address",
        "label": "mapping(address => uint256)",
        "numberOfBytes": "32",
        "value": "t_uint256"
      },
      "t_mapping(t_bytes32,t_bool)": {
        "encoding": "mapping",
        "key": "t_bytes32",
        "label": "mapping(bytes32 => bool)",
        "numberOfBytes": "32",
        "value": "t_bool"
      },
      "t_mapping(t_bytes32,t_string_storage)": {
        "encoding": "mapping",
        "key": "t_bytes32",
        "label": "mapping(bytes32 => string)",
        "numberOfBytes": "32",
        "value": "t_string_storage"
      },
      "t_mapping(t_bytes32,t_struct(RoleData)34_storage)": {
        "encoding": "mapping",
        "key": "t_bytes32",
        "label": "mapping(bytes32 => struct AccessControlUpgradeable.RoleData)",
        "numberOfBytes": "32",
        "value": "t_struct(RoleData)34_storage"
      },
      "t_mapping(t_uint256,t_mapping(t_address,t_uint256))": {
        "encoding": "mapping",
        "key": "t_uint256",
        "label": "mapping(uint256 => mapping(address => uint256))",
        "numberOfBytes": "32",
        "value": "t_mapping(t_address,t_uint256)"
      },
      "t_mapping(t_uint256,t_string_storage)": {
        "encoding": "mapping",
        "key": "t_uint256",
        "label": "mapping(uint256 => string)",
        "numberOfBytes": "32",
        "value": "t_string_storage"
      },
      "t_mapping(t_uint256,t_struct(Claim)3602_storage)": {
        "encoding": "mapping",
        "key": "t_uint256",
        "label": "mapping(uint256 => struct HypercertMinterV0.Claim)",
        "numberOfBytes": "32",
        "value": "t_struct(Claim)3602_storage"
      },
      "t_mapping(t_uint256,t_uint256)": {
        "encoding": "mapping",
        "key": "t_uint256",
        "label": "mapping(uint256 => uint256)",
        "numberOfBytes": "32",
        "value": "t_uint256"
      },
      "t_string_storage": {
        "encoding": "bytes",
        "label": "string",
        "numberOfBytes": "32"
      },
      "t_struct(Claim)3602_storage": {
        "encoding": "inplace",
        "label": "struct HypercertMinterV0.Claim",
        "members": [
          {
            "astId": 3577,
            "contract": "contracts/HypercertMinterV0.sol:HypercertMinterV0",
            "label": "claimHash",
            "offset": 0,
            "slot": "0",
            "type": "t_bytes32"
          },
          {
            "astId": 3580,
            "contract": "contracts/HypercertMinterV0.sol:HypercertMinterV0",
            "label": "contributors",
            "offset": 0,
            "slot": "1",
            "type": "t_array(t_address)dyn_storage"
          },
          {
            "astId": 3584,
            "contract": "contracts/HypercertMinterV0.sol:HypercertMinterV0",
            "label": "workTimeframe",
            "offset": 0,
            "slot": "2",
            "type": "t_array(t_uint256)2_storage"
          },
          {
            "astId": 3588,
            "contract": "contracts/HypercertMinterV0.sol:HypercertMinterV0",
            "label": "impactTimeframe",
            "offset": 0,
            "slot": "4",
            "type": "t_array(t_uint256)2_storage"
          },
          {
            "astId": 3591,
            "contract": "contracts/HypercertMinterV0.sol:HypercertMinterV0",
            "label": "workScopes",
            "offset": 0,
            "slot": "6",
            "type": "t_array(t_bytes32)dyn_storage"
          },
          {
            "astId": 3594,
            "contract": "contracts/HypercertMinterV0.sol:HypercertMinterV0",
            "label": "impactScopes",
            "offset": 0,
            "slot": "7",
            "type": "t_array(t_bytes32)dyn_storage"
          },
          {
            "astId": 3597,
            "contract": "contracts/HypercertMinterV0.sol:HypercertMinterV0",
            "label": "rights",
            "offset": 0,
            "slot": "8",
            "type": "t_array(t_bytes32)dyn_storage"
          },
          {
            "astId": 3599,
            "contract": "contracts/HypercertMinterV0.sol:HypercertMinterV0",
            "label": "version",
            "offset": 0,
            "slot": "9",
            "type": "t_uint256"
          },
          {
            "astId": 3601,
            "contract": "contracts/HypercertMinterV0.sol:HypercertMinterV0",
            "label": "exists",
            "offset": 0,
            "slot": "10",
            "type": "t_bool"
          }
        ],
        "numberOfBytes": "352"
      },
      "t_struct(RoleData)34_storage": {
        "encoding": "inplace",
        "label": "struct AccessControlUpgradeable.RoleData",
        "members": [
          {
            "astId": 31,
            "contract": "contracts/HypercertMinterV0.sol:HypercertMinterV0",
            "label": "members",
            "offset": 0,
            "slot": "0",
            "type": "t_mapping(t_address,t_bool)"
          },
          {
            "astId": 33,
            "contract": "contracts/HypercertMinterV0.sol:HypercertMinterV0",
            "label": "adminRole",
            "offset": 0,
            "slot": "1",
            "type": "t_bytes32"
          }
        ],
        "numberOfBytes": "64"
      },
      "t_uint16": {
        "encoding": "inplace",
        "label": "uint16",
        "numberOfBytes": "2"
      },
      "t_uint256": {
        "encoding": "inplace",
        "label": "uint256",
        "numberOfBytes": "32"
      },
      "t_uint8": {
        "encoding": "inplace",
        "label": "uint8",
        "numberOfBytes": "1"
      }
    }
  }
}