{
  "address": "0x2f940EE83e730F45353C3546124c83a6E3776Da1",
  "abi": [
    {
      "inputs": [],
      "stateMutability": "nonpayable",
      "type": "constructor"
    },
    {
      "inputs": [
        {
          "internalType": "uint256",
          "name": "tokenId",
          "type": "uint256"
        }
      ],
      "name": "AlreadyMinted",
      "type": "error"
    },
    {
      "inputs": [],
      "name": "ConflictingClaim",
      "type": "error"
    },
    {
      "inputs": [],
      "name": "DuplicateScope",
      "type": "error"
    },
    {
      "inputs": [],
      "name": "EmptyInput",
      "type": "error"
    },
    {
      "inputs": [
        {
          "internalType": "uint256",
          "name": "transferAmount",
          "type": "uint256"
        },
        {
          "internalType": "uint256",
          "name": "allowance",
          "type": "uint256"
        }
      ],
      "name": "InsufficientAllowance",
      "type": "error"
    },
    {
      "inputs": [
        {
          "internalType": "uint256",
          "name": "transferAmount",
          "type": "uint256"
        },
        {
          "internalType": "uint256",
          "name": "balance",
          "type": "uint256"
        }
      ],
      "name": "InsufficientBalance",
      "type": "error"
    },
    {
      "inputs": [
        {
          "internalType": "uint256",
          "name": "tokenId",
          "type": "uint256"
        },
        {
          "internalType": "address",
          "name": "from",
          "type": "address"
        },
        {
          "internalType": "address",
          "name": "to",
          "type": "address"
        }
      ],
      "name": "InvalidApproval",
      "type": "error"
    },
    {
      "inputs": [
        {
          "internalType": "uint256",
          "name": "tokenId",
          "type": "uint256"
        }
      ],
      "name": "InvalidID",
      "type": "error"
    },
    {
      "inputs": [],
      "name": "InvalidInput",
      "type": "error"
    },
    {
      "inputs": [],
      "name": "InvalidScope",
      "type": "error"
    },
    {
      "inputs": [
        {
          "internalType": "uint64",
          "name": "from",
          "type": "uint64"
        },
        {
          "internalType": "uint64",
          "name": "to",
          "type": "uint64"
        }
      ],
      "name": "InvalidTimeframe",
      "type": "error"
    },
    {
      "inputs": [
        {
          "internalType": "uint256",
          "name": "tokenId",
          "type": "uint256"
        }
      ],
      "name": "NonExistentToken",
      "type": "error"
    },
    {
      "inputs": [],
      "name": "NotApprovedOrOwner",
      "type": "error"
    },
    {
      "inputs": [
        {
          "internalType": "uint256",
          "name": "fromTokenId",
          "type": "uint256"
        },
        {
          "internalType": "uint256",
          "name": "toTokenId",
          "type": "uint256"
        }
      ],
      "name": "SlotsMismatch",
      "type": "error"
    },
    {
      "inputs": [],
      "name": "ToZeroAddress",
      "type": "error"
    },
    {
      "anonymous": false,
      "inputs": [
        {
          "indexed": false,
          "internalType": "address",
          "name": "previousAdmin",
          "type": "address"
        },
        {
          "indexed": false,
          "internalType": "address",
          "name": "newAdmin",
          "type": "address"
        }
      ],
      "name": "AdminChanged",
      "type": "event"
    },
    {
      "anonymous": false,
      "inputs": [
        {
          "indexed": true,
          "internalType": "address",
          "name": "owner",
          "type": "address"
        },
        {
          "indexed": true,
          "internalType": "address",
          "name": "approved",
          "type": "address"
        },
        {
          "indexed": true,
          "internalType": "uint256",
          "name": "tokenId",
          "type": "uint256"
        }
      ],
      "name": "Approval",
      "type": "event"
    },
    {
      "anonymous": false,
      "inputs": [
        {
          "indexed": true,
          "internalType": "address",
          "name": "owner",
          "type": "address"
        },
        {
          "indexed": true,
          "internalType": "address",
          "name": "operator",
          "type": "address"
        },
        {
          "indexed": false,
          "internalType": "bool",
          "name": "approved",
          "type": "bool"
        }
      ],
      "name": "ApprovalForAll",
      "type": "event"
    },
    {
      "anonymous": false,
      "inputs": [
        {
          "indexed": true,
          "internalType": "uint256",
          "name": "_tokenId",
          "type": "uint256"
        },
        {
          "indexed": true,
          "internalType": "address",
          "name": "_operator",
          "type": "address"
        },
        {
          "indexed": false,
          "internalType": "uint256",
          "name": "_value",
          "type": "uint256"
        }
      ],
      "name": "ApprovalValue",
      "type": "event"
    },
    {
      "anonymous": false,
      "inputs": [
        {
          "indexed": true,
          "internalType": "address",
          "name": "beacon",
          "type": "address"
        }
      ],
      "name": "BeaconUpgraded",
      "type": "event"
    },
    {
      "anonymous": false,
      "inputs": [
        {
          "indexed": false,
          "internalType": "uint256",
          "name": "id",
          "type": "uint256"
        },
        {
          "indexed": false,
          "internalType": "address",
          "name": "minter",
          "type": "address"
        },
        {
          "indexed": false,
          "internalType": "uint256[]",
          "name": "fractions",
          "type": "uint256[]"
        }
      ],
      "name": "ImpactClaimed",
      "type": "event"
    },
    {
      "anonymous": false,
      "inputs": [
        {
          "indexed": false,
          "internalType": "bytes32",
          "name": "id",
          "type": "bytes32"
        },
        {
          "indexed": false,
          "internalType": "string",
          "name": "text",
          "type": "string"
        }
      ],
      "name": "ImpactScopeAdded",
      "type": "event"
    },
    {
      "anonymous": false,
      "inputs": [
        {
          "indexed": false,
          "internalType": "uint8",
          "name": "version",
          "type": "uint8"
        }
      ],
      "name": "Initialized",
      "type": "event"
    },
    {
      "anonymous": false,
      "inputs": [
        {
          "indexed": false,
          "internalType": "bytes32",
          "name": "id",
          "type": "bytes32"
        },
        {
          "indexed": false,
          "internalType": "string",
          "name": "text",
          "type": "string"
        }
      ],
      "name": "RightAdded",
      "type": "event"
    },
    {
      "anonymous": false,
      "inputs": [
        {
          "indexed": true,
          "internalType": "bytes32",
          "name": "role",
          "type": "bytes32"
        },
        {
          "indexed": true,
          "internalType": "bytes32",
          "name": "previousAdminRole",
          "type": "bytes32"
        },
        {
          "indexed": true,
          "internalType": "bytes32",
          "name": "newAdminRole",
          "type": "bytes32"
        }
      ],
      "name": "RoleAdminChanged",
      "type": "event"
    },
    {
      "anonymous": false,
      "inputs": [
        {
          "indexed": true,
          "internalType": "bytes32",
          "name": "role",
          "type": "bytes32"
        },
        {
          "indexed": true,
          "internalType": "address",
          "name": "account",
          "type": "address"
        },
        {
          "indexed": true,
          "internalType": "address",
          "name": "sender",
          "type": "address"
        }
      ],
      "name": "RoleGranted",
      "type": "event"
    },
    {
      "anonymous": false,
      "inputs": [
        {
          "indexed": true,
          "internalType": "bytes32",
          "name": "role",
          "type": "bytes32"
        },
        {
          "indexed": true,
          "internalType": "address",
          "name": "account",
          "type": "address"
        },
        {
          "indexed": true,
          "internalType": "address",
          "name": "sender",
          "type": "address"
        }
      ],
      "name": "RoleRevoked",
      "type": "event"
    },
    {
      "anonymous": false,
      "inputs": [
        {
          "indexed": true,
          "internalType": "uint256",
          "name": "_tokenId",
          "type": "uint256"
        },
        {
          "indexed": true,
          "internalType": "uint256",
          "name": "_oldSlot",
          "type": "uint256"
        },
        {
          "indexed": true,
          "internalType": "uint256",
          "name": "_newSlot",
          "type": "uint256"
        }
      ],
      "name": "SlotChanged",
      "type": "event"
    },
    {
      "anonymous": false,
      "inputs": [
        {
          "indexed": true,
          "internalType": "address",
          "name": "from",
          "type": "address"
        },
        {
          "indexed": true,
          "internalType": "address",
          "name": "to",
          "type": "address"
        },
        {
          "indexed": true,
          "internalType": "uint256",
          "name": "tokenId",
          "type": "uint256"
        }
      ],
      "name": "Transfer",
      "type": "event"
    },
    {
      "anonymous": false,
      "inputs": [
        {
          "indexed": true,
          "internalType": "uint256",
          "name": "_fromTokenId",
          "type": "uint256"
        },
        {
          "indexed": true,
          "internalType": "uint256",
          "name": "_toTokenId",
          "type": "uint256"
        },
        {
          "indexed": false,
          "internalType": "uint256",
          "name": "_value",
          "type": "uint256"
        }
      ],
      "name": "TransferValue",
      "type": "event"
    },
    {
      "anonymous": false,
      "inputs": [
        {
          "indexed": true,
          "internalType": "address",
          "name": "implementation",
          "type": "address"
        }
      ],
      "name": "Upgraded",
      "type": "event"
    },
    {
      "anonymous": false,
      "inputs": [
        {
          "indexed": false,
          "internalType": "bytes32",
          "name": "id",
          "type": "bytes32"
        },
        {
          "indexed": false,
          "internalType": "string",
          "name": "text",
          "type": "string"
        }
      ],
      "name": "WorkScopeAdded",
      "type": "event"
    },
    {
      "inputs": [],
      "name": "DECIMALS",
      "outputs": [
        {
          "internalType": "uint8",
          "name": "",
          "type": "uint8"
        }
      ],
      "stateMutability": "view",
      "type": "function"
    },
    {
      "inputs": [],
      "name": "DEFAULT_ADMIN_ROLE",
      "outputs": [
        {
          "internalType": "bytes32",
          "name": "",
          "type": "bytes32"
        }
      ],
      "stateMutability": "view",
      "type": "function"
    },
    {
      "inputs": [],
      "name": "NAME",
      "outputs": [
        {
          "internalType": "string",
          "name": "",
          "type": "string"
        }
      ],
      "stateMutability": "view",
      "type": "function"
    },
    {
      "inputs": [],
      "name": "SYMBOL",
      "outputs": [
        {
          "internalType": "string",
          "name": "",
          "type": "string"
        }
      ],
      "stateMutability": "view",
      "type": "function"
    },
    {
      "inputs": [],
      "name": "UPGRADER_ROLE",
      "outputs": [
        {
          "internalType": "bytes32",
          "name": "",
          "type": "bytes32"
        }
      ],
      "stateMutability": "view",
      "type": "function"
    },
    {
      "inputs": [
        {
          "internalType": "string",
          "name": "text",
          "type": "string"
        }
      ],
      "name": "addImpactScope",
      "outputs": [
        {
          "internalType": "bytes32",
          "name": "id",
          "type": "bytes32"
        }
      ],
      "stateMutability": "nonpayable",
      "type": "function"
    },
    {
      "inputs": [
        {
          "internalType": "string",
          "name": "text",
          "type": "string"
        }
      ],
      "name": "addRight",
      "outputs": [
        {
          "internalType": "bytes32",
          "name": "id",
          "type": "bytes32"
        }
      ],
      "stateMutability": "nonpayable",
      "type": "function"
    },
    {
      "inputs": [
        {
          "internalType": "string",
          "name": "text",
          "type": "string"
        }
      ],
      "name": "addWorkScope",
      "outputs": [
        {
          "internalType": "bytes32",
          "name": "id",
          "type": "bytes32"
        }
      ],
      "stateMutability": "nonpayable",
      "type": "function"
    },
    {
      "inputs": [
        {
          "internalType": "uint256",
          "name": "tokenId_",
          "type": "uint256"
        },
        {
          "internalType": "address",
          "name": "operator_",
          "type": "address"
        }
      ],
      "name": "allowance",
      "outputs": [
        {
          "internalType": "uint256",
          "name": "",
          "type": "uint256"
        }
      ],
      "stateMutability": "view",
      "type": "function"
    },
    {
      "inputs": [
        {
          "internalType": "address",
          "name": "to",
          "type": "address"
        },
        {
          "internalType": "uint256",
          "name": "tokenId",
          "type": "uint256"
        }
      ],
      "name": "approve",
      "outputs": [],
      "stateMutability": "nonpayable",
      "type": "function"
    },
    {
      "inputs": [
        {
          "internalType": "uint256",
          "name": "tokenId_",
          "type": "uint256"
        },
        {
          "internalType": "address",
          "name": "to_",
          "type": "address"
        },
        {
          "internalType": "uint256",
          "name": "value_",
          "type": "uint256"
        }
      ],
      "name": "approve",
      "outputs": [],
      "stateMutability": "payable",
      "type": "function"
    },
    {
      "inputs": [
        {
          "internalType": "address",
          "name": "owner",
          "type": "address"
        }
      ],
      "name": "balanceOf",
      "outputs": [
        {
          "internalType": "uint256",
          "name": "",
          "type": "uint256"
        }
      ],
      "stateMutability": "view",
      "type": "function"
    },
    {
      "inputs": [
        {
          "internalType": "uint256",
          "name": "tokenId_",
          "type": "uint256"
        }
      ],
      "name": "balanceOf",
      "outputs": [
        {
          "internalType": "uint256",
          "name": "",
          "type": "uint256"
        }
      ],
      "stateMutability": "view",
      "type": "function"
    },
    {
      "inputs": [
        {
          "internalType": "uint256",
          "name": "tokenId",
          "type": "uint256"
        }
      ],
      "name": "burn",
      "outputs": [],
      "stateMutability": "nonpayable",
      "type": "function"
    },
    {
      "inputs": [],
      "name": "contractURI",
      "outputs": [
        {
          "internalType": "string",
          "name": "",
          "type": "string"
        }
      ],
      "stateMutability": "view",
      "type": "function"
    },
    {
      "inputs": [
        {
          "internalType": "uint256",
          "name": "tokenId",
          "type": "uint256"
        }
      ],
      "name": "getApproved",
      "outputs": [
        {
          "internalType": "address",
          "name": "",
          "type": "address"
        }
      ],
      "stateMutability": "view",
      "type": "function"
    },
    {
      "inputs": [
        {
          "internalType": "uint64[2]",
          "name": "workTimeframe_",
          "type": "uint64[2]"
        },
        {
          "internalType": "bytes32[]",
          "name": "workScopes_",
          "type": "bytes32[]"
        },
        {
          "internalType": "uint64[2]",
          "name": "impactTimeframe_",
          "type": "uint64[2]"
        },
        {
          "internalType": "bytes32[]",
          "name": "impactScopes_",
          "type": "bytes32[]"
        }
      ],
      "name": "getHash",
      "outputs": [
        {
          "internalType": "bytes32",
          "name": "",
          "type": "bytes32"
        }
      ],
      "stateMutability": "pure",
      "type": "function"
    },
    {
      "inputs": [
        {
          "internalType": "uint256",
          "name": "claimID",
          "type": "uint256"
        }
      ],
      "name": "getImpactCert",
      "outputs": [
        {
          "components": [
            {
              "internalType": "bytes32",
              "name": "claimHash",
              "type": "bytes32"
            },
            {
              "internalType": "uint64[2]",
              "name": "workTimeframe",
              "type": "uint64[2]"
            },
            {
              "internalType": "uint64[2]",
              "name": "impactTimeframe",
              "type": "uint64[2]"
            },
            {
              "internalType": "bytes32[]",
              "name": "workScopes",
              "type": "bytes32[]"
            },
            {
              "internalType": "bytes32[]",
              "name": "impactScopes",
              "type": "bytes32[]"
            },
            {
              "internalType": "bytes32[]",
              "name": "rights",
              "type": "bytes32[]"
            },
            {
              "internalType": "address[]",
              "name": "contributors",
              "type": "address[]"
            },
            {
              "internalType": "uint256",
              "name": "totalUnits",
              "type": "uint256"
            },
            {
              "internalType": "uint16",
              "name": "version",
              "type": "uint16"
            },
            {
              "internalType": "bool",
              "name": "exists",
              "type": "bool"
            },
            {
              "internalType": "string",
              "name": "name",
              "type": "string"
            },
            {
              "internalType": "string",
              "name": "description",
              "type": "string"
            },
            {
              "internalType": "string",
              "name": "uri",
              "type": "string"
            }
          ],
          "internalType": "struct HyperCertMinter.Claim",
          "name": "",
          "type": "tuple"
        }
      ],
      "stateMutability": "view",
      "type": "function"
    },
    {
      "inputs": [
        {
          "internalType": "bytes32",
          "name": "role",
          "type": "bytes32"
        }
      ],
      "name": "getRoleAdmin",
      "outputs": [
        {
          "internalType": "bytes32",
          "name": "",
          "type": "bytes32"
        }
      ],
      "stateMutability": "view",
      "type": "function"
    },
    {
      "inputs": [
        {
          "internalType": "bytes32",
          "name": "role",
          "type": "bytes32"
        },
        {
          "internalType": "address",
          "name": "account",
          "type": "address"
        }
      ],
      "name": "grantRole",
      "outputs": [],
      "stateMutability": "nonpayable",
      "type": "function"
    },
    {
      "inputs": [
        {
          "internalType": "bytes32",
          "name": "role",
          "type": "bytes32"
        },
        {
          "internalType": "address",
          "name": "account",
          "type": "address"
        }
      ],
      "name": "hasRole",
      "outputs": [
        {
          "internalType": "bool",
          "name": "",
          "type": "bool"
        }
      ],
      "stateMutability": "view",
      "type": "function"
    },
    {
      "inputs": [
        {
          "internalType": "bytes32",
          "name": "",
          "type": "bytes32"
        }
      ],
      "name": "impactScopes",
      "outputs": [
        {
          "internalType": "string",
          "name": "",
          "type": "string"
        }
      ],
      "stateMutability": "view",
      "type": "function"
    },
    {
      "inputs": [
        {
          "internalType": "address",
          "name": "metadataAddress",
          "type": "address"
        }
      ],
      "name": "initialize",
      "outputs": [],
      "stateMutability": "nonpayable",
      "type": "function"
    },
    {
      "inputs": [
        {
          "internalType": "address",
          "name": "owner",
          "type": "address"
        },
        {
          "internalType": "address",
          "name": "operator",
          "type": "address"
        }
      ],
      "name": "isApprovedForAll",
      "outputs": [
        {
          "internalType": "bool",
          "name": "",
          "type": "bool"
        }
      ],
      "stateMutability": "view",
      "type": "function"
    },
    {
      "inputs": [
        {
          "internalType": "uint256[]",
          "name": "tokenIds",
          "type": "uint256[]"
        }
      ],
      "name": "merge",
      "outputs": [],
      "stateMutability": "nonpayable",
      "type": "function"
    },
    {
      "inputs": [
        {
          "internalType": "address",
          "name": "account",
          "type": "address"
        },
        {
          "internalType": "bytes",
          "name": "data",
          "type": "bytes"
        }
      ],
      "name": "mint",
      "outputs": [],
      "stateMutability": "nonpayable",
      "type": "function"
    },
    {
      "inputs": [],
      "name": "name",
      "outputs": [
        {
          "internalType": "string",
          "name": "",
          "type": "string"
        }
      ],
      "stateMutability": "pure",
      "type": "function"
    },
    {
      "inputs": [
        {
          "internalType": "uint256",
          "name": "tokenId",
          "type": "uint256"
        }
      ],
      "name": "ownerOf",
      "outputs": [
        {
          "internalType": "address",
          "name": "",
          "type": "address"
        }
      ],
      "stateMutability": "view",
      "type": "function"
    },
    {
      "inputs": [],
      "name": "proxiableUUID",
      "outputs": [
        {
          "internalType": "bytes32",
          "name": "",
          "type": "bytes32"
        }
      ],
      "stateMutability": "view",
      "type": "function"
    },
    {
      "inputs": [
        {
          "internalType": "bytes32",
          "name": "role",
          "type": "bytes32"
        },
        {
          "internalType": "address",
          "name": "account",
          "type": "address"
        }
      ],
      "name": "renounceRole",
      "outputs": [],
      "stateMutability": "nonpayable",
      "type": "function"
    },
    {
      "inputs": [
        {
          "internalType": "bytes32",
          "name": "role",
          "type": "bytes32"
        },
        {
          "internalType": "address",
          "name": "account",
          "type": "address"
        }
      ],
      "name": "revokeRole",
      "outputs": [],
      "stateMutability": "nonpayable",
      "type": "function"
    },
    {
      "inputs": [
        {
          "internalType": "bytes32",
          "name": "",
          "type": "bytes32"
        }
      ],
      "name": "rights",
      "outputs": [
        {
          "internalType": "string",
          "name": "",
          "type": "string"
        }
      ],
      "stateMutability": "view",
      "type": "function"
    },
    {
      "inputs": [
        {
          "internalType": "address",
          "name": "from",
          "type": "address"
        },
        {
          "internalType": "address",
          "name": "to",
          "type": "address"
        },
        {
          "internalType": "uint256",
          "name": "tokenId",
          "type": "uint256"
        }
      ],
      "name": "safeTransferFrom",
      "outputs": [],
      "stateMutability": "nonpayable",
      "type": "function"
    },
    {
      "inputs": [
        {
          "internalType": "address",
          "name": "from",
          "type": "address"
        },
        {
          "internalType": "address",
          "name": "to",
          "type": "address"
        },
        {
          "internalType": "uint256",
          "name": "tokenId",
          "type": "uint256"
        },
        {
          "internalType": "bytes",
          "name": "data",
          "type": "bytes"
        }
      ],
      "name": "safeTransferFrom",
      "outputs": [],
      "stateMutability": "nonpayable",
      "type": "function"
    },
    {
      "inputs": [
        {
          "internalType": "address",
          "name": "operator",
          "type": "address"
        },
        {
          "internalType": "bool",
          "name": "approved",
          "type": "bool"
        }
      ],
      "name": "setApprovalForAll",
      "outputs": [],
      "stateMutability": "nonpayable",
      "type": "function"
    },
    {
      "inputs": [
        {
          "internalType": "uint256",
          "name": "_index",
          "type": "uint256"
        }
      ],
      "name": "slotByIndex",
      "outputs": [
        {
          "internalType": "uint256",
          "name": "",
          "type": "uint256"
        }
      ],
      "stateMutability": "view",
      "type": "function"
    },
    {
      "inputs": [],
      "name": "slotCount",
      "outputs": [
        {
          "internalType": "uint256",
          "name": "",
          "type": "uint256"
        }
      ],
      "stateMutability": "view",
      "type": "function"
    },
    {
      "inputs": [
        {
          "internalType": "uint256",
          "name": "tokenId_",
          "type": "uint256"
        }
      ],
      "name": "slotOf",
      "outputs": [
        {
          "internalType": "uint256",
          "name": "",
          "type": "uint256"
        }
      ],
      "stateMutability": "view",
      "type": "function"
    },
    {
      "inputs": [
        {
          "internalType": "uint256",
          "name": "slotId_",
          "type": "uint256"
        }
      ],
      "name": "slotURI",
      "outputs": [
        {
          "internalType": "string",
          "name": "",
          "type": "string"
        }
      ],
      "stateMutability": "view",
      "type": "function"
    },
    {
      "inputs": [
        {
          "internalType": "uint256",
          "name": "tokenId",
          "type": "uint256"
        },
        {
          "internalType": "uint256[]",
          "name": "amounts",
          "type": "uint256[]"
        }
      ],
      "name": "split",
      "outputs": [],
      "stateMutability": "nonpayable",
      "type": "function"
    },
    {
      "inputs": [
        {
          "internalType": "bytes4",
          "name": "interfaceId",
          "type": "bytes4"
        }
      ],
      "name": "supportsInterface",
      "outputs": [
        {
          "internalType": "bool",
          "name": "",
          "type": "bool"
        }
      ],
      "stateMutability": "view",
      "type": "function"
    },
    {
      "inputs": [],
      "name": "symbol",
      "outputs": [
        {
          "internalType": "string",
          "name": "",
          "type": "string"
        }
      ],
      "stateMutability": "pure",
      "type": "function"
    },
    {
      "inputs": [
        {
          "internalType": "uint256",
          "name": "index",
          "type": "uint256"
        }
      ],
      "name": "tokenByIndex",
      "outputs": [
        {
          "internalType": "uint256",
          "name": "",
          "type": "uint256"
        }
      ],
      "stateMutability": "view",
      "type": "function"
    },
    {
      "inputs": [
        {
          "internalType": "uint256",
          "name": "_slot",
          "type": "uint256"
        },
        {
          "internalType": "uint256",
          "name": "_index",
          "type": "uint256"
        }
      ],
      "name": "tokenInSlotByIndex",
      "outputs": [
        {
          "internalType": "uint256",
          "name": "",
          "type": "uint256"
        }
      ],
      "stateMutability": "view",
      "type": "function"
    },
    {
      "inputs": [
        {
          "internalType": "address",
          "name": "owner",
          "type": "address"
        },
        {
          "internalType": "uint256",
          "name": "index",
          "type": "uint256"
        }
      ],
      "name": "tokenOfOwnerByIndex",
      "outputs": [
        {
          "internalType": "uint256",
          "name": "",
          "type": "uint256"
        }
      ],
      "stateMutability": "view",
      "type": "function"
    },
    {
      "inputs": [
        {
          "internalType": "uint256",
          "name": "_slot",
          "type": "uint256"
        }
      ],
      "name": "tokenSupplyInSlot",
      "outputs": [
        {
          "internalType": "uint256",
          "name": "",
          "type": "uint256"
        }
      ],
      "stateMutability": "view",
      "type": "function"
    },
    {
      "inputs": [
        {
          "internalType": "uint256",
          "name": "tokenId_",
          "type": "uint256"
        }
      ],
      "name": "tokenURI",
      "outputs": [
        {
          "internalType": "string",
          "name": "",
          "type": "string"
        }
      ],
      "stateMutability": "view",
      "type": "function"
    },
    {
      "inputs": [],
      "name": "totalSupply",
      "outputs": [
        {
          "internalType": "uint256",
          "name": "",
          "type": "uint256"
        }
      ],
      "stateMutability": "view",
      "type": "function"
    },
    {
      "inputs": [
        {
          "internalType": "uint256",
          "name": "fromTokenId_",
          "type": "uint256"
        },
        {
          "internalType": "address",
          "name": "to_",
          "type": "address"
        },
        {
          "internalType": "uint256",
          "name": "value_",
          "type": "uint256"
        }
      ],
      "name": "transferFrom",
      "outputs": [
        {
          "internalType": "uint256",
          "name": "newTokenId",
          "type": "uint256"
        }
      ],
      "stateMutability": "payable",
      "type": "function"
    },
    {
      "inputs": [
        {
          "internalType": "address",
          "name": "from",
          "type": "address"
        },
        {
          "internalType": "address",
          "name": "to",
          "type": "address"
        },
        {
          "internalType": "uint256",
          "name": "tokenId",
          "type": "uint256"
        }
      ],
      "name": "transferFrom",
      "outputs": [],
      "stateMutability": "nonpayable",
      "type": "function"
    },
    {
      "inputs": [
        {
          "internalType": "uint256",
          "name": "fromTokenId_",
          "type": "uint256"
        },
        {
          "internalType": "uint256",
          "name": "toTokenId_",
          "type": "uint256"
        },
        {
          "internalType": "uint256",
          "name": "value_",
          "type": "uint256"
        }
      ],
      "name": "transferFrom",
      "outputs": [],
      "stateMutability": "payable",
      "type": "function"
    },
    {
      "inputs": [],
      "name": "updateVersion",
      "outputs": [],
      "stateMutability": "nonpayable",
      "type": "function"
    },
    {
      "inputs": [
        {
          "internalType": "address",
          "name": "newImplementation",
          "type": "address"
        }
      ],
      "name": "upgradeTo",
      "outputs": [],
      "stateMutability": "nonpayable",
      "type": "function"
    },
    {
      "inputs": [
        {
          "internalType": "address",
          "name": "newImplementation",
          "type": "address"
        },
        {
          "internalType": "bytes",
          "name": "data",
          "type": "bytes"
        }
      ],
      "name": "upgradeToAndCall",
      "outputs": [],
      "stateMutability": "payable",
      "type": "function"
    },
    {
      "inputs": [],
      "name": "valueDecimals",
      "outputs": [
        {
          "internalType": "uint8",
          "name": "",
          "type": "uint8"
        }
      ],
      "stateMutability": "view",
      "type": "function"
    },
    {
      "inputs": [],
      "name": "version",
      "outputs": [
        {
          "internalType": "uint256",
          "name": "",
          "type": "uint256"
        }
      ],
      "stateMutability": "view",
      "type": "function"
    },
    {
      "inputs": [
        {
          "internalType": "bytes32",
          "name": "",
          "type": "bytes32"
        }
      ],
      "name": "workScopes",
      "outputs": [
        {
          "internalType": "string",
          "name": "",
          "type": "string"
        }
      ],
      "stateMutability": "view",
      "type": "function"
    }
  ],
  "numDeployments": 1,
  "solcInputHash": "ccf929ddab859165c83343b52c6729f8",
  "bytecode": "0x60a0604052306080523480156200001557600080fd5b506200002062000026565b620000e8565b600054610100900460ff1615620000935760405162461bcd60e51b815260206004820152602760248201527f496e697469616c697a61626c653a20636f6e747261637420697320696e697469604482015266616c697a696e6760c81b606482015260840160405180910390fd5b60005460ff9081161015620000e6576000805460ff191660ff9081179091556040519081527f7f26b83ff96e1f2b6a682f133852f6798a09c465da95921460cefb38474024989060200160405180910390a15b565b608051615311620001206000396000818161107e01528181611103015281816112eb0152818161137001526114fa01526153116000f3fe6080604052600436106103755760003560e01c80636352211e116101d1578063b510391f11610102578063e345e0bc116100a0578063ef6f66d71161006f578063ef6f66d714610ab7578063f0f11e0514610ad7578063f72c0d8b14610af7578063f76f8d7814610b2b57600080fd5b8063e345e0bc146109fd578063e8a3d48514610a44578063e985e9c514610a59578063ed08fa8014610aa257600080fd5b8063c87b56dd116100dc578063c87b56dd1461097d578063d52fd0951461099d578063d547741f146109bd578063de62d842146109dd57600080fd5b8063b510391f1461091d578063b88d4fde1461093d578063c4d66de81461095d57600080fd5b806395d89b411161016f5780639cc7f708116101495780639cc7f70814610892578063a217fddf146108b2578063a22cb465146108c7578063a3f4df7e146108e757600080fd5b806395d89b4114610825578063993bef8d14610852578063997edc611461087257600080fd5b806372927aa3116101ab57806372927aa31461077e5780638cb0a511146107ab5780638f88b767146107be57806391d14854146107de57600080fd5b80636352211e1461071e57806369c672471461073e57806370a082311461075e57600080fd5b80632f2ff15d116102ab57806342966c68116102495780634f6ccce7116102235780634f6ccce7146106a25780634f8a0f83146106c257806352d1902d146106ef57806354fd4d501461070457600080fd5b806342966c681461065a57806348c02dc11461067a5780634f1ef2861461068f57600080fd5b806336568abe1161028557806336568abe146105e65780633659cfe6146106065780633e7e86691461062657806342842e0e1461063a57600080fd5b80632f2ff15d146105935780632f745c59146105b3578063310ed7f0146105d357600080fd5b806311e322081161031857806323b872dd116102f257806323b872dd146104fb578063248a9ca31461051b578063263f3e7e1461054c5780632e0f26251461056c57600080fd5b806311e32208146104a657806318160ddd146104c65780631e6ad4b8146104db57600080fd5b8063081812fc11610354578063081812fc14610419578063095ea7b31461045157806309c3dd87146104735780630f485c021461049357600080fd5b8062cd01101461037a57806301ffc9a7146103ad57806306fdde03146103dd575b600080fd5b34801561038657600080fd5b5061039a610395366004614382565b610b5b565b6040519081526020015b60405180910390f35b3480156103b957600080fd5b506103cd6103c83660046143ba565b610b8f565b60405190151581526020016103a4565b3480156103e957600080fd5b5060408051808201909152600a8152694879706572436572747360b01b60208201525b6040516103a49190614427565b34801561042557600080fd5b5061043961043436600461443a565b610b9a565b6040516001600160a01b0390911681526020016103a4565b34801561045d57600080fd5b5061047161046c36600461446f565b610bc1565b005b34801561047f57600080fd5b5061040c61048e36600461443a565b610cdb565b61039a6104a1366004614499565b610d55565b3480156104b257600080fd5b5061039a6104c1366004614624565b610d9d565b3480156104d257600080fd5b5060995461039a565b3480156104e757600080fd5b5061039a6104f6366004614724565b610dd7565b34801561050757600080fd5b50610471610516366004614759565b610e40565b34801561052757600080fd5b5061039a61053636600461443a565b6000908152610100602052604090206001015490565b34801561055857600080fd5b5061039a61056736600461443a565b610eb9565b34801561057857600080fd5b50610581600081565b60405160ff90911681526020016103a4565b34801561059f57600080fd5b506104716105ae366004614785565b610f04565b3480156105bf57600080fd5b5061039a6105ce36600461446f565b610f2a565b6104716105e13660046147b1565b610fd2565b3480156105f257600080fd5b50610471610601366004614785565b610fe8565b34801561061257600080fd5b506104716106213660046147dd565b611074565b34801561063257600080fd5b506000610581565b34801561064657600080fd5b50610471610655366004614759565b6111ef565b34801561066657600080fd5b5061047161067536600461443a565b61120a565b34801561068657600080fd5b5061047161127f565b61047161069d3660046147f8565b6112e1565b3480156106ae57600080fd5b5061039a6106bd36600461443a565b611449565b3480156106ce57600080fd5b5061039a6106dd36600461443a565b600090815260ff602052604090205490565b3480156106fb57600080fd5b5061039a6114ed565b34801561071057600080fd5b506101965461ffff1661039a565b34801561072a57600080fd5b5061043961073936600461443a565b6115b2565b34801561074a57600080fd5b50610471610759366004614846565b611617565b34801561076a57600080fd5b5061039a6107793660046147dd565b611768565b34801561078a57600080fd5b5061079e61079936600461443a565b611802565b6040516103a49190614966565b6104716107b9366004614499565b611c50565b3480156107ca57600080fd5b5061040c6107d936600461443a565b611cde565b3480156107ea57600080fd5b506103cd6107f9366004614785565b6000918252610100602090815260408084206001600160a01b0393909316845291905290205460ff1690565b34801561083157600080fd5b506040805180820190915260048152631210d49560e21b602082015261040c565b34801561085e57600080fd5b5061039a61086d36600461443a565b611d79565b34801561087e57600080fd5b5061039a61088d366004614724565b611d8e565b34801561089e57600080fd5b5061039a6108ad36600461443a565b611dea565b3480156108be57600080fd5b5061039a600081565b3480156108d357600080fd5b506104716108e2366004614ab2565b611e35565b3480156108f357600080fd5b5061040c6040518060400160405280600a8152602001694879706572436572747360b01b81525081565b34801561092957600080fd5b50610471610938366004614aee565b611e40565b34801561094957600080fd5b50610471610958366004614b5e565b61203b565b34801561096957600080fd5b506104716109783660046147dd565b6120b4565b34801561098957600080fd5b5061040c61099836600461443a565b612252565b3480156109a957600080fd5b5061040c6109b836600461443a565b61229d565b3480156109c957600080fd5b506104716109d8366004614785565b6122b7565b3480156109e957600080fd5b506104716109f8366004614bba565b6122dd565b348015610a0957600080fd5b5061039a610a18366004614785565b600082815260fc602090815260408083206001600160a01b038516845260010190915290205492915050565b348015610a5057600080fd5b5061040c612366565b348015610a6557600080fd5b506103cd610a74366004614bef565b6001600160a01b039182166000908152606a6020908152604080832093909416825291909152205460ff1690565b348015610aae57600080fd5b5060fe5461039a565b348015610ac357600080fd5b5061040c610ad236600461443a565b6123cf565b348015610ae357600080fd5b5061039a610af2366004614724565b6123e9565b348015610b0357600080fd5b5061039a7f189ab7a9244df0848122154315af71fe140f3db0fe014031783b0946b8c9d2e381565b348015610b3757600080fd5b5061040c604051806040016040528060048152602001631210d49560e21b81525081565b600082815260ff60205260408120805483908110610b7b57610b7b614c19565b906000526020600020015490505b92915050565b6000610b8982612445565b6000610ba58261246a565b506000908152606960205260409020546001600160a01b031690565b6000610bcc826115b2565b9050806001600160a01b0316836001600160a01b031603610c3e5760405162461bcd60e51b815260206004820152602160248201527f4552433732313a20617070726f76616c20746f2063757272656e74206f776e656044820152603960f91b60648201526084015b60405180910390fd5b336001600160a01b0382161480610c5a5750610c5a8133610a74565b610ccc5760405162461bcd60e51b815260206004820152603e60248201527f4552433732313a20617070726f76652063616c6c6572206973206e6f7420746f60448201527f6b656e206f776e6572206e6f7220617070726f76656420666f7220616c6c00006064820152608401610c35565b610cd683836124ce565b505050565b610196546040516391383c8960e01b8152600481018390526060916201000090046001600160a01b0316906391383c89906024015b600060405180830381865afa158015610d2d573d6000803e3d6000fd5b505050506040513d6000823e601f3d908101601f19168201604052610b899190810190614c2f565b6000610d6233858461253c565b610d6b846125bf565b9050610d8b838260fd6000888152602001908152602001600020546125d5565b610d9684828461268f565b9392505050565b600084848484604051602001610db69493929190614c9d565b6040516020818303038152906040528051906020012090505b949350505050565b6000610de582610198612836565b600081815261019860205260409020909150610e018382614d67565b507f2efcce702e3d0b95b3deb632da6d41c3d169e0c3effb9066d949f14d6f13224f8183604051610e33929190614e27565b60405180910390a1919050565b610e4b335b826128ab565b610eae5760405162461bcd60e51b815260206004820152602e60248201527f4552433732313a2063616c6c6572206973206e6f7420746f6b656e206f776e6560448201526d1c881b9bdc88185c1c1c9bdd995960921b6064820152608401610c35565b610cd6838383612929565b6000818152606760205260408120546001600160a01b0316610ef1576040516338077a2b60e01b815260048101839052602401610c35565b50600090815260fd602052604090205490565b60008281526101006020526040902060010154610f2081612ae8565b610cd68383612af2565b6000610f3583611768565b8210610fa95760405162461bcd60e51b815260206004820152602b60248201527f455243373231456e756d657261626c653a206f776e657220696e646578206f7560448201527f74206f6620626f756e64730000000000000000000000000000000000000000006064820152608401610c35565b506001600160a01b03919091166000908152609760209081526040808320938352929052205490565b610fdd33848361253c565b610cd683838361268f565b6001600160a01b03811633146110665760405162461bcd60e51b815260206004820152602f60248201527f416363657373436f6e74726f6c3a2063616e206f6e6c792072656e6f756e636560448201527f20726f6c657320666f722073656c6600000000000000000000000000000000006064820152608401610c35565b6110708282612b96565b5050565b6001600160a01b037f00000000000000000000000000000000000000000000000000000000000000001630036111015760405162461bcd60e51b815260206004820152602c60248201527f46756e6374696f6e206d7573742062652063616c6c6564207468726f7567682060448201526b19195b1959d85d1958d85b1b60a21b6064820152608401610c35565b7f00000000000000000000000000000000000000000000000000000000000000006001600160a01b031661115c7f360894a13ba1a3210667c828492db98dca3e2076cc3735a920a3ca505d382bbc546001600160a01b031690565b6001600160a01b0316146111c75760405162461bcd60e51b815260206004820152602c60248201527f46756e6374696f6e206d7573742062652063616c6c6564207468726f7567682060448201526b6163746976652070726f787960a01b6064820152608401610c35565b6111d081612c1b565b604080516000808252602082019092526111ec91839190612c45565b50565b610cd68383836040518060200160405280600081525061203b565b61121333610e45565b6112765760405162461bcd60e51b815260206004820152602e60248201527f4552433732313a2063616c6c6572206973206e6f7420746f6b656e206f776e6560448201526d1c881b9bdc88185c1c1c9bdd995960921b6064820152608401610c35565b6111ec81612de5565b7f189ab7a9244df0848122154315af71fe140f3db0fe014031783b0946b8c9d2e36112a981612ae8565b6101968054600191906000906112c490849061ffff16614e56565b92506101000a81548161ffff021916908361ffff16021790555050565b6001600160a01b037f000000000000000000000000000000000000000000000000000000000000000016300361136e5760405162461bcd60e51b815260206004820152602c60248201527f46756e6374696f6e206d7573742062652063616c6c6564207468726f7567682060448201526b19195b1959d85d1958d85b1b60a21b6064820152608401610c35565b7f00000000000000000000000000000000000000000000000000000000000000006001600160a01b03166113c97f360894a13ba1a3210667c828492db98dca3e2076cc3735a920a3ca505d382bbc546001600160a01b031690565b6001600160a01b0316146114345760405162461bcd60e51b815260206004820152602c60248201527f46756e6374696f6e206d7573742062652063616c6c6564207468726f7567682060448201526b6163746976652070726f787960a01b6064820152608401610c35565b61143d82612c1b565b61107082826001612c45565b600061145460995490565b82106114c85760405162461bcd60e51b815260206004820152602c60248201527f455243373231456e756d657261626c653a20676c6f62616c20696e646578206f60448201527f7574206f6620626f756e647300000000000000000000000000000000000000006064820152608401610c35565b609982815481106114db576114db614c19565b90600052602060002001549050919050565b6000306001600160a01b037f0000000000000000000000000000000000000000000000000000000000000000161461158d5760405162461bcd60e51b815260206004820152603860248201527f555550535570677261646561626c653a206d757374206e6f742062652063616c60448201527f6c6564207468726f7567682064656c656761746563616c6c00000000000000006064820152608401610c35565b507f360894a13ba1a3210667c828492db98dca3e2076cc3735a920a3ca505d382bbc90565b6000818152606760205260408120546001600160a01b031680610b895760405162461bcd60e51b815260206004820152601860248201527f4552433732313a20696e76616c696420746f6b656e20494400000000000000006044820152606401610c35565b6000838152606760205260409020546001600160a01b031661164f576040516338077a2b60e01b815260048101849052602401610c35565b6000816001819003611677576040516314b27b7f60e31b815260048101869052602401610c35565b60005b818110156116ba5784848281811061169457611694614c19565b90506020020135836116a69190614e71565b9250806116b281614e84565b91505061167a565b506116c485611dea565b8211806116d857506116d585611dea565b82105b156116f65760405163b4fa3fb360e01b815260040160405180910390fd5b82600061170287610eb9565b905060015b8281101561175e57600061171b60006125bf565b90506117283382856125d5565b61174b89828a8a8681811061173f5761173f614c19565b9050602002013561268f565b508061175681614e84565b915050611707565b5050505050505050565b60006001600160a01b0382166117e65760405162461bcd60e51b815260206004820152602960248201527f4552433732313a2061646472657373207a65726f206973206e6f74206120766160448201527f6c6964206f776e657200000000000000000000000000000000000000000000006064820152608401610c35565b506001600160a01b031660009081526068602052604090205490565b61180a61417e565b600082815261019b6020908152604080832081516101a0810183528154815282518084019384905290949193850192909160018501916002918390855b82829054906101000a900467ffffffffffffffff1667ffffffffffffffff168152602001906008019060208260070104928301926001038202915080841161184757505050928452505060408051808201918290526020909301929150600284810191826000855b82829054906101000a900467ffffffffffffffff1667ffffffffffffffff16815260200190600801906020826007010492830192600103820291508084116118af579050505050505081526020016003820180548060200260200160405190810160405280929190818152602001828054801561194b57602002820191906000526020600020905b815481526020019060010190808311611937575b50505050508152602001600482018054806020026020016040519081016040528092919081815260200182805480156119a357602002820191906000526020600020905b81548152602001906001019080831161198f575b50505050508152602001600582018054806020026020016040519081016040528092919081815260200182805480156119fb57602002820191906000526020600020905b8154815260200190600101908083116119e7575b5050505050815260200160068201805480602002602001604051908101604052809291908181526020018280548015611a5d57602002820191906000526020600020905b81546001600160a01b03168152600190910190602001808311611a3f575b505050918352505060078201546020820152600882015461ffff8116604083015262010000900460ff1615156060820152600982018054608090920191611aa390614ce7565b80601f0160208091040260200160405190810160405280929190818152602001828054611acf90614ce7565b8015611b1c5780601f10611af157610100808354040283529160200191611b1c565b820191906000526020600020905b815481529060010190602001808311611aff57829003601f168201915b50505050508152602001600a82018054611b3590614ce7565b80601f0160208091040260200160405190810160405280929190818152602001828054611b6190614ce7565b8015611bae5780601f10611b8357610100808354040283529160200191611bae565b820191906000526020600020905b815481529060010190602001808311611b9157829003601f168201915b50505050508152602001600b82018054611bc790614ce7565b80601f0160208091040260200160405190810160405280929190818152602001828054611bf390614ce7565b8015611c405780601f10611c1557610100808354040283529160200191611c40565b820191906000526020600020905b815481529060010190602001808311611c2357829003601f168201915b5050505050815250509050919050565b6000611c5b846115b2565b9050806001600160a01b0316836001600160a01b031603611ca65760405162ea9f2160e81b8152600481018590523360248201526001600160a01b0384166044820152606401610c35565b611cb033856128ab565b611ccd5760405163390cdd9b60e21b815260040160405180910390fd5b611cd8848484612e9d565b50505050565b6101976020526000908152604090208054611cf890614ce7565b80601f0160208091040260200160405190810160405280929190818152602001828054611d2490614ce7565b8015611d715780601f10611d4657610100808354040283529160200191611d71565b820191906000526020600020905b815481529060010190602001808311611d5457829003601f168201915b505050505081565b600060fe82815481106114db576114db614c19565b6000611d9c82610197612836565b600081815261019760205260409020909150611db88382614d67565b507f8b841033bc947e807d9766c542105a3dbb0bae62591be7b5c8cd4f37f698bf738183604051610e33929190614e27565b6000818152606760205260408120546001600160a01b0316611e22576040516338077a2b60e01b815260048101839052602401610c35565b50600090815260fb602052604090205490565b611070338383612f27565b600080611e4d8484612ff5565b91509150611e5b85836130c9565b611e6d82600001518360c001516132a0565b8151600081815261019b602090815260409091208451815590840151849190611e9c90600183019060026141f9565b506040820151611eb290600280840191906141f9565b5060608201518051611ece9160038401916020909101906142a1565b5060808201518051611eea9160048401916020909101906142a1565b5060a08201518051611f069160058401916020909101906142a1565b5060c08201518051611f229160068401916020909101906142dc565b5060e082015160078201556101008201516008820180546101208501511515620100000262ffffff1990911661ffff909316929092179190911790556101408201516009820190611f739082614d67565b50610160820151600a820190611f899082614d67565b50610180820151600b820190611f9f9082614d67565b50508251905060005b81811015611ff6576000611fbc60006125bf565b9050611fe3898286888681518110611fd657611fd6614c19565b602002602001015161337f565b5080611fee81614e84565b915050611fa8565b507fb8a902003746cc0a7acf2db2cc2c74a253bc8bb646c50f14a1862171b2743aa082888560405161202a93929190614e9d565b60405180910390a150505050505050565b61204533836128ab565b6120a85760405162461bcd60e51b815260206004820152602e60248201527f4552433732313a2063616c6c6572206973206e6f7420746f6b656e206f776e6560448201526d1c881b9bdc88185c1c1c9bdd995960921b6064820152608401610c35565b611cd884848484613453565b600054610100900460ff16158080156120d45750600054600160ff909116105b806120ee5750303b1580156120ee575060005460ff166001145b6121605760405162461bcd60e51b815260206004820152602e60248201527f496e697469616c697a61626c653a20636f6e747261637420697320616c72656160448201527f647920696e697469616c697a65640000000000000000000000000000000000006064820152608401610c35565b6000805460ff191660011790558015612183576000805461ff0019166101001790555b61019680547fffffffffffffffffffff0000000000000000000000000000000000000000ffff16620100006001600160a01b038516021790556121c46134dc565b6121cc6134dc565b6121d46134dc565b6121df600033612af2565b6122097f189ab7a9244df0848122154315af71fe140f3db0fe014031783b0946b8c9d2e333612af2565b8015611070576000805461ff0019169055604051600181527f7f26b83ff96e1f2b6a682f133852f6798a09c465da95921460cefb38474024989060200160405180910390a15050565b610196546060906201000090046001600160a01b031663ed03f41a61227684610eb9565b846040518363ffffffff1660e01b8152600401610d10929190918252602082015260400190565b6101996020526000908152604090208054611cf890614ce7565b600082815261010060205260409020600101546122d381612ae8565b610cd68383612b96565b80516000826122ed600184614efb565b815181106122fd576122fd614c19565b6020026020010151905060005b82811015611cd857600084828151811061232657612326614c19565b602002602001015190508281146123535761234a818461234584611dea565b61268f565b61235381612de5565b508061235e81614e84565b91505061230a565b606061238f60408051808201909152600a8152694879706572436572747360b01b602082015290565b6040805180820190915260048152631210d49560e21b60208201526040516020016123bb929190614f0e565b604051602081830303815290604052905090565b6101986020526000908152604090208054611cf890614ce7565b60006123f782610199612836565b6000818152610199602052604090209091506124138382614d67565b507f4527d373276b1ece0c8dd18e140572f93feffd35a0993d9e4de70623b1ac93ce8183604051610e33929190614e27565b60006001600160e01b03198216637965db0b60e01b1480610b895750610b898261355b565b6000818152606760205260409020546001600160a01b03166111ec5760405162461bcd60e51b815260206004820152601860248201527f4552433732313a20696e76616c696420746f6b656e20494400000000000000006044820152606401610c35565b600081815260696020526040902080546001600160a01b0319166001600160a01b0384169081179091558190612503826115b2565b6001600160a01b03167f8c5be1e5ebec7d5bd14f71427d1e84f3dd0314c0f7b2291e5b200ac8c7c3b92560405160405180910390a45050565b600082815260fc602090815260408083206001600160a01b038716845260010190915290205461256c84846128ab565b15801561257b57506000198114155b15611cd857818110156125ab5760405163054365bb60e31b81526004810183905260248101829052604401610c35565b611cd883856125ba8585614efb565b612e9d565b60006125ca60995490565b610b89906001614e71565b6125df83836135b6565b600082815260fd6020908152604080832084905583835260ff909152812054900361263a5760fe80546001810182556000919091527f54075df80ec1ae6ac9100e1fd0ebf3246c17f5c933137af392011f4c5f61513a018190555b600081815260ff6020908152604080832080546001810182559084529183209091018490555182919084907fe4f48c240d3b994948aa54f3e2f5fca59263dfe1d52b6e4cf39a5d249b5ccb65908390a4505050565b6000838152606760205260409020546001600160a01b03166126c7576040516338077a2b60e01b815260048101849052602401610c35565b6000828152606760205260409020546001600160a01b03166126ff576040516338077a2b60e01b815260048101839052602401610c35565b600083815260fb602052604090205481111561274957600083815260fb60205260409081902054905163cf47918160e01b8152610c35918391600401918252602082015260400190565b600082815260fd6020526040808220548583529120541461278757604051630240901360e61b81526004810184905260248101839052604401610c35565b6000612792846115b2565b9050600061279f846115b2565b600086815260fb60205260408120805492935085929091906127c2908490614efb565b9091555050600084815260fb6020526040812080548592906127e5908490614e71565b9091555050600085905260fd60205283857f0b2aac84f3ec956911fd78eae5311062972ff949f38412e8da39069d9f068cc68560405161282791815260200190565b60405180910390a35050505050565b6000825160000361285a5760405163a447fc5360e01b815260040160405180910390fd5b8260405160200161286b9190614427565b60405160208183030381529060405280519060200120905061288d828261370c565b15610b895760405163331d850160e01b815260040160405180910390fd5b6000806128b7836115b2565b9050806001600160a01b0316846001600160a01b031614806128fe57506001600160a01b038082166000908152606a602090815260408083209388168352929052205460ff165b80610dcf5750836001600160a01b031661291784610b9a565b6001600160a01b031614949350505050565b826001600160a01b031661293c826115b2565b6001600160a01b0316146129b85760405162461bcd60e51b815260206004820152602560248201527f4552433732313a207472616e736665722066726f6d20696e636f72726563742060448201527f6f776e65720000000000000000000000000000000000000000000000000000006064820152608401610c35565b6001600160a01b038216612a1a5760405162461bcd60e51b8152602060048201526024808201527f4552433732313a207472616e7366657220746f20746865207a65726f206164646044820152637265737360e01b6064820152608401610c35565b612a25838383613733565b612a306000826124ce565b6001600160a01b0383166000908152606860205260408120805460019290612a59908490614efb565b90915550506001600160a01b0382166000908152606860205260408120805460019290612a87908490614e71565b909155505060008181526067602052604080822080546001600160a01b0319166001600160a01b0386811691821790925591518493918716917fddf252ad1be2c89b69c2b068fc378daa952ba7f163c4a11628f55a4df523b3ef91a4505050565b6111ec81336137d5565b6000828152610100602090815260408083206001600160a01b038516845290915290205460ff16611070576000828152610100602090815260408083206001600160a01b03851684529091529020805460ff19166001179055612b523390565b6001600160a01b0316816001600160a01b0316837f2f8788117e7eff1d82e926ec794901d17c78024a50270940304540a733656f0d60405160405180910390a45050565b6000828152610100602090815260408083206001600160a01b038516845290915290205460ff1615611070576000828152610100602090815260408083206001600160a01b0385168085529252808320805460ff1916905551339285917ff6391f5c32d9c69d2a47ea670b442974b53935d1edc7fd64eb21e047a839171b9190a45050565b7f189ab7a9244df0848122154315af71fe140f3db0fe014031783b0946b8c9d2e361107081612ae8565b7f4910fdfa16fed3260ed0e7147f7cc6da11a60208b5b9406d12a635614ffd91435460ff1615612c7857610cd683613856565b826001600160a01b03166352d1902d6040518163ffffffff1660e01b8152600401602060405180830381865afa925050508015612cd2575060408051601f3d908101601f19168201909252612ccf91810190614fc3565b60015b612d445760405162461bcd60e51b815260206004820152602e60248201527f45524331393637557067726164653a206e657720696d706c656d656e7461746960448201527f6f6e206973206e6f7420555550530000000000000000000000000000000000006064820152608401610c35565b7f360894a13ba1a3210667c828492db98dca3e2076cc3735a920a3ca505d382bbc8114612dd95760405162461bcd60e51b815260206004820152602960248201527f45524331393637557067726164653a20756e737570706f727465642070726f7860448201527f6961626c655555494400000000000000000000000000000000000000000000006064820152608401610c35565b50610cd6838383613914565b6000612df0826115b2565b600083815260fd602090815260408083205460fb9092529091205491925090612e1884613939565b600084815260fd6020908152604080832083905560fb82528083208390555183815286917f0b2aac84f3ec956911fd78eae5311062972ff949f38412e8da39069d9f068cc6910160405180910390a3600082857fe4f48c240d3b994948aa54f3e2f5fca59263dfe1d52b6e4cf39a5d249b5ccb6560405160405180910390a450505050565b600083815260fc6020908152604080832080546001808201835582865284862090910180546001600160a01b0319166001600160a01b038916908117909155808652908201845293829020859055905184815290929186917f621b050de0ad08b51d19b48b3e6df75348c4de6bdd93e81b252ca62e28265b1b91015b60405180910390a350505050565b816001600160a01b0316836001600160a01b031603612f885760405162461bcd60e51b815260206004820152601960248201527f4552433732313a20617070726f766520746f2063616c6c6572000000000000006044820152606401610c35565b6001600160a01b038381166000818152606a6020908152604080832094871680845294825291829020805460ff191686151590811790915591519182527f17307eab39ab6107e8899845ad3d59bd9653f200f220920489ca2b5937696c31910160405180910390a3505050565b612ffd61417e565b606060008390036130215760405163a447fc5360e01b815260040160405180910390fd5b60008080808080808080806130388d8f018f61503e565b9950995099509950995099509950995099509950613058878a888b610d9d565b8c5260c08c0185905260208c0187905260408c0186905260608c0189905260808c0188905260a08c018a905261308d816139e0565b60e08d015260006101008d015260016101208d01526101408c01939093526101608b01919091526101808a015296505050505050509250929050565b6001600160a01b0382166130f057604051630c63e1ed60e11b815260040160405180910390fd5b60208181015190810151905167ffffffffffffffff9182169116111561314d57602081015180519060015b6020020151604051630b58ad1560e21b815267ffffffffffffffff928316600482015291166024820152604401610c35565b60408101516020810151905167ffffffffffffffff9182169116111561317c576040810151805190600161311b565b60408101515160208201515167ffffffffffffffff918216911611156131ae576020810151516040820151600061311b565b60808101515160005b8181101561322f576101986000846080015183815181106131da576131da614c19565b6020026020010151815260200190815260200160002080546131fb90614ce7565b905060000361321d5760405163725a844f60e01b815260040160405180910390fd5b8061322781614e84565b9150506131b7565b5060608201515160005b818110156132995761326a6101978560600151838151811061325d5761325d614c19565b602002602001015161370c565b6132875760405163725a844f60e01b815260040160405180910390fd5b8061329181614e84565b915050613239565b5050505050565b60005b8151811015610cd65761019a60008383815181106132c3576132c3614c19565b6020908102919091018101516001600160a01b03168252818101929092526040908101600090812086825290925290205460ff16156133155760405163755402db60e11b815260040160405180910390fd5b600161019a600084848151811061332e5761332e614c19565b6020908102919091018101516001600160a01b0316825281810192909252604090810160009081208782529092529020805460ff19169115159190911790558061337781614e84565b9150506132a3565b6001600160a01b0384166133a657604051630c63e1ed60e11b815260040160405180910390fd5b826000036133ca5760405163d338ed0760e01b815260048101849052602401610c35565b6000838152606760205260409020546001600160a01b031615613403576040516314b27b7f60e31b815260048101849052602401610c35565b61340e8484846125d5565b600083815260fb602052604090208190558260007f0b2aac84f3ec956911fd78eae5311062972ff949f38412e8da39069d9f068cc683604051612f1991815260200190565b61345e848484612929565b61346a84848484613a40565b611cd85760405162461bcd60e51b815260206004820152603260248201527f4552433732313a207472616e7366657220746f206e6f6e20455243373231526560448201527f63656976657220696d706c656d656e74657200000000000000000000000000006064820152608401610c35565b600054610100900460ff166135595760405162461bcd60e51b815260206004820152602b60248201527f496e697469616c697a61626c653a20636f6e7472616374206973206e6f74206960448201527f6e697469616c697a696e670000000000000000000000000000000000000000006064820152608401610c35565b565b60006001600160e01b031982166370b0048160e11b148061358c57506001600160e01b03198216631dba0dcf60e11b145b806135a757506001600160e01b03198216630354d60560e61b145b80610b895750610b8982613b94565b6001600160a01b03821661360c5760405162461bcd60e51b815260206004820181905260248201527f4552433732313a206d696e7420746f20746865207a65726f20616464726573736044820152606401610c35565b6000818152606760205260409020546001600160a01b0316156136715760405162461bcd60e51b815260206004820152601c60248201527f4552433732313a20746f6b656e20616c7265616479206d696e746564000000006044820152606401610c35565b61367d60008383613733565b6001600160a01b03821660009081526068602052604081208054600192906136a6908490614e71565b909155505060008181526067602052604080822080546001600160a01b0319166001600160a01b03861690811790915590518392907fddf252ad1be2c89b69c2b068fc378daa952ba7f163c4a11628f55a4df523b3ef908290a45050565b505050505050565b6000818152602083905260408120805482919061372890614ce7565b905011905092915050565b61373e838383613bb9565b600081815260fc6020526040812054905b818110156137bd57600083815260fc6020526040812080548390811061377757613777614c19565b600091825260208083209091015486835260fc825260408084206001600160a01b03909216845260019190910190915281205550806137b581614e84565b91505061374f565b50600082815260fc60205260408120611cd891614331565b6000828152610100602090815260408083206001600160a01b038516845290915290205460ff1661107057613814816001600160a01b03166014613c71565b61381f836020613c71565b6040516020016138309291906151a5565b60408051601f198184030181529082905262461bcd60e51b8252610c3591600401614427565b6001600160a01b0381163b6138d35760405162461bcd60e51b815260206004820152602d60248201527f455243313936373a206e657720696d706c656d656e746174696f6e206973206e60448201527f6f74206120636f6e7472616374000000000000000000000000000000000000006064820152608401610c35565b7f360894a13ba1a3210667c828492db98dca3e2076cc3735a920a3ca505d382bbc80546001600160a01b0319166001600160a01b0392909216919091179055565b61391d83613e1a565b60008251118061392a5750805b15610cd657611cd88383613e5a565b6000613944826115b2565b905061395281600084613733565b61395d6000836124ce565b6001600160a01b0381166000908152606860205260408120805460019290613986908490614efb565b909155505060008281526067602052604080822080546001600160a01b0319169055518391906001600160a01b038416907fddf252ad1be2c89b69c2b068fc378daa952ba7f163c4a11628f55a4df523b3ef908390a45050565b600081516000036139f357506000919050565b6000805b8351811015613a3957838181518110613a1257613a12614c19565b602002602001015182613a259190614e71565b915080613a3181614e84565b9150506139f7565b5092915050565b60006001600160a01b0384163b15613b8c57604051630a85bd0160e11b81526001600160a01b0385169063150b7a0290613a84903390899088908890600401615226565b6020604051808303816000875af1925050508015613abf575060408051601f3d908101601f19168201909252613abc91810190615258565b60015b613b72573d808015613aed576040519150601f19603f3d011682016040523d82523d6000602084013e613af2565b606091505b508051600003613b6a5760405162461bcd60e51b815260206004820152603260248201527f4552433732313a207472616e7366657220746f206e6f6e20455243373231526560448201527f63656976657220696d706c656d656e74657200000000000000000000000000006064820152608401610c35565b805181602001fd5b6001600160e01b031916630a85bd0160e11b149050610dcf565b506001610dcf565b60006001600160e01b0319821663780e9d6360e01b1480610b895750610b8982613f65565b6001600160a01b038316613c1457613c0f81609980546000838152609a60205260408120829055600182018355919091527f72a152ddfb8e864297c917af52ea6c1c68aead0fee1a62673fcc7e0c94979d000155565b613c37565b816001600160a01b0316836001600160a01b031614613c3757613c378382613fb5565b6001600160a01b038216613c4e57610cd681614052565b826001600160a01b0316826001600160a01b031614610cd657610cd68282614101565b60606000613c80836002615275565b613c8b906002614e71565b67ffffffffffffffff811115613ca357613ca36144ce565b6040519080825280601f01601f191660200182016040528015613ccd576020820181803683370190505b509050600360fc1b81600081518110613ce857613ce8614c19565b60200101906001600160f81b031916908160001a905350600f60fb1b81600181518110613d1757613d17614c19565b60200101906001600160f81b031916908160001a9053506000613d3b846002615275565b613d46906001614e71565b90505b6001811115613dcb577f303132333435363738396162636465660000000000000000000000000000000085600f1660108110613d8757613d87614c19565b1a60f81b828281518110613d9d57613d9d614c19565b60200101906001600160f81b031916908160001a90535060049490941c93613dc481615294565b9050613d49565b508315610d965760405162461bcd60e51b815260206004820181905260248201527f537472696e67733a20686578206c656e67746820696e73756666696369656e746044820152606401610c35565b613e2381613856565b6040516001600160a01b038216907fbc7cd75a20ee27fd9adebab32041f755214dbc6bffa90cc0225b39da2e5c2d3b90600090a250565b60606001600160a01b0383163b613ed95760405162461bcd60e51b815260206004820152602660248201527f416464726573733a2064656c65676174652063616c6c20746f206e6f6e2d636f60448201527f6e747261637400000000000000000000000000000000000000000000000000006064820152608401610c35565b600080846001600160a01b031684604051613ef491906152ab565b600060405180830381855af49150503d8060008114613f2f576040519150601f19603f3d011682016040523d82523d6000602084013e613f34565b606091505b5091509150613f5c82826040518060600160405280602781526020016152de60279139614145565b95945050505050565b60006001600160e01b031982166380ac58cd60e01b1480613f9657506001600160e01b03198216635b5e139f60e01b145b80610b8957506301ffc9a760e01b6001600160e01b0319831614610b89565b60006001613fc284611768565b613fcc9190614efb565b60008381526098602052604090205490915080821461401f576001600160a01b03841660009081526097602090815260408083208584528252808320548484528184208190558352609890915290208190555b5060009182526098602090815260408084208490556001600160a01b039094168352609781528383209183525290812055565b60995460009061406490600190614efb565b6000838152609a60205260408120546099805493945090928490811061408c5761408c614c19565b9060005260206000200154905080609983815481106140ad576140ad614c19565b6000918252602080832090910192909255828152609a909152604080822084905585825281205560998054806140e5576140e56152c7565b6001900381819060005260206000200160009055905550505050565b600061410c83611768565b6001600160a01b039093166000908152609760209081526040808320868452825280832085905593825260989052919091209190915550565b60608315614154575081610d96565b8251156141645782518084602001fd5b8160405162461bcd60e51b8152600401610c359190614427565b604080516101a08101909152600081526020810161419a61434f565b81526020016141a761434f565b81526020016060815260200160608152602001606081526020016060815260200160008152602001600061ffff1681526020016000151581526020016060815260200160608152602001606081525090565b6001830191839082156142915791602002820160005b8382111561425b57835183826101000a81548167ffffffffffffffff021916908367ffffffffffffffff160217905550926020019260080160208160070104928301926001030261420f565b801561428f5782816101000a81549067ffffffffffffffff021916905560080160208160070104928301926001030261425b565b505b5061429d92915061436d565b5090565b828054828255906000526020600020908101928215614291579160200282015b828111156142915782518255916020019190600101906142c1565b828054828255906000526020600020908101928215614291579160200282015b8281111561429157825182546001600160a01b0319166001600160a01b039091161782556020909201916001909101906142fc565b50805460008255906000526020600020908101906111ec919061436d565b60405180604001604052806002906020820280368337509192915050565b5b8082111561429d576000815560010161436e565b6000806040838503121561439557600080fd5b50508035926020909101359150565b6001600160e01b0319811681146111ec57600080fd5b6000602082840312156143cc57600080fd5b8135610d96816143a4565b60005b838110156143f25781810151838201526020016143da565b50506000910152565b600081518084526144138160208601602086016143d7565b601f01601f19169290920160200192915050565b602081526000610d9660208301846143fb565b60006020828403121561444c57600080fd5b5035919050565b80356001600160a01b038116811461446a57600080fd5b919050565b6000806040838503121561448257600080fd5b61448b83614453565b946020939093013593505050565b6000806000606084860312156144ae57600080fd5b833592506144be60208501614453565b9150604084013590509250925092565b634e487b7160e01b600052604160045260246000fd5b604051601f8201601f1916810167ffffffffffffffff8111828210171561450d5761450d6144ce565b604052919050565b600082601f83011261452657600080fd5b6040516040810167ffffffffffffffff828210818311171561454a5761454a6144ce565b6040918252829185018681111561456057600080fd5b855b81811015614589578035838116811461457b5760008081fd5b845260209384019301614562565b50929695505050505050565b600067ffffffffffffffff8211156145af576145af6144ce565b5060051b60200190565b600082601f8301126145ca57600080fd5b813560206145df6145da83614595565b6144e4565b82815260059290921b840181019181810190868411156145fe57600080fd5b8286015b848110156146195780358352918301918301614602565b509695505050505050565b60008060008060c0858703121561463a57600080fd5b6146448686614515565b9350604085013567ffffffffffffffff8082111561466157600080fd5b61466d888389016145b9565b945061467c8860608901614515565b935060a087013591508082111561469257600080fd5b5061469f878288016145b9565b91505092959194509250565b600067ffffffffffffffff8211156146c5576146c56144ce565b50601f01601f191660200190565b600082601f8301126146e457600080fd5b81356146f26145da826146ab565b81815284602083860101111561470757600080fd5b816020850160208301376000918101602001919091529392505050565b60006020828403121561473657600080fd5b813567ffffffffffffffff81111561474d57600080fd5b610dcf848285016146d3565b60008060006060848603121561476e57600080fd5b61477784614453565b92506144be60208501614453565b6000806040838503121561479857600080fd5b823591506147a860208401614453565b90509250929050565b6000806000606084860312156147c657600080fd5b505081359360208301359350604090920135919050565b6000602082840312156147ef57600080fd5b610d9682614453565b6000806040838503121561480b57600080fd5b61481483614453565b9150602083013567ffffffffffffffff81111561483057600080fd5b61483c858286016146d3565b9150509250929050565b60008060006040848603121561485b57600080fd5b83359250602084013567ffffffffffffffff8082111561487a57600080fd5b818601915086601f83011261488e57600080fd5b81358181111561489d57600080fd5b8760208260051b85010111156148b257600080fd5b6020830194508093505050509250925092565b8060005b6002811015611cd857815167ffffffffffffffff168452602093840193909101906001016148c9565b600081518084526020808501945080840160005b8381101561492257815187529582019590820190600101614906565b509495945050505050565b600081518084526020808501945080840160005b838110156149225781516001600160a01b031687529582019590820190600101614941565b60208152815160208201526000602083015161498560408401826148c5565b50604083015161499860808401826148c5565b5060608301516101e08060c08501526149b56102008501836148f2565b91506080850151601f19808685030160e08701526149d384836148f2565b935060a087015191506101008187860301818801526149f285846148f2565b945060c08801519250610120828887030181890152614a11868561492d565b955060e0890151935061014084818a0152828a015194506101609250614a3c838a018661ffff169052565b90890151935061018090614a538983018615159052565b89015188870384016101a08a01529350614a6d86856143fb565b955081890151935082888703016101c0890152614a8a86856143fb565b9550808901519350505080868503018387015250614aa883826143fb565b9695505050505050565b60008060408385031215614ac557600080fd5b614ace83614453565b915060208301358015158114614ae357600080fd5b809150509250929050565b600080600060408486031215614b0357600080fd5b614b0c84614453565b9250602084013567ffffffffffffffff80821115614b2957600080fd5b818601915086601f830112614b3d57600080fd5b813581811115614b4c57600080fd5b8760208285010111156148b257600080fd5b60008060008060808587031215614b7457600080fd5b614b7d85614453565b9350614b8b60208601614453565b925060408501359150606085013567ffffffffffffffff811115614bae57600080fd5b61469f878288016146d3565b600060208284031215614bcc57600080fd5b813567ffffffffffffffff811115614be357600080fd5b610dcf848285016145b9565b60008060408385031215614c0257600080fd5b614c0b83614453565b91506147a860208401614453565b634e487b7160e01b600052603260045260246000fd5b600060208284031215614c4157600080fd5b815167ffffffffffffffff811115614c5857600080fd5b8201601f81018413614c6957600080fd5b8051614c776145da826146ab565b818152856020838501011115614c8c57600080fd5b613f5c8260208301602086016143d7565b614ca781866148c5565b60c060408201526000614cbd60c08301866148f2565b614cca60608401866148c5565b82810360a0840152614cdc81856148f2565b979650505050505050565b600181811c90821680614cfb57607f821691505b602082108103614d1b57634e487b7160e01b600052602260045260246000fd5b50919050565b601f821115610cd657600081815260208120601f850160051c81016020861015614d485750805b601f850160051c820191505b8181101561370457828155600101614d54565b815167ffffffffffffffff811115614d8157614d816144ce565b614d9581614d8f8454614ce7565b84614d21565b602080601f831160018114614dca5760008415614db25750858301515b600019600386901b1c1916600185901b178555613704565b600085815260208120601f198616915b82811015614df957888601518255948401946001909101908401614dda565b5085821015614e175787850151600019600388901b60f8161c191681555b5050505050600190811b01905550565b828152604060208201526000610dcf60408301846143fb565b634e487b7160e01b600052601160045260246000fd5b61ffff818116838216019080821115613a3957613a39614e40565b80820180821115610b8957610b89614e40565b600060018201614e9657614e96614e40565b5060010190565b60006060820185835260206001600160a01b0386168185015260606040850152818551808452608086019150828701935060005b81811015614eed57845183529383019391830191600101614ed1565b509098975050505050505050565b81810381811115610b8957610b89614e40565b7f646174613a6170706c69636174696f6e2f6a736f6e3b7b00000000000000000081527f226e616d65223a00000000000000000000000000000000000000000000000000601782015260008351614f6c81601e8501602088016143d7565b7f2c2273796d626f6c223a00000000000000000000000000000000000000000000601e918401918201528351614fa98160288401602088016143d7565b607d60f81b60289290910191820152602901949350505050565b600060208284031215614fd557600080fd5b5051919050565b600082601f830112614fed57600080fd5b81356020614ffd6145da83614595565b82815260059290921b8401810191818101908684111561501c57600080fd5b8286015b848110156146195761503181614453565b8352918301918301615020565b6000806000806000806000806000806101808b8d03121561505e57600080fd5b8a3567ffffffffffffffff8082111561507657600080fd5b6150828e838f016145b9565b9b5060208d013591508082111561509857600080fd5b6150a48e838f016145b9565b9a5060408d01359150808211156150ba57600080fd5b6150c68e838f016145b9565b99506150d58e60608f01614515565b98506150e48e60a08f01614515565b975060e08d01359150808211156150fa57600080fd5b6151068e838f01614fdc565b96506101008d013591508082111561511d57600080fd5b6151298e838f016146d3565b95506101208d013591508082111561514057600080fd5b61514c8e838f016146d3565b94506101408d013591508082111561516357600080fd5b61516f8e838f016146d3565b93506101608d013591508082111561518657600080fd5b506151938d828e016145b9565b9150509295989b9194979a5092959850565b7f416363657373436f6e74726f6c3a206163636f756e74200000000000000000008152600083516151dd8160178501602088016143d7565b7f206973206d697373696e6720726f6c6520000000000000000000000000000000601791840191820152835161521a8160288401602088016143d7565b01602801949350505050565b60006001600160a01b03808716835280861660208401525083604083015260806060830152614aa860808301846143fb565b60006020828403121561526a57600080fd5b8151610d96816143a4565b600081600019048311821515161561528f5761528f614e40565b500290565b6000816152a3576152a3614e40565b506000190190565b600082516152bd8184602087016143d7565b9190910192915050565b634e487b7160e01b600052603160045260246000fdfe416464726573733a206c6f772d6c6576656c2064656c65676174652063616c6c206661696c6564a164736f6c6343000810000a",
  "devdoc": {
    "author": "bitbeckers, mr_bluesky",
    "events": {
      "ImpactClaimed(uint256,address,uint256[])": {
        "params": {
          "fractions": "Units of tokens issued under the hypercert.",
          "id": "Id of the claimed impact.",
          "minter": "Address of cert minter."
        }
      },
      "ImpactScopeAdded(bytes32,string)": {
        "params": {
          "id": "Id of the impact scope.",
          "text": "Short text code of the impact scope."
        }
      },
      "RightAdded(bytes32,string)": {
        "params": {
          "id": "Id of the right.",
          "text": "Short text code of the right."
        }
      },
      "WorkScopeAdded(bytes32,string)": {
        "params": {
          "id": "Id of the work scope.",
          "text": "Short text code of the work scope."
        }
      }
    },
    "kind": "dev",
    "methods": {
      "addImpactScope(string)": {
        "params": {
          "text": "Text representing the impact scope"
        },
        "returns": {
          "id": "Id of the impact scope"
        }
      },
      "addRight(string)": {
        "params": {
          "text": "Text representing the right"
        },
        "returns": {
          "id": "Id of the right"
        }
      },
      "addWorkScope(string)": {
        "params": {
          "text": "Text representing the work scope"
        },
        "returns": {
          "id": "Id of the work scope"
        }
      },
      "approve(address,uint256)": {
        "details": "See {IERC721-approve}."
      },
      "balanceOf(address)": {
        "details": "See {IERC721-balanceOf}."
      },
      "burn(uint256)": {
        "details": "Burns `tokenId`. See {ERC721-_burn}. Requirements: - The caller must own `tokenId` or be an approved operator."
      },
      "constructor": {
        "custom:oz-upgrades-unsafe-allow": "constructor"
      },
      "contractURI()": {
        "details": "This function SHOULD return the URI for this contract in JSON format, starting with  header `data:application/json;`.  See https://eips.ethereum.org/EIPS/eip-3525 for the JSON schema for contract URI.",
        "returns": {
          "_0": "The JSON formatted URI of the current ERC3525 contract"
        }
      },
      "getApproved(uint256)": {
        "details": "See {IERC721-getApproved}."
      },
      "getImpactCert(uint256)": {
        "params": {
          "claimID": "Id of the claim"
        },
        "returns": {
          "_0": "The claim, if it doesn't exist with default values"
        }
      },
      "getRoleAdmin(bytes32)": {
        "details": "Returns the admin role that controls `role`. See {grantRole} and {revokeRole}. To change a role's admin, use {_setRoleAdmin}."
      },
      "grantRole(bytes32,address)": {
        "details": "Grants `role` to `account`. If `account` had not been already granted `role`, emits a {RoleGranted} event. Requirements: - the caller must have ``role``'s admin role. May emit a {RoleGranted} event."
      },
      "hasRole(bytes32,address)": {
        "details": "Returns `true` if `account` has been granted `role`."
      },
      "isApprovedForAll(address,address)": {
        "details": "See {IERC721-isApprovedForAll}."
      },
      "mint(address,bytes)": {
        "params": {
          "account": "Account issuing the new hypercertificate",
          "data": "Data representing the parameters of the claim"
        }
      },
      "ownerOf(uint256)": {
        "details": "See {IERC721-ownerOf}."
      },
      "proxiableUUID()": {
        "details": "Implementation of the ERC1822 {proxiableUUID} function. This returns the storage slot used by the implementation. It is used to validate that the this implementation remains valid after an upgrade. IMPORTANT: A proxy pointing at a proxiable contract should not be considered proxiable itself, because this risks bricking a proxy that upgrades to it, by delegating to itself until out of gas. Thus it is critical that this function revert if invoked through a proxy. This is guaranteed by the `notDelegated` modifier."
      },
      "renounceRole(bytes32,address)": {
        "details": "Revokes `role` from the calling account. Roles are often managed via {grantRole} and {revokeRole}: this function's purpose is to provide a mechanism for accounts to lose their privileges if they are compromised (such as when a trusted device is misplaced). If the calling account had been revoked `role`, emits a {RoleRevoked} event. Requirements: - the caller must be `account`. May emit a {RoleRevoked} event."
      },
      "revokeRole(bytes32,address)": {
        "details": "Revokes `role` from `account`. If `account` had been granted `role`, emits a {RoleRevoked} event. Requirements: - the caller must have ``role``'s admin role. May emit a {RoleRevoked} event."
      },
      "safeTransferFrom(address,address,uint256)": {
        "details": "See {IERC721-safeTransferFrom}."
      },
      "safeTransferFrom(address,address,uint256,bytes)": {
        "details": "See {IERC721-safeTransferFrom}."
      },
      "setApprovalForAll(address,bool)": {
        "details": "See {IERC721-setApprovalForAll}."
      },
      "slotByIndex(uint256)": {
        "params": {
          "_index": "The index in the slot list"
        },
        "returns": {
          "_0": "The slot at `index` of all slots."
        }
      },
      "slotCount()": {
        "returns": {
          "_0": "The total amount of slots"
        }
      },
      "supportsInterface(bytes4)": {
        "params": {
          "interfaceId": "Id of the interface"
        },
        "returns": {
          "_0": "true, if the interface is supported"
        }
      },
      "tokenByIndex(uint256)": {
        "details": "See {IERC721Enumerable-tokenByIndex}."
      },
      "tokenInSlotByIndex(uint256,uint256)": {
        "params": {
          "_index": "The index in the token list of the slot",
          "_slot": "The slot to query tokens with"
        },
        "returns": {
          "_0": "The token ID at `_index` of all tokens with `_slot`"
        }
      },
      "tokenOfOwnerByIndex(address,uint256)": {
        "details": "See {IERC721Enumerable-tokenOfOwnerByIndex}."
      },
      "tokenSupplyInSlot(uint256)": {
        "params": {
          "_slot": "The slot to query token supply for"
        },
        "returns": {
          "_0": "The total amount of tokens with the specified `_slot`"
        }
      },
      "totalSupply()": {
        "details": "See {IERC721Enumerable-totalSupply}."
      },
      "transferFrom(address,address,uint256)": {
        "details": "See {IERC721-transferFrom}."
      },
      "upgradeTo(address)": {
        "details": "Upgrade the implementation of the proxy to `newImplementation`. Calls {_authorizeUpgrade}. Emits an {Upgraded} event."
      },
      "upgradeToAndCall(address,bytes)": {
        "details": "Upgrade the implementation of the proxy to `newImplementation`, and subsequently execute the function call encoded in `data`. Calls {_authorizeUpgrade}. Emits an {Upgraded} event."
      },
      "valueDecimals()": {
        "returns": {
          "_0": "The number of decimals for value"
        }
      }
    },
    "title": "Hypercertificate minting logic",
    "version": 1
  },
  "userdoc": {
    "events": {
      "ImpactClaimed(uint256,address,uint256[])": {
        "notice": "Emitted when an impact is claimed."
      },
      "ImpactScopeAdded(bytes32,string)": {
        "notice": "Emitted when a new impact scope is added."
      },
      "RightAdded(bytes32,string)": {
        "notice": "Emitted when a new right is added."
      },
      "WorkScopeAdded(bytes32,string)": {
        "notice": "Emitted when a new work scope is added."
      }
    },
    "kind": "user",
    "methods": {
      "DECIMALS()": {
        "notice": "Token value decimals"
      },
      "NAME()": {
        "notice": "Contract name"
      },
      "SYMBOL()": {
        "notice": "Token symbol"
      },
      "UPGRADER_ROLE()": {
        "notice": "User role required in order to upgrade the contract"
      },
      "addImpactScope(string)": {
        "notice": "Adds a new impact scope"
      },
      "addRight(string)": {
        "notice": "Adds a new right"
      },
      "addWorkScope(string)": {
        "notice": "Adds a new work scope"
      },
      "constructor": {
        "notice": "Contract constructor logic"
      },
      "contractURI()": {
        "notice": "Returns the Uniform Resource Identifier (URI) for the current ERC3525 contract."
      },
      "getImpactCert(uint256)": {
        "notice": "Gets the impact claim with the specified id"
      },
      "impactScopes(bytes32)": {
        "notice": "Mapping of id's to impact-scopes"
      },
      "initialize(address)": {
        "notice": "Contract initialization logic"
      },
      "mint(address,bytes)": {
        "notice": "Issues a new hypercertificate"
      },
      "rights(bytes32)": {
        "notice": "Mapping of id's to rights"
      },
      "slotByIndex(uint256)": {
        "notice": "Get the slot at the specified index of all slots stored by the contract."
      },
      "slotCount()": {
        "notice": "Get the total amount of slots stored by the contract."
      },
      "supportsInterface(bytes4)": {
        "notice": "Returns a flag indicating if the contract supports the specified interface"
      },
      "tokenInSlotByIndex(uint256,uint256)": {
        "notice": "Get the token at the specified index of all tokens with the same slot."
      },
      "tokenSupplyInSlot(uint256)": {
        "notice": "Get the total amount of tokens with the same slot."
      },
      "updateVersion()": {
        "notice": "Update the contract version numberOnly allowed for member of UPGRADER_ROLE"
      },
      "valueDecimals()": {
        "notice": "Get the number of decimals the token uses for value - e.g. 6, means the user  representation of the value of a token can be calculated by dividing it by 1,000,000.  Considering the compatibility with third-party wallets, this function is defined as  `valueDecimals()` instead of `decimals()` to avoid conflict with EIP-20 tokens."
      },
      "version()": {
        "notice": "gets the current version of the contract"
      },
      "workScopes(bytes32)": {
        "notice": "Mapping of id's to work-scopes"
      }
    },
    "notice": "Contains functions and events to initialize and issue a hypercertificate",
    "version": 1
  },
  "storageLayout": {
    "storage": [
      {
        "astId": 814,
        "contract": "contracts/HyperCertMinter.sol:HyperCertMinter",
        "label": "_initialized",
        "offset": 0,
        "slot": "0",
        "type": "t_uint8"
      },
      {
        "astId": 817,
        "contract": "contracts/HyperCertMinter.sol:HyperCertMinter",
        "label": "_initializing",
        "offset": 1,
        "slot": "0",
        "type": "t_bool"
      },
      {
        "astId": 3015,
        "contract": "contracts/HyperCertMinter.sol:HyperCertMinter",
        "label": "__gap",
        "offset": 0,
        "slot": "1",
        "type": "t_array(t_uint256)50_storage"
      },
      {
        "astId": 3345,
        "contract": "contracts/HyperCertMinter.sol:HyperCertMinter",
        "label": "__gap",
        "offset": 0,
        "slot": "51",
        "type": "t_array(t_uint256)50_storage"
      },
      {
        "astId": 1123,
        "contract": "contracts/HyperCertMinter.sol:HyperCertMinter",
        "label": "_name",
        "offset": 0,
        "slot": "101",
        "type": "t_string_storage"
      },
      {
        "astId": 1125,
        "contract": "contracts/HyperCertMinter.sol:HyperCertMinter",
        "label": "_symbol",
        "offset": 0,
        "slot": "102",
        "type": "t_string_storage"
      },
      {
        "astId": 1129,
        "contract": "contracts/HyperCertMinter.sol:HyperCertMinter",
        "label": "_owners",
        "offset": 0,
        "slot": "103",
        "type": "t_mapping(t_uint256,t_address)"
      },
      {
        "astId": 1133,
        "contract": "contracts/HyperCertMinter.sol:HyperCertMinter",
        "label": "_balances",
        "offset": 0,
        "slot": "104",
        "type": "t_mapping(t_address,t_uint256)"
      },
      {
        "astId": 1137,
        "contract": "contracts/HyperCertMinter.sol:HyperCertMinter",
        "label": "_tokenApprovals",
        "offset": 0,
        "slot": "105",
        "type": "t_mapping(t_uint256,t_address)"
      },
      {
        "astId": 1143,
        "contract": "contracts/HyperCertMinter.sol:HyperCertMinter",
        "label": "_operatorApprovals",
        "offset": 0,
        "slot": "106",
        "type": "t_mapping(t_address,t_mapping(t_address,t_bool))"
      },
      {
        "astId": 1985,
        "contract": "contracts/HyperCertMinter.sol:HyperCertMinter",
        "label": "__gap",
        "offset": 0,
        "slot": "107",
        "type": "t_array(t_uint256)44_storage"
      },
      {
        "astId": 2200,
        "contract": "contracts/HyperCertMinter.sol:HyperCertMinter",
        "label": "_ownedTokens",
        "offset": 0,
        "slot": "151",
        "type": "t_mapping(t_address,t_mapping(t_uint256,t_uint256))"
      },
      {
        "astId": 2204,
        "contract": "contracts/HyperCertMinter.sol:HyperCertMinter",
        "label": "_ownedTokensIndex",
        "offset": 0,
        "slot": "152",
        "type": "t_mapping(t_uint256,t_uint256)"
      },
      {
        "astId": 2207,
        "contract": "contracts/HyperCertMinter.sol:HyperCertMinter",
        "label": "_allTokens",
        "offset": 0,
        "slot": "153",
        "type": "t_array(t_uint256)dyn_storage"
      },
      {
        "astId": 2211,
        "contract": "contracts/HyperCertMinter.sol:HyperCertMinter",
        "label": "_allTokensIndex",
        "offset": 0,
        "slot": "154",
        "type": "t_mapping(t_uint256,t_uint256)"
      },
      {
        "astId": 2527,
        "contract": "contracts/HyperCertMinter.sol:HyperCertMinter",
        "label": "__gap",
        "offset": 0,
        "slot": "155",
        "type": "t_array(t_uint256)46_storage"
      },
      {
        "astId": 2169,
        "contract": "contracts/HyperCertMinter.sol:HyperCertMinter",
        "label": "__gap",
        "offset": 0,
        "slot": "201",
        "type": "t_array(t_uint256)50_storage"
      },
      {
        "astId": 3444,
        "contract": "contracts/HyperCertMinter.sol:HyperCertMinter",
        "label": "_values",
        "offset": 0,
        "slot": "251",
        "type": "t_mapping(t_uint256,t_uint256)"
      },
      {
        "astId": 3450,
        "contract": "contracts/HyperCertMinter.sol:HyperCertMinter",
        "label": "_approvedValues",
        "offset": 0,
        "slot": "252",
        "type": "t_mapping(t_uint256,t_struct(ApproveData)3439_storage)"
      },
      {
        "astId": 3455,
        "contract": "contracts/HyperCertMinter.sol:HyperCertMinter",
        "label": "_slots",
        "offset": 0,
        "slot": "253",
        "type": "t_mapping(t_uint256,t_uint256)"
      },
      {
        "astId": 3458,
        "contract": "contracts/HyperCertMinter.sol:HyperCertMinter",
        "label": "_slotArray",
        "offset": 0,
        "slot": "254",
        "type": "t_array(t_uint256)dyn_storage"
      },
      {
        "astId": 3464,
        "contract": "contracts/HyperCertMinter.sol:HyperCertMinter",
        "label": "_tokensBySlot",
        "offset": 0,
        "slot": "255",
        "type": "t_mapping(t_uint256,t_array(t_uint256)dyn_storage)"
      },
      {
        "astId": 39,
        "contract": "contracts/HyperCertMinter.sol:HyperCertMinter",
        "label": "_roles",
        "offset": 0,
        "slot": "256",
        "type": "t_mapping(t_bytes32,t_struct(RoleData)34_storage)"
      },
      {
        "astId": 338,
        "contract": "contracts/HyperCertMinter.sol:HyperCertMinter",
        "label": "__gap",
        "offset": 0,
        "slot": "257",
        "type": "t_array(t_uint256)49_storage"
      },
      {
        "astId": 796,
        "contract": "contracts/HyperCertMinter.sol:HyperCertMinter",
        "label": "__gap",
        "offset": 0,
        "slot": "306",
        "type": "t_array(t_uint256)50_storage"
      },
      {
        "astId": 1093,
        "contract": "contracts/HyperCertMinter.sol:HyperCertMinter",
        "label": "__gap",
        "offset": 0,
        "slot": "356",
        "type": "t_array(t_uint256)50_storage"
      },
      {
        "astId": 4480,
        "contract": "contracts/HyperCertMinter.sol:HyperCertMinter",
        "label": "_version",
        "offset": 0,
        "slot": "406",
        "type": "t_uint16"
      },
      {
        "astId": 4483,
        "contract": "contracts/HyperCertMinter.sol:HyperCertMinter",
        "label": "_metadata",
        "offset": 2,
        "slot": "406",
        "type": "t_address"
      },
      {
        "astId": 4488,
        "contract": "contracts/HyperCertMinter.sol:HyperCertMinter",
        "label": "workScopes",
        "offset": 0,
        "slot": "407",
        "type": "t_mapping(t_bytes32,t_string_storage)"
      },
      {
        "astId": 4493,
        "contract": "contracts/HyperCertMinter.sol:HyperCertMinter",
        "label": "impactScopes",
        "offset": 0,
        "slot": "408",
        "type": "t_mapping(t_bytes32,t_string_storage)"
      },
      {
        "astId": 4498,
        "contract": "contracts/HyperCertMinter.sol:HyperCertMinter",
        "label": "rights",
        "offset": 0,
        "slot": "409",
        "type": "t_mapping(t_bytes32,t_string_storage)"
      },
      {
        "astId": 4504,
        "contract": "contracts/HyperCertMinter.sol:HyperCertMinter",
        "label": "_contributorImpacts",
        "offset": 0,
        "slot": "410",
        "type": "t_mapping(t_address,t_mapping(t_bytes32,t_bool))"
      },
      {
        "astId": 4509,
        "contract": "contracts/HyperCertMinter.sol:HyperCertMinter",
        "label": "_impactCerts",
        "offset": 0,
        "slot": "411",
        "type": "t_mapping(t_uint256,t_struct(Claim)4544_storage)"
      }
    ],
    "types": {
      "t_address": {
        "encoding": "inplace",
        "label": "address",
        "numberOfBytes": "20"
      },
      "t_array(t_address)dyn_storage": {
        "base": "t_address",
        "encoding": "dynamic_array",
        "label": "address[]",
        "numberOfBytes": "32"
      },
      "t_array(t_bytes32)dyn_storage": {
        "base": "t_bytes32",
        "encoding": "dynamic_array",
        "label": "bytes32[]",
        "numberOfBytes": "32"
      },
      "t_array(t_uint256)44_storage": {
        "base": "t_uint256",
        "encoding": "inplace",
        "label": "uint256[44]",
        "numberOfBytes": "1408"
      },
      "t_array(t_uint256)46_storage": {
        "base": "t_uint256",
        "encoding": "inplace",
        "label": "uint256[46]",
        "numberOfBytes": "1472"
      },
      "t_array(t_uint256)49_storage": {
        "base": "t_uint256",
        "encoding": "inplace",
        "label": "uint256[49]",
        "numberOfBytes": "1568"
      },
      "t_array(t_uint256)50_storage": {
        "base": "t_uint256",
        "encoding": "inplace",
        "label": "uint256[50]",
        "numberOfBytes": "1600"
      },
      "t_array(t_uint256)dyn_storage": {
        "base": "t_uint256",
        "encoding": "dynamic_array",
        "label": "uint256[]",
        "numberOfBytes": "32"
      },
      "t_array(t_uint64)2_storage": {
        "base": "t_uint64",
        "encoding": "inplace",
        "label": "uint64[2]",
        "numberOfBytes": "32"
      },
      "t_bool": {
        "encoding": "inplace",
        "label": "bool",
        "numberOfBytes": "1"
      },
      "t_bytes32": {
        "encoding": "inplace",
        "label": "bytes32",
        "numberOfBytes": "32"
      },
      "t_mapping(t_address,t_bool)": {
        "encoding": "mapping",
        "key": "t_address",
        "label": "mapping(address => bool)",
        "numberOfBytes": "32",
        "value": "t_bool"
      },
      "t_mapping(t_address,t_mapping(t_address,t_bool))": {
        "encoding": "mapping",
        "key": "t_address",
        "label": "mapping(address => mapping(address => bool))",
        "numberOfBytes": "32",
        "value": "t_mapping(t_address,t_bool)"
      },
      "t_mapping(t_address,t_mapping(t_bytes32,t_bool))": {
        "encoding": "mapping",
        "key": "t_address",
        "label": "mapping(address => mapping(bytes32 => bool))",
        "numberOfBytes": "32",
        "value": "t_mapping(t_bytes32,t_bool)"
      },
      "t_mapping(t_address,t_mapping(t_uint256,t_uint256))": {
        "encoding": "mapping",
        "key": "t_address",
        "label": "mapping(address => mapping(uint256 => uint256))",
        "numberOfBytes": "32",
        "value": "t_mapping(t_uint256,t_uint256)"
      },
      "t_mapping(t_address,t_uint256)": {
        "encoding": "mapping",
        "key": "t_address",
        "label": "mapping(address => uint256)",
        "numberOfBytes": "32",
        "value": "t_uint256"
      },
      "t_mapping(t_bytes32,t_bool)": {
        "encoding": "mapping",
        "key": "t_bytes32",
        "label": "mapping(bytes32 => bool)",
        "numberOfBytes": "32",
        "value": "t_bool"
      },
      "t_mapping(t_bytes32,t_string_storage)": {
        "encoding": "mapping",
        "key": "t_bytes32",
        "label": "mapping(bytes32 => string)",
        "numberOfBytes": "32",
        "value": "t_string_storage"
      },
      "t_mapping(t_bytes32,t_struct(RoleData)34_storage)": {
        "encoding": "mapping",
        "key": "t_bytes32",
        "label": "mapping(bytes32 => struct AccessControlUpgradeable.RoleData)",
        "numberOfBytes": "32",
        "value": "t_struct(RoleData)34_storage"
      },
      "t_mapping(t_uint256,t_address)": {
        "encoding": "mapping",
        "key": "t_uint256",
        "label": "mapping(uint256 => address)",
        "numberOfBytes": "32",
        "value": "t_address"
      },
      "t_mapping(t_uint256,t_array(t_uint256)dyn_storage)": {
        "encoding": "mapping",
        "key": "t_uint256",
        "label": "mapping(uint256 => uint256[])",
        "numberOfBytes": "32",
        "value": "t_array(t_uint256)dyn_storage"
      },
      "t_mapping(t_uint256,t_struct(ApproveData)3439_storage)": {
        "encoding": "mapping",
        "key": "t_uint256",
        "label": "mapping(uint256 => struct ERC3525Upgradeable.ApproveData)",
        "numberOfBytes": "32",
        "value": "t_struct(ApproveData)3439_storage"
      },
      "t_mapping(t_uint256,t_struct(Claim)4544_storage)": {
        "encoding": "mapping",
        "key": "t_uint256",
        "label": "mapping(uint256 => struct HyperCertMinter.Claim)",
        "numberOfBytes": "32",
        "value": "t_struct(Claim)4544_storage"
      },
      "t_mapping(t_uint256,t_uint256)": {
        "encoding": "mapping",
        "key": "t_uint256",
        "label": "mapping(uint256 => uint256)",
        "numberOfBytes": "32",
        "value": "t_uint256"
      },
      "t_string_storage": {
        "encoding": "bytes",
        "label": "string",
        "numberOfBytes": "32"
      },
      "t_struct(ApproveData)3439_storage": {
        "encoding": "inplace",
        "label": "struct ERC3525Upgradeable.ApproveData",
        "members": [
          {
            "astId": 3434,
            "contract": "contracts/HyperCertMinter.sol:HyperCertMinter",
            "label": "approvals",
            "offset": 0,
            "slot": "0",
            "type": "t_array(t_address)dyn_storage"
          },
          {
            "astId": 3438,
            "contract": "contracts/HyperCertMinter.sol:HyperCertMinter",
            "label": "allowances",
            "offset": 0,
            "slot": "1",
            "type": "t_mapping(t_address,t_uint256)"
          }
        ],
        "numberOfBytes": "64"
      },
      "t_struct(Claim)4544_storage": {
        "encoding": "inplace",
        "label": "struct HyperCertMinter.Claim",
        "members": [
          {
            "astId": 4511,
            "contract": "contracts/HyperCertMinter.sol:HyperCertMinter",
            "label": "claimHash",
            "offset": 0,
            "slot": "0",
            "type": "t_bytes32"
          },
          {
            "astId": 4515,
            "contract": "contracts/HyperCertMinter.sol:HyperCertMinter",
            "label": "workTimeframe",
            "offset": 0,
            "slot": "1",
            "type": "t_array(t_uint64)2_storage"
          },
          {
            "astId": 4519,
            "contract": "contracts/HyperCertMinter.sol:HyperCertMinter",
            "label": "impactTimeframe",
            "offset": 0,
            "slot": "2",
            "type": "t_array(t_uint64)2_storage"
          },
          {
            "astId": 4522,
            "contract": "contracts/HyperCertMinter.sol:HyperCertMinter",
            "label": "workScopes",
            "offset": 0,
            "slot": "3",
            "type": "t_array(t_bytes32)dyn_storage"
          },
          {
            "astId": 4525,
            "contract": "contracts/HyperCertMinter.sol:HyperCertMinter",
            "label": "impactScopes",
            "offset": 0,
            "slot": "4",
            "type": "t_array(t_bytes32)dyn_storage"
          },
          {
            "astId": 4528,
            "contract": "contracts/HyperCertMinter.sol:HyperCertMinter",
            "label": "rights",
            "offset": 0,
            "slot": "5",
            "type": "t_array(t_bytes32)dyn_storage"
          },
          {
            "astId": 4531,
            "contract": "contracts/HyperCertMinter.sol:HyperCertMinter",
            "label": "contributors",
            "offset": 0,
            "slot": "6",
            "type": "t_array(t_address)dyn_storage"
          },
          {
            "astId": 4533,
            "contract": "contracts/HyperCertMinter.sol:HyperCertMinter",
            "label": "totalUnits",
            "offset": 0,
            "slot": "7",
            "type": "t_uint256"
          },
          {
            "astId": 4535,
            "contract": "contracts/HyperCertMinter.sol:HyperCertMinter",
            "label": "version",
            "offset": 0,
            "slot": "8",
            "type": "t_uint16"
          },
          {
            "astId": 4537,
            "contract": "contracts/HyperCertMinter.sol:HyperCertMinter",
            "label": "exists",
            "offset": 2,
            "slot": "8",
            "type": "t_bool"
          },
          {
            "astId": 4539,
            "contract": "contracts/HyperCertMinter.sol:HyperCertMinter",
            "label": "name",
            "offset": 0,
            "slot": "9",
            "type": "t_string_storage"
          },
          {
            "astId": 4541,
            "contract": "contracts/HyperCertMinter.sol:HyperCertMinter",
            "label": "description",
            "offset": 0,
            "slot": "10",
            "type": "t_string_storage"
          },
          {
            "astId": 4543,
            "contract": "contracts/HyperCertMinter.sol:HyperCertMinter",
            "label": "uri",
            "offset": 0,
            "slot": "11",
            "type": "t_string_storage"
          }
        ],
        "numberOfBytes": "384"
      },
      "t_struct(RoleData)34_storage": {
        "encoding": "inplace",
        "label": "struct AccessControlUpgradeable.RoleData",
        "members": [
          {
            "astId": 31,
            "contract": "contracts/HyperCertMinter.sol:HyperCertMinter",
            "label": "members",
            "offset": 0,
            "slot": "0",
            "type": "t_mapping(t_address,t_bool)"
          },
          {
            "astId": 33,
            "contract": "contracts/HyperCertMinter.sol:HyperCertMinter",
            "label": "adminRole",
            "offset": 0,
            "slot": "1",
            "type": "t_bytes32"
          }
        ],
        "numberOfBytes": "64"
      },
      "t_uint16": {
        "encoding": "inplace",
        "label": "uint16",
        "numberOfBytes": "2"
      },
      "t_uint256": {
        "encoding": "inplace",
        "label": "uint256",
        "numberOfBytes": "32"
      },
      "t_uint64": {
        "encoding": "inplace",
        "label": "uint64",
        "numberOfBytes": "8"
      },
      "t_uint8": {
        "encoding": "inplace",
        "label": "uint8",
        "numberOfBytes": "1"
      }
    }
  }
}