{
  "address": "0x03588816303CC1c3a2717bD6650Dc1DBAA1DA9e1",
  "abi": [
    {
      "inputs": [],
      "stateMutability": "nonpayable",
      "type": "constructor"
    },
    {
      "inputs": [
        {
          "internalType": "uint256",
          "name": "tokenId",
          "type": "uint256"
        }
      ],
      "name": "AlreadyMinted",
      "type": "error"
    },
    {
      "inputs": [],
      "name": "ConflictingClaim",
      "type": "error"
    },
    {
      "inputs": [],
      "name": "DuplicateScope",
      "type": "error"
    },
    {
      "inputs": [],
      "name": "EmptyInput",
      "type": "error"
    },
    {
      "inputs": [
        {
          "internalType": "uint256",
          "name": "transferAmount",
          "type": "uint256"
        },
        {
          "internalType": "uint256",
          "name": "allowance",
          "type": "uint256"
        }
      ],
      "name": "InsufficientAllowance",
      "type": "error"
    },
    {
      "inputs": [
        {
          "internalType": "uint256",
          "name": "transferAmount",
          "type": "uint256"
        },
        {
          "internalType": "uint256",
          "name": "balance",
          "type": "uint256"
        }
      ],
      "name": "InsufficientBalance",
      "type": "error"
    },
    {
      "inputs": [
        {
          "internalType": "uint256",
          "name": "tokenId",
          "type": "uint256"
        },
        {
          "internalType": "address",
          "name": "from",
          "type": "address"
        },
        {
          "internalType": "address",
          "name": "to",
          "type": "address"
        }
      ],
      "name": "InvalidApproval",
      "type": "error"
    },
    {
      "inputs": [
        {
          "internalType": "uint256",
          "name": "tokenId",
          "type": "uint256"
        }
      ],
      "name": "InvalidID",
      "type": "error"
    },
    {
      "inputs": [],
      "name": "InvalidInput",
      "type": "error"
    },
    {
      "inputs": [],
      "name": "InvalidScope",
      "type": "error"
    },
    {
      "inputs": [
        {
          "internalType": "uint64",
          "name": "from",
          "type": "uint64"
        },
        {
          "internalType": "uint64",
          "name": "to",
          "type": "uint64"
        }
      ],
      "name": "InvalidTimeframe",
      "type": "error"
    },
    {
      "inputs": [
        {
          "internalType": "uint256",
          "name": "slotId",
          "type": "uint256"
        }
      ],
      "name": "NonExistentSlot",
      "type": "error"
    },
    {
      "inputs": [
        {
          "internalType": "uint256",
          "name": "tokenId",
          "type": "uint256"
        }
      ],
      "name": "NonExistentToken",
      "type": "error"
    },
    {
      "inputs": [],
      "name": "NotApprovedOrOwner",
      "type": "error"
    },
    {
      "inputs": [
        {
          "internalType": "address",
          "name": "receiver",
          "type": "address"
        }
      ],
      "name": "NotERC3525Receiver",
      "type": "error"
    },
    {
      "inputs": [
        {
          "internalType": "address",
          "name": "receiver",
          "type": "address"
        }
      ],
      "name": "NotERC721Receiver",
      "type": "error"
    },
    {
      "inputs": [],
      "name": "SlotAlreadyMinted",
      "type": "error"
    },
    {
      "inputs": [
        {
          "internalType": "uint256",
          "name": "slotId",
          "type": "uint256"
        }
      ],
      "name": "SlotOutOfBounds",
      "type": "error"
    },
    {
      "inputs": [
        {
          "internalType": "uint256",
          "name": "slotId",
          "type": "uint256"
        },
        {
          "internalType": "uint256",
          "name": "tokenId",
          "type": "uint256"
        }
      ],
      "name": "SlotTokenOutOfBounds",
      "type": "error"
    },
    {
      "inputs": [
        {
          "internalType": "uint256",
          "name": "fromTokenId",
          "type": "uint256"
        },
        {
          "internalType": "uint256",
          "name": "toTokenId",
          "type": "uint256"
        }
      ],
      "name": "SlotsMismatch",
      "type": "error"
    },
    {
      "inputs": [],
      "name": "ToZeroAddress",
      "type": "error"
    },
    {
      "anonymous": false,
      "inputs": [
        {
          "indexed": false,
          "internalType": "address",
          "name": "previousAdmin",
          "type": "address"
        },
        {
          "indexed": false,
          "internalType": "address",
          "name": "newAdmin",
          "type": "address"
        }
      ],
      "name": "AdminChanged",
      "type": "event"
    },
    {
      "anonymous": false,
      "inputs": [
        {
          "indexed": true,
          "internalType": "address",
          "name": "owner",
          "type": "address"
        },
        {
          "indexed": true,
          "internalType": "address",
          "name": "approved",
          "type": "address"
        },
        {
          "indexed": true,
          "internalType": "uint256",
          "name": "tokenId",
          "type": "uint256"
        }
      ],
      "name": "Approval",
      "type": "event"
    },
    {
      "anonymous": false,
      "inputs": [
        {
          "indexed": true,
          "internalType": "address",
          "name": "owner",
          "type": "address"
        },
        {
          "indexed": true,
          "internalType": "address",
          "name": "operator",
          "type": "address"
        },
        {
          "indexed": false,
          "internalType": "bool",
          "name": "approved",
          "type": "bool"
        }
      ],
      "name": "ApprovalForAll",
      "type": "event"
    },
    {
      "anonymous": false,
      "inputs": [
        {
          "indexed": true,
          "internalType": "uint256",
          "name": "_tokenId",
          "type": "uint256"
        },
        {
          "indexed": true,
          "internalType": "address",
          "name": "_operator",
          "type": "address"
        },
        {
          "indexed": false,
          "internalType": "uint256",
          "name": "_value",
          "type": "uint256"
        }
      ],
      "name": "ApprovalValue",
      "type": "event"
    },
    {
      "anonymous": false,
      "inputs": [
        {
          "indexed": true,
          "internalType": "address",
          "name": "beacon",
          "type": "address"
        }
      ],
      "name": "BeaconUpgraded",
      "type": "event"
    },
    {
      "anonymous": false,
      "inputs": [
        {
          "indexed": false,
          "internalType": "uint256",
          "name": "id",
          "type": "uint256"
        },
        {
          "indexed": false,
          "internalType": "address",
          "name": "minter",
          "type": "address"
        },
        {
          "indexed": false,
          "internalType": "uint64[]",
          "name": "fractions",
          "type": "uint64[]"
        }
      ],
      "name": "ImpactClaimed",
      "type": "event"
    },
    {
      "anonymous": false,
      "inputs": [
        {
          "indexed": false,
          "internalType": "bytes32",
          "name": "id",
          "type": "bytes32"
        },
        {
          "indexed": false,
          "internalType": "string",
          "name": "text",
          "type": "string"
        }
      ],
      "name": "ImpactScopeAdded",
      "type": "event"
    },
    {
      "anonymous": false,
      "inputs": [
        {
          "indexed": false,
          "internalType": "uint8",
          "name": "version",
          "type": "uint8"
        }
      ],
      "name": "Initialized",
      "type": "event"
    },
    {
      "anonymous": false,
      "inputs": [
        {
          "indexed": false,
          "internalType": "bytes32",
          "name": "id",
          "type": "bytes32"
        },
        {
          "indexed": false,
          "internalType": "string",
          "name": "text",
          "type": "string"
        }
      ],
      "name": "RightAdded",
      "type": "event"
    },
    {
      "anonymous": false,
      "inputs": [
        {
          "indexed": true,
          "internalType": "bytes32",
          "name": "role",
          "type": "bytes32"
        },
        {
          "indexed": true,
          "internalType": "bytes32",
          "name": "previousAdminRole",
          "type": "bytes32"
        },
        {
          "indexed": true,
          "internalType": "bytes32",
          "name": "newAdminRole",
          "type": "bytes32"
        }
      ],
      "name": "RoleAdminChanged",
      "type": "event"
    },
    {
      "anonymous": false,
      "inputs": [
        {
          "indexed": true,
          "internalType": "bytes32",
          "name": "role",
          "type": "bytes32"
        },
        {
          "indexed": true,
          "internalType": "address",
          "name": "account",
          "type": "address"
        },
        {
          "indexed": true,
          "internalType": "address",
          "name": "sender",
          "type": "address"
        }
      ],
      "name": "RoleGranted",
      "type": "event"
    },
    {
      "anonymous": false,
      "inputs": [
        {
          "indexed": true,
          "internalType": "bytes32",
          "name": "role",
          "type": "bytes32"
        },
        {
          "indexed": true,
          "internalType": "address",
          "name": "account",
          "type": "address"
        },
        {
          "indexed": true,
          "internalType": "address",
          "name": "sender",
          "type": "address"
        }
      ],
      "name": "RoleRevoked",
      "type": "event"
    },
    {
      "anonymous": false,
      "inputs": [
        {
          "indexed": true,
          "internalType": "uint256",
          "name": "_tokenId",
          "type": "uint256"
        },
        {
          "indexed": true,
          "internalType": "uint256",
          "name": "_oldSlot",
          "type": "uint256"
        },
        {
          "indexed": true,
          "internalType": "uint256",
          "name": "_newSlot",
          "type": "uint256"
        }
      ],
      "name": "SlotChanged",
      "type": "event"
    },
    {
      "anonymous": false,
      "inputs": [
        {
          "indexed": true,
          "internalType": "address",
          "name": "from",
          "type": "address"
        },
        {
          "indexed": true,
          "internalType": "address",
          "name": "to",
          "type": "address"
        },
        {
          "indexed": true,
          "internalType": "uint256",
          "name": "tokenId",
          "type": "uint256"
        }
      ],
      "name": "Transfer",
      "type": "event"
    },
    {
      "anonymous": false,
      "inputs": [
        {
          "indexed": true,
          "internalType": "uint256",
          "name": "_fromTokenId",
          "type": "uint256"
        },
        {
          "indexed": true,
          "internalType": "uint256",
          "name": "_toTokenId",
          "type": "uint256"
        },
        {
          "indexed": false,
          "internalType": "uint256",
          "name": "_value",
          "type": "uint256"
        }
      ],
      "name": "TransferValue",
      "type": "event"
    },
    {
      "anonymous": false,
      "inputs": [
        {
          "indexed": true,
          "internalType": "address",
          "name": "implementation",
          "type": "address"
        }
      ],
      "name": "Upgraded",
      "type": "event"
    },
    {
      "anonymous": false,
      "inputs": [
        {
          "indexed": false,
          "internalType": "bytes32",
          "name": "id",
          "type": "bytes32"
        },
        {
          "indexed": false,
          "internalType": "string",
          "name": "text",
          "type": "string"
        }
      ],
      "name": "WorkScopeAdded",
      "type": "event"
    },
    {
      "inputs": [],
      "name": "DECIMALS",
      "outputs": [
        {
          "internalType": "uint8",
          "name": "",
          "type": "uint8"
        }
      ],
      "stateMutability": "view",
      "type": "function"
    },
    {
      "inputs": [],
      "name": "DEFAULT_ADMIN_ROLE",
      "outputs": [
        {
          "internalType": "bytes32",
          "name": "",
          "type": "bytes32"
        }
      ],
      "stateMutability": "view",
      "type": "function"
    },
    {
      "inputs": [],
      "name": "NAME",
      "outputs": [
        {
          "internalType": "string",
          "name": "",
          "type": "string"
        }
      ],
      "stateMutability": "view",
      "type": "function"
    },
    {
      "inputs": [],
      "name": "SYMBOL",
      "outputs": [
        {
          "internalType": "string",
          "name": "",
          "type": "string"
        }
      ],
      "stateMutability": "view",
      "type": "function"
    },
    {
      "inputs": [],
      "name": "UPGRADER_ROLE",
      "outputs": [
        {
          "internalType": "bytes32",
          "name": "",
          "type": "bytes32"
        }
      ],
      "stateMutability": "view",
      "type": "function"
    },
    {
      "inputs": [],
      "name": "__ERC3525Upgradeable_init",
      "outputs": [],
      "stateMutability": "nonpayable",
      "type": "function"
    },
    {
      "inputs": [
        {
          "internalType": "string",
          "name": "text",
          "type": "string"
        }
      ],
      "name": "addImpactScope",
      "outputs": [
        {
          "internalType": "bytes32",
          "name": "id",
          "type": "bytes32"
        }
      ],
      "stateMutability": "nonpayable",
      "type": "function"
    },
    {
      "inputs": [
        {
          "internalType": "string",
          "name": "text",
          "type": "string"
        }
      ],
      "name": "addRight",
      "outputs": [
        {
          "internalType": "bytes32",
          "name": "id",
          "type": "bytes32"
        }
      ],
      "stateMutability": "nonpayable",
      "type": "function"
    },
    {
      "inputs": [
        {
          "internalType": "string",
          "name": "text",
          "type": "string"
        }
      ],
      "name": "addWorkScope",
      "outputs": [
        {
          "internalType": "bytes32",
          "name": "id",
          "type": "bytes32"
        }
      ],
      "stateMutability": "nonpayable",
      "type": "function"
    },
    {
      "inputs": [
        {
          "internalType": "uint256",
          "name": "tokenId_",
          "type": "uint256"
        },
        {
          "internalType": "address",
          "name": "operator_",
          "type": "address"
        }
      ],
      "name": "allowance",
      "outputs": [
        {
          "internalType": "uint256",
          "name": "",
          "type": "uint256"
        }
      ],
      "stateMutability": "view",
      "type": "function"
    },
    {
      "inputs": [
        {
          "internalType": "address",
          "name": "to_",
          "type": "address"
        },
        {
          "internalType": "uint256",
          "name": "tokenId_",
          "type": "uint256"
        }
      ],
      "name": "approve",
      "outputs": [],
      "stateMutability": "nonpayable",
      "type": "function"
    },
    {
      "inputs": [
        {
          "internalType": "uint256",
          "name": "tokenId_",
          "type": "uint256"
        },
        {
          "internalType": "address",
          "name": "to_",
          "type": "address"
        },
        {
          "internalType": "uint256",
          "name": "value_",
          "type": "uint256"
        }
      ],
      "name": "approve",
      "outputs": [],
      "stateMutability": "payable",
      "type": "function"
    },
    {
      "inputs": [
        {
          "internalType": "address",
          "name": "owner_",
          "type": "address"
        }
      ],
      "name": "balanceOf",
      "outputs": [
        {
          "internalType": "uint256",
          "name": "balance",
          "type": "uint256"
        }
      ],
      "stateMutability": "view",
      "type": "function"
    },
    {
      "inputs": [
        {
          "internalType": "uint256",
          "name": "tokenId_",
          "type": "uint256"
        }
      ],
      "name": "balanceOf",
      "outputs": [
        {
          "internalType": "uint256",
          "name": "",
          "type": "uint256"
        }
      ],
      "stateMutability": "view",
      "type": "function"
    },
    {
      "inputs": [
        {
          "internalType": "uint256",
          "name": "tokenId_",
          "type": "uint256"
        }
      ],
      "name": "burn",
      "outputs": [],
      "stateMutability": "nonpayable",
      "type": "function"
    },
    {
      "inputs": [],
      "name": "contractURI",
      "outputs": [
        {
          "internalType": "string",
          "name": "",
          "type": "string"
        }
      ],
      "stateMutability": "view",
      "type": "function"
    },
    {
      "inputs": [
        {
          "internalType": "uint256",
          "name": "tokenId_",
          "type": "uint256"
        }
      ],
      "name": "donate",
      "outputs": [],
      "stateMutability": "nonpayable",
      "type": "function"
    },
    {
      "inputs": [
        {
          "internalType": "uint256",
          "name": "tokenId_",
          "type": "uint256"
        }
      ],
      "name": "getApproved",
      "outputs": [
        {
          "internalType": "address",
          "name": "",
          "type": "address"
        }
      ],
      "stateMutability": "view",
      "type": "function"
    },
    {
      "inputs": [
        {
          "internalType": "uint64[2]",
          "name": "workTimeframe_",
          "type": "uint64[2]"
        },
        {
          "internalType": "bytes32[]",
          "name": "workScopes_",
          "type": "bytes32[]"
        },
        {
          "internalType": "uint64[2]",
          "name": "impactTimeframe_",
          "type": "uint64[2]"
        },
        {
          "internalType": "bytes32[]",
          "name": "impactScopes_",
          "type": "bytes32[]"
        }
      ],
      "name": "getHash",
      "outputs": [
        {
          "internalType": "bytes32",
          "name": "",
          "type": "bytes32"
        }
      ],
      "stateMutability": "pure",
      "type": "function"
    },
    {
      "inputs": [
        {
          "internalType": "uint256",
          "name": "claimID",
          "type": "uint256"
        }
      ],
      "name": "getImpactCert",
      "outputs": [
        {
          "components": [
            {
              "internalType": "bytes32",
              "name": "claimHash",
              "type": "bytes32"
            },
            {
              "internalType": "uint64[2]",
              "name": "workTimeframe",
              "type": "uint64[2]"
            },
            {
              "internalType": "uint64[2]",
              "name": "impactTimeframe",
              "type": "uint64[2]"
            },
            {
              "internalType": "bytes32[]",
              "name": "workScopes",
              "type": "bytes32[]"
            },
            {
              "internalType": "bytes32[]",
              "name": "impactScopes",
              "type": "bytes32[]"
            },
            {
              "internalType": "bytes32[]",
              "name": "rights",
              "type": "bytes32[]"
            },
            {
              "internalType": "address[]",
              "name": "contributors",
              "type": "address[]"
            },
            {
              "internalType": "uint256",
              "name": "totalUnits",
              "type": "uint256"
            },
            {
              "internalType": "uint16",
              "name": "version",
              "type": "uint16"
            },
            {
              "internalType": "bool",
              "name": "exists",
              "type": "bool"
            },
            {
              "internalType": "string",
              "name": "name",
              "type": "string"
            },
            {
              "internalType": "string",
              "name": "description",
              "type": "string"
            },
            {
              "internalType": "string",
              "name": "uri",
              "type": "string"
            },
            {
              "internalType": "address",
              "name": "minter",
              "type": "address"
            }
          ],
          "internalType": "struct HyperCertMinter.Claim",
          "name": "",
          "type": "tuple"
        }
      ],
      "stateMutability": "view",
      "type": "function"
    },
    {
      "inputs": [
        {
          "internalType": "bytes32",
          "name": "role",
          "type": "bytes32"
        }
      ],
      "name": "getRoleAdmin",
      "outputs": [
        {
          "internalType": "bytes32",
          "name": "",
          "type": "bytes32"
        }
      ],
      "stateMutability": "view",
      "type": "function"
    },
    {
      "inputs": [
        {
          "internalType": "bytes32",
          "name": "role",
          "type": "bytes32"
        },
        {
          "internalType": "address",
          "name": "account",
          "type": "address"
        }
      ],
      "name": "grantRole",
      "outputs": [],
      "stateMutability": "nonpayable",
      "type": "function"
    },
    {
      "inputs": [
        {
          "internalType": "bytes32",
          "name": "role",
          "type": "bytes32"
        },
        {
          "internalType": "address",
          "name": "account",
          "type": "address"
        }
      ],
      "name": "hasRole",
      "outputs": [
        {
          "internalType": "bool",
          "name": "",
          "type": "bool"
        }
      ],
      "stateMutability": "view",
      "type": "function"
    },
    {
      "inputs": [
        {
          "internalType": "bytes32",
          "name": "",
          "type": "bytes32"
        }
      ],
      "name": "impactScopes",
      "outputs": [
        {
          "internalType": "string",
          "name": "",
          "type": "string"
        }
      ],
      "stateMutability": "view",
      "type": "function"
    },
    {
      "inputs": [
        {
          "internalType": "address",
          "name": "metadataAddress",
          "type": "address"
        }
      ],
      "name": "initialize",
      "outputs": [],
      "stateMutability": "nonpayable",
      "type": "function"
    },
    {
      "inputs": [
        {
          "internalType": "address",
          "name": "owner_",
          "type": "address"
        },
        {
          "internalType": "address",
          "name": "operator_",
          "type": "address"
        }
      ],
      "name": "isApprovedForAll",
      "outputs": [
        {
          "internalType": "bool",
          "name": "",
          "type": "bool"
        }
      ],
      "stateMutability": "view",
      "type": "function"
    },
    {
      "inputs": [
        {
          "internalType": "uint256[]",
          "name": "tokenIds",
          "type": "uint256[]"
        }
      ],
      "name": "merge",
      "outputs": [],
      "stateMutability": "nonpayable",
      "type": "function"
    },
    {
      "inputs": [
        {
          "internalType": "address",
          "name": "account",
          "type": "address"
        },
        {
          "internalType": "bytes",
          "name": "data",
          "type": "bytes"
        }
      ],
      "name": "mint",
      "outputs": [],
      "stateMutability": "nonpayable",
      "type": "function"
    },
    {
      "inputs": [],
      "name": "name",
      "outputs": [
        {
          "internalType": "string",
          "name": "",
          "type": "string"
        }
      ],
      "stateMutability": "pure",
      "type": "function"
    },
    {
      "inputs": [
        {
          "internalType": "uint256",
          "name": "tokenId_",
          "type": "uint256"
        }
      ],
      "name": "ownerOf",
      "outputs": [
        {
          "internalType": "address",
          "name": "owner_",
          "type": "address"
        }
      ],
      "stateMutability": "view",
      "type": "function"
    },
    {
      "inputs": [],
      "name": "proxiableUUID",
      "outputs": [
        {
          "internalType": "bytes32",
          "name": "",
          "type": "bytes32"
        }
      ],
      "stateMutability": "view",
      "type": "function"
    },
    {
      "inputs": [
        {
          "internalType": "bytes32",
          "name": "role",
          "type": "bytes32"
        },
        {
          "internalType": "address",
          "name": "account",
          "type": "address"
        }
      ],
      "name": "renounceRole",
      "outputs": [],
      "stateMutability": "nonpayable",
      "type": "function"
    },
    {
      "inputs": [
        {
          "internalType": "bytes32",
          "name": "role",
          "type": "bytes32"
        },
        {
          "internalType": "address",
          "name": "account",
          "type": "address"
        }
      ],
      "name": "revokeRole",
      "outputs": [],
      "stateMutability": "nonpayable",
      "type": "function"
    },
    {
      "inputs": [
        {
          "internalType": "bytes32",
          "name": "",
          "type": "bytes32"
        }
      ],
      "name": "rights",
      "outputs": [
        {
          "internalType": "string",
          "name": "",
          "type": "string"
        }
      ],
      "stateMutability": "view",
      "type": "function"
    },
    {
      "inputs": [
        {
          "internalType": "address",
          "name": "from_",
          "type": "address"
        },
        {
          "internalType": "address",
          "name": "to_",
          "type": "address"
        },
        {
          "internalType": "uint256",
          "name": "tokenId_",
          "type": "uint256"
        }
      ],
      "name": "safeTransferFrom",
      "outputs": [],
      "stateMutability": "nonpayable",
      "type": "function"
    },
    {
      "inputs": [
        {
          "internalType": "address",
          "name": "from_",
          "type": "address"
        },
        {
          "internalType": "address",
          "name": "to_",
          "type": "address"
        },
        {
          "internalType": "uint256",
          "name": "tokenId_",
          "type": "uint256"
        },
        {
          "internalType": "bytes",
          "name": "data_",
          "type": "bytes"
        }
      ],
      "name": "safeTransferFrom",
      "outputs": [],
      "stateMutability": "nonpayable",
      "type": "function"
    },
    {
      "inputs": [
        {
          "internalType": "address",
          "name": "operator_",
          "type": "address"
        },
        {
          "internalType": "bool",
          "name": "approved_",
          "type": "bool"
        }
      ],
      "name": "setApprovalForAll",
      "outputs": [],
      "stateMutability": "nonpayable",
      "type": "function"
    },
    {
      "inputs": [
        {
          "internalType": "address",
          "name": "metadataGenerator",
          "type": "address"
        }
      ],
      "name": "setMetadataGenerator",
      "outputs": [],
      "stateMutability": "nonpayable",
      "type": "function"
    },
    {
      "inputs": [
        {
          "internalType": "uint256",
          "name": "index_",
          "type": "uint256"
        }
      ],
      "name": "slotByIndex",
      "outputs": [
        {
          "internalType": "uint256",
          "name": "",
          "type": "uint256"
        }
      ],
      "stateMutability": "view",
      "type": "function"
    },
    {
      "inputs": [],
      "name": "slotCount",
      "outputs": [
        {
          "internalType": "uint256",
          "name": "",
          "type": "uint256"
        }
      ],
      "stateMutability": "view",
      "type": "function"
    },
    {
      "inputs": [
        {
          "internalType": "uint256",
          "name": "tokenId_",
          "type": "uint256"
        }
      ],
      "name": "slotOf",
      "outputs": [
        {
          "internalType": "uint256",
          "name": "",
          "type": "uint256"
        }
      ],
      "stateMutability": "view",
      "type": "function"
    },
    {
      "inputs": [
        {
          "internalType": "uint256",
          "name": "slotId_",
          "type": "uint256"
        }
      ],
      "name": "slotURI",
      "outputs": [
        {
          "internalType": "string",
          "name": "",
          "type": "string"
        }
      ],
      "stateMutability": "view",
      "type": "function"
    },
    {
      "inputs": [
        {
          "internalType": "uint256",
          "name": "tokenId",
          "type": "uint256"
        },
        {
          "internalType": "uint256[]",
          "name": "amounts",
          "type": "uint256[]"
        }
      ],
      "name": "split",
      "outputs": [],
      "stateMutability": "nonpayable",
      "type": "function"
    },
    {
      "inputs": [
        {
          "internalType": "bytes4",
          "name": "interfaceId",
          "type": "bytes4"
        }
      ],
      "name": "supportsInterface",
      "outputs": [
        {
          "internalType": "bool",
          "name": "",
          "type": "bool"
        }
      ],
      "stateMutability": "view",
      "type": "function"
    },
    {
      "inputs": [],
      "name": "symbol",
      "outputs": [
        {
          "internalType": "string",
          "name": "",
          "type": "string"
        }
      ],
      "stateMutability": "pure",
      "type": "function"
    },
    {
      "inputs": [
        {
          "internalType": "uint256",
          "name": "index_",
          "type": "uint256"
        }
      ],
      "name": "tokenByIndex",
      "outputs": [
        {
          "internalType": "uint256",
          "name": "",
          "type": "uint256"
        }
      ],
      "stateMutability": "view",
      "type": "function"
    },
    {
      "inputs": [
        {
          "internalType": "uint256",
          "name": "slot_",
          "type": "uint256"
        },
        {
          "internalType": "uint256",
          "name": "index_",
          "type": "uint256"
        }
      ],
      "name": "tokenInSlotByIndex",
      "outputs": [
        {
          "internalType": "uint256",
          "name": "",
          "type": "uint256"
        }
      ],
      "stateMutability": "view",
      "type": "function"
    },
    {
      "inputs": [
        {
          "internalType": "address",
          "name": "owner_",
          "type": "address"
        },
        {
          "internalType": "uint256",
          "name": "index_",
          "type": "uint256"
        }
      ],
      "name": "tokenOfOwnerByIndex",
      "outputs": [
        {
          "internalType": "uint256",
          "name": "",
          "type": "uint256"
        }
      ],
      "stateMutability": "view",
      "type": "function"
    },
    {
      "inputs": [
        {
          "internalType": "uint256",
          "name": "slot_",
          "type": "uint256"
        }
      ],
      "name": "tokenSupplyInSlot",
      "outputs": [
        {
          "internalType": "uint256",
          "name": "",
          "type": "uint256"
        }
      ],
      "stateMutability": "view",
      "type": "function"
    },
    {
      "inputs": [
        {
          "internalType": "uint256",
          "name": "tokenId_",
          "type": "uint256"
        }
      ],
      "name": "tokenURI",
      "outputs": [
        {
          "internalType": "string",
          "name": "",
          "type": "string"
        }
      ],
      "stateMutability": "view",
      "type": "function"
    },
    {
      "inputs": [],
      "name": "totalSupply",
      "outputs": [
        {
          "internalType": "uint256",
          "name": "",
          "type": "uint256"
        }
      ],
      "stateMutability": "view",
      "type": "function"
    },
    {
      "inputs": [
        {
          "internalType": "uint256",
          "name": "fromTokenId_",
          "type": "uint256"
        },
        {
          "internalType": "address",
          "name": "to_",
          "type": "address"
        },
        {
          "internalType": "uint256",
          "name": "value_",
          "type": "uint256"
        }
      ],
      "name": "transferFrom",
      "outputs": [
        {
          "internalType": "uint256",
          "name": "",
          "type": "uint256"
        }
      ],
      "stateMutability": "payable",
      "type": "function"
    },
    {
      "inputs": [
        {
          "internalType": "address",
          "name": "from_",
          "type": "address"
        },
        {
          "internalType": "address",
          "name": "to_",
          "type": "address"
        },
        {
          "internalType": "uint256",
          "name": "tokenId_",
          "type": "uint256"
        }
      ],
      "name": "transferFrom",
      "outputs": [],
      "stateMutability": "nonpayable",
      "type": "function"
    },
    {
      "inputs": [
        {
          "internalType": "uint256",
          "name": "fromTokenId_",
          "type": "uint256"
        },
        {
          "internalType": "uint256",
          "name": "toTokenId_",
          "type": "uint256"
        },
        {
          "internalType": "uint256",
          "name": "value_",
          "type": "uint256"
        }
      ],
      "name": "transferFrom",
      "outputs": [],
      "stateMutability": "payable",
      "type": "function"
    },
    {
      "inputs": [],
      "name": "updateVersion",
      "outputs": [],
      "stateMutability": "nonpayable",
      "type": "function"
    },
    {
      "inputs": [
        {
          "internalType": "address",
          "name": "newImplementation",
          "type": "address"
        }
      ],
      "name": "upgradeTo",
      "outputs": [],
      "stateMutability": "nonpayable",
      "type": "function"
    },
    {
      "inputs": [
        {
          "internalType": "address",
          "name": "newImplementation",
          "type": "address"
        },
        {
          "internalType": "bytes",
          "name": "data",
          "type": "bytes"
        }
      ],
      "name": "upgradeToAndCall",
      "outputs": [],
      "stateMutability": "payable",
      "type": "function"
    },
    {
      "inputs": [],
      "name": "valueDecimals",
      "outputs": [
        {
          "internalType": "uint8",
          "name": "",
          "type": "uint8"
        }
      ],
      "stateMutability": "view",
      "type": "function"
    },
    {
      "inputs": [],
      "name": "version",
      "outputs": [
        {
          "internalType": "uint256",
          "name": "",
          "type": "uint256"
        }
      ],
      "stateMutability": "view",
      "type": "function"
    },
    {
      "inputs": [
        {
          "internalType": "bytes32",
          "name": "",
          "type": "bytes32"
        }
      ],
      "name": "workScopes",
      "outputs": [
        {
          "internalType": "string",
          "name": "",
          "type": "string"
        }
      ],
      "stateMutability": "view",
      "type": "function"
    }
  ],
  "numDeployments": 3,
  "solcInputHash": "95e2209e8476ef5988fecdb3875a02cc",
  "bytecode": "0x60a0604052306080523480156200001557600080fd5b506200002062000030565b6200002a62000030565b620000f2565b600054610100900460ff16156200009d5760405162461bcd60e51b815260206004820152602760248201527f496e697469616c697a61626c653a20636f6e747261637420697320696e697469604482015266616c697a696e6760c81b606482015260840160405180910390fd5b60005460ff9081161015620000f0576000805460ff191660ff9081179091556040519081527f7f26b83ff96e1f2b6a682f133852f6798a09c465da95921460cefb38474024989060200160405180910390a15b565b608051615f6d6200012a600039600081816110570152818161109701528181611299015281816112d901526113ff0152615f6d6000f3fe6080604052600436106103165760003560e01c806369c672471161019c578063b88d4fde116100e2578063e8a3d48511610090578063e8a3d485146109b3578063e985e9c5146109c8578063ed08fa80146109e8578063ef6f66d7146109fd578063f0f11e0514610a1d578063f14faf6f14610a3d578063f72c0d8b14610a5d578063f76f8d7814610a7f57600080fd5b8063b88d4fde146108d3578063c4d66de8146108f3578063c87b56dd14610913578063d52fd09514610933578063d547741f14610953578063de62d84214610973578063e345e0bc1461099357600080fd5b806395d89b411161014a57806395d89b41146107bb578063993bef8d146107e8578063997edc61146108085780639cc7f70814610828578063a217fddf14610848578063a22cb4651461085d578063a3f4df7e1461087d578063b510391f146108b357600080fd5b806369c67247146106db57806370a08231146106fb57806372927aa31461071b5780638cb0a511146107485780638f88b7671461075b57806391d148541461077b578063937773691461079b57600080fd5b80632f2ff15d1161026157806342966c681161020f57806342966c681461060457806348c02dc1146106245780634f1ef286146106395780634f6ccce71461064c5780634f8a0f831461066c57806352d1902d1461068c57806354fd4d50146106a15780636352211e146106bb57600080fd5b80632f2ff15d1461053d5780632f745c591461055d578063310ed7f01461057d57806336568abe146105905780633659cfe6146105b05780633e7e8669146105d057806342842e0e146105e457600080fd5b806311e32208116102c957806311e322081461043c57806318160ddd1461045c5780631e6ad4b81461047157806323b872dd14610491578063248a9ca3146104b15780632599c34c146104e1578063263f3e7e146104f65780632e0f26251461051657600080fd5b8062cd01101461031b57806301ffc9a71461034e57806306fdde031461037e578063081812fc146103ba578063095ea7b3146103e757806309c3dd87146104095780630f485c0214610429575b600080fd5b34801561032757600080fd5b5061033b610336366004614da2565b610aaf565b6040519081526020015b60405180910390f35b34801561035a57600080fd5b5061036e610369366004614dda565b610b42565b6040519015158152602001610345565b34801561038a57600080fd5b5060408051808201909152600a8152694879706572436572747360b01b60208201525b6040516103459190614e47565b3480156103c657600080fd5b506103da6103d5366004614e5a565b610b4d565b6040516103459190614e73565b3480156103f357600080fd5b50610407610402366004614e9e565b610bbf565b005b34801561041557600080fd5b506103ad610424366004614e5a565b610c3a565b61033b610437366004614ec8565b610cf1565b34801561044857600080fd5b5061033b61045736600461505e565b610d32565b34801561046857600080fd5b50606b5461033b565b34801561047d57600080fd5b5061033b61048c36600461515c565b610d6c565b34801561049d57600080fd5b506104076104ac366004615190565b610dd5565b3480156104bd57600080fd5b5061033b6104cc366004614e5a565b6000908152609e602052604090206001015490565b3480156104ed57600080fd5b50610407610e07565b34801561050257600080fd5b5061033b610511366004614e5a565b610ed5565b34801561052257600080fd5b5061052b600081565b60405160ff9091168152602001610345565b34801561054957600080fd5b506104076105583660046151bc565b610f3d565b34801561056957600080fd5b5061033b610578366004614e9e565b610f62565b61040761058b3660046151e8565b610fb9565b34801561059c57600080fd5b506104076105ab3660046151bc565b610fcf565b3480156105bc57600080fd5b506104076105cb366004615214565b61104d565b3480156105dc57600080fd5b50600061052b565b3480156105f057600080fd5b506104076105ff366004615190565b611112565b34801561061057600080fd5b5061040761061f366004614e5a565b61112d565b34801561063057600080fd5b5061040761123f565b61040761064736600461522f565b61128f565b34801561065857600080fd5b5061033b610667366004614e5a565b611344565b34801561067857600080fd5b5061033b610687366004614e5a565b61139d565b34801561069857600080fd5b5061033b6113f2565b3480156106ad57600080fd5b506101345461ffff1661033b565b3480156106c757600080fd5b506103da6106d6366004614e5a565b6114a0565b3480156106e757600080fd5b506104076106f636600461527c565b611534565b34801561070757600080fd5b5061033b610716366004615214565b61164c565b34801561072757600080fd5b5061073b610736366004614e5a565b611691565b604051610345919061539a565b610407610756366004614ec8565b611aef565b34801561076757600080fd5b506103ad610776366004614e5a565b611b6b565b34801561078757600080fd5b5061036e6107963660046151bc565b611c06565b3480156107a757600080fd5b506104076107b6366004615214565b611c31565b3480156107c757600080fd5b506040805180820190915260048152631210d49560e21b60208201526103ad565b3480156107f457600080fd5b5061033b610803366004614e5a565b611c9c565b34801561081457600080fd5b5061033b61082336600461515c565b611cf5565b34801561083457600080fd5b5061033b610843366004614e5a565b611d51565b34801561085457600080fd5b5061033b600081565b34801561086957600080fd5b50610407610878366004615516565b611db9565b34801561088957600080fd5b506103ad6040518060400160405280600a8152602001694879706572436572747360b01b81525081565b3480156108bf57600080fd5b506104076108ce36600461554d565b611dc4565b3480156108df57600080fd5b506104076108ee3660046155bc565b611ffe565b3480156108ff57600080fd5b5061040761090e366004615214565b612030565b34801561091f57600080fd5b506103ad61092e366004614e5a565b612157565b34801561093f57600080fd5b506103ad61094e366004614e5a565b6121a2565b34801561095f57600080fd5b5061040761096e3660046151bc565b6121bc565b34801561097f57600080fd5b5061040761098e366004615617565b6121e1565b34801561099f57600080fd5b5061033b6109ae3660046151bc565b612262565b3480156109bf57600080fd5b506103ad61228a565b3480156109d457600080fd5b5061036e6109e33660046156a7565b61230d565b3480156109f457600080fd5b50606d5461033b565b348015610a0957600080fd5b506103ad610a18366004614e5a565b61233f565b348015610a2957600080fd5b5061033b610a3836600461515c565b612359565b348015610a4957600080fd5b50610407610a58366004614e5a565b6123b5565b348015610a6957600080fd5b5061033b600080516020615eba83398151915281565b348015610a8b57600080fd5b506103ad604051806040016040528060048152602001631210d49560e21b81525081565b6000610aba8361139d565b8210610ae8576040516305ad208d60e11b815260048101849052602481018390526044015b60405180910390fd5b6000838152606e6020526040902054606d80549091908110610b0c57610b0c6156d1565b90600052602060002090600202016001018281548110610b2e57610b2e6156d1565b906000526020600020015490505b92915050565b6000610b3c826123ef565b6000610b5882612414565b610b78576040516338077a2b60e01b815260048101839052602401610adf565b600082815260696020526040902054606880549091908110610b9c57610b9c6156d1565b60009182526020909120600460069092020101546001600160a01b031692915050565b6000610bca826114a0565b9050806001600160a01b0316836001600160a01b031603610c035781338460405162ea9f2160e81b8152600401610adf939291906156e7565b610c0e335b83612460565b610c2b5760405163390cdd9b60e21b815260040160405180910390fd5b610c3583836124e8565b505050565b6000818152610139602052604090206008015460609062010000900460ff16610c795760405163ae1b0df160e01b815260048101839052602401610adf565b610134546040516391383c8960e01b815260048101849052620100009091046001600160a01b0316906391383c89906024015b600060405180830381865afa158015610cc9573d6000803e3d6000fd5b505050506040513d6000823e601f3d908101601f19168201604052610b3c9190810190615706565b6000610cfe33858461257f565b6000610d086125ea565b9050610d1d8482610d1888610ed5565b61261a565b610d288582856126ce565b90505b9392505050565b600084848484604051602001610d4b9493929190615773565b6040516020818303038152906040528051906020012090505b949350505050565b6000610d7a826101366128f4565b600081815261013660205260409020909150610d968382615832565b507f2efcce702e3d0b95b3deb632da6d41c3d169e0c3effb9066d949f14d6f13224f8183604051610dc89291906158f1565b60405180910390a1919050565b610ddf3382612460565b610dfc5760405163390cdd9b60e21b815260040160405180910390fd5b610c35838383612969565b600054610100900460ff1615808015610e275750600054600160ff909116105b80610e485750610e3630612a5d565b158015610e48575060005460ff166001145b610e645760405162461bcd60e51b8152600401610adf9061590a565b6000805460ff191660011790558015610e87576000805461ff0019166101001790555b6000606b558015610ed2576000805461ff0019169055604051600181527f7f26b83ff96e1f2b6a682f133852f6798a09c465da95921460cefb38474024989060200160405180910390a15b50565b6000610ee082612414565b610f00576040516338077a2b60e01b815260048101839052602401610adf565b600082815260696020526040902054606880549091908110610f2457610f246156d1565b9060005260206000209060060201600101549050919050565b6000828152609e6020526040902060010154610f5881612a6c565b610c358383612a76565b6000610f6d8361164c565b8210610f8f5760405163d338ed0760e01b815260048101839052602401610adf565b6001600160a01b0383166000908152606a60205260409020805483908110610b2e57610b2e6156d1565b610fc433848361257f565b610c358383836126ce565b6001600160a01b038116331461103f5760405162461bcd60e51b815260206004820152602f60248201527f416363657373436f6e74726f6c3a2063616e206f6e6c792072656e6f756e636560448201526e103937b632b9903337b91039b2b63360891b6064820152608401610adf565b6110498282612afc565b5050565b6001600160a01b037f00000000000000000000000000000000000000000000000000000000000000001630036110955760405162461bcd60e51b8152600401610adf90615958565b7f00000000000000000000000000000000000000000000000000000000000000006001600160a01b03166110c7612b63565b6001600160a01b0316146110ed5760405162461bcd60e51b8152600401610adf906159a4565b6110f681612b7f565b60408051600080825260208201909252610ed291839190612b97565b610c3583838360405180602001604052806000815250611ffe565b600061113882610ed5565b600081815261013960205260409020600c810154919250906001600160a01b031633146111785760405163390cdd9b60e21b815260040160405180910390fd5b806007015461118684611d51565b146111bb57806007015461119984611d51565b60405163cf47918160e01b815260048101929092526024820152604401610adf565b61122581600001548260060180548060200260200160405190810160405280929190818152602001828054801561121b57602002820191906000526020600020905b81546001600160a01b031681526001909101906020018083116111fd575b5050505050612d02565b61122e83612d79565b600801805462ff0000191690555050565b600080516020615eba83398151915261125781612a6c565b61013480546001919060009061127290849061ffff16615a06565b92506101000a81548161ffff021916908361ffff16021790555050565b6001600160a01b037f00000000000000000000000000000000000000000000000000000000000000001630036112d75760405162461bcd60e51b8152600401610adf90615958565b7f00000000000000000000000000000000000000000000000000000000000000006001600160a01b0316611309612b63565b6001600160a01b03161461132f5760405162461bcd60e51b8152600401610adf906159a4565b61133882612b7f565b61104982826001612b97565b600061134f606b5490565b82106113715760405163d338ed0760e01b815260048101839052602401610adf565b60688281548110611384576113846156d1565b9060005260206000209060060201600001549050919050565b60006113a882612ed3565b6113b457506000919050565b6000828152606e6020526040902054606d805490919081106113d8576113d86156d1565b600091825260209091206001600290920201015492915050565b6000306001600160a01b037f0000000000000000000000000000000000000000000000000000000000000000161461148d5760405162461bcd60e51b815260206004820152603860248201527f555550535570677261646561626c653a206d757374206e6f742062652063616c6044820152771b1959081d1a1c9bdd59da0819195b1959d85d1958d85b1b60421b6064820152608401610adf565b50600080516020615efa83398151915290565b60006114ab82612414565b6114cb576040516338077a2b60e01b815260048101839052602401610adf565b6000828152606960205260409020546068805490919081106114ef576114ef6156d1565b60009182526020909120600360069092020101546001600160a01b031690508061152f576040516338077a2b60e01b815260048101839052602401610adf565b919050565b61153d83612414565b61155d576040516338077a2b60e01b815260048101849052602401610adf565b6000816001819003611585576040516314b27b7f60e31b815260048101869052602401610adf565b60005b818110156115c8578484828181106115a2576115a26156d1565b90506020020135836115b49190615a21565b9250806115c081615a34565b915050611588565b506115d285611d51565b8211806115e657506115e385611d51565b82105b156116045760405163b4fa3fb360e01b815260040160405180910390fd5b60015b818110156116445761163186868684818110611625576116256156d1565b90506020020135612f1f565b508061163c81615a34565b915050611607565b505050505050565b60006001600160a01b03821661167557604051630c63e1ed60e11b815260040160405180910390fd5b506001600160a01b03166000908152606a602052604090205490565b611699614b91565b60008281526101396020908152604080832081516101c0810183528154815282518084019384905290949193850192909160018501916002918390855b82829054906101000a90046001600160401b03166001600160401b0316815260200190600801906020826007010492830192600103820291508084116116d657505050928452505060408051808201918290526020909301929150600284810191826000855b82829054906101000a90046001600160401b03166001600160401b03168152602001906008019060208260070104928301926001038202915080841161173c57905050505050508152602001600382018054806020026020016040519081016040528092919081815260200182805480156117d657602002820191906000526020600020905b8154815260200190600101908083116117c2575b505050505081526020016004820180548060200260200160405190810160405280929190818152602001828054801561182e57602002820191906000526020600020905b81548152602001906001019080831161181a575b505050505081526020016005820180548060200260200160405190810160405280929190818152602001828054801561188657602002820191906000526020600020905b815481526020019060010190808311611872575b50505050508152602001600682018054806020026020016040519081016040528092919081815260200182805480156118e857602002820191906000526020600020905b81546001600160a01b031681526001909101906020018083116118ca575b505050918352505060078201546020820152600882015461ffff8116604083015262010000900460ff161515606082015260098201805460809092019161192e906157b2565b80601f016020809104026020016040519081016040528092919081815260200182805461195a906157b2565b80156119a75780601f1061197c576101008083540402835291602001916119a7565b820191906000526020600020905b81548152906001019060200180831161198a57829003601f168201915b50505050508152602001600a820180546119c0906157b2565b80601f01602080910402602001604051908101604052809291908181526020018280546119ec906157b2565b8015611a395780601f10611a0e57610100808354040283529160200191611a39565b820191906000526020600020905b815481529060010190602001808311611a1c57829003601f168201915b50505050508152602001600b82018054611a52906157b2565b80601f0160208091040260200160405190810160405280929190818152602001828054611a7e906157b2565b8015611acb5780601f10611aa057610100808354040283529160200191611acb565b820191906000526020600020905b815481529060010190602001808311611aae57829003601f168201915b5050509183525050600c91909101546001600160a01b031660209091015292915050565b6000611afa846114a0565b9050806001600160a01b0316836001600160a01b031603611b335783838260405162ea9f2160e81b8152600401610adf939291906156e7565b611b3d3385612460565b611b5a5760405163390cdd9b60e21b815260040160405180910390fd5b611b6584848461308b565b50505050565b6101356020526000908152604090208054611b85906157b2565b80601f0160208091040260200160405190810160405280929190818152602001828054611bb1906157b2565b8015611bfe5780601f10611bd357610100808354040283529160200191611bfe565b820191906000526020600020905b815481529060010190602001808311611be157829003601f168201915b505050505081565b6000918252609e602090815260408084206001600160a01b0393909316845291905290205460ff1690565b600080516020615eba833981519152611c4981612a6c565b6001600160a01b038216611c7057604051630c63e1ed60e11b815260040160405180910390fd5b5061013480546001600160a01b03909216620100000262010000600160b01b0319909216919091179055565b6000611ca7606d5490565b8210611cc957604051637ed0f68f60e01b815260048101839052602401610adf565b606d8281548110611cdc57611cdc6156d1565b9060005260206000209060020201600001549050919050565b6000611d03826101356128f4565b600081815261013560205260409020909150611d1f8382615832565b507f8b841033bc947e807d9766c542105a3dbb0bae62591be7b5c8cd4f37f698bf738183604051610dc89291906158f1565b6000611d5c82612414565b611d7c576040516338077a2b60e01b815260048101839052602401610adf565b600082815260696020526040902054606880549091908110611da057611da06156d1565b9060005260206000209060060201600201549050919050565b61104933838361315a565b600080611dd184846131fb565b336101a08301529092509050611de785836132d8565b611df982600001518360c001516134bd565b6000611e04606d5490565b611e0f906001615a21565b60008181526101396020908152604090912085518155908501519192508491611e3e9060018301906002614c1c565b506040820151611e549060028084019190614c1c565b5060608201518051611e70916003840191602090910190614cc1565b5060808201518051611e8c916004840191602090910190614cc1565b5060a08201518051611ea8916005840191602090910190614cc1565b5060c08201518051611ec4916006840191602090910190614cfc565b5060e082015160078201556101008201516008820180546101208501511515620100000262ffffff1990911661ffff909316929092179190911790556101408201516009820190611f159082615832565b50610160820151600a820190611f2b9082615832565b50610180820151600b820190611f419082615832565b506101a09190910151600c90910180546001600160a01b0319166001600160a01b03909216919091179055815160005b81811015611fb957611fa68884868481518110611f9057611f906156d1565b60200260200101516001600160401b031661359c565b5080611fb181615a34565b915050611f71565b507f99ba308ef0906cce9332a23fc9ff0c458c3eb58aa3f023baa558fe9539d520f6828885604051611fed93929190615a4d565b60405180910390a150505050505050565b61200733610c08565b6120245760405163390cdd9b60e21b815260040160405180910390fd5b611b65848484846136ab565b600054610100900460ff16158080156120505750600054600160ff909116105b80612071575061205f30612a5d565b158015612071575060005460ff166001145b61208d5760405162461bcd60e51b8152600401610adf9061590a565b6000805460ff1916600117905580156120b0576000805461ff0019166101001790555b610134805462010000600160b01b031916620100006001600160a01b038516021790556120db61371e565b6120e361371e565b6120eb610e07565b6120f6600033612a76565b61210e600080516020615eba83398151915233612a76565b8015611049576000805461ff0019169055604051600181527f7f26b83ff96e1f2b6a682f133852f6798a09c465da95921460cefb38474024989060200160405180910390a15050565b610134546060906201000090046001600160a01b031663ed03f41a61217b84610ed5565b846040518363ffffffff1660e01b8152600401610cac929190918252602082015260400190565b6101376020526000908152604090208054611b85906157b2565b6000828152609e60205260409020600101546121d781612a6c565b610c358383612afc565b80516000826121f1600184615ab5565b81518110612201576122016156d1565b6020026020010151905060005b82811015611b6557600084828151811061222a5761222a6156d1565b6020026020010151905082811461224f57612245818461378b565b5061224f81612d79565b508061225a81615a34565b91505061220e565b60009182526067602090815260408084206001600160a01b0393909316845291905290205490565b606061013460029054906101000a90046001600160a01b03166001600160a01b0316639f4475da6040518163ffffffff1660e01b8152600401600060405180830381865afa1580156122e0573d6000803e3d6000fd5b505050506040513d6000823e601f3d908101601f191682016040526123089190810190615706565b905090565b6001600160a01b039182166000908152606a602090815260408083209390941682526002909201909152205460ff1690565b6101366020526000908152604090208054611b85906157b2565b6000612367826101376128f4565b6000818152610137602052604090209091506123838382615832565b507f4527d373276b1ece0c8dd18e140572f93feffd35a0993d9e4de70623b1ac93ce8183604051610dc89291906158f1565b6123be816114a0565b6001600160a01b031633036123e65760405163390cdd9b60e21b815260040160405180910390fd5b610ed281612d79565b60006001600160e01b03198216637965db0b60e01b1480610b3c5750610b3c82613964565b60685460009015801590610b3c5750600082815260696020526040902054606880548492908110612447576124476156d1565b9060005260206000209060060201600001541492915050565b600061246b82612414565b61248b576040516338077a2b60e01b815260048101839052602401610adf565b6000612496836114a0565b9050806001600160a01b0316846001600160a01b031614806124bd57506124bd818561230d565b80610d645750836001600160a01b03166124d684610b4d565b6001600160a01b031614949350505050565b60008181526069602052604090205460688054849290811061250c5761250c6156d1565b6000918252602090912060069091020160040180546001600160a01b0319166001600160a01b0392831617905581908316612546826114a0565b6001600160a01b03167f8c5be1e5ebec7d5bd14f71427d1e84f3dd0314c0f7b2291e5b200ac8c7c3b92560405160405180910390a45050565b600061258b8385612262565b90506125978484612460565b1580156125a657506000198114155b15611b6557818110156125d65760405163054365bb60e31b81526004810183905260248101829052604401610adf565b611b6583856125e58585615ab5565b61308b565b6000606b5460016125fb9190615a21565b90506001606b60008282546126109190615a21565b9250508190555090565b6040805160c081018252838152602080820184905260008284018190526001600160a01b038716606084015260808301819052835181815291820190935260a0820152905061266881613989565b6126728484613adb565b60405183906001600160a01b03861690600090600080516020615f41833981519152908290a4816000847fe4f48c240d3b994948aa54f3e2f5fca59263dfe1d52b6e4cf39a5d249b5ccb6560405160405180910390a450505050565b6126d783612414565b6126f7576040516338077a2b60e01b815260048101849052602401610adf565b61270082612414565b612720576040516338077a2b60e01b815260048101839052602401610adf565b600083815260696020526040812054606880549091908110612744576127446156d1565b906000526020600020906006020190506000606860696000868152602001908152602001600020548154811061277c5761277c6156d1565b9060005260206000209060060201905082826002015410156127c157600282015460405163cf47918160e01b8152610adf918591600401918252602082015260400190565b80600101548260010154146127fc5760018083015490820154604051630240901360e61b815260048101929092526024820152604401610adf565b600380830154908201546001840154612827926001600160a01b039081169216908890889088613b64565b8282600201600082825461283b9190615ab5565b92505081905550828160020160008282546128569190615a21565b909155505060405183815284908690600080516020615eda8339815191529060200160405180910390a36003808301549082015460018401546128ab926001600160a01b039081169216908890889088613b99565b6128c685858560405180602001604052806000815250613c0a565b6128ed576128d3846114a0565b604051639c645a0b60e01b8152600401610adf9190614e73565b5050505050565b600082516000036129185760405163a447fc5360e01b815260040160405180910390fd5b826040516020016129299190614e47565b60405160208183030381529060405280519060200120905061294b8282613d9b565b15610b3c5760405163331d850160e01b815260040160405180910390fd5b826001600160a01b031661297c826114a0565b6001600160a01b0316146129a35760405163390cdd9b60e21b815260040160405180910390fd5b6001600160a01b0382166129ca57604051630c63e1ed60e11b815260040160405180910390fd5b6129e8838383846129da86610ed5565b6129e387611d51565b613b64565b6129f36000826124e8565b6129fc81613dc2565b612a068382613e5e565b612a108282613adb565b80826001600160a01b0316846001600160a01b0316600080516020615f4183398151915260405160405180910390a4610c3583838384612a4f86610ed5565b612a5887611d51565b613b99565b6001600160a01b03163b151590565b610ed28133613f7f565b612a808282611c06565b611049576000828152609e602090815260408083206001600160a01b03851684529091529020805460ff19166001179055612ab83390565b6001600160a01b0316816001600160a01b0316837f2f8788117e7eff1d82e926ec794901d17c78024a50270940304540a733656f0d60405160405180910390a45050565b612b068282611c06565b15611049576000828152609e602090815260408083206001600160a01b0385168085529252808320805460ff1916905551339285917ff6391f5c32d9c69d2a47ea670b442974b53935d1edc7fd64eb21e047a839171b9190a45050565b600080516020615efa833981519152546001600160a01b031690565b600080516020615eba83398151915261104981612a6c565b7f4910fdfa16fed3260ed0e7147f7cc6da11a60208b5b9406d12a635614ffd91435460ff1615612bca57610c3583613fe3565b826001600160a01b03166352d1902d6040518163ffffffff1660e01b8152600401602060405180830381865afa925050508015612c24575060408051601f3d908101601f19168201909252612c2191810190615ac8565b60015b612c875760405162461bcd60e51b815260206004820152602e60248201527f45524331393637557067726164653a206e657720696d706c656d656e7461746960448201526d6f6e206973206e6f74205555505360901b6064820152608401610adf565b600080516020615efa8339815191528114612cf65760405162461bcd60e51b815260206004820152602960248201527f45524331393637557067726164653a20756e737570706f727465642070726f786044820152681a58589b195555525160ba1b6064820152608401610adf565b50610c3583838361407d565b805160005b81811015611b655760006101386000858481518110612d2857612d286156d1565b6020908102919091018101516001600160a01b0316825281810192909252604090810160009081208882529092529020805460ff191691151591909117905580612d7181615a34565b915050612d07565b612d8281612414565b612da2576040516338077a2b60e01b815260048101829052602401610adf565b600081815260696020526040812054606880549091908110612dc657612dc66156d1565b6000918252602090912060069091020160038101549091506001600160a01b0316612df13384612460565b612e0e5760405163390cdd9b60e21b815260040160405180910390fd5b60018201546002830154612e2783600087818686613b64565b612e3085613dc2565b612e3a8386613e5e565b612e43856140a2565b600085600080516020615eda83398151915283604051612e6591815260200190565b60405180910390a360405185906000906001600160a01b03861690600080516020615f41833981519152908390a4600082867fe4f48c240d3b994948aa54f3e2f5fca59263dfe1d52b6e4cf39a5d249b5ccb6560405160405180910390a46128ed8360008760008686613b99565b606d5460009015801590610b3c57506000828152606e6020526040902054606d80548492908110612f0657612f066156d1565b9060005260206000209060020201600001541492915050565b6000612f296125ea565b9050336000612f3785610ed5565b90506001600160a01b038216612f6057604051630c63e1ed60e11b815260040160405180910390fd5b82600003612f845760405163d338ed0760e01b815260048101849052602401610adf565b612f8d83612414565b15612fae576040516314b27b7f60e31b815260048101849052602401610adf565b612fbe6000836000868589613b64565b612fc982848361261a565b600083815260696020526040902054606880548692908110612fed57612fed6156d1565b906000526020600020906006020160020181905550836068606960008881526020019081526020016000205481548110613029576130296156d1565b906000526020600020906006020160020160008282546130499190615ab5565b909155505060405184815283908690600080516020615eda8339815191529060200160405180910390a36130836000836000868589613b99565b505092915050565b61309582846142b0565b6130fb576000838152606960205260409020546068805490919081106130bd576130bd6156d1565b60009182526020808320600692909202909101600501805460018101825590835291200180546001600160a01b0319166001600160a01b0384161790555b60008381526067602090815260408083206001600160a01b038616808552908352928190208490555183815285917f621b050de0ad08b51d19b48b3e6df75348c4de6bdd93e81b252ca62e28265b1b91015b60405180910390a3505050565b816001600160a01b0316836001600160a01b031603613192576000838360405162ea9f2160e81b8152600401610adf939291906156e7565b6001600160a01b038381166000818152606a602090815260408083209487168084526002909501825291829020805460ff191686151590811790915591519182527f17307eab39ab6107e8899845ad3d59bd9653f200f220920489ca2b5937696c31910161314d565b613203614b91565b606060008390036132275760405163a447fc5360e01b815260040160405180910390fd5b600080808080808080808061323e8d8f018f615ba5565b995099509950995099509950995099509950995061325e878a888b610d32565b8c5260c08c0185905260208c0187905260408c0186905260608c0189905260808c0188905260a08c018a905261329381614383565b6001600160401b031660e08d015260006101008d015260016101208d01526101408c01939093526101608b01919091526101808a015296505050505050509250929050565b6001600160a01b0382166132ff57604051630c63e1ed60e11b815260040160405180910390fd5b6020818101519081015190516001600160401b039182169116111561335a57602081015180519060015b6020020151604051630b58ad1560e21b81526001600160401b03928316600482015291166024820152604401610adf565b6040810151602081015190516001600160401b03918216911611801561338d57506040810151516001600160401b031615155b156133a15760408101518051906001613329565b6040810151516020820151516001600160401b03918216911611156133d25760208101515160408201516000613329565b60808101515160005b81811015613453576101366000846080015183815181106133fe576133fe6156d1565b60200260200101518152602001908152602001600020805461341f906157b2565b90506000036134415760405163725a844f60e01b815260040160405180910390fd5b8061344b81615a34565b9150506133db565b5060608201515160005b818110156128ed5761348e61013585606001518381518110613481576134816156d1565b6020026020010151613d9b565b6134ab5760405163725a844f60e01b815260040160405180910390fd5b806134b581615a34565b91505061345d565b60005b8151811015610c355761013860008383815181106134e0576134e06156d1565b6020908102919091018101516001600160a01b03168252818101929092526040908101600090812086825290925290205460ff16156135325760405163755402db60e11b815260040160405180910390fd5b6001610138600084848151811061354b5761354b6156d1565b6020908102919091018101516001600160a01b0316825281810192909252604090810160009081208782529092529020805460ff19169115159190911790558061359481615a34565b9150506134c0565b60006135a66125ea565b90506001600160a01b0384166135cf57604051630c63e1ed60e11b815260040160405180910390fd5b806000036135f35760405163d338ed0760e01b815260048101829052602401610adf565b6135fc81612414565b1561361d576040516314b27b7f60e31b815260048101829052602401610adf565b61362d6000856000848787613b64565b61363884828561261a565b60008181526069602052604090205460688054849290811061365c5761365c6156d1565b906000526020600020906006020160020181905550806000600080516020615eda8339815191528460405161369391815260200190565b60405180910390a3610d2b6000856000848787613b99565b6136b6848484612969565b6136c2848484846143e3565b611b655760405162461bcd60e51b815260206004820152602760248201527f455243333532353a207472616e7366657220746f206e6f6e204552433732315260448201526632b1b2b4bb32b960c91b6064820152608401610adf565b600054610100900460ff166137895760405162461bcd60e51b815260206004820152602b60248201527f496e697469616c697a61626c653a20636f6e7472616374206973206e6f74206960448201526a6e697469616c697a696e6760a81b6064820152608401610adf565b565b600080613797836114a0565b90503360006137a586610ed5565b905060006137b286610ed5565b905060006137bf88611d51565b90506001600160a01b0385166137e857604051630c63e1ed60e11b815260040160405180910390fd5b8715806137f3575086155b1561382757600088156138065787613808565b885b90508060405163d338ed0760e01b8152600401610adf91815260200190565b61383087612414565b1580613842575061384088612414565b155b1561385c57600061385288612414565b6138065787613808565b81831461388657604051630240901360e61b81526004810184905260248101839052604401610adf565b61389484868a8a8686613b64565b6000878152606960205260409020546068805483929081106138b8576138b86156d1565b906000526020600020906006020160020160008282546138d89190615a21565b9091555050600088815260696020526040902054606880548392908110613901576139016156d1565b906000526020600020906006020160020160008282546139219190615ab5565b909155505060405181815287908990600080516020615eda8339815191529060200160405180910390a361395984868a8a8686613b99565b505050505092915050565b60006001600160e01b03198216631dba0dcf60e11b1480610b3c5750610b3c8261455e565b606880548251600090815260696020908152604080832084905560018401855593909152835160069092027fa2153420d844928b4421650203c77babc8b33d7f2e7b450e2966db0c220977538101928355818501517fa2153420d844928b4421650203c77babc8b33d7f2e7b450e2966db0c22097754820155928401517fa2153420d844928b4421650203c77babc8b33d7f2e7b450e2966db0c2209775584015560608401517fa2153420d844928b4421650203c77babc8b33d7f2e7b450e2966db0c22097756840180546001600160a01b039283166001600160a01b03199182161790915560808601517fa2153420d844928b4421650203c77babc8b33d7f2e7b450e2966db0c220977578601805491909316911617905560a084015180518594611b65937fa2153420d844928b4421650203c77babc8b33d7f2e7b450e2966db0c22097758909101920190614cfc565b600081815260696020526040902054606880548492908110613aff57613aff6156d1565b6000918252602080832060069290920290910160030180546001600160a01b0319166001600160a01b03948516179055939091168152606a80845260408083208054858552600182810188529285208190559286529082018155825292902090910155565b6001600160a01b038616158015613b79575083155b8015613b8b5750613b8982612ed3565b155b1561164457611644826145e4565b6001600160a01b038616158015613bae575083155b8015613bc15750613bbf8284614635565b155b15613bd557613bd082846146c1565b611644565b6001600160a01b038516158015613bea575082155b8015613bfb5750613bfb8285614635565b15613bd057613bd08285614722565b600080613c16856114a0565b9050613c2a816001600160a01b0316612a5d565b8015613ca457506040516301ffc9a760e01b81526001600160a01b038216906301ffc9a790613c6390629ce20b60e01b90600401615d0b565b602060405180830381865afa158015613c80573d6000803e3d6000fd5b505050506040513d601f19601f82011682018060405250810190613ca49190615d20565b15613d9157604051629ce20b60e01b81526001600160a01b03821690629ce20b90613cdb9033908a908a908a908a90600401615d3d565b6020604051808303816000875af1925050508015613d16575060408051601f3d908101601f19168201909252613d1391810190615d70565b60015b613d76573d808015613d44576040519150601f19603f3d011682016040523d82523d6000602084013e613d49565b606091505b508051600003613d6e5781604051639c645a0b60e01b8152600401610adf9190614e73565b805181602001fd5b6001600160e01b031916629ce20b60e01b149150610d649050565b6001915050610d64565b60008181526020839052604081208054829190613db7906157b2565b905011905092915050565b600081815260696020526040812054606880549091908110613de657613de66156d1565b600091825260208220600560069092020190810154909250905b81811015611b65576000836005018281548110613e1f57613e1f6156d1565b60009182526020808320909101548783526067825260408084206001600160a01b03909216845291528120555080613e5681615a34565b915050613e00565b600081815260696020526040812054606880549091908110613e8257613e826156d1565b6000918252602080832060069290920290910160030180546001600160a01b0319166001600160a01b039485161790559184168152606a909152604081208054909190613ed190600190615ab5565b90506000826000018281548110613eea57613eea6156d1565b90600052602060002001549050600083600101600086815260200190815260200160002054905081846000018281548110613f2757613f276156d1565b60009182526020808320909101929092558381526001860190915260408082208390558682528120558354849080613f6157613f61615d8d565b60019003818190600052602060002001600090559055505050505050565b613f898282611c06565b61104957613fa1816001600160a01b03166014614806565b613fac836020614806565b604051602001613fbd929190615da3565b60408051601f198184030181529082905262461bcd60e51b8252610adf91600401614e47565b613fec81612a5d565b61404e5760405162461bcd60e51b815260206004820152602d60248201527f455243313936373a206e657720696d706c656d656e746174696f6e206973206e60448201526c1bdd08184818dbdb9d1c9858dd609a1b6064820152608401610adf565b600080516020615efa83398151915280546001600160a01b0319166001600160a01b0392909216919091179055565b614086836149a1565b6000825111806140935750805b15610c3557611b6583836149e1565b6068546000906140b490600190615ab5565b600083815260696020526040812054606880549394509092849081106140dc576140dc6156d1565b60009182526020918290206040805160c08101825260069093029091018054835260018101548385015260028101548383015260038101546001600160a01b03908116606085015260048201541660808401526005810180548351818702810187019094528084529394919360a08601939283018282801561418757602002820191906000526020600020905b81546001600160a01b03168152600190910190602001808311614169575b505050505081525050905080606883815481106141a6576141a66156d1565b600091825260209182902083516006909202019081558282015160018201556040830151600282015560608301516003820180546001600160a01b039283166001600160a01b031991821617909155608085015160048401805491909316911617905560a08301518051919261422492600585019290910190614cfc565b5050815160009081526069602052604080822085905586825281205550606880548061425257614252615d8d565b60008281526020812060066000199093019283020181815560018101829055600281018290556003810180546001600160a01b03199081169091556004820180549091169055906142a66005830182614d51565b5050905550505050565b6000818152606960205260408120546068805483929081106142d4576142d46156d1565b6000918252602082206005600690920201015491505b8181101561437857600084815260696020526040902054606880546001600160a01b0388169290811061431f5761431f6156d1565b90600052602060002090600602016005018281548110614341576143416156d1565b6000918252602090912001546001600160a01b03160361436657600192505050610b3c565b8061437081615a34565b9150506142ea565b506000949350505050565b6000815160000361439657506000919050565b6000805b83518110156143dc578381815181106143b5576143b56156d1565b6020026020010151826143c89190615e12565b9150806143d481615a34565b91505061439a565b5092915050565b60006143f7846001600160a01b0316612a5d565b801561447257506040516301ffc9a760e01b81526001600160a01b038516906301ffc9a79061443190630a85bd0160e11b90600401615d0b565b602060405180830381865afa15801561444e573d6000803e3d6000fd5b505050506040513d601f19601f820116820180604052508101906144729190615d20565b1561455657604051630a85bd0160e11b81526001600160a01b0385169063150b7a02906144a9903390899088908890600401615e32565b6020604051808303816000875af19250505080156144e4575060408051601f3d908101601f191682019092526144e191810190615d70565b60015b61453c573d808015614512576040519150601f19603f3d011682016040523d82523d6000602084013e614517565b606091505b508051600003613d6e57846040516361ef2ab560e11b8152600401610adf9190614e73565b6001600160e01b031916630a85bd0160e11b149050610d64565b506001610d64565b60006001600160e01b03198216630354d60560e61b148061458f57506001600160e01b031982166380ac58cd60e01b145b806145aa57506001600160e01b031982166370b0048160e11b145b806145c557506001600160e01b0319821663780e9d6360e01b145b80610b3c57506301ffc9a760e01b6001600160e01b0319831614610b3c565b6145ed81612ed3565b1561460b57604051630139222f60e31b815260040160405180910390fd5b60408051808201825282815281516000808252602082810190945292820152905061104981614ad3565b6000828152606e6020526040812054606d80548392908110614659576146596156d1565b9060005260206000209060020201905060008160010180549050118015610d6457506000848152606c6020908152604080832086845290915290205460018201805485929081106146ac576146ac6156d1565b90600052602060002001541491505092915050565b6000828152606e6020526040812054606d805490919081106146e5576146e56156d1565b60009182526020808320600160029093020182018054968452606c8252604080852087865283528420879055918601825590825290209092015550565b6000828152606e6020526040812054606d80549091908110614746576147466156d1565b6000918252602082206001600290920201818101549093506147689190615ab5565b90506000826001018281548110614781576147816156d1565b6000918252602080832090910154878352606c825260408084208885529092529120546001850180549293509091839190839081106147c2576147c26156d1565b600091825260208083209190910192909255878152606c825260408082208583529092528181208390558681529081205560018401805480613f6157613f61615d8d565b60606000614815836002615e6f565b614820906002615a21565b6001600160401b0381111561483757614837614efd565b6040519080825280601f01601f191660200182016040528015614861576020820181803683370190505b509050600360fc1b8160008151811061487c5761487c6156d1565b60200101906001600160f81b031916908160001a905350600f60fb1b816001815181106148ab576148ab6156d1565b60200101906001600160f81b031916908160001a90535060006148cf846002615e6f565b6148da906001615a21565b90505b6001811115614952576f181899199a1a9b1b9c1cb0b131b232b360811b85600f166010811061490e5761490e6156d1565b1a60f81b828281518110614924576149246156d1565b60200101906001600160f81b031916908160001a90535060049490941c9361494b81615e86565b90506148dd565b508315610d2b5760405162461bcd60e51b815260206004820181905260248201527f537472696e67733a20686578206c656e67746820696e73756666696369656e746044820152606401610adf565b6149aa81613fe3565b6040516001600160a01b038216907fbc7cd75a20ee27fd9adebab32041f755214dbc6bffa90cc0225b39da2e5c2d3b90600090a250565b60606149ec83612a5d565b614a475760405162461bcd60e51b815260206004820152602660248201527f416464726573733a2064656c65676174652063616c6c20746f206e6f6e2d636f6044820152651b9d1c9858dd60d21b6064820152608401610adf565b600080846001600160a01b031684604051614a629190615e9d565b600060405180830381855af49150503d8060008114614a9d576040519150601f19603f3d011682016040523d82523d6000602084013e614aa2565b606091505b5091509150614aca8282604051806060016040528060278152602001615f1a60279139614b58565b95945050505050565b606d805482516000908152606e602090815260408220839055600183018455929052825160029091027f5006b838207c6a9ae9b84d68f467dd4bb5c305fbfb6b04eab8faaabeec1e18d881019182558284015180518594611b65937f5006b838207c6a9ae9b84d68f467dd4bb5c305fbfb6b04eab8faaabeec1e18d901920190614cc1565b60608315614b67575081610d2b565b825115614b775782518084602001fd5b8160405162461bcd60e51b8152600401610adf9190614e47565b604080516101c081019091526000815260208101614bad614d6f565b8152602001614bba614d6f565b81526020016060815260200160608152602001606081526020016060815260200160008152602001600061ffff16815260200160001515815260200160608152602001606081526020016060815260200160006001600160a01b031681525090565b600183019183908215614cb15791602002820160005b83821115614c7c57835183826101000a8154816001600160401b0302191690836001600160401b031602179055509260200192600801602081600701049283019260010302614c32565b8015614caf5782816101000a8154906001600160401b030219169055600801602081600701049283019260010302614c7c565b505b50614cbd929150614d8d565b5090565b828054828255906000526020600020908101928215614cb1579160200282015b82811115614cb1578251825591602001919060010190614ce1565b828054828255906000526020600020908101928215614cb1579160200282015b82811115614cb157825182546001600160a01b0319166001600160a01b03909116178255602090920191600190910190614d1c565b5080546000825590600052602060002090810190610ed29190614d8d565b60405180604001604052806002906020820280368337509192915050565b5b80821115614cbd5760008155600101614d8e565b60008060408385031215614db557600080fd5b50508035926020909101359150565b6001600160e01b031981168114610ed257600080fd5b600060208284031215614dec57600080fd5b8135610d2b81614dc4565b60005b83811015614e12578181015183820152602001614dfa565b50506000910152565b60008151808452614e33816020860160208601614df7565b601f01601f19169290920160200192915050565b602081526000610d2b6020830184614e1b565b600060208284031215614e6c57600080fd5b5035919050565b6001600160a01b0391909116815260200190565b80356001600160a01b038116811461152f57600080fd5b60008060408385031215614eb157600080fd5b614eba83614e87565b946020939093013593505050565b600080600060608486031215614edd57600080fd5b83359250614eed60208501614e87565b9150604084013590509250925092565b634e487b7160e01b600052604160045260246000fd5b604051601f8201601f191681016001600160401b0381118282101715614f3b57614f3b614efd565b604052919050565b80356001600160401b038116811461152f57600080fd5b600082601f830112614f6b57600080fd5b604051604081018181106001600160401b0382111715614f8d57614f8d614efd565b8060405250806040840185811115614fa457600080fd5b845b81811015614fc557614fb781614f43565b835260209283019201614fa6565b509195945050505050565b60006001600160401b03821115614fe957614fe9614efd565b5060051b60200190565b600082601f83011261500457600080fd5b8135602061501961501483614fd0565b614f13565b82815260059290921b8401810191818101908684111561503857600080fd5b8286015b84811015615053578035835291830191830161503c565b509695505050505050565b60008060008060c0858703121561507457600080fd5b61507e8686614f5a565b935060408501356001600160401b038082111561509a57600080fd5b6150a688838901614ff3565b94506150b58860608901614f5a565b935060a08701359150808211156150cb57600080fd5b506150d887828801614ff3565b91505092959194509250565b60006001600160401b038211156150fd576150fd614efd565b50601f01601f191660200190565b600082601f83011261511c57600080fd5b813561512a615014826150e4565b81815284602083860101111561513f57600080fd5b816020850160208301376000918101602001919091529392505050565b60006020828403121561516e57600080fd5b81356001600160401b0381111561518457600080fd5b610d648482850161510b565b6000806000606084860312156151a557600080fd5b6151ae84614e87565b9250614eed60208501614e87565b600080604083850312156151cf57600080fd5b823591506151df60208401614e87565b90509250929050565b6000806000606084860312156151fd57600080fd5b505081359360208301359350604090920135919050565b60006020828403121561522657600080fd5b610d2b82614e87565b6000806040838503121561524257600080fd5b61524b83614e87565b915060208301356001600160401b0381111561526657600080fd5b6152728582860161510b565b9150509250929050565b60008060006040848603121561529157600080fd5b8335925060208401356001600160401b03808211156152af57600080fd5b818601915086601f8301126152c357600080fd5b8135818111156152d257600080fd5b8760208260051b85010111156152e757600080fd5b6020830194508093505050509250925092565b8060005b6002811015611b655781516001600160401b03168452602093840193909101906001016152fe565b600081518084526020808501945080840160005b838110156153565781518752958201959082019060010161533a565b509495945050505050565b600081518084526020808501945080840160005b838110156153565781516001600160a01b031687529582019590820190600101615375565b6020815281516020820152600060208301516153b960408401826152fa565b5060408301516153cc60808401826152fa565b5060608301516102008060c08501526153e9610220850183615326565b91506080850151601f19808685030160e08701526154078483615326565b935060a087015191506101008187860301818801526154268584615326565b945060c088015192506101208288870301818901526154458685615361565b955060e0890151935061014084818a0152828a015194506101609250615470838a018661ffff169052565b908901519350610180906154878983018615159052565b808a01519450506101a08389880301818a01526154a48786614e1b565b9650828a0151945083898803016101c08a01526154c18786614e1b565b9650818a0151945083898803016101e08a01526154de8786614e1b565b9650808a01519450505050506154fe828601826001600160a01b03169052565b5090949350505050565b8015158114610ed257600080fd5b6000806040838503121561552957600080fd5b61553283614e87565b9150602083013561554281615508565b809150509250929050565b60008060006040848603121561556257600080fd5b61556b84614e87565b925060208401356001600160401b038082111561558757600080fd5b818601915086601f83011261559b57600080fd5b8135818111156155aa57600080fd5b8760208285010111156152e757600080fd5b600080600080608085870312156155d257600080fd5b6155db85614e87565b93506155e960208601614e87565b92506040850135915060608501356001600160401b0381111561560b57600080fd5b6150d88782880161510b565b6000602080838503121561562a57600080fd5b82356001600160401b0381111561564057600080fd5b8301601f8101851361565157600080fd5b803561565f61501482614fd0565b81815260059190911b8201830190838101908783111561567e57600080fd5b928401925b8284101561569c57833582529284019290840190615683565b979650505050505050565b600080604083850312156156ba57600080fd5b6156c383614e87565b91506151df60208401614e87565b634e487b7160e01b600052603260045260246000fd5b9283526001600160a01b03918216602084015216604082015260600190565b60006020828403121561571857600080fd5b81516001600160401b0381111561572e57600080fd5b8201601f8101841361573f57600080fd5b805161574d615014826150e4565b81815285602083850101111561576257600080fd5b614aca826020830160208601614df7565b61577d81866152fa565b60c06040820152600061579360c0830186615326565b6157a060608401866152fa565b82810360a084015261569c8185615326565b600181811c908216806157c657607f821691505b6020821081036157e657634e487b7160e01b600052602260045260246000fd5b50919050565b601f821115610c3557600081815260208120601f850160051c810160208610156158135750805b601f850160051c820191505b818110156116445782815560010161581f565b81516001600160401b0381111561584b5761584b614efd565b61585f8161585984546157b2565b846157ec565b602080601f831160018114615894576000841561587c5750858301515b600019600386901b1c1916600185901b178555611644565b600085815260208120601f198616915b828110156158c3578886015182559484019460019091019084016158a4565b50858210156158e15787850151600019600388901b60f8161c191681555b5050505050600190811b01905550565b828152604060208201526000610d646040830184614e1b565b6020808252602e908201527f496e697469616c697a61626c653a20636f6e747261637420697320616c72656160408201526d191e481a5b9a5d1a585b1a5e995960921b606082015260800190565b6020808252602c908201527f46756e6374696f6e206d7573742062652063616c6c6564207468726f7567682060408201526b19195b1959d85d1958d85b1b60a21b606082015260800190565b6020808252602c908201527f46756e6374696f6e206d7573742062652063616c6c6564207468726f7567682060408201526b6163746976652070726f787960a01b606082015260800190565b634e487b7160e01b600052601160045260246000fd5b61ffff8181168382160190808211156143dc576143dc6159f0565b80820180821115610b3c57610b3c6159f0565b600060018201615a4657615a466159f0565b5060010190565b8381526001600160a01b0383166020808301919091526060604083018190528351908301819052600091848101916080850190845b81811015615aa75784516001600160401b031683529383019391830191600101615a82565b509098975050505050505050565b81810381811115610b3c57610b3c6159f0565b600060208284031215615ada57600080fd5b5051919050565b600082601f830112615af257600080fd5b81356020615b0261501483614fd0565b82815260059290921b84018101918181019086841115615b2157600080fd5b8286015b8481101561505357615b3681614e87565b8352918301918301615b25565b600082601f830112615b5457600080fd5b81356020615b6461501483614fd0565b82815260059290921b84018101918181019086841115615b8357600080fd5b8286015b8481101561505357615b9881614f43565b8352918301918301615b87565b6000806000806000806000806000806101808b8d031215615bc557600080fd5b8a356001600160401b0380821115615bdc57600080fd5b615be88e838f01614ff3565b9b5060208d0135915080821115615bfe57600080fd5b615c0a8e838f01614ff3565b9a5060408d0135915080821115615c2057600080fd5b615c2c8e838f01614ff3565b9950615c3b8e60608f01614f5a565b9850615c4a8e60a08f01614f5a565b975060e08d0135915080821115615c6057600080fd5b615c6c8e838f01615ae1565b96506101008d0135915080821115615c8357600080fd5b615c8f8e838f0161510b565b95506101208d0135915080821115615ca657600080fd5b615cb28e838f0161510b565b94506101408d0135915080821115615cc957600080fd5b615cd58e838f0161510b565b93506101608d0135915080821115615cec57600080fd5b50615cf98d828e01615b43565b9150509295989b9194979a5092959850565b6001600160e01b031991909116815260200190565b600060208284031215615d3257600080fd5b8151610d2b81615508565b60018060a01b038616815284602082015283604082015282606082015260a06080820152600061569c60a0830184614e1b565b600060208284031215615d8257600080fd5b8151610d2b81614dc4565b634e487b7160e01b600052603160045260246000fd5b76020b1b1b2b9b9a1b7b73a3937b61d1030b1b1b7bab73a1604d1b815260008351615dd5816017850160208801614df7565b7001034b99036b4b9b9b4b733903937b6329607d1b6017918401918201528351615e06816028840160208801614df7565b01602801949350505050565b6001600160401b038181168382160190808211156143dc576143dc6159f0565b6001600160a01b0385811682528416602082015260408101839052608060608201819052600090615e6590830184614e1b565b9695505050505050565b8082028115828204841417610b3c57610b3c6159f0565b600081615e9557615e956159f0565b506000190190565b60008251615eaf818460208701614df7565b919091019291505056fe189ab7a9244df0848122154315af71fe140f3db0fe014031783b0946b8c9d2e30b2aac84f3ec956911fd78eae5311062972ff949f38412e8da39069d9f068cc6360894a13ba1a3210667c828492db98dca3e2076cc3735a920a3ca505d382bbc416464726573733a206c6f772d6c6576656c2064656c65676174652063616c6c206661696c6564ddf252ad1be2c89b69c2b068fc378daa952ba7f163c4a11628f55a4df523b3efa164736f6c6343000811000a",
  "devdoc": {
    "author": "bitbeckers, mr_bluesky",
    "events": {
      "ImpactClaimed(uint256,address,uint64[])": {
        "params": {
          "fractions": "Units of tokens issued under the hypercert.",
          "id": "Id of the claimed impact.",
          "minter": "Address of cert minter."
        }
      },
      "ImpactScopeAdded(bytes32,string)": {
        "params": {
          "id": "Id of the impact scope.",
          "text": "Short text code of the impact scope."
        }
      },
      "RightAdded(bytes32,string)": {
        "params": {
          "id": "Id of the right.",
          "text": "Short text code of the right."
        }
      },
      "WorkScopeAdded(bytes32,string)": {
        "params": {
          "id": "Id of the work scope.",
          "text": "Short text code of the work scope."
        }
      }
    },
    "kind": "dev",
    "methods": {
      "addImpactScope(string)": {
        "params": {
          "text": "Text representing the impact scope"
        },
        "returns": {
          "id": "Id of the impact scope"
        }
      },
      "addRight(string)": {
        "params": {
          "text": "Text representing the right"
        },
        "returns": {
          "id": "Id of the right"
        }
      },
      "addWorkScope(string)": {
        "params": {
          "text": "Text representing the work scope"
        },
        "returns": {
          "id": "Id of the work scope"
        }
      },
      "constructor": {
        "custom:oz-upgrades-unsafe-allow": "constructor"
      },
      "contractURI()": {
        "details": "This function SHOULD return the URI for this contract in JSON format, starting with  header `data:application/json;`.  See https://eips.ethereum.org/EIPS/eip-3525 for the JSON schema for contract URI.",
        "returns": {
          "_0": "The JSON formatted URI of the current ERC3525 contract"
        }
      },
      "getImpactCert(uint256)": {
        "params": {
          "claimID": "Id of the claim"
        },
        "returns": {
          "_0": "The claim, if it doesn't exist with default values"
        }
      },
      "getRoleAdmin(bytes32)": {
        "details": "Returns the admin role that controls `role`. See {grantRole} and {revokeRole}. To change a role's admin, use {_setRoleAdmin}."
      },
      "grantRole(bytes32,address)": {
        "details": "Grants `role` to `account`. If `account` had not been already granted `role`, emits a {RoleGranted} event. Requirements: - the caller must have ``role``'s admin role. May emit a {RoleGranted} event."
      },
      "hasRole(bytes32,address)": {
        "details": "Returns `true` if `account` has been granted `role`."
      },
      "mint(address,bytes)": {
        "params": {
          "account": "Account issuing the new hypercertificate",
          "data": "Data representing the parameters of the claim"
        }
      },
      "name()": {
        "details": "Returns the token collection name."
      },
      "proxiableUUID()": {
        "details": "Implementation of the ERC1822 {proxiableUUID} function. This returns the storage slot used by the implementation. It is used to validate that the this implementation remains valid after an upgrade. IMPORTANT: A proxy pointing at a proxiable contract should not be considered proxiable itself, because this risks bricking a proxy that upgrades to it, by delegating to itself until out of gas. Thus it is critical that this function revert if invoked through a proxy. This is guaranteed by the `notDelegated` modifier."
      },
      "renounceRole(bytes32,address)": {
        "details": "Revokes `role` from the calling account. Roles are often managed via {grantRole} and {revokeRole}: this function's purpose is to provide a mechanism for accounts to lose their privileges if they are compromised (such as when a trusted device is misplaced). If the calling account had been revoked `role`, emits a {RoleRevoked} event. Requirements: - the caller must be `account`. May emit a {RoleRevoked} event."
      },
      "revokeRole(bytes32,address)": {
        "details": "Revokes `role` from `account`. If `account` had been granted `role`, emits a {RoleRevoked} event. Requirements: - the caller must have ``role``'s admin role. May emit a {RoleRevoked} event."
      },
      "slotByIndex(uint256)": {
        "params": {
          "index_": "The index in the slot list"
        },
        "returns": {
          "_0": "The slot at `index` of all slots."
        }
      },
      "slotCount()": {
        "returns": {
          "_0": "The total amount of slots"
        }
      },
      "supportsInterface(bytes4)": {
        "params": {
          "interfaceId": "Id of the interface"
        },
        "returns": {
          "_0": "true, if the interface is supported"
        }
      },
      "symbol()": {
        "details": "Returns the token collection symbol."
      },
      "tokenInSlotByIndex(uint256,uint256)": {
        "params": {
          "index_": "The index in the token list of the slot",
          "slot_": "The slot to query tokens with"
        },
        "returns": {
          "_0": "The token ID at `_index` of all tokens with `_slot`"
        }
      },
      "tokenSupplyInSlot(uint256)": {
        "params": {
          "slot_": "The slot to query token supply for"
        },
        "returns": {
          "_0": "The total amount of tokens with the specified `_slot`"
        }
      },
      "totalSupply()": {
        "details": "Returns the total amount of tokens stored by the contract."
      },
      "upgradeTo(address)": {
        "details": "Upgrade the implementation of the proxy to `newImplementation`. Calls {_authorizeUpgrade}. Emits an {Upgraded} event."
      },
      "upgradeToAndCall(address,bytes)": {
        "details": "Upgrade the implementation of the proxy to `newImplementation`, and subsequently execute the function call encoded in `data`. Calls {_authorizeUpgrade}. Emits an {Upgraded} event."
      },
      "valueDecimals()": {
        "returns": {
          "_0": "The number of decimals for value"
        }
      }
    },
    "title": "Hypercertificate minting logic",
    "version": 1
  },
  "userdoc": {
    "events": {
      "ImpactClaimed(uint256,address,uint64[])": {
        "notice": "Emitted when an impact is claimed."
      },
      "ImpactScopeAdded(bytes32,string)": {
        "notice": "Emitted when a new impact scope is added."
      },
      "RightAdded(bytes32,string)": {
        "notice": "Emitted when a new right is added."
      },
      "WorkScopeAdded(bytes32,string)": {
        "notice": "Emitted when a new work scope is added."
      }
    },
    "kind": "user",
    "methods": {
      "DECIMALS()": {
        "notice": "Token value decimals"
      },
      "NAME()": {
        "notice": "Contract name"
      },
      "SYMBOL()": {
        "notice": "Token symbol"
      },
      "UPGRADER_ROLE()": {
        "notice": "User role required in order to upgrade the contract"
      },
      "__ERC3525Upgradeable_init()": {
        "notice": "Contract initialization logic"
      },
      "addImpactScope(string)": {
        "notice": "Adds a new impact scope"
      },
      "addRight(string)": {
        "notice": "Adds a new right"
      },
      "addWorkScope(string)": {
        "notice": "Adds a new work scope"
      },
      "constructor": {
        "notice": "Contract constructor logic"
      },
      "contractURI()": {
        "notice": "Returns the Uniform Resource Identifier (URI) for the current ERC3525 contract."
      },
      "getImpactCert(uint256)": {
        "notice": "Gets the impact claim with the specified id"
      },
      "impactScopes(bytes32)": {
        "notice": "Mapping of id's to impact-scopes"
      },
      "initialize(address)": {
        "notice": "Contract initialization logic"
      },
      "mint(address,bytes)": {
        "notice": "Issues a new hypercertificate"
      },
      "rights(bytes32)": {
        "notice": "Mapping of id's to rights"
      },
      "slotByIndex(uint256)": {
        "notice": "Get the slot at the specified index of all slots stored by the contract."
      },
      "slotCount()": {
        "notice": "Get the total amount of slots stored by the contract."
      },
      "supportsInterface(bytes4)": {
        "notice": "Returns a flag indicating if the contract supports the specified interface"
      },
      "tokenInSlotByIndex(uint256,uint256)": {
        "notice": "Get the token at the specified index of all tokens with the same slot."
      },
      "tokenSupplyInSlot(uint256)": {
        "notice": "Get the total amount of tokens with the same slot."
      },
      "updateVersion()": {
        "notice": "Update the contract version numberOnly allowed for member of UPGRADER_ROLE"
      },
      "valueDecimals()": {
        "notice": "Get the number of decimals the token uses for value - e.g. 6, means the user  representation of the value of a token can be calculated by dividing it by 1,000,000.  Considering the compatibility with third-party wallets, this function is defined as  `valueDecimals()` instead of `decimals()` to avoid conflict with EIP-20 tokens."
      },
      "version()": {
        "notice": "gets the current version of the contract"
      },
      "workScopes(bytes32)": {
        "notice": "Mapping of id's to work-scopes"
      }
    },
    "notice": "Contains functions and events to initialize and issue a hypercertificate",
    "version": 1
  },
  "storageLayout": {
    "storage": [
      {
        "astId": 814,
        "contract": "contracts/HyperCertMinter.sol:HyperCertMinter",
        "label": "_initialized",
        "offset": 0,
        "slot": "0",
        "type": "t_uint8"
      },
      {
        "astId": 817,
        "contract": "contracts/HyperCertMinter.sol:HyperCertMinter",
        "label": "_initializing",
        "offset": 1,
        "slot": "0",
        "type": "t_bool"
      },
      {
        "astId": 1617,
        "contract": "contracts/HyperCertMinter.sol:HyperCertMinter",
        "label": "__gap",
        "offset": 0,
        "slot": "1",
        "type": "t_array(t_uint256)50_storage"
      },
      {
        "astId": 1947,
        "contract": "contracts/HyperCertMinter.sol:HyperCertMinter",
        "label": "__gap",
        "offset": 0,
        "slot": "51",
        "type": "t_array(t_uint256)50_storage"
      },
      {
        "astId": 2596,
        "contract": "contracts/HyperCertMinter.sol:HyperCertMinter",
        "label": "_name",
        "offset": 0,
        "slot": "101",
        "type": "t_string_storage"
      },
      {
        "astId": 2598,
        "contract": "contracts/HyperCertMinter.sol:HyperCertMinter",
        "label": "_symbol",
        "offset": 0,
        "slot": "102",
        "type": "t_string_storage"
      },
      {
        "astId": 2605,
        "contract": "contracts/HyperCertMinter.sol:HyperCertMinter",
        "label": "_approvedValues",
        "offset": 0,
        "slot": "103",
        "type": "t_mapping(t_uint256,t_mapping(t_address,t_uint256))"
      },
      {
        "astId": 2609,
        "contract": "contracts/HyperCertMinter.sol:HyperCertMinter",
        "label": "_allTokens",
        "offset": 0,
        "slot": "104",
        "type": "t_array(t_struct(TokenData)2582_storage)dyn_storage"
      },
      {
        "astId": 2613,
        "contract": "contracts/HyperCertMinter.sol:HyperCertMinter",
        "label": "_allTokensIndex",
        "offset": 0,
        "slot": "105",
        "type": "t_mapping(t_uint256,t_uint256)"
      },
      {
        "astId": 2618,
        "contract": "contracts/HyperCertMinter.sol:HyperCertMinter",
        "label": "_addressData",
        "offset": 0,
        "slot": "106",
        "type": "t_mapping(t_address,t_struct(AddressData)2594_storage)"
      },
      {
        "astId": 2620,
        "contract": "contracts/HyperCertMinter.sol:HyperCertMinter",
        "label": "tokenCounter",
        "offset": 0,
        "slot": "107",
        "type": "t_uint256"
      },
      {
        "astId": 1990,
        "contract": "contracts/HyperCertMinter.sol:HyperCertMinter",
        "label": "_slotTokensIndex",
        "offset": 0,
        "slot": "108",
        "type": "t_mapping(t_uint256,t_mapping(t_uint256,t_uint256))"
      },
      {
        "astId": 1994,
        "contract": "contracts/HyperCertMinter.sol:HyperCertMinter",
        "label": "_allSlots",
        "offset": 0,
        "slot": "109",
        "type": "t_array(t_struct(SlotData)1984_storage)dyn_storage"
      },
      {
        "astId": 1998,
        "contract": "contracts/HyperCertMinter.sol:HyperCertMinter",
        "label": "_allSlotsIndex",
        "offset": 0,
        "slot": "110",
        "type": "t_mapping(t_uint256,t_uint256)"
      },
      {
        "astId": 2486,
        "contract": "contracts/HyperCertMinter.sol:HyperCertMinter",
        "label": "__gap",
        "offset": 0,
        "slot": "111",
        "type": "t_array(t_uint256)47_storage"
      },
      {
        "astId": 39,
        "contract": "contracts/HyperCertMinter.sol:HyperCertMinter",
        "label": "_roles",
        "offset": 0,
        "slot": "158",
        "type": "t_mapping(t_bytes32,t_struct(RoleData)34_storage)"
      },
      {
        "astId": 338,
        "contract": "contracts/HyperCertMinter.sol:HyperCertMinter",
        "label": "__gap",
        "offset": 0,
        "slot": "159",
        "type": "t_array(t_uint256)49_storage"
      },
      {
        "astId": 796,
        "contract": "contracts/HyperCertMinter.sol:HyperCertMinter",
        "label": "__gap",
        "offset": 0,
        "slot": "208",
        "type": "t_array(t_uint256)50_storage"
      },
      {
        "astId": 1093,
        "contract": "contracts/HyperCertMinter.sol:HyperCertMinter",
        "label": "__gap",
        "offset": 0,
        "slot": "258",
        "type": "t_array(t_uint256)50_storage"
      },
      {
        "astId": 5798,
        "contract": "contracts/HyperCertMinter.sol:HyperCertMinter",
        "label": "_version",
        "offset": 0,
        "slot": "308",
        "type": "t_uint16"
      },
      {
        "astId": 5802,
        "contract": "contracts/HyperCertMinter.sol:HyperCertMinter",
        "label": "_metadata",
        "offset": 2,
        "slot": "308",
        "type": "t_contract(IHyperCertMetadata)8973"
      },
      {
        "astId": 5807,
        "contract": "contracts/HyperCertMinter.sol:HyperCertMinter",
        "label": "workScopes",
        "offset": 0,
        "slot": "309",
        "type": "t_mapping(t_bytes32,t_string_storage)"
      },
      {
        "astId": 5812,
        "contract": "contracts/HyperCertMinter.sol:HyperCertMinter",
        "label": "impactScopes",
        "offset": 0,
        "slot": "310",
        "type": "t_mapping(t_bytes32,t_string_storage)"
      },
      {
        "astId": 5817,
        "contract": "contracts/HyperCertMinter.sol:HyperCertMinter",
        "label": "rights",
        "offset": 0,
        "slot": "311",
        "type": "t_mapping(t_bytes32,t_string_storage)"
      },
      {
        "astId": 5823,
        "contract": "contracts/HyperCertMinter.sol:HyperCertMinter",
        "label": "_contributorImpacts",
        "offset": 0,
        "slot": "312",
        "type": "t_mapping(t_address,t_mapping(t_bytes32,t_bool))"
      },
      {
        "astId": 5828,
        "contract": "contracts/HyperCertMinter.sol:HyperCertMinter",
        "label": "_hyperCerts",
        "offset": 0,
        "slot": "313",
        "type": "t_mapping(t_uint256,t_struct(Claim)5865_storage)"
      }
    ],
    "types": {
      "t_address": {
        "encoding": "inplace",
        "label": "address",
        "numberOfBytes": "20"
      },
      "t_array(t_address)dyn_storage": {
        "base": "t_address",
        "encoding": "dynamic_array",
        "label": "address[]",
        "numberOfBytes": "32"
      },
      "t_array(t_bytes32)dyn_storage": {
        "base": "t_bytes32",
        "encoding": "dynamic_array",
        "label": "bytes32[]",
        "numberOfBytes": "32"
      },
      "t_array(t_struct(SlotData)1984_storage)dyn_storage": {
        "base": "t_struct(SlotData)1984_storage",
        "encoding": "dynamic_array",
        "label": "struct ERC3525SlotEnumerableUpgradeable.SlotData[]",
        "numberOfBytes": "32"
      },
      "t_array(t_struct(TokenData)2582_storage)dyn_storage": {
        "base": "t_struct(TokenData)2582_storage",
        "encoding": "dynamic_array",
        "label": "struct ERC3525Upgradeable.TokenData[]",
        "numberOfBytes": "32"
      },
      "t_array(t_uint256)47_storage": {
        "base": "t_uint256",
        "encoding": "inplace",
        "label": "uint256[47]",
        "numberOfBytes": "1504"
      },
      "t_array(t_uint256)49_storage": {
        "base": "t_uint256",
        "encoding": "inplace",
        "label": "uint256[49]",
        "numberOfBytes": "1568"
      },
      "t_array(t_uint256)50_storage": {
        "base": "t_uint256",
        "encoding": "inplace",
        "label": "uint256[50]",
        "numberOfBytes": "1600"
      },
      "t_array(t_uint256)dyn_storage": {
        "base": "t_uint256",
        "encoding": "dynamic_array",
        "label": "uint256[]",
        "numberOfBytes": "32"
      },
      "t_array(t_uint64)2_storage": {
        "base": "t_uint64",
        "encoding": "inplace",
        "label": "uint64[2]",
        "numberOfBytes": "32"
      },
      "t_bool": {
        "encoding": "inplace",
        "label": "bool",
        "numberOfBytes": "1"
      },
      "t_bytes32": {
        "encoding": "inplace",
        "label": "bytes32",
        "numberOfBytes": "32"
      },
      "t_contract(IHyperCertMetadata)8973": {
        "encoding": "inplace",
        "label": "contract IHyperCertMetadata",
        "numberOfBytes": "20"
      },
      "t_mapping(t_address,t_bool)": {
        "encoding": "mapping",
        "key": "t_address",
        "label": "mapping(address => bool)",
        "numberOfBytes": "32",
        "value": "t_bool"
      },
      "t_mapping(t_address,t_mapping(t_bytes32,t_bool))": {
        "encoding": "mapping",
        "key": "t_address",
        "label": "mapping(address => mapping(bytes32 => bool))",
        "numberOfBytes": "32",
        "value": "t_mapping(t_bytes32,t_bool)"
      },
      "t_mapping(t_address,t_struct(AddressData)2594_storage)": {
        "encoding": "mapping",
        "key": "t_address",
        "label": "mapping(address => struct ERC3525Upgradeable.AddressData)",
        "numberOfBytes": "32",
        "value": "t_struct(AddressData)2594_storage"
      },
      "t_mapping(t_address,t_uint256)": {
        "encoding": "mapping",
        "key": "t_address",
        "label": "mapping(address => uint256)",
        "numberOfBytes": "32",
        "value": "t_uint256"
      },
      "t_mapping(t_bytes32,t_bool)": {
        "encoding": "mapping",
        "key": "t_bytes32",
        "label": "mapping(bytes32 => bool)",
        "numberOfBytes": "32",
        "value": "t_bool"
      },
      "t_mapping(t_bytes32,t_string_storage)": {
        "encoding": "mapping",
        "key": "t_bytes32",
        "label": "mapping(bytes32 => string)",
        "numberOfBytes": "32",
        "value": "t_string_storage"
      },
      "t_mapping(t_bytes32,t_struct(RoleData)34_storage)": {
        "encoding": "mapping",
        "key": "t_bytes32",
        "label": "mapping(bytes32 => struct AccessControlUpgradeable.RoleData)",
        "numberOfBytes": "32",
        "value": "t_struct(RoleData)34_storage"
      },
      "t_mapping(t_uint256,t_mapping(t_address,t_uint256))": {
        "encoding": "mapping",
        "key": "t_uint256",
        "label": "mapping(uint256 => mapping(address => uint256))",
        "numberOfBytes": "32",
        "value": "t_mapping(t_address,t_uint256)"
      },
      "t_mapping(t_uint256,t_mapping(t_uint256,t_uint256))": {
        "encoding": "mapping",
        "key": "t_uint256",
        "label": "mapping(uint256 => mapping(uint256 => uint256))",
        "numberOfBytes": "32",
        "value": "t_mapping(t_uint256,t_uint256)"
      },
      "t_mapping(t_uint256,t_struct(Claim)5865_storage)": {
        "encoding": "mapping",
        "key": "t_uint256",
        "label": "mapping(uint256 => struct HyperCertMinter.Claim)",
        "numberOfBytes": "32",
        "value": "t_struct(Claim)5865_storage"
      },
      "t_mapping(t_uint256,t_uint256)": {
        "encoding": "mapping",
        "key": "t_uint256",
        "label": "mapping(uint256 => uint256)",
        "numberOfBytes": "32",
        "value": "t_uint256"
      },
      "t_string_storage": {
        "encoding": "bytes",
        "label": "string",
        "numberOfBytes": "32"
      },
      "t_struct(AddressData)2594_storage": {
        "encoding": "inplace",
        "label": "struct ERC3525Upgradeable.AddressData",
        "members": [
          {
            "astId": 2585,
            "contract": "contracts/HyperCertMinter.sol:HyperCertMinter",
            "label": "ownedTokens",
            "offset": 0,
            "slot": "0",
            "type": "t_array(t_uint256)dyn_storage"
          },
          {
            "astId": 2589,
            "contract": "contracts/HyperCertMinter.sol:HyperCertMinter",
            "label": "ownedTokensIndex",
            "offset": 0,
            "slot": "1",
            "type": "t_mapping(t_uint256,t_uint256)"
          },
          {
            "astId": 2593,
            "contract": "contracts/HyperCertMinter.sol:HyperCertMinter",
            "label": "approvals",
            "offset": 0,
            "slot": "2",
            "type": "t_mapping(t_address,t_bool)"
          }
        ],
        "numberOfBytes": "96"
      },
      "t_struct(Claim)5865_storage": {
        "encoding": "inplace",
        "label": "struct HyperCertMinter.Claim",
        "members": [
          {
            "astId": 5830,
            "contract": "contracts/HyperCertMinter.sol:HyperCertMinter",
            "label": "claimHash",
            "offset": 0,
            "slot": "0",
            "type": "t_bytes32"
          },
          {
            "astId": 5834,
            "contract": "contracts/HyperCertMinter.sol:HyperCertMinter",
            "label": "workTimeframe",
            "offset": 0,
            "slot": "1",
            "type": "t_array(t_uint64)2_storage"
          },
          {
            "astId": 5838,
            "contract": "contracts/HyperCertMinter.sol:HyperCertMinter",
            "label": "impactTimeframe",
            "offset": 0,
            "slot": "2",
            "type": "t_array(t_uint64)2_storage"
          },
          {
            "astId": 5841,
            "contract": "contracts/HyperCertMinter.sol:HyperCertMinter",
            "label": "workScopes",
            "offset": 0,
            "slot": "3",
            "type": "t_array(t_bytes32)dyn_storage"
          },
          {
            "astId": 5844,
            "contract": "contracts/HyperCertMinter.sol:HyperCertMinter",
            "label": "impactScopes",
            "offset": 0,
            "slot": "4",
            "type": "t_array(t_bytes32)dyn_storage"
          },
          {
            "astId": 5847,
            "contract": "contracts/HyperCertMinter.sol:HyperCertMinter",
            "label": "rights",
            "offset": 0,
            "slot": "5",
            "type": "t_array(t_bytes32)dyn_storage"
          },
          {
            "astId": 5850,
            "contract": "contracts/HyperCertMinter.sol:HyperCertMinter",
            "label": "contributors",
            "offset": 0,
            "slot": "6",
            "type": "t_array(t_address)dyn_storage"
          },
          {
            "astId": 5852,
            "contract": "contracts/HyperCertMinter.sol:HyperCertMinter",
            "label": "totalUnits",
            "offset": 0,
            "slot": "7",
            "type": "t_uint256"
          },
          {
            "astId": 5854,
            "contract": "contracts/HyperCertMinter.sol:HyperCertMinter",
            "label": "version",
            "offset": 0,
            "slot": "8",
            "type": "t_uint16"
          },
          {
            "astId": 5856,
            "contract": "contracts/HyperCertMinter.sol:HyperCertMinter",
            "label": "exists",
            "offset": 2,
            "slot": "8",
            "type": "t_bool"
          },
          {
            "astId": 5858,
            "contract": "contracts/HyperCertMinter.sol:HyperCertMinter",
            "label": "name",
            "offset": 0,
            "slot": "9",
            "type": "t_string_storage"
          },
          {
            "astId": 5860,
            "contract": "contracts/HyperCertMinter.sol:HyperCertMinter",
            "label": "description",
            "offset": 0,
            "slot": "10",
            "type": "t_string_storage"
          },
          {
            "astId": 5862,
            "contract": "contracts/HyperCertMinter.sol:HyperCertMinter",
            "label": "uri",
            "offset": 0,
            "slot": "11",
            "type": "t_string_storage"
          },
          {
            "astId": 5864,
            "contract": "contracts/HyperCertMinter.sol:HyperCertMinter",
            "label": "minter",
            "offset": 0,
            "slot": "12",
            "type": "t_address"
          }
        ],
        "numberOfBytes": "416"
      },
      "t_struct(RoleData)34_storage": {
        "encoding": "inplace",
        "label": "struct AccessControlUpgradeable.RoleData",
        "members": [
          {
            "astId": 31,
            "contract": "contracts/HyperCertMinter.sol:HyperCertMinter",
            "label": "members",
            "offset": 0,
            "slot": "0",
            "type": "t_mapping(t_address,t_bool)"
          },
          {
            "astId": 33,
            "contract": "contracts/HyperCertMinter.sol:HyperCertMinter",
            "label": "adminRole",
            "offset": 0,
            "slot": "1",
            "type": "t_bytes32"
          }
        ],
        "numberOfBytes": "64"
      },
      "t_struct(SlotData)1984_storage": {
        "encoding": "inplace",
        "label": "struct ERC3525SlotEnumerableUpgradeable.SlotData",
        "members": [
          {
            "astId": 1980,
            "contract": "contracts/HyperCertMinter.sol:HyperCertMinter",
            "label": "slot",
            "offset": 0,
            "slot": "0",
            "type": "t_uint256"
          },
          {
            "astId": 1983,
            "contract": "contracts/HyperCertMinter.sol:HyperCertMinter",
            "label": "slotTokens",
            "offset": 0,
            "slot": "1",
            "type": "t_array(t_uint256)dyn_storage"
          }
        ],
        "numberOfBytes": "64"
      },
      "t_struct(TokenData)2582_storage": {
        "encoding": "inplace",
        "label": "struct ERC3525Upgradeable.TokenData",
        "members": [
          {
            "astId": 2570,
            "contract": "contracts/HyperCertMinter.sol:HyperCertMinter",
            "label": "id",
            "offset": 0,
            "slot": "0",
            "type": "t_uint256"
          },
          {
            "astId": 2572,
            "contract": "contracts/HyperCertMinter.sol:HyperCertMinter",
            "label": "slot",
            "offset": 0,
            "slot": "1",
            "type": "t_uint256"
          },
          {
            "astId": 2574,
            "contract": "contracts/HyperCertMinter.sol:HyperCertMinter",
            "label": "balance",
            "offset": 0,
            "slot": "2",
            "type": "t_uint256"
          },
          {
            "astId": 2576,
            "contract": "contracts/HyperCertMinter.sol:HyperCertMinter",
            "label": "owner",
            "offset": 0,
            "slot": "3",
            "type": "t_address"
          },
          {
            "astId": 2578,
            "contract": "contracts/HyperCertMinter.sol:HyperCertMinter",
            "label": "approved",
            "offset": 0,
            "slot": "4",
            "type": "t_address"
          },
          {
            "astId": 2581,
            "contract": "contracts/HyperCertMinter.sol:HyperCertMinter",
            "label": "valueApprovals",
            "offset": 0,
            "slot": "5",
            "type": "t_array(t_address)dyn_storage"
          }
        ],
        "numberOfBytes": "192"
      },
      "t_uint16": {
        "encoding": "inplace",
        "label": "uint16",
        "numberOfBytes": "2"
      },
      "t_uint256": {
        "encoding": "inplace",
        "label": "uint256",
        "numberOfBytes": "32"
      },
      "t_uint64": {
        "encoding": "inplace",
        "label": "uint64",
        "numberOfBytes": "8"
      },
      "t_uint8": {
        "encoding": "inplace",
        "label": "uint8",
        "numberOfBytes": "1"
      }
    }
  }
}